{
	"contract/KimhoGames.sol": {
		"Game": {
			"abi": [
				{
					"inputs": [],
					"stateMutability": "nonpayable",
					"type": "constructor"
				},
				{
					"anonymous": false,
					"inputs": [
						{
							"indexed": true,
							"internalType": "address",
							"name": "owner",
							"type": "address"
						},
						{
							"indexed": true,
							"internalType": "address",
							"name": "spender",
							"type": "address"
						},
						{
							"indexed": false,
							"internalType": "uint256",
							"name": "value",
							"type": "uint256"
						}
					],
					"name": "Approval",
					"type": "event"
				},
				{
					"anonymous": false,
					"inputs": [
						{
							"indexed": true,
							"internalType": "address",
							"name": "from",
							"type": "address"
						},
						{
							"indexed": true,
							"internalType": "address",
							"name": "to",
							"type": "address"
						},
						{
							"indexed": false,
							"internalType": "uint256",
							"name": "value",
							"type": "uint256"
						}
					],
					"name": "Transfer",
					"type": "event"
				},
				{
					"inputs": [
						{
							"internalType": "uint256",
							"name": "input",
							"type": "uint256"
						}
					],
					"name": "NumBaseBall",
					"outputs": [
						{
							"internalType": "bool",
							"name": "",
							"type": "bool"
						}
					],
					"stateMutability": "nonpayable",
					"type": "function"
				},
				{
					"inputs": [
						{
							"internalType": "uint256",
							"name": "input1",
							"type": "uint256"
						},
						{
							"internalType": "uint256",
							"name": "input2",
							"type": "uint256"
						},
						{
							"internalType": "uint256",
							"name": "input3",
							"type": "uint256"
						}
					],
					"name": "RockPaperScissors",
					"outputs": [
						{
							"internalType": "string",
							"name": "",
							"type": "string"
						}
					],
					"stateMutability": "nonpayable",
					"type": "function"
				},
				{
					"inputs": [
						{
							"internalType": "address",
							"name": "owner",
							"type": "address"
						},
						{
							"internalType": "address",
							"name": "spender",
							"type": "address"
						}
					],
					"name": "allowance",
					"outputs": [
						{
							"internalType": "uint256",
							"name": "",
							"type": "uint256"
						}
					],
					"stateMutability": "view",
					"type": "function"
				},
				{
					"inputs": [
						{
							"internalType": "address",
							"name": "spender",
							"type": "address"
						},
						{
							"internalType": "uint256",
							"name": "amount",
							"type": "uint256"
						}
					],
					"name": "approve",
					"outputs": [
						{
							"internalType": "bool",
							"name": "",
							"type": "bool"
						}
					],
					"stateMutability": "nonpayable",
					"type": "function"
				},
				{
					"inputs": [
						{
							"internalType": "address",
							"name": "account",
							"type": "address"
						}
					],
					"name": "balanceOf",
					"outputs": [
						{
							"internalType": "uint256",
							"name": "",
							"type": "uint256"
						}
					],
					"stateMutability": "view",
					"type": "function"
				},
				{
					"inputs": [],
					"name": "decimals",
					"outputs": [
						{
							"internalType": "uint8",
							"name": "",
							"type": "uint8"
						}
					],
					"stateMutability": "view",
					"type": "function"
				},
				{
					"inputs": [
						{
							"internalType": "address",
							"name": "spender",
							"type": "address"
						},
						{
							"internalType": "uint256",
							"name": "subtractedValue",
							"type": "uint256"
						}
					],
					"name": "decreaseAllowance",
					"outputs": [
						{
							"internalType": "bool",
							"name": "",
							"type": "bool"
						}
					],
					"stateMutability": "nonpayable",
					"type": "function"
				},
				{
					"inputs": [],
					"name": "getRockScissorsPaper",
					"outputs": [
						{
							"internalType": "string",
							"name": "",
							"type": "string"
						}
					],
					"stateMutability": "view",
					"type": "function"
				},
				{
					"inputs": [
						{
							"internalType": "address",
							"name": "spender",
							"type": "address"
						},
						{
							"internalType": "uint256",
							"name": "addedValue",
							"type": "uint256"
						}
					],
					"name": "increaseAllowance",
					"outputs": [
						{
							"internalType": "bool",
							"name": "",
							"type": "bool"
						}
					],
					"stateMutability": "nonpayable",
					"type": "function"
				},
				{
					"inputs": [
						{
							"internalType": "uint256",
							"name": "amount",
							"type": "uint256"
						}
					],
					"name": "mint",
					"outputs": [],
					"stateMutability": "nonpayable",
					"type": "function"
				},
				{
					"inputs": [],
					"name": "name",
					"outputs": [
						{
							"internalType": "string",
							"name": "",
							"type": "string"
						}
					],
					"stateMutability": "view",
					"type": "function"
				},
				{
					"inputs": [],
					"name": "owner",
					"outputs": [
						{
							"internalType": "address",
							"name": "",
							"type": "address"
						}
					],
					"stateMutability": "view",
					"type": "function"
				},
				{
					"inputs": [],
					"name": "symbol",
					"outputs": [
						{
							"internalType": "string",
							"name": "",
							"type": "string"
						}
					],
					"stateMutability": "view",
					"type": "function"
				},
				{
					"inputs": [],
					"name": "totalSupply",
					"outputs": [
						{
							"internalType": "uint256",
							"name": "",
							"type": "uint256"
						}
					],
					"stateMutability": "view",
					"type": "function"
				},
				{
					"inputs": [
						{
							"internalType": "address",
							"name": "to",
							"type": "address"
						},
						{
							"internalType": "uint256",
							"name": "amount",
							"type": "uint256"
						}
					],
					"name": "transfer",
					"outputs": [
						{
							"internalType": "bool",
							"name": "",
							"type": "bool"
						}
					],
					"stateMutability": "nonpayable",
					"type": "function"
				},
				{
					"inputs": [
						{
							"internalType": "address",
							"name": "from",
							"type": "address"
						},
						{
							"internalType": "address",
							"name": "to",
							"type": "address"
						},
						{
							"internalType": "uint256",
							"name": "amount",
							"type": "uint256"
						}
					],
					"name": "transferFrom",
					"outputs": [
						{
							"internalType": "bool",
							"name": "",
							"type": "bool"
						}
					],
					"stateMutability": "nonpayable",
					"type": "function"
				}
			],
			"devdoc": {
				"kind": "dev",
				"methods": {
					"allowance(address,address)": {
						"details": "See {IERC20-allowance}."
					},
					"approve(address,uint256)": {
						"details": "See {IERC20-approve}. NOTE: If `amount` is the maximum `uint256`, the allowance is not updated on `transferFrom`. This is semantically equivalent to an infinite approval. Requirements: - `spender` cannot be the zero address."
					},
					"balanceOf(address)": {
						"details": "See {IERC20-balanceOf}."
					},
					"decimals()": {
						"details": "Returns the number of decimals used to get its user representation. For example, if `decimals` equals `2`, a balance of `505` tokens should be displayed to a user as `5.05` (`505 / 10 ** 2`). Tokens usually opt for a value of 18, imitating the relationship between Ether and Wei. This is the value {ERC20} uses, unless this function is overridden; NOTE: This information is only used for _display_ purposes: it in no way affects any of the arithmetic of the contract, including {IERC20-balanceOf} and {IERC20-transfer}."
					},
					"decreaseAllowance(address,uint256)": {
						"details": "Atomically decreases the allowance granted to `spender` by the caller. This is an alternative to {approve} that can be used as a mitigation for problems described in {IERC20-approve}. Emits an {Approval} event indicating the updated allowance. Requirements: - `spender` cannot be the zero address. - `spender` must have allowance for the caller of at least `subtractedValue`."
					},
					"increaseAllowance(address,uint256)": {
						"details": "Atomically increases the allowance granted to `spender` by the caller. This is an alternative to {approve} that can be used as a mitigation for problems described in {IERC20-approve}. Emits an {Approval} event indicating the updated allowance. Requirements: - `spender` cannot be the zero address."
					},
					"name()": {
						"details": "Returns the name of the token."
					},
					"symbol()": {
						"details": "Returns the symbol of the token, usually a shorter version of the name."
					},
					"totalSupply()": {
						"details": "See {IERC20-totalSupply}."
					},
					"transfer(address,uint256)": {
						"details": "See {IERC20-transfer}. Requirements: - `to` cannot be the zero address. - the caller must have a balance of at least `amount`."
					},
					"transferFrom(address,address,uint256)": {
						"details": "See {IERC20-transferFrom}. Emits an {Approval} event indicating the updated allowance. This is not required by the EIP. See the note at the beginning of {ERC20}. NOTE: Does not update the allowance if the current allowance is the maximum `uint256`. Requirements: - `from` and `to` cannot be the zero address. - `from` must have a balance of at least `amount`. - the caller must have allowance for ``from``'s tokens of at least `amount`."
					}
				},
				"version": 1
			},
			"evm": {
				"assembly": "    /* \"contract/KimhoGames.sol\":132:4005  contract Game is ERC20{\r... */\n  mstore(0x40, 0x80)\n    /* \"contract/KimhoGames.sol\":711:712  0 */\n  0x00\n    /* \"contract/KimhoGames.sol\":696:712  uint randNonce=0 */\n  0x09\n  sstore\n    /* \"contract/KimhoGames.sol\":290:420  constructor() ERC20(\"GameCoin\", \"Alice\"){ //생성자\r... */\n  callvalue\n  dup1\n  iszero\n  tag_1\n  jumpi\n  0x00\n  dup1\n  revert\ntag_1:\n  pop\n    /* \"@openzeppelin/contracts/token/ERC20/ERC20.sol\":1978:2091  constructor(string memory name_, string memory symbol_) {... */\n  mload(0x40)\n  dup1\n  0x40\n  add\n  0x40\n  mstore\n  dup1\n  0x08\n  dup2\n  mstore\n  0x20\n  add\n  0x47616d65436f696e000000000000000000000000000000000000000000000000\n  dup2\n  mstore\n  pop\n  mload(0x40)\n  dup1\n  0x40\n  add\n  0x40\n  mstore\n  dup1\n  0x05\n  dup2\n  mstore\n  0x20\n  add\n  0x416c696365000000000000000000000000000000000000000000000000000000\n  dup2\n  mstore\n  pop\n    /* \"@openzeppelin/contracts/token/ERC20/ERC20.sol\":2052:2057  name_ */\n  dup2\n    /* \"@openzeppelin/contracts/token/ERC20/ERC20.sol\":2044:2049  _name */\n  0x03\n    /* \"@openzeppelin/contracts/token/ERC20/ERC20.sol\":2044:2057  _name = name_ */\n  swap1\n  dup1\n  mload\n  swap1\n  0x20\n  add\n  swap1\n  tag_5\n  swap3\n  swap2\n  swap1\n  tag_6\n  jump\t// in\ntag_5:\n  pop\n    /* \"@openzeppelin/contracts/token/ERC20/ERC20.sol\":2077:2084  symbol_ */\n  dup1\n    /* \"@openzeppelin/contracts/token/ERC20/ERC20.sol\":2067:2074  _symbol */\n  0x04\n    /* \"@openzeppelin/contracts/token/ERC20/ERC20.sol\":2067:2084  _symbol = symbol_ */\n  swap1\n  dup1\n  mload\n  swap1\n  0x20\n  add\n  swap1\n  tag_7\n  swap3\n  swap2\n  swap1\n  tag_6\n  jump\t// in\ntag_7:\n  pop\n    /* \"@openzeppelin/contracts/token/ERC20/ERC20.sol\":1978:2091  constructor(string memory name_, string memory symbol_) {... */\n  pop\n  pop\n    /* \"contract/KimhoGames.sol\":361:371  msg.sender */\n  caller\n    /* \"contract/KimhoGames.sol\":353:358  owner */\n  0x05\n  0x00\n    /* \"contract/KimhoGames.sol\":353:371  owner = msg.sender */\n  0x0100\n  exp\n  dup2\n  sload\n  dup2\n  0xffffffffffffffffffffffffffffffffffffffff\n  mul\n  not\n  and\n  swap1\n  dup4\n  0xffffffffffffffffffffffffffffffffffffffff\n  and\n  mul\n  or\n  swap1\n  sstore\n  pop\n    /* \"contract/KimhoGames.sol\":132:4005  contract Game is ERC20{\r... */\n  jump(tag_9)\ntag_6:\n  dup3\n  dup1\n  sload\n  tag_10\n  swap1\n  tag_11\n  jump\t// in\ntag_10:\n  swap1\n  0x00\n  mstore\n  keccak256(0x00, 0x20)\n  swap1\n  0x1f\n  add\n  0x20\n  swap1\n  div\n  dup2\n  add\n  swap3\n  dup3\n  tag_13\n  jumpi\n  0x00\n  dup6\n  sstore\n  jump(tag_12)\ntag_13:\n  dup3\n  0x1f\n  lt\n  tag_14\n  jumpi\n  dup1\n  mload\n  not(0xff)\n  and\n  dup4\n  dup1\n  add\n  or\n  dup6\n  sstore\n  jump(tag_12)\ntag_14:\n  dup3\n  dup1\n  add\n  0x01\n  add\n  dup6\n  sstore\n  dup3\n  iszero\n  tag_12\n  jumpi\n  swap2\n  dup3\n  add\ntag_15:\n  dup3\n  dup2\n  gt\n  iszero\n  tag_16\n  jumpi\n  dup3\n  mload\n  dup3\n  sstore\n  swap2\n  0x20\n  add\n  swap2\n  swap1\n  0x01\n  add\n  swap1\n  jump(tag_15)\ntag_16:\ntag_12:\n  pop\n  swap1\n  pop\n  tag_17\n  swap2\n  swap1\n  tag_18\n  jump\t// in\ntag_17:\n  pop\n  swap1\n  jump\t// out\ntag_18:\ntag_19:\n  dup1\n  dup3\n  gt\n  iszero\n  tag_20\n  jumpi\n  0x00\n  dup2\n  0x00\n  swap1\n  sstore\n  pop\n  0x01\n  add\n  jump(tag_19)\ntag_20:\n  pop\n  swap1\n  jump\t// out\n    /* \"#utility.yul\":7:327   */\ntag_11:\n    /* \"#utility.yul\":51:57   */\n  0x00\n    /* \"#utility.yul\":88:89   */\n  0x02\n    /* \"#utility.yul\":82:86   */\n  dup3\n    /* \"#utility.yul\":78:90   */\n  div\n    /* \"#utility.yul\":68:90   */\n  swap1\n  pop\n    /* \"#utility.yul\":135:136   */\n  0x01\n    /* \"#utility.yul\":129:133   */\n  dup3\n    /* \"#utility.yul\":125:137   */\n  and\n    /* \"#utility.yul\":156:174   */\n  dup1\n    /* \"#utility.yul\":146:227   */\n  tag_23\n  jumpi\n    /* \"#utility.yul\":212:216   */\n  0x7f\n    /* \"#utility.yul\":204:210   */\n  dup3\n    /* \"#utility.yul\":200:217   */\n  and\n    /* \"#utility.yul\":190:217   */\n  swap2\n  pop\n    /* \"#utility.yul\":146:227   */\ntag_23:\n    /* \"#utility.yul\":274:276   */\n  0x20\n    /* \"#utility.yul\":266:272   */\n  dup3\n    /* \"#utility.yul\":263:277   */\n  lt\n    /* \"#utility.yul\":243:261   */\n  dup2\n    /* \"#utility.yul\":240:278   */\n  eq\n    /* \"#utility.yul\":237:321   */\n  iszero\n  tag_24\n  jumpi\n    /* \"#utility.yul\":293:311   */\n  tag_25\n  tag_26\n  jump\t// in\ntag_25:\n    /* \"#utility.yul\":237:321   */\ntag_24:\n    /* \"#utility.yul\":58:327   */\n  pop\n    /* \"#utility.yul\":7:327   */\n  swap2\n  swap1\n  pop\n  jump\t// out\n    /* \"#utility.yul\":333:513   */\ntag_26:\n    /* \"#utility.yul\":381:458   */\n  0x4e487b7100000000000000000000000000000000000000000000000000000000\n    /* \"#utility.yul\":378:379   */\n  0x00\n    /* \"#utility.yul\":371:459   */\n  mstore\n    /* \"#utility.yul\":478:482   */\n  0x22\n    /* \"#utility.yul\":475:476   */\n  0x04\n    /* \"#utility.yul\":468:483   */\n  mstore\n    /* \"#utility.yul\":502:506   */\n  0x24\n    /* \"#utility.yul\":499:500   */\n  0x00\n    /* \"#utility.yul\":492:507   */\n  revert\n    /* \"contract/KimhoGames.sol\":132:4005  contract Game is ERC20{\r... */\ntag_9:\n  dataSize(sub_0)\n  dup1\n  dataOffset(sub_0)\n  0x00\n  codecopy\n  0x00\n  return\nstop\n\nsub_0: assembly {\n        /* \"contract/KimhoGames.sol\":132:4005  contract Game is ERC20{\r... */\n      mstore(0x40, 0x80)\n      callvalue\n      dup1\n      iszero\n      tag_1\n      jumpi\n      0x00\n      dup1\n      revert\n    tag_1:\n      pop\n      jumpi(tag_2, lt(calldatasize, 0x04))\n      shr(0xe0, calldataload(0x00))\n      dup1\n      0x70a08231\n      gt\n      tag_19\n      jumpi\n      dup1\n      0xa3b1f6cc\n      gt\n      tag_20\n      jumpi\n      dup1\n      0xa3b1f6cc\n      eq\n      tag_15\n      jumpi\n      dup1\n      0xa457c2d7\n      eq\n      tag_16\n      jumpi\n      dup1\n      0xa9059cbb\n      eq\n      tag_17\n      jumpi\n      dup1\n      0xdd62ed3e\n      eq\n      tag_18\n      jumpi\n      jump(tag_2)\n    tag_20:\n      dup1\n      0x70a08231\n      eq\n      tag_11\n      jumpi\n      dup1\n      0x8da5cb5b\n      eq\n      tag_12\n      jumpi\n      dup1\n      0x95d89b41\n      eq\n      tag_13\n      jumpi\n      dup1\n      0xa0712d68\n      eq\n      tag_14\n      jumpi\n      jump(tag_2)\n    tag_19:\n      dup1\n      0x23b872dd\n      gt\n      tag_21\n      jumpi\n      dup1\n      0x23b872dd\n      eq\n      tag_7\n      jumpi\n      dup1\n      0x313ce567\n      eq\n      tag_8\n      jumpi\n      dup1\n      0x39509351\n      eq\n      tag_9\n      jumpi\n      dup1\n      0x4802d378\n      eq\n      tag_10\n      jumpi\n      jump(tag_2)\n    tag_21:\n      dup1\n      0x06fdde03\n      eq\n      tag_3\n      jumpi\n      dup1\n      0x095ea7b3\n      eq\n      tag_4\n      jumpi\n      dup1\n      0x18160ddd\n      eq\n      tag_5\n      jumpi\n      dup1\n      0x19c6b708\n      eq\n      tag_6\n      jumpi\n    tag_2:\n      0x00\n      dup1\n      revert\n        /* \"@openzeppelin/contracts/token/ERC20/ERC20.sol\":2156:2254  function name() public view virtual override returns (string memory) {... */\n    tag_3:\n      tag_22\n      tag_23\n      jump\t// in\n    tag_22:\n      mload(0x40)\n      tag_24\n      swap2\n      swap1\n      tag_25\n      jump\t// in\n    tag_24:\n      mload(0x40)\n      dup1\n      swap2\n      sub\n      swap1\n      return\n        /* \"@openzeppelin/contracts/token/ERC20/ERC20.sol\":4433:4630  function approve(address spender, uint256 amount) public virtual override returns (bool) {... */\n    tag_4:\n      tag_26\n      0x04\n      dup1\n      calldatasize\n      sub\n      dup2\n      add\n      swap1\n      tag_27\n      swap2\n      swap1\n      tag_28\n      jump\t// in\n    tag_27:\n      tag_29\n      jump\t// in\n    tag_26:\n      mload(0x40)\n      tag_30\n      swap2\n      swap1\n      tag_31\n      jump\t// in\n    tag_30:\n      mload(0x40)\n      dup1\n      swap2\n      sub\n      swap1\n      return\n        /* \"@openzeppelin/contracts/token/ERC20/ERC20.sol\":3244:3350  function totalSupply() public view virtual override returns (uint256) {... */\n    tag_5:\n      tag_32\n      tag_33\n      jump\t// in\n    tag_32:\n      mload(0x40)\n      tag_34\n      swap2\n      swap1\n      tag_35\n      jump\t// in\n    tag_34:\n      mload(0x40)\n      dup1\n      swap2\n      sub\n      swap1\n      return\n        /* \"contract/KimhoGames.sol\":3545:3994  function NumBaseBall(uint input) public returns (bool){\r... */\n    tag_6:\n      tag_36\n      0x04\n      dup1\n      calldatasize\n      sub\n      dup2\n      add\n      swap1\n      tag_37\n      swap2\n      swap1\n      tag_38\n      jump\t// in\n    tag_37:\n      tag_39\n      jump\t// in\n    tag_36:\n      mload(0x40)\n      tag_40\n      swap2\n      swap1\n      tag_31\n      jump\t// in\n    tag_40:\n      mload(0x40)\n      dup1\n      swap2\n      sub\n      swap1\n      return\n        /* \"@openzeppelin/contracts/token/ERC20/ERC20.sol\":5192:5478  function transferFrom(... */\n    tag_7:\n      tag_41\n      0x04\n      dup1\n      calldatasize\n      sub\n      dup2\n      add\n      swap1\n      tag_42\n      swap2\n      swap1\n      tag_43\n      jump\t// in\n    tag_42:\n      tag_44\n      jump\t// in\n    tag_41:\n      mload(0x40)\n      tag_45\n      swap2\n      swap1\n      tag_31\n      jump\t// in\n    tag_45:\n      mload(0x40)\n      dup1\n      swap2\n      sub\n      swap1\n      return\n        /* \"@openzeppelin/contracts/token/ERC20/ERC20.sol\":3093:3184  function decimals() public view virtual override returns (uint8) {... */\n    tag_8:\n      tag_46\n      tag_47\n      jump\t// in\n    tag_46:\n      mload(0x40)\n      tag_48\n      swap2\n      swap1\n      tag_49\n      jump\t// in\n    tag_48:\n      mload(0x40)\n      dup1\n      swap2\n      sub\n      swap1\n      return\n        /* \"@openzeppelin/contracts/token/ERC20/ERC20.sol\":5873:6107  function increaseAllowance(address spender, uint256 addedValue) public virtual returns (bool) {... */\n    tag_9:\n      tag_50\n      0x04\n      dup1\n      calldatasize\n      sub\n      dup2\n      add\n      swap1\n      tag_51\n      swap2\n      swap1\n      tag_28\n      jump\t// in\n    tag_51:\n      tag_52\n      jump\t// in\n    tag_50:\n      mload(0x40)\n      tag_53\n      swap2\n      swap1\n      tag_31\n      jump\t// in\n    tag_53:\n      mload(0x40)\n      dup1\n      swap2\n      sub\n      swap1\n      return\n        /* \"contract/KimhoGames.sol\":3420:3535  function getRockScissorsPaper() public view returns (string memory){\r... */\n    tag_10:\n      tag_54\n      tag_55\n      jump\t// in\n    tag_54:\n      mload(0x40)\n      tag_56\n      swap2\n      swap1\n      tag_25\n      jump\t// in\n    tag_56:\n      mload(0x40)\n      dup1\n      swap2\n      sub\n      swap1\n      return\n        /* \"@openzeppelin/contracts/token/ERC20/ERC20.sol\":3408:3533  function balanceOf(address account) public view virtual override returns (uint256) {... */\n    tag_11:\n      tag_57\n      0x04\n      dup1\n      calldatasize\n      sub\n      dup2\n      add\n      swap1\n      tag_58\n      swap2\n      swap1\n      tag_59\n      jump\t// in\n    tag_58:\n      tag_60\n      jump\t// in\n    tag_57:\n      mload(0x40)\n      tag_61\n      swap2\n      swap1\n      tag_35\n      jump\t// in\n    tag_61:\n      mload(0x40)\n      dup1\n      swap2\n      sub\n      swap1\n      return\n        /* \"contract/KimhoGames.sol\":161:181  address public owner */\n    tag_12:\n      tag_62\n      tag_63\n      jump\t// in\n    tag_62:\n      mload(0x40)\n      tag_64\n      swap2\n      swap1\n      tag_65\n      jump\t// in\n    tag_64:\n      mload(0x40)\n      dup1\n      swap2\n      sub\n      swap1\n      return\n        /* \"@openzeppelin/contracts/token/ERC20/ERC20.sol\":2367:2469  function symbol() public view virtual override returns (string memory) {... */\n    tag_13:\n      tag_66\n      tag_67\n      jump\t// in\n    tag_66:\n      mload(0x40)\n      tag_68\n      swap2\n      swap1\n      tag_25\n      jump\t// in\n    tag_68:\n      mload(0x40)\n      dup1\n      swap2\n      sub\n      swap1\n      return\n        /* \"contract/KimhoGames.sol\":589:684  function mint(uint256 amount) public {\r... */\n    tag_14:\n      tag_69\n      0x04\n      dup1\n      calldatasize\n      sub\n      dup2\n      add\n      swap1\n      tag_70\n      swap2\n      swap1\n      tag_38\n      jump\t// in\n    tag_70:\n      tag_71\n      jump\t// in\n    tag_69:\n      stop\n        /* \"contract/KimhoGames.sol\":918:3412  function RockPaperScissors(uint input1, uint input2, uint input3) public returns (string memory){\r... */\n    tag_15:\n      tag_72\n      0x04\n      dup1\n      calldatasize\n      sub\n      dup2\n      add\n      swap1\n      tag_73\n      swap2\n      swap1\n      tag_74\n      jump\t// in\n    tag_73:\n      tag_75\n      jump\t// in\n    tag_72:\n      mload(0x40)\n      tag_76\n      swap2\n      swap1\n      tag_25\n      jump\t// in\n    tag_76:\n      mload(0x40)\n      dup1\n      swap2\n      sub\n      swap1\n      return\n        /* \"@openzeppelin/contracts/token/ERC20/ERC20.sol\":6594:7021  function decreaseAllowance(address spender, uint256 subtractedValue) public virtual returns (bool) {... */\n    tag_16:\n      tag_77\n      0x04\n      dup1\n      calldatasize\n      sub\n      dup2\n      add\n      swap1\n      tag_78\n      swap2\n      swap1\n      tag_28\n      jump\t// in\n    tag_78:\n      tag_79\n      jump\t// in\n    tag_77:\n      mload(0x40)\n      tag_80\n      swap2\n      swap1\n      tag_31\n      jump\t// in\n    tag_80:\n      mload(0x40)\n      dup1\n      swap2\n      sub\n      swap1\n      return\n        /* \"contract/KimhoGames.sol\":432:577  function transfer(address to, uint256 amount) public override returns (bool){\r... */\n    tag_17:\n      tag_81\n      0x04\n      dup1\n      calldatasize\n      sub\n      dup2\n      add\n      swap1\n      tag_82\n      swap2\n      swap1\n      tag_28\n      jump\t// in\n    tag_82:\n      tag_83\n      jump\t// in\n    tag_81:\n      mload(0x40)\n      tag_84\n      swap2\n      swap1\n      tag_31\n      jump\t// in\n    tag_84:\n      mload(0x40)\n      dup1\n      swap2\n      sub\n      swap1\n      return\n        /* \"@openzeppelin/contracts/token/ERC20/ERC20.sol\":3976:4125  function allowance(address owner, address spender) public view virtual override returns (uint256) {... */\n    tag_18:\n      tag_85\n      0x04\n      dup1\n      calldatasize\n      sub\n      dup2\n      add\n      swap1\n      tag_86\n      swap2\n      swap1\n      tag_87\n      jump\t// in\n    tag_86:\n      tag_88\n      jump\t// in\n    tag_85:\n      mload(0x40)\n      tag_89\n      swap2\n      swap1\n      tag_35\n      jump\t// in\n    tag_89:\n      mload(0x40)\n      dup1\n      swap2\n      sub\n      swap1\n      return\n        /* \"@openzeppelin/contracts/token/ERC20/ERC20.sol\":2156:2254  function name() public view virtual override returns (string memory) {... */\n    tag_23:\n        /* \"@openzeppelin/contracts/token/ERC20/ERC20.sol\":2210:2223  string memory */\n      0x60\n        /* \"@openzeppelin/contracts/token/ERC20/ERC20.sol\":2242:2247  _name */\n      0x03\n        /* \"@openzeppelin/contracts/token/ERC20/ERC20.sol\":2235:2247  return _name */\n      dup1\n      sload\n      tag_91\n      swap1\n      tag_92\n      jump\t// in\n    tag_91:\n      dup1\n      0x1f\n      add\n      0x20\n      dup1\n      swap2\n      div\n      mul\n      0x20\n      add\n      mload(0x40)\n      swap1\n      dup2\n      add\n      0x40\n      mstore\n      dup1\n      swap3\n      swap2\n      swap1\n      dup2\n      dup2\n      mstore\n      0x20\n      add\n      dup3\n      dup1\n      sload\n      tag_93\n      swap1\n      tag_92\n      jump\t// in\n    tag_93:\n      dup1\n      iszero\n      tag_94\n      jumpi\n      dup1\n      0x1f\n      lt\n      tag_95\n      jumpi\n      0x0100\n      dup1\n      dup4\n      sload\n      div\n      mul\n      dup4\n      mstore\n      swap2\n      0x20\n      add\n      swap2\n      jump(tag_94)\n    tag_95:\n      dup3\n      add\n      swap2\n      swap1\n      0x00\n      mstore\n      keccak256(0x00, 0x20)\n      swap1\n    tag_96:\n      dup2\n      sload\n      dup2\n      mstore\n      swap1\n      0x01\n      add\n      swap1\n      0x20\n      add\n      dup1\n      dup4\n      gt\n      tag_96\n      jumpi\n      dup3\n      swap1\n      sub\n      0x1f\n      and\n      dup3\n      add\n      swap2\n    tag_94:\n      pop\n      pop\n      pop\n      pop\n      pop\n      swap1\n      pop\n        /* \"@openzeppelin/contracts/token/ERC20/ERC20.sol\":2156:2254  function name() public view virtual override returns (string memory) {... */\n      swap1\n      jump\t// out\n        /* \"@openzeppelin/contracts/token/ERC20/ERC20.sol\":4433:4630  function approve(address spender, uint256 amount) public virtual override returns (bool) {... */\n    tag_29:\n        /* \"@openzeppelin/contracts/token/ERC20/ERC20.sol\":4516:4520  bool */\n      0x00\n        /* \"@openzeppelin/contracts/token/ERC20/ERC20.sol\":4532:4545  address owner */\n      dup1\n        /* \"@openzeppelin/contracts/token/ERC20/ERC20.sol\":4548:4560  _msgSender() */\n      tag_98\n        /* \"@openzeppelin/contracts/token/ERC20/ERC20.sol\":4548:4558  _msgSender */\n      tag_99\n        /* \"@openzeppelin/contracts/token/ERC20/ERC20.sol\":4548:4560  _msgSender() */\n      jump\t// in\n    tag_98:\n        /* \"@openzeppelin/contracts/token/ERC20/ERC20.sol\":4532:4560  address owner = _msgSender() */\n      swap1\n      pop\n        /* \"@openzeppelin/contracts/token/ERC20/ERC20.sol\":4570:4602  _approve(owner, spender, amount) */\n      tag_100\n        /* \"@openzeppelin/contracts/token/ERC20/ERC20.sol\":4579:4584  owner */\n      dup2\n        /* \"@openzeppelin/contracts/token/ERC20/ERC20.sol\":4586:4593  spender */\n      dup6\n        /* \"@openzeppelin/contracts/token/ERC20/ERC20.sol\":4595:4601  amount */\n      dup6\n        /* \"@openzeppelin/contracts/token/ERC20/ERC20.sol\":4570:4578  _approve */\n      tag_101\n        /* \"@openzeppelin/contracts/token/ERC20/ERC20.sol\":4570:4602  _approve(owner, spender, amount) */\n      jump\t// in\n    tag_100:\n        /* \"@openzeppelin/contracts/token/ERC20/ERC20.sol\":4619:4623  true */\n      0x01\n        /* \"@openzeppelin/contracts/token/ERC20/ERC20.sol\":4612:4623  return true */\n      swap2\n      pop\n      pop\n        /* \"@openzeppelin/contracts/token/ERC20/ERC20.sol\":4433:4630  function approve(address spender, uint256 amount) public virtual override returns (bool) {... */\n      swap3\n      swap2\n      pop\n      pop\n      jump\t// out\n        /* \"@openzeppelin/contracts/token/ERC20/ERC20.sol\":3244:3350  function totalSupply() public view virtual override returns (uint256) {... */\n    tag_33:\n        /* \"@openzeppelin/contracts/token/ERC20/ERC20.sol\":3305:3312  uint256 */\n      0x00\n        /* \"@openzeppelin/contracts/token/ERC20/ERC20.sol\":3331:3343  _totalSupply */\n      sload(0x02)\n        /* \"@openzeppelin/contracts/token/ERC20/ERC20.sol\":3324:3343  return _totalSupply */\n      swap1\n      pop\n        /* \"@openzeppelin/contracts/token/ERC20/ERC20.sol\":3244:3350  function totalSupply() public view virtual override returns (uint256) {... */\n      swap1\n      jump\t// out\n        /* \"contract/KimhoGames.sol\":3545:3994  function NumBaseBall(uint input) public returns (bool){\r... */\n    tag_39:\n        /* \"contract/KimhoGames.sol\":3594:3598  bool */\n      0x00\n        /* \"contract/KimhoGames.sol\":3610:3634  string memory Winmessage */\n      dup1\n        /* \"contract/KimhoGames.sol\":3610:3648  string memory Winmessage = \"you win!!\" */\n      mload(0x40)\n      dup1\n      0x40\n      add\n      0x40\n      mstore\n      dup1\n      0x09\n      dup2\n      mstore\n      0x20\n      add\n      0x796f752077696e21210000000000000000000000000000000000000000000000\n      dup2\n      mstore\n      pop\n      swap1\n      pop\n        /* \"contract/KimhoGames.sol\":3659:3686  string memory Defeatmessage */\n      0x00\n        /* \"contract/KimhoGames.sol\":3659:3699  string memory Defeatmessage = \"you lose\" */\n      mload(0x40)\n      dup1\n      0x40\n      add\n      0x40\n      mstore\n      dup1\n      0x08\n      dup2\n      mstore\n      0x20\n      add\n      0x796f75206c6f7365000000000000000000000000000000000000000000000000\n      dup2\n      mstore\n      pop\n      swap1\n      pop\n        /* \"contract/KimhoGames.sol\":3710:3719  uint rand */\n      0x00\n        /* \"contract/KimhoGames.sol\":3794:3797  100 */\n      0x64\n        /* \"contract/KimhoGames.sol\":3754:3769  block.timestamp */\n      timestamp\n        /* \"contract/KimhoGames.sol\":3770:3780  msg.sender */\n      caller\n        /* \"contract/KimhoGames.sol\":3781:3790  randNonce */\n      sload(0x09)\n        /* \"contract/KimhoGames.sol\":3737:3791  abi.encodePacked(block.timestamp,msg.sender,randNonce) */\n      add(0x20, mload(0x40))\n      tag_104\n      swap4\n      swap3\n      swap2\n      swap1\n      tag_105\n      jump\t// in\n    tag_104:\n      mload(0x40)\n      0x20\n      dup2\n      dup4\n      sub\n      sub\n      dup2\n      mstore\n      swap1\n      0x40\n      mstore\n        /* \"contract/KimhoGames.sol\":3727:3792  keccak256(abi.encodePacked(block.timestamp,msg.sender,randNonce)) */\n      dup1\n      mload\n      swap1\n      0x20\n      add\n      keccak256\n        /* \"contract/KimhoGames.sol\":3722:3793  uint(keccak256(abi.encodePacked(block.timestamp,msg.sender,randNonce))) */\n      0x00\n      shr\n        /* \"contract/KimhoGames.sol\":3722:3797  uint(keccak256(abi.encodePacked(block.timestamp,msg.sender,randNonce)))%100 */\n      tag_106\n      swap2\n      swap1\n      tag_107\n      jump\t// in\n    tag_106:\n        /* \"contract/KimhoGames.sol\":3710:3797  uint rand = uint(keccak256(abi.encodePacked(block.timestamp,msg.sender,randNonce)))%100 */\n      swap1\n      pop\n        /* \"contract/KimhoGames.sol\":3808:3814  uint u */\n      0x00\n        /* \"contract/KimhoGames.sol\":3821:3824  100 */\n      0x64\n        /* \"contract/KimhoGames.sol\":3815:3820  input */\n      dup7\n        /* \"contract/KimhoGames.sol\":3815:3824  input%100 */\n      tag_108\n      swap2\n      swap1\n      tag_107\n      jump\t// in\n    tag_108:\n        /* \"contract/KimhoGames.sol\":3808:3824  uint u=input%100 */\n      swap1\n      pop\n        /* \"contract/KimhoGames.sol\":3844:3845  u */\n      dup1\n        /* \"contract/KimhoGames.sol\":3838:3842  rand */\n      dup3\n        /* \"contract/KimhoGames.sol\":3838:3845  rand>=u */\n      lt\n        /* \"contract/KimhoGames.sol\":3835:3965  if(rand>=u){\r... */\n      tag_109\n      jumpi\n        /* \"contract/KimhoGames.sol\":3875:3888  Defeatmessage */\n      dup3\n        /* \"contract/KimhoGames.sol\":3861:3874  BaseBallScore */\n      0x07\n        /* \"contract/KimhoGames.sol\":3861:3888  BaseBallScore=Defeatmessage */\n      swap1\n      dup1\n      mload\n      swap1\n      0x20\n      add\n      swap1\n      tag_110\n      swap3\n      swap2\n      swap1\n      tag_111\n      jump\t// in\n    tag_110:\n      pop\n        /* \"contract/KimhoGames.sol\":3835:3965  if(rand>=u){\r... */\n      jump(tag_112)\n    tag_109:\n        /* \"contract/KimhoGames.sol\":3943:3953  Winmessage */\n      dup4\n        /* \"contract/KimhoGames.sol\":3929:3942  BaseBallScore */\n      0x07\n        /* \"contract/KimhoGames.sol\":3929:3953  BaseBallScore=Winmessage */\n      swap1\n      dup1\n      mload\n      swap1\n      0x20\n      add\n      swap1\n      tag_113\n      swap3\n      swap2\n      swap1\n      tag_111\n      jump\t// in\n    tag_113:\n      pop\n        /* \"contract/KimhoGames.sol\":3835:3965  if(rand>=u){\r... */\n    tag_112:\n        /* \"contract/KimhoGames.sol\":3982:3986  true */\n      0x01\n        /* \"contract/KimhoGames.sol\":3975:3986  return true */\n      swap5\n      pop\n      pop\n      pop\n      pop\n      pop\n        /* \"contract/KimhoGames.sol\":3545:3994  function NumBaseBall(uint input) public returns (bool){\r... */\n      swap2\n      swap1\n      pop\n      jump\t// out\n        /* \"@openzeppelin/contracts/token/ERC20/ERC20.sol\":5192:5478  function transferFrom(... */\n    tag_44:\n        /* \"@openzeppelin/contracts/token/ERC20/ERC20.sol\":5319:5323  bool */\n      0x00\n        /* \"@openzeppelin/contracts/token/ERC20/ERC20.sol\":5335:5350  address spender */\n      dup1\n        /* \"@openzeppelin/contracts/token/ERC20/ERC20.sol\":5353:5365  _msgSender() */\n      tag_115\n        /* \"@openzeppelin/contracts/token/ERC20/ERC20.sol\":5353:5363  _msgSender */\n      tag_99\n        /* \"@openzeppelin/contracts/token/ERC20/ERC20.sol\":5353:5365  _msgSender() */\n      jump\t// in\n    tag_115:\n        /* \"@openzeppelin/contracts/token/ERC20/ERC20.sol\":5335:5365  address spender = _msgSender() */\n      swap1\n      pop\n        /* \"@openzeppelin/contracts/token/ERC20/ERC20.sol\":5375:5413  _spendAllowance(from, spender, amount) */\n      tag_116\n        /* \"@openzeppelin/contracts/token/ERC20/ERC20.sol\":5391:5395  from */\n      dup6\n        /* \"@openzeppelin/contracts/token/ERC20/ERC20.sol\":5397:5404  spender */\n      dup3\n        /* \"@openzeppelin/contracts/token/ERC20/ERC20.sol\":5406:5412  amount */\n      dup6\n        /* \"@openzeppelin/contracts/token/ERC20/ERC20.sol\":5375:5390  _spendAllowance */\n      tag_117\n        /* \"@openzeppelin/contracts/token/ERC20/ERC20.sol\":5375:5413  _spendAllowance(from, spender, amount) */\n      jump\t// in\n    tag_116:\n        /* \"@openzeppelin/contracts/token/ERC20/ERC20.sol\":5423:5450  _transfer(from, to, amount) */\n      tag_118\n        /* \"@openzeppelin/contracts/token/ERC20/ERC20.sol\":5433:5437  from */\n      dup6\n        /* \"@openzeppelin/contracts/token/ERC20/ERC20.sol\":5439:5441  to */\n      dup6\n        /* \"@openzeppelin/contracts/token/ERC20/ERC20.sol\":5443:5449  amount */\n      dup6\n        /* \"@openzeppelin/contracts/token/ERC20/ERC20.sol\":5423:5432  _transfer */\n      tag_119\n        /* \"@openzeppelin/contracts/token/ERC20/ERC20.sol\":5423:5450  _transfer(from, to, amount) */\n      jump\t// in\n    tag_118:\n        /* \"@openzeppelin/contracts/token/ERC20/ERC20.sol\":5467:5471  true */\n      0x01\n        /* \"@openzeppelin/contracts/token/ERC20/ERC20.sol\":5460:5471  return true */\n      swap2\n      pop\n      pop\n        /* \"@openzeppelin/contracts/token/ERC20/ERC20.sol\":5192:5478  function transferFrom(... */\n      swap4\n      swap3\n      pop\n      pop\n      pop\n      jump\t// out\n        /* \"@openzeppelin/contracts/token/ERC20/ERC20.sol\":3093:3184  function decimals() public view virtual override returns (uint8) {... */\n    tag_47:\n        /* \"@openzeppelin/contracts/token/ERC20/ERC20.sol\":3151:3156  uint8 */\n      0x00\n        /* \"@openzeppelin/contracts/token/ERC20/ERC20.sol\":3175:3177  18 */\n      0x12\n        /* \"@openzeppelin/contracts/token/ERC20/ERC20.sol\":3168:3177  return 18 */\n      swap1\n      pop\n        /* \"@openzeppelin/contracts/token/ERC20/ERC20.sol\":3093:3184  function decimals() public view virtual override returns (uint8) {... */\n      swap1\n      jump\t// out\n        /* \"@openzeppelin/contracts/token/ERC20/ERC20.sol\":5873:6107  function increaseAllowance(address spender, uint256 addedValue) public virtual returns (bool) {... */\n    tag_52:\n        /* \"@openzeppelin/contracts/token/ERC20/ERC20.sol\":5961:5965  bool */\n      0x00\n        /* \"@openzeppelin/contracts/token/ERC20/ERC20.sol\":5977:5990  address owner */\n      dup1\n        /* \"@openzeppelin/contracts/token/ERC20/ERC20.sol\":5993:6005  _msgSender() */\n      tag_122\n        /* \"@openzeppelin/contracts/token/ERC20/ERC20.sol\":5993:6003  _msgSender */\n      tag_99\n        /* \"@openzeppelin/contracts/token/ERC20/ERC20.sol\":5993:6005  _msgSender() */\n      jump\t// in\n    tag_122:\n        /* \"@openzeppelin/contracts/token/ERC20/ERC20.sol\":5977:6005  address owner = _msgSender() */\n      swap1\n      pop\n        /* \"@openzeppelin/contracts/token/ERC20/ERC20.sol\":6015:6079  _approve(owner, spender, allowance(owner, spender) + addedValue) */\n      tag_123\n        /* \"@openzeppelin/contracts/token/ERC20/ERC20.sol\":6024:6029  owner */\n      dup2\n        /* \"@openzeppelin/contracts/token/ERC20/ERC20.sol\":6031:6038  spender */\n      dup6\n        /* \"@openzeppelin/contracts/token/ERC20/ERC20.sol\":6068:6078  addedValue */\n      dup6\n        /* \"@openzeppelin/contracts/token/ERC20/ERC20.sol\":6040:6065  allowance(owner, spender) */\n      tag_124\n        /* \"@openzeppelin/contracts/token/ERC20/ERC20.sol\":6050:6055  owner */\n      dup6\n        /* \"@openzeppelin/contracts/token/ERC20/ERC20.sol\":6057:6064  spender */\n      dup10\n        /* \"@openzeppelin/contracts/token/ERC20/ERC20.sol\":6040:6049  allowance */\n      tag_88\n        /* \"@openzeppelin/contracts/token/ERC20/ERC20.sol\":6040:6065  allowance(owner, spender) */\n      jump\t// in\n    tag_124:\n        /* \"@openzeppelin/contracts/token/ERC20/ERC20.sol\":6040:6078  allowance(owner, spender) + addedValue */\n      tag_125\n      swap2\n      swap1\n      tag_126\n      jump\t// in\n    tag_125:\n        /* \"@openzeppelin/contracts/token/ERC20/ERC20.sol\":6015:6023  _approve */\n      tag_101\n        /* \"@openzeppelin/contracts/token/ERC20/ERC20.sol\":6015:6079  _approve(owner, spender, allowance(owner, spender) + addedValue) */\n      jump\t// in\n    tag_123:\n        /* \"@openzeppelin/contracts/token/ERC20/ERC20.sol\":6096:6100  true */\n      0x01\n        /* \"@openzeppelin/contracts/token/ERC20/ERC20.sol\":6089:6100  return true */\n      swap2\n      pop\n      pop\n        /* \"@openzeppelin/contracts/token/ERC20/ERC20.sol\":5873:6107  function increaseAllowance(address spender, uint256 addedValue) public virtual returns (bool) {... */\n      swap3\n      swap2\n      pop\n      pop\n      jump\t// out\n        /* \"contract/KimhoGames.sol\":3420:3535  function getRockScissorsPaper() public view returns (string memory){\r... */\n    tag_55:\n        /* \"contract/KimhoGames.sol\":3473:3486  string memory */\n      0x60\n        /* \"contract/KimhoGames.sol\":3505:3527  RockScissorsPaperScore */\n      0x06\n        /* \"contract/KimhoGames.sol\":3498:3527  return RockScissorsPaperScore */\n      dup1\n      sload\n      tag_128\n      swap1\n      tag_92\n      jump\t// in\n    tag_128:\n      dup1\n      0x1f\n      add\n      0x20\n      dup1\n      swap2\n      div\n      mul\n      0x20\n      add\n      mload(0x40)\n      swap1\n      dup2\n      add\n      0x40\n      mstore\n      dup1\n      swap3\n      swap2\n      swap1\n      dup2\n      dup2\n      mstore\n      0x20\n      add\n      dup3\n      dup1\n      sload\n      tag_129\n      swap1\n      tag_92\n      jump\t// in\n    tag_129:\n      dup1\n      iszero\n      tag_130\n      jumpi\n      dup1\n      0x1f\n      lt\n      tag_131\n      jumpi\n      0x0100\n      dup1\n      dup4\n      sload\n      div\n      mul\n      dup4\n      mstore\n      swap2\n      0x20\n      add\n      swap2\n      jump(tag_130)\n    tag_131:\n      dup3\n      add\n      swap2\n      swap1\n      0x00\n      mstore\n      keccak256(0x00, 0x20)\n      swap1\n    tag_132:\n      dup2\n      sload\n      dup2\n      mstore\n      swap1\n      0x01\n      add\n      swap1\n      0x20\n      add\n      dup1\n      dup4\n      gt\n      tag_132\n      jumpi\n      dup3\n      swap1\n      sub\n      0x1f\n      and\n      dup3\n      add\n      swap2\n    tag_130:\n      pop\n      pop\n      pop\n      pop\n      pop\n      swap1\n      pop\n        /* \"contract/KimhoGames.sol\":3420:3535  function getRockScissorsPaper() public view returns (string memory){\r... */\n      swap1\n      jump\t// out\n        /* \"@openzeppelin/contracts/token/ERC20/ERC20.sol\":3408:3533  function balanceOf(address account) public view virtual override returns (uint256) {... */\n    tag_60:\n        /* \"@openzeppelin/contracts/token/ERC20/ERC20.sol\":3482:3489  uint256 */\n      0x00\n        /* \"@openzeppelin/contracts/token/ERC20/ERC20.sol\":3508:3517  _balances */\n      dup1\n        /* \"@openzeppelin/contracts/token/ERC20/ERC20.sol\":3508:3526  _balances[account] */\n      0x00\n        /* \"@openzeppelin/contracts/token/ERC20/ERC20.sol\":3518:3525  account */\n      dup4\n        /* \"@openzeppelin/contracts/token/ERC20/ERC20.sol\":3508:3526  _balances[account] */\n      0xffffffffffffffffffffffffffffffffffffffff\n      and\n      0xffffffffffffffffffffffffffffffffffffffff\n      and\n      dup2\n      mstore\n      0x20\n      add\n      swap1\n      dup2\n      mstore\n      0x20\n      add\n      0x00\n      keccak256\n      sload\n        /* \"@openzeppelin/contracts/token/ERC20/ERC20.sol\":3501:3526  return _balances[account] */\n      swap1\n      pop\n        /* \"@openzeppelin/contracts/token/ERC20/ERC20.sol\":3408:3533  function balanceOf(address account) public view virtual override returns (uint256) {... */\n      swap2\n      swap1\n      pop\n      jump\t// out\n        /* \"contract/KimhoGames.sol\":161:181  address public owner */\n    tag_63:\n      0x05\n      0x00\n      swap1\n      sload\n      swap1\n      0x0100\n      exp\n      swap1\n      div\n      0xffffffffffffffffffffffffffffffffffffffff\n      and\n      dup2\n      jump\t// out\n        /* \"@openzeppelin/contracts/token/ERC20/ERC20.sol\":2367:2469  function symbol() public view virtual override returns (string memory) {... */\n    tag_67:\n        /* \"@openzeppelin/contracts/token/ERC20/ERC20.sol\":2423:2436  string memory */\n      0x60\n        /* \"@openzeppelin/contracts/token/ERC20/ERC20.sol\":2455:2462  _symbol */\n      0x04\n        /* \"@openzeppelin/contracts/token/ERC20/ERC20.sol\":2448:2462  return _symbol */\n      dup1\n      sload\n      tag_135\n      swap1\n      tag_92\n      jump\t// in\n    tag_135:\n      dup1\n      0x1f\n      add\n      0x20\n      dup1\n      swap2\n      div\n      mul\n      0x20\n      add\n      mload(0x40)\n      swap1\n      dup2\n      add\n      0x40\n      mstore\n      dup1\n      swap3\n      swap2\n      swap1\n      dup2\n      dup2\n      mstore\n      0x20\n      add\n      dup3\n      dup1\n      sload\n      tag_136\n      swap1\n      tag_92\n      jump\t// in\n    tag_136:\n      dup1\n      iszero\n      tag_137\n      jumpi\n      dup1\n      0x1f\n      lt\n      tag_138\n      jumpi\n      0x0100\n      dup1\n      dup4\n      sload\n      div\n      mul\n      dup4\n      mstore\n      swap2\n      0x20\n      add\n      swap2\n      jump(tag_137)\n    tag_138:\n      dup3\n      add\n      swap2\n      swap1\n      0x00\n      mstore\n      keccak256(0x00, 0x20)\n      swap1\n    tag_139:\n      dup2\n      sload\n      dup2\n      mstore\n      swap1\n      0x01\n      add\n      swap1\n      0x20\n      add\n      dup1\n      dup4\n      gt\n      tag_139\n      jumpi\n      dup3\n      swap1\n      sub\n      0x1f\n      and\n      dup3\n      add\n      swap2\n    tag_137:\n      pop\n      pop\n      pop\n      pop\n      pop\n      swap1\n      pop\n        /* \"@openzeppelin/contracts/token/ERC20/ERC20.sol\":2367:2469  function symbol() public view virtual override returns (string memory) {... */\n      swap1\n      jump\t// out\n        /* \"contract/KimhoGames.sol\":589:684  function mint(uint256 amount) public {\r... */\n    tag_71:\n        /* \"contract/KimhoGames.sol\":637:676  _mint(owner, amount * 10 ** decimals()) */\n      tag_141\n        /* \"contract/KimhoGames.sol\":643:648  owner */\n      0x05\n      0x00\n      swap1\n      sload\n      swap1\n      0x0100\n      exp\n      swap1\n      div\n      0xffffffffffffffffffffffffffffffffffffffff\n      and\n        /* \"contract/KimhoGames.sol\":665:675  decimals() */\n      tag_142\n        /* \"contract/KimhoGames.sol\":665:673  decimals */\n      tag_47\n        /* \"contract/KimhoGames.sol\":665:675  decimals() */\n      jump\t// in\n    tag_142:\n        /* \"contract/KimhoGames.sol\":659:661  10 */\n      0x0a\n        /* \"contract/KimhoGames.sol\":659:675  10 ** decimals() */\n      tag_143\n      swap2\n      swap1\n      tag_144\n      jump\t// in\n    tag_143:\n        /* \"contract/KimhoGames.sol\":650:656  amount */\n      dup4\n        /* \"contract/KimhoGames.sol\":650:675  amount * 10 ** decimals() */\n      tag_145\n      swap2\n      swap1\n      tag_146\n      jump\t// in\n    tag_145:\n        /* \"contract/KimhoGames.sol\":637:642  _mint */\n      tag_147\n        /* \"contract/KimhoGames.sol\":637:676  _mint(owner, amount * 10 ** decimals()) */\n      jump\t// in\n    tag_141:\n        /* \"contract/KimhoGames.sol\":589:684  function mint(uint256 amount) public {\r... */\n      pop\n      jump\t// out\n        /* \"contract/KimhoGames.sol\":918:3412  function RockPaperScissors(uint input1, uint input2, uint input3) public returns (string memory){\r... */\n    tag_75:\n        /* \"contract/KimhoGames.sol\":1000:1013  string memory */\n      0x60\n        /* \"contract/KimhoGames.sol\":1025:1049  string memory Winmessage */\n      0x00\n        /* \"contract/KimhoGames.sol\":1025:1063  string memory Winmessage = \"you win!!\" */\n      mload(0x40)\n      dup1\n      0x40\n      add\n      0x40\n      mstore\n      dup1\n      0x09\n      dup2\n      mstore\n      0x20\n      add\n      0x796f752077696e21210000000000000000000000000000000000000000000000\n      dup2\n      mstore\n      pop\n      swap1\n      pop\n        /* \"contract/KimhoGames.sol\":1074:1101  string memory Defeatmessage */\n      0x00\n        /* \"contract/KimhoGames.sol\":1074:1114  string memory Defeatmessage = \"you lose\" */\n      mload(0x40)\n      dup1\n      0x40\n      add\n      0x40\n      mstore\n      dup1\n      0x08\n      dup2\n      mstore\n      0x20\n      add\n      0x796f75206c6f7365000000000000000000000000000000000000000000000000\n      dup2\n      mstore\n      pop\n      swap1\n      pop\n        /* \"contract/KimhoGames.sol\":1168:1178  uint count */\n      0x00\n        /* \"contract/KimhoGames.sol\":1207:1214  uint u1 */\n      dup1\n        /* \"contract/KimhoGames.sol\":1222:1223  3 */\n      0x03\n        /* \"contract/KimhoGames.sol\":1215:1221  input1 */\n      dup9\n        /* \"contract/KimhoGames.sol\":1215:1223  input1%3 */\n      tag_149\n      swap2\n      swap1\n      tag_107\n      jump\t// in\n    tag_149:\n        /* \"contract/KimhoGames.sol\":1207:1223  uint u1=input1%3 */\n      swap1\n      pop\n        /* \"contract/KimhoGames.sol\":1234:1241  uint u2 */\n      0x00\n        /* \"contract/KimhoGames.sol\":1249:1250  3 */\n      0x03\n        /* \"contract/KimhoGames.sol\":1242:1248  input2 */\n      dup9\n        /* \"contract/KimhoGames.sol\":1242:1250  input2%3 */\n      tag_150\n      swap2\n      swap1\n      tag_107\n      jump\t// in\n    tag_150:\n        /* \"contract/KimhoGames.sol\":1234:1250  uint u2=input2%3 */\n      swap1\n      pop\n        /* \"contract/KimhoGames.sol\":1261:1268  uint u3 */\n      0x00\n        /* \"contract/KimhoGames.sol\":1276:1277  3 */\n      0x03\n        /* \"contract/KimhoGames.sol\":1269:1275  input3 */\n      dup9\n        /* \"contract/KimhoGames.sol\":1269:1277  input3%3 */\n      tag_151\n      swap2\n      swap1\n      tag_107\n      jump\t// in\n    tag_151:\n        /* \"contract/KimhoGames.sol\":1261:1277  uint u3=input3%3 */\n      swap1\n      pop\n        /* \"contract/KimhoGames.sol\":1288:1297  uint rand */\n      0x00\n        /* \"contract/KimhoGames.sol\":1370:1371  3 */\n      0x03\n        /* \"contract/KimhoGames.sol\":1330:1345  block.timestamp */\n      timestamp\n        /* \"contract/KimhoGames.sol\":1346:1356  msg.sender */\n      caller\n        /* \"contract/KimhoGames.sol\":1357:1366  randNonce */\n      sload(0x09)\n        /* \"contract/KimhoGames.sol\":1313:1367  abi.encodePacked(block.timestamp,msg.sender,randNonce) */\n      add(0x20, mload(0x40))\n      tag_152\n      swap4\n      swap3\n      swap2\n      swap1\n      tag_105\n      jump\t// in\n    tag_152:\n      mload(0x40)\n      0x20\n      dup2\n      dup4\n      sub\n      sub\n      dup2\n      mstore\n      swap1\n      0x40\n      mstore\n        /* \"contract/KimhoGames.sol\":1303:1368  keccak256(abi.encodePacked(block.timestamp,msg.sender,randNonce)) */\n      dup1\n      mload\n      swap1\n      0x20\n      add\n      keccak256\n        /* \"contract/KimhoGames.sol\":1298:1369  uint(keccak256(abi.encodePacked(block.timestamp,msg.sender,randNonce))) */\n      0x00\n      shr\n        /* \"contract/KimhoGames.sol\":1298:1371  uint(keccak256(abi.encodePacked(block.timestamp,msg.sender,randNonce)))%3 */\n      tag_153\n      swap2\n      swap1\n      tag_107\n      jump\t// in\n    tag_153:\n        /* \"contract/KimhoGames.sol\":1288:1371  uint rand=uint(keccak256(abi.encodePacked(block.timestamp,msg.sender,randNonce)))%3 */\n      swap1\n      pop\n        /* \"contract/KimhoGames.sol\":1393:1394  0 */\n      0x00\n        /* \"contract/KimhoGames.sol\":1389:1391  u1 */\n      dup5\n        /* \"contract/KimhoGames.sol\":1389:1394  u1==0 */\n      eq\n        /* \"contract/KimhoGames.sol\":1386:1513  if(u1==0){\r... */\n      iszero\n      tag_154\n      jumpi\n        /* \"contract/KimhoGames.sol\":1423:1424  1 */\n      0x01\n        /* \"contract/KimhoGames.sol\":1417:1421  rand */\n      dup2\n        /* \"contract/KimhoGames.sol\":1417:1424  rand==1 */\n      eq\n        /* \"contract/KimhoGames.sol\":1414:1498  if(rand==1){ // 비겨도 진거임\r... */\n      iszero\n      tag_155\n      jumpi\n        /* \"contract/KimhoGames.sol\":1471:1478  count++ */\n      dup5\n      dup1\n      tag_156\n      swap1\n      tag_157\n      jump\t// in\n    tag_156:\n      swap6\n      pop\n      pop\n        /* \"contract/KimhoGames.sol\":1414:1498  if(rand==1){ // 비겨도 진거임\r... */\n    tag_155:\n        /* \"contract/KimhoGames.sol\":1386:1513  if(u1==0){\r... */\n    tag_154:\n        /* \"contract/KimhoGames.sol\":1534:1535  1 */\n      0x01\n        /* \"contract/KimhoGames.sol\":1530:1532  u1 */\n      dup5\n        /* \"contract/KimhoGames.sol\":1530:1535  u1==1 */\n      eq\n        /* \"contract/KimhoGames.sol\":1527:1631  if(u1==1){\r... */\n      iszero\n      tag_158\n      jumpi\n        /* \"contract/KimhoGames.sol\":1564:1565  2 */\n      0x02\n        /* \"contract/KimhoGames.sol\":1558:1562  rand */\n      dup2\n        /* \"contract/KimhoGames.sol\":1558:1565  rand==2 */\n      eq\n        /* \"contract/KimhoGames.sol\":1555:1616  if(rand==2){\r... */\n      iszero\n      tag_159\n      jumpi\n        /* \"contract/KimhoGames.sol\":1589:1596  count++ */\n      dup5\n      dup1\n      tag_160\n      swap1\n      tag_157\n      jump\t// in\n    tag_160:\n      swap6\n      pop\n      pop\n        /* \"contract/KimhoGames.sol\":1555:1616  if(rand==2){\r... */\n    tag_159:\n        /* \"contract/KimhoGames.sol\":1527:1631  if(u1==1){\r... */\n    tag_158:\n        /* \"contract/KimhoGames.sol\":1652:1653  2 */\n      0x02\n        /* \"contract/KimhoGames.sol\":1648:1650  u1 */\n      dup5\n        /* \"contract/KimhoGames.sol\":1648:1653  u1==2 */\n      eq\n        /* \"contract/KimhoGames.sol\":1645:1749  if(u1==2){\r... */\n      iszero\n      tag_161\n      jumpi\n        /* \"contract/KimhoGames.sol\":1682:1683  0 */\n      0x00\n        /* \"contract/KimhoGames.sol\":1676:1680  rand */\n      dup2\n        /* \"contract/KimhoGames.sol\":1676:1683  rand==0 */\n      eq\n        /* \"contract/KimhoGames.sol\":1673:1734  if(rand==0){\r... */\n      iszero\n      tag_162\n      jumpi\n        /* \"contract/KimhoGames.sol\":1707:1714  count++ */\n      dup5\n      dup1\n      tag_163\n      swap1\n      tag_157\n      jump\t// in\n    tag_163:\n      swap6\n      pop\n      pop\n        /* \"contract/KimhoGames.sol\":1673:1734  if(rand==0){\r... */\n    tag_162:\n        /* \"contract/KimhoGames.sol\":1645:1749  if(u1==2){\r... */\n    tag_161:\n        /* \"contract/KimhoGames.sol\":1770:1771  0 */\n      0x00\n        /* \"contract/KimhoGames.sol\":1766:1768  u1 */\n      dup5\n        /* \"contract/KimhoGames.sol\":1766:1771  u1==0 */\n      eq\n        /* \"contract/KimhoGames.sol\":1763:1890  if(u1==0){\r... */\n      iszero\n      tag_164\n      jumpi\n        /* \"contract/KimhoGames.sol\":1800:1801  1 */\n      0x01\n        /* \"contract/KimhoGames.sol\":1794:1798  rand */\n      dup2\n        /* \"contract/KimhoGames.sol\":1794:1801  rand==1 */\n      eq\n        /* \"contract/KimhoGames.sol\":1791:1875  if(rand==1){ // 비겨도 진거임\r... */\n      iszero\n      tag_165\n      jumpi\n        /* \"contract/KimhoGames.sol\":1848:1855  count++ */\n      dup5\n      dup1\n      tag_166\n      swap1\n      tag_157\n      jump\t// in\n    tag_166:\n      swap6\n      pop\n      pop\n        /* \"contract/KimhoGames.sol\":1791:1875  if(rand==1){ // 비겨도 진거임\r... */\n    tag_165:\n        /* \"contract/KimhoGames.sol\":1763:1890  if(u1==0){\r... */\n    tag_164:\n        /* \"contract/KimhoGames.sol\":1911:1912  1 */\n      0x01\n        /* \"contract/KimhoGames.sol\":1907:1909  u1 */\n      dup5\n        /* \"contract/KimhoGames.sol\":1907:1912  u1==1 */\n      eq\n        /* \"contract/KimhoGames.sol\":1904:2008  if(u1==1){\r... */\n      iszero\n      tag_167\n      jumpi\n        /* \"contract/KimhoGames.sol\":1941:1942  2 */\n      0x02\n        /* \"contract/KimhoGames.sol\":1935:1939  rand */\n      dup2\n        /* \"contract/KimhoGames.sol\":1935:1942  rand==2 */\n      eq\n        /* \"contract/KimhoGames.sol\":1932:1993  if(rand==2){\r... */\n      iszero\n      tag_168\n      jumpi\n        /* \"contract/KimhoGames.sol\":1966:1973  count++ */\n      dup5\n      dup1\n      tag_169\n      swap1\n      tag_157\n      jump\t// in\n    tag_169:\n      swap6\n      pop\n      pop\n        /* \"contract/KimhoGames.sol\":1932:1993  if(rand==2){\r... */\n    tag_168:\n        /* \"contract/KimhoGames.sol\":1904:2008  if(u1==1){\r... */\n    tag_167:\n        /* \"contract/KimhoGames.sol\":2029:2030  2 */\n      0x02\n        /* \"contract/KimhoGames.sol\":2025:2027  u1 */\n      dup5\n        /* \"contract/KimhoGames.sol\":2025:2030  u1==2 */\n      eq\n        /* \"contract/KimhoGames.sol\":2022:2126  if(u1==2){\r... */\n      iszero\n      tag_170\n      jumpi\n        /* \"contract/KimhoGames.sol\":2059:2060  0 */\n      0x00\n        /* \"contract/KimhoGames.sol\":2053:2057  rand */\n      dup2\n        /* \"contract/KimhoGames.sol\":2053:2060  rand==0 */\n      eq\n        /* \"contract/KimhoGames.sol\":2050:2111  if(rand==0){\r... */\n      iszero\n      tag_171\n      jumpi\n        /* \"contract/KimhoGames.sol\":2084:2091  count++ */\n      dup5\n      dup1\n      tag_172\n      swap1\n      tag_157\n      jump\t// in\n    tag_172:\n      swap6\n      pop\n      pop\n        /* \"contract/KimhoGames.sol\":2050:2111  if(rand==0){\r... */\n    tag_171:\n        /* \"contract/KimhoGames.sol\":2022:2126  if(u1==2){\r... */\n    tag_170:\n        /* \"contract/KimhoGames.sol\":2274:2275  3 */\n      0x03\n        /* \"contract/KimhoGames.sol\":2234:2249  block.timestamp */\n      timestamp\n        /* \"contract/KimhoGames.sol\":2250:2260  msg.sender */\n      caller\n        /* \"contract/KimhoGames.sol\":2261:2270  randNonce */\n      sload(0x09)\n        /* \"contract/KimhoGames.sol\":2217:2271  abi.encodePacked(block.timestamp,msg.sender,randNonce) */\n      add(0x20, mload(0x40))\n      tag_173\n      swap4\n      swap3\n      swap2\n      swap1\n      tag_105\n      jump\t// in\n    tag_173:\n      mload(0x40)\n      0x20\n      dup2\n      dup4\n      sub\n      sub\n      dup2\n      mstore\n      swap1\n      0x40\n      mstore\n        /* \"contract/KimhoGames.sol\":2207:2272  keccak256(abi.encodePacked(block.timestamp,msg.sender,randNonce)) */\n      dup1\n      mload\n      swap1\n      0x20\n      add\n      keccak256\n        /* \"contract/KimhoGames.sol\":2202:2273  uint(keccak256(abi.encodePacked(block.timestamp,msg.sender,randNonce))) */\n      0x00\n      shr\n        /* \"contract/KimhoGames.sol\":2202:2275  uint(keccak256(abi.encodePacked(block.timestamp,msg.sender,randNonce)))%3 */\n      tag_174\n      swap2\n      swap1\n      tag_107\n      jump\t// in\n    tag_174:\n        /* \"contract/KimhoGames.sol\":2197:2275  rand=uint(keccak256(abi.encodePacked(block.timestamp,msg.sender,randNonce)))%3 */\n      swap1\n      pop\n        /* \"contract/KimhoGames.sol\":2297:2298  0 */\n      0x00\n        /* \"contract/KimhoGames.sol\":2293:2295  u2 */\n      dup4\n        /* \"contract/KimhoGames.sol\":2293:2298  u2==0 */\n      eq\n        /* \"contract/KimhoGames.sol\":2290:2417  if(u2==0){\r... */\n      iszero\n      tag_175\n      jumpi\n        /* \"contract/KimhoGames.sol\":2327:2328  1 */\n      0x01\n        /* \"contract/KimhoGames.sol\":2321:2325  rand */\n      dup2\n        /* \"contract/KimhoGames.sol\":2321:2328  rand==1 */\n      eq\n        /* \"contract/KimhoGames.sol\":2318:2402  if(rand==1){ // 비겨도 진거임\r... */\n      iszero\n      tag_176\n      jumpi\n        /* \"contract/KimhoGames.sol\":2375:2382  count++ */\n      dup5\n      dup1\n      tag_177\n      swap1\n      tag_157\n      jump\t// in\n    tag_177:\n      swap6\n      pop\n      pop\n        /* \"contract/KimhoGames.sol\":2318:2402  if(rand==1){ // 비겨도 진거임\r... */\n    tag_176:\n        /* \"contract/KimhoGames.sol\":2290:2417  if(u2==0){\r... */\n    tag_175:\n        /* \"contract/KimhoGames.sol\":2438:2439  1 */\n      0x01\n        /* \"contract/KimhoGames.sol\":2434:2436  u2 */\n      dup4\n        /* \"contract/KimhoGames.sol\":2434:2439  u2==1 */\n      eq\n        /* \"contract/KimhoGames.sol\":2431:2535  if(u2==1){\r... */\n      iszero\n      tag_178\n      jumpi\n        /* \"contract/KimhoGames.sol\":2468:2469  2 */\n      0x02\n        /* \"contract/KimhoGames.sol\":2462:2466  rand */\n      dup2\n        /* \"contract/KimhoGames.sol\":2462:2469  rand==2 */\n      eq\n        /* \"contract/KimhoGames.sol\":2459:2520  if(rand==2){\r... */\n      iszero\n      tag_179\n      jumpi\n        /* \"contract/KimhoGames.sol\":2493:2500  count++ */\n      dup5\n      dup1\n      tag_180\n      swap1\n      tag_157\n      jump\t// in\n    tag_180:\n      swap6\n      pop\n      pop\n        /* \"contract/KimhoGames.sol\":2459:2520  if(rand==2){\r... */\n    tag_179:\n        /* \"contract/KimhoGames.sol\":2431:2535  if(u2==1){\r... */\n    tag_178:\n        /* \"contract/KimhoGames.sol\":2556:2557  2 */\n      0x02\n        /* \"contract/KimhoGames.sol\":2552:2554  u2 */\n      dup4\n        /* \"contract/KimhoGames.sol\":2552:2557  u2==2 */\n      eq\n        /* \"contract/KimhoGames.sol\":2549:2653  if(u2==2){\r... */\n      iszero\n      tag_181\n      jumpi\n        /* \"contract/KimhoGames.sol\":2586:2587  0 */\n      0x00\n        /* \"contract/KimhoGames.sol\":2580:2584  rand */\n      dup2\n        /* \"contract/KimhoGames.sol\":2580:2587  rand==0 */\n      eq\n        /* \"contract/KimhoGames.sol\":2577:2638  if(rand==0){\r... */\n      iszero\n      tag_182\n      jumpi\n        /* \"contract/KimhoGames.sol\":2611:2618  count++ */\n      dup5\n      dup1\n      tag_183\n      swap1\n      tag_157\n      jump\t// in\n    tag_183:\n      swap6\n      pop\n      pop\n        /* \"contract/KimhoGames.sol\":2577:2638  if(rand==0){\r... */\n    tag_182:\n        /* \"contract/KimhoGames.sol\":2549:2653  if(u2==2){\r... */\n    tag_181:\n        /* \"contract/KimhoGames.sol\":2801:2802  3 */\n      0x03\n        /* \"contract/KimhoGames.sol\":2761:2776  block.timestamp */\n      timestamp\n        /* \"contract/KimhoGames.sol\":2777:2787  msg.sender */\n      caller\n        /* \"contract/KimhoGames.sol\":2788:2797  randNonce */\n      sload(0x09)\n        /* \"contract/KimhoGames.sol\":2744:2798  abi.encodePacked(block.timestamp,msg.sender,randNonce) */\n      add(0x20, mload(0x40))\n      tag_184\n      swap4\n      swap3\n      swap2\n      swap1\n      tag_105\n      jump\t// in\n    tag_184:\n      mload(0x40)\n      0x20\n      dup2\n      dup4\n      sub\n      sub\n      dup2\n      mstore\n      swap1\n      0x40\n      mstore\n        /* \"contract/KimhoGames.sol\":2734:2799  keccak256(abi.encodePacked(block.timestamp,msg.sender,randNonce)) */\n      dup1\n      mload\n      swap1\n      0x20\n      add\n      keccak256\n        /* \"contract/KimhoGames.sol\":2729:2800  uint(keccak256(abi.encodePacked(block.timestamp,msg.sender,randNonce))) */\n      0x00\n      shr\n        /* \"contract/KimhoGames.sol\":2729:2802  uint(keccak256(abi.encodePacked(block.timestamp,msg.sender,randNonce)))%3 */\n      tag_185\n      swap2\n      swap1\n      tag_107\n      jump\t// in\n    tag_185:\n        /* \"contract/KimhoGames.sol\":2724:2802  rand=uint(keccak256(abi.encodePacked(block.timestamp,msg.sender,randNonce)))%3 */\n      swap1\n      pop\n        /* \"contract/KimhoGames.sol\":2824:2825  0 */\n      0x00\n        /* \"contract/KimhoGames.sol\":2820:2822  u3 */\n      dup3\n        /* \"contract/KimhoGames.sol\":2820:2825  u3==0 */\n      eq\n        /* \"contract/KimhoGames.sol\":2817:2944  if(u3==0){\r... */\n      iszero\n      tag_186\n      jumpi\n        /* \"contract/KimhoGames.sol\":2854:2855  1 */\n      0x01\n        /* \"contract/KimhoGames.sol\":2848:2852  rand */\n      dup2\n        /* \"contract/KimhoGames.sol\":2848:2855  rand==1 */\n      eq\n        /* \"contract/KimhoGames.sol\":2845:2929  if(rand==1){ // 비겨도 진거임\r... */\n      iszero\n      tag_187\n      jumpi\n        /* \"contract/KimhoGames.sol\":2902:2909  count++ */\n      dup5\n      dup1\n      tag_188\n      swap1\n      tag_157\n      jump\t// in\n    tag_188:\n      swap6\n      pop\n      pop\n        /* \"contract/KimhoGames.sol\":2845:2929  if(rand==1){ // 비겨도 진거임\r... */\n    tag_187:\n        /* \"contract/KimhoGames.sol\":2817:2944  if(u3==0){\r... */\n    tag_186:\n        /* \"contract/KimhoGames.sol\":2965:2966  1 */\n      0x01\n        /* \"contract/KimhoGames.sol\":2961:2963  u3 */\n      dup3\n        /* \"contract/KimhoGames.sol\":2961:2966  u3==1 */\n      eq\n        /* \"contract/KimhoGames.sol\":2958:3062  if(u3==1){\r... */\n      iszero\n      tag_189\n      jumpi\n        /* \"contract/KimhoGames.sol\":2995:2996  2 */\n      0x02\n        /* \"contract/KimhoGames.sol\":2989:2993  rand */\n      dup2\n        /* \"contract/KimhoGames.sol\":2989:2996  rand==2 */\n      eq\n        /* \"contract/KimhoGames.sol\":2986:3047  if(rand==2){\r... */\n      iszero\n      tag_190\n      jumpi\n        /* \"contract/KimhoGames.sol\":3020:3027  count++ */\n      dup5\n      dup1\n      tag_191\n      swap1\n      tag_157\n      jump\t// in\n    tag_191:\n      swap6\n      pop\n      pop\n        /* \"contract/KimhoGames.sol\":2986:3047  if(rand==2){\r... */\n    tag_190:\n        /* \"contract/KimhoGames.sol\":2958:3062  if(u3==1){\r... */\n    tag_189:\n        /* \"contract/KimhoGames.sol\":3083:3084  2 */\n      0x02\n        /* \"contract/KimhoGames.sol\":3079:3081  u3 */\n      dup3\n        /* \"contract/KimhoGames.sol\":3079:3084  u3==2 */\n      eq\n        /* \"contract/KimhoGames.sol\":3076:3180  if(u3==2){\r... */\n      iszero\n      tag_192\n      jumpi\n        /* \"contract/KimhoGames.sol\":3113:3114  0 */\n      0x00\n        /* \"contract/KimhoGames.sol\":3107:3111  rand */\n      dup2\n        /* \"contract/KimhoGames.sol\":3107:3114  rand==0 */\n      eq\n        /* \"contract/KimhoGames.sol\":3104:3165  if(rand==0){\r... */\n      iszero\n      tag_193\n      jumpi\n        /* \"contract/KimhoGames.sol\":3138:3145  count++ */\n      dup5\n      dup1\n      tag_194\n      swap1\n      tag_157\n      jump\t// in\n    tag_194:\n      swap6\n      pop\n      pop\n        /* \"contract/KimhoGames.sol\":3104:3165  if(rand==0){\r... */\n    tag_193:\n        /* \"contract/KimhoGames.sol\":3076:3180  if(u3==2){\r... */\n    tag_192:\n        /* \"contract/KimhoGames.sol\":3199:3200  1 */\n      0x01\n        /* \"contract/KimhoGames.sol\":3193:3198  count */\n      dup6\n        /* \"contract/KimhoGames.sol\":3193:3200  count>1 */\n      gt\n        /* \"contract/KimhoGames.sol\":3190:3405  if(count>1){\r... */\n      iszero\n      tag_195\n      jumpi\n        /* \"contract/KimhoGames.sol\":3239:3249  Winmessage */\n      dup7\n        /* \"contract/KimhoGames.sol\":3216:3238  RockScissorsPaperScore */\n      0x06\n        /* \"contract/KimhoGames.sol\":3216:3249  RockScissorsPaperScore=Winmessage */\n      swap1\n      dup1\n      mload\n      swap1\n      0x20\n      add\n      swap1\n      tag_196\n      swap3\n      swap2\n      swap1\n      tag_111\n      jump\t// in\n    tag_196:\n      pop\n        /* \"contract/KimhoGames.sol\":3271:3281  Winmessage */\n      dup7\n        /* \"contract/KimhoGames.sol\":3264:3281  return Winmessage */\n      swap8\n      pop\n      pop\n      pop\n      pop\n      pop\n      pop\n      pop\n      pop\n      jump(tag_148)\n        /* \"contract/KimhoGames.sol\":3190:3405  if(count>1){\r... */\n    tag_195:\n        /* \"contract/KimhoGames.sol\":3345:3358  Defeatmessage */\n      dup6\n        /* \"contract/KimhoGames.sol\":3322:3344  RockScissorsPaperScore */\n      0x06\n        /* \"contract/KimhoGames.sol\":3322:3358  RockScissorsPaperScore=Defeatmessage */\n      swap1\n      dup1\n      mload\n      swap1\n      0x20\n      add\n      swap1\n      tag_198\n      swap3\n      swap2\n      swap1\n      tag_111\n      jump\t// in\n    tag_198:\n      pop\n        /* \"contract/KimhoGames.sol\":3380:3393  Defeatmessage */\n      dup6\n        /* \"contract/KimhoGames.sol\":3373:3393  return Defeatmessage */\n      swap8\n      pop\n      pop\n      pop\n      pop\n      pop\n      pop\n      pop\n      pop\n        /* \"contract/KimhoGames.sol\":918:3412  function RockPaperScissors(uint input1, uint input2, uint input3) public returns (string memory){\r... */\n    tag_148:\n      swap4\n      swap3\n      pop\n      pop\n      pop\n      jump\t// out\n        /* \"@openzeppelin/contracts/token/ERC20/ERC20.sol\":6594:7021  function decreaseAllowance(address spender, uint256 subtractedValue) public virtual returns (bool) {... */\n    tag_79:\n        /* \"@openzeppelin/contracts/token/ERC20/ERC20.sol\":6687:6691  bool */\n      0x00\n        /* \"@openzeppelin/contracts/token/ERC20/ERC20.sol\":6703:6716  address owner */\n      dup1\n        /* \"@openzeppelin/contracts/token/ERC20/ERC20.sol\":6719:6731  _msgSender() */\n      tag_200\n        /* \"@openzeppelin/contracts/token/ERC20/ERC20.sol\":6719:6729  _msgSender */\n      tag_99\n        /* \"@openzeppelin/contracts/token/ERC20/ERC20.sol\":6719:6731  _msgSender() */\n      jump\t// in\n    tag_200:\n        /* \"@openzeppelin/contracts/token/ERC20/ERC20.sol\":6703:6731  address owner = _msgSender() */\n      swap1\n      pop\n        /* \"@openzeppelin/contracts/token/ERC20/ERC20.sol\":6741:6765  uint256 currentAllowance */\n      0x00\n        /* \"@openzeppelin/contracts/token/ERC20/ERC20.sol\":6768:6793  allowance(owner, spender) */\n      tag_201\n        /* \"@openzeppelin/contracts/token/ERC20/ERC20.sol\":6778:6783  owner */\n      dup3\n        /* \"@openzeppelin/contracts/token/ERC20/ERC20.sol\":6785:6792  spender */\n      dup7\n        /* \"@openzeppelin/contracts/token/ERC20/ERC20.sol\":6768:6777  allowance */\n      tag_88\n        /* \"@openzeppelin/contracts/token/ERC20/ERC20.sol\":6768:6793  allowance(owner, spender) */\n      jump\t// in\n    tag_201:\n        /* \"@openzeppelin/contracts/token/ERC20/ERC20.sol\":6741:6793  uint256 currentAllowance = allowance(owner, spender) */\n      swap1\n      pop\n        /* \"@openzeppelin/contracts/token/ERC20/ERC20.sol\":6831:6846  subtractedValue */\n      dup4\n        /* \"@openzeppelin/contracts/token/ERC20/ERC20.sol\":6811:6827  currentAllowance */\n      dup2\n        /* \"@openzeppelin/contracts/token/ERC20/ERC20.sol\":6811:6846  currentAllowance >= subtractedValue */\n      lt\n      iszero\n        /* \"@openzeppelin/contracts/token/ERC20/ERC20.sol\":6803:6888  require(currentAllowance >= subtractedValue, \"ERC20: decreased allowance below zero\") */\n      tag_202\n      jumpi\n      mload(0x40)\n      0x08c379a000000000000000000000000000000000000000000000000000000000\n      dup2\n      mstore\n      0x04\n      add\n      tag_203\n      swap1\n      tag_204\n      jump\t// in\n    tag_203:\n      mload(0x40)\n      dup1\n      swap2\n      sub\n      swap1\n      revert\n    tag_202:\n        /* \"@openzeppelin/contracts/token/ERC20/ERC20.sol\":6922:6982  _approve(owner, spender, currentAllowance - subtractedValue) */\n      tag_205\n        /* \"@openzeppelin/contracts/token/ERC20/ERC20.sol\":6931:6936  owner */\n      dup3\n        /* \"@openzeppelin/contracts/token/ERC20/ERC20.sol\":6938:6945  spender */\n      dup7\n        /* \"@openzeppelin/contracts/token/ERC20/ERC20.sol\":6966:6981  subtractedValue */\n      dup7\n        /* \"@openzeppelin/contracts/token/ERC20/ERC20.sol\":6947:6963  currentAllowance */\n      dup5\n        /* \"@openzeppelin/contracts/token/ERC20/ERC20.sol\":6947:6981  currentAllowance - subtractedValue */\n      sub\n        /* \"@openzeppelin/contracts/token/ERC20/ERC20.sol\":6922:6930  _approve */\n      tag_101\n        /* \"@openzeppelin/contracts/token/ERC20/ERC20.sol\":6922:6982  _approve(owner, spender, currentAllowance - subtractedValue) */\n      jump\t// in\n    tag_205:\n        /* \"@openzeppelin/contracts/token/ERC20/ERC20.sol\":7010:7014  true */\n      0x01\n        /* \"@openzeppelin/contracts/token/ERC20/ERC20.sol\":7003:7014  return true */\n      swap3\n      pop\n      pop\n      pop\n        /* \"@openzeppelin/contracts/token/ERC20/ERC20.sol\":6594:7021  function decreaseAllowance(address spender, uint256 subtractedValue) public virtual returns (bool) {... */\n      swap3\n      swap2\n      pop\n      pop\n      jump\t// out\n        /* \"contract/KimhoGames.sol\":432:577  function transfer(address to, uint256 amount) public override returns (bool){\r... */\n    tag_83:\n        /* \"contract/KimhoGames.sol\":503:507  bool */\n      0x00\n        /* \"contract/KimhoGames.sol\":519:547  _transfer(owner, to, amount) */\n      tag_207\n        /* \"contract/KimhoGames.sol\":529:534  owner */\n      0x05\n      0x00\n      swap1\n      sload\n      swap1\n      0x0100\n      exp\n      swap1\n      div\n      0xffffffffffffffffffffffffffffffffffffffff\n      and\n        /* \"contract/KimhoGames.sol\":536:538  to */\n      dup5\n        /* \"contract/KimhoGames.sol\":540:546  amount */\n      dup5\n        /* \"contract/KimhoGames.sol\":519:528  _transfer */\n      tag_119\n        /* \"contract/KimhoGames.sol\":519:547  _transfer(owner, to, amount) */\n      jump\t// in\n    tag_207:\n        /* \"contract/KimhoGames.sol\":565:569  true */\n      0x01\n        /* \"contract/KimhoGames.sol\":558:569  return true */\n      swap1\n      pop\n        /* \"contract/KimhoGames.sol\":432:577  function transfer(address to, uint256 amount) public override returns (bool){\r... */\n      swap3\n      swap2\n      pop\n      pop\n      jump\t// out\n        /* \"@openzeppelin/contracts/token/ERC20/ERC20.sol\":3976:4125  function allowance(address owner, address spender) public view virtual override returns (uint256) {... */\n    tag_88:\n        /* \"@openzeppelin/contracts/token/ERC20/ERC20.sol\":4065:4072  uint256 */\n      0x00\n        /* \"@openzeppelin/contracts/token/ERC20/ERC20.sol\":4091:4102  _allowances */\n      0x01\n        /* \"@openzeppelin/contracts/token/ERC20/ERC20.sol\":4091:4109  _allowances[owner] */\n      0x00\n        /* \"@openzeppelin/contracts/token/ERC20/ERC20.sol\":4103:4108  owner */\n      dup5\n        /* \"@openzeppelin/contracts/token/ERC20/ERC20.sol\":4091:4109  _allowances[owner] */\n      0xffffffffffffffffffffffffffffffffffffffff\n      and\n      0xffffffffffffffffffffffffffffffffffffffff\n      and\n      dup2\n      mstore\n      0x20\n      add\n      swap1\n      dup2\n      mstore\n      0x20\n      add\n      0x00\n      keccak256\n        /* \"@openzeppelin/contracts/token/ERC20/ERC20.sol\":4091:4118  _allowances[owner][spender] */\n      0x00\n        /* \"@openzeppelin/contracts/token/ERC20/ERC20.sol\":4110:4117  spender */\n      dup4\n        /* \"@openzeppelin/contracts/token/ERC20/ERC20.sol\":4091:4118  _allowances[owner][spender] */\n      0xffffffffffffffffffffffffffffffffffffffff\n      and\n      0xffffffffffffffffffffffffffffffffffffffff\n      and\n      dup2\n      mstore\n      0x20\n      add\n      swap1\n      dup2\n      mstore\n      0x20\n      add\n      0x00\n      keccak256\n      sload\n        /* \"@openzeppelin/contracts/token/ERC20/ERC20.sol\":4084:4118  return _allowances[owner][spender] */\n      swap1\n      pop\n        /* \"@openzeppelin/contracts/token/ERC20/ERC20.sol\":3976:4125  function allowance(address owner, address spender) public view virtual override returns (uint256) {... */\n      swap3\n      swap2\n      pop\n      pop\n      jump\t// out\n        /* \"@openzeppelin/contracts/utils/Context.sol\":640:736  function _msgSender() internal view virtual returns (address) {... */\n    tag_99:\n        /* \"@openzeppelin/contracts/utils/Context.sol\":693:700  address */\n      0x00\n        /* \"@openzeppelin/contracts/utils/Context.sol\":719:729  msg.sender */\n      caller\n        /* \"@openzeppelin/contracts/utils/Context.sol\":712:729  return msg.sender */\n      swap1\n      pop\n        /* \"@openzeppelin/contracts/utils/Context.sol\":640:736  function _msgSender() internal view virtual returns (address) {... */\n      swap1\n      jump\t// out\n        /* \"@openzeppelin/contracts/token/ERC20/ERC20.sol\":10110:10480  function _approve(... */\n    tag_101:\n        /* \"@openzeppelin/contracts/token/ERC20/ERC20.sol\":10258:10259  0 */\n      0x00\n        /* \"@openzeppelin/contracts/token/ERC20/ERC20.sol\":10241:10260  owner != address(0) */\n      0xffffffffffffffffffffffffffffffffffffffff\n      and\n        /* \"@openzeppelin/contracts/token/ERC20/ERC20.sol\":10241:10246  owner */\n      dup4\n        /* \"@openzeppelin/contracts/token/ERC20/ERC20.sol\":10241:10260  owner != address(0) */\n      0xffffffffffffffffffffffffffffffffffffffff\n      and\n      eq\n      iszero\n        /* \"@openzeppelin/contracts/token/ERC20/ERC20.sol\":10233:10301  require(owner != address(0), \"ERC20: approve from the zero address\") */\n      tag_211\n      jumpi\n      mload(0x40)\n      0x08c379a000000000000000000000000000000000000000000000000000000000\n      dup2\n      mstore\n      0x04\n      add\n      tag_212\n      swap1\n      tag_213\n      jump\t// in\n    tag_212:\n      mload(0x40)\n      dup1\n      swap2\n      sub\n      swap1\n      revert\n    tag_211:\n        /* \"@openzeppelin/contracts/token/ERC20/ERC20.sol\":10338:10339  0 */\n      0x00\n        /* \"@openzeppelin/contracts/token/ERC20/ERC20.sol\":10319:10340  spender != address(0) */\n      0xffffffffffffffffffffffffffffffffffffffff\n      and\n        /* \"@openzeppelin/contracts/token/ERC20/ERC20.sol\":10319:10326  spender */\n      dup3\n        /* \"@openzeppelin/contracts/token/ERC20/ERC20.sol\":10319:10340  spender != address(0) */\n      0xffffffffffffffffffffffffffffffffffffffff\n      and\n      eq\n      iszero\n        /* \"@openzeppelin/contracts/token/ERC20/ERC20.sol\":10311:10379  require(spender != address(0), \"ERC20: approve to the zero address\") */\n      tag_214\n      jumpi\n      mload(0x40)\n      0x08c379a000000000000000000000000000000000000000000000000000000000\n      dup2\n      mstore\n      0x04\n      add\n      tag_215\n      swap1\n      tag_216\n      jump\t// in\n    tag_215:\n      mload(0x40)\n      dup1\n      swap2\n      sub\n      swap1\n      revert\n    tag_214:\n        /* \"@openzeppelin/contracts/token/ERC20/ERC20.sol\":10420:10426  amount */\n      dup1\n        /* \"@openzeppelin/contracts/token/ERC20/ERC20.sol\":10390:10401  _allowances */\n      0x01\n        /* \"@openzeppelin/contracts/token/ERC20/ERC20.sol\":10390:10408  _allowances[owner] */\n      0x00\n        /* \"@openzeppelin/contracts/token/ERC20/ERC20.sol\":10402:10407  owner */\n      dup6\n        /* \"@openzeppelin/contracts/token/ERC20/ERC20.sol\":10390:10408  _allowances[owner] */\n      0xffffffffffffffffffffffffffffffffffffffff\n      and\n      0xffffffffffffffffffffffffffffffffffffffff\n      and\n      dup2\n      mstore\n      0x20\n      add\n      swap1\n      dup2\n      mstore\n      0x20\n      add\n      0x00\n      keccak256\n        /* \"@openzeppelin/contracts/token/ERC20/ERC20.sol\":10390:10417  _allowances[owner][spender] */\n      0x00\n        /* \"@openzeppelin/contracts/token/ERC20/ERC20.sol\":10409:10416  spender */\n      dup5\n        /* \"@openzeppelin/contracts/token/ERC20/ERC20.sol\":10390:10417  _allowances[owner][spender] */\n      0xffffffffffffffffffffffffffffffffffffffff\n      and\n      0xffffffffffffffffffffffffffffffffffffffff\n      and\n      dup2\n      mstore\n      0x20\n      add\n      swap1\n      dup2\n      mstore\n      0x20\n      add\n      0x00\n      keccak256\n        /* \"@openzeppelin/contracts/token/ERC20/ERC20.sol\":10390:10426  _allowances[owner][spender] = amount */\n      dup2\n      swap1\n      sstore\n      pop\n        /* \"@openzeppelin/contracts/token/ERC20/ERC20.sol\":10457:10464  spender */\n      dup2\n        /* \"@openzeppelin/contracts/token/ERC20/ERC20.sol\":10441:10473  Approval(owner, spender, amount) */\n      0xffffffffffffffffffffffffffffffffffffffff\n      and\n        /* \"@openzeppelin/contracts/token/ERC20/ERC20.sol\":10450:10455  owner */\n      dup4\n        /* \"@openzeppelin/contracts/token/ERC20/ERC20.sol\":10441:10473  Approval(owner, spender, amount) */\n      0xffffffffffffffffffffffffffffffffffffffff\n      and\n      0x8c5be1e5ebec7d5bd14f71427d1e84f3dd0314c0f7b2291e5b200ac8c7c3b925\n        /* \"@openzeppelin/contracts/token/ERC20/ERC20.sol\":10466:10472  amount */\n      dup4\n        /* \"@openzeppelin/contracts/token/ERC20/ERC20.sol\":10441:10473  Approval(owner, spender, amount) */\n      mload(0x40)\n      tag_217\n      swap2\n      swap1\n      tag_35\n      jump\t// in\n    tag_217:\n      mload(0x40)\n      dup1\n      swap2\n      sub\n      swap1\n      log3\n        /* \"@openzeppelin/contracts/token/ERC20/ERC20.sol\":10110:10480  function _approve(... */\n      pop\n      pop\n      pop\n      jump\t// out\n        /* \"@openzeppelin/contracts/token/ERC20/ERC20.sol\":10761:11202  function _spendAllowance(... */\n    tag_117:\n        /* \"@openzeppelin/contracts/token/ERC20/ERC20.sol\":10891:10915  uint256 currentAllowance */\n      0x00\n        /* \"@openzeppelin/contracts/token/ERC20/ERC20.sol\":10918:10943  allowance(owner, spender) */\n      tag_219\n        /* \"@openzeppelin/contracts/token/ERC20/ERC20.sol\":10928:10933  owner */\n      dup5\n        /* \"@openzeppelin/contracts/token/ERC20/ERC20.sol\":10935:10942  spender */\n      dup5\n        /* \"@openzeppelin/contracts/token/ERC20/ERC20.sol\":10918:10927  allowance */\n      tag_88\n        /* \"@openzeppelin/contracts/token/ERC20/ERC20.sol\":10918:10943  allowance(owner, spender) */\n      jump\t// in\n    tag_219:\n        /* \"@openzeppelin/contracts/token/ERC20/ERC20.sol\":10891:10943  uint256 currentAllowance = allowance(owner, spender) */\n      swap1\n      pop\n        /* \"@openzeppelin/contracts/token/ERC20/ERC20.sol\":10977:10994  type(uint256).max */\n      0xffffffffffffffffffffffffffffffffffffffffffffffffffffffffffffffff\n        /* \"@openzeppelin/contracts/token/ERC20/ERC20.sol\":10957:10973  currentAllowance */\n      dup2\n        /* \"@openzeppelin/contracts/token/ERC20/ERC20.sol\":10957:10994  currentAllowance != type(uint256).max */\n      eq\n        /* \"@openzeppelin/contracts/token/ERC20/ERC20.sol\":10953:11196  if (currentAllowance != type(uint256).max) {... */\n      tag_220\n      jumpi\n        /* \"@openzeppelin/contracts/token/ERC20/ERC20.sol\":11038:11044  amount */\n      dup2\n        /* \"@openzeppelin/contracts/token/ERC20/ERC20.sol\":11018:11034  currentAllowance */\n      dup2\n        /* \"@openzeppelin/contracts/token/ERC20/ERC20.sol\":11018:11044  currentAllowance >= amount */\n      lt\n      iszero\n        /* \"@openzeppelin/contracts/token/ERC20/ERC20.sol\":11010:11078  require(currentAllowance >= amount, \"ERC20: insufficient allowance\") */\n      tag_221\n      jumpi\n      mload(0x40)\n      0x08c379a000000000000000000000000000000000000000000000000000000000\n      dup2\n      mstore\n      0x04\n      add\n      tag_222\n      swap1\n      tag_223\n      jump\t// in\n    tag_222:\n      mload(0x40)\n      dup1\n      swap2\n      sub\n      swap1\n      revert\n    tag_221:\n        /* \"@openzeppelin/contracts/token/ERC20/ERC20.sol\":11120:11171  _approve(owner, spender, currentAllowance - amount) */\n      tag_224\n        /* \"@openzeppelin/contracts/token/ERC20/ERC20.sol\":11129:11134  owner */\n      dup5\n        /* \"@openzeppelin/contracts/token/ERC20/ERC20.sol\":11136:11143  spender */\n      dup5\n        /* \"@openzeppelin/contracts/token/ERC20/ERC20.sol\":11164:11170  amount */\n      dup5\n        /* \"@openzeppelin/contracts/token/ERC20/ERC20.sol\":11145:11161  currentAllowance */\n      dup5\n        /* \"@openzeppelin/contracts/token/ERC20/ERC20.sol\":11145:11170  currentAllowance - amount */\n      sub\n        /* \"@openzeppelin/contracts/token/ERC20/ERC20.sol\":11120:11128  _approve */\n      tag_101\n        /* \"@openzeppelin/contracts/token/ERC20/ERC20.sol\":11120:11171  _approve(owner, spender, currentAllowance - amount) */\n      jump\t// in\n    tag_224:\n        /* \"@openzeppelin/contracts/token/ERC20/ERC20.sol\":10953:11196  if (currentAllowance != type(uint256).max) {... */\n    tag_220:\n        /* \"@openzeppelin/contracts/token/ERC20/ERC20.sol\":10881:11202  {... */\n      pop\n        /* \"@openzeppelin/contracts/token/ERC20/ERC20.sol\":10761:11202  function _spendAllowance(... */\n      pop\n      pop\n      pop\n      jump\t// out\n        /* \"@openzeppelin/contracts/token/ERC20/ERC20.sol\":7475:8126  function _transfer(... */\n    tag_119:\n        /* \"@openzeppelin/contracts/token/ERC20/ERC20.sol\":7617:7618  0 */\n      0x00\n        /* \"@openzeppelin/contracts/token/ERC20/ERC20.sol\":7601:7619  from != address(0) */\n      0xffffffffffffffffffffffffffffffffffffffff\n      and\n        /* \"@openzeppelin/contracts/token/ERC20/ERC20.sol\":7601:7605  from */\n      dup4\n        /* \"@openzeppelin/contracts/token/ERC20/ERC20.sol\":7601:7619  from != address(0) */\n      0xffffffffffffffffffffffffffffffffffffffff\n      and\n      eq\n      iszero\n        /* \"@openzeppelin/contracts/token/ERC20/ERC20.sol\":7593:7661  require(from != address(0), \"ERC20: transfer from the zero address\") */\n      tag_226\n      jumpi\n      mload(0x40)\n      0x08c379a000000000000000000000000000000000000000000000000000000000\n      dup2\n      mstore\n      0x04\n      add\n      tag_227\n      swap1\n      tag_228\n      jump\t// in\n    tag_227:\n      mload(0x40)\n      dup1\n      swap2\n      sub\n      swap1\n      revert\n    tag_226:\n        /* \"@openzeppelin/contracts/token/ERC20/ERC20.sol\":7693:7694  0 */\n      0x00\n        /* \"@openzeppelin/contracts/token/ERC20/ERC20.sol\":7679:7695  to != address(0) */\n      0xffffffffffffffffffffffffffffffffffffffff\n      and\n        /* \"@openzeppelin/contracts/token/ERC20/ERC20.sol\":7679:7681  to */\n      dup3\n        /* \"@openzeppelin/contracts/token/ERC20/ERC20.sol\":7679:7695  to != address(0) */\n      0xffffffffffffffffffffffffffffffffffffffff\n      and\n      eq\n      iszero\n        /* \"@openzeppelin/contracts/token/ERC20/ERC20.sol\":7671:7735  require(to != address(0), \"ERC20: transfer to the zero address\") */\n      tag_229\n      jumpi\n      mload(0x40)\n      0x08c379a000000000000000000000000000000000000000000000000000000000\n      dup2\n      mstore\n      0x04\n      add\n      tag_230\n      swap1\n      tag_231\n      jump\t// in\n    tag_230:\n      mload(0x40)\n      dup1\n      swap2\n      sub\n      swap1\n      revert\n    tag_229:\n        /* \"@openzeppelin/contracts/token/ERC20/ERC20.sol\":7746:7784  _beforeTokenTransfer(from, to, amount) */\n      tag_232\n        /* \"@openzeppelin/contracts/token/ERC20/ERC20.sol\":7767:7771  from */\n      dup4\n        /* \"@openzeppelin/contracts/token/ERC20/ERC20.sol\":7773:7775  to */\n      dup4\n        /* \"@openzeppelin/contracts/token/ERC20/ERC20.sol\":7777:7783  amount */\n      dup4\n        /* \"@openzeppelin/contracts/token/ERC20/ERC20.sol\":7746:7766  _beforeTokenTransfer */\n      tag_233\n        /* \"@openzeppelin/contracts/token/ERC20/ERC20.sol\":7746:7784  _beforeTokenTransfer(from, to, amount) */\n      jump\t// in\n    tag_232:\n        /* \"@openzeppelin/contracts/token/ERC20/ERC20.sol\":7795:7814  uint256 fromBalance */\n      0x00\n        /* \"@openzeppelin/contracts/token/ERC20/ERC20.sol\":7817:7826  _balances */\n      dup1\n        /* \"@openzeppelin/contracts/token/ERC20/ERC20.sol\":7817:7832  _balances[from] */\n      0x00\n        /* \"@openzeppelin/contracts/token/ERC20/ERC20.sol\":7827:7831  from */\n      dup6\n        /* \"@openzeppelin/contracts/token/ERC20/ERC20.sol\":7817:7832  _balances[from] */\n      0xffffffffffffffffffffffffffffffffffffffff\n      and\n      0xffffffffffffffffffffffffffffffffffffffff\n      and\n      dup2\n      mstore\n      0x20\n      add\n      swap1\n      dup2\n      mstore\n      0x20\n      add\n      0x00\n      keccak256\n      sload\n        /* \"@openzeppelin/contracts/token/ERC20/ERC20.sol\":7795:7832  uint256 fromBalance = _balances[from] */\n      swap1\n      pop\n        /* \"@openzeppelin/contracts/token/ERC20/ERC20.sol\":7865:7871  amount */\n      dup2\n        /* \"@openzeppelin/contracts/token/ERC20/ERC20.sol\":7850:7861  fromBalance */\n      dup2\n        /* \"@openzeppelin/contracts/token/ERC20/ERC20.sol\":7850:7871  fromBalance >= amount */\n      lt\n      iszero\n        /* \"@openzeppelin/contracts/token/ERC20/ERC20.sol\":7842:7914  require(fromBalance >= amount, \"ERC20: transfer amount exceeds balance\") */\n      tag_234\n      jumpi\n      mload(0x40)\n      0x08c379a000000000000000000000000000000000000000000000000000000000\n      dup2\n      mstore\n      0x04\n      add\n      tag_235\n      swap1\n      tag_236\n      jump\t// in\n    tag_235:\n      mload(0x40)\n      dup1\n      swap2\n      sub\n      swap1\n      revert\n    tag_234:\n        /* \"@openzeppelin/contracts/token/ERC20/ERC20.sol\":7980:7986  amount */\n      dup2\n        /* \"@openzeppelin/contracts/token/ERC20/ERC20.sol\":7966:7977  fromBalance */\n      dup2\n        /* \"@openzeppelin/contracts/token/ERC20/ERC20.sol\":7966:7986  fromBalance - amount */\n      sub\n        /* \"@openzeppelin/contracts/token/ERC20/ERC20.sol\":7948:7957  _balances */\n      0x00\n        /* \"@openzeppelin/contracts/token/ERC20/ERC20.sol\":7948:7963  _balances[from] */\n      dup1\n        /* \"@openzeppelin/contracts/token/ERC20/ERC20.sol\":7958:7962  from */\n      dup7\n        /* \"@openzeppelin/contracts/token/ERC20/ERC20.sol\":7948:7963  _balances[from] */\n      0xffffffffffffffffffffffffffffffffffffffff\n      and\n      0xffffffffffffffffffffffffffffffffffffffff\n      and\n      dup2\n      mstore\n      0x20\n      add\n      swap1\n      dup2\n      mstore\n      0x20\n      add\n      0x00\n      keccak256\n        /* \"@openzeppelin/contracts/token/ERC20/ERC20.sol\":7948:7986  _balances[from] = fromBalance - amount */\n      dup2\n      swap1\n      sstore\n      pop\n        /* \"@openzeppelin/contracts/token/ERC20/ERC20.sol\":8023:8029  amount */\n      dup2\n        /* \"@openzeppelin/contracts/token/ERC20/ERC20.sol\":8006:8015  _balances */\n      0x00\n        /* \"@openzeppelin/contracts/token/ERC20/ERC20.sol\":8006:8019  _balances[to] */\n      dup1\n        /* \"@openzeppelin/contracts/token/ERC20/ERC20.sol\":8016:8018  to */\n      dup6\n        /* \"@openzeppelin/contracts/token/ERC20/ERC20.sol\":8006:8019  _balances[to] */\n      0xffffffffffffffffffffffffffffffffffffffff\n      and\n      0xffffffffffffffffffffffffffffffffffffffff\n      and\n      dup2\n      mstore\n      0x20\n      add\n      swap1\n      dup2\n      mstore\n      0x20\n      add\n      0x00\n      keccak256\n      0x00\n        /* \"@openzeppelin/contracts/token/ERC20/ERC20.sol\":8006:8029  _balances[to] += amount */\n      dup3\n      dup3\n      sload\n      tag_237\n      swap2\n      swap1\n      tag_126\n      jump\t// in\n    tag_237:\n      swap3\n      pop\n      pop\n      dup2\n      swap1\n      sstore\n      pop\n        /* \"@openzeppelin/contracts/token/ERC20/ERC20.sol\":8060:8062  to */\n      dup3\n        /* \"@openzeppelin/contracts/token/ERC20/ERC20.sol\":8045:8071  Transfer(from, to, amount) */\n      0xffffffffffffffffffffffffffffffffffffffff\n      and\n        /* \"@openzeppelin/contracts/token/ERC20/ERC20.sol\":8054:8058  from */\n      dup5\n        /* \"@openzeppelin/contracts/token/ERC20/ERC20.sol\":8045:8071  Transfer(from, to, amount) */\n      0xffffffffffffffffffffffffffffffffffffffff\n      and\n      0xddf252ad1be2c89b69c2b068fc378daa952ba7f163c4a11628f55a4df523b3ef\n        /* \"@openzeppelin/contracts/token/ERC20/ERC20.sol\":8064:8070  amount */\n      dup5\n        /* \"@openzeppelin/contracts/token/ERC20/ERC20.sol\":8045:8071  Transfer(from, to, amount) */\n      mload(0x40)\n      tag_238\n      swap2\n      swap1\n      tag_35\n      jump\t// in\n    tag_238:\n      mload(0x40)\n      dup1\n      swap2\n      sub\n      swap1\n      log3\n        /* \"@openzeppelin/contracts/token/ERC20/ERC20.sol\":8082:8119  _afterTokenTransfer(from, to, amount) */\n      tag_239\n        /* \"@openzeppelin/contracts/token/ERC20/ERC20.sol\":8102:8106  from */\n      dup5\n        /* \"@openzeppelin/contracts/token/ERC20/ERC20.sol\":8108:8110  to */\n      dup5\n        /* \"@openzeppelin/contracts/token/ERC20/ERC20.sol\":8112:8118  amount */\n      dup5\n        /* \"@openzeppelin/contracts/token/ERC20/ERC20.sol\":8082:8101  _afterTokenTransfer */\n      tag_240\n        /* \"@openzeppelin/contracts/token/ERC20/ERC20.sol\":8082:8119  _afterTokenTransfer(from, to, amount) */\n      jump\t// in\n    tag_239:\n        /* \"@openzeppelin/contracts/token/ERC20/ERC20.sol\":7583:8126  {... */\n      pop\n        /* \"@openzeppelin/contracts/token/ERC20/ERC20.sol\":7475:8126  function _transfer(... */\n      pop\n      pop\n      pop\n      jump\t// out\n        /* \"@openzeppelin/contracts/token/ERC20/ERC20.sol\":8402:8791  function _mint(address account, uint256 amount) internal virtual {... */\n    tag_147:\n        /* \"@openzeppelin/contracts/token/ERC20/ERC20.sol\":8504:8505  0 */\n      0x00\n        /* \"@openzeppelin/contracts/token/ERC20/ERC20.sol\":8485:8506  account != address(0) */\n      0xffffffffffffffffffffffffffffffffffffffff\n      and\n        /* \"@openzeppelin/contracts/token/ERC20/ERC20.sol\":8485:8492  account */\n      dup3\n        /* \"@openzeppelin/contracts/token/ERC20/ERC20.sol\":8485:8506  account != address(0) */\n      0xffffffffffffffffffffffffffffffffffffffff\n      and\n      eq\n      iszero\n        /* \"@openzeppelin/contracts/token/ERC20/ERC20.sol\":8477:8542  require(account != address(0), \"ERC20: mint to the zero address\") */\n      tag_242\n      jumpi\n      mload(0x40)\n      0x08c379a000000000000000000000000000000000000000000000000000000000\n      dup2\n      mstore\n      0x04\n      add\n      tag_243\n      swap1\n      tag_244\n      jump\t// in\n    tag_243:\n      mload(0x40)\n      dup1\n      swap2\n      sub\n      swap1\n      revert\n    tag_242:\n        /* \"@openzeppelin/contracts/token/ERC20/ERC20.sol\":8553:8602  _beforeTokenTransfer(address(0), account, amount) */\n      tag_245\n        /* \"@openzeppelin/contracts/token/ERC20/ERC20.sol\":8582:8583  0 */\n      0x00\n        /* \"@openzeppelin/contracts/token/ERC20/ERC20.sol\":8586:8593  account */\n      dup4\n        /* \"@openzeppelin/contracts/token/ERC20/ERC20.sol\":8595:8601  amount */\n      dup4\n        /* \"@openzeppelin/contracts/token/ERC20/ERC20.sol\":8553:8573  _beforeTokenTransfer */\n      tag_233\n        /* \"@openzeppelin/contracts/token/ERC20/ERC20.sol\":8553:8602  _beforeTokenTransfer(address(0), account, amount) */\n      jump\t// in\n    tag_245:\n        /* \"@openzeppelin/contracts/token/ERC20/ERC20.sol\":8629:8635  amount */\n      dup1\n        /* \"@openzeppelin/contracts/token/ERC20/ERC20.sol\":8613:8625  _totalSupply */\n      0x02\n      0x00\n        /* \"@openzeppelin/contracts/token/ERC20/ERC20.sol\":8613:8635  _totalSupply += amount */\n      dup3\n      dup3\n      sload\n      tag_246\n      swap2\n      swap1\n      tag_126\n      jump\t// in\n    tag_246:\n      swap3\n      pop\n      pop\n      dup2\n      swap1\n      sstore\n      pop\n        /* \"@openzeppelin/contracts/token/ERC20/ERC20.sol\":8667:8673  amount */\n      dup1\n        /* \"@openzeppelin/contracts/token/ERC20/ERC20.sol\":8645:8654  _balances */\n      0x00\n        /* \"@openzeppelin/contracts/token/ERC20/ERC20.sol\":8645:8663  _balances[account] */\n      dup1\n        /* \"@openzeppelin/contracts/token/ERC20/ERC20.sol\":8655:8662  account */\n      dup5\n        /* \"@openzeppelin/contracts/token/ERC20/ERC20.sol\":8645:8663  _balances[account] */\n      0xffffffffffffffffffffffffffffffffffffffff\n      and\n      0xffffffffffffffffffffffffffffffffffffffff\n      and\n      dup2\n      mstore\n      0x20\n      add\n      swap1\n      dup2\n      mstore\n      0x20\n      add\n      0x00\n      keccak256\n      0x00\n        /* \"@openzeppelin/contracts/token/ERC20/ERC20.sol\":8645:8673  _balances[account] += amount */\n      dup3\n      dup3\n      sload\n      tag_247\n      swap2\n      swap1\n      tag_126\n      jump\t// in\n    tag_247:\n      swap3\n      pop\n      pop\n      dup2\n      swap1\n      sstore\n      pop\n        /* \"@openzeppelin/contracts/token/ERC20/ERC20.sol\":8709:8716  account */\n      dup2\n        /* \"@openzeppelin/contracts/token/ERC20/ERC20.sol\":8688:8725  Transfer(address(0), account, amount) */\n      0xffffffffffffffffffffffffffffffffffffffff\n      and\n        /* \"@openzeppelin/contracts/token/ERC20/ERC20.sol\":8705:8706  0 */\n      0x00\n        /* \"@openzeppelin/contracts/token/ERC20/ERC20.sol\":8688:8725  Transfer(address(0), account, amount) */\n      0xffffffffffffffffffffffffffffffffffffffff\n      and\n      0xddf252ad1be2c89b69c2b068fc378daa952ba7f163c4a11628f55a4df523b3ef\n        /* \"@openzeppelin/contracts/token/ERC20/ERC20.sol\":8718:8724  amount */\n      dup4\n        /* \"@openzeppelin/contracts/token/ERC20/ERC20.sol\":8688:8725  Transfer(address(0), account, amount) */\n      mload(0x40)\n      tag_248\n      swap2\n      swap1\n      tag_35\n      jump\t// in\n    tag_248:\n      mload(0x40)\n      dup1\n      swap2\n      sub\n      swap1\n      log3\n        /* \"@openzeppelin/contracts/token/ERC20/ERC20.sol\":8736:8784  _afterTokenTransfer(address(0), account, amount) */\n      tag_249\n        /* \"@openzeppelin/contracts/token/ERC20/ERC20.sol\":8764:8765  0 */\n      0x00\n        /* \"@openzeppelin/contracts/token/ERC20/ERC20.sol\":8768:8775  account */\n      dup4\n        /* \"@openzeppelin/contracts/token/ERC20/ERC20.sol\":8777:8783  amount */\n      dup4\n        /* \"@openzeppelin/contracts/token/ERC20/ERC20.sol\":8736:8755  _afterTokenTransfer */\n      tag_240\n        /* \"@openzeppelin/contracts/token/ERC20/ERC20.sol\":8736:8784  _afterTokenTransfer(address(0), account, amount) */\n      jump\t// in\n    tag_249:\n        /* \"@openzeppelin/contracts/token/ERC20/ERC20.sol\":8402:8791  function _mint(address account, uint256 amount) internal virtual {... */\n      pop\n      pop\n      jump\t// out\n        /* \"@openzeppelin/contracts/token/ERC20/ERC20.sol\":11786:11907  function _beforeTokenTransfer(... */\n    tag_233:\n      pop\n      pop\n      pop\n      jump\t// out\n        /* \"@openzeppelin/contracts/token/ERC20/ERC20.sol\":12495:12615  function _afterTokenTransfer(... */\n    tag_240:\n      pop\n      pop\n      pop\n      jump\t// out\n    tag_111:\n      dup3\n      dup1\n      sload\n      tag_252\n      swap1\n      tag_92\n      jump\t// in\n    tag_252:\n      swap1\n      0x00\n      mstore\n      keccak256(0x00, 0x20)\n      swap1\n      0x1f\n      add\n      0x20\n      swap1\n      div\n      dup2\n      add\n      swap3\n      dup3\n      tag_254\n      jumpi\n      0x00\n      dup6\n      sstore\n      jump(tag_253)\n    tag_254:\n      dup3\n      0x1f\n      lt\n      tag_255\n      jumpi\n      dup1\n      mload\n      not(0xff)\n      and\n      dup4\n      dup1\n      add\n      or\n      dup6\n      sstore\n      jump(tag_253)\n    tag_255:\n      dup3\n      dup1\n      add\n      0x01\n      add\n      dup6\n      sstore\n      dup3\n      iszero\n      tag_253\n      jumpi\n      swap2\n      dup3\n      add\n    tag_256:\n      dup3\n      dup2\n      gt\n      iszero\n      tag_257\n      jumpi\n      dup3\n      mload\n      dup3\n      sstore\n      swap2\n      0x20\n      add\n      swap2\n      swap1\n      0x01\n      add\n      swap1\n      jump(tag_256)\n    tag_257:\n    tag_253:\n      pop\n      swap1\n      pop\n      tag_258\n      swap2\n      swap1\n      tag_259\n      jump\t// in\n    tag_258:\n      pop\n      swap1\n      jump\t// out\n    tag_259:\n    tag_260:\n      dup1\n      dup3\n      gt\n      iszero\n      tag_261\n      jumpi\n      0x00\n      dup2\n      0x00\n      swap1\n      sstore\n      pop\n      0x01\n      add\n      jump(tag_260)\n    tag_261:\n      pop\n      swap1\n      jump\t// out\n        /* \"#utility.yul\":7:146   */\n    tag_263:\n        /* \"#utility.yul\":53:58   */\n      0x00\n        /* \"#utility.yul\":91:97   */\n      dup2\n        /* \"#utility.yul\":78:98   */\n      calldataload\n        /* \"#utility.yul\":69:98   */\n      swap1\n      pop\n        /* \"#utility.yul\":107:140   */\n      tag_265\n        /* \"#utility.yul\":134:139   */\n      dup2\n        /* \"#utility.yul\":107:140   */\n      tag_266\n      jump\t// in\n    tag_265:\n        /* \"#utility.yul\":7:146   */\n      swap3\n      swap2\n      pop\n      pop\n      jump\t// out\n        /* \"#utility.yul\":152:291   */\n    tag_267:\n        /* \"#utility.yul\":198:203   */\n      0x00\n        /* \"#utility.yul\":236:242   */\n      dup2\n        /* \"#utility.yul\":223:243   */\n      calldataload\n        /* \"#utility.yul\":214:243   */\n      swap1\n      pop\n        /* \"#utility.yul\":252:285   */\n      tag_269\n        /* \"#utility.yul\":279:284   */\n      dup2\n        /* \"#utility.yul\":252:285   */\n      tag_270\n      jump\t// in\n    tag_269:\n        /* \"#utility.yul\":152:291   */\n      swap3\n      swap2\n      pop\n      pop\n      jump\t// out\n        /* \"#utility.yul\":297:626   */\n    tag_59:\n        /* \"#utility.yul\":356:362   */\n      0x00\n        /* \"#utility.yul\":405:407   */\n      0x20\n        /* \"#utility.yul\":393:402   */\n      dup3\n        /* \"#utility.yul\":384:391   */\n      dup5\n        /* \"#utility.yul\":380:403   */\n      sub\n        /* \"#utility.yul\":376:408   */\n      slt\n        /* \"#utility.yul\":373:492   */\n      iszero\n      tag_272\n      jumpi\n        /* \"#utility.yul\":411:490   */\n      tag_273\n      tag_274\n      jump\t// in\n    tag_273:\n        /* \"#utility.yul\":373:492   */\n    tag_272:\n        /* \"#utility.yul\":531:532   */\n      0x00\n        /* \"#utility.yul\":556:609   */\n      tag_275\n        /* \"#utility.yul\":601:608   */\n      dup5\n        /* \"#utility.yul\":592:598   */\n      dup3\n        /* \"#utility.yul\":581:590   */\n      dup6\n        /* \"#utility.yul\":577:599   */\n      add\n        /* \"#utility.yul\":556:609   */\n      tag_263\n      jump\t// in\n    tag_275:\n        /* \"#utility.yul\":546:609   */\n      swap2\n      pop\n        /* \"#utility.yul\":502:619   */\n      pop\n        /* \"#utility.yul\":297:626   */\n      swap3\n      swap2\n      pop\n      pop\n      jump\t// out\n        /* \"#utility.yul\":632:1106   */\n    tag_87:\n        /* \"#utility.yul\":700:706   */\n      0x00\n        /* \"#utility.yul\":708:714   */\n      dup1\n        /* \"#utility.yul\":757:759   */\n      0x40\n        /* \"#utility.yul\":745:754   */\n      dup4\n        /* \"#utility.yul\":736:743   */\n      dup6\n        /* \"#utility.yul\":732:755   */\n      sub\n        /* \"#utility.yul\":728:760   */\n      slt\n        /* \"#utility.yul\":725:844   */\n      iszero\n      tag_277\n      jumpi\n        /* \"#utility.yul\":763:842   */\n      tag_278\n      tag_274\n      jump\t// in\n    tag_278:\n        /* \"#utility.yul\":725:844   */\n    tag_277:\n        /* \"#utility.yul\":883:884   */\n      0x00\n        /* \"#utility.yul\":908:961   */\n      tag_279\n        /* \"#utility.yul\":953:960   */\n      dup6\n        /* \"#utility.yul\":944:950   */\n      dup3\n        /* \"#utility.yul\":933:942   */\n      dup7\n        /* \"#utility.yul\":929:951   */\n      add\n        /* \"#utility.yul\":908:961   */\n      tag_263\n      jump\t// in\n    tag_279:\n        /* \"#utility.yul\":898:961   */\n      swap3\n      pop\n        /* \"#utility.yul\":854:971   */\n      pop\n        /* \"#utility.yul\":1010:1012   */\n      0x20\n        /* \"#utility.yul\":1036:1089   */\n      tag_280\n        /* \"#utility.yul\":1081:1088   */\n      dup6\n        /* \"#utility.yul\":1072:1078   */\n      dup3\n        /* \"#utility.yul\":1061:1070   */\n      dup7\n        /* \"#utility.yul\":1057:1079   */\n      add\n        /* \"#utility.yul\":1036:1089   */\n      tag_263\n      jump\t// in\n    tag_280:\n        /* \"#utility.yul\":1026:1089   */\n      swap2\n      pop\n        /* \"#utility.yul\":981:1099   */\n      pop\n        /* \"#utility.yul\":632:1106   */\n      swap3\n      pop\n      swap3\n      swap1\n      pop\n      jump\t// out\n        /* \"#utility.yul\":1112:1731   */\n    tag_43:\n        /* \"#utility.yul\":1189:1195   */\n      0x00\n        /* \"#utility.yul\":1197:1203   */\n      dup1\n        /* \"#utility.yul\":1205:1211   */\n      0x00\n        /* \"#utility.yul\":1254:1256   */\n      0x60\n        /* \"#utility.yul\":1242:1251   */\n      dup5\n        /* \"#utility.yul\":1233:1240   */\n      dup7\n        /* \"#utility.yul\":1229:1252   */\n      sub\n        /* \"#utility.yul\":1225:1257   */\n      slt\n        /* \"#utility.yul\":1222:1341   */\n      iszero\n      tag_282\n      jumpi\n        /* \"#utility.yul\":1260:1339   */\n      tag_283\n      tag_274\n      jump\t// in\n    tag_283:\n        /* \"#utility.yul\":1222:1341   */\n    tag_282:\n        /* \"#utility.yul\":1380:1381   */\n      0x00\n        /* \"#utility.yul\":1405:1458   */\n      tag_284\n        /* \"#utility.yul\":1450:1457   */\n      dup7\n        /* \"#utility.yul\":1441:1447   */\n      dup3\n        /* \"#utility.yul\":1430:1439   */\n      dup8\n        /* \"#utility.yul\":1426:1448   */\n      add\n        /* \"#utility.yul\":1405:1458   */\n      tag_263\n      jump\t// in\n    tag_284:\n        /* \"#utility.yul\":1395:1458   */\n      swap4\n      pop\n        /* \"#utility.yul\":1351:1468   */\n      pop\n        /* \"#utility.yul\":1507:1509   */\n      0x20\n        /* \"#utility.yul\":1533:1586   */\n      tag_285\n        /* \"#utility.yul\":1578:1585   */\n      dup7\n        /* \"#utility.yul\":1569:1575   */\n      dup3\n        /* \"#utility.yul\":1558:1567   */\n      dup8\n        /* \"#utility.yul\":1554:1576   */\n      add\n        /* \"#utility.yul\":1533:1586   */\n      tag_263\n      jump\t// in\n    tag_285:\n        /* \"#utility.yul\":1523:1586   */\n      swap3\n      pop\n        /* \"#utility.yul\":1478:1596   */\n      pop\n        /* \"#utility.yul\":1635:1637   */\n      0x40\n        /* \"#utility.yul\":1661:1714   */\n      tag_286\n        /* \"#utility.yul\":1706:1713   */\n      dup7\n        /* \"#utility.yul\":1697:1703   */\n      dup3\n        /* \"#utility.yul\":1686:1695   */\n      dup8\n        /* \"#utility.yul\":1682:1704   */\n      add\n        /* \"#utility.yul\":1661:1714   */\n      tag_267\n      jump\t// in\n    tag_286:\n        /* \"#utility.yul\":1651:1714   */\n      swap2\n      pop\n        /* \"#utility.yul\":1606:1724   */\n      pop\n        /* \"#utility.yul\":1112:1731   */\n      swap3\n      pop\n      swap3\n      pop\n      swap3\n      jump\t// out\n        /* \"#utility.yul\":1737:2211   */\n    tag_28:\n        /* \"#utility.yul\":1805:1811   */\n      0x00\n        /* \"#utility.yul\":1813:1819   */\n      dup1\n        /* \"#utility.yul\":1862:1864   */\n      0x40\n        /* \"#utility.yul\":1850:1859   */\n      dup4\n        /* \"#utility.yul\":1841:1848   */\n      dup6\n        /* \"#utility.yul\":1837:1860   */\n      sub\n        /* \"#utility.yul\":1833:1865   */\n      slt\n        /* \"#utility.yul\":1830:1949   */\n      iszero\n      tag_288\n      jumpi\n        /* \"#utility.yul\":1868:1947   */\n      tag_289\n      tag_274\n      jump\t// in\n    tag_289:\n        /* \"#utility.yul\":1830:1949   */\n    tag_288:\n        /* \"#utility.yul\":1988:1989   */\n      0x00\n        /* \"#utility.yul\":2013:2066   */\n      tag_290\n        /* \"#utility.yul\":2058:2065   */\n      dup6\n        /* \"#utility.yul\":2049:2055   */\n      dup3\n        /* \"#utility.yul\":2038:2047   */\n      dup7\n        /* \"#utility.yul\":2034:2056   */\n      add\n        /* \"#utility.yul\":2013:2066   */\n      tag_263\n      jump\t// in\n    tag_290:\n        /* \"#utility.yul\":2003:2066   */\n      swap3\n      pop\n        /* \"#utility.yul\":1959:2076   */\n      pop\n        /* \"#utility.yul\":2115:2117   */\n      0x20\n        /* \"#utility.yul\":2141:2194   */\n      tag_291\n        /* \"#utility.yul\":2186:2193   */\n      dup6\n        /* \"#utility.yul\":2177:2183   */\n      dup3\n        /* \"#utility.yul\":2166:2175   */\n      dup7\n        /* \"#utility.yul\":2162:2184   */\n      add\n        /* \"#utility.yul\":2141:2194   */\n      tag_267\n      jump\t// in\n    tag_291:\n        /* \"#utility.yul\":2131:2194   */\n      swap2\n      pop\n        /* \"#utility.yul\":2086:2204   */\n      pop\n        /* \"#utility.yul\":1737:2211   */\n      swap3\n      pop\n      swap3\n      swap1\n      pop\n      jump\t// out\n        /* \"#utility.yul\":2217:2546   */\n    tag_38:\n        /* \"#utility.yul\":2276:2282   */\n      0x00\n        /* \"#utility.yul\":2325:2327   */\n      0x20\n        /* \"#utility.yul\":2313:2322   */\n      dup3\n        /* \"#utility.yul\":2304:2311   */\n      dup5\n        /* \"#utility.yul\":2300:2323   */\n      sub\n        /* \"#utility.yul\":2296:2328   */\n      slt\n        /* \"#utility.yul\":2293:2412   */\n      iszero\n      tag_293\n      jumpi\n        /* \"#utility.yul\":2331:2410   */\n      tag_294\n      tag_274\n      jump\t// in\n    tag_294:\n        /* \"#utility.yul\":2293:2412   */\n    tag_293:\n        /* \"#utility.yul\":2451:2452   */\n      0x00\n        /* \"#utility.yul\":2476:2529   */\n      tag_295\n        /* \"#utility.yul\":2521:2528   */\n      dup5\n        /* \"#utility.yul\":2512:2518   */\n      dup3\n        /* \"#utility.yul\":2501:2510   */\n      dup6\n        /* \"#utility.yul\":2497:2519   */\n      add\n        /* \"#utility.yul\":2476:2529   */\n      tag_267\n      jump\t// in\n    tag_295:\n        /* \"#utility.yul\":2466:2529   */\n      swap2\n      pop\n        /* \"#utility.yul\":2422:2539   */\n      pop\n        /* \"#utility.yul\":2217:2546   */\n      swap3\n      swap2\n      pop\n      pop\n      jump\t// out\n        /* \"#utility.yul\":2552:3171   */\n    tag_74:\n        /* \"#utility.yul\":2629:2635   */\n      0x00\n        /* \"#utility.yul\":2637:2643   */\n      dup1\n        /* \"#utility.yul\":2645:2651   */\n      0x00\n        /* \"#utility.yul\":2694:2696   */\n      0x60\n        /* \"#utility.yul\":2682:2691   */\n      dup5\n        /* \"#utility.yul\":2673:2680   */\n      dup7\n        /* \"#utility.yul\":2669:2692   */\n      sub\n        /* \"#utility.yul\":2665:2697   */\n      slt\n        /* \"#utility.yul\":2662:2781   */\n      iszero\n      tag_297\n      jumpi\n        /* \"#utility.yul\":2700:2779   */\n      tag_298\n      tag_274\n      jump\t// in\n    tag_298:\n        /* \"#utility.yul\":2662:2781   */\n    tag_297:\n        /* \"#utility.yul\":2820:2821   */\n      0x00\n        /* \"#utility.yul\":2845:2898   */\n      tag_299\n        /* \"#utility.yul\":2890:2897   */\n      dup7\n        /* \"#utility.yul\":2881:2887   */\n      dup3\n        /* \"#utility.yul\":2870:2879   */\n      dup8\n        /* \"#utility.yul\":2866:2888   */\n      add\n        /* \"#utility.yul\":2845:2898   */\n      tag_267\n      jump\t// in\n    tag_299:\n        /* \"#utility.yul\":2835:2898   */\n      swap4\n      pop\n        /* \"#utility.yul\":2791:2908   */\n      pop\n        /* \"#utility.yul\":2947:2949   */\n      0x20\n        /* \"#utility.yul\":2973:3026   */\n      tag_300\n        /* \"#utility.yul\":3018:3025   */\n      dup7\n        /* \"#utility.yul\":3009:3015   */\n      dup3\n        /* \"#utility.yul\":2998:3007   */\n      dup8\n        /* \"#utility.yul\":2994:3016   */\n      add\n        /* \"#utility.yul\":2973:3026   */\n      tag_267\n      jump\t// in\n    tag_300:\n        /* \"#utility.yul\":2963:3026   */\n      swap3\n      pop\n        /* \"#utility.yul\":2918:3036   */\n      pop\n        /* \"#utility.yul\":3075:3077   */\n      0x40\n        /* \"#utility.yul\":3101:3154   */\n      tag_301\n        /* \"#utility.yul\":3146:3153   */\n      dup7\n        /* \"#utility.yul\":3137:3143   */\n      dup3\n        /* \"#utility.yul\":3126:3135   */\n      dup8\n        /* \"#utility.yul\":3122:3144   */\n      add\n        /* \"#utility.yul\":3101:3154   */\n      tag_267\n      jump\t// in\n    tag_301:\n        /* \"#utility.yul\":3091:3154   */\n      swap2\n      pop\n        /* \"#utility.yul\":3046:3164   */\n      pop\n        /* \"#utility.yul\":2552:3171   */\n      swap3\n      pop\n      swap3\n      pop\n      swap3\n      jump\t// out\n        /* \"#utility.yul\":3177:3295   */\n    tag_302:\n        /* \"#utility.yul\":3264:3288   */\n      tag_304\n        /* \"#utility.yul\":3282:3287   */\n      dup2\n        /* \"#utility.yul\":3264:3288   */\n      tag_305\n      jump\t// in\n    tag_304:\n        /* \"#utility.yul\":3259:3262   */\n      dup3\n        /* \"#utility.yul\":3252:3289   */\n      mstore\n        /* \"#utility.yul\":3177:3295   */\n      pop\n      pop\n      jump\t// out\n        /* \"#utility.yul\":3301:3458   */\n    tag_306:\n        /* \"#utility.yul\":3406:3451   */\n      tag_308\n        /* \"#utility.yul\":3426:3450   */\n      tag_309\n        /* \"#utility.yul\":3444:3449   */\n      dup3\n        /* \"#utility.yul\":3426:3450   */\n      tag_305\n      jump\t// in\n    tag_309:\n        /* \"#utility.yul\":3406:3451   */\n      tag_310\n      jump\t// in\n    tag_308:\n        /* \"#utility.yul\":3401:3404   */\n      dup3\n        /* \"#utility.yul\":3394:3452   */\n      mstore\n        /* \"#utility.yul\":3301:3458   */\n      pop\n      pop\n      jump\t// out\n        /* \"#utility.yul\":3464:3573   */\n    tag_311:\n        /* \"#utility.yul\":3545:3566   */\n      tag_313\n        /* \"#utility.yul\":3560:3565   */\n      dup2\n        /* \"#utility.yul\":3545:3566   */\n      tag_314\n      jump\t// in\n    tag_313:\n        /* \"#utility.yul\":3540:3543   */\n      dup3\n        /* \"#utility.yul\":3533:3567   */\n      mstore\n        /* \"#utility.yul\":3464:3573   */\n      pop\n      pop\n      jump\t// out\n        /* \"#utility.yul\":3579:3943   */\n    tag_315:\n        /* \"#utility.yul\":3667:3670   */\n      0x00\n        /* \"#utility.yul\":3695:3734   */\n      tag_317\n        /* \"#utility.yul\":3728:3733   */\n      dup3\n        /* \"#utility.yul\":3695:3734   */\n      tag_318\n      jump\t// in\n    tag_317:\n        /* \"#utility.yul\":3750:3821   */\n      tag_319\n        /* \"#utility.yul\":3814:3820   */\n      dup2\n        /* \"#utility.yul\":3809:3812   */\n      dup6\n        /* \"#utility.yul\":3750:3821   */\n      tag_320\n      jump\t// in\n    tag_319:\n        /* \"#utility.yul\":3743:3821   */\n      swap4\n      pop\n        /* \"#utility.yul\":3830:3882   */\n      tag_321\n        /* \"#utility.yul\":3875:3881   */\n      dup2\n        /* \"#utility.yul\":3870:3873   */\n      dup6\n        /* \"#utility.yul\":3863:3867   */\n      0x20\n        /* \"#utility.yul\":3856:3861   */\n      dup7\n        /* \"#utility.yul\":3852:3868   */\n      add\n        /* \"#utility.yul\":3830:3882   */\n      tag_322\n      jump\t// in\n    tag_321:\n        /* \"#utility.yul\":3907:3936   */\n      tag_323\n        /* \"#utility.yul\":3929:3935   */\n      dup2\n        /* \"#utility.yul\":3907:3936   */\n      tag_324\n      jump\t// in\n    tag_323:\n        /* \"#utility.yul\":3902:3905   */\n      dup5\n        /* \"#utility.yul\":3898:3937   */\n      add\n        /* \"#utility.yul\":3891:3937   */\n      swap2\n      pop\n        /* \"#utility.yul\":3671:3943   */\n      pop\n        /* \"#utility.yul\":3579:3943   */\n      swap3\n      swap2\n      pop\n      pop\n      jump\t// out\n        /* \"#utility.yul\":3949:4315   */\n    tag_325:\n        /* \"#utility.yul\":4091:4094   */\n      0x00\n        /* \"#utility.yul\":4112:4179   */\n      tag_327\n        /* \"#utility.yul\":4176:4178   */\n      0x23\n        /* \"#utility.yul\":4171:4174   */\n      dup4\n        /* \"#utility.yul\":4112:4179   */\n      tag_320\n      jump\t// in\n    tag_327:\n        /* \"#utility.yul\":4105:4179   */\n      swap2\n      pop\n        /* \"#utility.yul\":4188:4281   */\n      tag_328\n        /* \"#utility.yul\":4277:4280   */\n      dup3\n        /* \"#utility.yul\":4188:4281   */\n      tag_329\n      jump\t// in\n    tag_328:\n        /* \"#utility.yul\":4306:4308   */\n      0x40\n        /* \"#utility.yul\":4301:4304   */\n      dup3\n        /* \"#utility.yul\":4297:4309   */\n      add\n        /* \"#utility.yul\":4290:4309   */\n      swap1\n      pop\n        /* \"#utility.yul\":3949:4315   */\n      swap2\n      swap1\n      pop\n      jump\t// out\n        /* \"#utility.yul\":4321:4687   */\n    tag_330:\n        /* \"#utility.yul\":4463:4466   */\n      0x00\n        /* \"#utility.yul\":4484:4551   */\n      tag_332\n        /* \"#utility.yul\":4548:4550   */\n      0x22\n        /* \"#utility.yul\":4543:4546   */\n      dup4\n        /* \"#utility.yul\":4484:4551   */\n      tag_320\n      jump\t// in\n    tag_332:\n        /* \"#utility.yul\":4477:4551   */\n      swap2\n      pop\n        /* \"#utility.yul\":4560:4653   */\n      tag_333\n        /* \"#utility.yul\":4649:4652   */\n      dup3\n        /* \"#utility.yul\":4560:4653   */\n      tag_334\n      jump\t// in\n    tag_333:\n        /* \"#utility.yul\":4678:4680   */\n      0x40\n        /* \"#utility.yul\":4673:4676   */\n      dup3\n        /* \"#utility.yul\":4669:4681   */\n      add\n        /* \"#utility.yul\":4662:4681   */\n      swap1\n      pop\n        /* \"#utility.yul\":4321:4687   */\n      swap2\n      swap1\n      pop\n      jump\t// out\n        /* \"#utility.yul\":4693:5059   */\n    tag_335:\n        /* \"#utility.yul\":4835:4838   */\n      0x00\n        /* \"#utility.yul\":4856:4923   */\n      tag_337\n        /* \"#utility.yul\":4920:4922   */\n      0x1d\n        /* \"#utility.yul\":4915:4918   */\n      dup4\n        /* \"#utility.yul\":4856:4923   */\n      tag_320\n      jump\t// in\n    tag_337:\n        /* \"#utility.yul\":4849:4923   */\n      swap2\n      pop\n        /* \"#utility.yul\":4932:5025   */\n      tag_338\n        /* \"#utility.yul\":5021:5024   */\n      dup3\n        /* \"#utility.yul\":4932:5025   */\n      tag_339\n      jump\t// in\n    tag_338:\n        /* \"#utility.yul\":5050:5052   */\n      0x20\n        /* \"#utility.yul\":5045:5048   */\n      dup3\n        /* \"#utility.yul\":5041:5053   */\n      add\n        /* \"#utility.yul\":5034:5053   */\n      swap1\n      pop\n        /* \"#utility.yul\":4693:5059   */\n      swap2\n      swap1\n      pop\n      jump\t// out\n        /* \"#utility.yul\":5065:5431   */\n    tag_340:\n        /* \"#utility.yul\":5207:5210   */\n      0x00\n        /* \"#utility.yul\":5228:5295   */\n      tag_342\n        /* \"#utility.yul\":5292:5294   */\n      0x26\n        /* \"#utility.yul\":5287:5290   */\n      dup4\n        /* \"#utility.yul\":5228:5295   */\n      tag_320\n      jump\t// in\n    tag_342:\n        /* \"#utility.yul\":5221:5295   */\n      swap2\n      pop\n        /* \"#utility.yul\":5304:5397   */\n      tag_343\n        /* \"#utility.yul\":5393:5396   */\n      dup3\n        /* \"#utility.yul\":5304:5397   */\n      tag_344\n      jump\t// in\n    tag_343:\n        /* \"#utility.yul\":5422:5424   */\n      0x40\n        /* \"#utility.yul\":5417:5420   */\n      dup3\n        /* \"#utility.yul\":5413:5425   */\n      add\n        /* \"#utility.yul\":5406:5425   */\n      swap1\n      pop\n        /* \"#utility.yul\":5065:5431   */\n      swap2\n      swap1\n      pop\n      jump\t// out\n        /* \"#utility.yul\":5437:5803   */\n    tag_345:\n        /* \"#utility.yul\":5579:5582   */\n      0x00\n        /* \"#utility.yul\":5600:5667   */\n      tag_347\n        /* \"#utility.yul\":5664:5666   */\n      0x25\n        /* \"#utility.yul\":5659:5662   */\n      dup4\n        /* \"#utility.yul\":5600:5667   */\n      tag_320\n      jump\t// in\n    tag_347:\n        /* \"#utility.yul\":5593:5667   */\n      swap2\n      pop\n        /* \"#utility.yul\":5676:5769   */\n      tag_348\n        /* \"#utility.yul\":5765:5768   */\n      dup3\n        /* \"#utility.yul\":5676:5769   */\n      tag_349\n      jump\t// in\n    tag_348:\n        /* \"#utility.yul\":5794:5796   */\n      0x40\n        /* \"#utility.yul\":5789:5792   */\n      dup3\n        /* \"#utility.yul\":5785:5797   */\n      add\n        /* \"#utility.yul\":5778:5797   */\n      swap1\n      pop\n        /* \"#utility.yul\":5437:5803   */\n      swap2\n      swap1\n      pop\n      jump\t// out\n        /* \"#utility.yul\":5809:6175   */\n    tag_350:\n        /* \"#utility.yul\":5951:5954   */\n      0x00\n        /* \"#utility.yul\":5972:6039   */\n      tag_352\n        /* \"#utility.yul\":6036:6038   */\n      0x24\n        /* \"#utility.yul\":6031:6034   */\n      dup4\n        /* \"#utility.yul\":5972:6039   */\n      tag_320\n      jump\t// in\n    tag_352:\n        /* \"#utility.yul\":5965:6039   */\n      swap2\n      pop\n        /* \"#utility.yul\":6048:6141   */\n      tag_353\n        /* \"#utility.yul\":6137:6140   */\n      dup3\n        /* \"#utility.yul\":6048:6141   */\n      tag_354\n      jump\t// in\n    tag_353:\n        /* \"#utility.yul\":6166:6168   */\n      0x40\n        /* \"#utility.yul\":6161:6164   */\n      dup3\n        /* \"#utility.yul\":6157:6169   */\n      add\n        /* \"#utility.yul\":6150:6169   */\n      swap1\n      pop\n        /* \"#utility.yul\":5809:6175   */\n      swap2\n      swap1\n      pop\n      jump\t// out\n        /* \"#utility.yul\":6181:6547   */\n    tag_355:\n        /* \"#utility.yul\":6323:6326   */\n      0x00\n        /* \"#utility.yul\":6344:6411   */\n      tag_357\n        /* \"#utility.yul\":6408:6410   */\n      0x25\n        /* \"#utility.yul\":6403:6406   */\n      dup4\n        /* \"#utility.yul\":6344:6411   */\n      tag_320\n      jump\t// in\n    tag_357:\n        /* \"#utility.yul\":6337:6411   */\n      swap2\n      pop\n        /* \"#utility.yul\":6420:6513   */\n      tag_358\n        /* \"#utility.yul\":6509:6512   */\n      dup3\n        /* \"#utility.yul\":6420:6513   */\n      tag_359\n      jump\t// in\n    tag_358:\n        /* \"#utility.yul\":6538:6540   */\n      0x40\n        /* \"#utility.yul\":6533:6536   */\n      dup3\n        /* \"#utility.yul\":6529:6541   */\n      add\n        /* \"#utility.yul\":6522:6541   */\n      swap1\n      pop\n        /* \"#utility.yul\":6181:6547   */\n      swap2\n      swap1\n      pop\n      jump\t// out\n        /* \"#utility.yul\":6553:6919   */\n    tag_360:\n        /* \"#utility.yul\":6695:6698   */\n      0x00\n        /* \"#utility.yul\":6716:6783   */\n      tag_362\n        /* \"#utility.yul\":6780:6782   */\n      0x1f\n        /* \"#utility.yul\":6775:6778   */\n      dup4\n        /* \"#utility.yul\":6716:6783   */\n      tag_320\n      jump\t// in\n    tag_362:\n        /* \"#utility.yul\":6709:6783   */\n      swap2\n      pop\n        /* \"#utility.yul\":6792:6885   */\n      tag_363\n        /* \"#utility.yul\":6881:6884   */\n      dup3\n        /* \"#utility.yul\":6792:6885   */\n      tag_364\n      jump\t// in\n    tag_363:\n        /* \"#utility.yul\":6910:6912   */\n      0x20\n        /* \"#utility.yul\":6905:6908   */\n      dup3\n        /* \"#utility.yul\":6901:6913   */\n      add\n        /* \"#utility.yul\":6894:6913   */\n      swap1\n      pop\n        /* \"#utility.yul\":6553:6919   */\n      swap2\n      swap1\n      pop\n      jump\t// out\n        /* \"#utility.yul\":6925:7043   */\n    tag_365:\n        /* \"#utility.yul\":7012:7036   */\n      tag_367\n        /* \"#utility.yul\":7030:7035   */\n      dup2\n        /* \"#utility.yul\":7012:7036   */\n      tag_368\n      jump\t// in\n    tag_367:\n        /* \"#utility.yul\":7007:7010   */\n      dup3\n        /* \"#utility.yul\":7000:7037   */\n      mstore\n        /* \"#utility.yul\":6925:7043   */\n      pop\n      pop\n      jump\t// out\n        /* \"#utility.yul\":7049:7206   */\n    tag_369:\n        /* \"#utility.yul\":7154:7199   */\n      tag_371\n        /* \"#utility.yul\":7174:7198   */\n      tag_372\n        /* \"#utility.yul\":7192:7197   */\n      dup3\n        /* \"#utility.yul\":7174:7198   */\n      tag_368\n      jump\t// in\n    tag_372:\n        /* \"#utility.yul\":7154:7199   */\n      tag_373\n      jump\t// in\n    tag_371:\n        /* \"#utility.yul\":7149:7152   */\n      dup3\n        /* \"#utility.yul\":7142:7200   */\n      mstore\n        /* \"#utility.yul\":7049:7206   */\n      pop\n      pop\n      jump\t// out\n        /* \"#utility.yul\":7212:7324   */\n    tag_374:\n        /* \"#utility.yul\":7295:7317   */\n      tag_376\n        /* \"#utility.yul\":7311:7316   */\n      dup2\n        /* \"#utility.yul\":7295:7317   */\n      tag_377\n      jump\t// in\n    tag_376:\n        /* \"#utility.yul\":7290:7293   */\n      dup3\n        /* \"#utility.yul\":7283:7318   */\n      mstore\n        /* \"#utility.yul\":7212:7324   */\n      pop\n      pop\n      jump\t// out\n        /* \"#utility.yul\":7330:7868   */\n    tag_105:\n        /* \"#utility.yul\":7498:7501   */\n      0x00\n        /* \"#utility.yul\":7513:7588   */\n      tag_379\n        /* \"#utility.yul\":7584:7587   */\n      dup3\n        /* \"#utility.yul\":7575:7581   */\n      dup7\n        /* \"#utility.yul\":7513:7588   */\n      tag_369\n      jump\t// in\n    tag_379:\n        /* \"#utility.yul\":7613:7615   */\n      0x20\n        /* \"#utility.yul\":7608:7611   */\n      dup3\n        /* \"#utility.yul\":7604:7616   */\n      add\n        /* \"#utility.yul\":7597:7616   */\n      swap2\n      pop\n        /* \"#utility.yul\":7626:7701   */\n      tag_380\n        /* \"#utility.yul\":7697:7700   */\n      dup3\n        /* \"#utility.yul\":7688:7694   */\n      dup6\n        /* \"#utility.yul\":7626:7701   */\n      tag_306\n      jump\t// in\n    tag_380:\n        /* \"#utility.yul\":7726:7728   */\n      0x14\n        /* \"#utility.yul\":7721:7724   */\n      dup3\n        /* \"#utility.yul\":7717:7729   */\n      add\n        /* \"#utility.yul\":7710:7729   */\n      swap2\n      pop\n        /* \"#utility.yul\":7739:7814   */\n      tag_381\n        /* \"#utility.yul\":7810:7813   */\n      dup3\n        /* \"#utility.yul\":7801:7807   */\n      dup5\n        /* \"#utility.yul\":7739:7814   */\n      tag_369\n      jump\t// in\n    tag_381:\n        /* \"#utility.yul\":7839:7841   */\n      0x20\n        /* \"#utility.yul\":7834:7837   */\n      dup3\n        /* \"#utility.yul\":7830:7842   */\n      add\n        /* \"#utility.yul\":7823:7842   */\n      swap2\n      pop\n        /* \"#utility.yul\":7859:7862   */\n      dup2\n        /* \"#utility.yul\":7852:7862   */\n      swap1\n      pop\n        /* \"#utility.yul\":7330:7868   */\n      swap5\n      swap4\n      pop\n      pop\n      pop\n      pop\n      jump\t// out\n        /* \"#utility.yul\":7874:8096   */\n    tag_65:\n        /* \"#utility.yul\":7967:7971   */\n      0x00\n        /* \"#utility.yul\":8005:8007   */\n      0x20\n        /* \"#utility.yul\":7994:8003   */\n      dup3\n        /* \"#utility.yul\":7990:8008   */\n      add\n        /* \"#utility.yul\":7982:8008   */\n      swap1\n      pop\n        /* \"#utility.yul\":8018:8089   */\n      tag_383\n        /* \"#utility.yul\":8086:8087   */\n      0x00\n        /* \"#utility.yul\":8075:8084   */\n      dup4\n        /* \"#utility.yul\":8071:8088   */\n      add\n        /* \"#utility.yul\":8062:8068   */\n      dup5\n        /* \"#utility.yul\":8018:8089   */\n      tag_302\n      jump\t// in\n    tag_383:\n        /* \"#utility.yul\":7874:8096   */\n      swap3\n      swap2\n      pop\n      pop\n      jump\t// out\n        /* \"#utility.yul\":8102:8312   */\n    tag_31:\n        /* \"#utility.yul\":8189:8193   */\n      0x00\n        /* \"#utility.yul\":8227:8229   */\n      0x20\n        /* \"#utility.yul\":8216:8225   */\n      dup3\n        /* \"#utility.yul\":8212:8230   */\n      add\n        /* \"#utility.yul\":8204:8230   */\n      swap1\n      pop\n        /* \"#utility.yul\":8240:8305   */\n      tag_385\n        /* \"#utility.yul\":8302:8303   */\n      0x00\n        /* \"#utility.yul\":8291:8300   */\n      dup4\n        /* \"#utility.yul\":8287:8304   */\n      add\n        /* \"#utility.yul\":8278:8284   */\n      dup5\n        /* \"#utility.yul\":8240:8305   */\n      tag_311\n      jump\t// in\n    tag_385:\n        /* \"#utility.yul\":8102:8312   */\n      swap3\n      swap2\n      pop\n      pop\n      jump\t// out\n        /* \"#utility.yul\":8318:8631   */\n    tag_25:\n        /* \"#utility.yul\":8431:8435   */\n      0x00\n        /* \"#utility.yul\":8469:8471   */\n      0x20\n        /* \"#utility.yul\":8458:8467   */\n      dup3\n        /* \"#utility.yul\":8454:8472   */\n      add\n        /* \"#utility.yul\":8446:8472   */\n      swap1\n      pop\n        /* \"#utility.yul\":8518:8527   */\n      dup2\n        /* \"#utility.yul\":8512:8516   */\n      dup2\n        /* \"#utility.yul\":8508:8528   */\n      sub\n        /* \"#utility.yul\":8504:8505   */\n      0x00\n        /* \"#utility.yul\":8493:8502   */\n      dup4\n        /* \"#utility.yul\":8489:8506   */\n      add\n        /* \"#utility.yul\":8482:8529   */\n      mstore\n        /* \"#utility.yul\":8546:8624   */\n      tag_387\n        /* \"#utility.yul\":8619:8623   */\n      dup2\n        /* \"#utility.yul\":8610:8616   */\n      dup5\n        /* \"#utility.yul\":8546:8624   */\n      tag_315\n      jump\t// in\n    tag_387:\n        /* \"#utility.yul\":8538:8624   */\n      swap1\n      pop\n        /* \"#utility.yul\":8318:8631   */\n      swap3\n      swap2\n      pop\n      pop\n      jump\t// out\n        /* \"#utility.yul\":8637:9056   */\n    tag_231:\n        /* \"#utility.yul\":8803:8807   */\n      0x00\n        /* \"#utility.yul\":8841:8843   */\n      0x20\n        /* \"#utility.yul\":8830:8839   */\n      dup3\n        /* \"#utility.yul\":8826:8844   */\n      add\n        /* \"#utility.yul\":8818:8844   */\n      swap1\n      pop\n        /* \"#utility.yul\":8890:8899   */\n      dup2\n        /* \"#utility.yul\":8884:8888   */\n      dup2\n        /* \"#utility.yul\":8880:8900   */\n      sub\n        /* \"#utility.yul\":8876:8877   */\n      0x00\n        /* \"#utility.yul\":8865:8874   */\n      dup4\n        /* \"#utility.yul\":8861:8878   */\n      add\n        /* \"#utility.yul\":8854:8901   */\n      mstore\n        /* \"#utility.yul\":8918:9049   */\n      tag_389\n        /* \"#utility.yul\":9044:9048   */\n      dup2\n        /* \"#utility.yul\":8918:9049   */\n      tag_325\n      jump\t// in\n    tag_389:\n        /* \"#utility.yul\":8910:9049   */\n      swap1\n      pop\n        /* \"#utility.yul\":8637:9056   */\n      swap2\n      swap1\n      pop\n      jump\t// out\n        /* \"#utility.yul\":9062:9481   */\n    tag_216:\n        /* \"#utility.yul\":9228:9232   */\n      0x00\n        /* \"#utility.yul\":9266:9268   */\n      0x20\n        /* \"#utility.yul\":9255:9264   */\n      dup3\n        /* \"#utility.yul\":9251:9269   */\n      add\n        /* \"#utility.yul\":9243:9269   */\n      swap1\n      pop\n        /* \"#utility.yul\":9315:9324   */\n      dup2\n        /* \"#utility.yul\":9309:9313   */\n      dup2\n        /* \"#utility.yul\":9305:9325   */\n      sub\n        /* \"#utility.yul\":9301:9302   */\n      0x00\n        /* \"#utility.yul\":9290:9299   */\n      dup4\n        /* \"#utility.yul\":9286:9303   */\n      add\n        /* \"#utility.yul\":9279:9326   */\n      mstore\n        /* \"#utility.yul\":9343:9474   */\n      tag_391\n        /* \"#utility.yul\":9469:9473   */\n      dup2\n        /* \"#utility.yul\":9343:9474   */\n      tag_330\n      jump\t// in\n    tag_391:\n        /* \"#utility.yul\":9335:9474   */\n      swap1\n      pop\n        /* \"#utility.yul\":9062:9481   */\n      swap2\n      swap1\n      pop\n      jump\t// out\n        /* \"#utility.yul\":9487:9906   */\n    tag_223:\n        /* \"#utility.yul\":9653:9657   */\n      0x00\n        /* \"#utility.yul\":9691:9693   */\n      0x20\n        /* \"#utility.yul\":9680:9689   */\n      dup3\n        /* \"#utility.yul\":9676:9694   */\n      add\n        /* \"#utility.yul\":9668:9694   */\n      swap1\n      pop\n        /* \"#utility.yul\":9740:9749   */\n      dup2\n        /* \"#utility.yul\":9734:9738   */\n      dup2\n        /* \"#utility.yul\":9730:9750   */\n      sub\n        /* \"#utility.yul\":9726:9727   */\n      0x00\n        /* \"#utility.yul\":9715:9724   */\n      dup4\n        /* \"#utility.yul\":9711:9728   */\n      add\n        /* \"#utility.yul\":9704:9751   */\n      mstore\n        /* \"#utility.yul\":9768:9899   */\n      tag_393\n        /* \"#utility.yul\":9894:9898   */\n      dup2\n        /* \"#utility.yul\":9768:9899   */\n      tag_335\n      jump\t// in\n    tag_393:\n        /* \"#utility.yul\":9760:9899   */\n      swap1\n      pop\n        /* \"#utility.yul\":9487:9906   */\n      swap2\n      swap1\n      pop\n      jump\t// out\n        /* \"#utility.yul\":9912:10331   */\n    tag_236:\n        /* \"#utility.yul\":10078:10082   */\n      0x00\n        /* \"#utility.yul\":10116:10118   */\n      0x20\n        /* \"#utility.yul\":10105:10114   */\n      dup3\n        /* \"#utility.yul\":10101:10119   */\n      add\n        /* \"#utility.yul\":10093:10119   */\n      swap1\n      pop\n        /* \"#utility.yul\":10165:10174   */\n      dup2\n        /* \"#utility.yul\":10159:10163   */\n      dup2\n        /* \"#utility.yul\":10155:10175   */\n      sub\n        /* \"#utility.yul\":10151:10152   */\n      0x00\n        /* \"#utility.yul\":10140:10149   */\n      dup4\n        /* \"#utility.yul\":10136:10153   */\n      add\n        /* \"#utility.yul\":10129:10176   */\n      mstore\n        /* \"#utility.yul\":10193:10324   */\n      tag_395\n        /* \"#utility.yul\":10319:10323   */\n      dup2\n        /* \"#utility.yul\":10193:10324   */\n      tag_340\n      jump\t// in\n    tag_395:\n        /* \"#utility.yul\":10185:10324   */\n      swap1\n      pop\n        /* \"#utility.yul\":9912:10331   */\n      swap2\n      swap1\n      pop\n      jump\t// out\n        /* \"#utility.yul\":10337:10756   */\n    tag_228:\n        /* \"#utility.yul\":10503:10507   */\n      0x00\n        /* \"#utility.yul\":10541:10543   */\n      0x20\n        /* \"#utility.yul\":10530:10539   */\n      dup3\n        /* \"#utility.yul\":10526:10544   */\n      add\n        /* \"#utility.yul\":10518:10544   */\n      swap1\n      pop\n        /* \"#utility.yul\":10590:10599   */\n      dup2\n        /* \"#utility.yul\":10584:10588   */\n      dup2\n        /* \"#utility.yul\":10580:10600   */\n      sub\n        /* \"#utility.yul\":10576:10577   */\n      0x00\n        /* \"#utility.yul\":10565:10574   */\n      dup4\n        /* \"#utility.yul\":10561:10578   */\n      add\n        /* \"#utility.yul\":10554:10601   */\n      mstore\n        /* \"#utility.yul\":10618:10749   */\n      tag_397\n        /* \"#utility.yul\":10744:10748   */\n      dup2\n        /* \"#utility.yul\":10618:10749   */\n      tag_345\n      jump\t// in\n    tag_397:\n        /* \"#utility.yul\":10610:10749   */\n      swap1\n      pop\n        /* \"#utility.yul\":10337:10756   */\n      swap2\n      swap1\n      pop\n      jump\t// out\n        /* \"#utility.yul\":10762:11181   */\n    tag_213:\n        /* \"#utility.yul\":10928:10932   */\n      0x00\n        /* \"#utility.yul\":10966:10968   */\n      0x20\n        /* \"#utility.yul\":10955:10964   */\n      dup3\n        /* \"#utility.yul\":10951:10969   */\n      add\n        /* \"#utility.yul\":10943:10969   */\n      swap1\n      pop\n        /* \"#utility.yul\":11015:11024   */\n      dup2\n        /* \"#utility.yul\":11009:11013   */\n      dup2\n        /* \"#utility.yul\":11005:11025   */\n      sub\n        /* \"#utility.yul\":11001:11002   */\n      0x00\n        /* \"#utility.yul\":10990:10999   */\n      dup4\n        /* \"#utility.yul\":10986:11003   */\n      add\n        /* \"#utility.yul\":10979:11026   */\n      mstore\n        /* \"#utility.yul\":11043:11174   */\n      tag_399\n        /* \"#utility.yul\":11169:11173   */\n      dup2\n        /* \"#utility.yul\":11043:11174   */\n      tag_350\n      jump\t// in\n    tag_399:\n        /* \"#utility.yul\":11035:11174   */\n      swap1\n      pop\n        /* \"#utility.yul\":10762:11181   */\n      swap2\n      swap1\n      pop\n      jump\t// out\n        /* \"#utility.yul\":11187:11606   */\n    tag_204:\n        /* \"#utility.yul\":11353:11357   */\n      0x00\n        /* \"#utility.yul\":11391:11393   */\n      0x20\n        /* \"#utility.yul\":11380:11389   */\n      dup3\n        /* \"#utility.yul\":11376:11394   */\n      add\n        /* \"#utility.yul\":11368:11394   */\n      swap1\n      pop\n        /* \"#utility.yul\":11440:11449   */\n      dup2\n        /* \"#utility.yul\":11434:11438   */\n      dup2\n        /* \"#utility.yul\":11430:11450   */\n      sub\n        /* \"#utility.yul\":11426:11427   */\n      0x00\n        /* \"#utility.yul\":11415:11424   */\n      dup4\n        /* \"#utility.yul\":11411:11428   */\n      add\n        /* \"#utility.yul\":11404:11451   */\n      mstore\n        /* \"#utility.yul\":11468:11599   */\n      tag_401\n        /* \"#utility.yul\":11594:11598   */\n      dup2\n        /* \"#utility.yul\":11468:11599   */\n      tag_355\n      jump\t// in\n    tag_401:\n        /* \"#utility.yul\":11460:11599   */\n      swap1\n      pop\n        /* \"#utility.yul\":11187:11606   */\n      swap2\n      swap1\n      pop\n      jump\t// out\n        /* \"#utility.yul\":11612:12031   */\n    tag_244:\n        /* \"#utility.yul\":11778:11782   */\n      0x00\n        /* \"#utility.yul\":11816:11818   */\n      0x20\n        /* \"#utility.yul\":11805:11814   */\n      dup3\n        /* \"#utility.yul\":11801:11819   */\n      add\n        /* \"#utility.yul\":11793:11819   */\n      swap1\n      pop\n        /* \"#utility.yul\":11865:11874   */\n      dup2\n        /* \"#utility.yul\":11859:11863   */\n      dup2\n        /* \"#utility.yul\":11855:11875   */\n      sub\n        /* \"#utility.yul\":11851:11852   */\n      0x00\n        /* \"#utility.yul\":11840:11849   */\n      dup4\n        /* \"#utility.yul\":11836:11853   */\n      add\n        /* \"#utility.yul\":11829:11876   */\n      mstore\n        /* \"#utility.yul\":11893:12024   */\n      tag_403\n        /* \"#utility.yul\":12019:12023   */\n      dup2\n        /* \"#utility.yul\":11893:12024   */\n      tag_360\n      jump\t// in\n    tag_403:\n        /* \"#utility.yul\":11885:12024   */\n      swap1\n      pop\n        /* \"#utility.yul\":11612:12031   */\n      swap2\n      swap1\n      pop\n      jump\t// out\n        /* \"#utility.yul\":12037:12259   */\n    tag_35:\n        /* \"#utility.yul\":12130:12134   */\n      0x00\n        /* \"#utility.yul\":12168:12170   */\n      0x20\n        /* \"#utility.yul\":12157:12166   */\n      dup3\n        /* \"#utility.yul\":12153:12171   */\n      add\n        /* \"#utility.yul\":12145:12171   */\n      swap1\n      pop\n        /* \"#utility.yul\":12181:12252   */\n      tag_405\n        /* \"#utility.yul\":12249:12250   */\n      0x00\n        /* \"#utility.yul\":12238:12247   */\n      dup4\n        /* \"#utility.yul\":12234:12251   */\n      add\n        /* \"#utility.yul\":12225:12231   */\n      dup5\n        /* \"#utility.yul\":12181:12252   */\n      tag_365\n      jump\t// in\n    tag_405:\n        /* \"#utility.yul\":12037:12259   */\n      swap3\n      swap2\n      pop\n      pop\n      jump\t// out\n        /* \"#utility.yul\":12265:12479   */\n    tag_49:\n        /* \"#utility.yul\":12354:12358   */\n      0x00\n        /* \"#utility.yul\":12392:12394   */\n      0x20\n        /* \"#utility.yul\":12381:12390   */\n      dup3\n        /* \"#utility.yul\":12377:12395   */\n      add\n        /* \"#utility.yul\":12369:12395   */\n      swap1\n      pop\n        /* \"#utility.yul\":12405:12472   */\n      tag_407\n        /* \"#utility.yul\":12469:12470   */\n      0x00\n        /* \"#utility.yul\":12458:12467   */\n      dup4\n        /* \"#utility.yul\":12454:12471   */\n      add\n        /* \"#utility.yul\":12445:12451   */\n      dup5\n        /* \"#utility.yul\":12405:12472   */\n      tag_374\n      jump\t// in\n    tag_407:\n        /* \"#utility.yul\":12265:12479   */\n      swap3\n      swap2\n      pop\n      pop\n      jump\t// out\n        /* \"#utility.yul\":12566:12665   */\n    tag_318:\n        /* \"#utility.yul\":12618:12624   */\n      0x00\n        /* \"#utility.yul\":12652:12657   */\n      dup2\n        /* \"#utility.yul\":12646:12658   */\n      mload\n        /* \"#utility.yul\":12636:12658   */\n      swap1\n      pop\n        /* \"#utility.yul\":12566:12665   */\n      swap2\n      swap1\n      pop\n      jump\t// out\n        /* \"#utility.yul\":12671:12840   */\n    tag_320:\n        /* \"#utility.yul\":12755:12766   */\n      0x00\n        /* \"#utility.yul\":12789:12795   */\n      dup3\n        /* \"#utility.yul\":12784:12787   */\n      dup3\n        /* \"#utility.yul\":12777:12796   */\n      mstore\n        /* \"#utility.yul\":12829:12833   */\n      0x20\n        /* \"#utility.yul\":12824:12827   */\n      dup3\n        /* \"#utility.yul\":12820:12834   */\n      add\n        /* \"#utility.yul\":12805:12834   */\n      swap1\n      pop\n        /* \"#utility.yul\":12671:12840   */\n      swap3\n      swap2\n      pop\n      pop\n      jump\t// out\n        /* \"#utility.yul\":12846:13151   */\n    tag_126:\n        /* \"#utility.yul\":12886:12889   */\n      0x00\n        /* \"#utility.yul\":12905:12925   */\n      tag_413\n        /* \"#utility.yul\":12923:12924   */\n      dup3\n        /* \"#utility.yul\":12905:12925   */\n      tag_368\n      jump\t// in\n    tag_413:\n        /* \"#utility.yul\":12900:12925   */\n      swap2\n      pop\n        /* \"#utility.yul\":12939:12959   */\n      tag_414\n        /* \"#utility.yul\":12957:12958   */\n      dup4\n        /* \"#utility.yul\":12939:12959   */\n      tag_368\n      jump\t// in\n    tag_414:\n        /* \"#utility.yul\":12934:12959   */\n      swap3\n      pop\n        /* \"#utility.yul\":13093:13094   */\n      dup3\n        /* \"#utility.yul\":13025:13091   */\n      0xffffffffffffffffffffffffffffffffffffffffffffffffffffffffffffffff\n        /* \"#utility.yul\":13021:13095   */\n      sub\n        /* \"#utility.yul\":13018:13019   */\n      dup3\n        /* \"#utility.yul\":13015:13096   */\n      gt\n        /* \"#utility.yul\":13012:13119   */\n      iszero\n      tag_415\n      jumpi\n        /* \"#utility.yul\":13099:13117   */\n      tag_416\n      tag_417\n      jump\t// in\n    tag_416:\n        /* \"#utility.yul\":13012:13119   */\n    tag_415:\n        /* \"#utility.yul\":13143:13144   */\n      dup3\n        /* \"#utility.yul\":13140:13141   */\n      dup3\n        /* \"#utility.yul\":13136:13145   */\n      add\n        /* \"#utility.yul\":13129:13145   */\n      swap1\n      pop\n        /* \"#utility.yul\":12846:13151   */\n      swap3\n      swap2\n      pop\n      pop\n      jump\t// out\n        /* \"#utility.yul\":13157:14005   */\n    tag_418:\n        /* \"#utility.yul\":13218:13223   */\n      0x00\n        /* \"#utility.yul\":13225:13229   */\n      dup1\n        /* \"#utility.yul\":13249:13255   */\n      dup3\n        /* \"#utility.yul\":13240:13255   */\n      swap2\n      pop\n        /* \"#utility.yul\":13273:13278   */\n      dup4\n        /* \"#utility.yul\":13264:13278   */\n      swap1\n      pop\n        /* \"#utility.yul\":13287:13999   */\n    tag_420:\n        /* \"#utility.yul\":13308:13309   */\n      0x01\n        /* \"#utility.yul\":13298:13306   */\n      dup6\n        /* \"#utility.yul\":13295:13310   */\n      gt\n        /* \"#utility.yul\":13287:13999   */\n      iszero\n      tag_422\n      jumpi\n        /* \"#utility.yul\":13403:13407   */\n      dup1\n        /* \"#utility.yul\":13398:13401   */\n      dup7\n        /* \"#utility.yul\":13394:13408   */\n      div\n        /* \"#utility.yul\":13388:13392   */\n      dup2\n        /* \"#utility.yul\":13385:13409   */\n      gt\n        /* \"#utility.yul\":13382:13432   */\n      iszero\n      tag_423\n      jumpi\n        /* \"#utility.yul\":13412:13430   */\n      tag_424\n      tag_417\n      jump\t// in\n    tag_424:\n        /* \"#utility.yul\":13382:13432   */\n    tag_423:\n        /* \"#utility.yul\":13462:13463   */\n      0x01\n        /* \"#utility.yul\":13452:13460   */\n      dup6\n        /* \"#utility.yul\":13448:13464   */\n      and\n        /* \"#utility.yul\":13445:13896   */\n      iszero\n      tag_425\n      jumpi\n        /* \"#utility.yul\":13877:13881   */\n      dup1\n        /* \"#utility.yul\":13870:13875   */\n      dup3\n        /* \"#utility.yul\":13866:13882   */\n      mul\n        /* \"#utility.yul\":13857:13882   */\n      swap2\n      pop\n        /* \"#utility.yul\":13445:13896   */\n    tag_425:\n        /* \"#utility.yul\":13927:13931   */\n      dup1\n        /* \"#utility.yul\":13921:13925   */\n      dup2\n        /* \"#utility.yul\":13917:13932   */\n      mul\n        /* \"#utility.yul\":13909:13932   */\n      swap1\n      pop\n        /* \"#utility.yul\":13957:13989   */\n      tag_426\n        /* \"#utility.yul\":13980:13988   */\n      dup6\n        /* \"#utility.yul\":13957:13989   */\n      tag_427\n      jump\t// in\n    tag_426:\n        /* \"#utility.yul\":13945:13989   */\n      swap5\n      pop\n        /* \"#utility.yul\":13287:13999   */\n      jump(tag_420)\n    tag_422:\n        /* \"#utility.yul\":13157:14005   */\n      swap5\n      pop\n      swap5\n      swap3\n      pop\n      pop\n      pop\n      jump\t// out\n        /* \"#utility.yul\":14011:14292   */\n    tag_144:\n        /* \"#utility.yul\":14069:14074   */\n      0x00\n        /* \"#utility.yul\":14093:14116   */\n      tag_429\n        /* \"#utility.yul\":14111:14115   */\n      dup3\n        /* \"#utility.yul\":14093:14116   */\n      tag_368\n      jump\t// in\n    tag_429:\n        /* \"#utility.yul\":14085:14116   */\n      swap2\n      pop\n        /* \"#utility.yul\":14137:14162   */\n      tag_430\n        /* \"#utility.yul\":14153:14161   */\n      dup4\n        /* \"#utility.yul\":14137:14162   */\n      tag_377\n      jump\t// in\n    tag_430:\n        /* \"#utility.yul\":14125:14162   */\n      swap3\n      pop\n        /* \"#utility.yul\":14181:14285   */\n      tag_431\n        /* \"#utility.yul\":14218:14284   */\n      0xffffffffffffffffffffffffffffffffffffffffffffffffffffffffffffffff\n        /* \"#utility.yul\":14208:14216   */\n      dup5\n        /* \"#utility.yul\":14202:14206   */\n      dup5\n        /* \"#utility.yul\":14181:14285   */\n      tag_432\n      jump\t// in\n    tag_431:\n        /* \"#utility.yul\":14172:14285   */\n      swap1\n      pop\n        /* \"#utility.yul\":14011:14292   */\n      swap3\n      swap2\n      pop\n      pop\n      jump\t// out\n        /* \"#utility.yul\":14298:15371   */\n    tag_432:\n        /* \"#utility.yul\":14352:14357   */\n      0x00\n        /* \"#utility.yul\":14543:14551   */\n      dup3\n        /* \"#utility.yul\":14533:14573   */\n      tag_434\n      jumpi\n        /* \"#utility.yul\":14564:14565   */\n      0x01\n        /* \"#utility.yul\":14555:14565   */\n      swap1\n      pop\n        /* \"#utility.yul\":14566:14571   */\n      jump(tag_433)\n        /* \"#utility.yul\":14533:14573   */\n    tag_434:\n        /* \"#utility.yul\":14592:14596   */\n      dup2\n        /* \"#utility.yul\":14582:14618   */\n      tag_435\n      jumpi\n        /* \"#utility.yul\":14609:14610   */\n      0x00\n        /* \"#utility.yul\":14600:14610   */\n      swap1\n      pop\n        /* \"#utility.yul\":14611:14616   */\n      jump(tag_433)\n        /* \"#utility.yul\":14582:14618   */\n    tag_435:\n        /* \"#utility.yul\":14678:14682   */\n      dup2\n        /* \"#utility.yul\":14726:14727   */\n      0x01\n        /* \"#utility.yul\":14721:14748   */\n      dup2\n      eq\n      tag_437\n      jumpi\n        /* \"#utility.yul\":14762:14763   */\n      0x02\n        /* \"#utility.yul\":14757:14948   */\n      dup2\n      eq\n      tag_438\n      jumpi\n        /* \"#utility.yul\":14671:14948   */\n      jump(tag_436)\n        /* \"#utility.yul\":14721:14748   */\n    tag_437:\n        /* \"#utility.yul\":14739:14740   */\n      0x01\n        /* \"#utility.yul\":14730:14740   */\n      swap2\n      pop\n        /* \"#utility.yul\":14741:14746   */\n      pop\n      jump(tag_433)\n        /* \"#utility.yul\":14757:14948   */\n    tag_438:\n        /* \"#utility.yul\":14802:14805   */\n      0xff\n        /* \"#utility.yul\":14792:14800   */\n      dup5\n        /* \"#utility.yul\":14789:14806   */\n      gt\n        /* \"#utility.yul\":14786:14829   */\n      iszero\n      tag_439\n      jumpi\n        /* \"#utility.yul\":14809:14827   */\n      tag_440\n      tag_417\n      jump\t// in\n    tag_440:\n        /* \"#utility.yul\":14786:14829   */\n    tag_439:\n        /* \"#utility.yul\":14858:14866   */\n      dup4\n        /* \"#utility.yul\":14855:14856   */\n      0x02\n        /* \"#utility.yul\":14851:14867   */\n      exp\n        /* \"#utility.yul\":14842:14867   */\n      swap2\n      pop\n        /* \"#utility.yul\":14893:14896   */\n      dup5\n        /* \"#utility.yul\":14886:14891   */\n      dup3\n        /* \"#utility.yul\":14883:14897   */\n      gt\n        /* \"#utility.yul\":14880:14920   */\n      iszero\n      tag_441\n      jumpi\n        /* \"#utility.yul\":14900:14918   */\n      tag_442\n      tag_417\n      jump\t// in\n    tag_442:\n        /* \"#utility.yul\":14880:14920   */\n    tag_441:\n        /* \"#utility.yul\":14933:14938   */\n      pop\n      jump(tag_433)\n        /* \"#utility.yul\":14671:14948   */\n    tag_436:\n      pop\n        /* \"#utility.yul\":15057:15059   */\n      0x20\n        /* \"#utility.yul\":15047:15055   */\n      dup4\n        /* \"#utility.yul\":15044:15060   */\n      lt\n        /* \"#utility.yul\":15038:15041   */\n      0x0133\n        /* \"#utility.yul\":15032:15036   */\n      dup4\n        /* \"#utility.yul\":15029:15042   */\n      lt\n        /* \"#utility.yul\":15025:15061   */\n      and\n        /* \"#utility.yul\":15007:15009   */\n      0x4e\n        /* \"#utility.yul\":14997:15005   */\n      dup5\n        /* \"#utility.yul\":14994:15010   */\n      lt\n        /* \"#utility.yul\":14989:14991   */\n      0x0b\n        /* \"#utility.yul\":14983:14987   */\n      dup5\n        /* \"#utility.yul\":14980:14992   */\n      lt\n        /* \"#utility.yul\":14976:15011   */\n      and\n        /* \"#utility.yul\":14960:15071   */\n      or\n        /* \"#utility.yul\":14957:15203   */\n      iszero\n      tag_443\n      jumpi\n        /* \"#utility.yul\":15113:15121   */\n      dup3\n        /* \"#utility.yul\":15107:15111   */\n      dup3\n        /* \"#utility.yul\":15103:15122   */\n      exp\n        /* \"#utility.yul\":15094:15122   */\n      swap1\n      pop\n        /* \"#utility.yul\":15148:15151   */\n      dup4\n        /* \"#utility.yul\":15141:15146   */\n      dup2\n        /* \"#utility.yul\":15138:15152   */\n      gt\n        /* \"#utility.yul\":15135:15175   */\n      iszero\n      tag_444\n      jumpi\n        /* \"#utility.yul\":15155:15173   */\n      tag_445\n      tag_417\n      jump\t// in\n    tag_445:\n        /* \"#utility.yul\":15135:15175   */\n    tag_444:\n        /* \"#utility.yul\":15188:15193   */\n      jump(tag_433)\n        /* \"#utility.yul\":14957:15203   */\n    tag_443:\n        /* \"#utility.yul\":15228:15270   */\n      tag_446\n        /* \"#utility.yul\":15266:15269   */\n      dup5\n        /* \"#utility.yul\":15256:15264   */\n      dup5\n        /* \"#utility.yul\":15250:15254   */\n      dup5\n        /* \"#utility.yul\":15247:15248   */\n      0x01\n        /* \"#utility.yul\":15228:15270   */\n      tag_418\n      jump\t// in\n    tag_446:\n        /* \"#utility.yul\":15213:15270   */\n      swap3\n      pop\n      swap1\n      pop\n        /* \"#utility.yul\":15302:15306   */\n      dup2\n        /* \"#utility.yul\":15297:15300   */\n      dup5\n        /* \"#utility.yul\":15293:15307   */\n      div\n        /* \"#utility.yul\":15286:15291   */\n      dup2\n        /* \"#utility.yul\":15283:15308   */\n      gt\n        /* \"#utility.yul\":15280:15331   */\n      iszero\n      tag_447\n      jumpi\n        /* \"#utility.yul\":15311:15329   */\n      tag_448\n      tag_417\n      jump\t// in\n    tag_448:\n        /* \"#utility.yul\":15280:15331   */\n    tag_447:\n        /* \"#utility.yul\":15360:15364   */\n      dup2\n        /* \"#utility.yul\":15353:15358   */\n      dup2\n        /* \"#utility.yul\":15349:15365   */\n      mul\n        /* \"#utility.yul\":15340:15365   */\n      swap1\n      pop\n        /* \"#utility.yul\":14298:15371   */\n    tag_433:\n      swap4\n      swap3\n      pop\n      pop\n      pop\n      jump\t// out\n        /* \"#utility.yul\":15377:15725   */\n    tag_146:\n        /* \"#utility.yul\":15417:15424   */\n      0x00\n        /* \"#utility.yul\":15440:15460   */\n      tag_450\n        /* \"#utility.yul\":15458:15459   */\n      dup3\n        /* \"#utility.yul\":15440:15460   */\n      tag_368\n      jump\t// in\n    tag_450:\n        /* \"#utility.yul\":15435:15460   */\n      swap2\n      pop\n        /* \"#utility.yul\":15474:15494   */\n      tag_451\n        /* \"#utility.yul\":15492:15493   */\n      dup4\n        /* \"#utility.yul\":15474:15494   */\n      tag_368\n      jump\t// in\n    tag_451:\n        /* \"#utility.yul\":15469:15494   */\n      swap3\n      pop\n        /* \"#utility.yul\":15662:15663   */\n      dup2\n        /* \"#utility.yul\":15594:15660   */\n      0xffffffffffffffffffffffffffffffffffffffffffffffffffffffffffffffff\n        /* \"#utility.yul\":15590:15664   */\n      div\n        /* \"#utility.yul\":15587:15588   */\n      dup4\n        /* \"#utility.yul\":15584:15665   */\n      gt\n        /* \"#utility.yul\":15579:15580   */\n      dup3\n        /* \"#utility.yul\":15572:15581   */\n      iszero\n        /* \"#utility.yul\":15565:15582   */\n      iszero\n        /* \"#utility.yul\":15561:15666   */\n      and\n        /* \"#utility.yul\":15558:15689   */\n      iszero\n      tag_452\n      jumpi\n        /* \"#utility.yul\":15669:15687   */\n      tag_453\n      tag_417\n      jump\t// in\n    tag_453:\n        /* \"#utility.yul\":15558:15689   */\n    tag_452:\n        /* \"#utility.yul\":15717:15718   */\n      dup3\n        /* \"#utility.yul\":15714:15715   */\n      dup3\n        /* \"#utility.yul\":15710:15719   */\n      mul\n        /* \"#utility.yul\":15699:15719   */\n      swap1\n      pop\n        /* \"#utility.yul\":15377:15725   */\n      swap3\n      swap2\n      pop\n      pop\n      jump\t// out\n        /* \"#utility.yul\":15731:15827   */\n    tag_305:\n        /* \"#utility.yul\":15768:15775   */\n      0x00\n        /* \"#utility.yul\":15797:15821   */\n      tag_455\n        /* \"#utility.yul\":15815:15820   */\n      dup3\n        /* \"#utility.yul\":15797:15821   */\n      tag_456\n      jump\t// in\n    tag_455:\n        /* \"#utility.yul\":15786:15821   */\n      swap1\n      pop\n        /* \"#utility.yul\":15731:15827   */\n      swap2\n      swap1\n      pop\n      jump\t// out\n        /* \"#utility.yul\":15833:15923   */\n    tag_314:\n        /* \"#utility.yul\":15867:15874   */\n      0x00\n        /* \"#utility.yul\":15910:15915   */\n      dup2\n        /* \"#utility.yul\":15903:15916   */\n      iszero\n        /* \"#utility.yul\":15896:15917   */\n      iszero\n        /* \"#utility.yul\":15885:15917   */\n      swap1\n      pop\n        /* \"#utility.yul\":15833:15923   */\n      swap2\n      swap1\n      pop\n      jump\t// out\n        /* \"#utility.yul\":15929:16055   */\n    tag_456:\n        /* \"#utility.yul\":15966:15973   */\n      0x00\n        /* \"#utility.yul\":16006:16048   */\n      0xffffffffffffffffffffffffffffffffffffffff\n        /* \"#utility.yul\":15999:16004   */\n      dup3\n        /* \"#utility.yul\":15995:16049   */\n      and\n        /* \"#utility.yul\":15984:16049   */\n      swap1\n      pop\n        /* \"#utility.yul\":15929:16055   */\n      swap2\n      swap1\n      pop\n      jump\t// out\n        /* \"#utility.yul\":16061:16138   */\n    tag_368:\n        /* \"#utility.yul\":16098:16105   */\n      0x00\n        /* \"#utility.yul\":16127:16132   */\n      dup2\n        /* \"#utility.yul\":16116:16132   */\n      swap1\n      pop\n        /* \"#utility.yul\":16061:16138   */\n      swap2\n      swap1\n      pop\n      jump\t// out\n        /* \"#utility.yul\":16144:16230   */\n    tag_377:\n        /* \"#utility.yul\":16179:16186   */\n      0x00\n        /* \"#utility.yul\":16219:16223   */\n      0xff\n        /* \"#utility.yul\":16212:16217   */\n      dup3\n        /* \"#utility.yul\":16208:16224   */\n      and\n        /* \"#utility.yul\":16197:16224   */\n      swap1\n      pop\n        /* \"#utility.yul\":16144:16230   */\n      swap2\n      swap1\n      pop\n      jump\t// out\n        /* \"#utility.yul\":16236:16543   */\n    tag_322:\n        /* \"#utility.yul\":16304:16305   */\n      0x00\n        /* \"#utility.yul\":16314:16427   */\n    tag_462:\n        /* \"#utility.yul\":16328:16334   */\n      dup4\n        /* \"#utility.yul\":16325:16326   */\n      dup2\n        /* \"#utility.yul\":16322:16335   */\n      lt\n        /* \"#utility.yul\":16314:16427   */\n      iszero\n      tag_464\n      jumpi\n        /* \"#utility.yul\":16413:16414   */\n      dup1\n        /* \"#utility.yul\":16408:16411   */\n      dup3\n        /* \"#utility.yul\":16404:16415   */\n      add\n        /* \"#utility.yul\":16398:16416   */\n      mload\n        /* \"#utility.yul\":16394:16395   */\n      dup2\n        /* \"#utility.yul\":16389:16392   */\n      dup5\n        /* \"#utility.yul\":16385:16396   */\n      add\n        /* \"#utility.yul\":16378:16417   */\n      mstore\n        /* \"#utility.yul\":16350:16352   */\n      0x20\n        /* \"#utility.yul\":16347:16348   */\n      dup2\n        /* \"#utility.yul\":16343:16353   */\n      add\n        /* \"#utility.yul\":16338:16353   */\n      swap1\n      pop\n        /* \"#utility.yul\":16314:16427   */\n      jump(tag_462)\n    tag_464:\n        /* \"#utility.yul\":16445:16451   */\n      dup4\n        /* \"#utility.yul\":16442:16443   */\n      dup2\n        /* \"#utility.yul\":16439:16452   */\n      gt\n        /* \"#utility.yul\":16436:16537   */\n      iszero\n      tag_465\n      jumpi\n        /* \"#utility.yul\":16525:16526   */\n      0x00\n        /* \"#utility.yul\":16516:16522   */\n      dup5\n        /* \"#utility.yul\":16511:16514   */\n      dup5\n        /* \"#utility.yul\":16507:16523   */\n      add\n        /* \"#utility.yul\":16500:16527   */\n      mstore\n        /* \"#utility.yul\":16436:16537   */\n    tag_465:\n        /* \"#utility.yul\":16285:16543   */\n      pop\n        /* \"#utility.yul\":16236:16543   */\n      pop\n      pop\n      pop\n      jump\t// out\n        /* \"#utility.yul\":16549:16869   */\n    tag_92:\n        /* \"#utility.yul\":16593:16599   */\n      0x00\n        /* \"#utility.yul\":16630:16631   */\n      0x02\n        /* \"#utility.yul\":16624:16628   */\n      dup3\n        /* \"#utility.yul\":16620:16632   */\n      div\n        /* \"#utility.yul\":16610:16632   */\n      swap1\n      pop\n        /* \"#utility.yul\":16677:16678   */\n      0x01\n        /* \"#utility.yul\":16671:16675   */\n      dup3\n        /* \"#utility.yul\":16667:16679   */\n      and\n        /* \"#utility.yul\":16698:16716   */\n      dup1\n        /* \"#utility.yul\":16688:16769   */\n      tag_467\n      jumpi\n        /* \"#utility.yul\":16754:16758   */\n      0x7f\n        /* \"#utility.yul\":16746:16752   */\n      dup3\n        /* \"#utility.yul\":16742:16759   */\n      and\n        /* \"#utility.yul\":16732:16759   */\n      swap2\n      pop\n        /* \"#utility.yul\":16688:16769   */\n    tag_467:\n        /* \"#utility.yul\":16816:16818   */\n      0x20\n        /* \"#utility.yul\":16808:16814   */\n      dup3\n        /* \"#utility.yul\":16805:16819   */\n      lt\n        /* \"#utility.yul\":16785:16803   */\n      dup2\n        /* \"#utility.yul\":16782:16820   */\n      eq\n        /* \"#utility.yul\":16779:16863   */\n      iszero\n      tag_468\n      jumpi\n        /* \"#utility.yul\":16835:16853   */\n      tag_469\n      tag_470\n      jump\t// in\n    tag_469:\n        /* \"#utility.yul\":16779:16863   */\n    tag_468:\n        /* \"#utility.yul\":16600:16869   */\n      pop\n        /* \"#utility.yul\":16549:16869   */\n      swap2\n      swap1\n      pop\n      jump\t// out\n        /* \"#utility.yul\":16875:17108   */\n    tag_157:\n        /* \"#utility.yul\":16914:16917   */\n      0x00\n        /* \"#utility.yul\":16937:16961   */\n      tag_472\n        /* \"#utility.yul\":16955:16960   */\n      dup3\n        /* \"#utility.yul\":16937:16961   */\n      tag_368\n      jump\t// in\n    tag_472:\n        /* \"#utility.yul\":16928:16961   */\n      swap2\n      pop\n        /* \"#utility.yul\":16983:17049   */\n      0xffffffffffffffffffffffffffffffffffffffffffffffffffffffffffffffff\n        /* \"#utility.yul\":16976:16981   */\n      dup3\n        /* \"#utility.yul\":16973:17050   */\n      eq\n        /* \"#utility.yul\":16970:17073   */\n      iszero\n      tag_473\n      jumpi\n        /* \"#utility.yul\":17053:17071   */\n      tag_474\n      tag_417\n      jump\t// in\n    tag_474:\n        /* \"#utility.yul\":16970:17073   */\n    tag_473:\n        /* \"#utility.yul\":17100:17101   */\n      0x01\n        /* \"#utility.yul\":17093:17098   */\n      dup3\n        /* \"#utility.yul\":17089:17102   */\n      add\n        /* \"#utility.yul\":17082:17102   */\n      swap1\n      pop\n        /* \"#utility.yul\":16875:17108   */\n      swap2\n      swap1\n      pop\n      jump\t// out\n        /* \"#utility.yul\":17114:17214   */\n    tag_310:\n        /* \"#utility.yul\":17153:17160   */\n      0x00\n        /* \"#utility.yul\":17182:17208   */\n      tag_476\n        /* \"#utility.yul\":17202:17207   */\n      dup3\n        /* \"#utility.yul\":17182:17208   */\n      tag_477\n      jump\t// in\n    tag_476:\n        /* \"#utility.yul\":17171:17208   */\n      swap1\n      pop\n        /* \"#utility.yul\":17114:17214   */\n      swap2\n      swap1\n      pop\n      jump\t// out\n        /* \"#utility.yul\":17220:17314   */\n    tag_477:\n        /* \"#utility.yul\":17259:17266   */\n      0x00\n        /* \"#utility.yul\":17288:17308   */\n      tag_479\n        /* \"#utility.yul\":17302:17307   */\n      dup3\n        /* \"#utility.yul\":17288:17308   */\n      tag_480\n      jump\t// in\n    tag_479:\n        /* \"#utility.yul\":17277:17308   */\n      swap1\n      pop\n        /* \"#utility.yul\":17220:17314   */\n      swap2\n      swap1\n      pop\n      jump\t// out\n        /* \"#utility.yul\":17320:17399   */\n    tag_373:\n        /* \"#utility.yul\":17359:17366   */\n      0x00\n        /* \"#utility.yul\":17388:17393   */\n      dup2\n        /* \"#utility.yul\":17377:17393   */\n      swap1\n      pop\n        /* \"#utility.yul\":17320:17399   */\n      swap2\n      swap1\n      pop\n      jump\t// out\n        /* \"#utility.yul\":17405:17581   */\n    tag_107:\n        /* \"#utility.yul\":17437:17438   */\n      0x00\n        /* \"#utility.yul\":17454:17474   */\n      tag_483\n        /* \"#utility.yul\":17472:17473   */\n      dup3\n        /* \"#utility.yul\":17454:17474   */\n      tag_368\n      jump\t// in\n    tag_483:\n        /* \"#utility.yul\":17449:17474   */\n      swap2\n      pop\n        /* \"#utility.yul\":17488:17508   */\n      tag_484\n        /* \"#utility.yul\":17506:17507   */\n      dup4\n        /* \"#utility.yul\":17488:17508   */\n      tag_368\n      jump\t// in\n    tag_484:\n        /* \"#utility.yul\":17483:17508   */\n      swap3\n      pop\n        /* \"#utility.yul\":17527:17528   */\n      dup3\n        /* \"#utility.yul\":17517:17552   */\n      tag_485\n      jumpi\n        /* \"#utility.yul\":17532:17550   */\n      tag_486\n      tag_487\n      jump\t// in\n    tag_486:\n        /* \"#utility.yul\":17517:17552   */\n    tag_485:\n        /* \"#utility.yul\":17573:17574   */\n      dup3\n        /* \"#utility.yul\":17570:17571   */\n      dup3\n        /* \"#utility.yul\":17566:17575   */\n      mod\n        /* \"#utility.yul\":17561:17575   */\n      swap1\n      pop\n        /* \"#utility.yul\":17405:17581   */\n      swap3\n      swap2\n      pop\n      pop\n      jump\t// out\n        /* \"#utility.yul\":17587:17767   */\n    tag_417:\n        /* \"#utility.yul\":17635:17712   */\n      0x4e487b7100000000000000000000000000000000000000000000000000000000\n        /* \"#utility.yul\":17632:17633   */\n      0x00\n        /* \"#utility.yul\":17625:17713   */\n      mstore\n        /* \"#utility.yul\":17732:17736   */\n      0x11\n        /* \"#utility.yul\":17729:17730   */\n      0x04\n        /* \"#utility.yul\":17722:17737   */\n      mstore\n        /* \"#utility.yul\":17756:17760   */\n      0x24\n        /* \"#utility.yul\":17753:17754   */\n      0x00\n        /* \"#utility.yul\":17746:17761   */\n      revert\n        /* \"#utility.yul\":17773:17953   */\n    tag_487:\n        /* \"#utility.yul\":17821:17898   */\n      0x4e487b7100000000000000000000000000000000000000000000000000000000\n        /* \"#utility.yul\":17818:17819   */\n      0x00\n        /* \"#utility.yul\":17811:17899   */\n      mstore\n        /* \"#utility.yul\":17918:17922   */\n      0x12\n        /* \"#utility.yul\":17915:17916   */\n      0x04\n        /* \"#utility.yul\":17908:17923   */\n      mstore\n        /* \"#utility.yul\":17942:17946   */\n      0x24\n        /* \"#utility.yul\":17939:17940   */\n      0x00\n        /* \"#utility.yul\":17932:17947   */\n      revert\n        /* \"#utility.yul\":17959:18139   */\n    tag_470:\n        /* \"#utility.yul\":18007:18084   */\n      0x4e487b7100000000000000000000000000000000000000000000000000000000\n        /* \"#utility.yul\":18004:18005   */\n      0x00\n        /* \"#utility.yul\":17997:18085   */\n      mstore\n        /* \"#utility.yul\":18104:18108   */\n      0x22\n        /* \"#utility.yul\":18101:18102   */\n      0x04\n        /* \"#utility.yul\":18094:18109   */\n      mstore\n        /* \"#utility.yul\":18128:18132   */\n      0x24\n        /* \"#utility.yul\":18125:18126   */\n      0x00\n        /* \"#utility.yul\":18118:18133   */\n      revert\n        /* \"#utility.yul\":18268:18385   */\n    tag_274:\n        /* \"#utility.yul\":18377:18378   */\n      0x00\n        /* \"#utility.yul\":18374:18375   */\n      dup1\n        /* \"#utility.yul\":18367:18379   */\n      revert\n        /* \"#utility.yul\":18391:18493   */\n    tag_324:\n        /* \"#utility.yul\":18432:18438   */\n      0x00\n        /* \"#utility.yul\":18483:18485   */\n      0x1f\n        /* \"#utility.yul\":18479:18486   */\n      not\n        /* \"#utility.yul\":18474:18476   */\n      0x1f\n        /* \"#utility.yul\":18467:18472   */\n      dup4\n        /* \"#utility.yul\":18463:18477   */\n      add\n        /* \"#utility.yul\":18459:18487   */\n      and\n        /* \"#utility.yul\":18449:18487   */\n      swap1\n      pop\n        /* \"#utility.yul\":18391:18493   */\n      swap2\n      swap1\n      pop\n      jump\t// out\n        /* \"#utility.yul\":18499:18593   */\n    tag_480:\n        /* \"#utility.yul\":18532:18540   */\n      0x00\n        /* \"#utility.yul\":18580:18585   */\n      dup2\n        /* \"#utility.yul\":18576:18578   */\n      0x60\n        /* \"#utility.yul\":18572:18586   */\n      shl\n        /* \"#utility.yul\":18551:18586   */\n      swap1\n      pop\n        /* \"#utility.yul\":18499:18593   */\n      swap2\n      swap1\n      pop\n      jump\t// out\n        /* \"#utility.yul\":18599:18701   */\n    tag_427:\n        /* \"#utility.yul\":18641:18649   */\n      0x00\n        /* \"#utility.yul\":18688:18693   */\n      dup2\n        /* \"#utility.yul\":18685:18686   */\n      0x01\n        /* \"#utility.yul\":18681:18694   */\n      shr\n        /* \"#utility.yul\":18660:18694   */\n      swap1\n      pop\n        /* \"#utility.yul\":18599:18701   */\n      swap2\n      swap1\n      pop\n      jump\t// out\n        /* \"#utility.yul\":18707:18929   */\n    tag_329:\n        /* \"#utility.yul\":18847:18881   */\n      0x45524332303a207472616e7366657220746f20746865207a65726f2061646472\n        /* \"#utility.yul\":18843:18844   */\n      0x00\n        /* \"#utility.yul\":18835:18841   */\n      dup3\n        /* \"#utility.yul\":18831:18845   */\n      add\n        /* \"#utility.yul\":18824:18882   */\n      mstore\n        /* \"#utility.yul\":18916:18921   */\n      0x6573730000000000000000000000000000000000000000000000000000000000\n        /* \"#utility.yul\":18911:18913   */\n      0x20\n        /* \"#utility.yul\":18903:18909   */\n      dup3\n        /* \"#utility.yul\":18899:18914   */\n      add\n        /* \"#utility.yul\":18892:18922   */\n      mstore\n        /* \"#utility.yul\":18707:18929   */\n      pop\n      jump\t// out\n        /* \"#utility.yul\":18935:19156   */\n    tag_334:\n        /* \"#utility.yul\":19075:19109   */\n      0x45524332303a20617070726f766520746f20746865207a65726f206164647265\n        /* \"#utility.yul\":19071:19072   */\n      0x00\n        /* \"#utility.yul\":19063:19069   */\n      dup3\n        /* \"#utility.yul\":19059:19073   */\n      add\n        /* \"#utility.yul\":19052:19110   */\n      mstore\n        /* \"#utility.yul\":19144:19148   */\n      0x7373000000000000000000000000000000000000000000000000000000000000\n        /* \"#utility.yul\":19139:19141   */\n      0x20\n        /* \"#utility.yul\":19131:19137   */\n      dup3\n        /* \"#utility.yul\":19127:19142   */\n      add\n        /* \"#utility.yul\":19120:19149   */\n      mstore\n        /* \"#utility.yul\":18935:19156   */\n      pop\n      jump\t// out\n        /* \"#utility.yul\":19162:19341   */\n    tag_339:\n        /* \"#utility.yul\":19302:19333   */\n      0x45524332303a20696e73756666696369656e7420616c6c6f77616e6365000000\n        /* \"#utility.yul\":19298:19299   */\n      0x00\n        /* \"#utility.yul\":19290:19296   */\n      dup3\n        /* \"#utility.yul\":19286:19300   */\n      add\n        /* \"#utility.yul\":19279:19334   */\n      mstore\n        /* \"#utility.yul\":19162:19341   */\n      pop\n      jump\t// out\n        /* \"#utility.yul\":19347:19572   */\n    tag_344:\n        /* \"#utility.yul\":19487:19521   */\n      0x45524332303a207472616e7366657220616d6f756e7420657863656564732062\n        /* \"#utility.yul\":19483:19484   */\n      0x00\n        /* \"#utility.yul\":19475:19481   */\n      dup3\n        /* \"#utility.yul\":19471:19485   */\n      add\n        /* \"#utility.yul\":19464:19522   */\n      mstore\n        /* \"#utility.yul\":19556:19564   */\n      0x616c616e63650000000000000000000000000000000000000000000000000000\n        /* \"#utility.yul\":19551:19553   */\n      0x20\n        /* \"#utility.yul\":19543:19549   */\n      dup3\n        /* \"#utility.yul\":19539:19554   */\n      add\n        /* \"#utility.yul\":19532:19565   */\n      mstore\n        /* \"#utility.yul\":19347:19572   */\n      pop\n      jump\t// out\n        /* \"#utility.yul\":19578:19802   */\n    tag_349:\n        /* \"#utility.yul\":19718:19752   */\n      0x45524332303a207472616e736665722066726f6d20746865207a65726f206164\n        /* \"#utility.yul\":19714:19715   */\n      0x00\n        /* \"#utility.yul\":19706:19712   */\n      dup3\n        /* \"#utility.yul\":19702:19716   */\n      add\n        /* \"#utility.yul\":19695:19753   */\n      mstore\n        /* \"#utility.yul\":19787:19794   */\n      0x6472657373000000000000000000000000000000000000000000000000000000\n        /* \"#utility.yul\":19782:19784   */\n      0x20\n        /* \"#utility.yul\":19774:19780   */\n      dup3\n        /* \"#utility.yul\":19770:19785   */\n      add\n        /* \"#utility.yul\":19763:19795   */\n      mstore\n        /* \"#utility.yul\":19578:19802   */\n      pop\n      jump\t// out\n        /* \"#utility.yul\":19808:20031   */\n    tag_354:\n        /* \"#utility.yul\":19948:19982   */\n      0x45524332303a20617070726f76652066726f6d20746865207a65726f20616464\n        /* \"#utility.yul\":19944:19945   */\n      0x00\n        /* \"#utility.yul\":19936:19942   */\n      dup3\n        /* \"#utility.yul\":19932:19946   */\n      add\n        /* \"#utility.yul\":19925:19983   */\n      mstore\n        /* \"#utility.yul\":20017:20023   */\n      0x7265737300000000000000000000000000000000000000000000000000000000\n        /* \"#utility.yul\":20012:20014   */\n      0x20\n        /* \"#utility.yul\":20004:20010   */\n      dup3\n        /* \"#utility.yul\":20000:20015   */\n      add\n        /* \"#utility.yul\":19993:20024   */\n      mstore\n        /* \"#utility.yul\":19808:20031   */\n      pop\n      jump\t// out\n        /* \"#utility.yul\":20037:20261   */\n    tag_359:\n        /* \"#utility.yul\":20177:20211   */\n      0x45524332303a2064656372656173656420616c6c6f77616e63652062656c6f77\n        /* \"#utility.yul\":20173:20174   */\n      0x00\n        /* \"#utility.yul\":20165:20171   */\n      dup3\n        /* \"#utility.yul\":20161:20175   */\n      add\n        /* \"#utility.yul\":20154:20212   */\n      mstore\n        /* \"#utility.yul\":20246:20253   */\n      0x207a65726f000000000000000000000000000000000000000000000000000000\n        /* \"#utility.yul\":20241:20243   */\n      0x20\n        /* \"#utility.yul\":20233:20239   */\n      dup3\n        /* \"#utility.yul\":20229:20244   */\n      add\n        /* \"#utility.yul\":20222:20254   */\n      mstore\n        /* \"#utility.yul\":20037:20261   */\n      pop\n      jump\t// out\n        /* \"#utility.yul\":20267:20448   */\n    tag_364:\n        /* \"#utility.yul\":20407:20440   */\n      0x45524332303a206d696e7420746f20746865207a65726f206164647265737300\n        /* \"#utility.yul\":20403:20404   */\n      0x00\n        /* \"#utility.yul\":20395:20401   */\n      dup3\n        /* \"#utility.yul\":20391:20405   */\n      add\n        /* \"#utility.yul\":20384:20441   */\n      mstore\n        /* \"#utility.yul\":20267:20448   */\n      pop\n      jump\t// out\n        /* \"#utility.yul\":20454:20576   */\n    tag_266:\n        /* \"#utility.yul\":20527:20551   */\n      tag_506\n        /* \"#utility.yul\":20545:20550   */\n      dup2\n        /* \"#utility.yul\":20527:20551   */\n      tag_305\n      jump\t// in\n    tag_506:\n        /* \"#utility.yul\":20520:20525   */\n      dup2\n        /* \"#utility.yul\":20517:20552   */\n      eq\n        /* \"#utility.yul\":20507:20570   */\n      tag_507\n      jumpi\n        /* \"#utility.yul\":20566:20567   */\n      0x00\n        /* \"#utility.yul\":20563:20564   */\n      dup1\n        /* \"#utility.yul\":20556:20568   */\n      revert\n        /* \"#utility.yul\":20507:20570   */\n    tag_507:\n        /* \"#utility.yul\":20454:20576   */\n      pop\n      jump\t// out\n        /* \"#utility.yul\":20582:20704   */\n    tag_270:\n        /* \"#utility.yul\":20655:20679   */\n      tag_509\n        /* \"#utility.yul\":20673:20678   */\n      dup2\n        /* \"#utility.yul\":20655:20679   */\n      tag_368\n      jump\t// in\n    tag_509:\n        /* \"#utility.yul\":20648:20653   */\n      dup2\n        /* \"#utility.yul\":20645:20680   */\n      eq\n        /* \"#utility.yul\":20635:20698   */\n      tag_510\n      jumpi\n        /* \"#utility.yul\":20694:20695   */\n      0x00\n        /* \"#utility.yul\":20691:20692   */\n      dup1\n        /* \"#utility.yul\":20684:20696   */\n      revert\n        /* \"#utility.yul\":20635:20698   */\n    tag_510:\n        /* \"#utility.yul\":20582:20704   */\n      pop\n      jump\t// out\n\n    auxdata: 0xa2646970667358221220a82878791a6c76d5bc024b2937857bcf247b07f5a66efcff533db0bf9cc897b464736f6c63430008070033\n}\n",
				"bytecode": {
					"linkReferences": {},
					"object": "608060405260006009553480156200001657600080fd5b506040518060400160405280600881526020017f47616d65436f696e0000000000000000000000000000000000000000000000008152506040518060400160405280600581526020017f416c69636500000000000000000000000000000000000000000000000000000081525081600390805190602001906200009b929190620000fe565b508060049080519060200190620000b4929190620000fe565b50505033600560006101000a81548173ffffffffffffffffffffffffffffffffffffffff021916908373ffffffffffffffffffffffffffffffffffffffff16021790555062000213565b8280546200010c90620001ae565b90600052602060002090601f0160209004810192826200013057600085556200017c565b82601f106200014b57805160ff19168380011785556200017c565b828001600101855582156200017c579182015b828111156200017b5782518255916020019190600101906200015e565b5b5090506200018b91906200018f565b5090565b5b80821115620001aa57600081600090555060010162000190565b5090565b60006002820490506001821680620001c757607f821691505b60208210811415620001de57620001dd620001e4565b5b50919050565b7f4e487b7100000000000000000000000000000000000000000000000000000000600052602260045260246000fd5b611f3680620002236000396000f3fe608060405234801561001057600080fd5b50600436106101005760003560e01c806370a0823111610097578063a3b1f6cc11610066578063a3b1f6cc146102c5578063a457c2d7146102f5578063a9059cbb14610325578063dd62ed3e1461035557610100565b806370a082311461023d5780638da5cb5b1461026d57806395d89b411461028b578063a0712d68146102a957610100565b806323b872dd116100d357806323b872dd146101a1578063313ce567146101d157806339509351146101ef5780634802d3781461021f57610100565b806306fdde0314610105578063095ea7b31461012357806318160ddd1461015357806319c6b70814610171575b600080fd5b61010d610385565b60405161011a91906116f2565b60405180910390f35b61013d60048036038101906101389190611404565b610417565b60405161014a91906116d7565b60405180910390f35b61015b61043a565b6040516101689190611814565b60405180910390f35b61018b60048036038101906101869190611444565b610444565b60405161019891906116d7565b60405180910390f35b6101bb60048036038101906101b691906113b1565b610552565b6040516101c891906116d7565b60405180910390f35b6101d9610581565b6040516101e6919061182f565b60405180910390f35b61020960048036038101906102049190611404565b61058a565b60405161021691906116d7565b60405180910390f35b6102276105c1565b60405161023491906116f2565b60405180910390f35b61025760048036038101906102529190611344565b610653565b6040516102649190611814565b60405180910390f35b61027561069b565b60405161028291906116bc565b60405180910390f35b6102936106c1565b6040516102a091906116f2565b60405180910390f35b6102c360048036038101906102be9190611444565b610753565b005b6102df60048036038101906102da9190611471565b6107a0565b6040516102ec91906116f2565b60405180910390f35b61030f600480360381019061030a9190611404565b610af6565b60405161031c91906116d7565b60405180910390f35b61033f600480360381019061033a9190611404565b610b6d565b60405161034c91906116d7565b60405180910390f35b61036f600480360381019061036a9190611371565b610ba6565b60405161037c9190611814565b60405180910390f35b60606003805461039490611b0f565b80601f01602080910402602001604051908101604052809291908181526020018280546103c090611b0f565b801561040d5780601f106103e25761010080835404028352916020019161040d565b820191906000526020600020905b8154815290600101906020018083116103f057829003601f168201915b5050505050905090565b600080610422610c2d565b905061042f818585610c35565b600191505092915050565b6000600254905090565b6000806040518060400160405280600981526020017f796f752077696e21210000000000000000000000000000000000000000000000815250905060006040518060400160405280600881526020017f796f75206c6f736500000000000000000000000000000000000000000000000081525090506000606442336009546040516020016104d49392919061167f565b6040516020818303038152906040528051906020012060001c6104f79190611bb8565b905060006064866105089190611bb8565b905080821061052d578260079080519060200190610527929190611277565b50610545565b8360079080519060200190610543929190611277565b505b6001945050505050919050565b60008061055d610c2d565b905061056a858285610e00565b610575858585610e8c565b60019150509392505050565b60006012905090565b600080610595610c2d565b90506105b68185856105a78589610ba6565b6105b19190611866565b610c35565b600191505092915050565b6060600680546105d090611b0f565b80601f01602080910402602001604051908101604052809291908181526020018280546105fc90611b0f565b80156106495780601f1061061e57610100808354040283529160200191610649565b820191906000526020600020905b81548152906001019060200180831161062c57829003601f168201915b5050505050905090565b60008060008373ffffffffffffffffffffffffffffffffffffffff1673ffffffffffffffffffffffffffffffffffffffff168152602001908152602001600020549050919050565b600560009054906101000a900473ffffffffffffffffffffffffffffffffffffffff1681565b6060600480546106d090611b0f565b80601f01602080910402602001604051908101604052809291908181526020018280546106fc90611b0f565b80156107495780601f1061071e57610100808354040283529160200191610749565b820191906000526020600020905b81548152906001019060200180831161072c57829003601f168201915b5050505050905090565b61079d600560009054906101000a900473ffffffffffffffffffffffffffffffffffffffff16610781610581565b600a61078d919061190f565b836107989190611a2d565b61110d565b50565b606060006040518060400160405280600981526020017f796f752077696e21210000000000000000000000000000000000000000000000815250905060006040518060400160405280600881526020017f796f75206c6f736500000000000000000000000000000000000000000000000081525090506000806003886108269190611bb8565b905060006003886108379190611bb8565b905060006003886108489190611bb8565b90506000600342336009546040516020016108659392919061167f565b6040516020818303038152906040528051906020012060001c6108889190611bb8565b905060008414156108ac5760018114156108ab5784806108a790611b41565b9550505b5b60018414156108ce5760028114156108cd5784806108c990611b41565b9550505b5b60028414156108f05760008114156108ef5784806108eb90611b41565b9550505b5b600084141561091257600181141561091157848061090d90611b41565b9550505b5b600184141561093457600281141561093357848061092f90611b41565b9550505b5b600284141561095657600081141561095557848061095190611b41565b9550505b5b6003423360095460405160200161096f9392919061167f565b6040516020818303038152906040528051906020012060001c6109929190611bb8565b905060008314156109b65760018114156109b55784806109b190611b41565b9550505b5b60018314156109d85760028114156109d75784806109d390611b41565b9550505b5b60028314156109fa5760008114156109f95784806109f590611b41565b9550505b5b60034233600954604051602001610a139392919061167f565b6040516020818303038152906040528051906020012060001c610a369190611bb8565b90506000821415610a5a576001811415610a59578480610a5590611b41565b9550505b5b6001821415610a7c576002811415610a7b578480610a7790611b41565b9550505b5b6002821415610a9e576000811415610a9d578480610a9990611b41565b9550505b5b6001851115610acd578660069080519060200190610abd929190611277565b5086975050505050505050610aef565b8560069080519060200190610ae3929190611277565b50859750505050505050505b9392505050565b600080610b01610c2d565b90506000610b0f8286610ba6565b905083811015610b54576040517f08c379a0000000000000000000000000000000000000000000000000000000008152600401610b4b906117d4565b60405180910390fd5b610b618286868403610c35565b60019250505092915050565b6000610b9c600560009054906101000a900473ffffffffffffffffffffffffffffffffffffffff168484610e8c565b6001905092915050565b6000600160008473ffffffffffffffffffffffffffffffffffffffff1673ffffffffffffffffffffffffffffffffffffffff16815260200190815260200160002060008373ffffffffffffffffffffffffffffffffffffffff1673ffffffffffffffffffffffffffffffffffffffff16815260200190815260200160002054905092915050565b600033905090565b600073ffffffffffffffffffffffffffffffffffffffff168373ffffffffffffffffffffffffffffffffffffffff161415610ca5576040517f08c379a0000000000000000000000000000000000000000000000000000000008152600401610c9c906117b4565b60405180910390fd5b600073ffffffffffffffffffffffffffffffffffffffff168273ffffffffffffffffffffffffffffffffffffffff161415610d15576040517f08c379a0000000000000000000000000000000000000000000000000000000008152600401610d0c90611734565b60405180910390fd5b80600160008573ffffffffffffffffffffffffffffffffffffffff1673ffffffffffffffffffffffffffffffffffffffff16815260200190815260200160002060008473ffffffffffffffffffffffffffffffffffffffff1673ffffffffffffffffffffffffffffffffffffffff168152602001908152602001600020819055508173ffffffffffffffffffffffffffffffffffffffff168373ffffffffffffffffffffffffffffffffffffffff167f8c5be1e5ebec7d5bd14f71427d1e84f3dd0314c0f7b2291e5b200ac8c7c3b92583604051610df39190611814565b60405180910390a3505050565b6000610e0c8484610ba6565b90507fffffffffffffffffffffffffffffffffffffffffffffffffffffffffffffffff8114610e865781811015610e78576040517f08c379a0000000000000000000000000000000000000000000000000000000008152600401610e6f90611754565b60405180910390fd5b610e858484848403610c35565b5b50505050565b600073ffffffffffffffffffffffffffffffffffffffff168373ffffffffffffffffffffffffffffffffffffffff161415610efc576040517f08c379a0000000000000000000000000000000000000000000000000000000008152600401610ef390611794565b60405180910390fd5b600073ffffffffffffffffffffffffffffffffffffffff168273ffffffffffffffffffffffffffffffffffffffff161415610f6c576040517f08c379a0000000000000000000000000000000000000000000000000000000008152600401610f6390611714565b60405180910390fd5b610f7783838361126d565b60008060008573ffffffffffffffffffffffffffffffffffffffff1673ffffffffffffffffffffffffffffffffffffffff16815260200190815260200160002054905081811015610ffd576040517f08c379a0000000000000000000000000000000000000000000000000000000008152600401610ff490611774565b60405180910390fd5b8181036000808673ffffffffffffffffffffffffffffffffffffffff1673ffffffffffffffffffffffffffffffffffffffff16815260200190815260200160002081905550816000808573ffffffffffffffffffffffffffffffffffffffff1673ffffffffffffffffffffffffffffffffffffffff16815260200190815260200160002060008282546110909190611866565b925050819055508273ffffffffffffffffffffffffffffffffffffffff168473ffffffffffffffffffffffffffffffffffffffff167fddf252ad1be2c89b69c2b068fc378daa952ba7f163c4a11628f55a4df523b3ef846040516110f49190611814565b60405180910390a3611107848484611272565b50505050565b600073ffffffffffffffffffffffffffffffffffffffff168273ffffffffffffffffffffffffffffffffffffffff16141561117d576040517f08c379a0000000000000000000000000000000000000000000000000000000008152600401611174906117f4565b60405180910390fd5b6111896000838361126d565b806002600082825461119b9190611866565b92505081905550806000808473ffffffffffffffffffffffffffffffffffffffff1673ffffffffffffffffffffffffffffffffffffffff16815260200190815260200160002060008282546111f09190611866565b925050819055508173ffffffffffffffffffffffffffffffffffffffff16600073ffffffffffffffffffffffffffffffffffffffff167fddf252ad1be2c89b69c2b068fc378daa952ba7f163c4a11628f55a4df523b3ef836040516112559190611814565b60405180910390a361126960008383611272565b5050565b505050565b505050565b82805461128390611b0f565b90600052602060002090601f0160209004810192826112a557600085556112ec565b82601f106112be57805160ff19168380011785556112ec565b828001600101855582156112ec579182015b828111156112eb5782518255916020019190600101906112d0565b5b5090506112f991906112fd565b5090565b5b808211156113165760008160009055506001016112fe565b5090565b60008135905061132981611ed2565b92915050565b60008135905061133e81611ee9565b92915050565b60006020828403121561135a57611359611c76565b5b60006113688482850161131a565b91505092915050565b6000806040838503121561138857611387611c76565b5b60006113968582860161131a565b92505060206113a78582860161131a565b9150509250929050565b6000806000606084860312156113ca576113c9611c76565b5b60006113d88682870161131a565b93505060206113e98682870161131a565b92505060406113fa8682870161132f565b9150509250925092565b6000806040838503121561141b5761141a611c76565b5b60006114298582860161131a565b925050602061143a8582860161132f565b9150509250929050565b60006020828403121561145a57611459611c76565b5b60006114688482850161132f565b91505092915050565b60008060006060848603121561148a57611489611c76565b5b60006114988682870161132f565b93505060206114a98682870161132f565b92505060406114ba8682870161132f565b9150509250925092565b6114cd81611a87565b82525050565b6114e46114df82611a87565b611b8a565b82525050565b6114f381611a99565b82525050565b60006115048261184a565b61150e8185611855565b935061151e818560208601611adc565b61152781611c7b565b840191505092915050565b600061153f602383611855565b915061154a82611ca6565b604082019050919050565b6000611562602283611855565b915061156d82611cf5565b604082019050919050565b6000611585601d83611855565b915061159082611d44565b602082019050919050565b60006115a8602683611855565b91506115b382611d6d565b604082019050919050565b60006115cb602583611855565b91506115d682611dbc565b604082019050919050565b60006115ee602483611855565b91506115f982611e0b565b604082019050919050565b6000611611602583611855565b915061161c82611e5a565b604082019050919050565b6000611634601f83611855565b915061163f82611ea9565b602082019050919050565b61165381611ac5565b82525050565b61166a61166582611ac5565b611bae565b82525050565b61167981611acf565b82525050565b600061168b8286611659565b60208201915061169b82856114d3565b6014820191506116ab8284611659565b602082019150819050949350505050565b60006020820190506116d160008301846114c4565b92915050565b60006020820190506116ec60008301846114ea565b92915050565b6000602082019050818103600083015261170c81846114f9565b905092915050565b6000602082019050818103600083015261172d81611532565b9050919050565b6000602082019050818103600083015261174d81611555565b9050919050565b6000602082019050818103600083015261176d81611578565b9050919050565b6000602082019050818103600083015261178d8161159b565b9050919050565b600060208201905081810360008301526117ad816115be565b9050919050565b600060208201905081810360008301526117cd816115e1565b9050919050565b600060208201905081810360008301526117ed81611604565b9050919050565b6000602082019050818103600083015261180d81611627565b9050919050565b6000602082019050611829600083018461164a565b92915050565b60006020820190506118446000830184611670565b92915050565b600081519050919050565b600082825260208201905092915050565b600061187182611ac5565b915061187c83611ac5565b9250827fffffffffffffffffffffffffffffffffffffffffffffffffffffffffffffffff038211156118b1576118b0611be9565b5b828201905092915050565b6000808291508390505b6001851115611906578086048111156118e2576118e1611be9565b5b60018516156118f15780820291505b80810290506118ff85611c99565b94506118c6565b94509492505050565b600061191a82611ac5565b915061192583611acf565b92506119527fffffffffffffffffffffffffffffffffffffffffffffffffffffffffffffffff848461195a565b905092915050565b60008261196a5760019050611a26565b816119785760009050611a26565b816001811461198e5760028114611998576119c7565b6001915050611a26565b60ff8411156119aa576119a9611be9565b5b8360020a9150848211156119c1576119c0611be9565b5b50611a26565b5060208310610133831016604e8410600b84101617156119fc5782820a9050838111156119f7576119f6611be9565b5b611a26565b611a0984848460016118bc565b92509050818404811115611a2057611a1f611be9565b5b81810290505b9392505050565b6000611a3882611ac5565b9150611a4383611ac5565b9250817fffffffffffffffffffffffffffffffffffffffffffffffffffffffffffffffff0483118215151615611a7c57611a7b611be9565b5b828202905092915050565b6000611a9282611aa5565b9050919050565b60008115159050919050565b600073ffffffffffffffffffffffffffffffffffffffff82169050919050565b6000819050919050565b600060ff82169050919050565b60005b83811015611afa578082015181840152602081019050611adf565b83811115611b09576000848401525b50505050565b60006002820490506001821680611b2757607f821691505b60208210811415611b3b57611b3a611c47565b5b50919050565b6000611b4c82611ac5565b91507fffffffffffffffffffffffffffffffffffffffffffffffffffffffffffffffff821415611b7f57611b7e611be9565b5b600182019050919050565b6000611b9582611b9c565b9050919050565b6000611ba782611c8c565b9050919050565b6000819050919050565b6000611bc382611ac5565b9150611bce83611ac5565b925082611bde57611bdd611c18565b5b828206905092915050565b7f4e487b7100000000000000000000000000000000000000000000000000000000600052601160045260246000fd5b7f4e487b7100000000000000000000000000000000000000000000000000000000600052601260045260246000fd5b7f4e487b7100000000000000000000000000000000000000000000000000000000600052602260045260246000fd5b600080fd5b6000601f19601f8301169050919050565b60008160601b9050919050565b60008160011c9050919050565b7f45524332303a207472616e7366657220746f20746865207a65726f206164647260008201527f6573730000000000000000000000000000000000000000000000000000000000602082015250565b7f45524332303a20617070726f766520746f20746865207a65726f20616464726560008201527f7373000000000000000000000000000000000000000000000000000000000000602082015250565b7f45524332303a20696e73756666696369656e7420616c6c6f77616e6365000000600082015250565b7f45524332303a207472616e7366657220616d6f756e742065786365656473206260008201527f616c616e63650000000000000000000000000000000000000000000000000000602082015250565b7f45524332303a207472616e736665722066726f6d20746865207a65726f20616460008201527f6472657373000000000000000000000000000000000000000000000000000000602082015250565b7f45524332303a20617070726f76652066726f6d20746865207a65726f2061646460008201527f7265737300000000000000000000000000000000000000000000000000000000602082015250565b7f45524332303a2064656372656173656420616c6c6f77616e63652062656c6f7760008201527f207a65726f000000000000000000000000000000000000000000000000000000602082015250565b7f45524332303a206d696e7420746f20746865207a65726f206164647265737300600082015250565b611edb81611a87565b8114611ee657600080fd5b50565b611ef281611ac5565b8114611efd57600080fd5b5056fea2646970667358221220a82878791a6c76d5bc024b2937857bcf247b07f5a66efcff533db0bf9cc897b464736f6c63430008070033",
					"opcodes": "PUSH1 0x80 PUSH1 0x40 MSTORE PUSH1 0x0 PUSH1 0x9 SSTORE CALLVALUE DUP1 ISZERO PUSH3 0x16 JUMPI PUSH1 0x0 DUP1 REVERT JUMPDEST POP PUSH1 0x40 MLOAD DUP1 PUSH1 0x40 ADD PUSH1 0x40 MSTORE DUP1 PUSH1 0x8 DUP2 MSTORE PUSH1 0x20 ADD PUSH32 0x47616D65436F696E000000000000000000000000000000000000000000000000 DUP2 MSTORE POP PUSH1 0x40 MLOAD DUP1 PUSH1 0x40 ADD PUSH1 0x40 MSTORE DUP1 PUSH1 0x5 DUP2 MSTORE PUSH1 0x20 ADD PUSH32 0x416C696365000000000000000000000000000000000000000000000000000000 DUP2 MSTORE POP DUP2 PUSH1 0x3 SWAP1 DUP1 MLOAD SWAP1 PUSH1 0x20 ADD SWAP1 PUSH3 0x9B SWAP3 SWAP2 SWAP1 PUSH3 0xFE JUMP JUMPDEST POP DUP1 PUSH1 0x4 SWAP1 DUP1 MLOAD SWAP1 PUSH1 0x20 ADD SWAP1 PUSH3 0xB4 SWAP3 SWAP2 SWAP1 PUSH3 0xFE JUMP JUMPDEST POP POP POP CALLER PUSH1 0x5 PUSH1 0x0 PUSH2 0x100 EXP DUP2 SLOAD DUP2 PUSH20 0xFFFFFFFFFFFFFFFFFFFFFFFFFFFFFFFFFFFFFFFF MUL NOT AND SWAP1 DUP4 PUSH20 0xFFFFFFFFFFFFFFFFFFFFFFFFFFFFFFFFFFFFFFFF AND MUL OR SWAP1 SSTORE POP PUSH3 0x213 JUMP JUMPDEST DUP3 DUP1 SLOAD PUSH3 0x10C SWAP1 PUSH3 0x1AE JUMP JUMPDEST SWAP1 PUSH1 0x0 MSTORE PUSH1 0x20 PUSH1 0x0 KECCAK256 SWAP1 PUSH1 0x1F ADD PUSH1 0x20 SWAP1 DIV DUP2 ADD SWAP3 DUP3 PUSH3 0x130 JUMPI PUSH1 0x0 DUP6 SSTORE PUSH3 0x17C JUMP JUMPDEST DUP3 PUSH1 0x1F LT PUSH3 0x14B JUMPI DUP1 MLOAD PUSH1 0xFF NOT AND DUP4 DUP1 ADD OR DUP6 SSTORE PUSH3 0x17C JUMP JUMPDEST DUP3 DUP1 ADD PUSH1 0x1 ADD DUP6 SSTORE DUP3 ISZERO PUSH3 0x17C JUMPI SWAP2 DUP3 ADD JUMPDEST DUP3 DUP2 GT ISZERO PUSH3 0x17B JUMPI DUP3 MLOAD DUP3 SSTORE SWAP2 PUSH1 0x20 ADD SWAP2 SWAP1 PUSH1 0x1 ADD SWAP1 PUSH3 0x15E JUMP JUMPDEST JUMPDEST POP SWAP1 POP PUSH3 0x18B SWAP2 SWAP1 PUSH3 0x18F JUMP JUMPDEST POP SWAP1 JUMP JUMPDEST JUMPDEST DUP1 DUP3 GT ISZERO PUSH3 0x1AA JUMPI PUSH1 0x0 DUP2 PUSH1 0x0 SWAP1 SSTORE POP PUSH1 0x1 ADD PUSH3 0x190 JUMP JUMPDEST POP SWAP1 JUMP JUMPDEST PUSH1 0x0 PUSH1 0x2 DUP3 DIV SWAP1 POP PUSH1 0x1 DUP3 AND DUP1 PUSH3 0x1C7 JUMPI PUSH1 0x7F DUP3 AND SWAP2 POP JUMPDEST PUSH1 0x20 DUP3 LT DUP2 EQ ISZERO PUSH3 0x1DE JUMPI PUSH3 0x1DD PUSH3 0x1E4 JUMP JUMPDEST JUMPDEST POP SWAP2 SWAP1 POP JUMP JUMPDEST PUSH32 0x4E487B7100000000000000000000000000000000000000000000000000000000 PUSH1 0x0 MSTORE PUSH1 0x22 PUSH1 0x4 MSTORE PUSH1 0x24 PUSH1 0x0 REVERT JUMPDEST PUSH2 0x1F36 DUP1 PUSH3 0x223 PUSH1 0x0 CODECOPY PUSH1 0x0 RETURN INVALID PUSH1 0x80 PUSH1 0x40 MSTORE CALLVALUE DUP1 ISZERO PUSH2 0x10 JUMPI PUSH1 0x0 DUP1 REVERT JUMPDEST POP PUSH1 0x4 CALLDATASIZE LT PUSH2 0x100 JUMPI PUSH1 0x0 CALLDATALOAD PUSH1 0xE0 SHR DUP1 PUSH4 0x70A08231 GT PUSH2 0x97 JUMPI DUP1 PUSH4 0xA3B1F6CC GT PUSH2 0x66 JUMPI DUP1 PUSH4 0xA3B1F6CC EQ PUSH2 0x2C5 JUMPI DUP1 PUSH4 0xA457C2D7 EQ PUSH2 0x2F5 JUMPI DUP1 PUSH4 0xA9059CBB EQ PUSH2 0x325 JUMPI DUP1 PUSH4 0xDD62ED3E EQ PUSH2 0x355 JUMPI PUSH2 0x100 JUMP JUMPDEST DUP1 PUSH4 0x70A08231 EQ PUSH2 0x23D JUMPI DUP1 PUSH4 0x8DA5CB5B EQ PUSH2 0x26D JUMPI DUP1 PUSH4 0x95D89B41 EQ PUSH2 0x28B JUMPI DUP1 PUSH4 0xA0712D68 EQ PUSH2 0x2A9 JUMPI PUSH2 0x100 JUMP JUMPDEST DUP1 PUSH4 0x23B872DD GT PUSH2 0xD3 JUMPI DUP1 PUSH4 0x23B872DD EQ PUSH2 0x1A1 JUMPI DUP1 PUSH4 0x313CE567 EQ PUSH2 0x1D1 JUMPI DUP1 PUSH4 0x39509351 EQ PUSH2 0x1EF JUMPI DUP1 PUSH4 0x4802D378 EQ PUSH2 0x21F JUMPI PUSH2 0x100 JUMP JUMPDEST DUP1 PUSH4 0x6FDDE03 EQ PUSH2 0x105 JUMPI DUP1 PUSH4 0x95EA7B3 EQ PUSH2 0x123 JUMPI DUP1 PUSH4 0x18160DDD EQ PUSH2 0x153 JUMPI DUP1 PUSH4 0x19C6B708 EQ PUSH2 0x171 JUMPI JUMPDEST PUSH1 0x0 DUP1 REVERT JUMPDEST PUSH2 0x10D PUSH2 0x385 JUMP JUMPDEST PUSH1 0x40 MLOAD PUSH2 0x11A SWAP2 SWAP1 PUSH2 0x16F2 JUMP JUMPDEST PUSH1 0x40 MLOAD DUP1 SWAP2 SUB SWAP1 RETURN JUMPDEST PUSH2 0x13D PUSH1 0x4 DUP1 CALLDATASIZE SUB DUP2 ADD SWAP1 PUSH2 0x138 SWAP2 SWAP1 PUSH2 0x1404 JUMP JUMPDEST PUSH2 0x417 JUMP JUMPDEST PUSH1 0x40 MLOAD PUSH2 0x14A SWAP2 SWAP1 PUSH2 0x16D7 JUMP JUMPDEST PUSH1 0x40 MLOAD DUP1 SWAP2 SUB SWAP1 RETURN JUMPDEST PUSH2 0x15B PUSH2 0x43A JUMP JUMPDEST PUSH1 0x40 MLOAD PUSH2 0x168 SWAP2 SWAP1 PUSH2 0x1814 JUMP JUMPDEST PUSH1 0x40 MLOAD DUP1 SWAP2 SUB SWAP1 RETURN JUMPDEST PUSH2 0x18B PUSH1 0x4 DUP1 CALLDATASIZE SUB DUP2 ADD SWAP1 PUSH2 0x186 SWAP2 SWAP1 PUSH2 0x1444 JUMP JUMPDEST PUSH2 0x444 JUMP JUMPDEST PUSH1 0x40 MLOAD PUSH2 0x198 SWAP2 SWAP1 PUSH2 0x16D7 JUMP JUMPDEST PUSH1 0x40 MLOAD DUP1 SWAP2 SUB SWAP1 RETURN JUMPDEST PUSH2 0x1BB PUSH1 0x4 DUP1 CALLDATASIZE SUB DUP2 ADD SWAP1 PUSH2 0x1B6 SWAP2 SWAP1 PUSH2 0x13B1 JUMP JUMPDEST PUSH2 0x552 JUMP JUMPDEST PUSH1 0x40 MLOAD PUSH2 0x1C8 SWAP2 SWAP1 PUSH2 0x16D7 JUMP JUMPDEST PUSH1 0x40 MLOAD DUP1 SWAP2 SUB SWAP1 RETURN JUMPDEST PUSH2 0x1D9 PUSH2 0x581 JUMP JUMPDEST PUSH1 0x40 MLOAD PUSH2 0x1E6 SWAP2 SWAP1 PUSH2 0x182F JUMP JUMPDEST PUSH1 0x40 MLOAD DUP1 SWAP2 SUB SWAP1 RETURN JUMPDEST PUSH2 0x209 PUSH1 0x4 DUP1 CALLDATASIZE SUB DUP2 ADD SWAP1 PUSH2 0x204 SWAP2 SWAP1 PUSH2 0x1404 JUMP JUMPDEST PUSH2 0x58A JUMP JUMPDEST PUSH1 0x40 MLOAD PUSH2 0x216 SWAP2 SWAP1 PUSH2 0x16D7 JUMP JUMPDEST PUSH1 0x40 MLOAD DUP1 SWAP2 SUB SWAP1 RETURN JUMPDEST PUSH2 0x227 PUSH2 0x5C1 JUMP JUMPDEST PUSH1 0x40 MLOAD PUSH2 0x234 SWAP2 SWAP1 PUSH2 0x16F2 JUMP JUMPDEST PUSH1 0x40 MLOAD DUP1 SWAP2 SUB SWAP1 RETURN JUMPDEST PUSH2 0x257 PUSH1 0x4 DUP1 CALLDATASIZE SUB DUP2 ADD SWAP1 PUSH2 0x252 SWAP2 SWAP1 PUSH2 0x1344 JUMP JUMPDEST PUSH2 0x653 JUMP JUMPDEST PUSH1 0x40 MLOAD PUSH2 0x264 SWAP2 SWAP1 PUSH2 0x1814 JUMP JUMPDEST PUSH1 0x40 MLOAD DUP1 SWAP2 SUB SWAP1 RETURN JUMPDEST PUSH2 0x275 PUSH2 0x69B JUMP JUMPDEST PUSH1 0x40 MLOAD PUSH2 0x282 SWAP2 SWAP1 PUSH2 0x16BC JUMP JUMPDEST PUSH1 0x40 MLOAD DUP1 SWAP2 SUB SWAP1 RETURN JUMPDEST PUSH2 0x293 PUSH2 0x6C1 JUMP JUMPDEST PUSH1 0x40 MLOAD PUSH2 0x2A0 SWAP2 SWAP1 PUSH2 0x16F2 JUMP JUMPDEST PUSH1 0x40 MLOAD DUP1 SWAP2 SUB SWAP1 RETURN JUMPDEST PUSH2 0x2C3 PUSH1 0x4 DUP1 CALLDATASIZE SUB DUP2 ADD SWAP1 PUSH2 0x2BE SWAP2 SWAP1 PUSH2 0x1444 JUMP JUMPDEST PUSH2 0x753 JUMP JUMPDEST STOP JUMPDEST PUSH2 0x2DF PUSH1 0x4 DUP1 CALLDATASIZE SUB DUP2 ADD SWAP1 PUSH2 0x2DA SWAP2 SWAP1 PUSH2 0x1471 JUMP JUMPDEST PUSH2 0x7A0 JUMP JUMPDEST PUSH1 0x40 MLOAD PUSH2 0x2EC SWAP2 SWAP1 PUSH2 0x16F2 JUMP JUMPDEST PUSH1 0x40 MLOAD DUP1 SWAP2 SUB SWAP1 RETURN JUMPDEST PUSH2 0x30F PUSH1 0x4 DUP1 CALLDATASIZE SUB DUP2 ADD SWAP1 PUSH2 0x30A SWAP2 SWAP1 PUSH2 0x1404 JUMP JUMPDEST PUSH2 0xAF6 JUMP JUMPDEST PUSH1 0x40 MLOAD PUSH2 0x31C SWAP2 SWAP1 PUSH2 0x16D7 JUMP JUMPDEST PUSH1 0x40 MLOAD DUP1 SWAP2 SUB SWAP1 RETURN JUMPDEST PUSH2 0x33F PUSH1 0x4 DUP1 CALLDATASIZE SUB DUP2 ADD SWAP1 PUSH2 0x33A SWAP2 SWAP1 PUSH2 0x1404 JUMP JUMPDEST PUSH2 0xB6D JUMP JUMPDEST PUSH1 0x40 MLOAD PUSH2 0x34C SWAP2 SWAP1 PUSH2 0x16D7 JUMP JUMPDEST PUSH1 0x40 MLOAD DUP1 SWAP2 SUB SWAP1 RETURN JUMPDEST PUSH2 0x36F PUSH1 0x4 DUP1 CALLDATASIZE SUB DUP2 ADD SWAP1 PUSH2 0x36A SWAP2 SWAP1 PUSH2 0x1371 JUMP JUMPDEST PUSH2 0xBA6 JUMP JUMPDEST PUSH1 0x40 MLOAD PUSH2 0x37C SWAP2 SWAP1 PUSH2 0x1814 JUMP JUMPDEST PUSH1 0x40 MLOAD DUP1 SWAP2 SUB SWAP1 RETURN JUMPDEST PUSH1 0x60 PUSH1 0x3 DUP1 SLOAD PUSH2 0x394 SWAP1 PUSH2 0x1B0F JUMP JUMPDEST DUP1 PUSH1 0x1F ADD PUSH1 0x20 DUP1 SWAP2 DIV MUL PUSH1 0x20 ADD PUSH1 0x40 MLOAD SWAP1 DUP2 ADD PUSH1 0x40 MSTORE DUP1 SWAP3 SWAP2 SWAP1 DUP2 DUP2 MSTORE PUSH1 0x20 ADD DUP3 DUP1 SLOAD PUSH2 0x3C0 SWAP1 PUSH2 0x1B0F JUMP JUMPDEST DUP1 ISZERO PUSH2 0x40D JUMPI DUP1 PUSH1 0x1F LT PUSH2 0x3E2 JUMPI PUSH2 0x100 DUP1 DUP4 SLOAD DIV MUL DUP4 MSTORE SWAP2 PUSH1 0x20 ADD SWAP2 PUSH2 0x40D JUMP JUMPDEST DUP3 ADD SWAP2 SWAP1 PUSH1 0x0 MSTORE PUSH1 0x20 PUSH1 0x0 KECCAK256 SWAP1 JUMPDEST DUP2 SLOAD DUP2 MSTORE SWAP1 PUSH1 0x1 ADD SWAP1 PUSH1 0x20 ADD DUP1 DUP4 GT PUSH2 0x3F0 JUMPI DUP3 SWAP1 SUB PUSH1 0x1F AND DUP3 ADD SWAP2 JUMPDEST POP POP POP POP POP SWAP1 POP SWAP1 JUMP JUMPDEST PUSH1 0x0 DUP1 PUSH2 0x422 PUSH2 0xC2D JUMP JUMPDEST SWAP1 POP PUSH2 0x42F DUP2 DUP6 DUP6 PUSH2 0xC35 JUMP JUMPDEST PUSH1 0x1 SWAP2 POP POP SWAP3 SWAP2 POP POP JUMP JUMPDEST PUSH1 0x0 PUSH1 0x2 SLOAD SWAP1 POP SWAP1 JUMP JUMPDEST PUSH1 0x0 DUP1 PUSH1 0x40 MLOAD DUP1 PUSH1 0x40 ADD PUSH1 0x40 MSTORE DUP1 PUSH1 0x9 DUP2 MSTORE PUSH1 0x20 ADD PUSH32 0x796F752077696E21210000000000000000000000000000000000000000000000 DUP2 MSTORE POP SWAP1 POP PUSH1 0x0 PUSH1 0x40 MLOAD DUP1 PUSH1 0x40 ADD PUSH1 0x40 MSTORE DUP1 PUSH1 0x8 DUP2 MSTORE PUSH1 0x20 ADD PUSH32 0x796F75206C6F7365000000000000000000000000000000000000000000000000 DUP2 MSTORE POP SWAP1 POP PUSH1 0x0 PUSH1 0x64 TIMESTAMP CALLER PUSH1 0x9 SLOAD PUSH1 0x40 MLOAD PUSH1 0x20 ADD PUSH2 0x4D4 SWAP4 SWAP3 SWAP2 SWAP1 PUSH2 0x167F JUMP JUMPDEST PUSH1 0x40 MLOAD PUSH1 0x20 DUP2 DUP4 SUB SUB DUP2 MSTORE SWAP1 PUSH1 0x40 MSTORE DUP1 MLOAD SWAP1 PUSH1 0x20 ADD KECCAK256 PUSH1 0x0 SHR PUSH2 0x4F7 SWAP2 SWAP1 PUSH2 0x1BB8 JUMP JUMPDEST SWAP1 POP PUSH1 0x0 PUSH1 0x64 DUP7 PUSH2 0x508 SWAP2 SWAP1 PUSH2 0x1BB8 JUMP JUMPDEST SWAP1 POP DUP1 DUP3 LT PUSH2 0x52D JUMPI DUP3 PUSH1 0x7 SWAP1 DUP1 MLOAD SWAP1 PUSH1 0x20 ADD SWAP1 PUSH2 0x527 SWAP3 SWAP2 SWAP1 PUSH2 0x1277 JUMP JUMPDEST POP PUSH2 0x545 JUMP JUMPDEST DUP4 PUSH1 0x7 SWAP1 DUP1 MLOAD SWAP1 PUSH1 0x20 ADD SWAP1 PUSH2 0x543 SWAP3 SWAP2 SWAP1 PUSH2 0x1277 JUMP JUMPDEST POP JUMPDEST PUSH1 0x1 SWAP5 POP POP POP POP POP SWAP2 SWAP1 POP JUMP JUMPDEST PUSH1 0x0 DUP1 PUSH2 0x55D PUSH2 0xC2D JUMP JUMPDEST SWAP1 POP PUSH2 0x56A DUP6 DUP3 DUP6 PUSH2 0xE00 JUMP JUMPDEST PUSH2 0x575 DUP6 DUP6 DUP6 PUSH2 0xE8C JUMP JUMPDEST PUSH1 0x1 SWAP2 POP POP SWAP4 SWAP3 POP POP POP JUMP JUMPDEST PUSH1 0x0 PUSH1 0x12 SWAP1 POP SWAP1 JUMP JUMPDEST PUSH1 0x0 DUP1 PUSH2 0x595 PUSH2 0xC2D JUMP JUMPDEST SWAP1 POP PUSH2 0x5B6 DUP2 DUP6 DUP6 PUSH2 0x5A7 DUP6 DUP10 PUSH2 0xBA6 JUMP JUMPDEST PUSH2 0x5B1 SWAP2 SWAP1 PUSH2 0x1866 JUMP JUMPDEST PUSH2 0xC35 JUMP JUMPDEST PUSH1 0x1 SWAP2 POP POP SWAP3 SWAP2 POP POP JUMP JUMPDEST PUSH1 0x60 PUSH1 0x6 DUP1 SLOAD PUSH2 0x5D0 SWAP1 PUSH2 0x1B0F JUMP JUMPDEST DUP1 PUSH1 0x1F ADD PUSH1 0x20 DUP1 SWAP2 DIV MUL PUSH1 0x20 ADD PUSH1 0x40 MLOAD SWAP1 DUP2 ADD PUSH1 0x40 MSTORE DUP1 SWAP3 SWAP2 SWAP1 DUP2 DUP2 MSTORE PUSH1 0x20 ADD DUP3 DUP1 SLOAD PUSH2 0x5FC SWAP1 PUSH2 0x1B0F JUMP JUMPDEST DUP1 ISZERO PUSH2 0x649 JUMPI DUP1 PUSH1 0x1F LT PUSH2 0x61E JUMPI PUSH2 0x100 DUP1 DUP4 SLOAD DIV MUL DUP4 MSTORE SWAP2 PUSH1 0x20 ADD SWAP2 PUSH2 0x649 JUMP JUMPDEST DUP3 ADD SWAP2 SWAP1 PUSH1 0x0 MSTORE PUSH1 0x20 PUSH1 0x0 KECCAK256 SWAP1 JUMPDEST DUP2 SLOAD DUP2 MSTORE SWAP1 PUSH1 0x1 ADD SWAP1 PUSH1 0x20 ADD DUP1 DUP4 GT PUSH2 0x62C JUMPI DUP3 SWAP1 SUB PUSH1 0x1F AND DUP3 ADD SWAP2 JUMPDEST POP POP POP POP POP SWAP1 POP SWAP1 JUMP JUMPDEST PUSH1 0x0 DUP1 PUSH1 0x0 DUP4 PUSH20 0xFFFFFFFFFFFFFFFFFFFFFFFFFFFFFFFFFFFFFFFF AND PUSH20 0xFFFFFFFFFFFFFFFFFFFFFFFFFFFFFFFFFFFFFFFF AND DUP2 MSTORE PUSH1 0x20 ADD SWAP1 DUP2 MSTORE PUSH1 0x20 ADD PUSH1 0x0 KECCAK256 SLOAD SWAP1 POP SWAP2 SWAP1 POP JUMP JUMPDEST PUSH1 0x5 PUSH1 0x0 SWAP1 SLOAD SWAP1 PUSH2 0x100 EXP SWAP1 DIV PUSH20 0xFFFFFFFFFFFFFFFFFFFFFFFFFFFFFFFFFFFFFFFF AND DUP2 JUMP JUMPDEST PUSH1 0x60 PUSH1 0x4 DUP1 SLOAD PUSH2 0x6D0 SWAP1 PUSH2 0x1B0F JUMP JUMPDEST DUP1 PUSH1 0x1F ADD PUSH1 0x20 DUP1 SWAP2 DIV MUL PUSH1 0x20 ADD PUSH1 0x40 MLOAD SWAP1 DUP2 ADD PUSH1 0x40 MSTORE DUP1 SWAP3 SWAP2 SWAP1 DUP2 DUP2 MSTORE PUSH1 0x20 ADD DUP3 DUP1 SLOAD PUSH2 0x6FC SWAP1 PUSH2 0x1B0F JUMP JUMPDEST DUP1 ISZERO PUSH2 0x749 JUMPI DUP1 PUSH1 0x1F LT PUSH2 0x71E JUMPI PUSH2 0x100 DUP1 DUP4 SLOAD DIV MUL DUP4 MSTORE SWAP2 PUSH1 0x20 ADD SWAP2 PUSH2 0x749 JUMP JUMPDEST DUP3 ADD SWAP2 SWAP1 PUSH1 0x0 MSTORE PUSH1 0x20 PUSH1 0x0 KECCAK256 SWAP1 JUMPDEST DUP2 SLOAD DUP2 MSTORE SWAP1 PUSH1 0x1 ADD SWAP1 PUSH1 0x20 ADD DUP1 DUP4 GT PUSH2 0x72C JUMPI DUP3 SWAP1 SUB PUSH1 0x1F AND DUP3 ADD SWAP2 JUMPDEST POP POP POP POP POP SWAP1 POP SWAP1 JUMP JUMPDEST PUSH2 0x79D PUSH1 0x5 PUSH1 0x0 SWAP1 SLOAD SWAP1 PUSH2 0x100 EXP SWAP1 DIV PUSH20 0xFFFFFFFFFFFFFFFFFFFFFFFFFFFFFFFFFFFFFFFF AND PUSH2 0x781 PUSH2 0x581 JUMP JUMPDEST PUSH1 0xA PUSH2 0x78D SWAP2 SWAP1 PUSH2 0x190F JUMP JUMPDEST DUP4 PUSH2 0x798 SWAP2 SWAP1 PUSH2 0x1A2D JUMP JUMPDEST PUSH2 0x110D JUMP JUMPDEST POP JUMP JUMPDEST PUSH1 0x60 PUSH1 0x0 PUSH1 0x40 MLOAD DUP1 PUSH1 0x40 ADD PUSH1 0x40 MSTORE DUP1 PUSH1 0x9 DUP2 MSTORE PUSH1 0x20 ADD PUSH32 0x796F752077696E21210000000000000000000000000000000000000000000000 DUP2 MSTORE POP SWAP1 POP PUSH1 0x0 PUSH1 0x40 MLOAD DUP1 PUSH1 0x40 ADD PUSH1 0x40 MSTORE DUP1 PUSH1 0x8 DUP2 MSTORE PUSH1 0x20 ADD PUSH32 0x796F75206C6F7365000000000000000000000000000000000000000000000000 DUP2 MSTORE POP SWAP1 POP PUSH1 0x0 DUP1 PUSH1 0x3 DUP9 PUSH2 0x826 SWAP2 SWAP1 PUSH2 0x1BB8 JUMP JUMPDEST SWAP1 POP PUSH1 0x0 PUSH1 0x3 DUP9 PUSH2 0x837 SWAP2 SWAP1 PUSH2 0x1BB8 JUMP JUMPDEST SWAP1 POP PUSH1 0x0 PUSH1 0x3 DUP9 PUSH2 0x848 SWAP2 SWAP1 PUSH2 0x1BB8 JUMP JUMPDEST SWAP1 POP PUSH1 0x0 PUSH1 0x3 TIMESTAMP CALLER PUSH1 0x9 SLOAD PUSH1 0x40 MLOAD PUSH1 0x20 ADD PUSH2 0x865 SWAP4 SWAP3 SWAP2 SWAP1 PUSH2 0x167F JUMP JUMPDEST PUSH1 0x40 MLOAD PUSH1 0x20 DUP2 DUP4 SUB SUB DUP2 MSTORE SWAP1 PUSH1 0x40 MSTORE DUP1 MLOAD SWAP1 PUSH1 0x20 ADD KECCAK256 PUSH1 0x0 SHR PUSH2 0x888 SWAP2 SWAP1 PUSH2 0x1BB8 JUMP JUMPDEST SWAP1 POP PUSH1 0x0 DUP5 EQ ISZERO PUSH2 0x8AC JUMPI PUSH1 0x1 DUP2 EQ ISZERO PUSH2 0x8AB JUMPI DUP5 DUP1 PUSH2 0x8A7 SWAP1 PUSH2 0x1B41 JUMP JUMPDEST SWAP6 POP POP JUMPDEST JUMPDEST PUSH1 0x1 DUP5 EQ ISZERO PUSH2 0x8CE JUMPI PUSH1 0x2 DUP2 EQ ISZERO PUSH2 0x8CD JUMPI DUP5 DUP1 PUSH2 0x8C9 SWAP1 PUSH2 0x1B41 JUMP JUMPDEST SWAP6 POP POP JUMPDEST JUMPDEST PUSH1 0x2 DUP5 EQ ISZERO PUSH2 0x8F0 JUMPI PUSH1 0x0 DUP2 EQ ISZERO PUSH2 0x8EF JUMPI DUP5 DUP1 PUSH2 0x8EB SWAP1 PUSH2 0x1B41 JUMP JUMPDEST SWAP6 POP POP JUMPDEST JUMPDEST PUSH1 0x0 DUP5 EQ ISZERO PUSH2 0x912 JUMPI PUSH1 0x1 DUP2 EQ ISZERO PUSH2 0x911 JUMPI DUP5 DUP1 PUSH2 0x90D SWAP1 PUSH2 0x1B41 JUMP JUMPDEST SWAP6 POP POP JUMPDEST JUMPDEST PUSH1 0x1 DUP5 EQ ISZERO PUSH2 0x934 JUMPI PUSH1 0x2 DUP2 EQ ISZERO PUSH2 0x933 JUMPI DUP5 DUP1 PUSH2 0x92F SWAP1 PUSH2 0x1B41 JUMP JUMPDEST SWAP6 POP POP JUMPDEST JUMPDEST PUSH1 0x2 DUP5 EQ ISZERO PUSH2 0x956 JUMPI PUSH1 0x0 DUP2 EQ ISZERO PUSH2 0x955 JUMPI DUP5 DUP1 PUSH2 0x951 SWAP1 PUSH2 0x1B41 JUMP JUMPDEST SWAP6 POP POP JUMPDEST JUMPDEST PUSH1 0x3 TIMESTAMP CALLER PUSH1 0x9 SLOAD PUSH1 0x40 MLOAD PUSH1 0x20 ADD PUSH2 0x96F SWAP4 SWAP3 SWAP2 SWAP1 PUSH2 0x167F JUMP JUMPDEST PUSH1 0x40 MLOAD PUSH1 0x20 DUP2 DUP4 SUB SUB DUP2 MSTORE SWAP1 PUSH1 0x40 MSTORE DUP1 MLOAD SWAP1 PUSH1 0x20 ADD KECCAK256 PUSH1 0x0 SHR PUSH2 0x992 SWAP2 SWAP1 PUSH2 0x1BB8 JUMP JUMPDEST SWAP1 POP PUSH1 0x0 DUP4 EQ ISZERO PUSH2 0x9B6 JUMPI PUSH1 0x1 DUP2 EQ ISZERO PUSH2 0x9B5 JUMPI DUP5 DUP1 PUSH2 0x9B1 SWAP1 PUSH2 0x1B41 JUMP JUMPDEST SWAP6 POP POP JUMPDEST JUMPDEST PUSH1 0x1 DUP4 EQ ISZERO PUSH2 0x9D8 JUMPI PUSH1 0x2 DUP2 EQ ISZERO PUSH2 0x9D7 JUMPI DUP5 DUP1 PUSH2 0x9D3 SWAP1 PUSH2 0x1B41 JUMP JUMPDEST SWAP6 POP POP JUMPDEST JUMPDEST PUSH1 0x2 DUP4 EQ ISZERO PUSH2 0x9FA JUMPI PUSH1 0x0 DUP2 EQ ISZERO PUSH2 0x9F9 JUMPI DUP5 DUP1 PUSH2 0x9F5 SWAP1 PUSH2 0x1B41 JUMP JUMPDEST SWAP6 POP POP JUMPDEST JUMPDEST PUSH1 0x3 TIMESTAMP CALLER PUSH1 0x9 SLOAD PUSH1 0x40 MLOAD PUSH1 0x20 ADD PUSH2 0xA13 SWAP4 SWAP3 SWAP2 SWAP1 PUSH2 0x167F JUMP JUMPDEST PUSH1 0x40 MLOAD PUSH1 0x20 DUP2 DUP4 SUB SUB DUP2 MSTORE SWAP1 PUSH1 0x40 MSTORE DUP1 MLOAD SWAP1 PUSH1 0x20 ADD KECCAK256 PUSH1 0x0 SHR PUSH2 0xA36 SWAP2 SWAP1 PUSH2 0x1BB8 JUMP JUMPDEST SWAP1 POP PUSH1 0x0 DUP3 EQ ISZERO PUSH2 0xA5A JUMPI PUSH1 0x1 DUP2 EQ ISZERO PUSH2 0xA59 JUMPI DUP5 DUP1 PUSH2 0xA55 SWAP1 PUSH2 0x1B41 JUMP JUMPDEST SWAP6 POP POP JUMPDEST JUMPDEST PUSH1 0x1 DUP3 EQ ISZERO PUSH2 0xA7C JUMPI PUSH1 0x2 DUP2 EQ ISZERO PUSH2 0xA7B JUMPI DUP5 DUP1 PUSH2 0xA77 SWAP1 PUSH2 0x1B41 JUMP JUMPDEST SWAP6 POP POP JUMPDEST JUMPDEST PUSH1 0x2 DUP3 EQ ISZERO PUSH2 0xA9E JUMPI PUSH1 0x0 DUP2 EQ ISZERO PUSH2 0xA9D JUMPI DUP5 DUP1 PUSH2 0xA99 SWAP1 PUSH2 0x1B41 JUMP JUMPDEST SWAP6 POP POP JUMPDEST JUMPDEST PUSH1 0x1 DUP6 GT ISZERO PUSH2 0xACD JUMPI DUP7 PUSH1 0x6 SWAP1 DUP1 MLOAD SWAP1 PUSH1 0x20 ADD SWAP1 PUSH2 0xABD SWAP3 SWAP2 SWAP1 PUSH2 0x1277 JUMP JUMPDEST POP DUP7 SWAP8 POP POP POP POP POP POP POP POP PUSH2 0xAEF JUMP JUMPDEST DUP6 PUSH1 0x6 SWAP1 DUP1 MLOAD SWAP1 PUSH1 0x20 ADD SWAP1 PUSH2 0xAE3 SWAP3 SWAP2 SWAP1 PUSH2 0x1277 JUMP JUMPDEST POP DUP6 SWAP8 POP POP POP POP POP POP POP POP JUMPDEST SWAP4 SWAP3 POP POP POP JUMP JUMPDEST PUSH1 0x0 DUP1 PUSH2 0xB01 PUSH2 0xC2D JUMP JUMPDEST SWAP1 POP PUSH1 0x0 PUSH2 0xB0F DUP3 DUP7 PUSH2 0xBA6 JUMP JUMPDEST SWAP1 POP DUP4 DUP2 LT ISZERO PUSH2 0xB54 JUMPI PUSH1 0x40 MLOAD PUSH32 0x8C379A000000000000000000000000000000000000000000000000000000000 DUP2 MSTORE PUSH1 0x4 ADD PUSH2 0xB4B SWAP1 PUSH2 0x17D4 JUMP JUMPDEST PUSH1 0x40 MLOAD DUP1 SWAP2 SUB SWAP1 REVERT JUMPDEST PUSH2 0xB61 DUP3 DUP7 DUP7 DUP5 SUB PUSH2 0xC35 JUMP JUMPDEST PUSH1 0x1 SWAP3 POP POP POP SWAP3 SWAP2 POP POP JUMP JUMPDEST PUSH1 0x0 PUSH2 0xB9C PUSH1 0x5 PUSH1 0x0 SWAP1 SLOAD SWAP1 PUSH2 0x100 EXP SWAP1 DIV PUSH20 0xFFFFFFFFFFFFFFFFFFFFFFFFFFFFFFFFFFFFFFFF AND DUP5 DUP5 PUSH2 0xE8C JUMP JUMPDEST PUSH1 0x1 SWAP1 POP SWAP3 SWAP2 POP POP JUMP JUMPDEST PUSH1 0x0 PUSH1 0x1 PUSH1 0x0 DUP5 PUSH20 0xFFFFFFFFFFFFFFFFFFFFFFFFFFFFFFFFFFFFFFFF AND PUSH20 0xFFFFFFFFFFFFFFFFFFFFFFFFFFFFFFFFFFFFFFFF AND DUP2 MSTORE PUSH1 0x20 ADD SWAP1 DUP2 MSTORE PUSH1 0x20 ADD PUSH1 0x0 KECCAK256 PUSH1 0x0 DUP4 PUSH20 0xFFFFFFFFFFFFFFFFFFFFFFFFFFFFFFFFFFFFFFFF AND PUSH20 0xFFFFFFFFFFFFFFFFFFFFFFFFFFFFFFFFFFFFFFFF AND DUP2 MSTORE PUSH1 0x20 ADD SWAP1 DUP2 MSTORE PUSH1 0x20 ADD PUSH1 0x0 KECCAK256 SLOAD SWAP1 POP SWAP3 SWAP2 POP POP JUMP JUMPDEST PUSH1 0x0 CALLER SWAP1 POP SWAP1 JUMP JUMPDEST PUSH1 0x0 PUSH20 0xFFFFFFFFFFFFFFFFFFFFFFFFFFFFFFFFFFFFFFFF AND DUP4 PUSH20 0xFFFFFFFFFFFFFFFFFFFFFFFFFFFFFFFFFFFFFFFF AND EQ ISZERO PUSH2 0xCA5 JUMPI PUSH1 0x40 MLOAD PUSH32 0x8C379A000000000000000000000000000000000000000000000000000000000 DUP2 MSTORE PUSH1 0x4 ADD PUSH2 0xC9C SWAP1 PUSH2 0x17B4 JUMP JUMPDEST PUSH1 0x40 MLOAD DUP1 SWAP2 SUB SWAP1 REVERT JUMPDEST PUSH1 0x0 PUSH20 0xFFFFFFFFFFFFFFFFFFFFFFFFFFFFFFFFFFFFFFFF AND DUP3 PUSH20 0xFFFFFFFFFFFFFFFFFFFFFFFFFFFFFFFFFFFFFFFF AND EQ ISZERO PUSH2 0xD15 JUMPI PUSH1 0x40 MLOAD PUSH32 0x8C379A000000000000000000000000000000000000000000000000000000000 DUP2 MSTORE PUSH1 0x4 ADD PUSH2 0xD0C SWAP1 PUSH2 0x1734 JUMP JUMPDEST PUSH1 0x40 MLOAD DUP1 SWAP2 SUB SWAP1 REVERT JUMPDEST DUP1 PUSH1 0x1 PUSH1 0x0 DUP6 PUSH20 0xFFFFFFFFFFFFFFFFFFFFFFFFFFFFFFFFFFFFFFFF AND PUSH20 0xFFFFFFFFFFFFFFFFFFFFFFFFFFFFFFFFFFFFFFFF AND DUP2 MSTORE PUSH1 0x20 ADD SWAP1 DUP2 MSTORE PUSH1 0x20 ADD PUSH1 0x0 KECCAK256 PUSH1 0x0 DUP5 PUSH20 0xFFFFFFFFFFFFFFFFFFFFFFFFFFFFFFFFFFFFFFFF AND PUSH20 0xFFFFFFFFFFFFFFFFFFFFFFFFFFFFFFFFFFFFFFFF AND DUP2 MSTORE PUSH1 0x20 ADD SWAP1 DUP2 MSTORE PUSH1 0x20 ADD PUSH1 0x0 KECCAK256 DUP2 SWAP1 SSTORE POP DUP2 PUSH20 0xFFFFFFFFFFFFFFFFFFFFFFFFFFFFFFFFFFFFFFFF AND DUP4 PUSH20 0xFFFFFFFFFFFFFFFFFFFFFFFFFFFFFFFFFFFFFFFF AND PUSH32 0x8C5BE1E5EBEC7D5BD14F71427D1E84F3DD0314C0F7B2291E5B200AC8C7C3B925 DUP4 PUSH1 0x40 MLOAD PUSH2 0xDF3 SWAP2 SWAP1 PUSH2 0x1814 JUMP JUMPDEST PUSH1 0x40 MLOAD DUP1 SWAP2 SUB SWAP1 LOG3 POP POP POP JUMP JUMPDEST PUSH1 0x0 PUSH2 0xE0C DUP5 DUP5 PUSH2 0xBA6 JUMP JUMPDEST SWAP1 POP PUSH32 0xFFFFFFFFFFFFFFFFFFFFFFFFFFFFFFFFFFFFFFFFFFFFFFFFFFFFFFFFFFFFFFFF DUP2 EQ PUSH2 0xE86 JUMPI DUP2 DUP2 LT ISZERO PUSH2 0xE78 JUMPI PUSH1 0x40 MLOAD PUSH32 0x8C379A000000000000000000000000000000000000000000000000000000000 DUP2 MSTORE PUSH1 0x4 ADD PUSH2 0xE6F SWAP1 PUSH2 0x1754 JUMP JUMPDEST PUSH1 0x40 MLOAD DUP1 SWAP2 SUB SWAP1 REVERT JUMPDEST PUSH2 0xE85 DUP5 DUP5 DUP5 DUP5 SUB PUSH2 0xC35 JUMP JUMPDEST JUMPDEST POP POP POP POP JUMP JUMPDEST PUSH1 0x0 PUSH20 0xFFFFFFFFFFFFFFFFFFFFFFFFFFFFFFFFFFFFFFFF AND DUP4 PUSH20 0xFFFFFFFFFFFFFFFFFFFFFFFFFFFFFFFFFFFFFFFF AND EQ ISZERO PUSH2 0xEFC JUMPI PUSH1 0x40 MLOAD PUSH32 0x8C379A000000000000000000000000000000000000000000000000000000000 DUP2 MSTORE PUSH1 0x4 ADD PUSH2 0xEF3 SWAP1 PUSH2 0x1794 JUMP JUMPDEST PUSH1 0x40 MLOAD DUP1 SWAP2 SUB SWAP1 REVERT JUMPDEST PUSH1 0x0 PUSH20 0xFFFFFFFFFFFFFFFFFFFFFFFFFFFFFFFFFFFFFFFF AND DUP3 PUSH20 0xFFFFFFFFFFFFFFFFFFFFFFFFFFFFFFFFFFFFFFFF AND EQ ISZERO PUSH2 0xF6C JUMPI PUSH1 0x40 MLOAD PUSH32 0x8C379A000000000000000000000000000000000000000000000000000000000 DUP2 MSTORE PUSH1 0x4 ADD PUSH2 0xF63 SWAP1 PUSH2 0x1714 JUMP JUMPDEST PUSH1 0x40 MLOAD DUP1 SWAP2 SUB SWAP1 REVERT JUMPDEST PUSH2 0xF77 DUP4 DUP4 DUP4 PUSH2 0x126D JUMP JUMPDEST PUSH1 0x0 DUP1 PUSH1 0x0 DUP6 PUSH20 0xFFFFFFFFFFFFFFFFFFFFFFFFFFFFFFFFFFFFFFFF AND PUSH20 0xFFFFFFFFFFFFFFFFFFFFFFFFFFFFFFFFFFFFFFFF AND DUP2 MSTORE PUSH1 0x20 ADD SWAP1 DUP2 MSTORE PUSH1 0x20 ADD PUSH1 0x0 KECCAK256 SLOAD SWAP1 POP DUP2 DUP2 LT ISZERO PUSH2 0xFFD JUMPI PUSH1 0x40 MLOAD PUSH32 0x8C379A000000000000000000000000000000000000000000000000000000000 DUP2 MSTORE PUSH1 0x4 ADD PUSH2 0xFF4 SWAP1 PUSH2 0x1774 JUMP JUMPDEST PUSH1 0x40 MLOAD DUP1 SWAP2 SUB SWAP1 REVERT JUMPDEST DUP2 DUP2 SUB PUSH1 0x0 DUP1 DUP7 PUSH20 0xFFFFFFFFFFFFFFFFFFFFFFFFFFFFFFFFFFFFFFFF AND PUSH20 0xFFFFFFFFFFFFFFFFFFFFFFFFFFFFFFFFFFFFFFFF AND DUP2 MSTORE PUSH1 0x20 ADD SWAP1 DUP2 MSTORE PUSH1 0x20 ADD PUSH1 0x0 KECCAK256 DUP2 SWAP1 SSTORE POP DUP2 PUSH1 0x0 DUP1 DUP6 PUSH20 0xFFFFFFFFFFFFFFFFFFFFFFFFFFFFFFFFFFFFFFFF AND PUSH20 0xFFFFFFFFFFFFFFFFFFFFFFFFFFFFFFFFFFFFFFFF AND DUP2 MSTORE PUSH1 0x20 ADD SWAP1 DUP2 MSTORE PUSH1 0x20 ADD PUSH1 0x0 KECCAK256 PUSH1 0x0 DUP3 DUP3 SLOAD PUSH2 0x1090 SWAP2 SWAP1 PUSH2 0x1866 JUMP JUMPDEST SWAP3 POP POP DUP2 SWAP1 SSTORE POP DUP3 PUSH20 0xFFFFFFFFFFFFFFFFFFFFFFFFFFFFFFFFFFFFFFFF AND DUP5 PUSH20 0xFFFFFFFFFFFFFFFFFFFFFFFFFFFFFFFFFFFFFFFF AND PUSH32 0xDDF252AD1BE2C89B69C2B068FC378DAA952BA7F163C4A11628F55A4DF523B3EF DUP5 PUSH1 0x40 MLOAD PUSH2 0x10F4 SWAP2 SWAP1 PUSH2 0x1814 JUMP JUMPDEST PUSH1 0x40 MLOAD DUP1 SWAP2 SUB SWAP1 LOG3 PUSH2 0x1107 DUP5 DUP5 DUP5 PUSH2 0x1272 JUMP JUMPDEST POP POP POP POP JUMP JUMPDEST PUSH1 0x0 PUSH20 0xFFFFFFFFFFFFFFFFFFFFFFFFFFFFFFFFFFFFFFFF AND DUP3 PUSH20 0xFFFFFFFFFFFFFFFFFFFFFFFFFFFFFFFFFFFFFFFF AND EQ ISZERO PUSH2 0x117D JUMPI PUSH1 0x40 MLOAD PUSH32 0x8C379A000000000000000000000000000000000000000000000000000000000 DUP2 MSTORE PUSH1 0x4 ADD PUSH2 0x1174 SWAP1 PUSH2 0x17F4 JUMP JUMPDEST PUSH1 0x40 MLOAD DUP1 SWAP2 SUB SWAP1 REVERT JUMPDEST PUSH2 0x1189 PUSH1 0x0 DUP4 DUP4 PUSH2 0x126D JUMP JUMPDEST DUP1 PUSH1 0x2 PUSH1 0x0 DUP3 DUP3 SLOAD PUSH2 0x119B SWAP2 SWAP1 PUSH2 0x1866 JUMP JUMPDEST SWAP3 POP POP DUP2 SWAP1 SSTORE POP DUP1 PUSH1 0x0 DUP1 DUP5 PUSH20 0xFFFFFFFFFFFFFFFFFFFFFFFFFFFFFFFFFFFFFFFF AND PUSH20 0xFFFFFFFFFFFFFFFFFFFFFFFFFFFFFFFFFFFFFFFF AND DUP2 MSTORE PUSH1 0x20 ADD SWAP1 DUP2 MSTORE PUSH1 0x20 ADD PUSH1 0x0 KECCAK256 PUSH1 0x0 DUP3 DUP3 SLOAD PUSH2 0x11F0 SWAP2 SWAP1 PUSH2 0x1866 JUMP JUMPDEST SWAP3 POP POP DUP2 SWAP1 SSTORE POP DUP2 PUSH20 0xFFFFFFFFFFFFFFFFFFFFFFFFFFFFFFFFFFFFFFFF AND PUSH1 0x0 PUSH20 0xFFFFFFFFFFFFFFFFFFFFFFFFFFFFFFFFFFFFFFFF AND PUSH32 0xDDF252AD1BE2C89B69C2B068FC378DAA952BA7F163C4A11628F55A4DF523B3EF DUP4 PUSH1 0x40 MLOAD PUSH2 0x1255 SWAP2 SWAP1 PUSH2 0x1814 JUMP JUMPDEST PUSH1 0x40 MLOAD DUP1 SWAP2 SUB SWAP1 LOG3 PUSH2 0x1269 PUSH1 0x0 DUP4 DUP4 PUSH2 0x1272 JUMP JUMPDEST POP POP JUMP JUMPDEST POP POP POP JUMP JUMPDEST POP POP POP JUMP JUMPDEST DUP3 DUP1 SLOAD PUSH2 0x1283 SWAP1 PUSH2 0x1B0F JUMP JUMPDEST SWAP1 PUSH1 0x0 MSTORE PUSH1 0x20 PUSH1 0x0 KECCAK256 SWAP1 PUSH1 0x1F ADD PUSH1 0x20 SWAP1 DIV DUP2 ADD SWAP3 DUP3 PUSH2 0x12A5 JUMPI PUSH1 0x0 DUP6 SSTORE PUSH2 0x12EC JUMP JUMPDEST DUP3 PUSH1 0x1F LT PUSH2 0x12BE JUMPI DUP1 MLOAD PUSH1 0xFF NOT AND DUP4 DUP1 ADD OR DUP6 SSTORE PUSH2 0x12EC JUMP JUMPDEST DUP3 DUP1 ADD PUSH1 0x1 ADD DUP6 SSTORE DUP3 ISZERO PUSH2 0x12EC JUMPI SWAP2 DUP3 ADD JUMPDEST DUP3 DUP2 GT ISZERO PUSH2 0x12EB JUMPI DUP3 MLOAD DUP3 SSTORE SWAP2 PUSH1 0x20 ADD SWAP2 SWAP1 PUSH1 0x1 ADD SWAP1 PUSH2 0x12D0 JUMP JUMPDEST JUMPDEST POP SWAP1 POP PUSH2 0x12F9 SWAP2 SWAP1 PUSH2 0x12FD JUMP JUMPDEST POP SWAP1 JUMP JUMPDEST JUMPDEST DUP1 DUP3 GT ISZERO PUSH2 0x1316 JUMPI PUSH1 0x0 DUP2 PUSH1 0x0 SWAP1 SSTORE POP PUSH1 0x1 ADD PUSH2 0x12FE JUMP JUMPDEST POP SWAP1 JUMP JUMPDEST PUSH1 0x0 DUP2 CALLDATALOAD SWAP1 POP PUSH2 0x1329 DUP2 PUSH2 0x1ED2 JUMP JUMPDEST SWAP3 SWAP2 POP POP JUMP JUMPDEST PUSH1 0x0 DUP2 CALLDATALOAD SWAP1 POP PUSH2 0x133E DUP2 PUSH2 0x1EE9 JUMP JUMPDEST SWAP3 SWAP2 POP POP JUMP JUMPDEST PUSH1 0x0 PUSH1 0x20 DUP3 DUP5 SUB SLT ISZERO PUSH2 0x135A JUMPI PUSH2 0x1359 PUSH2 0x1C76 JUMP JUMPDEST JUMPDEST PUSH1 0x0 PUSH2 0x1368 DUP5 DUP3 DUP6 ADD PUSH2 0x131A JUMP JUMPDEST SWAP2 POP POP SWAP3 SWAP2 POP POP JUMP JUMPDEST PUSH1 0x0 DUP1 PUSH1 0x40 DUP4 DUP6 SUB SLT ISZERO PUSH2 0x1388 JUMPI PUSH2 0x1387 PUSH2 0x1C76 JUMP JUMPDEST JUMPDEST PUSH1 0x0 PUSH2 0x1396 DUP6 DUP3 DUP7 ADD PUSH2 0x131A JUMP JUMPDEST SWAP3 POP POP PUSH1 0x20 PUSH2 0x13A7 DUP6 DUP3 DUP7 ADD PUSH2 0x131A JUMP JUMPDEST SWAP2 POP POP SWAP3 POP SWAP3 SWAP1 POP JUMP JUMPDEST PUSH1 0x0 DUP1 PUSH1 0x0 PUSH1 0x60 DUP5 DUP7 SUB SLT ISZERO PUSH2 0x13CA JUMPI PUSH2 0x13C9 PUSH2 0x1C76 JUMP JUMPDEST JUMPDEST PUSH1 0x0 PUSH2 0x13D8 DUP7 DUP3 DUP8 ADD PUSH2 0x131A JUMP JUMPDEST SWAP4 POP POP PUSH1 0x20 PUSH2 0x13E9 DUP7 DUP3 DUP8 ADD PUSH2 0x131A JUMP JUMPDEST SWAP3 POP POP PUSH1 0x40 PUSH2 0x13FA DUP7 DUP3 DUP8 ADD PUSH2 0x132F JUMP JUMPDEST SWAP2 POP POP SWAP3 POP SWAP3 POP SWAP3 JUMP JUMPDEST PUSH1 0x0 DUP1 PUSH1 0x40 DUP4 DUP6 SUB SLT ISZERO PUSH2 0x141B JUMPI PUSH2 0x141A PUSH2 0x1C76 JUMP JUMPDEST JUMPDEST PUSH1 0x0 PUSH2 0x1429 DUP6 DUP3 DUP7 ADD PUSH2 0x131A JUMP JUMPDEST SWAP3 POP POP PUSH1 0x20 PUSH2 0x143A DUP6 DUP3 DUP7 ADD PUSH2 0x132F JUMP JUMPDEST SWAP2 POP POP SWAP3 POP SWAP3 SWAP1 POP JUMP JUMPDEST PUSH1 0x0 PUSH1 0x20 DUP3 DUP5 SUB SLT ISZERO PUSH2 0x145A JUMPI PUSH2 0x1459 PUSH2 0x1C76 JUMP JUMPDEST JUMPDEST PUSH1 0x0 PUSH2 0x1468 DUP5 DUP3 DUP6 ADD PUSH2 0x132F JUMP JUMPDEST SWAP2 POP POP SWAP3 SWAP2 POP POP JUMP JUMPDEST PUSH1 0x0 DUP1 PUSH1 0x0 PUSH1 0x60 DUP5 DUP7 SUB SLT ISZERO PUSH2 0x148A JUMPI PUSH2 0x1489 PUSH2 0x1C76 JUMP JUMPDEST JUMPDEST PUSH1 0x0 PUSH2 0x1498 DUP7 DUP3 DUP8 ADD PUSH2 0x132F JUMP JUMPDEST SWAP4 POP POP PUSH1 0x20 PUSH2 0x14A9 DUP7 DUP3 DUP8 ADD PUSH2 0x132F JUMP JUMPDEST SWAP3 POP POP PUSH1 0x40 PUSH2 0x14BA DUP7 DUP3 DUP8 ADD PUSH2 0x132F JUMP JUMPDEST SWAP2 POP POP SWAP3 POP SWAP3 POP SWAP3 JUMP JUMPDEST PUSH2 0x14CD DUP2 PUSH2 0x1A87 JUMP JUMPDEST DUP3 MSTORE POP POP JUMP JUMPDEST PUSH2 0x14E4 PUSH2 0x14DF DUP3 PUSH2 0x1A87 JUMP JUMPDEST PUSH2 0x1B8A JUMP JUMPDEST DUP3 MSTORE POP POP JUMP JUMPDEST PUSH2 0x14F3 DUP2 PUSH2 0x1A99 JUMP JUMPDEST DUP3 MSTORE POP POP JUMP JUMPDEST PUSH1 0x0 PUSH2 0x1504 DUP3 PUSH2 0x184A JUMP JUMPDEST PUSH2 0x150E DUP2 DUP6 PUSH2 0x1855 JUMP JUMPDEST SWAP4 POP PUSH2 0x151E DUP2 DUP6 PUSH1 0x20 DUP7 ADD PUSH2 0x1ADC JUMP JUMPDEST PUSH2 0x1527 DUP2 PUSH2 0x1C7B JUMP JUMPDEST DUP5 ADD SWAP2 POP POP SWAP3 SWAP2 POP POP JUMP JUMPDEST PUSH1 0x0 PUSH2 0x153F PUSH1 0x23 DUP4 PUSH2 0x1855 JUMP JUMPDEST SWAP2 POP PUSH2 0x154A DUP3 PUSH2 0x1CA6 JUMP JUMPDEST PUSH1 0x40 DUP3 ADD SWAP1 POP SWAP2 SWAP1 POP JUMP JUMPDEST PUSH1 0x0 PUSH2 0x1562 PUSH1 0x22 DUP4 PUSH2 0x1855 JUMP JUMPDEST SWAP2 POP PUSH2 0x156D DUP3 PUSH2 0x1CF5 JUMP JUMPDEST PUSH1 0x40 DUP3 ADD SWAP1 POP SWAP2 SWAP1 POP JUMP JUMPDEST PUSH1 0x0 PUSH2 0x1585 PUSH1 0x1D DUP4 PUSH2 0x1855 JUMP JUMPDEST SWAP2 POP PUSH2 0x1590 DUP3 PUSH2 0x1D44 JUMP JUMPDEST PUSH1 0x20 DUP3 ADD SWAP1 POP SWAP2 SWAP1 POP JUMP JUMPDEST PUSH1 0x0 PUSH2 0x15A8 PUSH1 0x26 DUP4 PUSH2 0x1855 JUMP JUMPDEST SWAP2 POP PUSH2 0x15B3 DUP3 PUSH2 0x1D6D JUMP JUMPDEST PUSH1 0x40 DUP3 ADD SWAP1 POP SWAP2 SWAP1 POP JUMP JUMPDEST PUSH1 0x0 PUSH2 0x15CB PUSH1 0x25 DUP4 PUSH2 0x1855 JUMP JUMPDEST SWAP2 POP PUSH2 0x15D6 DUP3 PUSH2 0x1DBC JUMP JUMPDEST PUSH1 0x40 DUP3 ADD SWAP1 POP SWAP2 SWAP1 POP JUMP JUMPDEST PUSH1 0x0 PUSH2 0x15EE PUSH1 0x24 DUP4 PUSH2 0x1855 JUMP JUMPDEST SWAP2 POP PUSH2 0x15F9 DUP3 PUSH2 0x1E0B JUMP JUMPDEST PUSH1 0x40 DUP3 ADD SWAP1 POP SWAP2 SWAP1 POP JUMP JUMPDEST PUSH1 0x0 PUSH2 0x1611 PUSH1 0x25 DUP4 PUSH2 0x1855 JUMP JUMPDEST SWAP2 POP PUSH2 0x161C DUP3 PUSH2 0x1E5A JUMP JUMPDEST PUSH1 0x40 DUP3 ADD SWAP1 POP SWAP2 SWAP1 POP JUMP JUMPDEST PUSH1 0x0 PUSH2 0x1634 PUSH1 0x1F DUP4 PUSH2 0x1855 JUMP JUMPDEST SWAP2 POP PUSH2 0x163F DUP3 PUSH2 0x1EA9 JUMP JUMPDEST PUSH1 0x20 DUP3 ADD SWAP1 POP SWAP2 SWAP1 POP JUMP JUMPDEST PUSH2 0x1653 DUP2 PUSH2 0x1AC5 JUMP JUMPDEST DUP3 MSTORE POP POP JUMP JUMPDEST PUSH2 0x166A PUSH2 0x1665 DUP3 PUSH2 0x1AC5 JUMP JUMPDEST PUSH2 0x1BAE JUMP JUMPDEST DUP3 MSTORE POP POP JUMP JUMPDEST PUSH2 0x1679 DUP2 PUSH2 0x1ACF JUMP JUMPDEST DUP3 MSTORE POP POP JUMP JUMPDEST PUSH1 0x0 PUSH2 0x168B DUP3 DUP7 PUSH2 0x1659 JUMP JUMPDEST PUSH1 0x20 DUP3 ADD SWAP2 POP PUSH2 0x169B DUP3 DUP6 PUSH2 0x14D3 JUMP JUMPDEST PUSH1 0x14 DUP3 ADD SWAP2 POP PUSH2 0x16AB DUP3 DUP5 PUSH2 0x1659 JUMP JUMPDEST PUSH1 0x20 DUP3 ADD SWAP2 POP DUP2 SWAP1 POP SWAP5 SWAP4 POP POP POP POP JUMP JUMPDEST PUSH1 0x0 PUSH1 0x20 DUP3 ADD SWAP1 POP PUSH2 0x16D1 PUSH1 0x0 DUP4 ADD DUP5 PUSH2 0x14C4 JUMP JUMPDEST SWAP3 SWAP2 POP POP JUMP JUMPDEST PUSH1 0x0 PUSH1 0x20 DUP3 ADD SWAP1 POP PUSH2 0x16EC PUSH1 0x0 DUP4 ADD DUP5 PUSH2 0x14EA JUMP JUMPDEST SWAP3 SWAP2 POP POP JUMP JUMPDEST PUSH1 0x0 PUSH1 0x20 DUP3 ADD SWAP1 POP DUP2 DUP2 SUB PUSH1 0x0 DUP4 ADD MSTORE PUSH2 0x170C DUP2 DUP5 PUSH2 0x14F9 JUMP JUMPDEST SWAP1 POP SWAP3 SWAP2 POP POP JUMP JUMPDEST PUSH1 0x0 PUSH1 0x20 DUP3 ADD SWAP1 POP DUP2 DUP2 SUB PUSH1 0x0 DUP4 ADD MSTORE PUSH2 0x172D DUP2 PUSH2 0x1532 JUMP JUMPDEST SWAP1 POP SWAP2 SWAP1 POP JUMP JUMPDEST PUSH1 0x0 PUSH1 0x20 DUP3 ADD SWAP1 POP DUP2 DUP2 SUB PUSH1 0x0 DUP4 ADD MSTORE PUSH2 0x174D DUP2 PUSH2 0x1555 JUMP JUMPDEST SWAP1 POP SWAP2 SWAP1 POP JUMP JUMPDEST PUSH1 0x0 PUSH1 0x20 DUP3 ADD SWAP1 POP DUP2 DUP2 SUB PUSH1 0x0 DUP4 ADD MSTORE PUSH2 0x176D DUP2 PUSH2 0x1578 JUMP JUMPDEST SWAP1 POP SWAP2 SWAP1 POP JUMP JUMPDEST PUSH1 0x0 PUSH1 0x20 DUP3 ADD SWAP1 POP DUP2 DUP2 SUB PUSH1 0x0 DUP4 ADD MSTORE PUSH2 0x178D DUP2 PUSH2 0x159B JUMP JUMPDEST SWAP1 POP SWAP2 SWAP1 POP JUMP JUMPDEST PUSH1 0x0 PUSH1 0x20 DUP3 ADD SWAP1 POP DUP2 DUP2 SUB PUSH1 0x0 DUP4 ADD MSTORE PUSH2 0x17AD DUP2 PUSH2 0x15BE JUMP JUMPDEST SWAP1 POP SWAP2 SWAP1 POP JUMP JUMPDEST PUSH1 0x0 PUSH1 0x20 DUP3 ADD SWAP1 POP DUP2 DUP2 SUB PUSH1 0x0 DUP4 ADD MSTORE PUSH2 0x17CD DUP2 PUSH2 0x15E1 JUMP JUMPDEST SWAP1 POP SWAP2 SWAP1 POP JUMP JUMPDEST PUSH1 0x0 PUSH1 0x20 DUP3 ADD SWAP1 POP DUP2 DUP2 SUB PUSH1 0x0 DUP4 ADD MSTORE PUSH2 0x17ED DUP2 PUSH2 0x1604 JUMP JUMPDEST SWAP1 POP SWAP2 SWAP1 POP JUMP JUMPDEST PUSH1 0x0 PUSH1 0x20 DUP3 ADD SWAP1 POP DUP2 DUP2 SUB PUSH1 0x0 DUP4 ADD MSTORE PUSH2 0x180D DUP2 PUSH2 0x1627 JUMP JUMPDEST SWAP1 POP SWAP2 SWAP1 POP JUMP JUMPDEST PUSH1 0x0 PUSH1 0x20 DUP3 ADD SWAP1 POP PUSH2 0x1829 PUSH1 0x0 DUP4 ADD DUP5 PUSH2 0x164A JUMP JUMPDEST SWAP3 SWAP2 POP POP JUMP JUMPDEST PUSH1 0x0 PUSH1 0x20 DUP3 ADD SWAP1 POP PUSH2 0x1844 PUSH1 0x0 DUP4 ADD DUP5 PUSH2 0x1670 JUMP JUMPDEST SWAP3 SWAP2 POP POP JUMP JUMPDEST PUSH1 0x0 DUP2 MLOAD SWAP1 POP SWAP2 SWAP1 POP JUMP JUMPDEST PUSH1 0x0 DUP3 DUP3 MSTORE PUSH1 0x20 DUP3 ADD SWAP1 POP SWAP3 SWAP2 POP POP JUMP JUMPDEST PUSH1 0x0 PUSH2 0x1871 DUP3 PUSH2 0x1AC5 JUMP JUMPDEST SWAP2 POP PUSH2 0x187C DUP4 PUSH2 0x1AC5 JUMP JUMPDEST SWAP3 POP DUP3 PUSH32 0xFFFFFFFFFFFFFFFFFFFFFFFFFFFFFFFFFFFFFFFFFFFFFFFFFFFFFFFFFFFFFFFF SUB DUP3 GT ISZERO PUSH2 0x18B1 JUMPI PUSH2 0x18B0 PUSH2 0x1BE9 JUMP JUMPDEST JUMPDEST DUP3 DUP3 ADD SWAP1 POP SWAP3 SWAP2 POP POP JUMP JUMPDEST PUSH1 0x0 DUP1 DUP3 SWAP2 POP DUP4 SWAP1 POP JUMPDEST PUSH1 0x1 DUP6 GT ISZERO PUSH2 0x1906 JUMPI DUP1 DUP7 DIV DUP2 GT ISZERO PUSH2 0x18E2 JUMPI PUSH2 0x18E1 PUSH2 0x1BE9 JUMP JUMPDEST JUMPDEST PUSH1 0x1 DUP6 AND ISZERO PUSH2 0x18F1 JUMPI DUP1 DUP3 MUL SWAP2 POP JUMPDEST DUP1 DUP2 MUL SWAP1 POP PUSH2 0x18FF DUP6 PUSH2 0x1C99 JUMP JUMPDEST SWAP5 POP PUSH2 0x18C6 JUMP JUMPDEST SWAP5 POP SWAP5 SWAP3 POP POP POP JUMP JUMPDEST PUSH1 0x0 PUSH2 0x191A DUP3 PUSH2 0x1AC5 JUMP JUMPDEST SWAP2 POP PUSH2 0x1925 DUP4 PUSH2 0x1ACF JUMP JUMPDEST SWAP3 POP PUSH2 0x1952 PUSH32 0xFFFFFFFFFFFFFFFFFFFFFFFFFFFFFFFFFFFFFFFFFFFFFFFFFFFFFFFFFFFFFFFF DUP5 DUP5 PUSH2 0x195A JUMP JUMPDEST SWAP1 POP SWAP3 SWAP2 POP POP JUMP JUMPDEST PUSH1 0x0 DUP3 PUSH2 0x196A JUMPI PUSH1 0x1 SWAP1 POP PUSH2 0x1A26 JUMP JUMPDEST DUP2 PUSH2 0x1978 JUMPI PUSH1 0x0 SWAP1 POP PUSH2 0x1A26 JUMP JUMPDEST DUP2 PUSH1 0x1 DUP2 EQ PUSH2 0x198E JUMPI PUSH1 0x2 DUP2 EQ PUSH2 0x1998 JUMPI PUSH2 0x19C7 JUMP JUMPDEST PUSH1 0x1 SWAP2 POP POP PUSH2 0x1A26 JUMP JUMPDEST PUSH1 0xFF DUP5 GT ISZERO PUSH2 0x19AA JUMPI PUSH2 0x19A9 PUSH2 0x1BE9 JUMP JUMPDEST JUMPDEST DUP4 PUSH1 0x2 EXP SWAP2 POP DUP5 DUP3 GT ISZERO PUSH2 0x19C1 JUMPI PUSH2 0x19C0 PUSH2 0x1BE9 JUMP JUMPDEST JUMPDEST POP PUSH2 0x1A26 JUMP JUMPDEST POP PUSH1 0x20 DUP4 LT PUSH2 0x133 DUP4 LT AND PUSH1 0x4E DUP5 LT PUSH1 0xB DUP5 LT AND OR ISZERO PUSH2 0x19FC JUMPI DUP3 DUP3 EXP SWAP1 POP DUP4 DUP2 GT ISZERO PUSH2 0x19F7 JUMPI PUSH2 0x19F6 PUSH2 0x1BE9 JUMP JUMPDEST JUMPDEST PUSH2 0x1A26 JUMP JUMPDEST PUSH2 0x1A09 DUP5 DUP5 DUP5 PUSH1 0x1 PUSH2 0x18BC JUMP JUMPDEST SWAP3 POP SWAP1 POP DUP2 DUP5 DIV DUP2 GT ISZERO PUSH2 0x1A20 JUMPI PUSH2 0x1A1F PUSH2 0x1BE9 JUMP JUMPDEST JUMPDEST DUP2 DUP2 MUL SWAP1 POP JUMPDEST SWAP4 SWAP3 POP POP POP JUMP JUMPDEST PUSH1 0x0 PUSH2 0x1A38 DUP3 PUSH2 0x1AC5 JUMP JUMPDEST SWAP2 POP PUSH2 0x1A43 DUP4 PUSH2 0x1AC5 JUMP JUMPDEST SWAP3 POP DUP2 PUSH32 0xFFFFFFFFFFFFFFFFFFFFFFFFFFFFFFFFFFFFFFFFFFFFFFFFFFFFFFFFFFFFFFFF DIV DUP4 GT DUP3 ISZERO ISZERO AND ISZERO PUSH2 0x1A7C JUMPI PUSH2 0x1A7B PUSH2 0x1BE9 JUMP JUMPDEST JUMPDEST DUP3 DUP3 MUL SWAP1 POP SWAP3 SWAP2 POP POP JUMP JUMPDEST PUSH1 0x0 PUSH2 0x1A92 DUP3 PUSH2 0x1AA5 JUMP JUMPDEST SWAP1 POP SWAP2 SWAP1 POP JUMP JUMPDEST PUSH1 0x0 DUP2 ISZERO ISZERO SWAP1 POP SWAP2 SWAP1 POP JUMP JUMPDEST PUSH1 0x0 PUSH20 0xFFFFFFFFFFFFFFFFFFFFFFFFFFFFFFFFFFFFFFFF DUP3 AND SWAP1 POP SWAP2 SWAP1 POP JUMP JUMPDEST PUSH1 0x0 DUP2 SWAP1 POP SWAP2 SWAP1 POP JUMP JUMPDEST PUSH1 0x0 PUSH1 0xFF DUP3 AND SWAP1 POP SWAP2 SWAP1 POP JUMP JUMPDEST PUSH1 0x0 JUMPDEST DUP4 DUP2 LT ISZERO PUSH2 0x1AFA JUMPI DUP1 DUP3 ADD MLOAD DUP2 DUP5 ADD MSTORE PUSH1 0x20 DUP2 ADD SWAP1 POP PUSH2 0x1ADF JUMP JUMPDEST DUP4 DUP2 GT ISZERO PUSH2 0x1B09 JUMPI PUSH1 0x0 DUP5 DUP5 ADD MSTORE JUMPDEST POP POP POP POP JUMP JUMPDEST PUSH1 0x0 PUSH1 0x2 DUP3 DIV SWAP1 POP PUSH1 0x1 DUP3 AND DUP1 PUSH2 0x1B27 JUMPI PUSH1 0x7F DUP3 AND SWAP2 POP JUMPDEST PUSH1 0x20 DUP3 LT DUP2 EQ ISZERO PUSH2 0x1B3B JUMPI PUSH2 0x1B3A PUSH2 0x1C47 JUMP JUMPDEST JUMPDEST POP SWAP2 SWAP1 POP JUMP JUMPDEST PUSH1 0x0 PUSH2 0x1B4C DUP3 PUSH2 0x1AC5 JUMP JUMPDEST SWAP2 POP PUSH32 0xFFFFFFFFFFFFFFFFFFFFFFFFFFFFFFFFFFFFFFFFFFFFFFFFFFFFFFFFFFFFFFFF DUP3 EQ ISZERO PUSH2 0x1B7F JUMPI PUSH2 0x1B7E PUSH2 0x1BE9 JUMP JUMPDEST JUMPDEST PUSH1 0x1 DUP3 ADD SWAP1 POP SWAP2 SWAP1 POP JUMP JUMPDEST PUSH1 0x0 PUSH2 0x1B95 DUP3 PUSH2 0x1B9C JUMP JUMPDEST SWAP1 POP SWAP2 SWAP1 POP JUMP JUMPDEST PUSH1 0x0 PUSH2 0x1BA7 DUP3 PUSH2 0x1C8C JUMP JUMPDEST SWAP1 POP SWAP2 SWAP1 POP JUMP JUMPDEST PUSH1 0x0 DUP2 SWAP1 POP SWAP2 SWAP1 POP JUMP JUMPDEST PUSH1 0x0 PUSH2 0x1BC3 DUP3 PUSH2 0x1AC5 JUMP JUMPDEST SWAP2 POP PUSH2 0x1BCE DUP4 PUSH2 0x1AC5 JUMP JUMPDEST SWAP3 POP DUP3 PUSH2 0x1BDE JUMPI PUSH2 0x1BDD PUSH2 0x1C18 JUMP JUMPDEST JUMPDEST DUP3 DUP3 MOD SWAP1 POP SWAP3 SWAP2 POP POP JUMP JUMPDEST PUSH32 0x4E487B7100000000000000000000000000000000000000000000000000000000 PUSH1 0x0 MSTORE PUSH1 0x11 PUSH1 0x4 MSTORE PUSH1 0x24 PUSH1 0x0 REVERT JUMPDEST PUSH32 0x4E487B7100000000000000000000000000000000000000000000000000000000 PUSH1 0x0 MSTORE PUSH1 0x12 PUSH1 0x4 MSTORE PUSH1 0x24 PUSH1 0x0 REVERT JUMPDEST PUSH32 0x4E487B7100000000000000000000000000000000000000000000000000000000 PUSH1 0x0 MSTORE PUSH1 0x22 PUSH1 0x4 MSTORE PUSH1 0x24 PUSH1 0x0 REVERT JUMPDEST PUSH1 0x0 DUP1 REVERT JUMPDEST PUSH1 0x0 PUSH1 0x1F NOT PUSH1 0x1F DUP4 ADD AND SWAP1 POP SWAP2 SWAP1 POP JUMP JUMPDEST PUSH1 0x0 DUP2 PUSH1 0x60 SHL SWAP1 POP SWAP2 SWAP1 POP JUMP JUMPDEST PUSH1 0x0 DUP2 PUSH1 0x1 SHR SWAP1 POP SWAP2 SWAP1 POP JUMP JUMPDEST PUSH32 0x45524332303A207472616E7366657220746F20746865207A65726F2061646472 PUSH1 0x0 DUP3 ADD MSTORE PUSH32 0x6573730000000000000000000000000000000000000000000000000000000000 PUSH1 0x20 DUP3 ADD MSTORE POP JUMP JUMPDEST PUSH32 0x45524332303A20617070726F766520746F20746865207A65726F206164647265 PUSH1 0x0 DUP3 ADD MSTORE PUSH32 0x7373000000000000000000000000000000000000000000000000000000000000 PUSH1 0x20 DUP3 ADD MSTORE POP JUMP JUMPDEST PUSH32 0x45524332303A20696E73756666696369656E7420616C6C6F77616E6365000000 PUSH1 0x0 DUP3 ADD MSTORE POP JUMP JUMPDEST PUSH32 0x45524332303A207472616E7366657220616D6F756E7420657863656564732062 PUSH1 0x0 DUP3 ADD MSTORE PUSH32 0x616C616E63650000000000000000000000000000000000000000000000000000 PUSH1 0x20 DUP3 ADD MSTORE POP JUMP JUMPDEST PUSH32 0x45524332303A207472616E736665722066726F6D20746865207A65726F206164 PUSH1 0x0 DUP3 ADD MSTORE PUSH32 0x6472657373000000000000000000000000000000000000000000000000000000 PUSH1 0x20 DUP3 ADD MSTORE POP JUMP JUMPDEST PUSH32 0x45524332303A20617070726F76652066726F6D20746865207A65726F20616464 PUSH1 0x0 DUP3 ADD MSTORE PUSH32 0x7265737300000000000000000000000000000000000000000000000000000000 PUSH1 0x20 DUP3 ADD MSTORE POP JUMP JUMPDEST PUSH32 0x45524332303A2064656372656173656420616C6C6F77616E63652062656C6F77 PUSH1 0x0 DUP3 ADD MSTORE PUSH32 0x207A65726F000000000000000000000000000000000000000000000000000000 PUSH1 0x20 DUP3 ADD MSTORE POP JUMP JUMPDEST PUSH32 0x45524332303A206D696E7420746F20746865207A65726F206164647265737300 PUSH1 0x0 DUP3 ADD MSTORE POP JUMP JUMPDEST PUSH2 0x1EDB DUP2 PUSH2 0x1A87 JUMP JUMPDEST DUP2 EQ PUSH2 0x1EE6 JUMPI PUSH1 0x0 DUP1 REVERT JUMPDEST POP JUMP JUMPDEST PUSH2 0x1EF2 DUP2 PUSH2 0x1AC5 JUMP JUMPDEST DUP2 EQ PUSH2 0x1EFD JUMPI PUSH1 0x0 DUP1 REVERT JUMPDEST POP JUMP INVALID LOG2 PUSH5 0x6970667358 0x22 SLT KECCAK256 0xA8 0x28 PUSH25 0x791A6C76D5BC024B2937857BCF247B07F5A66EFCFF533DB0BF SWAP13 0xC8 SWAP8 0xB4 PUSH5 0x736F6C6343 STOP ADDMOD SMOD STOP CALLER "
				},
				"gasEstimates": {
					"creation": {
						"codeDepositCost": "1598000",
						"executionCost": "infinite",
						"totalCost": "infinite"
					},
					"external": {
						"NumBaseBall(uint256)": "infinite",
						"RockPaperScissors(uint256,uint256,uint256)": "infinite",
						"allowance(address,address)": "infinite",
						"approve(address,uint256)": "infinite",
						"balanceOf(address)": "2864",
						"decimals()": "388",
						"decreaseAllowance(address,uint256)": "infinite",
						"getRockScissorsPaper()": "infinite",
						"increaseAllowance(address,uint256)": "infinite",
						"mint(uint256)": "infinite",
						"name()": "infinite",
						"owner()": "2559",
						"symbol()": "infinite",
						"totalSupply()": "2505",
						"transfer(address,uint256)": "infinite",
						"transferFrom(address,address,uint256)": "infinite"
					},
					"internal": {
						"randMod()": "infinite"
					}
				},
				"methodIdentifiers": {
					"NumBaseBall(uint256)": "19c6b708",
					"RockPaperScissors(uint256,uint256,uint256)": "a3b1f6cc",
					"allowance(address,address)": "dd62ed3e",
					"approve(address,uint256)": "095ea7b3",
					"balanceOf(address)": "70a08231",
					"decimals()": "313ce567",
					"decreaseAllowance(address,uint256)": "a457c2d7",
					"getRockScissorsPaper()": "4802d378",
					"increaseAllowance(address,uint256)": "39509351",
					"mint(uint256)": "a0712d68",
					"name()": "06fdde03",
					"owner()": "8da5cb5b",
					"symbol()": "95d89b41",
					"totalSupply()": "18160ddd",
					"transfer(address,uint256)": "a9059cbb",
					"transferFrom(address,address,uint256)": "23b872dd"
				}
			},
			"storageLayout": {
				"storage": [
					{
						"astId": 15,
						"contract": "contract/KimhoGames.sol:Game",
						"label": "_balances",
						"offset": 0,
						"slot": "0",
						"type": "t_mapping(t_address,t_uint256)"
					},
					{
						"astId": 21,
						"contract": "contract/KimhoGames.sol:Game",
						"label": "_allowances",
						"offset": 0,
						"slot": "1",
						"type": "t_mapping(t_address,t_mapping(t_address,t_uint256))"
					},
					{
						"astId": 23,
						"contract": "contract/KimhoGames.sol:Game",
						"label": "_totalSupply",
						"offset": 0,
						"slot": "2",
						"type": "t_uint256"
					},
					{
						"astId": 25,
						"contract": "contract/KimhoGames.sol:Game",
						"label": "_name",
						"offset": 0,
						"slot": "3",
						"type": "t_string_storage"
					},
					{
						"astId": 27,
						"contract": "contract/KimhoGames.sol:Game",
						"label": "_symbol",
						"offset": 0,
						"slot": "4",
						"type": "t_string_storage"
					},
					{
						"astId": 717,
						"contract": "contract/KimhoGames.sol:Game",
						"label": "owner",
						"offset": 0,
						"slot": "5",
						"type": "t_address"
					},
					{
						"astId": 719,
						"contract": "contract/KimhoGames.sol:Game",
						"label": "RockScissorsPaperScore",
						"offset": 0,
						"slot": "6",
						"type": "t_string_storage"
					},
					{
						"astId": 721,
						"contract": "contract/KimhoGames.sol:Game",
						"label": "BaseBallScore",
						"offset": 0,
						"slot": "7",
						"type": "t_string_storage"
					},
					{
						"astId": 723,
						"contract": "contract/KimhoGames.sol:Game",
						"label": "racingScore",
						"offset": 0,
						"slot": "8",
						"type": "t_string_storage"
					},
					{
						"astId": 774,
						"contract": "contract/KimhoGames.sol:Game",
						"label": "randNonce",
						"offset": 0,
						"slot": "9",
						"type": "t_uint256"
					}
				],
				"types": {
					"t_address": {
						"encoding": "inplace",
						"label": "address",
						"numberOfBytes": "20"
					},
					"t_mapping(t_address,t_mapping(t_address,t_uint256))": {
						"encoding": "mapping",
						"key": "t_address",
						"label": "mapping(address => mapping(address => uint256))",
						"numberOfBytes": "32",
						"value": "t_mapping(t_address,t_uint256)"
					},
					"t_mapping(t_address,t_uint256)": {
						"encoding": "mapping",
						"key": "t_address",
						"label": "mapping(address => uint256)",
						"numberOfBytes": "32",
						"value": "t_uint256"
					},
					"t_string_storage": {
						"encoding": "bytes",
						"label": "string",
						"numberOfBytes": "32"
					},
					"t_uint256": {
						"encoding": "inplace",
						"label": "uint256",
						"numberOfBytes": "32"
					}
				}
			},
			"userdoc": {
				"kind": "user",
				"methods": {},
				"version": 1
			}
		}
	}
}