{
	"contract/Example.sol": {
		"Example": {
			"abi": [
				{
					"inputs": [],
					"stateMutability": "nonpayable",
					"type": "constructor"
				},
				{
					"inputs": [
						{
							"internalType": "uint256",
							"name": "_number",
							"type": "uint256"
						},
						{
							"internalType": "string",
							"name": "_name",
							"type": "string"
						}
					],
					"name": "addFacebook",
					"outputs": [],
					"stateMutability": "nonpayable",
					"type": "function"
				},
				{
					"inputs": [],
					"name": "getName",
					"outputs": [
						{
							"internalType": "string",
							"name": "",
							"type": "string"
						}
					],
					"stateMutability": "view",
					"type": "function"
				},
				{
					"inputs": [
						{
							"internalType": "uint256",
							"name": "_number",
							"type": "uint256"
						}
					],
					"name": "getNameViaNumber",
					"outputs": [
						{
							"internalType": "string",
							"name": "",
							"type": "string"
						}
					],
					"stateMutability": "view",
					"type": "function"
				},
				{
					"inputs": [],
					"name": "getNumber",
					"outputs": [
						{
							"internalType": "uint256",
							"name": "",
							"type": "uint256"
						}
					],
					"stateMutability": "view",
					"type": "function"
				},
				{
					"inputs": [],
					"name": "getSender",
					"outputs": [
						{
							"internalType": "address",
							"name": "",
							"type": "address"
						}
					],
					"stateMutability": "view",
					"type": "function"
				},
				{
					"inputs": [],
					"name": "getTestStruct",
					"outputs": [
						{
							"components": [
								{
									"internalType": "uint256",
									"name": "number",
									"type": "uint256"
								},
								{
									"internalType": "string",
									"name": "name",
									"type": "string"
								},
								{
									"internalType": "bool",
									"name": "isStruct",
									"type": "bool"
								}
							],
							"internalType": "struct Example.TestStruct",
							"name": "",
							"type": "tuple"
						}
					],
					"stateMutability": "view",
					"type": "function"
				},
				{
					"inputs": [
						{
							"internalType": "uint256",
							"name": "_number",
							"type": "uint256"
						}
					],
					"name": "setIsEven",
					"outputs": [
						{
							"internalType": "bool",
							"name": "",
							"type": "bool"
						}
					],
					"stateMutability": "pure",
					"type": "function"
				},
				{
					"inputs": [
						{
							"internalType": "string",
							"name": "_name",
							"type": "string"
						}
					],
					"name": "setName",
					"outputs": [
						{
							"internalType": "bool",
							"name": "",
							"type": "bool"
						}
					],
					"stateMutability": "nonpayable",
					"type": "function"
				},
				{
					"inputs": [],
					"name": "testStruct",
					"outputs": [
						{
							"internalType": "uint256",
							"name": "number",
							"type": "uint256"
						},
						{
							"internalType": "string",
							"name": "name",
							"type": "string"
						},
						{
							"internalType": "bool",
							"name": "isStruct",
							"type": "bool"
						}
					],
					"stateMutability": "view",
					"type": "function"
				}
			],
			"devdoc": {
				"kind": "dev",
				"methods": {},
				"version": 1
			},
			"evm": {
				"assembly": "    /* \"contract/Example.sol\":66:1533  contract Example{\r... */\n  mstore(0x40, 0x80)\n    /* \"contract/Example.sol\":309:489  constructor(){\r... */\n  callvalue\n  dup1\n  iszero\n  tag_1\n  jumpi\n  0x00\n  dup1\n  revert\ntag_1:\n  pop\n    /* \"contract/Example.sol\":342:343  1 */\n  0x01\n    /* \"contract/Example.sol\":333:339  number */\n  0x00\n    /* \"contract/Example.sol\":333:343  number = 1 */\n  dup2\n  swap1\n  sstore\n  pop\n    /* \"contract/Example.sol\":354:367  name = \"name\" */\n  mload(0x40)\n  dup1\n  0x40\n  add\n  0x40\n  mstore\n  dup1\n  0x04\n  dup2\n  mstore\n  0x20\n  add\n  0x6e616d6500000000000000000000000000000000000000000000000000000000\n  dup2\n  mstore\n  pop\n    /* \"contract/Example.sol\":354:358  name */\n  0x01\n    /* \"contract/Example.sol\":354:367  name = \"name\" */\n  swap1\n  dup1\n  mload\n  swap1\n  0x20\n  add\n  swap1\n  tag_4\n  swap3\n  swap2\n  swap1\n  tag_5\n  jump\t// in\ntag_4:\n  pop\n    /* \"contract/Example.sol\":400:403  999 */\n  0x03e7\n    /* \"contract/Example.sol\":380:390  testStruct */\n  0x02\n    /* \"contract/Example.sol\":380:397  testStruct.number */\n  0x00\n  add\n    /* \"contract/Example.sol\":380:403  testStruct.number = 999 */\n  dup2\n  swap1\n  sstore\n  pop\n    /* \"contract/Example.sol\":414:444  testStruct.name = \"testStruct\" */\n  mload(0x40)\n  dup1\n  0x40\n  add\n  0x40\n  mstore\n  dup1\n  0x0a\n  dup2\n  mstore\n  0x20\n  add\n  0x7465737453747275637400000000000000000000000000000000000000000000\n  dup2\n  mstore\n  pop\n    /* \"contract/Example.sol\":414:424  testStruct */\n  0x02\n    /* \"contract/Example.sol\":414:429  testStruct.name */\n  0x01\n  add\n    /* \"contract/Example.sol\":414:444  testStruct.name = \"testStruct\" */\n  swap1\n  dup1\n  mload\n  swap1\n  0x20\n  add\n  swap1\n  tag_6\n  swap3\n  swap2\n  swap1\n  tag_5\n  jump\t// in\ntag_6:\n  pop\n    /* \"contract/Example.sol\":477:481  true */\n  0x01\n    /* \"contract/Example.sol\":455:465  testStruct */\n  0x02\n    /* \"contract/Example.sol\":455:474  testStruct.isStruct */\n  dup1\n  add\n  0x00\n    /* \"contract/Example.sol\":455:481  testStruct.isStruct = true */\n  0x0100\n  exp\n  dup2\n  sload\n  dup2\n  0xff\n  mul\n  not\n  and\n  swap1\n  dup4\n  iszero\n  iszero\n  mul\n  or\n  swap1\n  sstore\n  pop\n    /* \"contract/Example.sol\":66:1533  contract Example{\r... */\n  jump(tag_7)\ntag_5:\n  dup3\n  dup1\n  sload\n  tag_8\n  swap1\n  tag_9\n  jump\t// in\ntag_8:\n  swap1\n  0x00\n  mstore\n  keccak256(0x00, 0x20)\n  swap1\n  0x1f\n  add\n  0x20\n  swap1\n  div\n  dup2\n  add\n  swap3\n  dup3\n  tag_11\n  jumpi\n  0x00\n  dup6\n  sstore\n  jump(tag_10)\ntag_11:\n  dup3\n  0x1f\n  lt\n  tag_12\n  jumpi\n  dup1\n  mload\n  not(0xff)\n  and\n  dup4\n  dup1\n  add\n  or\n  dup6\n  sstore\n  jump(tag_10)\ntag_12:\n  dup3\n  dup1\n  add\n  0x01\n  add\n  dup6\n  sstore\n  dup3\n  iszero\n  tag_10\n  jumpi\n  swap2\n  dup3\n  add\ntag_13:\n  dup3\n  dup2\n  gt\n  iszero\n  tag_14\n  jumpi\n  dup3\n  mload\n  dup3\n  sstore\n  swap2\n  0x20\n  add\n  swap2\n  swap1\n  0x01\n  add\n  swap1\n  jump(tag_13)\ntag_14:\ntag_10:\n  pop\n  swap1\n  pop\n  tag_15\n  swap2\n  swap1\n  tag_16\n  jump\t// in\ntag_15:\n  pop\n  swap1\n  jump\t// out\ntag_16:\ntag_17:\n  dup1\n  dup3\n  gt\n  iszero\n  tag_18\n  jumpi\n  0x00\n  dup2\n  0x00\n  swap1\n  sstore\n  pop\n  0x01\n  add\n  jump(tag_17)\ntag_18:\n  pop\n  swap1\n  jump\t// out\n    /* \"#utility.yul\":7:327   */\ntag_9:\n    /* \"#utility.yul\":51:57   */\n  0x00\n    /* \"#utility.yul\":88:89   */\n  0x02\n    /* \"#utility.yul\":82:86   */\n  dup3\n    /* \"#utility.yul\":78:90   */\n  div\n    /* \"#utility.yul\":68:90   */\n  swap1\n  pop\n    /* \"#utility.yul\":135:136   */\n  0x01\n    /* \"#utility.yul\":129:133   */\n  dup3\n    /* \"#utility.yul\":125:137   */\n  and\n    /* \"#utility.yul\":156:174   */\n  dup1\n    /* \"#utility.yul\":146:227   */\n  tag_21\n  jumpi\n    /* \"#utility.yul\":212:216   */\n  0x7f\n    /* \"#utility.yul\":204:210   */\n  dup3\n    /* \"#utility.yul\":200:217   */\n  and\n    /* \"#utility.yul\":190:217   */\n  swap2\n  pop\n    /* \"#utility.yul\":146:227   */\ntag_21:\n    /* \"#utility.yul\":274:276   */\n  0x20\n    /* \"#utility.yul\":266:272   */\n  dup3\n    /* \"#utility.yul\":263:277   */\n  lt\n    /* \"#utility.yul\":243:261   */\n  dup2\n    /* \"#utility.yul\":240:278   */\n  eq\n    /* \"#utility.yul\":237:321   */\n  iszero\n  tag_22\n  jumpi\n    /* \"#utility.yul\":293:311   */\n  tag_23\n  tag_24\n  jump\t// in\ntag_23:\n    /* \"#utility.yul\":237:321   */\ntag_22:\n    /* \"#utility.yul\":58:327   */\n  pop\n    /* \"#utility.yul\":7:327   */\n  swap2\n  swap1\n  pop\n  jump\t// out\n    /* \"#utility.yul\":333:513   */\ntag_24:\n    /* \"#utility.yul\":381:458   */\n  0x4e487b7100000000000000000000000000000000000000000000000000000000\n    /* \"#utility.yul\":378:379   */\n  0x00\n    /* \"#utility.yul\":371:459   */\n  mstore\n    /* \"#utility.yul\":478:482   */\n  0x22\n    /* \"#utility.yul\":475:476   */\n  0x04\n    /* \"#utility.yul\":468:483   */\n  mstore\n    /* \"#utility.yul\":502:506   */\n  0x24\n    /* \"#utility.yul\":499:500   */\n  0x00\n    /* \"#utility.yul\":492:507   */\n  revert\n    /* \"contract/Example.sol\":66:1533  contract Example{\r... */\ntag_7:\n  dataSize(sub_0)\n  dup1\n  dataOffset(sub_0)\n  0x00\n  codecopy\n  0x00\n  return\nstop\n\nsub_0: assembly {\n        /* \"contract/Example.sol\":66:1533  contract Example{\r... */\n      mstore(0x40, 0x80)\n      callvalue\n      dup1\n      iszero\n      tag_1\n      jumpi\n      0x00\n      dup1\n      revert\n    tag_1:\n      pop\n      jumpi(tag_2, lt(calldatasize, 0x04))\n      shr(0xe0, calldataload(0x00))\n      dup1\n      0x6cfe622b\n      gt\n      tag_12\n      jumpi\n      dup1\n      0x6cfe622b\n      eq\n      tag_7\n      jumpi\n      dup1\n      0x9b0e317c\n      eq\n      tag_8\n      jumpi\n      dup1\n      0xc47f0027\n      eq\n      tag_9\n      jumpi\n      dup1\n      0xe6ecf728\n      eq\n      tag_10\n      jumpi\n      dup1\n      0xf2c9ecd8\n      eq\n      tag_11\n      jumpi\n      jump(tag_2)\n    tag_12:\n      dup1\n      0x151bfb8a\n      eq\n      tag_3\n      jumpi\n      dup1\n      0x17d7de7c\n      eq\n      tag_4\n      jumpi\n      dup1\n      0x42b12e24\n      eq\n      tag_5\n      jumpi\n      dup1\n      0x5e01eb5a\n      eq\n      tag_6\n      jumpi\n    tag_2:\n      0x00\n      dup1\n      revert\n        /* \"contract/Example.sol\":791:891  function getTestStruct() public view returns (TestStruct memory){\r... */\n    tag_3:\n      tag_13\n      tag_14\n      jump\t// in\n    tag_13:\n      mload(0x40)\n      tag_15\n      swap2\n      swap1\n      tag_16\n      jump\t// in\n    tag_15:\n      mload(0x40)\n      dup1\n      swap2\n      sub\n      swap1\n      return\n        /* \"contract/Example.sol\":1205:1289  function getName() public view returns (string memory){\r... */\n    tag_4:\n      tag_17\n      tag_18\n      jump\t// in\n    tag_17:\n      mload(0x40)\n      tag_19\n      swap2\n      swap1\n      tag_20\n      jump\t// in\n    tag_19:\n      mload(0x40)\n      dup1\n      swap2\n      sub\n      swap1\n      return\n        /* \"contract/Example.sol\":1297:1530  function setIsEven(uint256 _number) public pure returns (bool){ //pure는 데이터가 변화되지 않고 가스비가 적게 나옴\r... */\n    tag_5:\n      tag_21\n      0x04\n      dup1\n      calldatasize\n      sub\n      dup2\n      add\n      swap1\n      tag_22\n      swap2\n      swap1\n      tag_23\n      jump\t// in\n    tag_22:\n      tag_24\n      jump\t// in\n    tag_21:\n      mload(0x40)\n      tag_25\n      swap2\n      swap1\n      tag_26\n      jump\t// in\n    tag_25:\n      mload(0x40)\n      dup1\n      swap2\n      sub\n      swap1\n      return\n        /* \"contract/Example.sol\":899:985  function getSender() public view returns (address){\r... */\n    tag_6:\n      tag_27\n      tag_28\n      jump\t// in\n    tag_27:\n      mload(0x40)\n      tag_29\n      swap2\n      swap1\n      tag_30\n      jump\t// in\n    tag_29:\n      mload(0x40)\n      dup1\n      swap2\n      sub\n      swap1\n      return\n        /* \"contract/Example.sol\":497:603  function addFacebook(uint256 _number, string memory _name) public{\r... */\n    tag_7:\n      tag_31\n      0x04\n      dup1\n      calldatasize\n      sub\n      dup2\n      add\n      swap1\n      tag_32\n      swap2\n      swap1\n      tag_33\n      jump\t// in\n    tag_32:\n      tag_34\n      jump\t// in\n    tag_31:\n      stop\n        /* \"contract/Example.sol\":231:259  TestStruct public testStruct */\n    tag_8:\n      tag_35\n      tag_36\n      jump\t// in\n    tag_35:\n      mload(0x40)\n      tag_37\n      swap4\n      swap3\n      swap2\n      swap1\n      tag_38\n      jump\t// in\n    tag_37:\n      mload(0x40)\n      dup1\n      swap2\n      sub\n      swap1\n      return\n        /* \"contract/Example.sol\":1083:1197  function setName(string memory _name) public returns (bool){\r... */\n    tag_9:\n      tag_39\n      0x04\n      dup1\n      calldatasize\n      sub\n      dup2\n      add\n      swap1\n      tag_40\n      swap2\n      swap1\n      tag_41\n      jump\t// in\n    tag_40:\n      tag_42\n      jump\t// in\n    tag_39:\n      mload(0x40)\n      tag_43\n      swap2\n      swap1\n      tag_26\n      jump\t// in\n    tag_43:\n      mload(0x40)\n      dup1\n      swap2\n      sub\n      swap1\n      return\n        /* \"contract/Example.sol\":611:783  function getNameViaNumber(uint256 _number) public view returns (string memory){\r... */\n    tag_10:\n      tag_44\n      0x04\n      dup1\n      calldatasize\n      sub\n      dup2\n      add\n      swap1\n      tag_45\n      swap2\n      swap1\n      tag_23\n      jump\t// in\n    tag_45:\n      tag_46\n      jump\t// in\n    tag_44:\n      mload(0x40)\n      tag_47\n      swap2\n      swap1\n      tag_20\n      jump\t// in\n    tag_47:\n      mload(0x40)\n      dup1\n      swap2\n      sub\n      swap1\n      return\n        /* \"contract/Example.sol\":993:1075  function getNumber() public view returns (uint256){\r... */\n    tag_11:\n      tag_48\n      tag_49\n      jump\t// in\n    tag_48:\n      mload(0x40)\n      tag_50\n      swap2\n      swap1\n      tag_51\n      jump\t// in\n    tag_50:\n      mload(0x40)\n      dup1\n      swap2\n      sub\n      swap1\n      return\n        /* \"contract/Example.sol\":791:891  function getTestStruct() public view returns (TestStruct memory){\r... */\n    tag_14:\n        /* \"contract/Example.sol\":837:854  TestStruct memory */\n      tag_52\n      tag_53\n      jump\t// in\n    tag_52:\n        /* \"contract/Example.sol\":873:883  testStruct */\n      0x02\n        /* \"contract/Example.sol\":866:883  return testStruct */\n      mload(0x40)\n      dup1\n      0x60\n      add\n      0x40\n      mstore\n      swap1\n      dup2\n      0x00\n      dup3\n      add\n      sload\n      dup2\n      mstore\n      0x20\n      add\n      0x01\n      dup3\n      add\n      dup1\n      sload\n      tag_55\n      swap1\n      tag_56\n      jump\t// in\n    tag_55:\n      dup1\n      0x1f\n      add\n      0x20\n      dup1\n      swap2\n      div\n      mul\n      0x20\n      add\n      mload(0x40)\n      swap1\n      dup2\n      add\n      0x40\n      mstore\n      dup1\n      swap3\n      swap2\n      swap1\n      dup2\n      dup2\n      mstore\n      0x20\n      add\n      dup3\n      dup1\n      sload\n      tag_57\n      swap1\n      tag_56\n      jump\t// in\n    tag_57:\n      dup1\n      iszero\n      tag_58\n      jumpi\n      dup1\n      0x1f\n      lt\n      tag_59\n      jumpi\n      0x0100\n      dup1\n      dup4\n      sload\n      div\n      mul\n      dup4\n      mstore\n      swap2\n      0x20\n      add\n      swap2\n      jump(tag_58)\n    tag_59:\n      dup3\n      add\n      swap2\n      swap1\n      0x00\n      mstore\n      keccak256(0x00, 0x20)\n      swap1\n    tag_60:\n      dup2\n      sload\n      dup2\n      mstore\n      swap1\n      0x01\n      add\n      swap1\n      0x20\n      add\n      dup1\n      dup4\n      gt\n      tag_60\n      jumpi\n      dup3\n      swap1\n      sub\n      0x1f\n      and\n      dup3\n      add\n      swap2\n    tag_58:\n      pop\n      pop\n      pop\n      pop\n      pop\n      dup2\n      mstore\n      0x20\n      add\n      0x02\n      dup3\n      add\n      0x00\n      swap1\n      sload\n      swap1\n      0x0100\n      exp\n      swap1\n      div\n      0xff\n      and\n      iszero\n      iszero\n      iszero\n      iszero\n      dup2\n      mstore\n      pop\n      pop\n      swap1\n      pop\n        /* \"contract/Example.sol\":791:891  function getTestStruct() public view returns (TestStruct memory){\r... */\n      swap1\n      jump\t// out\n        /* \"contract/Example.sol\":1205:1289  function getName() public view returns (string memory){\r... */\n    tag_18:\n        /* \"contract/Example.sol\":1245:1258  string memory */\n      0x60\n        /* \"contract/Example.sol\":1277:1281  name */\n      0x01\n        /* \"contract/Example.sol\":1270:1281  return name */\n      dup1\n      sload\n      tag_62\n      swap1\n      tag_56\n      jump\t// in\n    tag_62:\n      dup1\n      0x1f\n      add\n      0x20\n      dup1\n      swap2\n      div\n      mul\n      0x20\n      add\n      mload(0x40)\n      swap1\n      dup2\n      add\n      0x40\n      mstore\n      dup1\n      swap3\n      swap2\n      swap1\n      dup2\n      dup2\n      mstore\n      0x20\n      add\n      dup3\n      dup1\n      sload\n      tag_63\n      swap1\n      tag_56\n      jump\t// in\n    tag_63:\n      dup1\n      iszero\n      tag_64\n      jumpi\n      dup1\n      0x1f\n      lt\n      tag_65\n      jumpi\n      0x0100\n      dup1\n      dup4\n      sload\n      div\n      mul\n      dup4\n      mstore\n      swap2\n      0x20\n      add\n      swap2\n      jump(tag_64)\n    tag_65:\n      dup3\n      add\n      swap2\n      swap1\n      0x00\n      mstore\n      keccak256(0x00, 0x20)\n      swap1\n    tag_66:\n      dup2\n      sload\n      dup2\n      mstore\n      swap1\n      0x01\n      add\n      swap1\n      0x20\n      add\n      dup1\n      dup4\n      gt\n      tag_66\n      jumpi\n      dup3\n      swap1\n      sub\n      0x1f\n      and\n      dup3\n      add\n      swap2\n    tag_64:\n      pop\n      pop\n      pop\n      pop\n      pop\n      swap1\n      pop\n        /* \"contract/Example.sol\":1205:1289  function getName() public view returns (string memory){\r... */\n      swap1\n      jump\t// out\n        /* \"contract/Example.sol\":1297:1530  function setIsEven(uint256 _number) public pure returns (bool){ //pure는 데이터가 변화되지 않고 가스비가 적게 나옴\r... */\n    tag_24:\n        /* \"contract/Example.sol\":1354:1358  bool */\n      0x00\n        /* \"contract/Example.sol\":1458:1459  0 */\n      dup1\n        /* \"contract/Example.sol\":1453:1454  2 */\n      0x02\n        /* \"contract/Example.sol\":1443:1450  _number */\n      dup4\n        /* \"contract/Example.sol\":1443:1454  _number % 2 */\n      tag_68\n      swap2\n      swap1\n      tag_69\n      jump\t// in\n    tag_68:\n        /* \"contract/Example.sol\":1443:1459  _number % 2 <= 0 */\n      gt\n        /* \"contract/Example.sol\":1440:1498  if(_number % 2 <= 0){\r... */\n      tag_70\n      jumpi\n        /* \"contract/Example.sol\":1482:1486  true */\n      0x01\n        /* \"contract/Example.sol\":1475:1486  return true */\n      swap1\n      pop\n      jump(tag_67)\n        /* \"contract/Example.sol\":1440:1498  if(_number % 2 <= 0){\r... */\n    tag_70:\n        /* \"contract/Example.sol\":1517:1522  false */\n      0x00\n        /* \"contract/Example.sol\":1510:1522  return false */\n      swap1\n      pop\n        /* \"contract/Example.sol\":1297:1530  function setIsEven(uint256 _number) public pure returns (bool){ //pure는 데이터가 변화되지 않고 가스비가 적게 나옴\r... */\n    tag_67:\n      swap2\n      swap1\n      pop\n      jump\t// out\n        /* \"contract/Example.sol\":899:985  function getSender() public view returns (address){\r... */\n    tag_28:\n        /* \"contract/Example.sol\":941:948  address */\n      0x00\n        /* \"contract/Example.sol\":967:977  msg.sender */\n      caller\n        /* \"contract/Example.sol\":960:977  return msg.sender */\n      swap1\n      pop\n        /* \"contract/Example.sol\":899:985  function getSender() public view returns (address){\r... */\n      swap1\n      jump\t// out\n        /* \"contract/Example.sol\":497:603  function addFacebook(uint256 _number, string memory _name) public{\r... */\n    tag_34:\n        /* \"contract/Example.sol\":590:595  _name */\n      dup1\n        /* \"contract/Example.sol\":573:578  names */\n      0x05\n        /* \"contract/Example.sol\":573:587  names[_number] */\n      0x00\n        /* \"contract/Example.sol\":579:586  _number */\n      dup5\n        /* \"contract/Example.sol\":573:587  names[_number] */\n      dup2\n      mstore\n      0x20\n      add\n      swap1\n      dup2\n      mstore\n      0x20\n      add\n      0x00\n      keccak256\n        /* \"contract/Example.sol\":573:595  names[_number] = _name */\n      swap1\n      dup1\n      mload\n      swap1\n      0x20\n      add\n      swap1\n      tag_73\n      swap3\n      swap2\n      swap1\n      tag_74\n      jump\t// in\n    tag_73:\n      pop\n        /* \"contract/Example.sol\":497:603  function addFacebook(uint256 _number, string memory _name) public{\r... */\n      pop\n      pop\n      jump\t// out\n        /* \"contract/Example.sol\":231:259  TestStruct public testStruct */\n    tag_36:\n      0x02\n      dup1\n      0x00\n      add\n      sload\n      swap1\n      dup1\n      0x01\n      add\n      dup1\n      sload\n      tag_75\n      swap1\n      tag_56\n      jump\t// in\n    tag_75:\n      dup1\n      0x1f\n      add\n      0x20\n      dup1\n      swap2\n      div\n      mul\n      0x20\n      add\n      mload(0x40)\n      swap1\n      dup2\n      add\n      0x40\n      mstore\n      dup1\n      swap3\n      swap2\n      swap1\n      dup2\n      dup2\n      mstore\n      0x20\n      add\n      dup3\n      dup1\n      sload\n      tag_76\n      swap1\n      tag_56\n      jump\t// in\n    tag_76:\n      dup1\n      iszero\n      tag_77\n      jumpi\n      dup1\n      0x1f\n      lt\n      tag_78\n      jumpi\n      0x0100\n      dup1\n      dup4\n      sload\n      div\n      mul\n      dup4\n      mstore\n      swap2\n      0x20\n      add\n      swap2\n      jump(tag_77)\n    tag_78:\n      dup3\n      add\n      swap2\n      swap1\n      0x00\n      mstore\n      keccak256(0x00, 0x20)\n      swap1\n    tag_79:\n      dup2\n      sload\n      dup2\n      mstore\n      swap1\n      0x01\n      add\n      swap1\n      0x20\n      add\n      dup1\n      dup4\n      gt\n      tag_79\n      jumpi\n      dup3\n      swap1\n      sub\n      0x1f\n      and\n      dup3\n      add\n      swap2\n    tag_77:\n      pop\n      pop\n      pop\n      pop\n      pop\n      swap1\n      dup1\n      0x02\n      add\n      0x00\n      swap1\n      sload\n      swap1\n      0x0100\n      exp\n      swap1\n      div\n      0xff\n      and\n      swap1\n      pop\n      dup4\n      jump\t// out\n        /* \"contract/Example.sol\":1083:1197  function setName(string memory _name) public returns (bool){\r... */\n    tag_42:\n        /* \"contract/Example.sol\":1137:1141  bool */\n      0x00\n        /* \"contract/Example.sol\":1160:1165  _name */\n      dup2\n        /* \"contract/Example.sol\":1153:1157  name */\n      0x01\n        /* \"contract/Example.sol\":1153:1165  name = _name */\n      swap1\n      dup1\n      mload\n      swap1\n      0x20\n      add\n      swap1\n      tag_81\n      swap3\n      swap2\n      swap1\n      tag_74\n      jump\t// in\n    tag_81:\n      pop\n        /* \"contract/Example.sol\":1185:1189  true */\n      0x01\n        /* \"contract/Example.sol\":1178:1189  return true */\n      swap1\n      pop\n        /* \"contract/Example.sol\":1083:1197  function setName(string memory _name) public returns (bool){\r... */\n      swap2\n      swap1\n      pop\n      jump\t// out\n        /* \"contract/Example.sol\":611:783  function getNameViaNumber(uint256 _number) public view returns (string memory){\r... */\n    tag_46:\n        /* \"contract/Example.sol\":675:688  string memory */\n      0x60\n        /* \"contract/Example.sol\":739:740  0 */\n      0x00\n        /* \"contract/Example.sol\":714:719  names */\n      0x05\n        /* \"contract/Example.sol\":714:728  names[_number] */\n      0x00\n        /* \"contract/Example.sol\":720:727  _number */\n      dup5\n        /* \"contract/Example.sol\":714:728  names[_number] */\n      dup2\n      mstore\n      0x20\n      add\n      swap1\n      dup2\n      mstore\n      0x20\n      add\n      0x00\n      keccak256\n        /* \"contract/Example.sol\":708:736  bytes(names[_number]).length */\n      dup1\n      sload\n      tag_83\n      swap1\n      tag_56\n      jump\t// in\n    tag_83:\n      swap1\n      pop\n        /* \"contract/Example.sol\":708:740  bytes(names[_number]).length > 0 */\n      gt\n        /* \"contract/Example.sol\":700:741  require(bytes(names[_number]).length > 0) */\n      tag_84\n      jumpi\n      0x00\n      dup1\n      revert\n    tag_84:\n        /* \"contract/Example.sol\":761:766  names */\n      0x05\n        /* \"contract/Example.sol\":761:775  names[_number] */\n      0x00\n        /* \"contract/Example.sol\":767:774  _number */\n      dup4\n        /* \"contract/Example.sol\":761:775  names[_number] */\n      dup2\n      mstore\n      0x20\n      add\n      swap1\n      dup2\n      mstore\n      0x20\n      add\n      0x00\n      keccak256\n        /* \"contract/Example.sol\":754:775  return names[_number] */\n      dup1\n      sload\n      tag_85\n      swap1\n      tag_56\n      jump\t// in\n    tag_85:\n      dup1\n      0x1f\n      add\n      0x20\n      dup1\n      swap2\n      div\n      mul\n      0x20\n      add\n      mload(0x40)\n      swap1\n      dup2\n      add\n      0x40\n      mstore\n      dup1\n      swap3\n      swap2\n      swap1\n      dup2\n      dup2\n      mstore\n      0x20\n      add\n      dup3\n      dup1\n      sload\n      tag_86\n      swap1\n      tag_56\n      jump\t// in\n    tag_86:\n      dup1\n      iszero\n      tag_87\n      jumpi\n      dup1\n      0x1f\n      lt\n      tag_88\n      jumpi\n      0x0100\n      dup1\n      dup4\n      sload\n      div\n      mul\n      dup4\n      mstore\n      swap2\n      0x20\n      add\n      swap2\n      jump(tag_87)\n    tag_88:\n      dup3\n      add\n      swap2\n      swap1\n      0x00\n      mstore\n      keccak256(0x00, 0x20)\n      swap1\n    tag_89:\n      dup2\n      sload\n      dup2\n      mstore\n      swap1\n      0x01\n      add\n      swap1\n      0x20\n      add\n      dup1\n      dup4\n      gt\n      tag_89\n      jumpi\n      dup3\n      swap1\n      sub\n      0x1f\n      and\n      dup3\n      add\n      swap2\n    tag_87:\n      pop\n      pop\n      pop\n      pop\n      pop\n      swap1\n      pop\n        /* \"contract/Example.sol\":611:783  function getNameViaNumber(uint256 _number) public view returns (string memory){\r... */\n      swap2\n      swap1\n      pop\n      jump\t// out\n        /* \"contract/Example.sol\":993:1075  function getNumber() public view returns (uint256){\r... */\n    tag_49:\n        /* \"contract/Example.sol\":1035:1042  uint256 */\n      0x00\n        /* \"contract/Example.sol\":1061:1067  number */\n      dup1\n      sload\n        /* \"contract/Example.sol\":1054:1067  return number */\n      swap1\n      pop\n        /* \"contract/Example.sol\":993:1075  function getNumber() public view returns (uint256){\r... */\n      swap1\n      jump\t// out\n    tag_53:\n      mload(0x40)\n      dup1\n      0x60\n      add\n      0x40\n      mstore\n      dup1\n      0x00\n      dup2\n      mstore\n      0x20\n      add\n      0x60\n      dup2\n      mstore\n      0x20\n      add\n      iszero(iszero(0x00))\n      dup2\n      mstore\n      pop\n      swap1\n      jump\t// out\n    tag_74:\n      dup3\n      dup1\n      sload\n      tag_91\n      swap1\n      tag_56\n      jump\t// in\n    tag_91:\n      swap1\n      0x00\n      mstore\n      keccak256(0x00, 0x20)\n      swap1\n      0x1f\n      add\n      0x20\n      swap1\n      div\n      dup2\n      add\n      swap3\n      dup3\n      tag_93\n      jumpi\n      0x00\n      dup6\n      sstore\n      jump(tag_92)\n    tag_93:\n      dup3\n      0x1f\n      lt\n      tag_94\n      jumpi\n      dup1\n      mload\n      not(0xff)\n      and\n      dup4\n      dup1\n      add\n      or\n      dup6\n      sstore\n      jump(tag_92)\n    tag_94:\n      dup3\n      dup1\n      add\n      0x01\n      add\n      dup6\n      sstore\n      dup3\n      iszero\n      tag_92\n      jumpi\n      swap2\n      dup3\n      add\n    tag_95:\n      dup3\n      dup2\n      gt\n      iszero\n      tag_96\n      jumpi\n      dup3\n      mload\n      dup3\n      sstore\n      swap2\n      0x20\n      add\n      swap2\n      swap1\n      0x01\n      add\n      swap1\n      jump(tag_95)\n    tag_96:\n    tag_92:\n      pop\n      swap1\n      pop\n      tag_97\n      swap2\n      swap1\n      tag_98\n      jump\t// in\n    tag_97:\n      pop\n      swap1\n      jump\t// out\n    tag_98:\n    tag_99:\n      dup1\n      dup3\n      gt\n      iszero\n      tag_100\n      jumpi\n      0x00\n      dup2\n      0x00\n      swap1\n      sstore\n      pop\n      0x01\n      add\n      jump(tag_99)\n    tag_100:\n      pop\n      swap1\n      jump\t// out\n        /* \"#utility.yul\":7:419   */\n    tag_102:\n        /* \"#utility.yul\":85:90   */\n      0x00\n        /* \"#utility.yul\":110:176   */\n      tag_104\n        /* \"#utility.yul\":126:175   */\n      tag_105\n        /* \"#utility.yul\":168:174   */\n      dup5\n        /* \"#utility.yul\":126:175   */\n      tag_106\n      jump\t// in\n    tag_105:\n        /* \"#utility.yul\":110:176   */\n      tag_107\n      jump\t// in\n    tag_104:\n        /* \"#utility.yul\":101:176   */\n      swap1\n      pop\n        /* \"#utility.yul\":199:205   */\n      dup3\n        /* \"#utility.yul\":192:197   */\n      dup2\n        /* \"#utility.yul\":185:206   */\n      mstore\n        /* \"#utility.yul\":237:241   */\n      0x20\n        /* \"#utility.yul\":230:235   */\n      dup2\n        /* \"#utility.yul\":226:242   */\n      add\n        /* \"#utility.yul\":275:278   */\n      dup5\n        /* \"#utility.yul\":266:272   */\n      dup5\n        /* \"#utility.yul\":261:264   */\n      dup5\n        /* \"#utility.yul\":257:273   */\n      add\n        /* \"#utility.yul\":254:279   */\n      gt\n        /* \"#utility.yul\":251:363   */\n      iszero\n      tag_108\n      jumpi\n        /* \"#utility.yul\":282:361   */\n      tag_109\n      tag_110\n      jump\t// in\n    tag_109:\n        /* \"#utility.yul\":251:363   */\n    tag_108:\n        /* \"#utility.yul\":372:413   */\n      tag_111\n        /* \"#utility.yul\":406:412   */\n      dup5\n        /* \"#utility.yul\":401:404   */\n      dup3\n        /* \"#utility.yul\":396:399   */\n      dup6\n        /* \"#utility.yul\":372:413   */\n      tag_112\n      jump\t// in\n    tag_111:\n        /* \"#utility.yul\":91:419   */\n      pop\n        /* \"#utility.yul\":7:419   */\n      swap4\n      swap3\n      pop\n      pop\n      pop\n      jump\t// out\n        /* \"#utility.yul\":439:779   */\n    tag_113:\n        /* \"#utility.yul\":495:500   */\n      0x00\n        /* \"#utility.yul\":544:547   */\n      dup3\n        /* \"#utility.yul\":537:541   */\n      0x1f\n        /* \"#utility.yul\":529:535   */\n      dup4\n        /* \"#utility.yul\":525:542   */\n      add\n        /* \"#utility.yul\":521:548   */\n      slt\n        /* \"#utility.yul\":511:633   */\n      tag_115\n      jumpi\n        /* \"#utility.yul\":552:631   */\n      tag_116\n      tag_117\n      jump\t// in\n    tag_116:\n        /* \"#utility.yul\":511:633   */\n    tag_115:\n        /* \"#utility.yul\":669:675   */\n      dup2\n        /* \"#utility.yul\":656:676   */\n      calldataload\n        /* \"#utility.yul\":694:773   */\n      tag_118\n        /* \"#utility.yul\":769:772   */\n      dup5\n        /* \"#utility.yul\":761:767   */\n      dup3\n        /* \"#utility.yul\":754:758   */\n      0x20\n        /* \"#utility.yul\":746:752   */\n      dup7\n        /* \"#utility.yul\":742:759   */\n      add\n        /* \"#utility.yul\":694:773   */\n      tag_102\n      jump\t// in\n    tag_118:\n        /* \"#utility.yul\":685:773   */\n      swap2\n      pop\n        /* \"#utility.yul\":501:779   */\n      pop\n        /* \"#utility.yul\":439:779   */\n      swap3\n      swap2\n      pop\n      pop\n      jump\t// out\n        /* \"#utility.yul\":785:924   */\n    tag_119:\n        /* \"#utility.yul\":831:836   */\n      0x00\n        /* \"#utility.yul\":869:875   */\n      dup2\n        /* \"#utility.yul\":856:876   */\n      calldataload\n        /* \"#utility.yul\":847:876   */\n      swap1\n      pop\n        /* \"#utility.yul\":885:918   */\n      tag_121\n        /* \"#utility.yul\":912:917   */\n      dup2\n        /* \"#utility.yul\":885:918   */\n      tag_122\n      jump\t// in\n    tag_121:\n        /* \"#utility.yul\":785:924   */\n      swap3\n      swap2\n      pop\n      pop\n      jump\t// out\n        /* \"#utility.yul\":930:1439   */\n    tag_41:\n        /* \"#utility.yul\":999:1005   */\n      0x00\n        /* \"#utility.yul\":1048:1050   */\n      0x20\n        /* \"#utility.yul\":1036:1045   */\n      dup3\n        /* \"#utility.yul\":1027:1034   */\n      dup5\n        /* \"#utility.yul\":1023:1046   */\n      sub\n        /* \"#utility.yul\":1019:1051   */\n      slt\n        /* \"#utility.yul\":1016:1135   */\n      iszero\n      tag_124\n      jumpi\n        /* \"#utility.yul\":1054:1133   */\n      tag_125\n      tag_126\n      jump\t// in\n    tag_125:\n        /* \"#utility.yul\":1016:1135   */\n    tag_124:\n        /* \"#utility.yul\":1202:1203   */\n      0x00\n        /* \"#utility.yul\":1191:1200   */\n      dup3\n        /* \"#utility.yul\":1187:1204   */\n      add\n        /* \"#utility.yul\":1174:1205   */\n      calldataload\n        /* \"#utility.yul\":1232:1250   */\n      0xffffffffffffffff\n        /* \"#utility.yul\":1224:1230   */\n      dup2\n        /* \"#utility.yul\":1221:1251   */\n      gt\n        /* \"#utility.yul\":1218:1335   */\n      iszero\n      tag_127\n      jumpi\n        /* \"#utility.yul\":1254:1333   */\n      tag_128\n      tag_129\n      jump\t// in\n    tag_128:\n        /* \"#utility.yul\":1218:1335   */\n    tag_127:\n        /* \"#utility.yul\":1359:1422   */\n      tag_130\n        /* \"#utility.yul\":1414:1421   */\n      dup5\n        /* \"#utility.yul\":1405:1411   */\n      dup3\n        /* \"#utility.yul\":1394:1403   */\n      dup6\n        /* \"#utility.yul\":1390:1412   */\n      add\n        /* \"#utility.yul\":1359:1422   */\n      tag_113\n      jump\t// in\n    tag_130:\n        /* \"#utility.yul\":1349:1422   */\n      swap2\n      pop\n        /* \"#utility.yul\":1145:1432   */\n      pop\n        /* \"#utility.yul\":930:1439   */\n      swap3\n      swap2\n      pop\n      pop\n      jump\t// out\n        /* \"#utility.yul\":1445:1774   */\n    tag_23:\n        /* \"#utility.yul\":1504:1510   */\n      0x00\n        /* \"#utility.yul\":1553:1555   */\n      0x20\n        /* \"#utility.yul\":1541:1550   */\n      dup3\n        /* \"#utility.yul\":1532:1539   */\n      dup5\n        /* \"#utility.yul\":1528:1551   */\n      sub\n        /* \"#utility.yul\":1524:1556   */\n      slt\n        /* \"#utility.yul\":1521:1640   */\n      iszero\n      tag_132\n      jumpi\n        /* \"#utility.yul\":1559:1638   */\n      tag_133\n      tag_126\n      jump\t// in\n    tag_133:\n        /* \"#utility.yul\":1521:1640   */\n    tag_132:\n        /* \"#utility.yul\":1679:1680   */\n      0x00\n        /* \"#utility.yul\":1704:1757   */\n      tag_134\n        /* \"#utility.yul\":1749:1756   */\n      dup5\n        /* \"#utility.yul\":1740:1746   */\n      dup3\n        /* \"#utility.yul\":1729:1738   */\n      dup6\n        /* \"#utility.yul\":1725:1747   */\n      add\n        /* \"#utility.yul\":1704:1757   */\n      tag_119\n      jump\t// in\n    tag_134:\n        /* \"#utility.yul\":1694:1757   */\n      swap2\n      pop\n        /* \"#utility.yul\":1650:1767   */\n      pop\n        /* \"#utility.yul\":1445:1774   */\n      swap3\n      swap2\n      pop\n      pop\n      jump\t// out\n        /* \"#utility.yul\":1780:2434   */\n    tag_33:\n        /* \"#utility.yul\":1858:1864   */\n      0x00\n        /* \"#utility.yul\":1866:1872   */\n      dup1\n        /* \"#utility.yul\":1915:1917   */\n      0x40\n        /* \"#utility.yul\":1903:1912   */\n      dup4\n        /* \"#utility.yul\":1894:1901   */\n      dup6\n        /* \"#utility.yul\":1890:1913   */\n      sub\n        /* \"#utility.yul\":1886:1918   */\n      slt\n        /* \"#utility.yul\":1883:2002   */\n      iszero\n      tag_136\n      jumpi\n        /* \"#utility.yul\":1921:2000   */\n      tag_137\n      tag_126\n      jump\t// in\n    tag_137:\n        /* \"#utility.yul\":1883:2002   */\n    tag_136:\n        /* \"#utility.yul\":2041:2042   */\n      0x00\n        /* \"#utility.yul\":2066:2119   */\n      tag_138\n        /* \"#utility.yul\":2111:2118   */\n      dup6\n        /* \"#utility.yul\":2102:2108   */\n      dup3\n        /* \"#utility.yul\":2091:2100   */\n      dup7\n        /* \"#utility.yul\":2087:2109   */\n      add\n        /* \"#utility.yul\":2066:2119   */\n      tag_119\n      jump\t// in\n    tag_138:\n        /* \"#utility.yul\":2056:2119   */\n      swap3\n      pop\n        /* \"#utility.yul\":2012:2129   */\n      pop\n        /* \"#utility.yul\":2196:2198   */\n      0x20\n        /* \"#utility.yul\":2185:2194   */\n      dup4\n        /* \"#utility.yul\":2181:2199   */\n      add\n        /* \"#utility.yul\":2168:2200   */\n      calldataload\n        /* \"#utility.yul\":2227:2245   */\n      0xffffffffffffffff\n        /* \"#utility.yul\":2219:2225   */\n      dup2\n        /* \"#utility.yul\":2216:2246   */\n      gt\n        /* \"#utility.yul\":2213:2330   */\n      iszero\n      tag_139\n      jumpi\n        /* \"#utility.yul\":2249:2328   */\n      tag_140\n      tag_129\n      jump\t// in\n    tag_140:\n        /* \"#utility.yul\":2213:2330   */\n    tag_139:\n        /* \"#utility.yul\":2354:2417   */\n      tag_141\n        /* \"#utility.yul\":2409:2416   */\n      dup6\n        /* \"#utility.yul\":2400:2406   */\n      dup3\n        /* \"#utility.yul\":2389:2398   */\n      dup7\n        /* \"#utility.yul\":2385:2407   */\n      add\n        /* \"#utility.yul\":2354:2417   */\n      tag_113\n      jump\t// in\n    tag_141:\n        /* \"#utility.yul\":2344:2417   */\n      swap2\n      pop\n        /* \"#utility.yul\":2139:2427   */\n      pop\n        /* \"#utility.yul\":1780:2434   */\n      swap3\n      pop\n      swap3\n      swap1\n      pop\n      jump\t// out\n        /* \"#utility.yul\":2440:2558   */\n    tag_142:\n        /* \"#utility.yul\":2527:2551   */\n      tag_144\n        /* \"#utility.yul\":2545:2550   */\n      dup2\n        /* \"#utility.yul\":2527:2551   */\n      tag_145\n      jump\t// in\n    tag_144:\n        /* \"#utility.yul\":2522:2525   */\n      dup3\n        /* \"#utility.yul\":2515:2552   */\n      mstore\n        /* \"#utility.yul\":2440:2558   */\n      pop\n      pop\n      jump\t// out\n        /* \"#utility.yul\":2564:2663   */\n    tag_146:\n        /* \"#utility.yul\":2635:2656   */\n      tag_148\n        /* \"#utility.yul\":2650:2655   */\n      dup2\n        /* \"#utility.yul\":2635:2656   */\n      tag_149\n      jump\t// in\n    tag_148:\n        /* \"#utility.yul\":2630:2633   */\n      dup3\n        /* \"#utility.yul\":2623:2657   */\n      mstore\n        /* \"#utility.yul\":2564:2663   */\n      pop\n      pop\n      jump\t// out\n        /* \"#utility.yul\":2669:2778   */\n    tag_150:\n        /* \"#utility.yul\":2750:2771   */\n      tag_152\n        /* \"#utility.yul\":2765:2770   */\n      dup2\n        /* \"#utility.yul\":2750:2771   */\n      tag_149\n      jump\t// in\n    tag_152:\n        /* \"#utility.yul\":2745:2748   */\n      dup3\n        /* \"#utility.yul\":2738:2772   */\n      mstore\n        /* \"#utility.yul\":2669:2778   */\n      pop\n      pop\n      jump\t// out\n        /* \"#utility.yul\":2784:3128   */\n    tag_153:\n        /* \"#utility.yul\":2862:2865   */\n      0x00\n        /* \"#utility.yul\":2890:2929   */\n      tag_155\n        /* \"#utility.yul\":2923:2928   */\n      dup3\n        /* \"#utility.yul\":2890:2929   */\n      tag_156\n      jump\t// in\n    tag_155:\n        /* \"#utility.yul\":2945:3006   */\n      tag_157\n        /* \"#utility.yul\":2999:3005   */\n      dup2\n        /* \"#utility.yul\":2994:2997   */\n      dup6\n        /* \"#utility.yul\":2945:3006   */\n      tag_158\n      jump\t// in\n    tag_157:\n        /* \"#utility.yul\":2938:3006   */\n      swap4\n      pop\n        /* \"#utility.yul\":3015:3067   */\n      tag_159\n        /* \"#utility.yul\":3060:3066   */\n      dup2\n        /* \"#utility.yul\":3055:3058   */\n      dup6\n        /* \"#utility.yul\":3048:3052   */\n      0x20\n        /* \"#utility.yul\":3041:3046   */\n      dup7\n        /* \"#utility.yul\":3037:3053   */\n      add\n        /* \"#utility.yul\":3015:3067   */\n      tag_160\n      jump\t// in\n    tag_159:\n        /* \"#utility.yul\":3092:3121   */\n      tag_161\n        /* \"#utility.yul\":3114:3120   */\n      dup2\n        /* \"#utility.yul\":3092:3121   */\n      tag_162\n      jump\t// in\n    tag_161:\n        /* \"#utility.yul\":3087:3090   */\n      dup5\n        /* \"#utility.yul\":3083:3122   */\n      add\n        /* \"#utility.yul\":3076:3122   */\n      swap2\n      pop\n        /* \"#utility.yul\":2866:3128   */\n      pop\n        /* \"#utility.yul\":2784:3128   */\n      swap3\n      swap2\n      pop\n      pop\n      jump\t// out\n        /* \"#utility.yul\":3134:3498   */\n    tag_163:\n        /* \"#utility.yul\":3222:3225   */\n      0x00\n        /* \"#utility.yul\":3250:3289   */\n      tag_165\n        /* \"#utility.yul\":3283:3288   */\n      dup3\n        /* \"#utility.yul\":3250:3289   */\n      tag_156\n      jump\t// in\n    tag_165:\n        /* \"#utility.yul\":3305:3376   */\n      tag_166\n        /* \"#utility.yul\":3369:3375   */\n      dup2\n        /* \"#utility.yul\":3364:3367   */\n      dup6\n        /* \"#utility.yul\":3305:3376   */\n      tag_167\n      jump\t// in\n    tag_166:\n        /* \"#utility.yul\":3298:3376   */\n      swap4\n      pop\n        /* \"#utility.yul\":3385:3437   */\n      tag_168\n        /* \"#utility.yul\":3430:3436   */\n      dup2\n        /* \"#utility.yul\":3425:3428   */\n      dup6\n        /* \"#utility.yul\":3418:3422   */\n      0x20\n        /* \"#utility.yul\":3411:3416   */\n      dup7\n        /* \"#utility.yul\":3407:3423   */\n      add\n        /* \"#utility.yul\":3385:3437   */\n      tag_160\n      jump\t// in\n    tag_168:\n        /* \"#utility.yul\":3462:3491   */\n      tag_169\n        /* \"#utility.yul\":3484:3490   */\n      dup2\n        /* \"#utility.yul\":3462:3491   */\n      tag_162\n      jump\t// in\n    tag_169:\n        /* \"#utility.yul\":3457:3460   */\n      dup5\n        /* \"#utility.yul\":3453:3492   */\n      add\n        /* \"#utility.yul\":3446:3492   */\n      swap2\n      pop\n        /* \"#utility.yul\":3226:3498   */\n      pop\n        /* \"#utility.yul\":3134:3498   */\n      swap3\n      swap2\n      pop\n      pop\n      jump\t// out\n        /* \"#utility.yul\":3566:4348   */\n    tag_170:\n        /* \"#utility.yul\":3687:3690   */\n      0x00\n        /* \"#utility.yul\":3723:3727   */\n      0x60\n        /* \"#utility.yul\":3718:3721   */\n      dup4\n        /* \"#utility.yul\":3714:3728   */\n      add\n        /* \"#utility.yul\":3812:3816   */\n      0x00\n        /* \"#utility.yul\":3805:3810   */\n      dup4\n        /* \"#utility.yul\":3801:3817   */\n      add\n        /* \"#utility.yul\":3795:3818   */\n      mload\n        /* \"#utility.yul\":3831:3894   */\n      tag_172\n        /* \"#utility.yul\":3888:3892   */\n      0x00\n        /* \"#utility.yul\":3883:3886   */\n      dup7\n        /* \"#utility.yul\":3879:3893   */\n      add\n        /* \"#utility.yul\":3865:3877   */\n      dup3\n        /* \"#utility.yul\":3831:3894   */\n      tag_173\n      jump\t// in\n    tag_172:\n        /* \"#utility.yul\":3738:3904   */\n      pop\n        /* \"#utility.yul\":3986:3990   */\n      0x20\n        /* \"#utility.yul\":3979:3984   */\n      dup4\n        /* \"#utility.yul\":3975:3991   */\n      add\n        /* \"#utility.yul\":3969:3992   */\n      mload\n        /* \"#utility.yul\":4039:4042   */\n      dup5\n        /* \"#utility.yul\":4033:4037   */\n      dup3\n        /* \"#utility.yul\":4029:4043   */\n      sub\n        /* \"#utility.yul\":4022:4026   */\n      0x20\n        /* \"#utility.yul\":4017:4020   */\n      dup7\n        /* \"#utility.yul\":4013:4027   */\n      add\n        /* \"#utility.yul\":4006:4044   */\n      mstore\n        /* \"#utility.yul\":4065:4138   */\n      tag_174\n        /* \"#utility.yul\":4133:4137   */\n      dup3\n        /* \"#utility.yul\":4119:4131   */\n      dup3\n        /* \"#utility.yul\":4065:4138   */\n      tag_153\n      jump\t// in\n    tag_174:\n        /* \"#utility.yul\":4057:4138   */\n      swap2\n      pop\n        /* \"#utility.yul\":3914:4149   */\n      pop\n        /* \"#utility.yul\":4235:4239   */\n      0x40\n        /* \"#utility.yul\":4228:4233   */\n      dup4\n        /* \"#utility.yul\":4224:4240   */\n      add\n        /* \"#utility.yul\":4218:4241   */\n      mload\n        /* \"#utility.yul\":4254:4311   */\n      tag_175\n        /* \"#utility.yul\":4305:4309   */\n      0x40\n        /* \"#utility.yul\":4300:4303   */\n      dup7\n        /* \"#utility.yul\":4296:4310   */\n      add\n        /* \"#utility.yul\":4282:4294   */\n      dup3\n        /* \"#utility.yul\":4254:4311   */\n      tag_146\n      jump\t// in\n    tag_175:\n        /* \"#utility.yul\":4159:4321   */\n      pop\n        /* \"#utility.yul\":4338:4342   */\n      dup1\n        /* \"#utility.yul\":4331:4342   */\n      swap2\n      pop\n        /* \"#utility.yul\":3692:4348   */\n      pop\n        /* \"#utility.yul\":3566:4348   */\n      swap3\n      swap2\n      pop\n      pop\n      jump\t// out\n        /* \"#utility.yul\":4354:4462   */\n    tag_173:\n        /* \"#utility.yul\":4431:4455   */\n      tag_177\n        /* \"#utility.yul\":4449:4454   */\n      dup2\n        /* \"#utility.yul\":4431:4455   */\n      tag_178\n      jump\t// in\n    tag_177:\n        /* \"#utility.yul\":4426:4429   */\n      dup3\n        /* \"#utility.yul\":4419:4456   */\n      mstore\n        /* \"#utility.yul\":4354:4462   */\n      pop\n      pop\n      jump\t// out\n        /* \"#utility.yul\":4468:4586   */\n    tag_179:\n        /* \"#utility.yul\":4555:4579   */\n      tag_181\n        /* \"#utility.yul\":4573:4578   */\n      dup2\n        /* \"#utility.yul\":4555:4579   */\n      tag_178\n      jump\t// in\n    tag_181:\n        /* \"#utility.yul\":4550:4553   */\n      dup3\n        /* \"#utility.yul\":4543:4580   */\n      mstore\n        /* \"#utility.yul\":4468:4586   */\n      pop\n      pop\n      jump\t// out\n        /* \"#utility.yul\":4592:4814   */\n    tag_30:\n        /* \"#utility.yul\":4685:4689   */\n      0x00\n        /* \"#utility.yul\":4723:4725   */\n      0x20\n        /* \"#utility.yul\":4712:4721   */\n      dup3\n        /* \"#utility.yul\":4708:4726   */\n      add\n        /* \"#utility.yul\":4700:4726   */\n      swap1\n      pop\n        /* \"#utility.yul\":4736:4807   */\n      tag_183\n        /* \"#utility.yul\":4804:4805   */\n      0x00\n        /* \"#utility.yul\":4793:4802   */\n      dup4\n        /* \"#utility.yul\":4789:4806   */\n      add\n        /* \"#utility.yul\":4780:4786   */\n      dup5\n        /* \"#utility.yul\":4736:4807   */\n      tag_142\n      jump\t// in\n    tag_183:\n        /* \"#utility.yul\":4592:4814   */\n      swap3\n      swap2\n      pop\n      pop\n      jump\t// out\n        /* \"#utility.yul\":4820:5030   */\n    tag_26:\n        /* \"#utility.yul\":4907:4911   */\n      0x00\n        /* \"#utility.yul\":4945:4947   */\n      0x20\n        /* \"#utility.yul\":4934:4943   */\n      dup3\n        /* \"#utility.yul\":4930:4948   */\n      add\n        /* \"#utility.yul\":4922:4948   */\n      swap1\n      pop\n        /* \"#utility.yul\":4958:5023   */\n      tag_185\n        /* \"#utility.yul\":5020:5021   */\n      0x00\n        /* \"#utility.yul\":5009:5018   */\n      dup4\n        /* \"#utility.yul\":5005:5022   */\n      add\n        /* \"#utility.yul\":4996:5002   */\n      dup5\n        /* \"#utility.yul\":4958:5023   */\n      tag_150\n      jump\t// in\n    tag_185:\n        /* \"#utility.yul\":4820:5030   */\n      swap3\n      swap2\n      pop\n      pop\n      jump\t// out\n        /* \"#utility.yul\":5036:5349   */\n    tag_20:\n        /* \"#utility.yul\":5149:5153   */\n      0x00\n        /* \"#utility.yul\":5187:5189   */\n      0x20\n        /* \"#utility.yul\":5176:5185   */\n      dup3\n        /* \"#utility.yul\":5172:5190   */\n      add\n        /* \"#utility.yul\":5164:5190   */\n      swap1\n      pop\n        /* \"#utility.yul\":5236:5245   */\n      dup2\n        /* \"#utility.yul\":5230:5234   */\n      dup2\n        /* \"#utility.yul\":5226:5246   */\n      sub\n        /* \"#utility.yul\":5222:5223   */\n      0x00\n        /* \"#utility.yul\":5211:5220   */\n      dup4\n        /* \"#utility.yul\":5207:5224   */\n      add\n        /* \"#utility.yul\":5200:5247   */\n      mstore\n        /* \"#utility.yul\":5264:5342   */\n      tag_187\n        /* \"#utility.yul\":5337:5341   */\n      dup2\n        /* \"#utility.yul\":5328:5334   */\n      dup5\n        /* \"#utility.yul\":5264:5342   */\n      tag_163\n      jump\t// in\n    tag_187:\n        /* \"#utility.yul\":5256:5342   */\n      swap1\n      pop\n        /* \"#utility.yul\":5036:5349   */\n      swap3\n      swap2\n      pop\n      pop\n      jump\t// out\n        /* \"#utility.yul\":5355:5732   */\n    tag_16:\n        /* \"#utility.yul\":5500:5504   */\n      0x00\n        /* \"#utility.yul\":5538:5540   */\n      0x20\n        /* \"#utility.yul\":5527:5536   */\n      dup3\n        /* \"#utility.yul\":5523:5541   */\n      add\n        /* \"#utility.yul\":5515:5541   */\n      swap1\n      pop\n        /* \"#utility.yul\":5587:5596   */\n      dup2\n        /* \"#utility.yul\":5581:5585   */\n      dup2\n        /* \"#utility.yul\":5577:5597   */\n      sub\n        /* \"#utility.yul\":5573:5574   */\n      0x00\n        /* \"#utility.yul\":5562:5571   */\n      dup4\n        /* \"#utility.yul\":5558:5575   */\n      add\n        /* \"#utility.yul\":5551:5598   */\n      mstore\n        /* \"#utility.yul\":5615:5725   */\n      tag_189\n        /* \"#utility.yul\":5720:5724   */\n      dup2\n        /* \"#utility.yul\":5711:5717   */\n      dup5\n        /* \"#utility.yul\":5615:5725   */\n      tag_170\n      jump\t// in\n    tag_189:\n        /* \"#utility.yul\":5607:5725   */\n      swap1\n      pop\n        /* \"#utility.yul\":5355:5732   */\n      swap3\n      swap2\n      pop\n      pop\n      jump\t// out\n        /* \"#utility.yul\":5738:5960   */\n    tag_51:\n        /* \"#utility.yul\":5831:5835   */\n      0x00\n        /* \"#utility.yul\":5869:5871   */\n      0x20\n        /* \"#utility.yul\":5858:5867   */\n      dup3\n        /* \"#utility.yul\":5854:5872   */\n      add\n        /* \"#utility.yul\":5846:5872   */\n      swap1\n      pop\n        /* \"#utility.yul\":5882:5953   */\n      tag_191\n        /* \"#utility.yul\":5950:5951   */\n      0x00\n        /* \"#utility.yul\":5939:5948   */\n      dup4\n        /* \"#utility.yul\":5935:5952   */\n      add\n        /* \"#utility.yul\":5926:5932   */\n      dup5\n        /* \"#utility.yul\":5882:5953   */\n      tag_179\n      jump\t// in\n    tag_191:\n        /* \"#utility.yul\":5738:5960   */\n      swap3\n      swap2\n      pop\n      pop\n      jump\t// out\n        /* \"#utility.yul\":5966:6487   */\n    tag_38:\n        /* \"#utility.yul\":6129:6133   */\n      0x00\n        /* \"#utility.yul\":6167:6169   */\n      0x60\n        /* \"#utility.yul\":6156:6165   */\n      dup3\n        /* \"#utility.yul\":6152:6170   */\n      add\n        /* \"#utility.yul\":6144:6170   */\n      swap1\n      pop\n        /* \"#utility.yul\":6180:6251   */\n      tag_193\n        /* \"#utility.yul\":6248:6249   */\n      0x00\n        /* \"#utility.yul\":6237:6246   */\n      dup4\n        /* \"#utility.yul\":6233:6250   */\n      add\n        /* \"#utility.yul\":6224:6230   */\n      dup7\n        /* \"#utility.yul\":6180:6251   */\n      tag_179\n      jump\t// in\n    tag_193:\n        /* \"#utility.yul\":6298:6307   */\n      dup2\n        /* \"#utility.yul\":6292:6296   */\n      dup2\n        /* \"#utility.yul\":6288:6308   */\n      sub\n        /* \"#utility.yul\":6283:6285   */\n      0x20\n        /* \"#utility.yul\":6272:6281   */\n      dup4\n        /* \"#utility.yul\":6268:6286   */\n      add\n        /* \"#utility.yul\":6261:6309   */\n      mstore\n        /* \"#utility.yul\":6326:6404   */\n      tag_194\n        /* \"#utility.yul\":6399:6403   */\n      dup2\n        /* \"#utility.yul\":6390:6396   */\n      dup6\n        /* \"#utility.yul\":6326:6404   */\n      tag_163\n      jump\t// in\n    tag_194:\n        /* \"#utility.yul\":6318:6404   */\n      swap1\n      pop\n        /* \"#utility.yul\":6414:6480   */\n      tag_195\n        /* \"#utility.yul\":6476:6478   */\n      0x40\n        /* \"#utility.yul\":6465:6474   */\n      dup4\n        /* \"#utility.yul\":6461:6479   */\n      add\n        /* \"#utility.yul\":6452:6458   */\n      dup5\n        /* \"#utility.yul\":6414:6480   */\n      tag_150\n      jump\t// in\n    tag_195:\n        /* \"#utility.yul\":5966:6487   */\n      swap5\n      swap4\n      pop\n      pop\n      pop\n      pop\n      jump\t// out\n        /* \"#utility.yul\":6493:6622   */\n    tag_107:\n        /* \"#utility.yul\":6527:6533   */\n      0x00\n        /* \"#utility.yul\":6554:6574   */\n      tag_197\n      tag_198\n      jump\t// in\n    tag_197:\n        /* \"#utility.yul\":6544:6574   */\n      swap1\n      pop\n        /* \"#utility.yul\":6583:6616   */\n      tag_199\n        /* \"#utility.yul\":6611:6615   */\n      dup3\n        /* \"#utility.yul\":6603:6609   */\n      dup3\n        /* \"#utility.yul\":6583:6616   */\n      tag_200\n      jump\t// in\n    tag_199:\n        /* \"#utility.yul\":6493:6622   */\n      swap2\n      swap1\n      pop\n      jump\t// out\n        /* \"#utility.yul\":6628:6703   */\n    tag_198:\n        /* \"#utility.yul\":6661:6667   */\n      0x00\n        /* \"#utility.yul\":6694:6696   */\n      0x40\n        /* \"#utility.yul\":6688:6697   */\n      mload\n        /* \"#utility.yul\":6678:6697   */\n      swap1\n      pop\n        /* \"#utility.yul\":6628:6703   */\n      swap1\n      jump\t// out\n        /* \"#utility.yul\":6709:7017   */\n    tag_106:\n        /* \"#utility.yul\":6771:6775   */\n      0x00\n        /* \"#utility.yul\":6861:6879   */\n      0xffffffffffffffff\n        /* \"#utility.yul\":6853:6859   */\n      dup3\n        /* \"#utility.yul\":6850:6880   */\n      gt\n        /* \"#utility.yul\":6847:6903   */\n      iszero\n      tag_203\n      jumpi\n        /* \"#utility.yul\":6883:6901   */\n      tag_204\n      tag_205\n      jump\t// in\n    tag_204:\n        /* \"#utility.yul\":6847:6903   */\n    tag_203:\n        /* \"#utility.yul\":6921:6950   */\n      tag_206\n        /* \"#utility.yul\":6943:6949   */\n      dup3\n        /* \"#utility.yul\":6921:6950   */\n      tag_162\n      jump\t// in\n    tag_206:\n        /* \"#utility.yul\":6913:6950   */\n      swap1\n      pop\n        /* \"#utility.yul\":7005:7009   */\n      0x20\n        /* \"#utility.yul\":6999:7003   */\n      dup2\n        /* \"#utility.yul\":6995:7010   */\n      add\n        /* \"#utility.yul\":6987:7010   */\n      swap1\n      pop\n        /* \"#utility.yul\":6709:7017   */\n      swap2\n      swap1\n      pop\n      jump\t// out\n        /* \"#utility.yul\":7023:7122   */\n    tag_156:\n        /* \"#utility.yul\":7075:7081   */\n      0x00\n        /* \"#utility.yul\":7109:7114   */\n      dup2\n        /* \"#utility.yul\":7103:7115   */\n      mload\n        /* \"#utility.yul\":7093:7115   */\n      swap1\n      pop\n        /* \"#utility.yul\":7023:7122   */\n      swap2\n      swap1\n      pop\n      jump\t// out\n        /* \"#utility.yul\":7128:7287   */\n    tag_158:\n        /* \"#utility.yul\":7202:7213   */\n      0x00\n        /* \"#utility.yul\":7236:7242   */\n      dup3\n        /* \"#utility.yul\":7231:7234   */\n      dup3\n        /* \"#utility.yul\":7224:7243   */\n      mstore\n        /* \"#utility.yul\":7276:7280   */\n      0x20\n        /* \"#utility.yul\":7271:7274   */\n      dup3\n        /* \"#utility.yul\":7267:7281   */\n      add\n        /* \"#utility.yul\":7252:7281   */\n      swap1\n      pop\n        /* \"#utility.yul\":7128:7287   */\n      swap3\n      swap2\n      pop\n      pop\n      jump\t// out\n        /* \"#utility.yul\":7293:7462   */\n    tag_167:\n        /* \"#utility.yul\":7377:7388   */\n      0x00\n        /* \"#utility.yul\":7411:7417   */\n      dup3\n        /* \"#utility.yul\":7406:7409   */\n      dup3\n        /* \"#utility.yul\":7399:7418   */\n      mstore\n        /* \"#utility.yul\":7451:7455   */\n      0x20\n        /* \"#utility.yul\":7446:7449   */\n      dup3\n        /* \"#utility.yul\":7442:7456   */\n      add\n        /* \"#utility.yul\":7427:7456   */\n      swap1\n      pop\n        /* \"#utility.yul\":7293:7462   */\n      swap3\n      swap2\n      pop\n      pop\n      jump\t// out\n        /* \"#utility.yul\":7468:7564   */\n    tag_145:\n        /* \"#utility.yul\":7505:7512   */\n      0x00\n        /* \"#utility.yul\":7534:7558   */\n      tag_211\n        /* \"#utility.yul\":7552:7557   */\n      dup3\n        /* \"#utility.yul\":7534:7558   */\n      tag_212\n      jump\t// in\n    tag_211:\n        /* \"#utility.yul\":7523:7558   */\n      swap1\n      pop\n        /* \"#utility.yul\":7468:7564   */\n      swap2\n      swap1\n      pop\n      jump\t// out\n        /* \"#utility.yul\":7570:7660   */\n    tag_149:\n        /* \"#utility.yul\":7604:7611   */\n      0x00\n        /* \"#utility.yul\":7647:7652   */\n      dup2\n        /* \"#utility.yul\":7640:7653   */\n      iszero\n        /* \"#utility.yul\":7633:7654   */\n      iszero\n        /* \"#utility.yul\":7622:7654   */\n      swap1\n      pop\n        /* \"#utility.yul\":7570:7660   */\n      swap2\n      swap1\n      pop\n      jump\t// out\n        /* \"#utility.yul\":7666:7792   */\n    tag_212:\n        /* \"#utility.yul\":7703:7710   */\n      0x00\n        /* \"#utility.yul\":7743:7785   */\n      0xffffffffffffffffffffffffffffffffffffffff\n        /* \"#utility.yul\":7736:7741   */\n      dup3\n        /* \"#utility.yul\":7732:7786   */\n      and\n        /* \"#utility.yul\":7721:7786   */\n      swap1\n      pop\n        /* \"#utility.yul\":7666:7792   */\n      swap2\n      swap1\n      pop\n      jump\t// out\n        /* \"#utility.yul\":7798:7875   */\n    tag_178:\n        /* \"#utility.yul\":7835:7842   */\n      0x00\n        /* \"#utility.yul\":7864:7869   */\n      dup2\n        /* \"#utility.yul\":7853:7869   */\n      swap1\n      pop\n        /* \"#utility.yul\":7798:7875   */\n      swap2\n      swap1\n      pop\n      jump\t// out\n        /* \"#utility.yul\":7881:8035   */\n    tag_112:\n        /* \"#utility.yul\":7965:7971   */\n      dup3\n        /* \"#utility.yul\":7960:7963   */\n      dup2\n        /* \"#utility.yul\":7955:7958   */\n      dup4\n        /* \"#utility.yul\":7942:7972   */\n      calldatacopy\n        /* \"#utility.yul\":8027:8028   */\n      0x00\n        /* \"#utility.yul\":8018:8024   */\n      dup4\n        /* \"#utility.yul\":8013:8016   */\n      dup4\n        /* \"#utility.yul\":8009:8025   */\n      add\n        /* \"#utility.yul\":8002:8029   */\n      mstore\n        /* \"#utility.yul\":7881:8035   */\n      pop\n      pop\n      pop\n      jump\t// out\n        /* \"#utility.yul\":8041:8348   */\n    tag_160:\n        /* \"#utility.yul\":8109:8110   */\n      0x00\n        /* \"#utility.yul\":8119:8232   */\n    tag_218:\n        /* \"#utility.yul\":8133:8139   */\n      dup4\n        /* \"#utility.yul\":8130:8131   */\n      dup2\n        /* \"#utility.yul\":8127:8140   */\n      lt\n        /* \"#utility.yul\":8119:8232   */\n      iszero\n      tag_220\n      jumpi\n        /* \"#utility.yul\":8218:8219   */\n      dup1\n        /* \"#utility.yul\":8213:8216   */\n      dup3\n        /* \"#utility.yul\":8209:8220   */\n      add\n        /* \"#utility.yul\":8203:8221   */\n      mload\n        /* \"#utility.yul\":8199:8200   */\n      dup2\n        /* \"#utility.yul\":8194:8197   */\n      dup5\n        /* \"#utility.yul\":8190:8201   */\n      add\n        /* \"#utility.yul\":8183:8222   */\n      mstore\n        /* \"#utility.yul\":8155:8157   */\n      0x20\n        /* \"#utility.yul\":8152:8153   */\n      dup2\n        /* \"#utility.yul\":8148:8158   */\n      add\n        /* \"#utility.yul\":8143:8158   */\n      swap1\n      pop\n        /* \"#utility.yul\":8119:8232   */\n      jump(tag_218)\n    tag_220:\n        /* \"#utility.yul\":8250:8256   */\n      dup4\n        /* \"#utility.yul\":8247:8248   */\n      dup2\n        /* \"#utility.yul\":8244:8257   */\n      gt\n        /* \"#utility.yul\":8241:8342   */\n      iszero\n      tag_221\n      jumpi\n        /* \"#utility.yul\":8330:8331   */\n      0x00\n        /* \"#utility.yul\":8321:8327   */\n      dup5\n        /* \"#utility.yul\":8316:8319   */\n      dup5\n        /* \"#utility.yul\":8312:8328   */\n      add\n        /* \"#utility.yul\":8305:8332   */\n      mstore\n        /* \"#utility.yul\":8241:8342   */\n    tag_221:\n        /* \"#utility.yul\":8090:8348   */\n      pop\n        /* \"#utility.yul\":8041:8348   */\n      pop\n      pop\n      pop\n      jump\t// out\n        /* \"#utility.yul\":8354:8674   */\n    tag_56:\n        /* \"#utility.yul\":8398:8404   */\n      0x00\n        /* \"#utility.yul\":8435:8436   */\n      0x02\n        /* \"#utility.yul\":8429:8433   */\n      dup3\n        /* \"#utility.yul\":8425:8437   */\n      div\n        /* \"#utility.yul\":8415:8437   */\n      swap1\n      pop\n        /* \"#utility.yul\":8482:8483   */\n      0x01\n        /* \"#utility.yul\":8476:8480   */\n      dup3\n        /* \"#utility.yul\":8472:8484   */\n      and\n        /* \"#utility.yul\":8503:8521   */\n      dup1\n        /* \"#utility.yul\":8493:8574   */\n      tag_223\n      jumpi\n        /* \"#utility.yul\":8559:8563   */\n      0x7f\n        /* \"#utility.yul\":8551:8557   */\n      dup3\n        /* \"#utility.yul\":8547:8564   */\n      and\n        /* \"#utility.yul\":8537:8564   */\n      swap2\n      pop\n        /* \"#utility.yul\":8493:8574   */\n    tag_223:\n        /* \"#utility.yul\":8621:8623   */\n      0x20\n        /* \"#utility.yul\":8613:8619   */\n      dup3\n        /* \"#utility.yul\":8610:8624   */\n      lt\n        /* \"#utility.yul\":8590:8608   */\n      dup2\n        /* \"#utility.yul\":8587:8625   */\n      eq\n        /* \"#utility.yul\":8584:8668   */\n      iszero\n      tag_224\n      jumpi\n        /* \"#utility.yul\":8640:8658   */\n      tag_225\n      tag_226\n      jump\t// in\n    tag_225:\n        /* \"#utility.yul\":8584:8668   */\n    tag_224:\n        /* \"#utility.yul\":8405:8674   */\n      pop\n        /* \"#utility.yul\":8354:8674   */\n      swap2\n      swap1\n      pop\n      jump\t// out\n        /* \"#utility.yul\":8680:8961   */\n    tag_200:\n        /* \"#utility.yul\":8763:8790   */\n      tag_228\n        /* \"#utility.yul\":8785:8789   */\n      dup3\n        /* \"#utility.yul\":8763:8790   */\n      tag_162\n      jump\t// in\n    tag_228:\n        /* \"#utility.yul\":8755:8761   */\n      dup2\n        /* \"#utility.yul\":8751:8791   */\n      add\n        /* \"#utility.yul\":8893:8899   */\n      dup2\n        /* \"#utility.yul\":8881:8891   */\n      dup2\n        /* \"#utility.yul\":8878:8900   */\n      lt\n        /* \"#utility.yul\":8857:8875   */\n      0xffffffffffffffff\n        /* \"#utility.yul\":8845:8855   */\n      dup3\n        /* \"#utility.yul\":8842:8876   */\n      gt\n        /* \"#utility.yul\":8839:8901   */\n      or\n        /* \"#utility.yul\":8836:8924   */\n      iszero\n      tag_229\n      jumpi\n        /* \"#utility.yul\":8904:8922   */\n      tag_230\n      tag_205\n      jump\t// in\n    tag_230:\n        /* \"#utility.yul\":8836:8924   */\n    tag_229:\n        /* \"#utility.yul\":8944:8954   */\n      dup1\n        /* \"#utility.yul\":8940:8942   */\n      0x40\n        /* \"#utility.yul\":8933:8955   */\n      mstore\n        /* \"#utility.yul\":8723:8961   */\n      pop\n        /* \"#utility.yul\":8680:8961   */\n      pop\n      pop\n      jump\t// out\n        /* \"#utility.yul\":8967:9143   */\n    tag_69:\n        /* \"#utility.yul\":8999:9000   */\n      0x00\n        /* \"#utility.yul\":9016:9036   */\n      tag_232\n        /* \"#utility.yul\":9034:9035   */\n      dup3\n        /* \"#utility.yul\":9016:9036   */\n      tag_178\n      jump\t// in\n    tag_232:\n        /* \"#utility.yul\":9011:9036   */\n      swap2\n      pop\n        /* \"#utility.yul\":9050:9070   */\n      tag_233\n        /* \"#utility.yul\":9068:9069   */\n      dup4\n        /* \"#utility.yul\":9050:9070   */\n      tag_178\n      jump\t// in\n    tag_233:\n        /* \"#utility.yul\":9045:9070   */\n      swap3\n      pop\n        /* \"#utility.yul\":9089:9090   */\n      dup3\n        /* \"#utility.yul\":9079:9114   */\n      tag_234\n      jumpi\n        /* \"#utility.yul\":9094:9112   */\n      tag_235\n      tag_236\n      jump\t// in\n    tag_235:\n        /* \"#utility.yul\":9079:9114   */\n    tag_234:\n        /* \"#utility.yul\":9135:9136   */\n      dup3\n        /* \"#utility.yul\":9132:9133   */\n      dup3\n        /* \"#utility.yul\":9128:9137   */\n      mod\n        /* \"#utility.yul\":9123:9137   */\n      swap1\n      pop\n        /* \"#utility.yul\":8967:9143   */\n      swap3\n      swap2\n      pop\n      pop\n      jump\t// out\n        /* \"#utility.yul\":9149:9329   */\n    tag_236:\n        /* \"#utility.yul\":9197:9274   */\n      0x4e487b7100000000000000000000000000000000000000000000000000000000\n        /* \"#utility.yul\":9194:9195   */\n      0x00\n        /* \"#utility.yul\":9187:9275   */\n      mstore\n        /* \"#utility.yul\":9294:9298   */\n      0x12\n        /* \"#utility.yul\":9291:9292   */\n      0x04\n        /* \"#utility.yul\":9284:9299   */\n      mstore\n        /* \"#utility.yul\":9318:9322   */\n      0x24\n        /* \"#utility.yul\":9315:9316   */\n      0x00\n        /* \"#utility.yul\":9308:9323   */\n      revert\n        /* \"#utility.yul\":9335:9515   */\n    tag_226:\n        /* \"#utility.yul\":9383:9460   */\n      0x4e487b7100000000000000000000000000000000000000000000000000000000\n        /* \"#utility.yul\":9380:9381   */\n      0x00\n        /* \"#utility.yul\":9373:9461   */\n      mstore\n        /* \"#utility.yul\":9480:9484   */\n      0x22\n        /* \"#utility.yul\":9477:9478   */\n      0x04\n        /* \"#utility.yul\":9470:9485   */\n      mstore\n        /* \"#utility.yul\":9504:9508   */\n      0x24\n        /* \"#utility.yul\":9501:9502   */\n      0x00\n        /* \"#utility.yul\":9494:9509   */\n      revert\n        /* \"#utility.yul\":9521:9701   */\n    tag_205:\n        /* \"#utility.yul\":9569:9646   */\n      0x4e487b7100000000000000000000000000000000000000000000000000000000\n        /* \"#utility.yul\":9566:9567   */\n      0x00\n        /* \"#utility.yul\":9559:9647   */\n      mstore\n        /* \"#utility.yul\":9666:9670   */\n      0x41\n        /* \"#utility.yul\":9663:9664   */\n      0x04\n        /* \"#utility.yul\":9656:9671   */\n      mstore\n        /* \"#utility.yul\":9690:9694   */\n      0x24\n        /* \"#utility.yul\":9687:9688   */\n      0x00\n        /* \"#utility.yul\":9680:9695   */\n      revert\n        /* \"#utility.yul\":9707:9824   */\n    tag_117:\n        /* \"#utility.yul\":9816:9817   */\n      0x00\n        /* \"#utility.yul\":9813:9814   */\n      dup1\n        /* \"#utility.yul\":9806:9818   */\n      revert\n        /* \"#utility.yul\":9830:9947   */\n    tag_110:\n        /* \"#utility.yul\":9939:9940   */\n      0x00\n        /* \"#utility.yul\":9936:9937   */\n      dup1\n        /* \"#utility.yul\":9929:9941   */\n      revert\n        /* \"#utility.yul\":9953:10070   */\n    tag_129:\n        /* \"#utility.yul\":10062:10063   */\n      0x00\n        /* \"#utility.yul\":10059:10060   */\n      dup1\n        /* \"#utility.yul\":10052:10064   */\n      revert\n        /* \"#utility.yul\":10076:10193   */\n    tag_126:\n        /* \"#utility.yul\":10185:10186   */\n      0x00\n        /* \"#utility.yul\":10182:10183   */\n      dup1\n        /* \"#utility.yul\":10175:10187   */\n      revert\n        /* \"#utility.yul\":10199:10301   */\n    tag_162:\n        /* \"#utility.yul\":10240:10246   */\n      0x00\n        /* \"#utility.yul\":10291:10293   */\n      0x1f\n        /* \"#utility.yul\":10287:10294   */\n      not\n        /* \"#utility.yul\":10282:10284   */\n      0x1f\n        /* \"#utility.yul\":10275:10280   */\n      dup4\n        /* \"#utility.yul\":10271:10285   */\n      add\n        /* \"#utility.yul\":10267:10295   */\n      and\n        /* \"#utility.yul\":10257:10295   */\n      swap1\n      pop\n        /* \"#utility.yul\":10199:10301   */\n      swap2\n      swap1\n      pop\n      jump\t// out\n        /* \"#utility.yul\":10307:10429   */\n    tag_122:\n        /* \"#utility.yul\":10380:10404   */\n      tag_246\n        /* \"#utility.yul\":10398:10403   */\n      dup2\n        /* \"#utility.yul\":10380:10404   */\n      tag_178\n      jump\t// in\n    tag_246:\n        /* \"#utility.yul\":10373:10378   */\n      dup2\n        /* \"#utility.yul\":10370:10405   */\n      eq\n        /* \"#utility.yul\":10360:10423   */\n      tag_247\n      jumpi\n        /* \"#utility.yul\":10419:10420   */\n      0x00\n        /* \"#utility.yul\":10416:10417   */\n      dup1\n        /* \"#utility.yul\":10409:10421   */\n      revert\n        /* \"#utility.yul\":10360:10423   */\n    tag_247:\n        /* \"#utility.yul\":10307:10429   */\n      pop\n      jump\t// out\n\n    auxdata: 0xa264697066735822122031943aa39b888cac50b0b7d3c28580f745965c69691ebe5a8f87609b7fab0e1b64736f6c63430008070033\n}\n",
				"bytecode": {
					"linkReferences": {},
					"object": "60806040523480156200001157600080fd5b5060016000819055506040518060400160405280600481526020017f6e616d65000000000000000000000000000000000000000000000000000000008152506001908051906020019062000067929190620000e8565b506103e76002600001819055506040518060400160405280600a81526020017f746573745374727563740000000000000000000000000000000000000000000081525060026001019080519060200190620000c4929190620000e8565b5060016002800160006101000a81548160ff021916908315150217905550620001fd565b828054620000f69062000198565b90600052602060002090601f0160209004810192826200011a576000855562000166565b82601f106200013557805160ff191683800117855562000166565b8280016001018555821562000166579182015b828111156200016557825182559160200191906001019062000148565b5b50905062000175919062000179565b5090565b5b80821115620001945760008160009055506001016200017a565b5090565b60006002820490506001821680620001b157607f821691505b60208210811415620001c857620001c7620001ce565b5b50919050565b7f4e487b7100000000000000000000000000000000000000000000000000000000600052602260045260246000fd5b610be1806200020d6000396000f3fe608060405234801561001057600080fd5b50600436106100935760003560e01c80636cfe622b116100665780636cfe622b146101225780639b0e317c1461013e578063c47f00271461015e578063e6ecf7281461018e578063f2c9ecd8146101be57610093565b8063151bfb8a1461009857806317d7de7c146100b657806342b12e24146100d45780635e01eb5a14610104575b600080fd5b6100a06101dc565b6040516100ad91906108c6565b60405180910390f35b6100be6102ad565b6040516100cb91906108a4565b60405180910390f35b6100ee60048036038101906100e991906106d8565b61033f565b6040516100fb9190610889565b60405180910390f35b61010c610367565b604051610119919061086e565b60405180910390f35b61013c60048036038101906101379190610705565b61036f565b005b61014661039b565b60405161015593929190610903565b60405180910390f35b6101786004803603810190610173919061068f565b610448565b6040516101859190610889565b60405180910390f35b6101a860048036038101906101a391906106d8565b61046a565b6040516101b591906108a4565b60405180910390f35b6101c661053b565b6040516101d391906108e8565b60405180910390f35b6101e4610544565b60026040518060600160405290816000820154815260200160018201805461020b90610a4e565b80601f016020809104026020016040519081016040528092919081815260200182805461023790610a4e565b80156102845780601f1061025957610100808354040283529160200191610284565b820191906000526020600020905b81548152906001019060200180831161026757829003601f168201915b505050505081526020016002820160009054906101000a900460ff161515151581525050905090565b6060600180546102bc90610a4e565b80601f01602080910402602001604051908101604052809291908181526020018280546102e890610a4e565b80156103355780601f1061030a57610100808354040283529160200191610335565b820191906000526020600020905b81548152906001019060200180831161031857829003601f168201915b5050505050905090565b60008060028361034f9190610ab1565b1161035d5760019050610362565b600090505b919050565b600033905090565b80600560008481526020019081526020016000209080519060200190610396929190610567565b505050565b60028060000154908060010180546103b290610a4e565b80601f01602080910402602001604051908101604052809291908181526020018280546103de90610a4e565b801561042b5780601f106104005761010080835404028352916020019161042b565b820191906000526020600020905b81548152906001019060200180831161040e57829003601f168201915b5050505050908060020160009054906101000a900460ff16905083565b60008160019080519060200190610460929190610567565b5060019050919050565b6060600060056000848152602001908152602001600020805461048c90610a4e565b90501161049857600080fd5b6005600083815260200190815260200160002080546104b690610a4e565b80601f01602080910402602001604051908101604052809291908181526020018280546104e290610a4e565b801561052f5780601f106105045761010080835404028352916020019161052f565b820191906000526020600020905b81548152906001019060200180831161051257829003601f168201915b50505050509050919050565b60008054905090565b604051806060016040528060008152602001606081526020016000151581525090565b82805461057390610a4e565b90600052602060002090601f01602090048101928261059557600085556105dc565b82601f106105ae57805160ff19168380011785556105dc565b828001600101855582156105dc579182015b828111156105db5782518255916020019190600101906105c0565b5b5090506105e991906105ed565b5090565b5b808211156106065760008160009055506001016105ee565b5090565b600061061d61061884610966565b610941565b90508281526020810184848401111561063957610638610b74565b5b610644848285610a0c565b509392505050565b600082601f83011261066157610660610b6f565b5b813561067184826020860161060a565b91505092915050565b60008135905061068981610b94565b92915050565b6000602082840312156106a5576106a4610b7e565b5b600082013567ffffffffffffffff8111156106c3576106c2610b79565b5b6106cf8482850161064c565b91505092915050565b6000602082840312156106ee576106ed610b7e565b5b60006106fc8482850161067a565b91505092915050565b6000806040838503121561071c5761071b610b7e565b5b600061072a8582860161067a565b925050602083013567ffffffffffffffff81111561074b5761074a610b79565b5b6107578582860161064c565b9150509250929050565b61076a816109c4565b82525050565b610779816109d6565b82525050565b610788816109d6565b82525050565b600061079982610997565b6107a381856109a2565b93506107b3818560208601610a1b565b6107bc81610b83565b840191505092915050565b60006107d282610997565b6107dc81856109b3565b93506107ec818560208601610a1b565b6107f581610b83565b840191505092915050565b60006060830160008301516108186000860182610850565b5060208301518482036020860152610830828261078e565b91505060408301516108456040860182610770565b508091505092915050565b61085981610a02565b82525050565b61086881610a02565b82525050565b60006020820190506108836000830184610761565b92915050565b600060208201905061089e600083018461077f565b92915050565b600060208201905081810360008301526108be81846107c7565b905092915050565b600060208201905081810360008301526108e08184610800565b905092915050565b60006020820190506108fd600083018461085f565b92915050565b6000606082019050610918600083018661085f565b818103602083015261092a81856107c7565b9050610939604083018461077f565b949350505050565b600061094b61095c565b90506109578282610a80565b919050565b6000604051905090565b600067ffffffffffffffff82111561098157610980610b40565b5b61098a82610b83565b9050602081019050919050565b600081519050919050565b600082825260208201905092915050565b600082825260208201905092915050565b60006109cf826109e2565b9050919050565b60008115159050919050565b600073ffffffffffffffffffffffffffffffffffffffff82169050919050565b6000819050919050565b82818337600083830152505050565b60005b83811015610a39578082015181840152602081019050610a1e565b83811115610a48576000848401525b50505050565b60006002820490506001821680610a6657607f821691505b60208210811415610a7a57610a79610b11565b5b50919050565b610a8982610b83565b810181811067ffffffffffffffff82111715610aa857610aa7610b40565b5b80604052505050565b6000610abc82610a02565b9150610ac783610a02565b925082610ad757610ad6610ae2565b5b828206905092915050565b7f4e487b7100000000000000000000000000000000000000000000000000000000600052601260045260246000fd5b7f4e487b7100000000000000000000000000000000000000000000000000000000600052602260045260246000fd5b7f4e487b7100000000000000000000000000000000000000000000000000000000600052604160045260246000fd5b600080fd5b600080fd5b600080fd5b600080fd5b6000601f19601f8301169050919050565b610b9d81610a02565b8114610ba857600080fd5b5056fea264697066735822122031943aa39b888cac50b0b7d3c28580f745965c69691ebe5a8f87609b7fab0e1b64736f6c63430008070033",
					"opcodes": "PUSH1 0x80 PUSH1 0x40 MSTORE CALLVALUE DUP1 ISZERO PUSH3 0x11 JUMPI PUSH1 0x0 DUP1 REVERT JUMPDEST POP PUSH1 0x1 PUSH1 0x0 DUP2 SWAP1 SSTORE POP PUSH1 0x40 MLOAD DUP1 PUSH1 0x40 ADD PUSH1 0x40 MSTORE DUP1 PUSH1 0x4 DUP2 MSTORE PUSH1 0x20 ADD PUSH32 0x6E616D6500000000000000000000000000000000000000000000000000000000 DUP2 MSTORE POP PUSH1 0x1 SWAP1 DUP1 MLOAD SWAP1 PUSH1 0x20 ADD SWAP1 PUSH3 0x67 SWAP3 SWAP2 SWAP1 PUSH3 0xE8 JUMP JUMPDEST POP PUSH2 0x3E7 PUSH1 0x2 PUSH1 0x0 ADD DUP2 SWAP1 SSTORE POP PUSH1 0x40 MLOAD DUP1 PUSH1 0x40 ADD PUSH1 0x40 MSTORE DUP1 PUSH1 0xA DUP2 MSTORE PUSH1 0x20 ADD PUSH32 0x7465737453747275637400000000000000000000000000000000000000000000 DUP2 MSTORE POP PUSH1 0x2 PUSH1 0x1 ADD SWAP1 DUP1 MLOAD SWAP1 PUSH1 0x20 ADD SWAP1 PUSH3 0xC4 SWAP3 SWAP2 SWAP1 PUSH3 0xE8 JUMP JUMPDEST POP PUSH1 0x1 PUSH1 0x2 DUP1 ADD PUSH1 0x0 PUSH2 0x100 EXP DUP2 SLOAD DUP2 PUSH1 0xFF MUL NOT AND SWAP1 DUP4 ISZERO ISZERO MUL OR SWAP1 SSTORE POP PUSH3 0x1FD JUMP JUMPDEST DUP3 DUP1 SLOAD PUSH3 0xF6 SWAP1 PUSH3 0x198 JUMP JUMPDEST SWAP1 PUSH1 0x0 MSTORE PUSH1 0x20 PUSH1 0x0 KECCAK256 SWAP1 PUSH1 0x1F ADD PUSH1 0x20 SWAP1 DIV DUP2 ADD SWAP3 DUP3 PUSH3 0x11A JUMPI PUSH1 0x0 DUP6 SSTORE PUSH3 0x166 JUMP JUMPDEST DUP3 PUSH1 0x1F LT PUSH3 0x135 JUMPI DUP1 MLOAD PUSH1 0xFF NOT AND DUP4 DUP1 ADD OR DUP6 SSTORE PUSH3 0x166 JUMP JUMPDEST DUP3 DUP1 ADD PUSH1 0x1 ADD DUP6 SSTORE DUP3 ISZERO PUSH3 0x166 JUMPI SWAP2 DUP3 ADD JUMPDEST DUP3 DUP2 GT ISZERO PUSH3 0x165 JUMPI DUP3 MLOAD DUP3 SSTORE SWAP2 PUSH1 0x20 ADD SWAP2 SWAP1 PUSH1 0x1 ADD SWAP1 PUSH3 0x148 JUMP JUMPDEST JUMPDEST POP SWAP1 POP PUSH3 0x175 SWAP2 SWAP1 PUSH3 0x179 JUMP JUMPDEST POP SWAP1 JUMP JUMPDEST JUMPDEST DUP1 DUP3 GT ISZERO PUSH3 0x194 JUMPI PUSH1 0x0 DUP2 PUSH1 0x0 SWAP1 SSTORE POP PUSH1 0x1 ADD PUSH3 0x17A JUMP JUMPDEST POP SWAP1 JUMP JUMPDEST PUSH1 0x0 PUSH1 0x2 DUP3 DIV SWAP1 POP PUSH1 0x1 DUP3 AND DUP1 PUSH3 0x1B1 JUMPI PUSH1 0x7F DUP3 AND SWAP2 POP JUMPDEST PUSH1 0x20 DUP3 LT DUP2 EQ ISZERO PUSH3 0x1C8 JUMPI PUSH3 0x1C7 PUSH3 0x1CE JUMP JUMPDEST JUMPDEST POP SWAP2 SWAP1 POP JUMP JUMPDEST PUSH32 0x4E487B7100000000000000000000000000000000000000000000000000000000 PUSH1 0x0 MSTORE PUSH1 0x22 PUSH1 0x4 MSTORE PUSH1 0x24 PUSH1 0x0 REVERT JUMPDEST PUSH2 0xBE1 DUP1 PUSH3 0x20D PUSH1 0x0 CODECOPY PUSH1 0x0 RETURN INVALID PUSH1 0x80 PUSH1 0x40 MSTORE CALLVALUE DUP1 ISZERO PUSH2 0x10 JUMPI PUSH1 0x0 DUP1 REVERT JUMPDEST POP PUSH1 0x4 CALLDATASIZE LT PUSH2 0x93 JUMPI PUSH1 0x0 CALLDATALOAD PUSH1 0xE0 SHR DUP1 PUSH4 0x6CFE622B GT PUSH2 0x66 JUMPI DUP1 PUSH4 0x6CFE622B EQ PUSH2 0x122 JUMPI DUP1 PUSH4 0x9B0E317C EQ PUSH2 0x13E JUMPI DUP1 PUSH4 0xC47F0027 EQ PUSH2 0x15E JUMPI DUP1 PUSH4 0xE6ECF728 EQ PUSH2 0x18E JUMPI DUP1 PUSH4 0xF2C9ECD8 EQ PUSH2 0x1BE JUMPI PUSH2 0x93 JUMP JUMPDEST DUP1 PUSH4 0x151BFB8A EQ PUSH2 0x98 JUMPI DUP1 PUSH4 0x17D7DE7C EQ PUSH2 0xB6 JUMPI DUP1 PUSH4 0x42B12E24 EQ PUSH2 0xD4 JUMPI DUP1 PUSH4 0x5E01EB5A EQ PUSH2 0x104 JUMPI JUMPDEST PUSH1 0x0 DUP1 REVERT JUMPDEST PUSH2 0xA0 PUSH2 0x1DC JUMP JUMPDEST PUSH1 0x40 MLOAD PUSH2 0xAD SWAP2 SWAP1 PUSH2 0x8C6 JUMP JUMPDEST PUSH1 0x40 MLOAD DUP1 SWAP2 SUB SWAP1 RETURN JUMPDEST PUSH2 0xBE PUSH2 0x2AD JUMP JUMPDEST PUSH1 0x40 MLOAD PUSH2 0xCB SWAP2 SWAP1 PUSH2 0x8A4 JUMP JUMPDEST PUSH1 0x40 MLOAD DUP1 SWAP2 SUB SWAP1 RETURN JUMPDEST PUSH2 0xEE PUSH1 0x4 DUP1 CALLDATASIZE SUB DUP2 ADD SWAP1 PUSH2 0xE9 SWAP2 SWAP1 PUSH2 0x6D8 JUMP JUMPDEST PUSH2 0x33F JUMP JUMPDEST PUSH1 0x40 MLOAD PUSH2 0xFB SWAP2 SWAP1 PUSH2 0x889 JUMP JUMPDEST PUSH1 0x40 MLOAD DUP1 SWAP2 SUB SWAP1 RETURN JUMPDEST PUSH2 0x10C PUSH2 0x367 JUMP JUMPDEST PUSH1 0x40 MLOAD PUSH2 0x119 SWAP2 SWAP1 PUSH2 0x86E JUMP JUMPDEST PUSH1 0x40 MLOAD DUP1 SWAP2 SUB SWAP1 RETURN JUMPDEST PUSH2 0x13C PUSH1 0x4 DUP1 CALLDATASIZE SUB DUP2 ADD SWAP1 PUSH2 0x137 SWAP2 SWAP1 PUSH2 0x705 JUMP JUMPDEST PUSH2 0x36F JUMP JUMPDEST STOP JUMPDEST PUSH2 0x146 PUSH2 0x39B JUMP JUMPDEST PUSH1 0x40 MLOAD PUSH2 0x155 SWAP4 SWAP3 SWAP2 SWAP1 PUSH2 0x903 JUMP JUMPDEST PUSH1 0x40 MLOAD DUP1 SWAP2 SUB SWAP1 RETURN JUMPDEST PUSH2 0x178 PUSH1 0x4 DUP1 CALLDATASIZE SUB DUP2 ADD SWAP1 PUSH2 0x173 SWAP2 SWAP1 PUSH2 0x68F JUMP JUMPDEST PUSH2 0x448 JUMP JUMPDEST PUSH1 0x40 MLOAD PUSH2 0x185 SWAP2 SWAP1 PUSH2 0x889 JUMP JUMPDEST PUSH1 0x40 MLOAD DUP1 SWAP2 SUB SWAP1 RETURN JUMPDEST PUSH2 0x1A8 PUSH1 0x4 DUP1 CALLDATASIZE SUB DUP2 ADD SWAP1 PUSH2 0x1A3 SWAP2 SWAP1 PUSH2 0x6D8 JUMP JUMPDEST PUSH2 0x46A JUMP JUMPDEST PUSH1 0x40 MLOAD PUSH2 0x1B5 SWAP2 SWAP1 PUSH2 0x8A4 JUMP JUMPDEST PUSH1 0x40 MLOAD DUP1 SWAP2 SUB SWAP1 RETURN JUMPDEST PUSH2 0x1C6 PUSH2 0x53B JUMP JUMPDEST PUSH1 0x40 MLOAD PUSH2 0x1D3 SWAP2 SWAP1 PUSH2 0x8E8 JUMP JUMPDEST PUSH1 0x40 MLOAD DUP1 SWAP2 SUB SWAP1 RETURN JUMPDEST PUSH2 0x1E4 PUSH2 0x544 JUMP JUMPDEST PUSH1 0x2 PUSH1 0x40 MLOAD DUP1 PUSH1 0x60 ADD PUSH1 0x40 MSTORE SWAP1 DUP2 PUSH1 0x0 DUP3 ADD SLOAD DUP2 MSTORE PUSH1 0x20 ADD PUSH1 0x1 DUP3 ADD DUP1 SLOAD PUSH2 0x20B SWAP1 PUSH2 0xA4E JUMP JUMPDEST DUP1 PUSH1 0x1F ADD PUSH1 0x20 DUP1 SWAP2 DIV MUL PUSH1 0x20 ADD PUSH1 0x40 MLOAD SWAP1 DUP2 ADD PUSH1 0x40 MSTORE DUP1 SWAP3 SWAP2 SWAP1 DUP2 DUP2 MSTORE PUSH1 0x20 ADD DUP3 DUP1 SLOAD PUSH2 0x237 SWAP1 PUSH2 0xA4E JUMP JUMPDEST DUP1 ISZERO PUSH2 0x284 JUMPI DUP1 PUSH1 0x1F LT PUSH2 0x259 JUMPI PUSH2 0x100 DUP1 DUP4 SLOAD DIV MUL DUP4 MSTORE SWAP2 PUSH1 0x20 ADD SWAP2 PUSH2 0x284 JUMP JUMPDEST DUP3 ADD SWAP2 SWAP1 PUSH1 0x0 MSTORE PUSH1 0x20 PUSH1 0x0 KECCAK256 SWAP1 JUMPDEST DUP2 SLOAD DUP2 MSTORE SWAP1 PUSH1 0x1 ADD SWAP1 PUSH1 0x20 ADD DUP1 DUP4 GT PUSH2 0x267 JUMPI DUP3 SWAP1 SUB PUSH1 0x1F AND DUP3 ADD SWAP2 JUMPDEST POP POP POP POP POP DUP2 MSTORE PUSH1 0x20 ADD PUSH1 0x2 DUP3 ADD PUSH1 0x0 SWAP1 SLOAD SWAP1 PUSH2 0x100 EXP SWAP1 DIV PUSH1 0xFF AND ISZERO ISZERO ISZERO ISZERO DUP2 MSTORE POP POP SWAP1 POP SWAP1 JUMP JUMPDEST PUSH1 0x60 PUSH1 0x1 DUP1 SLOAD PUSH2 0x2BC SWAP1 PUSH2 0xA4E JUMP JUMPDEST DUP1 PUSH1 0x1F ADD PUSH1 0x20 DUP1 SWAP2 DIV MUL PUSH1 0x20 ADD PUSH1 0x40 MLOAD SWAP1 DUP2 ADD PUSH1 0x40 MSTORE DUP1 SWAP3 SWAP2 SWAP1 DUP2 DUP2 MSTORE PUSH1 0x20 ADD DUP3 DUP1 SLOAD PUSH2 0x2E8 SWAP1 PUSH2 0xA4E JUMP JUMPDEST DUP1 ISZERO PUSH2 0x335 JUMPI DUP1 PUSH1 0x1F LT PUSH2 0x30A JUMPI PUSH2 0x100 DUP1 DUP4 SLOAD DIV MUL DUP4 MSTORE SWAP2 PUSH1 0x20 ADD SWAP2 PUSH2 0x335 JUMP JUMPDEST DUP3 ADD SWAP2 SWAP1 PUSH1 0x0 MSTORE PUSH1 0x20 PUSH1 0x0 KECCAK256 SWAP1 JUMPDEST DUP2 SLOAD DUP2 MSTORE SWAP1 PUSH1 0x1 ADD SWAP1 PUSH1 0x20 ADD DUP1 DUP4 GT PUSH2 0x318 JUMPI DUP3 SWAP1 SUB PUSH1 0x1F AND DUP3 ADD SWAP2 JUMPDEST POP POP POP POP POP SWAP1 POP SWAP1 JUMP JUMPDEST PUSH1 0x0 DUP1 PUSH1 0x2 DUP4 PUSH2 0x34F SWAP2 SWAP1 PUSH2 0xAB1 JUMP JUMPDEST GT PUSH2 0x35D JUMPI PUSH1 0x1 SWAP1 POP PUSH2 0x362 JUMP JUMPDEST PUSH1 0x0 SWAP1 POP JUMPDEST SWAP2 SWAP1 POP JUMP JUMPDEST PUSH1 0x0 CALLER SWAP1 POP SWAP1 JUMP JUMPDEST DUP1 PUSH1 0x5 PUSH1 0x0 DUP5 DUP2 MSTORE PUSH1 0x20 ADD SWAP1 DUP2 MSTORE PUSH1 0x20 ADD PUSH1 0x0 KECCAK256 SWAP1 DUP1 MLOAD SWAP1 PUSH1 0x20 ADD SWAP1 PUSH2 0x396 SWAP3 SWAP2 SWAP1 PUSH2 0x567 JUMP JUMPDEST POP POP POP JUMP JUMPDEST PUSH1 0x2 DUP1 PUSH1 0x0 ADD SLOAD SWAP1 DUP1 PUSH1 0x1 ADD DUP1 SLOAD PUSH2 0x3B2 SWAP1 PUSH2 0xA4E JUMP JUMPDEST DUP1 PUSH1 0x1F ADD PUSH1 0x20 DUP1 SWAP2 DIV MUL PUSH1 0x20 ADD PUSH1 0x40 MLOAD SWAP1 DUP2 ADD PUSH1 0x40 MSTORE DUP1 SWAP3 SWAP2 SWAP1 DUP2 DUP2 MSTORE PUSH1 0x20 ADD DUP3 DUP1 SLOAD PUSH2 0x3DE SWAP1 PUSH2 0xA4E JUMP JUMPDEST DUP1 ISZERO PUSH2 0x42B JUMPI DUP1 PUSH1 0x1F LT PUSH2 0x400 JUMPI PUSH2 0x100 DUP1 DUP4 SLOAD DIV MUL DUP4 MSTORE SWAP2 PUSH1 0x20 ADD SWAP2 PUSH2 0x42B JUMP JUMPDEST DUP3 ADD SWAP2 SWAP1 PUSH1 0x0 MSTORE PUSH1 0x20 PUSH1 0x0 KECCAK256 SWAP1 JUMPDEST DUP2 SLOAD DUP2 MSTORE SWAP1 PUSH1 0x1 ADD SWAP1 PUSH1 0x20 ADD DUP1 DUP4 GT PUSH2 0x40E JUMPI DUP3 SWAP1 SUB PUSH1 0x1F AND DUP3 ADD SWAP2 JUMPDEST POP POP POP POP POP SWAP1 DUP1 PUSH1 0x2 ADD PUSH1 0x0 SWAP1 SLOAD SWAP1 PUSH2 0x100 EXP SWAP1 DIV PUSH1 0xFF AND SWAP1 POP DUP4 JUMP JUMPDEST PUSH1 0x0 DUP2 PUSH1 0x1 SWAP1 DUP1 MLOAD SWAP1 PUSH1 0x20 ADD SWAP1 PUSH2 0x460 SWAP3 SWAP2 SWAP1 PUSH2 0x567 JUMP JUMPDEST POP PUSH1 0x1 SWAP1 POP SWAP2 SWAP1 POP JUMP JUMPDEST PUSH1 0x60 PUSH1 0x0 PUSH1 0x5 PUSH1 0x0 DUP5 DUP2 MSTORE PUSH1 0x20 ADD SWAP1 DUP2 MSTORE PUSH1 0x20 ADD PUSH1 0x0 KECCAK256 DUP1 SLOAD PUSH2 0x48C SWAP1 PUSH2 0xA4E JUMP JUMPDEST SWAP1 POP GT PUSH2 0x498 JUMPI PUSH1 0x0 DUP1 REVERT JUMPDEST PUSH1 0x5 PUSH1 0x0 DUP4 DUP2 MSTORE PUSH1 0x20 ADD SWAP1 DUP2 MSTORE PUSH1 0x20 ADD PUSH1 0x0 KECCAK256 DUP1 SLOAD PUSH2 0x4B6 SWAP1 PUSH2 0xA4E JUMP JUMPDEST DUP1 PUSH1 0x1F ADD PUSH1 0x20 DUP1 SWAP2 DIV MUL PUSH1 0x20 ADD PUSH1 0x40 MLOAD SWAP1 DUP2 ADD PUSH1 0x40 MSTORE DUP1 SWAP3 SWAP2 SWAP1 DUP2 DUP2 MSTORE PUSH1 0x20 ADD DUP3 DUP1 SLOAD PUSH2 0x4E2 SWAP1 PUSH2 0xA4E JUMP JUMPDEST DUP1 ISZERO PUSH2 0x52F JUMPI DUP1 PUSH1 0x1F LT PUSH2 0x504 JUMPI PUSH2 0x100 DUP1 DUP4 SLOAD DIV MUL DUP4 MSTORE SWAP2 PUSH1 0x20 ADD SWAP2 PUSH2 0x52F JUMP JUMPDEST DUP3 ADD SWAP2 SWAP1 PUSH1 0x0 MSTORE PUSH1 0x20 PUSH1 0x0 KECCAK256 SWAP1 JUMPDEST DUP2 SLOAD DUP2 MSTORE SWAP1 PUSH1 0x1 ADD SWAP1 PUSH1 0x20 ADD DUP1 DUP4 GT PUSH2 0x512 JUMPI DUP3 SWAP1 SUB PUSH1 0x1F AND DUP3 ADD SWAP2 JUMPDEST POP POP POP POP POP SWAP1 POP SWAP2 SWAP1 POP JUMP JUMPDEST PUSH1 0x0 DUP1 SLOAD SWAP1 POP SWAP1 JUMP JUMPDEST PUSH1 0x40 MLOAD DUP1 PUSH1 0x60 ADD PUSH1 0x40 MSTORE DUP1 PUSH1 0x0 DUP2 MSTORE PUSH1 0x20 ADD PUSH1 0x60 DUP2 MSTORE PUSH1 0x20 ADD PUSH1 0x0 ISZERO ISZERO DUP2 MSTORE POP SWAP1 JUMP JUMPDEST DUP3 DUP1 SLOAD PUSH2 0x573 SWAP1 PUSH2 0xA4E JUMP JUMPDEST SWAP1 PUSH1 0x0 MSTORE PUSH1 0x20 PUSH1 0x0 KECCAK256 SWAP1 PUSH1 0x1F ADD PUSH1 0x20 SWAP1 DIV DUP2 ADD SWAP3 DUP3 PUSH2 0x595 JUMPI PUSH1 0x0 DUP6 SSTORE PUSH2 0x5DC JUMP JUMPDEST DUP3 PUSH1 0x1F LT PUSH2 0x5AE JUMPI DUP1 MLOAD PUSH1 0xFF NOT AND DUP4 DUP1 ADD OR DUP6 SSTORE PUSH2 0x5DC JUMP JUMPDEST DUP3 DUP1 ADD PUSH1 0x1 ADD DUP6 SSTORE DUP3 ISZERO PUSH2 0x5DC JUMPI SWAP2 DUP3 ADD JUMPDEST DUP3 DUP2 GT ISZERO PUSH2 0x5DB JUMPI DUP3 MLOAD DUP3 SSTORE SWAP2 PUSH1 0x20 ADD SWAP2 SWAP1 PUSH1 0x1 ADD SWAP1 PUSH2 0x5C0 JUMP JUMPDEST JUMPDEST POP SWAP1 POP PUSH2 0x5E9 SWAP2 SWAP1 PUSH2 0x5ED JUMP JUMPDEST POP SWAP1 JUMP JUMPDEST JUMPDEST DUP1 DUP3 GT ISZERO PUSH2 0x606 JUMPI PUSH1 0x0 DUP2 PUSH1 0x0 SWAP1 SSTORE POP PUSH1 0x1 ADD PUSH2 0x5EE JUMP JUMPDEST POP SWAP1 JUMP JUMPDEST PUSH1 0x0 PUSH2 0x61D PUSH2 0x618 DUP5 PUSH2 0x966 JUMP JUMPDEST PUSH2 0x941 JUMP JUMPDEST SWAP1 POP DUP3 DUP2 MSTORE PUSH1 0x20 DUP2 ADD DUP5 DUP5 DUP5 ADD GT ISZERO PUSH2 0x639 JUMPI PUSH2 0x638 PUSH2 0xB74 JUMP JUMPDEST JUMPDEST PUSH2 0x644 DUP5 DUP3 DUP6 PUSH2 0xA0C JUMP JUMPDEST POP SWAP4 SWAP3 POP POP POP JUMP JUMPDEST PUSH1 0x0 DUP3 PUSH1 0x1F DUP4 ADD SLT PUSH2 0x661 JUMPI PUSH2 0x660 PUSH2 0xB6F JUMP JUMPDEST JUMPDEST DUP2 CALLDATALOAD PUSH2 0x671 DUP5 DUP3 PUSH1 0x20 DUP7 ADD PUSH2 0x60A JUMP JUMPDEST SWAP2 POP POP SWAP3 SWAP2 POP POP JUMP JUMPDEST PUSH1 0x0 DUP2 CALLDATALOAD SWAP1 POP PUSH2 0x689 DUP2 PUSH2 0xB94 JUMP JUMPDEST SWAP3 SWAP2 POP POP JUMP JUMPDEST PUSH1 0x0 PUSH1 0x20 DUP3 DUP5 SUB SLT ISZERO PUSH2 0x6A5 JUMPI PUSH2 0x6A4 PUSH2 0xB7E JUMP JUMPDEST JUMPDEST PUSH1 0x0 DUP3 ADD CALLDATALOAD PUSH8 0xFFFFFFFFFFFFFFFF DUP2 GT ISZERO PUSH2 0x6C3 JUMPI PUSH2 0x6C2 PUSH2 0xB79 JUMP JUMPDEST JUMPDEST PUSH2 0x6CF DUP5 DUP3 DUP6 ADD PUSH2 0x64C JUMP JUMPDEST SWAP2 POP POP SWAP3 SWAP2 POP POP JUMP JUMPDEST PUSH1 0x0 PUSH1 0x20 DUP3 DUP5 SUB SLT ISZERO PUSH2 0x6EE JUMPI PUSH2 0x6ED PUSH2 0xB7E JUMP JUMPDEST JUMPDEST PUSH1 0x0 PUSH2 0x6FC DUP5 DUP3 DUP6 ADD PUSH2 0x67A JUMP JUMPDEST SWAP2 POP POP SWAP3 SWAP2 POP POP JUMP JUMPDEST PUSH1 0x0 DUP1 PUSH1 0x40 DUP4 DUP6 SUB SLT ISZERO PUSH2 0x71C JUMPI PUSH2 0x71B PUSH2 0xB7E JUMP JUMPDEST JUMPDEST PUSH1 0x0 PUSH2 0x72A DUP6 DUP3 DUP7 ADD PUSH2 0x67A JUMP JUMPDEST SWAP3 POP POP PUSH1 0x20 DUP4 ADD CALLDATALOAD PUSH8 0xFFFFFFFFFFFFFFFF DUP2 GT ISZERO PUSH2 0x74B JUMPI PUSH2 0x74A PUSH2 0xB79 JUMP JUMPDEST JUMPDEST PUSH2 0x757 DUP6 DUP3 DUP7 ADD PUSH2 0x64C JUMP JUMPDEST SWAP2 POP POP SWAP3 POP SWAP3 SWAP1 POP JUMP JUMPDEST PUSH2 0x76A DUP2 PUSH2 0x9C4 JUMP JUMPDEST DUP3 MSTORE POP POP JUMP JUMPDEST PUSH2 0x779 DUP2 PUSH2 0x9D6 JUMP JUMPDEST DUP3 MSTORE POP POP JUMP JUMPDEST PUSH2 0x788 DUP2 PUSH2 0x9D6 JUMP JUMPDEST DUP3 MSTORE POP POP JUMP JUMPDEST PUSH1 0x0 PUSH2 0x799 DUP3 PUSH2 0x997 JUMP JUMPDEST PUSH2 0x7A3 DUP2 DUP6 PUSH2 0x9A2 JUMP JUMPDEST SWAP4 POP PUSH2 0x7B3 DUP2 DUP6 PUSH1 0x20 DUP7 ADD PUSH2 0xA1B JUMP JUMPDEST PUSH2 0x7BC DUP2 PUSH2 0xB83 JUMP JUMPDEST DUP5 ADD SWAP2 POP POP SWAP3 SWAP2 POP POP JUMP JUMPDEST PUSH1 0x0 PUSH2 0x7D2 DUP3 PUSH2 0x997 JUMP JUMPDEST PUSH2 0x7DC DUP2 DUP6 PUSH2 0x9B3 JUMP JUMPDEST SWAP4 POP PUSH2 0x7EC DUP2 DUP6 PUSH1 0x20 DUP7 ADD PUSH2 0xA1B JUMP JUMPDEST PUSH2 0x7F5 DUP2 PUSH2 0xB83 JUMP JUMPDEST DUP5 ADD SWAP2 POP POP SWAP3 SWAP2 POP POP JUMP JUMPDEST PUSH1 0x0 PUSH1 0x60 DUP4 ADD PUSH1 0x0 DUP4 ADD MLOAD PUSH2 0x818 PUSH1 0x0 DUP7 ADD DUP3 PUSH2 0x850 JUMP JUMPDEST POP PUSH1 0x20 DUP4 ADD MLOAD DUP5 DUP3 SUB PUSH1 0x20 DUP7 ADD MSTORE PUSH2 0x830 DUP3 DUP3 PUSH2 0x78E JUMP JUMPDEST SWAP2 POP POP PUSH1 0x40 DUP4 ADD MLOAD PUSH2 0x845 PUSH1 0x40 DUP7 ADD DUP3 PUSH2 0x770 JUMP JUMPDEST POP DUP1 SWAP2 POP POP SWAP3 SWAP2 POP POP JUMP JUMPDEST PUSH2 0x859 DUP2 PUSH2 0xA02 JUMP JUMPDEST DUP3 MSTORE POP POP JUMP JUMPDEST PUSH2 0x868 DUP2 PUSH2 0xA02 JUMP JUMPDEST DUP3 MSTORE POP POP JUMP JUMPDEST PUSH1 0x0 PUSH1 0x20 DUP3 ADD SWAP1 POP PUSH2 0x883 PUSH1 0x0 DUP4 ADD DUP5 PUSH2 0x761 JUMP JUMPDEST SWAP3 SWAP2 POP POP JUMP JUMPDEST PUSH1 0x0 PUSH1 0x20 DUP3 ADD SWAP1 POP PUSH2 0x89E PUSH1 0x0 DUP4 ADD DUP5 PUSH2 0x77F JUMP JUMPDEST SWAP3 SWAP2 POP POP JUMP JUMPDEST PUSH1 0x0 PUSH1 0x20 DUP3 ADD SWAP1 POP DUP2 DUP2 SUB PUSH1 0x0 DUP4 ADD MSTORE PUSH2 0x8BE DUP2 DUP5 PUSH2 0x7C7 JUMP JUMPDEST SWAP1 POP SWAP3 SWAP2 POP POP JUMP JUMPDEST PUSH1 0x0 PUSH1 0x20 DUP3 ADD SWAP1 POP DUP2 DUP2 SUB PUSH1 0x0 DUP4 ADD MSTORE PUSH2 0x8E0 DUP2 DUP5 PUSH2 0x800 JUMP JUMPDEST SWAP1 POP SWAP3 SWAP2 POP POP JUMP JUMPDEST PUSH1 0x0 PUSH1 0x20 DUP3 ADD SWAP1 POP PUSH2 0x8FD PUSH1 0x0 DUP4 ADD DUP5 PUSH2 0x85F JUMP JUMPDEST SWAP3 SWAP2 POP POP JUMP JUMPDEST PUSH1 0x0 PUSH1 0x60 DUP3 ADD SWAP1 POP PUSH2 0x918 PUSH1 0x0 DUP4 ADD DUP7 PUSH2 0x85F JUMP JUMPDEST DUP2 DUP2 SUB PUSH1 0x20 DUP4 ADD MSTORE PUSH2 0x92A DUP2 DUP6 PUSH2 0x7C7 JUMP JUMPDEST SWAP1 POP PUSH2 0x939 PUSH1 0x40 DUP4 ADD DUP5 PUSH2 0x77F JUMP JUMPDEST SWAP5 SWAP4 POP POP POP POP JUMP JUMPDEST PUSH1 0x0 PUSH2 0x94B PUSH2 0x95C JUMP JUMPDEST SWAP1 POP PUSH2 0x957 DUP3 DUP3 PUSH2 0xA80 JUMP JUMPDEST SWAP2 SWAP1 POP JUMP JUMPDEST PUSH1 0x0 PUSH1 0x40 MLOAD SWAP1 POP SWAP1 JUMP JUMPDEST PUSH1 0x0 PUSH8 0xFFFFFFFFFFFFFFFF DUP3 GT ISZERO PUSH2 0x981 JUMPI PUSH2 0x980 PUSH2 0xB40 JUMP JUMPDEST JUMPDEST PUSH2 0x98A DUP3 PUSH2 0xB83 JUMP JUMPDEST SWAP1 POP PUSH1 0x20 DUP2 ADD SWAP1 POP SWAP2 SWAP1 POP JUMP JUMPDEST PUSH1 0x0 DUP2 MLOAD SWAP1 POP SWAP2 SWAP1 POP JUMP JUMPDEST PUSH1 0x0 DUP3 DUP3 MSTORE PUSH1 0x20 DUP3 ADD SWAP1 POP SWAP3 SWAP2 POP POP JUMP JUMPDEST PUSH1 0x0 DUP3 DUP3 MSTORE PUSH1 0x20 DUP3 ADD SWAP1 POP SWAP3 SWAP2 POP POP JUMP JUMPDEST PUSH1 0x0 PUSH2 0x9CF DUP3 PUSH2 0x9E2 JUMP JUMPDEST SWAP1 POP SWAP2 SWAP1 POP JUMP JUMPDEST PUSH1 0x0 DUP2 ISZERO ISZERO SWAP1 POP SWAP2 SWAP1 POP JUMP JUMPDEST PUSH1 0x0 PUSH20 0xFFFFFFFFFFFFFFFFFFFFFFFFFFFFFFFFFFFFFFFF DUP3 AND SWAP1 POP SWAP2 SWAP1 POP JUMP JUMPDEST PUSH1 0x0 DUP2 SWAP1 POP SWAP2 SWAP1 POP JUMP JUMPDEST DUP3 DUP2 DUP4 CALLDATACOPY PUSH1 0x0 DUP4 DUP4 ADD MSTORE POP POP POP JUMP JUMPDEST PUSH1 0x0 JUMPDEST DUP4 DUP2 LT ISZERO PUSH2 0xA39 JUMPI DUP1 DUP3 ADD MLOAD DUP2 DUP5 ADD MSTORE PUSH1 0x20 DUP2 ADD SWAP1 POP PUSH2 0xA1E JUMP JUMPDEST DUP4 DUP2 GT ISZERO PUSH2 0xA48 JUMPI PUSH1 0x0 DUP5 DUP5 ADD MSTORE JUMPDEST POP POP POP POP JUMP JUMPDEST PUSH1 0x0 PUSH1 0x2 DUP3 DIV SWAP1 POP PUSH1 0x1 DUP3 AND DUP1 PUSH2 0xA66 JUMPI PUSH1 0x7F DUP3 AND SWAP2 POP JUMPDEST PUSH1 0x20 DUP3 LT DUP2 EQ ISZERO PUSH2 0xA7A JUMPI PUSH2 0xA79 PUSH2 0xB11 JUMP JUMPDEST JUMPDEST POP SWAP2 SWAP1 POP JUMP JUMPDEST PUSH2 0xA89 DUP3 PUSH2 0xB83 JUMP JUMPDEST DUP2 ADD DUP2 DUP2 LT PUSH8 0xFFFFFFFFFFFFFFFF DUP3 GT OR ISZERO PUSH2 0xAA8 JUMPI PUSH2 0xAA7 PUSH2 0xB40 JUMP JUMPDEST JUMPDEST DUP1 PUSH1 0x40 MSTORE POP POP POP JUMP JUMPDEST PUSH1 0x0 PUSH2 0xABC DUP3 PUSH2 0xA02 JUMP JUMPDEST SWAP2 POP PUSH2 0xAC7 DUP4 PUSH2 0xA02 JUMP JUMPDEST SWAP3 POP DUP3 PUSH2 0xAD7 JUMPI PUSH2 0xAD6 PUSH2 0xAE2 JUMP JUMPDEST JUMPDEST DUP3 DUP3 MOD SWAP1 POP SWAP3 SWAP2 POP POP JUMP JUMPDEST PUSH32 0x4E487B7100000000000000000000000000000000000000000000000000000000 PUSH1 0x0 MSTORE PUSH1 0x12 PUSH1 0x4 MSTORE PUSH1 0x24 PUSH1 0x0 REVERT JUMPDEST PUSH32 0x4E487B7100000000000000000000000000000000000000000000000000000000 PUSH1 0x0 MSTORE PUSH1 0x22 PUSH1 0x4 MSTORE PUSH1 0x24 PUSH1 0x0 REVERT JUMPDEST PUSH32 0x4E487B7100000000000000000000000000000000000000000000000000000000 PUSH1 0x0 MSTORE PUSH1 0x41 PUSH1 0x4 MSTORE PUSH1 0x24 PUSH1 0x0 REVERT JUMPDEST PUSH1 0x0 DUP1 REVERT JUMPDEST PUSH1 0x0 DUP1 REVERT JUMPDEST PUSH1 0x0 DUP1 REVERT JUMPDEST PUSH1 0x0 DUP1 REVERT JUMPDEST PUSH1 0x0 PUSH1 0x1F NOT PUSH1 0x1F DUP4 ADD AND SWAP1 POP SWAP2 SWAP1 POP JUMP JUMPDEST PUSH2 0xB9D DUP2 PUSH2 0xA02 JUMP JUMPDEST DUP2 EQ PUSH2 0xBA8 JUMPI PUSH1 0x0 DUP1 REVERT JUMPDEST POP JUMP INVALID LOG2 PUSH5 0x6970667358 0x22 SLT KECCAK256 BALANCE SWAP5 GASPRICE LOG3 SWAP12 DUP9 DUP13 0xAC POP 0xB0 0xB7 0xD3 0xC2 DUP6 DUP1 0xF7 GASLIMIT SWAP7 0x5C PUSH10 0x691EBE5A8F87609B7FAB 0xE SHL PUSH5 0x736F6C6343 STOP ADDMOD SMOD STOP CALLER "
				},
				"gasEstimates": {
					"creation": {
						"codeDepositCost": "608200",
						"executionCost": "infinite",
						"totalCost": "infinite"
					},
					"external": {
						"addFacebook(uint256,string)": "infinite",
						"getName()": "infinite",
						"getNameViaNumber(uint256)": "infinite",
						"getNumber()": "2525",
						"getSender()": "452",
						"getTestStruct()": "infinite",
						"setIsEven(uint256)": "infinite",
						"setName(string)": "infinite",
						"testStruct()": "infinite"
					}
				},
				"methodIdentifiers": {
					"addFacebook(uint256,string)": "6cfe622b",
					"getName()": "17d7de7c",
					"getNameViaNumber(uint256)": "e6ecf728",
					"getNumber()": "f2c9ecd8",
					"getSender()": "5e01eb5a",
					"getTestStruct()": "151bfb8a",
					"setIsEven(uint256)": "42b12e24",
					"setName(string)": "c47f0027",
					"testStruct()": "9b0e317c"
				}
			},
			"storageLayout": {
				"storage": [
					{
						"astId": 3,
						"contract": "contract/Example.sol:Example",
						"label": "number",
						"offset": 0,
						"slot": "0",
						"type": "t_uint256"
					},
					{
						"astId": 5,
						"contract": "contract/Example.sol:Example",
						"label": "name",
						"offset": 0,
						"slot": "1",
						"type": "t_string_storage"
					},
					{
						"astId": 15,
						"contract": "contract/Example.sol:Example",
						"label": "testStruct",
						"offset": 0,
						"slot": "2",
						"type": "t_struct(TestStruct)12_storage"
					},
					{
						"astId": 19,
						"contract": "contract/Example.sol:Example",
						"label": "names",
						"offset": 0,
						"slot": "5",
						"type": "t_mapping(t_uint256,t_string_storage)"
					}
				],
				"types": {
					"t_bool": {
						"encoding": "inplace",
						"label": "bool",
						"numberOfBytes": "1"
					},
					"t_mapping(t_uint256,t_string_storage)": {
						"encoding": "mapping",
						"key": "t_uint256",
						"label": "mapping(uint256 => string)",
						"numberOfBytes": "32",
						"value": "t_string_storage"
					},
					"t_string_storage": {
						"encoding": "bytes",
						"label": "string",
						"numberOfBytes": "32"
					},
					"t_struct(TestStruct)12_storage": {
						"encoding": "inplace",
						"label": "struct Example.TestStruct",
						"members": [
							{
								"astId": 7,
								"contract": "contract/Example.sol:Example",
								"label": "number",
								"offset": 0,
								"slot": "0",
								"type": "t_uint256"
							},
							{
								"astId": 9,
								"contract": "contract/Example.sol:Example",
								"label": "name",
								"offset": 0,
								"slot": "1",
								"type": "t_string_storage"
							},
							{
								"astId": 11,
								"contract": "contract/Example.sol:Example",
								"label": "isStruct",
								"offset": 0,
								"slot": "2",
								"type": "t_bool"
							}
						],
						"numberOfBytes": "96"
					},
					"t_uint256": {
						"encoding": "inplace",
						"label": "uint256",
						"numberOfBytes": "32"
					}
				}
			},
			"userdoc": {
				"kind": "user",
				"methods": {},
				"version": 1
			}
		}
	}
}