{
	"contract/KimhoGames.sol": {
		"Game": {
			"abi": [
				{
					"inputs": [],
					"stateMutability": "nonpayable",
					"type": "constructor"
				},
				{
					"anonymous": false,
					"inputs": [
						{
							"indexed": true,
							"internalType": "address",
							"name": "owner",
							"type": "address"
						},
						{
							"indexed": true,
							"internalType": "address",
							"name": "spender",
							"type": "address"
						},
						{
							"indexed": false,
							"internalType": "uint256",
							"name": "value",
							"type": "uint256"
						}
					],
					"name": "Approval",
					"type": "event"
				},
				{
					"anonymous": false,
					"inputs": [
						{
							"indexed": true,
							"internalType": "address",
							"name": "from",
							"type": "address"
						},
						{
							"indexed": true,
							"internalType": "address",
							"name": "to",
							"type": "address"
						},
						{
							"indexed": false,
							"internalType": "uint256",
							"name": "value",
							"type": "uint256"
						}
					],
					"name": "Transfer",
					"type": "event"
				},
				{
					"inputs": [
						{
							"internalType": "uint256",
							"name": "input",
							"type": "uint256"
						}
					],
					"name": "NumBaseBall",
					"outputs": [
						{
							"internalType": "bool",
							"name": "",
							"type": "bool"
						}
					],
					"stateMutability": "nonpayable",
					"type": "function"
				},
				{
					"inputs": [
						{
							"internalType": "uint256",
							"name": "input1",
							"type": "uint256"
						},
						{
							"internalType": "uint256",
							"name": "input2",
							"type": "uint256"
						},
						{
							"internalType": "uint256",
							"name": "input3",
							"type": "uint256"
						}
					],
					"name": "RockPaperScissors",
					"outputs": [
						{
							"internalType": "string",
							"name": "",
							"type": "string"
						}
					],
					"stateMutability": "nonpayable",
					"type": "function"
				},
				{
					"inputs": [
						{
							"internalType": "address",
							"name": "owner",
							"type": "address"
						},
						{
							"internalType": "address",
							"name": "spender",
							"type": "address"
						}
					],
					"name": "allowance",
					"outputs": [
						{
							"internalType": "uint256",
							"name": "",
							"type": "uint256"
						}
					],
					"stateMutability": "view",
					"type": "function"
				},
				{
					"inputs": [
						{
							"internalType": "address",
							"name": "spender",
							"type": "address"
						},
						{
							"internalType": "uint256",
							"name": "amount",
							"type": "uint256"
						}
					],
					"name": "approve",
					"outputs": [
						{
							"internalType": "bool",
							"name": "",
							"type": "bool"
						}
					],
					"stateMutability": "nonpayable",
					"type": "function"
				},
				{
					"inputs": [
						{
							"internalType": "address",
							"name": "account",
							"type": "address"
						}
					],
					"name": "balanceOf",
					"outputs": [
						{
							"internalType": "uint256",
							"name": "",
							"type": "uint256"
						}
					],
					"stateMutability": "view",
					"type": "function"
				},
				{
					"inputs": [],
					"name": "decimals",
					"outputs": [
						{
							"internalType": "uint8",
							"name": "",
							"type": "uint8"
						}
					],
					"stateMutability": "view",
					"type": "function"
				},
				{
					"inputs": [
						{
							"internalType": "address",
							"name": "spender",
							"type": "address"
						},
						{
							"internalType": "uint256",
							"name": "subtractedValue",
							"type": "uint256"
						}
					],
					"name": "decreaseAllowance",
					"outputs": [
						{
							"internalType": "bool",
							"name": "",
							"type": "bool"
						}
					],
					"stateMutability": "nonpayable",
					"type": "function"
				},
				{
					"inputs": [],
					"name": "gameEND",
					"outputs": [
						{
							"internalType": "bool",
							"name": "",
							"type": "bool"
						}
					],
					"stateMutability": "nonpayable",
					"type": "function"
				},
				{
					"inputs": [],
					"name": "getNumBaseBallSore",
					"outputs": [
						{
							"internalType": "string",
							"name": "",
							"type": "string"
						}
					],
					"stateMutability": "view",
					"type": "function"
				},
				{
					"inputs": [],
					"name": "getRaceScore",
					"outputs": [
						{
							"internalType": "string",
							"name": "",
							"type": "string"
						}
					],
					"stateMutability": "view",
					"type": "function"
				},
				{
					"inputs": [],
					"name": "getRockScissorsPaper",
					"outputs": [
						{
							"internalType": "string",
							"name": "",
							"type": "string"
						}
					],
					"stateMutability": "view",
					"type": "function"
				},
				{
					"inputs": [
						{
							"internalType": "address",
							"name": "spender",
							"type": "address"
						},
						{
							"internalType": "uint256",
							"name": "addedValue",
							"type": "uint256"
						}
					],
					"name": "increaseAllowance",
					"outputs": [
						{
							"internalType": "bool",
							"name": "",
							"type": "bool"
						}
					],
					"stateMutability": "nonpayable",
					"type": "function"
				},
				{
					"inputs": [
						{
							"internalType": "uint256",
							"name": "amount",
							"type": "uint256"
						}
					],
					"name": "mint",
					"outputs": [],
					"stateMutability": "nonpayable",
					"type": "function"
				},
				{
					"inputs": [],
					"name": "name",
					"outputs": [
						{
							"internalType": "string",
							"name": "",
							"type": "string"
						}
					],
					"stateMutability": "view",
					"type": "function"
				},
				{
					"inputs": [],
					"name": "owner",
					"outputs": [
						{
							"internalType": "address",
							"name": "",
							"type": "address"
						}
					],
					"stateMutability": "view",
					"type": "function"
				},
				{
					"inputs": [
						{
							"internalType": "uint256",
							"name": "input",
							"type": "uint256"
						}
					],
					"name": "race",
					"outputs": [
						{
							"internalType": "bool",
							"name": "",
							"type": "bool"
						}
					],
					"stateMutability": "nonpayable",
					"type": "function"
				},
				{
					"inputs": [],
					"name": "symbol",
					"outputs": [
						{
							"internalType": "string",
							"name": "",
							"type": "string"
						}
					],
					"stateMutability": "view",
					"type": "function"
				},
				{
					"inputs": [],
					"name": "totalSupply",
					"outputs": [
						{
							"internalType": "uint256",
							"name": "",
							"type": "uint256"
						}
					],
					"stateMutability": "view",
					"type": "function"
				},
				{
					"inputs": [
						{
							"internalType": "address",
							"name": "to",
							"type": "address"
						},
						{
							"internalType": "uint256",
							"name": "amount",
							"type": "uint256"
						}
					],
					"name": "transfer",
					"outputs": [
						{
							"internalType": "bool",
							"name": "",
							"type": "bool"
						}
					],
					"stateMutability": "nonpayable",
					"type": "function"
				},
				{
					"inputs": [
						{
							"internalType": "address",
							"name": "from",
							"type": "address"
						},
						{
							"internalType": "address",
							"name": "to",
							"type": "address"
						},
						{
							"internalType": "uint256",
							"name": "amount",
							"type": "uint256"
						}
					],
					"name": "transferFrom",
					"outputs": [
						{
							"internalType": "bool",
							"name": "",
							"type": "bool"
						}
					],
					"stateMutability": "nonpayable",
					"type": "function"
				}
			],
			"devdoc": {
				"kind": "dev",
				"methods": {
					"allowance(address,address)": {
						"details": "See {IERC20-allowance}."
					},
					"approve(address,uint256)": {
						"details": "See {IERC20-approve}. NOTE: If `amount` is the maximum `uint256`, the allowance is not updated on `transferFrom`. This is semantically equivalent to an infinite approval. Requirements: - `spender` cannot be the zero address."
					},
					"balanceOf(address)": {
						"details": "See {IERC20-balanceOf}."
					},
					"decimals()": {
						"details": "Returns the number of decimals used to get its user representation. For example, if `decimals` equals `2`, a balance of `505` tokens should be displayed to a user as `5.05` (`505 / 10 ** 2`). Tokens usually opt for a value of 18, imitating the relationship between Ether and Wei. This is the value {ERC20} uses, unless this function is overridden; NOTE: This information is only used for _display_ purposes: it in no way affects any of the arithmetic of the contract, including {IERC20-balanceOf} and {IERC20-transfer}."
					},
					"decreaseAllowance(address,uint256)": {
						"details": "Atomically decreases the allowance granted to `spender` by the caller. This is an alternative to {approve} that can be used as a mitigation for problems described in {IERC20-approve}. Emits an {Approval} event indicating the updated allowance. Requirements: - `spender` cannot be the zero address. - `spender` must have allowance for the caller of at least `subtractedValue`."
					},
					"increaseAllowance(address,uint256)": {
						"details": "Atomically increases the allowance granted to `spender` by the caller. This is an alternative to {approve} that can be used as a mitigation for problems described in {IERC20-approve}. Emits an {Approval} event indicating the updated allowance. Requirements: - `spender` cannot be the zero address."
					},
					"name()": {
						"details": "Returns the name of the token."
					},
					"symbol()": {
						"details": "Returns the symbol of the token, usually a shorter version of the name."
					},
					"totalSupply()": {
						"details": "See {IERC20-totalSupply}."
					},
					"transfer(address,uint256)": {
						"details": "See {IERC20-transfer}. Requirements: - `to` cannot be the zero address. - the caller must have a balance of at least `amount`."
					},
					"transferFrom(address,address,uint256)": {
						"details": "See {IERC20-transferFrom}. Emits an {Approval} event indicating the updated allowance. This is not required by the EIP. See the note at the beginning of {ERC20}. NOTE: Does not update the allowance if the current allowance is the maximum `uint256`. Requirements: - `from` and `to` cannot be the zero address. - `from` must have a balance of at least `amount`. - the caller must have allowance for ``from``'s tokens of at least `amount`."
					}
				},
				"version": 1
			},
			"evm": {
				"assembly": "    /* \"contract/KimhoGames.sol\":132:5368  contract Game is ERC20{\r... */\n  mstore(0x40, 0x80)\n    /* \"contract/KimhoGames.sol\":1413:1414  0 */\n  0x00\n    /* \"contract/KimhoGames.sol\":1398:1414  uint randNonce=0 */\n  0x09\n  sstore\n    /* \"contract/KimhoGames.sol\":290:420  constructor() ERC20(\"GameCoin\", \"Alice\"){ //생성자\r... */\n  callvalue\n  dup1\n  iszero\n  tag_1\n  jumpi\n  0x00\n  dup1\n  revert\ntag_1:\n  pop\n    /* \"@openzeppelin/contracts/token/ERC20/ERC20.sol\":1978:2091  constructor(string memory name_, string memory symbol_) {... */\n  mload(0x40)\n  dup1\n  0x40\n  add\n  0x40\n  mstore\n  dup1\n  0x08\n  dup2\n  mstore\n  0x20\n  add\n  0x47616d65436f696e000000000000000000000000000000000000000000000000\n  dup2\n  mstore\n  pop\n  mload(0x40)\n  dup1\n  0x40\n  add\n  0x40\n  mstore\n  dup1\n  0x05\n  dup2\n  mstore\n  0x20\n  add\n  0x416c696365000000000000000000000000000000000000000000000000000000\n  dup2\n  mstore\n  pop\n    /* \"@openzeppelin/contracts/token/ERC20/ERC20.sol\":2052:2057  name_ */\n  dup2\n    /* \"@openzeppelin/contracts/token/ERC20/ERC20.sol\":2044:2049  _name */\n  0x03\n    /* \"@openzeppelin/contracts/token/ERC20/ERC20.sol\":2044:2057  _name = name_ */\n  swap1\n  dup1\n  mload\n  swap1\n  0x20\n  add\n  swap1\n  tag_5\n  swap3\n  swap2\n  swap1\n  tag_6\n  jump\t// in\ntag_5:\n  pop\n    /* \"@openzeppelin/contracts/token/ERC20/ERC20.sol\":2077:2084  symbol_ */\n  dup1\n    /* \"@openzeppelin/contracts/token/ERC20/ERC20.sol\":2067:2074  _symbol */\n  0x04\n    /* \"@openzeppelin/contracts/token/ERC20/ERC20.sol\":2067:2084  _symbol = symbol_ */\n  swap1\n  dup1\n  mload\n  swap1\n  0x20\n  add\n  swap1\n  tag_7\n  swap3\n  swap2\n  swap1\n  tag_6\n  jump\t// in\ntag_7:\n  pop\n    /* \"@openzeppelin/contracts/token/ERC20/ERC20.sol\":1978:2091  constructor(string memory name_, string memory symbol_) {... */\n  pop\n  pop\n    /* \"contract/KimhoGames.sol\":361:371  msg.sender */\n  caller\n    /* \"contract/KimhoGames.sol\":353:358  owner */\n  0x05\n  0x00\n    /* \"contract/KimhoGames.sol\":353:371  owner = msg.sender */\n  0x0100\n  exp\n  dup2\n  sload\n  dup2\n  0xffffffffffffffffffffffffffffffffffffffff\n  mul\n  not\n  and\n  swap1\n  dup4\n  0xffffffffffffffffffffffffffffffffffffffff\n  and\n  mul\n  or\n  swap1\n  sstore\n  pop\n    /* \"contract/KimhoGames.sol\":132:5368  contract Game is ERC20{\r... */\n  jump(tag_9)\ntag_6:\n  dup3\n  dup1\n  sload\n  tag_10\n  swap1\n  tag_11\n  jump\t// in\ntag_10:\n  swap1\n  0x00\n  mstore\n  keccak256(0x00, 0x20)\n  swap1\n  0x1f\n  add\n  0x20\n  swap1\n  div\n  dup2\n  add\n  swap3\n  dup3\n  tag_13\n  jumpi\n  0x00\n  dup6\n  sstore\n  jump(tag_12)\ntag_13:\n  dup3\n  0x1f\n  lt\n  tag_14\n  jumpi\n  dup1\n  mload\n  not(0xff)\n  and\n  dup4\n  dup1\n  add\n  or\n  dup6\n  sstore\n  jump(tag_12)\ntag_14:\n  dup3\n  dup1\n  add\n  0x01\n  add\n  dup6\n  sstore\n  dup3\n  iszero\n  tag_12\n  jumpi\n  swap2\n  dup3\n  add\ntag_15:\n  dup3\n  dup2\n  gt\n  iszero\n  tag_16\n  jumpi\n  dup3\n  mload\n  dup3\n  sstore\n  swap2\n  0x20\n  add\n  swap2\n  swap1\n  0x01\n  add\n  swap1\n  jump(tag_15)\ntag_16:\ntag_12:\n  pop\n  swap1\n  pop\n  tag_17\n  swap2\n  swap1\n  tag_18\n  jump\t// in\ntag_17:\n  pop\n  swap1\n  jump\t// out\ntag_18:\ntag_19:\n  dup1\n  dup3\n  gt\n  iszero\n  tag_20\n  jumpi\n  0x00\n  dup2\n  0x00\n  swap1\n  sstore\n  pop\n  0x01\n  add\n  jump(tag_19)\ntag_20:\n  pop\n  swap1\n  jump\t// out\n    /* \"#utility.yul\":7:327   */\ntag_11:\n    /* \"#utility.yul\":51:57   */\n  0x00\n    /* \"#utility.yul\":88:89   */\n  0x02\n    /* \"#utility.yul\":82:86   */\n  dup3\n    /* \"#utility.yul\":78:90   */\n  div\n    /* \"#utility.yul\":68:90   */\n  swap1\n  pop\n    /* \"#utility.yul\":135:136   */\n  0x01\n    /* \"#utility.yul\":129:133   */\n  dup3\n    /* \"#utility.yul\":125:137   */\n  and\n    /* \"#utility.yul\":156:174   */\n  dup1\n    /* \"#utility.yul\":146:227   */\n  tag_23\n  jumpi\n    /* \"#utility.yul\":212:216   */\n  0x7f\n    /* \"#utility.yul\":204:210   */\n  dup3\n    /* \"#utility.yul\":200:217   */\n  and\n    /* \"#utility.yul\":190:217   */\n  swap2\n  pop\n    /* \"#utility.yul\":146:227   */\ntag_23:\n    /* \"#utility.yul\":274:276   */\n  0x20\n    /* \"#utility.yul\":266:272   */\n  dup3\n    /* \"#utility.yul\":263:277   */\n  lt\n    /* \"#utility.yul\":243:261   */\n  dup2\n    /* \"#utility.yul\":240:278   */\n  eq\n    /* \"#utility.yul\":237:321   */\n  iszero\n  tag_24\n  jumpi\n    /* \"#utility.yul\":293:311   */\n  tag_25\n  tag_26\n  jump\t// in\ntag_25:\n    /* \"#utility.yul\":237:321   */\ntag_24:\n    /* \"#utility.yul\":58:327   */\n  pop\n    /* \"#utility.yul\":7:327   */\n  swap2\n  swap1\n  pop\n  jump\t// out\n    /* \"#utility.yul\":333:513   */\ntag_26:\n    /* \"#utility.yul\":381:458   */\n  0x4e487b7100000000000000000000000000000000000000000000000000000000\n    /* \"#utility.yul\":378:379   */\n  0x00\n    /* \"#utility.yul\":371:459   */\n  mstore\n    /* \"#utility.yul\":478:482   */\n  0x22\n    /* \"#utility.yul\":475:476   */\n  0x04\n    /* \"#utility.yul\":468:483   */\n  mstore\n    /* \"#utility.yul\":502:506   */\n  0x24\n    /* \"#utility.yul\":499:500   */\n  0x00\n    /* \"#utility.yul\":492:507   */\n  revert\n    /* \"contract/KimhoGames.sol\":132:5368  contract Game is ERC20{\r... */\ntag_9:\n  dataSize(sub_0)\n  dup1\n  dataOffset(sub_0)\n  0x00\n  codecopy\n  0x00\n  return\nstop\n\nsub_0: assembly {\n        /* \"contract/KimhoGames.sol\":132:5368  contract Game is ERC20{\r... */\n      mstore(0x40, 0x80)\n      callvalue\n      dup1\n      iszero\n      tag_1\n      jumpi\n      0x00\n      dup1\n      revert\n    tag_1:\n      pop\n      jumpi(tag_2, lt(calldatasize, 0x04))\n      shr(0xe0, calldataload(0x00))\n      dup1\n      0x8ae7fbe2\n      gt\n      tag_23\n      jumpi\n      dup1\n      0xa457c2d7\n      gt\n      tag_24\n      jumpi\n      dup1\n      0xa457c2d7\n      eq\n      tag_18\n      jumpi\n      dup1\n      0xa9059cbb\n      eq\n      tag_19\n      jumpi\n      dup1\n      0xb76d9cc1\n      eq\n      tag_20\n      jumpi\n      dup1\n      0xb7dda85e\n      eq\n      tag_21\n      jumpi\n      dup1\n      0xdd62ed3e\n      eq\n      tag_22\n      jumpi\n      jump(tag_2)\n    tag_24:\n      dup1\n      0x8ae7fbe2\n      eq\n      tag_13\n      jumpi\n      dup1\n      0x8da5cb5b\n      eq\n      tag_14\n      jumpi\n      dup1\n      0x95d89b41\n      eq\n      tag_15\n      jumpi\n      dup1\n      0xa0712d68\n      eq\n      tag_16\n      jumpi\n      dup1\n      0xa3b1f6cc\n      eq\n      tag_17\n      jumpi\n      jump(tag_2)\n    tag_23:\n      dup1\n      0x2a344f8e\n      gt\n      tag_25\n      jumpi\n      dup1\n      0x2a344f8e\n      eq\n      tag_8\n      jumpi\n      dup1\n      0x313ce567\n      eq\n      tag_9\n      jumpi\n      dup1\n      0x39509351\n      eq\n      tag_10\n      jumpi\n      dup1\n      0x4802d378\n      eq\n      tag_11\n      jumpi\n      dup1\n      0x70a08231\n      eq\n      tag_12\n      jumpi\n      jump(tag_2)\n    tag_25:\n      dup1\n      0x06fdde03\n      eq\n      tag_3\n      jumpi\n      dup1\n      0x095ea7b3\n      eq\n      tag_4\n      jumpi\n      dup1\n      0x18160ddd\n      eq\n      tag_5\n      jumpi\n      dup1\n      0x19c6b708\n      eq\n      tag_6\n      jumpi\n      dup1\n      0x23b872dd\n      eq\n      tag_7\n      jumpi\n    tag_2:\n      0x00\n      dup1\n      revert\n        /* \"@openzeppelin/contracts/token/ERC20/ERC20.sol\":2156:2254  function name() public view virtual override returns (string memory) {... */\n    tag_3:\n      tag_26\n      tag_27\n      jump\t// in\n    tag_26:\n      mload(0x40)\n      tag_28\n      swap2\n      swap1\n      tag_29\n      jump\t// in\n    tag_28:\n      mload(0x40)\n      dup1\n      swap2\n      sub\n      swap1\n      return\n        /* \"@openzeppelin/contracts/token/ERC20/ERC20.sol\":4433:4630  function approve(address spender, uint256 amount) public virtual override returns (bool) {... */\n    tag_4:\n      tag_30\n      0x04\n      dup1\n      calldatasize\n      sub\n      dup2\n      add\n      swap1\n      tag_31\n      swap2\n      swap1\n      tag_32\n      jump\t// in\n    tag_31:\n      tag_33\n      jump\t// in\n    tag_30:\n      mload(0x40)\n      tag_34\n      swap2\n      swap1\n      tag_35\n      jump\t// in\n    tag_34:\n      mload(0x40)\n      dup1\n      swap2\n      sub\n      swap1\n      return\n        /* \"@openzeppelin/contracts/token/ERC20/ERC20.sol\":3244:3350  function totalSupply() public view virtual override returns (uint256) {... */\n    tag_5:\n      tag_36\n      tag_37\n      jump\t// in\n    tag_36:\n      mload(0x40)\n      tag_38\n      swap2\n      swap1\n      tag_39\n      jump\t// in\n    tag_38:\n      mload(0x40)\n      dup1\n      swap2\n      sub\n      swap1\n      return\n        /* \"contract/KimhoGames.sol\":4247:4696  function NumBaseBall(uint input) public returns (bool){\r... */\n    tag_6:\n      tag_40\n      0x04\n      dup1\n      calldatasize\n      sub\n      dup2\n      add\n      swap1\n      tag_41\n      swap2\n      swap1\n      tag_42\n      jump\t// in\n    tag_41:\n      tag_43\n      jump\t// in\n    tag_40:\n      mload(0x40)\n      tag_44\n      swap2\n      swap1\n      tag_35\n      jump\t// in\n    tag_44:\n      mload(0x40)\n      dup1\n      swap2\n      sub\n      swap1\n      return\n        /* \"@openzeppelin/contracts/token/ERC20/ERC20.sol\":5192:5478  function transferFrom(... */\n    tag_7:\n      tag_45\n      0x04\n      dup1\n      calldatasize\n      sub\n      dup2\n      add\n      swap1\n      tag_46\n      swap2\n      swap1\n      tag_47\n      jump\t// in\n    tag_46:\n      tag_48\n      jump\t// in\n    tag_45:\n      mload(0x40)\n      tag_49\n      swap2\n      swap1\n      tag_35\n      jump\t// in\n    tag_49:\n      mload(0x40)\n      dup1\n      swap2\n      sub\n      swap1\n      return\n        /* \"contract/KimhoGames.sol\":4705:4809  function getNumBaseBallSore() public view returns (string memory){\r... */\n    tag_8:\n      tag_50\n      tag_51\n      jump\t// in\n    tag_50:\n      mload(0x40)\n      tag_52\n      swap2\n      swap1\n      tag_29\n      jump\t// in\n    tag_52:\n      mload(0x40)\n      dup1\n      swap2\n      sub\n      swap1\n      return\n        /* \"@openzeppelin/contracts/token/ERC20/ERC20.sol\":3093:3184  function decimals() public view virtual override returns (uint8) {... */\n    tag_9:\n      tag_53\n      tag_54\n      jump\t// in\n    tag_53:\n      mload(0x40)\n      tag_55\n      swap2\n      swap1\n      tag_56\n      jump\t// in\n    tag_55:\n      mload(0x40)\n      dup1\n      swap2\n      sub\n      swap1\n      return\n        /* \"@openzeppelin/contracts/token/ERC20/ERC20.sol\":5873:6107  function increaseAllowance(address spender, uint256 addedValue) public virtual returns (bool) {... */\n    tag_10:\n      tag_57\n      0x04\n      dup1\n      calldatasize\n      sub\n      dup2\n      add\n      swap1\n      tag_58\n      swap2\n      swap1\n      tag_32\n      jump\t// in\n    tag_58:\n      tag_59\n      jump\t// in\n    tag_57:\n      mload(0x40)\n      tag_60\n      swap2\n      swap1\n      tag_35\n      jump\t// in\n    tag_60:\n      mload(0x40)\n      dup1\n      swap2\n      sub\n      swap1\n      return\n        /* \"contract/KimhoGames.sol\":4122:4237  function getRockScissorsPaper() public view returns (string memory){\r... */\n    tag_11:\n      tag_61\n      tag_62\n      jump\t// in\n    tag_61:\n      mload(0x40)\n      tag_63\n      swap2\n      swap1\n      tag_29\n      jump\t// in\n    tag_63:\n      mload(0x40)\n      dup1\n      swap2\n      sub\n      swap1\n      return\n        /* \"@openzeppelin/contracts/token/ERC20/ERC20.sol\":3408:3533  function balanceOf(address account) public view virtual override returns (uint256) {... */\n    tag_12:\n      tag_64\n      0x04\n      dup1\n      calldatasize\n      sub\n      dup2\n      add\n      swap1\n      tag_65\n      swap2\n      swap1\n      tag_66\n      jump\t// in\n    tag_65:\n      tag_67\n      jump\t// in\n    tag_64:\n      mload(0x40)\n      tag_68\n      swap2\n      swap1\n      tag_39\n      jump\t// in\n    tag_68:\n      mload(0x40)\n      dup1\n      swap2\n      sub\n      swap1\n      return\n        /* \"contract/KimhoGames.sol\":428:1122  function gameEND()public returns (bool){\r... */\n    tag_13:\n      tag_69\n      tag_70\n      jump\t// in\n    tag_69:\n      mload(0x40)\n      tag_71\n      swap2\n      swap1\n      tag_35\n      jump\t// in\n    tag_71:\n      mload(0x40)\n      dup1\n      swap2\n      sub\n      swap1\n      return\n        /* \"contract/KimhoGames.sol\":161:181  address public owner */\n    tag_14:\n      tag_72\n      tag_73\n      jump\t// in\n    tag_72:\n      mload(0x40)\n      tag_74\n      swap2\n      swap1\n      tag_75\n      jump\t// in\n    tag_74:\n      mload(0x40)\n      dup1\n      swap2\n      sub\n      swap1\n      return\n        /* \"@openzeppelin/contracts/token/ERC20/ERC20.sol\":2367:2469  function symbol() public view virtual override returns (string memory) {... */\n    tag_15:\n      tag_76\n      tag_77\n      jump\t// in\n    tag_76:\n      mload(0x40)\n      tag_78\n      swap2\n      swap1\n      tag_29\n      jump\t// in\n    tag_78:\n      mload(0x40)\n      dup1\n      swap2\n      sub\n      swap1\n      return\n        /* \"contract/KimhoGames.sol\":1291:1386  function mint(uint256 amount) public {\r... */\n    tag_16:\n      tag_79\n      0x04\n      dup1\n      calldatasize\n      sub\n      dup2\n      add\n      swap1\n      tag_80\n      swap2\n      swap1\n      tag_42\n      jump\t// in\n    tag_80:\n      tag_81\n      jump\t// in\n    tag_79:\n      stop\n        /* \"contract/KimhoGames.sol\":1620:4114  function RockPaperScissors(uint input1, uint input2, uint input3) public returns (string memory){\r... */\n    tag_17:\n      tag_82\n      0x04\n      dup1\n      calldatasize\n      sub\n      dup2\n      add\n      swap1\n      tag_83\n      swap2\n      swap1\n      tag_84\n      jump\t// in\n    tag_83:\n      tag_85\n      jump\t// in\n    tag_82:\n      mload(0x40)\n      tag_86\n      swap2\n      swap1\n      tag_29\n      jump\t// in\n    tag_86:\n      mload(0x40)\n      dup1\n      swap2\n      sub\n      swap1\n      return\n        /* \"@openzeppelin/contracts/token/ERC20/ERC20.sol\":6594:7021  function decreaseAllowance(address spender, uint256 subtractedValue) public virtual returns (bool) {... */\n    tag_18:\n      tag_87\n      0x04\n      dup1\n      calldatasize\n      sub\n      dup2\n      add\n      swap1\n      tag_88\n      swap2\n      swap1\n      tag_32\n      jump\t// in\n    tag_88:\n      tag_89\n      jump\t// in\n    tag_87:\n      mload(0x40)\n      tag_90\n      swap2\n      swap1\n      tag_35\n      jump\t// in\n    tag_90:\n      mload(0x40)\n      dup1\n      swap2\n      sub\n      swap1\n      return\n        /* \"contract/KimhoGames.sol\":1134:1279  function transfer(address to, uint256 amount) public override returns (bool){\r... */\n    tag_19:\n      tag_91\n      0x04\n      dup1\n      calldatasize\n      sub\n      dup2\n      add\n      swap1\n      tag_92\n      swap2\n      swap1\n      tag_32\n      jump\t// in\n    tag_92:\n      tag_93\n      jump\t// in\n    tag_91:\n      mload(0x40)\n      tag_94\n      swap2\n      swap1\n      tag_35\n      jump\t// in\n    tag_94:\n      mload(0x40)\n      dup1\n      swap2\n      sub\n      swap1\n      return\n        /* \"contract/KimhoGames.sol\":5267:5363  function getRaceScore() public view returns (string memory){\r... */\n    tag_20:\n      tag_95\n      tag_96\n      jump\t// in\n    tag_95:\n      mload(0x40)\n      tag_97\n      swap2\n      swap1\n      tag_29\n      jump\t// in\n    tag_97:\n      mload(0x40)\n      dup1\n      swap2\n      sub\n      swap1\n      return\n        /* \"contract/KimhoGames.sol\":4817:5255  function race(uint input) public returns (bool){\r... */\n    tag_21:\n      tag_98\n      0x04\n      dup1\n      calldatasize\n      sub\n      dup2\n      add\n      swap1\n      tag_99\n      swap2\n      swap1\n      tag_42\n      jump\t// in\n    tag_99:\n      tag_100\n      jump\t// in\n    tag_98:\n      mload(0x40)\n      tag_101\n      swap2\n      swap1\n      tag_35\n      jump\t// in\n    tag_101:\n      mload(0x40)\n      dup1\n      swap2\n      sub\n      swap1\n      return\n        /* \"@openzeppelin/contracts/token/ERC20/ERC20.sol\":3976:4125  function allowance(address owner, address spender) public view virtual override returns (uint256) {... */\n    tag_22:\n      tag_102\n      0x04\n      dup1\n      calldatasize\n      sub\n      dup2\n      add\n      swap1\n      tag_103\n      swap2\n      swap1\n      tag_104\n      jump\t// in\n    tag_103:\n      tag_105\n      jump\t// in\n    tag_102:\n      mload(0x40)\n      tag_106\n      swap2\n      swap1\n      tag_39\n      jump\t// in\n    tag_106:\n      mload(0x40)\n      dup1\n      swap2\n      sub\n      swap1\n      return\n        /* \"@openzeppelin/contracts/token/ERC20/ERC20.sol\":2156:2254  function name() public view virtual override returns (string memory) {... */\n    tag_27:\n        /* \"@openzeppelin/contracts/token/ERC20/ERC20.sol\":2210:2223  string memory */\n      0x60\n        /* \"@openzeppelin/contracts/token/ERC20/ERC20.sol\":2242:2247  _name */\n      0x03\n        /* \"@openzeppelin/contracts/token/ERC20/ERC20.sol\":2235:2247  return _name */\n      dup1\n      sload\n      tag_108\n      swap1\n      tag_109\n      jump\t// in\n    tag_108:\n      dup1\n      0x1f\n      add\n      0x20\n      dup1\n      swap2\n      div\n      mul\n      0x20\n      add\n      mload(0x40)\n      swap1\n      dup2\n      add\n      0x40\n      mstore\n      dup1\n      swap3\n      swap2\n      swap1\n      dup2\n      dup2\n      mstore\n      0x20\n      add\n      dup3\n      dup1\n      sload\n      tag_110\n      swap1\n      tag_109\n      jump\t// in\n    tag_110:\n      dup1\n      iszero\n      tag_111\n      jumpi\n      dup1\n      0x1f\n      lt\n      tag_112\n      jumpi\n      0x0100\n      dup1\n      dup4\n      sload\n      div\n      mul\n      dup4\n      mstore\n      swap2\n      0x20\n      add\n      swap2\n      jump(tag_111)\n    tag_112:\n      dup3\n      add\n      swap2\n      swap1\n      0x00\n      mstore\n      keccak256(0x00, 0x20)\n      swap1\n    tag_113:\n      dup2\n      sload\n      dup2\n      mstore\n      swap1\n      0x01\n      add\n      swap1\n      0x20\n      add\n      dup1\n      dup4\n      gt\n      tag_113\n      jumpi\n      dup3\n      swap1\n      sub\n      0x1f\n      and\n      dup3\n      add\n      swap2\n    tag_111:\n      pop\n      pop\n      pop\n      pop\n      pop\n      swap1\n      pop\n        /* \"@openzeppelin/contracts/token/ERC20/ERC20.sol\":2156:2254  function name() public view virtual override returns (string memory) {... */\n      swap1\n      jump\t// out\n        /* \"@openzeppelin/contracts/token/ERC20/ERC20.sol\":4433:4630  function approve(address spender, uint256 amount) public virtual override returns (bool) {... */\n    tag_33:\n        /* \"@openzeppelin/contracts/token/ERC20/ERC20.sol\":4516:4520  bool */\n      0x00\n        /* \"@openzeppelin/contracts/token/ERC20/ERC20.sol\":4532:4545  address owner */\n      dup1\n        /* \"@openzeppelin/contracts/token/ERC20/ERC20.sol\":4548:4560  _msgSender() */\n      tag_115\n        /* \"@openzeppelin/contracts/token/ERC20/ERC20.sol\":4548:4558  _msgSender */\n      tag_116\n        /* \"@openzeppelin/contracts/token/ERC20/ERC20.sol\":4548:4560  _msgSender() */\n      jump\t// in\n    tag_115:\n        /* \"@openzeppelin/contracts/token/ERC20/ERC20.sol\":4532:4560  address owner = _msgSender() */\n      swap1\n      pop\n        /* \"@openzeppelin/contracts/token/ERC20/ERC20.sol\":4570:4602  _approve(owner, spender, amount) */\n      tag_117\n        /* \"@openzeppelin/contracts/token/ERC20/ERC20.sol\":4579:4584  owner */\n      dup2\n        /* \"@openzeppelin/contracts/token/ERC20/ERC20.sol\":4586:4593  spender */\n      dup6\n        /* \"@openzeppelin/contracts/token/ERC20/ERC20.sol\":4595:4601  amount */\n      dup6\n        /* \"@openzeppelin/contracts/token/ERC20/ERC20.sol\":4570:4578  _approve */\n      tag_118\n        /* \"@openzeppelin/contracts/token/ERC20/ERC20.sol\":4570:4602  _approve(owner, spender, amount) */\n      jump\t// in\n    tag_117:\n        /* \"@openzeppelin/contracts/token/ERC20/ERC20.sol\":4619:4623  true */\n      0x01\n        /* \"@openzeppelin/contracts/token/ERC20/ERC20.sol\":4612:4623  return true */\n      swap2\n      pop\n      pop\n        /* \"@openzeppelin/contracts/token/ERC20/ERC20.sol\":4433:4630  function approve(address spender, uint256 amount) public virtual override returns (bool) {... */\n      swap3\n      swap2\n      pop\n      pop\n      jump\t// out\n        /* \"@openzeppelin/contracts/token/ERC20/ERC20.sol\":3244:3350  function totalSupply() public view virtual override returns (uint256) {... */\n    tag_37:\n        /* \"@openzeppelin/contracts/token/ERC20/ERC20.sol\":3305:3312  uint256 */\n      0x00\n        /* \"@openzeppelin/contracts/token/ERC20/ERC20.sol\":3331:3343  _totalSupply */\n      sload(0x02)\n        /* \"@openzeppelin/contracts/token/ERC20/ERC20.sol\":3324:3343  return _totalSupply */\n      swap1\n      pop\n        /* \"@openzeppelin/contracts/token/ERC20/ERC20.sol\":3244:3350  function totalSupply() public view virtual override returns (uint256) {... */\n      swap1\n      jump\t// out\n        /* \"contract/KimhoGames.sol\":4247:4696  function NumBaseBall(uint input) public returns (bool){\r... */\n    tag_43:\n        /* \"contract/KimhoGames.sol\":4296:4300  bool */\n      0x00\n        /* \"contract/KimhoGames.sol\":4312:4336  string memory Winmessage */\n      dup1\n        /* \"contract/KimhoGames.sol\":4312:4350  string memory Winmessage = \"you win!!\" */\n      mload(0x40)\n      dup1\n      0x40\n      add\n      0x40\n      mstore\n      dup1\n      0x09\n      dup2\n      mstore\n      0x20\n      add\n      0x796f752077696e21210000000000000000000000000000000000000000000000\n      dup2\n      mstore\n      pop\n      swap1\n      pop\n        /* \"contract/KimhoGames.sol\":4361:4388  string memory Defeatmessage */\n      0x00\n        /* \"contract/KimhoGames.sol\":4361:4401  string memory Defeatmessage = \"you lose\" */\n      mload(0x40)\n      dup1\n      0x40\n      add\n      0x40\n      mstore\n      dup1\n      0x08\n      dup2\n      mstore\n      0x20\n      add\n      0x796f75206c6f7365000000000000000000000000000000000000000000000000\n      dup2\n      mstore\n      pop\n      swap1\n      pop\n        /* \"contract/KimhoGames.sol\":4412:4421  uint rand */\n      0x00\n        /* \"contract/KimhoGames.sol\":4496:4499  100 */\n      0x64\n        /* \"contract/KimhoGames.sol\":4456:4471  block.timestamp */\n      timestamp\n        /* \"contract/KimhoGames.sol\":4472:4482  msg.sender */\n      caller\n        /* \"contract/KimhoGames.sol\":4483:4492  randNonce */\n      sload(0x09)\n        /* \"contract/KimhoGames.sol\":4439:4493  abi.encodePacked(block.timestamp,msg.sender,randNonce) */\n      add(0x20, mload(0x40))\n      tag_121\n      swap4\n      swap3\n      swap2\n      swap1\n      tag_122\n      jump\t// in\n    tag_121:\n      mload(0x40)\n      0x20\n      dup2\n      dup4\n      sub\n      sub\n      dup2\n      mstore\n      swap1\n      0x40\n      mstore\n        /* \"contract/KimhoGames.sol\":4429:4494  keccak256(abi.encodePacked(block.timestamp,msg.sender,randNonce)) */\n      dup1\n      mload\n      swap1\n      0x20\n      add\n      keccak256\n        /* \"contract/KimhoGames.sol\":4424:4495  uint(keccak256(abi.encodePacked(block.timestamp,msg.sender,randNonce))) */\n      0x00\n      shr\n        /* \"contract/KimhoGames.sol\":4424:4499  uint(keccak256(abi.encodePacked(block.timestamp,msg.sender,randNonce)))%100 */\n      tag_123\n      swap2\n      swap1\n      tag_124\n      jump\t// in\n    tag_123:\n        /* \"contract/KimhoGames.sol\":4412:4499  uint rand = uint(keccak256(abi.encodePacked(block.timestamp,msg.sender,randNonce)))%100 */\n      swap1\n      pop\n        /* \"contract/KimhoGames.sol\":4510:4516  uint u */\n      0x00\n        /* \"contract/KimhoGames.sol\":4523:4526  100 */\n      0x64\n        /* \"contract/KimhoGames.sol\":4517:4522  input */\n      dup7\n        /* \"contract/KimhoGames.sol\":4517:4526  input%100 */\n      tag_125\n      swap2\n      swap1\n      tag_124\n      jump\t// in\n    tag_125:\n        /* \"contract/KimhoGames.sol\":4510:4526  uint u=input%100 */\n      swap1\n      pop\n        /* \"contract/KimhoGames.sol\":4546:4547  u */\n      dup1\n        /* \"contract/KimhoGames.sol\":4540:4544  rand */\n      dup3\n        /* \"contract/KimhoGames.sol\":4540:4547  rand>=u */\n      lt\n        /* \"contract/KimhoGames.sol\":4537:4667  if(rand>=u){\r... */\n      tag_126\n      jumpi\n        /* \"contract/KimhoGames.sol\":4577:4590  Defeatmessage */\n      dup3\n        /* \"contract/KimhoGames.sol\":4563:4576  BaseBallScore */\n      0x07\n        /* \"contract/KimhoGames.sol\":4563:4590  BaseBallScore=Defeatmessage */\n      swap1\n      dup1\n      mload\n      swap1\n      0x20\n      add\n      swap1\n      tag_127\n      swap3\n      swap2\n      swap1\n      tag_128\n      jump\t// in\n    tag_127:\n      pop\n        /* \"contract/KimhoGames.sol\":4537:4667  if(rand>=u){\r... */\n      jump(tag_129)\n    tag_126:\n        /* \"contract/KimhoGames.sol\":4645:4655  Winmessage */\n      dup4\n        /* \"contract/KimhoGames.sol\":4631:4644  BaseBallScore */\n      0x07\n        /* \"contract/KimhoGames.sol\":4631:4655  BaseBallScore=Winmessage */\n      swap1\n      dup1\n      mload\n      swap1\n      0x20\n      add\n      swap1\n      tag_130\n      swap3\n      swap2\n      swap1\n      tag_128\n      jump\t// in\n    tag_130:\n      pop\n        /* \"contract/KimhoGames.sol\":4537:4667  if(rand>=u){\r... */\n    tag_129:\n        /* \"contract/KimhoGames.sol\":4684:4688  true */\n      0x01\n        /* \"contract/KimhoGames.sol\":4677:4688  return true */\n      swap5\n      pop\n      pop\n      pop\n      pop\n      pop\n        /* \"contract/KimhoGames.sol\":4247:4696  function NumBaseBall(uint input) public returns (bool){\r... */\n      swap2\n      swap1\n      pop\n      jump\t// out\n        /* \"@openzeppelin/contracts/token/ERC20/ERC20.sol\":5192:5478  function transferFrom(... */\n    tag_48:\n        /* \"@openzeppelin/contracts/token/ERC20/ERC20.sol\":5319:5323  bool */\n      0x00\n        /* \"@openzeppelin/contracts/token/ERC20/ERC20.sol\":5335:5350  address spender */\n      dup1\n        /* \"@openzeppelin/contracts/token/ERC20/ERC20.sol\":5353:5365  _msgSender() */\n      tag_132\n        /* \"@openzeppelin/contracts/token/ERC20/ERC20.sol\":5353:5363  _msgSender */\n      tag_116\n        /* \"@openzeppelin/contracts/token/ERC20/ERC20.sol\":5353:5365  _msgSender() */\n      jump\t// in\n    tag_132:\n        /* \"@openzeppelin/contracts/token/ERC20/ERC20.sol\":5335:5365  address spender = _msgSender() */\n      swap1\n      pop\n        /* \"@openzeppelin/contracts/token/ERC20/ERC20.sol\":5375:5413  _spendAllowance(from, spender, amount) */\n      tag_133\n        /* \"@openzeppelin/contracts/token/ERC20/ERC20.sol\":5391:5395  from */\n      dup6\n        /* \"@openzeppelin/contracts/token/ERC20/ERC20.sol\":5397:5404  spender */\n      dup3\n        /* \"@openzeppelin/contracts/token/ERC20/ERC20.sol\":5406:5412  amount */\n      dup6\n        /* \"@openzeppelin/contracts/token/ERC20/ERC20.sol\":5375:5390  _spendAllowance */\n      tag_134\n        /* \"@openzeppelin/contracts/token/ERC20/ERC20.sol\":5375:5413  _spendAllowance(from, spender, amount) */\n      jump\t// in\n    tag_133:\n        /* \"@openzeppelin/contracts/token/ERC20/ERC20.sol\":5423:5450  _transfer(from, to, amount) */\n      tag_135\n        /* \"@openzeppelin/contracts/token/ERC20/ERC20.sol\":5433:5437  from */\n      dup6\n        /* \"@openzeppelin/contracts/token/ERC20/ERC20.sol\":5439:5441  to */\n      dup6\n        /* \"@openzeppelin/contracts/token/ERC20/ERC20.sol\":5443:5449  amount */\n      dup6\n        /* \"@openzeppelin/contracts/token/ERC20/ERC20.sol\":5423:5432  _transfer */\n      tag_136\n        /* \"@openzeppelin/contracts/token/ERC20/ERC20.sol\":5423:5450  _transfer(from, to, amount) */\n      jump\t// in\n    tag_135:\n        /* \"@openzeppelin/contracts/token/ERC20/ERC20.sol\":5467:5471  true */\n      0x01\n        /* \"@openzeppelin/contracts/token/ERC20/ERC20.sol\":5460:5471  return true */\n      swap2\n      pop\n      pop\n        /* \"@openzeppelin/contracts/token/ERC20/ERC20.sol\":5192:5478  function transferFrom(... */\n      swap4\n      swap3\n      pop\n      pop\n      pop\n      jump\t// out\n        /* \"contract/KimhoGames.sol\":4705:4809  function getNumBaseBallSore() public view returns (string memory){\r... */\n    tag_51:\n        /* \"contract/KimhoGames.sol\":4756:4769  string memory */\n      0x60\n        /* \"contract/KimhoGames.sol\":4788:4801  BaseBallScore */\n      0x07\n        /* \"contract/KimhoGames.sol\":4781:4801  return BaseBallScore */\n      dup1\n      sload\n      tag_138\n      swap1\n      tag_109\n      jump\t// in\n    tag_138:\n      dup1\n      0x1f\n      add\n      0x20\n      dup1\n      swap2\n      div\n      mul\n      0x20\n      add\n      mload(0x40)\n      swap1\n      dup2\n      add\n      0x40\n      mstore\n      dup1\n      swap3\n      swap2\n      swap1\n      dup2\n      dup2\n      mstore\n      0x20\n      add\n      dup3\n      dup1\n      sload\n      tag_139\n      swap1\n      tag_109\n      jump\t// in\n    tag_139:\n      dup1\n      iszero\n      tag_140\n      jumpi\n      dup1\n      0x1f\n      lt\n      tag_141\n      jumpi\n      0x0100\n      dup1\n      dup4\n      sload\n      div\n      mul\n      dup4\n      mstore\n      swap2\n      0x20\n      add\n      swap2\n      jump(tag_140)\n    tag_141:\n      dup3\n      add\n      swap2\n      swap1\n      0x00\n      mstore\n      keccak256(0x00, 0x20)\n      swap1\n    tag_142:\n      dup2\n      sload\n      dup2\n      mstore\n      swap1\n      0x01\n      add\n      swap1\n      0x20\n      add\n      dup1\n      dup4\n      gt\n      tag_142\n      jumpi\n      dup3\n      swap1\n      sub\n      0x1f\n      and\n      dup3\n      add\n      swap2\n    tag_140:\n      pop\n      pop\n      pop\n      pop\n      pop\n      swap1\n      pop\n        /* \"contract/KimhoGames.sol\":4705:4809  function getNumBaseBallSore() public view returns (string memory){\r... */\n      swap1\n      jump\t// out\n        /* \"@openzeppelin/contracts/token/ERC20/ERC20.sol\":3093:3184  function decimals() public view virtual override returns (uint8) {... */\n    tag_54:\n        /* \"@openzeppelin/contracts/token/ERC20/ERC20.sol\":3151:3156  uint8 */\n      0x00\n        /* \"@openzeppelin/contracts/token/ERC20/ERC20.sol\":3175:3177  18 */\n      0x12\n        /* \"@openzeppelin/contracts/token/ERC20/ERC20.sol\":3168:3177  return 18 */\n      swap1\n      pop\n        /* \"@openzeppelin/contracts/token/ERC20/ERC20.sol\":3093:3184  function decimals() public view virtual override returns (uint8) {... */\n      swap1\n      jump\t// out\n        /* \"@openzeppelin/contracts/token/ERC20/ERC20.sol\":5873:6107  function increaseAllowance(address spender, uint256 addedValue) public virtual returns (bool) {... */\n    tag_59:\n        /* \"@openzeppelin/contracts/token/ERC20/ERC20.sol\":5961:5965  bool */\n      0x00\n        /* \"@openzeppelin/contracts/token/ERC20/ERC20.sol\":5977:5990  address owner */\n      dup1\n        /* \"@openzeppelin/contracts/token/ERC20/ERC20.sol\":5993:6005  _msgSender() */\n      tag_145\n        /* \"@openzeppelin/contracts/token/ERC20/ERC20.sol\":5993:6003  _msgSender */\n      tag_116\n        /* \"@openzeppelin/contracts/token/ERC20/ERC20.sol\":5993:6005  _msgSender() */\n      jump\t// in\n    tag_145:\n        /* \"@openzeppelin/contracts/token/ERC20/ERC20.sol\":5977:6005  address owner = _msgSender() */\n      swap1\n      pop\n        /* \"@openzeppelin/contracts/token/ERC20/ERC20.sol\":6015:6079  _approve(owner, spender, allowance(owner, spender) + addedValue) */\n      tag_146\n        /* \"@openzeppelin/contracts/token/ERC20/ERC20.sol\":6024:6029  owner */\n      dup2\n        /* \"@openzeppelin/contracts/token/ERC20/ERC20.sol\":6031:6038  spender */\n      dup6\n        /* \"@openzeppelin/contracts/token/ERC20/ERC20.sol\":6068:6078  addedValue */\n      dup6\n        /* \"@openzeppelin/contracts/token/ERC20/ERC20.sol\":6040:6065  allowance(owner, spender) */\n      tag_147\n        /* \"@openzeppelin/contracts/token/ERC20/ERC20.sol\":6050:6055  owner */\n      dup6\n        /* \"@openzeppelin/contracts/token/ERC20/ERC20.sol\":6057:6064  spender */\n      dup10\n        /* \"@openzeppelin/contracts/token/ERC20/ERC20.sol\":6040:6049  allowance */\n      tag_105\n        /* \"@openzeppelin/contracts/token/ERC20/ERC20.sol\":6040:6065  allowance(owner, spender) */\n      jump\t// in\n    tag_147:\n        /* \"@openzeppelin/contracts/token/ERC20/ERC20.sol\":6040:6078  allowance(owner, spender) + addedValue */\n      tag_148\n      swap2\n      swap1\n      tag_149\n      jump\t// in\n    tag_148:\n        /* \"@openzeppelin/contracts/token/ERC20/ERC20.sol\":6015:6023  _approve */\n      tag_118\n        /* \"@openzeppelin/contracts/token/ERC20/ERC20.sol\":6015:6079  _approve(owner, spender, allowance(owner, spender) + addedValue) */\n      jump\t// in\n    tag_146:\n        /* \"@openzeppelin/contracts/token/ERC20/ERC20.sol\":6096:6100  true */\n      0x01\n        /* \"@openzeppelin/contracts/token/ERC20/ERC20.sol\":6089:6100  return true */\n      swap2\n      pop\n      pop\n        /* \"@openzeppelin/contracts/token/ERC20/ERC20.sol\":5873:6107  function increaseAllowance(address spender, uint256 addedValue) public virtual returns (bool) {... */\n      swap3\n      swap2\n      pop\n      pop\n      jump\t// out\n        /* \"contract/KimhoGames.sol\":4122:4237  function getRockScissorsPaper() public view returns (string memory){\r... */\n    tag_62:\n        /* \"contract/KimhoGames.sol\":4175:4188  string memory */\n      0x60\n        /* \"contract/KimhoGames.sol\":4207:4229  RockScissorsPaperScore */\n      0x06\n        /* \"contract/KimhoGames.sol\":4200:4229  return RockScissorsPaperScore */\n      dup1\n      sload\n      tag_151\n      swap1\n      tag_109\n      jump\t// in\n    tag_151:\n      dup1\n      0x1f\n      add\n      0x20\n      dup1\n      swap2\n      div\n      mul\n      0x20\n      add\n      mload(0x40)\n      swap1\n      dup2\n      add\n      0x40\n      mstore\n      dup1\n      swap3\n      swap2\n      swap1\n      dup2\n      dup2\n      mstore\n      0x20\n      add\n      dup3\n      dup1\n      sload\n      tag_152\n      swap1\n      tag_109\n      jump\t// in\n    tag_152:\n      dup1\n      iszero\n      tag_153\n      jumpi\n      dup1\n      0x1f\n      lt\n      tag_154\n      jumpi\n      0x0100\n      dup1\n      dup4\n      sload\n      div\n      mul\n      dup4\n      mstore\n      swap2\n      0x20\n      add\n      swap2\n      jump(tag_153)\n    tag_154:\n      dup3\n      add\n      swap2\n      swap1\n      0x00\n      mstore\n      keccak256(0x00, 0x20)\n      swap1\n    tag_155:\n      dup2\n      sload\n      dup2\n      mstore\n      swap1\n      0x01\n      add\n      swap1\n      0x20\n      add\n      dup1\n      dup4\n      gt\n      tag_155\n      jumpi\n      dup3\n      swap1\n      sub\n      0x1f\n      and\n      dup3\n      add\n      swap2\n    tag_153:\n      pop\n      pop\n      pop\n      pop\n      pop\n      swap1\n      pop\n        /* \"contract/KimhoGames.sol\":4122:4237  function getRockScissorsPaper() public view returns (string memory){\r... */\n      swap1\n      jump\t// out\n        /* \"@openzeppelin/contracts/token/ERC20/ERC20.sol\":3408:3533  function balanceOf(address account) public view virtual override returns (uint256) {... */\n    tag_67:\n        /* \"@openzeppelin/contracts/token/ERC20/ERC20.sol\":3482:3489  uint256 */\n      0x00\n        /* \"@openzeppelin/contracts/token/ERC20/ERC20.sol\":3508:3517  _balances */\n      dup1\n        /* \"@openzeppelin/contracts/token/ERC20/ERC20.sol\":3508:3526  _balances[account] */\n      0x00\n        /* \"@openzeppelin/contracts/token/ERC20/ERC20.sol\":3518:3525  account */\n      dup4\n        /* \"@openzeppelin/contracts/token/ERC20/ERC20.sol\":3508:3526  _balances[account] */\n      0xffffffffffffffffffffffffffffffffffffffff\n      and\n      0xffffffffffffffffffffffffffffffffffffffff\n      and\n      dup2\n      mstore\n      0x20\n      add\n      swap1\n      dup2\n      mstore\n      0x20\n      add\n      0x00\n      keccak256\n      sload\n        /* \"@openzeppelin/contracts/token/ERC20/ERC20.sol\":3501:3526  return _balances[account] */\n      swap1\n      pop\n        /* \"@openzeppelin/contracts/token/ERC20/ERC20.sol\":3408:3533  function balanceOf(address account) public view virtual override returns (uint256) {... */\n      swap2\n      swap1\n      pop\n      jump\t// out\n        /* \"contract/KimhoGames.sol\":428:1122  function gameEND()public returns (bool){\r... */\n    tag_70:\n        /* \"contract/KimhoGames.sol\":462:466  bool */\n      0x00\n        /* \"contract/KimhoGames.sol\":478:502  string memory Winmessage */\n      dup1\n        /* \"contract/KimhoGames.sol\":478:516  string memory Winmessage = \"you win!!\" */\n      mload(0x40)\n      dup1\n      0x40\n      add\n      0x40\n      mstore\n      dup1\n      0x09\n      dup2\n      mstore\n      0x20\n      add\n      0x796f752077696e21210000000000000000000000000000000000000000000000\n      dup2\n      mstore\n      pop\n      swap1\n      pop\n        /* \"contract/KimhoGames.sol\":527:536  int score */\n      0x00\n        /* \"contract/KimhoGames.sol\":659:674  block.timestamp */\n      timestamp\n        /* \"contract/KimhoGames.sol\":675:685  msg.sender */\n      caller\n        /* \"contract/KimhoGames.sol\":686:696  Winmessage */\n      dup4\n        /* \"contract/KimhoGames.sol\":642:697  abi.encodePacked(block.timestamp,msg.sender,Winmessage) */\n      add(0x20, mload(0x40))\n      tag_158\n      swap4\n      swap3\n      swap2\n      swap1\n      tag_159\n      jump\t// in\n    tag_158:\n      mload(0x40)\n      0x20\n      dup2\n      dup4\n      sub\n      sub\n      dup2\n      mstore\n      swap1\n      0x40\n      mstore\n        /* \"contract/KimhoGames.sol\":632:698  keccak256(abi.encodePacked(block.timestamp,msg.sender,Winmessage)) */\n      dup1\n      mload\n      swap1\n      0x20\n      add\n      keccak256\n        /* \"contract/KimhoGames.sol\":577:592  block.timestamp */\n      timestamp\n        /* \"contract/KimhoGames.sol\":593:603  msg.sender */\n      caller\n        /* \"contract/KimhoGames.sol\":604:626  RockScissorsPaperScore */\n      0x06\n        /* \"contract/KimhoGames.sol\":560:627  abi.encodePacked(block.timestamp,msg.sender,RockScissorsPaperScore) */\n      add(0x20, mload(0x40))\n      tag_160\n      swap4\n      swap3\n      swap2\n      swap1\n      tag_161\n      jump\t// in\n    tag_160:\n      mload(0x40)\n      0x20\n      dup2\n      dup4\n      sub\n      sub\n      dup2\n      mstore\n      swap1\n      0x40\n      mstore\n        /* \"contract/KimhoGames.sol\":550:628  keccak256(abi.encodePacked(block.timestamp,msg.sender,RockScissorsPaperScore)) */\n      dup1\n      mload\n      swap1\n      0x20\n      add\n      keccak256\n        /* \"contract/KimhoGames.sol\":550:698  keccak256(abi.encodePacked(block.timestamp,msg.sender,RockScissorsPaperScore)) == keccak256(abi.encodePacked(block.timestamp,msg.sender,Winmessage)) */\n      eq\n        /* \"contract/KimhoGames.sol\":547:733  if(keccak256(abi.encodePacked(block.timestamp,msg.sender,RockScissorsPaperScore)) == keccak256(abi.encodePacked(block.timestamp,msg.sender,Winmessage))){\r... */\n      iszero\n      tag_162\n      jumpi\n        /* \"contract/KimhoGames.sol\":714:721  score++ */\n      dup1\n      dup1\n      tag_163\n      swap1\n      tag_164\n      jump\t// in\n    tag_163:\n      swap2\n      pop\n      pop\n        /* \"contract/KimhoGames.sol\":547:733  if(keccak256(abi.encodePacked(block.timestamp,msg.sender,RockScissorsPaperScore)) == keccak256(abi.encodePacked(block.timestamp,msg.sender,Winmessage))){\r... */\n    tag_162:\n        /* \"contract/KimhoGames.sol\":846:861  block.timestamp */\n      timestamp\n        /* \"contract/KimhoGames.sol\":862:872  msg.sender */\n      caller\n        /* \"contract/KimhoGames.sol\":873:883  Winmessage */\n      dup4\n        /* \"contract/KimhoGames.sol\":829:884  abi.encodePacked(block.timestamp,msg.sender,Winmessage) */\n      add(0x20, mload(0x40))\n      tag_165\n      swap4\n      swap3\n      swap2\n      swap1\n      tag_159\n      jump\t// in\n    tag_165:\n      mload(0x40)\n      0x20\n      dup2\n      dup4\n      sub\n      sub\n      dup2\n      mstore\n      swap1\n      0x40\n      mstore\n        /* \"contract/KimhoGames.sol\":819:885  keccak256(abi.encodePacked(block.timestamp,msg.sender,Winmessage)) */\n      dup1\n      mload\n      swap1\n      0x20\n      add\n      keccak256\n        /* \"contract/KimhoGames.sol\":773:788  block.timestamp */\n      timestamp\n        /* \"contract/KimhoGames.sol\":789:799  msg.sender */\n      caller\n        /* \"contract/KimhoGames.sol\":800:813  BaseBallScore */\n      0x07\n        /* \"contract/KimhoGames.sol\":756:814  abi.encodePacked(block.timestamp,msg.sender,BaseBallScore) */\n      add(0x20, mload(0x40))\n      tag_166\n      swap4\n      swap3\n      swap2\n      swap1\n      tag_161\n      jump\t// in\n    tag_166:\n      mload(0x40)\n      0x20\n      dup2\n      dup4\n      sub\n      sub\n      dup2\n      mstore\n      swap1\n      0x40\n      mstore\n        /* \"contract/KimhoGames.sol\":746:815  keccak256(abi.encodePacked(block.timestamp,msg.sender,BaseBallScore)) */\n      dup1\n      mload\n      swap1\n      0x20\n      add\n      keccak256\n        /* \"contract/KimhoGames.sol\":746:885  keccak256(abi.encodePacked(block.timestamp,msg.sender,BaseBallScore)) == keccak256(abi.encodePacked(block.timestamp,msg.sender,Winmessage)) */\n      eq\n        /* \"contract/KimhoGames.sol\":743:920  if(keccak256(abi.encodePacked(block.timestamp,msg.sender,BaseBallScore)) == keccak256(abi.encodePacked(block.timestamp,msg.sender,Winmessage))){\r... */\n      iszero\n      tag_167\n      jumpi\n        /* \"contract/KimhoGames.sol\":901:908  score++ */\n      dup1\n      dup1\n      tag_168\n      swap1\n      tag_164\n      jump\t// in\n    tag_168:\n      swap2\n      pop\n      pop\n        /* \"contract/KimhoGames.sol\":743:920  if(keccak256(abi.encodePacked(block.timestamp,msg.sender,BaseBallScore)) == keccak256(abi.encodePacked(block.timestamp,msg.sender,Winmessage))){\r... */\n    tag_167:\n        /* \"contract/KimhoGames.sol\":1031:1046  block.timestamp */\n      timestamp\n        /* \"contract/KimhoGames.sol\":1047:1057  msg.sender */\n      caller\n        /* \"contract/KimhoGames.sol\":1058:1068  Winmessage */\n      dup4\n        /* \"contract/KimhoGames.sol\":1014:1069  abi.encodePacked(block.timestamp,msg.sender,Winmessage) */\n      add(0x20, mload(0x40))\n      tag_169\n      swap4\n      swap3\n      swap2\n      swap1\n      tag_159\n      jump\t// in\n    tag_169:\n      mload(0x40)\n      0x20\n      dup2\n      dup4\n      sub\n      sub\n      dup2\n      mstore\n      swap1\n      0x40\n      mstore\n        /* \"contract/KimhoGames.sol\":1004:1070  keccak256(abi.encodePacked(block.timestamp,msg.sender,Winmessage)) */\n      dup1\n      mload\n      swap1\n      0x20\n      add\n      keccak256\n        /* \"contract/KimhoGames.sol\":960:975  block.timestamp */\n      timestamp\n        /* \"contract/KimhoGames.sol\":976:986  msg.sender */\n      caller\n        /* \"contract/KimhoGames.sol\":987:998  racingScore */\n      0x08\n        /* \"contract/KimhoGames.sol\":943:999  abi.encodePacked(block.timestamp,msg.sender,racingScore) */\n      add(0x20, mload(0x40))\n      tag_170\n      swap4\n      swap3\n      swap2\n      swap1\n      tag_161\n      jump\t// in\n    tag_170:\n      mload(0x40)\n      0x20\n      dup2\n      dup4\n      sub\n      sub\n      dup2\n      mstore\n      swap1\n      0x40\n      mstore\n        /* \"contract/KimhoGames.sol\":933:1000  keccak256(abi.encodePacked(block.timestamp,msg.sender,racingScore)) */\n      dup1\n      mload\n      swap1\n      0x20\n      add\n      keccak256\n        /* \"contract/KimhoGames.sol\":933:1070  keccak256(abi.encodePacked(block.timestamp,msg.sender,racingScore)) == keccak256(abi.encodePacked(block.timestamp,msg.sender,Winmessage)) */\n      eq\n        /* \"contract/KimhoGames.sol\":930:1105  if(keccak256(abi.encodePacked(block.timestamp,msg.sender,racingScore)) == keccak256(abi.encodePacked(block.timestamp,msg.sender,Winmessage))){\r... */\n      iszero\n      tag_171\n      jumpi\n        /* \"contract/KimhoGames.sol\":1086:1093  score++ */\n      dup1\n      dup1\n      tag_172\n      swap1\n      tag_164\n      jump\t// in\n    tag_172:\n      swap2\n      pop\n      pop\n        /* \"contract/KimhoGames.sol\":930:1105  if(keccak256(abi.encodePacked(block.timestamp,msg.sender,racingScore)) == keccak256(abi.encodePacked(block.timestamp,msg.sender,Winmessage))){\r... */\n    tag_171:\n        /* \"contract/KimhoGames.sol\":467:1122  {\r... */\n      pop\n      pop\n        /* \"contract/KimhoGames.sol\":428:1122  function gameEND()public returns (bool){\r... */\n      swap1\n      jump\t// out\n        /* \"contract/KimhoGames.sol\":161:181  address public owner */\n    tag_73:\n      0x05\n      0x00\n      swap1\n      sload\n      swap1\n      0x0100\n      exp\n      swap1\n      div\n      0xffffffffffffffffffffffffffffffffffffffff\n      and\n      dup2\n      jump\t// out\n        /* \"@openzeppelin/contracts/token/ERC20/ERC20.sol\":2367:2469  function symbol() public view virtual override returns (string memory) {... */\n    tag_77:\n        /* \"@openzeppelin/contracts/token/ERC20/ERC20.sol\":2423:2436  string memory */\n      0x60\n        /* \"@openzeppelin/contracts/token/ERC20/ERC20.sol\":2455:2462  _symbol */\n      0x04\n        /* \"@openzeppelin/contracts/token/ERC20/ERC20.sol\":2448:2462  return _symbol */\n      dup1\n      sload\n      tag_174\n      swap1\n      tag_109\n      jump\t// in\n    tag_174:\n      dup1\n      0x1f\n      add\n      0x20\n      dup1\n      swap2\n      div\n      mul\n      0x20\n      add\n      mload(0x40)\n      swap1\n      dup2\n      add\n      0x40\n      mstore\n      dup1\n      swap3\n      swap2\n      swap1\n      dup2\n      dup2\n      mstore\n      0x20\n      add\n      dup3\n      dup1\n      sload\n      tag_175\n      swap1\n      tag_109\n      jump\t// in\n    tag_175:\n      dup1\n      iszero\n      tag_176\n      jumpi\n      dup1\n      0x1f\n      lt\n      tag_177\n      jumpi\n      0x0100\n      dup1\n      dup4\n      sload\n      div\n      mul\n      dup4\n      mstore\n      swap2\n      0x20\n      add\n      swap2\n      jump(tag_176)\n    tag_177:\n      dup3\n      add\n      swap2\n      swap1\n      0x00\n      mstore\n      keccak256(0x00, 0x20)\n      swap1\n    tag_178:\n      dup2\n      sload\n      dup2\n      mstore\n      swap1\n      0x01\n      add\n      swap1\n      0x20\n      add\n      dup1\n      dup4\n      gt\n      tag_178\n      jumpi\n      dup3\n      swap1\n      sub\n      0x1f\n      and\n      dup3\n      add\n      swap2\n    tag_176:\n      pop\n      pop\n      pop\n      pop\n      pop\n      swap1\n      pop\n        /* \"@openzeppelin/contracts/token/ERC20/ERC20.sol\":2367:2469  function symbol() public view virtual override returns (string memory) {... */\n      swap1\n      jump\t// out\n        /* \"contract/KimhoGames.sol\":1291:1386  function mint(uint256 amount) public {\r... */\n    tag_81:\n        /* \"contract/KimhoGames.sol\":1339:1378  _mint(owner, amount * 10 ** decimals()) */\n      tag_180\n        /* \"contract/KimhoGames.sol\":1345:1350  owner */\n      0x05\n      0x00\n      swap1\n      sload\n      swap1\n      0x0100\n      exp\n      swap1\n      div\n      0xffffffffffffffffffffffffffffffffffffffff\n      and\n        /* \"contract/KimhoGames.sol\":1367:1377  decimals() */\n      tag_181\n        /* \"contract/KimhoGames.sol\":1367:1375  decimals */\n      tag_54\n        /* \"contract/KimhoGames.sol\":1367:1377  decimals() */\n      jump\t// in\n    tag_181:\n        /* \"contract/KimhoGames.sol\":1361:1363  10 */\n      0x0a\n        /* \"contract/KimhoGames.sol\":1361:1377  10 ** decimals() */\n      tag_182\n      swap2\n      swap1\n      tag_183\n      jump\t// in\n    tag_182:\n        /* \"contract/KimhoGames.sol\":1352:1358  amount */\n      dup4\n        /* \"contract/KimhoGames.sol\":1352:1377  amount * 10 ** decimals() */\n      tag_184\n      swap2\n      swap1\n      tag_185\n      jump\t// in\n    tag_184:\n        /* \"contract/KimhoGames.sol\":1339:1344  _mint */\n      tag_186\n        /* \"contract/KimhoGames.sol\":1339:1378  _mint(owner, amount * 10 ** decimals()) */\n      jump\t// in\n    tag_180:\n        /* \"contract/KimhoGames.sol\":1291:1386  function mint(uint256 amount) public {\r... */\n      pop\n      jump\t// out\n        /* \"contract/KimhoGames.sol\":1620:4114  function RockPaperScissors(uint input1, uint input2, uint input3) public returns (string memory){\r... */\n    tag_85:\n        /* \"contract/KimhoGames.sol\":1702:1715  string memory */\n      0x60\n        /* \"contract/KimhoGames.sol\":1727:1751  string memory Winmessage */\n      0x00\n        /* \"contract/KimhoGames.sol\":1727:1765  string memory Winmessage = \"you win!!\" */\n      mload(0x40)\n      dup1\n      0x40\n      add\n      0x40\n      mstore\n      dup1\n      0x09\n      dup2\n      mstore\n      0x20\n      add\n      0x796f752077696e21210000000000000000000000000000000000000000000000\n      dup2\n      mstore\n      pop\n      swap1\n      pop\n        /* \"contract/KimhoGames.sol\":1776:1803  string memory Defeatmessage */\n      0x00\n        /* \"contract/KimhoGames.sol\":1776:1816  string memory Defeatmessage = \"you lose\" */\n      mload(0x40)\n      dup1\n      0x40\n      add\n      0x40\n      mstore\n      dup1\n      0x08\n      dup2\n      mstore\n      0x20\n      add\n      0x796f75206c6f7365000000000000000000000000000000000000000000000000\n      dup2\n      mstore\n      pop\n      swap1\n      pop\n        /* \"contract/KimhoGames.sol\":1870:1880  uint count */\n      0x00\n        /* \"contract/KimhoGames.sol\":1909:1916  uint u1 */\n      dup1\n        /* \"contract/KimhoGames.sol\":1924:1925  3 */\n      0x03\n        /* \"contract/KimhoGames.sol\":1917:1923  input1 */\n      dup9\n        /* \"contract/KimhoGames.sol\":1917:1925  input1%3 */\n      tag_188\n      swap2\n      swap1\n      tag_124\n      jump\t// in\n    tag_188:\n        /* \"contract/KimhoGames.sol\":1909:1925  uint u1=input1%3 */\n      swap1\n      pop\n        /* \"contract/KimhoGames.sol\":1936:1943  uint u2 */\n      0x00\n        /* \"contract/KimhoGames.sol\":1951:1952  3 */\n      0x03\n        /* \"contract/KimhoGames.sol\":1944:1950  input2 */\n      dup9\n        /* \"contract/KimhoGames.sol\":1944:1952  input2%3 */\n      tag_189\n      swap2\n      swap1\n      tag_124\n      jump\t// in\n    tag_189:\n        /* \"contract/KimhoGames.sol\":1936:1952  uint u2=input2%3 */\n      swap1\n      pop\n        /* \"contract/KimhoGames.sol\":1963:1970  uint u3 */\n      0x00\n        /* \"contract/KimhoGames.sol\":1978:1979  3 */\n      0x03\n        /* \"contract/KimhoGames.sol\":1971:1977  input3 */\n      dup9\n        /* \"contract/KimhoGames.sol\":1971:1979  input3%3 */\n      tag_190\n      swap2\n      swap1\n      tag_124\n      jump\t// in\n    tag_190:\n        /* \"contract/KimhoGames.sol\":1963:1979  uint u3=input3%3 */\n      swap1\n      pop\n        /* \"contract/KimhoGames.sol\":1990:1999  uint rand */\n      0x00\n        /* \"contract/KimhoGames.sol\":2072:2073  3 */\n      0x03\n        /* \"contract/KimhoGames.sol\":2032:2047  block.timestamp */\n      timestamp\n        /* \"contract/KimhoGames.sol\":2048:2058  msg.sender */\n      caller\n        /* \"contract/KimhoGames.sol\":2059:2068  randNonce */\n      sload(0x09)\n        /* \"contract/KimhoGames.sol\":2015:2069  abi.encodePacked(block.timestamp,msg.sender,randNonce) */\n      add(0x20, mload(0x40))\n      tag_191\n      swap4\n      swap3\n      swap2\n      swap1\n      tag_122\n      jump\t// in\n    tag_191:\n      mload(0x40)\n      0x20\n      dup2\n      dup4\n      sub\n      sub\n      dup2\n      mstore\n      swap1\n      0x40\n      mstore\n        /* \"contract/KimhoGames.sol\":2005:2070  keccak256(abi.encodePacked(block.timestamp,msg.sender,randNonce)) */\n      dup1\n      mload\n      swap1\n      0x20\n      add\n      keccak256\n        /* \"contract/KimhoGames.sol\":2000:2071  uint(keccak256(abi.encodePacked(block.timestamp,msg.sender,randNonce))) */\n      0x00\n      shr\n        /* \"contract/KimhoGames.sol\":2000:2073  uint(keccak256(abi.encodePacked(block.timestamp,msg.sender,randNonce)))%3 */\n      tag_192\n      swap2\n      swap1\n      tag_124\n      jump\t// in\n    tag_192:\n        /* \"contract/KimhoGames.sol\":1990:2073  uint rand=uint(keccak256(abi.encodePacked(block.timestamp,msg.sender,randNonce)))%3 */\n      swap1\n      pop\n        /* \"contract/KimhoGames.sol\":2095:2096  0 */\n      0x00\n        /* \"contract/KimhoGames.sol\":2091:2093  u1 */\n      dup5\n        /* \"contract/KimhoGames.sol\":2091:2096  u1==0 */\n      eq\n        /* \"contract/KimhoGames.sol\":2088:2215  if(u1==0){\r... */\n      iszero\n      tag_193\n      jumpi\n        /* \"contract/KimhoGames.sol\":2125:2126  1 */\n      0x01\n        /* \"contract/KimhoGames.sol\":2119:2123  rand */\n      dup2\n        /* \"contract/KimhoGames.sol\":2119:2126  rand==1 */\n      eq\n        /* \"contract/KimhoGames.sol\":2116:2200  if(rand==1){ // 비겨도 진거임\r... */\n      iszero\n      tag_194\n      jumpi\n        /* \"contract/KimhoGames.sol\":2173:2180  count++ */\n      dup5\n      dup1\n      tag_195\n      swap1\n      tag_196\n      jump\t// in\n    tag_195:\n      swap6\n      pop\n      pop\n        /* \"contract/KimhoGames.sol\":2116:2200  if(rand==1){ // 비겨도 진거임\r... */\n    tag_194:\n        /* \"contract/KimhoGames.sol\":2088:2215  if(u1==0){\r... */\n    tag_193:\n        /* \"contract/KimhoGames.sol\":2236:2237  1 */\n      0x01\n        /* \"contract/KimhoGames.sol\":2232:2234  u1 */\n      dup5\n        /* \"contract/KimhoGames.sol\":2232:2237  u1==1 */\n      eq\n        /* \"contract/KimhoGames.sol\":2229:2333  if(u1==1){\r... */\n      iszero\n      tag_197\n      jumpi\n        /* \"contract/KimhoGames.sol\":2266:2267  2 */\n      0x02\n        /* \"contract/KimhoGames.sol\":2260:2264  rand */\n      dup2\n        /* \"contract/KimhoGames.sol\":2260:2267  rand==2 */\n      eq\n        /* \"contract/KimhoGames.sol\":2257:2318  if(rand==2){\r... */\n      iszero\n      tag_198\n      jumpi\n        /* \"contract/KimhoGames.sol\":2291:2298  count++ */\n      dup5\n      dup1\n      tag_199\n      swap1\n      tag_196\n      jump\t// in\n    tag_199:\n      swap6\n      pop\n      pop\n        /* \"contract/KimhoGames.sol\":2257:2318  if(rand==2){\r... */\n    tag_198:\n        /* \"contract/KimhoGames.sol\":2229:2333  if(u1==1){\r... */\n    tag_197:\n        /* \"contract/KimhoGames.sol\":2354:2355  2 */\n      0x02\n        /* \"contract/KimhoGames.sol\":2350:2352  u1 */\n      dup5\n        /* \"contract/KimhoGames.sol\":2350:2355  u1==2 */\n      eq\n        /* \"contract/KimhoGames.sol\":2347:2451  if(u1==2){\r... */\n      iszero\n      tag_200\n      jumpi\n        /* \"contract/KimhoGames.sol\":2384:2385  0 */\n      0x00\n        /* \"contract/KimhoGames.sol\":2378:2382  rand */\n      dup2\n        /* \"contract/KimhoGames.sol\":2378:2385  rand==0 */\n      eq\n        /* \"contract/KimhoGames.sol\":2375:2436  if(rand==0){\r... */\n      iszero\n      tag_201\n      jumpi\n        /* \"contract/KimhoGames.sol\":2409:2416  count++ */\n      dup5\n      dup1\n      tag_202\n      swap1\n      tag_196\n      jump\t// in\n    tag_202:\n      swap6\n      pop\n      pop\n        /* \"contract/KimhoGames.sol\":2375:2436  if(rand==0){\r... */\n    tag_201:\n        /* \"contract/KimhoGames.sol\":2347:2451  if(u1==2){\r... */\n    tag_200:\n        /* \"contract/KimhoGames.sol\":2472:2473  0 */\n      0x00\n        /* \"contract/KimhoGames.sol\":2468:2470  u1 */\n      dup5\n        /* \"contract/KimhoGames.sol\":2468:2473  u1==0 */\n      eq\n        /* \"contract/KimhoGames.sol\":2465:2592  if(u1==0){\r... */\n      iszero\n      tag_203\n      jumpi\n        /* \"contract/KimhoGames.sol\":2502:2503  1 */\n      0x01\n        /* \"contract/KimhoGames.sol\":2496:2500  rand */\n      dup2\n        /* \"contract/KimhoGames.sol\":2496:2503  rand==1 */\n      eq\n        /* \"contract/KimhoGames.sol\":2493:2577  if(rand==1){ // 비겨도 진거임\r... */\n      iszero\n      tag_204\n      jumpi\n        /* \"contract/KimhoGames.sol\":2550:2557  count++ */\n      dup5\n      dup1\n      tag_205\n      swap1\n      tag_196\n      jump\t// in\n    tag_205:\n      swap6\n      pop\n      pop\n        /* \"contract/KimhoGames.sol\":2493:2577  if(rand==1){ // 비겨도 진거임\r... */\n    tag_204:\n        /* \"contract/KimhoGames.sol\":2465:2592  if(u1==0){\r... */\n    tag_203:\n        /* \"contract/KimhoGames.sol\":2613:2614  1 */\n      0x01\n        /* \"contract/KimhoGames.sol\":2609:2611  u1 */\n      dup5\n        /* \"contract/KimhoGames.sol\":2609:2614  u1==1 */\n      eq\n        /* \"contract/KimhoGames.sol\":2606:2710  if(u1==1){\r... */\n      iszero\n      tag_206\n      jumpi\n        /* \"contract/KimhoGames.sol\":2643:2644  2 */\n      0x02\n        /* \"contract/KimhoGames.sol\":2637:2641  rand */\n      dup2\n        /* \"contract/KimhoGames.sol\":2637:2644  rand==2 */\n      eq\n        /* \"contract/KimhoGames.sol\":2634:2695  if(rand==2){\r... */\n      iszero\n      tag_207\n      jumpi\n        /* \"contract/KimhoGames.sol\":2668:2675  count++ */\n      dup5\n      dup1\n      tag_208\n      swap1\n      tag_196\n      jump\t// in\n    tag_208:\n      swap6\n      pop\n      pop\n        /* \"contract/KimhoGames.sol\":2634:2695  if(rand==2){\r... */\n    tag_207:\n        /* \"contract/KimhoGames.sol\":2606:2710  if(u1==1){\r... */\n    tag_206:\n        /* \"contract/KimhoGames.sol\":2731:2732  2 */\n      0x02\n        /* \"contract/KimhoGames.sol\":2727:2729  u1 */\n      dup5\n        /* \"contract/KimhoGames.sol\":2727:2732  u1==2 */\n      eq\n        /* \"contract/KimhoGames.sol\":2724:2828  if(u1==2){\r... */\n      iszero\n      tag_209\n      jumpi\n        /* \"contract/KimhoGames.sol\":2761:2762  0 */\n      0x00\n        /* \"contract/KimhoGames.sol\":2755:2759  rand */\n      dup2\n        /* \"contract/KimhoGames.sol\":2755:2762  rand==0 */\n      eq\n        /* \"contract/KimhoGames.sol\":2752:2813  if(rand==0){\r... */\n      iszero\n      tag_210\n      jumpi\n        /* \"contract/KimhoGames.sol\":2786:2793  count++ */\n      dup5\n      dup1\n      tag_211\n      swap1\n      tag_196\n      jump\t// in\n    tag_211:\n      swap6\n      pop\n      pop\n        /* \"contract/KimhoGames.sol\":2752:2813  if(rand==0){\r... */\n    tag_210:\n        /* \"contract/KimhoGames.sol\":2724:2828  if(u1==2){\r... */\n    tag_209:\n        /* \"contract/KimhoGames.sol\":2976:2977  3 */\n      0x03\n        /* \"contract/KimhoGames.sol\":2936:2951  block.timestamp */\n      timestamp\n        /* \"contract/KimhoGames.sol\":2952:2962  msg.sender */\n      caller\n        /* \"contract/KimhoGames.sol\":2963:2972  randNonce */\n      sload(0x09)\n        /* \"contract/KimhoGames.sol\":2919:2973  abi.encodePacked(block.timestamp,msg.sender,randNonce) */\n      add(0x20, mload(0x40))\n      tag_212\n      swap4\n      swap3\n      swap2\n      swap1\n      tag_122\n      jump\t// in\n    tag_212:\n      mload(0x40)\n      0x20\n      dup2\n      dup4\n      sub\n      sub\n      dup2\n      mstore\n      swap1\n      0x40\n      mstore\n        /* \"contract/KimhoGames.sol\":2909:2974  keccak256(abi.encodePacked(block.timestamp,msg.sender,randNonce)) */\n      dup1\n      mload\n      swap1\n      0x20\n      add\n      keccak256\n        /* \"contract/KimhoGames.sol\":2904:2975  uint(keccak256(abi.encodePacked(block.timestamp,msg.sender,randNonce))) */\n      0x00\n      shr\n        /* \"contract/KimhoGames.sol\":2904:2977  uint(keccak256(abi.encodePacked(block.timestamp,msg.sender,randNonce)))%3 */\n      tag_213\n      swap2\n      swap1\n      tag_124\n      jump\t// in\n    tag_213:\n        /* \"contract/KimhoGames.sol\":2899:2977  rand=uint(keccak256(abi.encodePacked(block.timestamp,msg.sender,randNonce)))%3 */\n      swap1\n      pop\n        /* \"contract/KimhoGames.sol\":2999:3000  0 */\n      0x00\n        /* \"contract/KimhoGames.sol\":2995:2997  u2 */\n      dup4\n        /* \"contract/KimhoGames.sol\":2995:3000  u2==0 */\n      eq\n        /* \"contract/KimhoGames.sol\":2992:3119  if(u2==0){\r... */\n      iszero\n      tag_214\n      jumpi\n        /* \"contract/KimhoGames.sol\":3029:3030  1 */\n      0x01\n        /* \"contract/KimhoGames.sol\":3023:3027  rand */\n      dup2\n        /* \"contract/KimhoGames.sol\":3023:3030  rand==1 */\n      eq\n        /* \"contract/KimhoGames.sol\":3020:3104  if(rand==1){ // 비겨도 진거임\r... */\n      iszero\n      tag_215\n      jumpi\n        /* \"contract/KimhoGames.sol\":3077:3084  count++ */\n      dup5\n      dup1\n      tag_216\n      swap1\n      tag_196\n      jump\t// in\n    tag_216:\n      swap6\n      pop\n      pop\n        /* \"contract/KimhoGames.sol\":3020:3104  if(rand==1){ // 비겨도 진거임\r... */\n    tag_215:\n        /* \"contract/KimhoGames.sol\":2992:3119  if(u2==0){\r... */\n    tag_214:\n        /* \"contract/KimhoGames.sol\":3140:3141  1 */\n      0x01\n        /* \"contract/KimhoGames.sol\":3136:3138  u2 */\n      dup4\n        /* \"contract/KimhoGames.sol\":3136:3141  u2==1 */\n      eq\n        /* \"contract/KimhoGames.sol\":3133:3237  if(u2==1){\r... */\n      iszero\n      tag_217\n      jumpi\n        /* \"contract/KimhoGames.sol\":3170:3171  2 */\n      0x02\n        /* \"contract/KimhoGames.sol\":3164:3168  rand */\n      dup2\n        /* \"contract/KimhoGames.sol\":3164:3171  rand==2 */\n      eq\n        /* \"contract/KimhoGames.sol\":3161:3222  if(rand==2){\r... */\n      iszero\n      tag_218\n      jumpi\n        /* \"contract/KimhoGames.sol\":3195:3202  count++ */\n      dup5\n      dup1\n      tag_219\n      swap1\n      tag_196\n      jump\t// in\n    tag_219:\n      swap6\n      pop\n      pop\n        /* \"contract/KimhoGames.sol\":3161:3222  if(rand==2){\r... */\n    tag_218:\n        /* \"contract/KimhoGames.sol\":3133:3237  if(u2==1){\r... */\n    tag_217:\n        /* \"contract/KimhoGames.sol\":3258:3259  2 */\n      0x02\n        /* \"contract/KimhoGames.sol\":3254:3256  u2 */\n      dup4\n        /* \"contract/KimhoGames.sol\":3254:3259  u2==2 */\n      eq\n        /* \"contract/KimhoGames.sol\":3251:3355  if(u2==2){\r... */\n      iszero\n      tag_220\n      jumpi\n        /* \"contract/KimhoGames.sol\":3288:3289  0 */\n      0x00\n        /* \"contract/KimhoGames.sol\":3282:3286  rand */\n      dup2\n        /* \"contract/KimhoGames.sol\":3282:3289  rand==0 */\n      eq\n        /* \"contract/KimhoGames.sol\":3279:3340  if(rand==0){\r... */\n      iszero\n      tag_221\n      jumpi\n        /* \"contract/KimhoGames.sol\":3313:3320  count++ */\n      dup5\n      dup1\n      tag_222\n      swap1\n      tag_196\n      jump\t// in\n    tag_222:\n      swap6\n      pop\n      pop\n        /* \"contract/KimhoGames.sol\":3279:3340  if(rand==0){\r... */\n    tag_221:\n        /* \"contract/KimhoGames.sol\":3251:3355  if(u2==2){\r... */\n    tag_220:\n        /* \"contract/KimhoGames.sol\":3503:3504  3 */\n      0x03\n        /* \"contract/KimhoGames.sol\":3463:3478  block.timestamp */\n      timestamp\n        /* \"contract/KimhoGames.sol\":3479:3489  msg.sender */\n      caller\n        /* \"contract/KimhoGames.sol\":3490:3499  randNonce */\n      sload(0x09)\n        /* \"contract/KimhoGames.sol\":3446:3500  abi.encodePacked(block.timestamp,msg.sender,randNonce) */\n      add(0x20, mload(0x40))\n      tag_223\n      swap4\n      swap3\n      swap2\n      swap1\n      tag_122\n      jump\t// in\n    tag_223:\n      mload(0x40)\n      0x20\n      dup2\n      dup4\n      sub\n      sub\n      dup2\n      mstore\n      swap1\n      0x40\n      mstore\n        /* \"contract/KimhoGames.sol\":3436:3501  keccak256(abi.encodePacked(block.timestamp,msg.sender,randNonce)) */\n      dup1\n      mload\n      swap1\n      0x20\n      add\n      keccak256\n        /* \"contract/KimhoGames.sol\":3431:3502  uint(keccak256(abi.encodePacked(block.timestamp,msg.sender,randNonce))) */\n      0x00\n      shr\n        /* \"contract/KimhoGames.sol\":3431:3504  uint(keccak256(abi.encodePacked(block.timestamp,msg.sender,randNonce)))%3 */\n      tag_224\n      swap2\n      swap1\n      tag_124\n      jump\t// in\n    tag_224:\n        /* \"contract/KimhoGames.sol\":3426:3504  rand=uint(keccak256(abi.encodePacked(block.timestamp,msg.sender,randNonce)))%3 */\n      swap1\n      pop\n        /* \"contract/KimhoGames.sol\":3526:3527  0 */\n      0x00\n        /* \"contract/KimhoGames.sol\":3522:3524  u3 */\n      dup3\n        /* \"contract/KimhoGames.sol\":3522:3527  u3==0 */\n      eq\n        /* \"contract/KimhoGames.sol\":3519:3646  if(u3==0){\r... */\n      iszero\n      tag_225\n      jumpi\n        /* \"contract/KimhoGames.sol\":3556:3557  1 */\n      0x01\n        /* \"contract/KimhoGames.sol\":3550:3554  rand */\n      dup2\n        /* \"contract/KimhoGames.sol\":3550:3557  rand==1 */\n      eq\n        /* \"contract/KimhoGames.sol\":3547:3631  if(rand==1){ // 비겨도 진거임\r... */\n      iszero\n      tag_226\n      jumpi\n        /* \"contract/KimhoGames.sol\":3604:3611  count++ */\n      dup5\n      dup1\n      tag_227\n      swap1\n      tag_196\n      jump\t// in\n    tag_227:\n      swap6\n      pop\n      pop\n        /* \"contract/KimhoGames.sol\":3547:3631  if(rand==1){ // 비겨도 진거임\r... */\n    tag_226:\n        /* \"contract/KimhoGames.sol\":3519:3646  if(u3==0){\r... */\n    tag_225:\n        /* \"contract/KimhoGames.sol\":3667:3668  1 */\n      0x01\n        /* \"contract/KimhoGames.sol\":3663:3665  u3 */\n      dup3\n        /* \"contract/KimhoGames.sol\":3663:3668  u3==1 */\n      eq\n        /* \"contract/KimhoGames.sol\":3660:3764  if(u3==1){\r... */\n      iszero\n      tag_228\n      jumpi\n        /* \"contract/KimhoGames.sol\":3697:3698  2 */\n      0x02\n        /* \"contract/KimhoGames.sol\":3691:3695  rand */\n      dup2\n        /* \"contract/KimhoGames.sol\":3691:3698  rand==2 */\n      eq\n        /* \"contract/KimhoGames.sol\":3688:3749  if(rand==2){\r... */\n      iszero\n      tag_229\n      jumpi\n        /* \"contract/KimhoGames.sol\":3722:3729  count++ */\n      dup5\n      dup1\n      tag_230\n      swap1\n      tag_196\n      jump\t// in\n    tag_230:\n      swap6\n      pop\n      pop\n        /* \"contract/KimhoGames.sol\":3688:3749  if(rand==2){\r... */\n    tag_229:\n        /* \"contract/KimhoGames.sol\":3660:3764  if(u3==1){\r... */\n    tag_228:\n        /* \"contract/KimhoGames.sol\":3785:3786  2 */\n      0x02\n        /* \"contract/KimhoGames.sol\":3781:3783  u3 */\n      dup3\n        /* \"contract/KimhoGames.sol\":3781:3786  u3==2 */\n      eq\n        /* \"contract/KimhoGames.sol\":3778:3882  if(u3==2){\r... */\n      iszero\n      tag_231\n      jumpi\n        /* \"contract/KimhoGames.sol\":3815:3816  0 */\n      0x00\n        /* \"contract/KimhoGames.sol\":3809:3813  rand */\n      dup2\n        /* \"contract/KimhoGames.sol\":3809:3816  rand==0 */\n      eq\n        /* \"contract/KimhoGames.sol\":3806:3867  if(rand==0){\r... */\n      iszero\n      tag_232\n      jumpi\n        /* \"contract/KimhoGames.sol\":3840:3847  count++ */\n      dup5\n      dup1\n      tag_233\n      swap1\n      tag_196\n      jump\t// in\n    tag_233:\n      swap6\n      pop\n      pop\n        /* \"contract/KimhoGames.sol\":3806:3867  if(rand==0){\r... */\n    tag_232:\n        /* \"contract/KimhoGames.sol\":3778:3882  if(u3==2){\r... */\n    tag_231:\n        /* \"contract/KimhoGames.sol\":3901:3902  1 */\n      0x01\n        /* \"contract/KimhoGames.sol\":3895:3900  count */\n      dup6\n        /* \"contract/KimhoGames.sol\":3895:3902  count>1 */\n      gt\n        /* \"contract/KimhoGames.sol\":3892:4107  if(count>1){\r... */\n      iszero\n      tag_234\n      jumpi\n        /* \"contract/KimhoGames.sol\":3941:3951  Winmessage */\n      dup7\n        /* \"contract/KimhoGames.sol\":3918:3940  RockScissorsPaperScore */\n      0x06\n        /* \"contract/KimhoGames.sol\":3918:3951  RockScissorsPaperScore=Winmessage */\n      swap1\n      dup1\n      mload\n      swap1\n      0x20\n      add\n      swap1\n      tag_235\n      swap3\n      swap2\n      swap1\n      tag_128\n      jump\t// in\n    tag_235:\n      pop\n        /* \"contract/KimhoGames.sol\":3973:3983  Winmessage */\n      dup7\n        /* \"contract/KimhoGames.sol\":3966:3983  return Winmessage */\n      swap8\n      pop\n      pop\n      pop\n      pop\n      pop\n      pop\n      pop\n      pop\n      jump(tag_187)\n        /* \"contract/KimhoGames.sol\":3892:4107  if(count>1){\r... */\n    tag_234:\n        /* \"contract/KimhoGames.sol\":4047:4060  Defeatmessage */\n      dup6\n        /* \"contract/KimhoGames.sol\":4024:4046  RockScissorsPaperScore */\n      0x06\n        /* \"contract/KimhoGames.sol\":4024:4060  RockScissorsPaperScore=Defeatmessage */\n      swap1\n      dup1\n      mload\n      swap1\n      0x20\n      add\n      swap1\n      tag_237\n      swap3\n      swap2\n      swap1\n      tag_128\n      jump\t// in\n    tag_237:\n      pop\n        /* \"contract/KimhoGames.sol\":4082:4095  Defeatmessage */\n      dup6\n        /* \"contract/KimhoGames.sol\":4075:4095  return Defeatmessage */\n      swap8\n      pop\n      pop\n      pop\n      pop\n      pop\n      pop\n      pop\n      pop\n        /* \"contract/KimhoGames.sol\":1620:4114  function RockPaperScissors(uint input1, uint input2, uint input3) public returns (string memory){\r... */\n    tag_187:\n      swap4\n      swap3\n      pop\n      pop\n      pop\n      jump\t// out\n        /* \"@openzeppelin/contracts/token/ERC20/ERC20.sol\":6594:7021  function decreaseAllowance(address spender, uint256 subtractedValue) public virtual returns (bool) {... */\n    tag_89:\n        /* \"@openzeppelin/contracts/token/ERC20/ERC20.sol\":6687:6691  bool */\n      0x00\n        /* \"@openzeppelin/contracts/token/ERC20/ERC20.sol\":6703:6716  address owner */\n      dup1\n        /* \"@openzeppelin/contracts/token/ERC20/ERC20.sol\":6719:6731  _msgSender() */\n      tag_239\n        /* \"@openzeppelin/contracts/token/ERC20/ERC20.sol\":6719:6729  _msgSender */\n      tag_116\n        /* \"@openzeppelin/contracts/token/ERC20/ERC20.sol\":6719:6731  _msgSender() */\n      jump\t// in\n    tag_239:\n        /* \"@openzeppelin/contracts/token/ERC20/ERC20.sol\":6703:6731  address owner = _msgSender() */\n      swap1\n      pop\n        /* \"@openzeppelin/contracts/token/ERC20/ERC20.sol\":6741:6765  uint256 currentAllowance */\n      0x00\n        /* \"@openzeppelin/contracts/token/ERC20/ERC20.sol\":6768:6793  allowance(owner, spender) */\n      tag_240\n        /* \"@openzeppelin/contracts/token/ERC20/ERC20.sol\":6778:6783  owner */\n      dup3\n        /* \"@openzeppelin/contracts/token/ERC20/ERC20.sol\":6785:6792  spender */\n      dup7\n        /* \"@openzeppelin/contracts/token/ERC20/ERC20.sol\":6768:6777  allowance */\n      tag_105\n        /* \"@openzeppelin/contracts/token/ERC20/ERC20.sol\":6768:6793  allowance(owner, spender) */\n      jump\t// in\n    tag_240:\n        /* \"@openzeppelin/contracts/token/ERC20/ERC20.sol\":6741:6793  uint256 currentAllowance = allowance(owner, spender) */\n      swap1\n      pop\n        /* \"@openzeppelin/contracts/token/ERC20/ERC20.sol\":6831:6846  subtractedValue */\n      dup4\n        /* \"@openzeppelin/contracts/token/ERC20/ERC20.sol\":6811:6827  currentAllowance */\n      dup2\n        /* \"@openzeppelin/contracts/token/ERC20/ERC20.sol\":6811:6846  currentAllowance >= subtractedValue */\n      lt\n      iszero\n        /* \"@openzeppelin/contracts/token/ERC20/ERC20.sol\":6803:6888  require(currentAllowance >= subtractedValue, \"ERC20: decreased allowance below zero\") */\n      tag_241\n      jumpi\n      mload(0x40)\n      0x08c379a000000000000000000000000000000000000000000000000000000000\n      dup2\n      mstore\n      0x04\n      add\n      tag_242\n      swap1\n      tag_243\n      jump\t// in\n    tag_242:\n      mload(0x40)\n      dup1\n      swap2\n      sub\n      swap1\n      revert\n    tag_241:\n        /* \"@openzeppelin/contracts/token/ERC20/ERC20.sol\":6922:6982  _approve(owner, spender, currentAllowance - subtractedValue) */\n      tag_244\n        /* \"@openzeppelin/contracts/token/ERC20/ERC20.sol\":6931:6936  owner */\n      dup3\n        /* \"@openzeppelin/contracts/token/ERC20/ERC20.sol\":6938:6945  spender */\n      dup7\n        /* \"@openzeppelin/contracts/token/ERC20/ERC20.sol\":6966:6981  subtractedValue */\n      dup7\n        /* \"@openzeppelin/contracts/token/ERC20/ERC20.sol\":6947:6963  currentAllowance */\n      dup5\n        /* \"@openzeppelin/contracts/token/ERC20/ERC20.sol\":6947:6981  currentAllowance - subtractedValue */\n      sub\n        /* \"@openzeppelin/contracts/token/ERC20/ERC20.sol\":6922:6930  _approve */\n      tag_118\n        /* \"@openzeppelin/contracts/token/ERC20/ERC20.sol\":6922:6982  _approve(owner, spender, currentAllowance - subtractedValue) */\n      jump\t// in\n    tag_244:\n        /* \"@openzeppelin/contracts/token/ERC20/ERC20.sol\":7010:7014  true */\n      0x01\n        /* \"@openzeppelin/contracts/token/ERC20/ERC20.sol\":7003:7014  return true */\n      swap3\n      pop\n      pop\n      pop\n        /* \"@openzeppelin/contracts/token/ERC20/ERC20.sol\":6594:7021  function decreaseAllowance(address spender, uint256 subtractedValue) public virtual returns (bool) {... */\n      swap3\n      swap2\n      pop\n      pop\n      jump\t// out\n        /* \"contract/KimhoGames.sol\":1134:1279  function transfer(address to, uint256 amount) public override returns (bool){\r... */\n    tag_93:\n        /* \"contract/KimhoGames.sol\":1205:1209  bool */\n      0x00\n        /* \"contract/KimhoGames.sol\":1221:1249  _transfer(owner, to, amount) */\n      tag_246\n        /* \"contract/KimhoGames.sol\":1231:1236  owner */\n      0x05\n      0x00\n      swap1\n      sload\n      swap1\n      0x0100\n      exp\n      swap1\n      div\n      0xffffffffffffffffffffffffffffffffffffffff\n      and\n        /* \"contract/KimhoGames.sol\":1238:1240  to */\n      dup5\n        /* \"contract/KimhoGames.sol\":1242:1248  amount */\n      dup5\n        /* \"contract/KimhoGames.sol\":1221:1230  _transfer */\n      tag_136\n        /* \"contract/KimhoGames.sol\":1221:1249  _transfer(owner, to, amount) */\n      jump\t// in\n    tag_246:\n        /* \"contract/KimhoGames.sol\":1267:1271  true */\n      0x01\n        /* \"contract/KimhoGames.sol\":1260:1271  return true */\n      swap1\n      pop\n        /* \"contract/KimhoGames.sol\":1134:1279  function transfer(address to, uint256 amount) public override returns (bool){\r... */\n      swap3\n      swap2\n      pop\n      pop\n      jump\t// out\n        /* \"contract/KimhoGames.sol\":5267:5363  function getRaceScore() public view returns (string memory){\r... */\n    tag_96:\n        /* \"contract/KimhoGames.sol\":5312:5325  string memory */\n      0x60\n        /* \"contract/KimhoGames.sol\":5344:5355  racingScore */\n      0x08\n        /* \"contract/KimhoGames.sol\":5337:5355  return racingScore */\n      dup1\n      sload\n      tag_248\n      swap1\n      tag_109\n      jump\t// in\n    tag_248:\n      dup1\n      0x1f\n      add\n      0x20\n      dup1\n      swap2\n      div\n      mul\n      0x20\n      add\n      mload(0x40)\n      swap1\n      dup2\n      add\n      0x40\n      mstore\n      dup1\n      swap3\n      swap2\n      swap1\n      dup2\n      dup2\n      mstore\n      0x20\n      add\n      dup3\n      dup1\n      sload\n      tag_249\n      swap1\n      tag_109\n      jump\t// in\n    tag_249:\n      dup1\n      iszero\n      tag_250\n      jumpi\n      dup1\n      0x1f\n      lt\n      tag_251\n      jumpi\n      0x0100\n      dup1\n      dup4\n      sload\n      div\n      mul\n      dup4\n      mstore\n      swap2\n      0x20\n      add\n      swap2\n      jump(tag_250)\n    tag_251:\n      dup3\n      add\n      swap2\n      swap1\n      0x00\n      mstore\n      keccak256(0x00, 0x20)\n      swap1\n    tag_252:\n      dup2\n      sload\n      dup2\n      mstore\n      swap1\n      0x01\n      add\n      swap1\n      0x20\n      add\n      dup1\n      dup4\n      gt\n      tag_252\n      jumpi\n      dup3\n      swap1\n      sub\n      0x1f\n      and\n      dup3\n      add\n      swap2\n    tag_250:\n      pop\n      pop\n      pop\n      pop\n      pop\n      swap1\n      pop\n        /* \"contract/KimhoGames.sol\":5267:5363  function getRaceScore() public view returns (string memory){\r... */\n      swap1\n      jump\t// out\n        /* \"contract/KimhoGames.sol\":4817:5255  function race(uint input) public returns (bool){\r... */\n    tag_100:\n        /* \"contract/KimhoGames.sol\":4859:4863  bool */\n      0x00\n        /* \"contract/KimhoGames.sol\":4875:4899  string memory Winmessage */\n      dup1\n        /* \"contract/KimhoGames.sol\":4875:4913  string memory Winmessage = \"you win!!\" */\n      mload(0x40)\n      dup1\n      0x40\n      add\n      0x40\n      mstore\n      dup1\n      0x09\n      dup2\n      mstore\n      0x20\n      add\n      0x796f752077696e21210000000000000000000000000000000000000000000000\n      dup2\n      mstore\n      pop\n      swap1\n      pop\n        /* \"contract/KimhoGames.sol\":4924:4951  string memory Defeatmessage */\n      0x00\n        /* \"contract/KimhoGames.sol\":4924:4964  string memory Defeatmessage = \"you lose\" */\n      mload(0x40)\n      dup1\n      0x40\n      add\n      0x40\n      mstore\n      dup1\n      0x08\n      dup2\n      mstore\n      0x20\n      add\n      0x796f75206c6f7365000000000000000000000000000000000000000000000000\n      dup2\n      mstore\n      pop\n      swap1\n      pop\n        /* \"contract/KimhoGames.sol\":4975:4984  uint rand */\n      0x00\n        /* \"contract/KimhoGames.sol\":5059:5062  100 */\n      0x64\n        /* \"contract/KimhoGames.sol\":5019:5034  block.timestamp */\n      timestamp\n        /* \"contract/KimhoGames.sol\":5035:5045  msg.sender */\n      caller\n        /* \"contract/KimhoGames.sol\":5046:5055  randNonce */\n      sload(0x09)\n        /* \"contract/KimhoGames.sol\":5002:5056  abi.encodePacked(block.timestamp,msg.sender,randNonce) */\n      add(0x20, mload(0x40))\n      tag_254\n      swap4\n      swap3\n      swap2\n      swap1\n      tag_122\n      jump\t// in\n    tag_254:\n      mload(0x40)\n      0x20\n      dup2\n      dup4\n      sub\n      sub\n      dup2\n      mstore\n      swap1\n      0x40\n      mstore\n        /* \"contract/KimhoGames.sol\":4992:5057  keccak256(abi.encodePacked(block.timestamp,msg.sender,randNonce)) */\n      dup1\n      mload\n      swap1\n      0x20\n      add\n      keccak256\n        /* \"contract/KimhoGames.sol\":4987:5058  uint(keccak256(abi.encodePacked(block.timestamp,msg.sender,randNonce))) */\n      0x00\n      shr\n        /* \"contract/KimhoGames.sol\":4987:5062  uint(keccak256(abi.encodePacked(block.timestamp,msg.sender,randNonce)))%100 */\n      tag_255\n      swap2\n      swap1\n      tag_124\n      jump\t// in\n    tag_255:\n        /* \"contract/KimhoGames.sol\":4975:5062  uint rand = uint(keccak256(abi.encodePacked(block.timestamp,msg.sender,randNonce)))%100 */\n      swap1\n      pop\n        /* \"contract/KimhoGames.sol\":5073:5079  uint u */\n      0x00\n        /* \"contract/KimhoGames.sol\":5086:5089  100 */\n      0x64\n        /* \"contract/KimhoGames.sol\":5080:5085  input */\n      dup7\n        /* \"contract/KimhoGames.sol\":5080:5089  input%100 */\n      tag_256\n      swap2\n      swap1\n      tag_124\n      jump\t// in\n    tag_256:\n        /* \"contract/KimhoGames.sol\":5073:5089  uint u=input%100 */\n      swap1\n      pop\n        /* \"contract/KimhoGames.sol\":5109:5110  u */\n      dup1\n        /* \"contract/KimhoGames.sol\":5103:5107  rand */\n      dup3\n        /* \"contract/KimhoGames.sol\":5103:5110  rand>=u */\n      lt\n        /* \"contract/KimhoGames.sol\":5100:5226  if(rand>=u){\r... */\n      tag_257\n      jumpi\n        /* \"contract/KimhoGames.sol\":5138:5151  Defeatmessage */\n      dup3\n        /* \"contract/KimhoGames.sol\":5126:5137  racingScore */\n      0x08\n        /* \"contract/KimhoGames.sol\":5126:5151  racingScore=Defeatmessage */\n      swap1\n      dup1\n      mload\n      swap1\n      0x20\n      add\n      swap1\n      tag_258\n      swap3\n      swap2\n      swap1\n      tag_128\n      jump\t// in\n    tag_258:\n      pop\n        /* \"contract/KimhoGames.sol\":5100:5226  if(rand>=u){\r... */\n      jump(tag_259)\n    tag_257:\n        /* \"contract/KimhoGames.sol\":5204:5214  Winmessage */\n      dup4\n        /* \"contract/KimhoGames.sol\":5192:5203  racingScore */\n      0x08\n        /* \"contract/KimhoGames.sol\":5192:5214  racingScore=Winmessage */\n      swap1\n      dup1\n      mload\n      swap1\n      0x20\n      add\n      swap1\n      tag_260\n      swap3\n      swap2\n      swap1\n      tag_128\n      jump\t// in\n    tag_260:\n      pop\n        /* \"contract/KimhoGames.sol\":5100:5226  if(rand>=u){\r... */\n    tag_259:\n        /* \"contract/KimhoGames.sol\":5243:5247  true */\n      0x01\n        /* \"contract/KimhoGames.sol\":5236:5247  return true */\n      swap5\n      pop\n      pop\n      pop\n      pop\n      pop\n        /* \"contract/KimhoGames.sol\":4817:5255  function race(uint input) public returns (bool){\r... */\n      swap2\n      swap1\n      pop\n      jump\t// out\n        /* \"@openzeppelin/contracts/token/ERC20/ERC20.sol\":3976:4125  function allowance(address owner, address spender) public view virtual override returns (uint256) {... */\n    tag_105:\n        /* \"@openzeppelin/contracts/token/ERC20/ERC20.sol\":4065:4072  uint256 */\n      0x00\n        /* \"@openzeppelin/contracts/token/ERC20/ERC20.sol\":4091:4102  _allowances */\n      0x01\n        /* \"@openzeppelin/contracts/token/ERC20/ERC20.sol\":4091:4109  _allowances[owner] */\n      0x00\n        /* \"@openzeppelin/contracts/token/ERC20/ERC20.sol\":4103:4108  owner */\n      dup5\n        /* \"@openzeppelin/contracts/token/ERC20/ERC20.sol\":4091:4109  _allowances[owner] */\n      0xffffffffffffffffffffffffffffffffffffffff\n      and\n      0xffffffffffffffffffffffffffffffffffffffff\n      and\n      dup2\n      mstore\n      0x20\n      add\n      swap1\n      dup2\n      mstore\n      0x20\n      add\n      0x00\n      keccak256\n        /* \"@openzeppelin/contracts/token/ERC20/ERC20.sol\":4091:4118  _allowances[owner][spender] */\n      0x00\n        /* \"@openzeppelin/contracts/token/ERC20/ERC20.sol\":4110:4117  spender */\n      dup4\n        /* \"@openzeppelin/contracts/token/ERC20/ERC20.sol\":4091:4118  _allowances[owner][spender] */\n      0xffffffffffffffffffffffffffffffffffffffff\n      and\n      0xffffffffffffffffffffffffffffffffffffffff\n      and\n      dup2\n      mstore\n      0x20\n      add\n      swap1\n      dup2\n      mstore\n      0x20\n      add\n      0x00\n      keccak256\n      sload\n        /* \"@openzeppelin/contracts/token/ERC20/ERC20.sol\":4084:4118  return _allowances[owner][spender] */\n      swap1\n      pop\n        /* \"@openzeppelin/contracts/token/ERC20/ERC20.sol\":3976:4125  function allowance(address owner, address spender) public view virtual override returns (uint256) {... */\n      swap3\n      swap2\n      pop\n      pop\n      jump\t// out\n        /* \"@openzeppelin/contracts/utils/Context.sol\":640:736  function _msgSender() internal view virtual returns (address) {... */\n    tag_116:\n        /* \"@openzeppelin/contracts/utils/Context.sol\":693:700  address */\n      0x00\n        /* \"@openzeppelin/contracts/utils/Context.sol\":719:729  msg.sender */\n      caller\n        /* \"@openzeppelin/contracts/utils/Context.sol\":712:729  return msg.sender */\n      swap1\n      pop\n        /* \"@openzeppelin/contracts/utils/Context.sol\":640:736  function _msgSender() internal view virtual returns (address) {... */\n      swap1\n      jump\t// out\n        /* \"@openzeppelin/contracts/token/ERC20/ERC20.sol\":10110:10480  function _approve(... */\n    tag_118:\n        /* \"@openzeppelin/contracts/token/ERC20/ERC20.sol\":10258:10259  0 */\n      0x00\n        /* \"@openzeppelin/contracts/token/ERC20/ERC20.sol\":10241:10260  owner != address(0) */\n      0xffffffffffffffffffffffffffffffffffffffff\n      and\n        /* \"@openzeppelin/contracts/token/ERC20/ERC20.sol\":10241:10246  owner */\n      dup4\n        /* \"@openzeppelin/contracts/token/ERC20/ERC20.sol\":10241:10260  owner != address(0) */\n      0xffffffffffffffffffffffffffffffffffffffff\n      and\n      eq\n      iszero\n        /* \"@openzeppelin/contracts/token/ERC20/ERC20.sol\":10233:10301  require(owner != address(0), \"ERC20: approve from the zero address\") */\n      tag_264\n      jumpi\n      mload(0x40)\n      0x08c379a000000000000000000000000000000000000000000000000000000000\n      dup2\n      mstore\n      0x04\n      add\n      tag_265\n      swap1\n      tag_266\n      jump\t// in\n    tag_265:\n      mload(0x40)\n      dup1\n      swap2\n      sub\n      swap1\n      revert\n    tag_264:\n        /* \"@openzeppelin/contracts/token/ERC20/ERC20.sol\":10338:10339  0 */\n      0x00\n        /* \"@openzeppelin/contracts/token/ERC20/ERC20.sol\":10319:10340  spender != address(0) */\n      0xffffffffffffffffffffffffffffffffffffffff\n      and\n        /* \"@openzeppelin/contracts/token/ERC20/ERC20.sol\":10319:10326  spender */\n      dup3\n        /* \"@openzeppelin/contracts/token/ERC20/ERC20.sol\":10319:10340  spender != address(0) */\n      0xffffffffffffffffffffffffffffffffffffffff\n      and\n      eq\n      iszero\n        /* \"@openzeppelin/contracts/token/ERC20/ERC20.sol\":10311:10379  require(spender != address(0), \"ERC20: approve to the zero address\") */\n      tag_267\n      jumpi\n      mload(0x40)\n      0x08c379a000000000000000000000000000000000000000000000000000000000\n      dup2\n      mstore\n      0x04\n      add\n      tag_268\n      swap1\n      tag_269\n      jump\t// in\n    tag_268:\n      mload(0x40)\n      dup1\n      swap2\n      sub\n      swap1\n      revert\n    tag_267:\n        /* \"@openzeppelin/contracts/token/ERC20/ERC20.sol\":10420:10426  amount */\n      dup1\n        /* \"@openzeppelin/contracts/token/ERC20/ERC20.sol\":10390:10401  _allowances */\n      0x01\n        /* \"@openzeppelin/contracts/token/ERC20/ERC20.sol\":10390:10408  _allowances[owner] */\n      0x00\n        /* \"@openzeppelin/contracts/token/ERC20/ERC20.sol\":10402:10407  owner */\n      dup6\n        /* \"@openzeppelin/contracts/token/ERC20/ERC20.sol\":10390:10408  _allowances[owner] */\n      0xffffffffffffffffffffffffffffffffffffffff\n      and\n      0xffffffffffffffffffffffffffffffffffffffff\n      and\n      dup2\n      mstore\n      0x20\n      add\n      swap1\n      dup2\n      mstore\n      0x20\n      add\n      0x00\n      keccak256\n        /* \"@openzeppelin/contracts/token/ERC20/ERC20.sol\":10390:10417  _allowances[owner][spender] */\n      0x00\n        /* \"@openzeppelin/contracts/token/ERC20/ERC20.sol\":10409:10416  spender */\n      dup5\n        /* \"@openzeppelin/contracts/token/ERC20/ERC20.sol\":10390:10417  _allowances[owner][spender] */\n      0xffffffffffffffffffffffffffffffffffffffff\n      and\n      0xffffffffffffffffffffffffffffffffffffffff\n      and\n      dup2\n      mstore\n      0x20\n      add\n      swap1\n      dup2\n      mstore\n      0x20\n      add\n      0x00\n      keccak256\n        /* \"@openzeppelin/contracts/token/ERC20/ERC20.sol\":10390:10426  _allowances[owner][spender] = amount */\n      dup2\n      swap1\n      sstore\n      pop\n        /* \"@openzeppelin/contracts/token/ERC20/ERC20.sol\":10457:10464  spender */\n      dup2\n        /* \"@openzeppelin/contracts/token/ERC20/ERC20.sol\":10441:10473  Approval(owner, spender, amount) */\n      0xffffffffffffffffffffffffffffffffffffffff\n      and\n        /* \"@openzeppelin/contracts/token/ERC20/ERC20.sol\":10450:10455  owner */\n      dup4\n        /* \"@openzeppelin/contracts/token/ERC20/ERC20.sol\":10441:10473  Approval(owner, spender, amount) */\n      0xffffffffffffffffffffffffffffffffffffffff\n      and\n      0x8c5be1e5ebec7d5bd14f71427d1e84f3dd0314c0f7b2291e5b200ac8c7c3b925\n        /* \"@openzeppelin/contracts/token/ERC20/ERC20.sol\":10466:10472  amount */\n      dup4\n        /* \"@openzeppelin/contracts/token/ERC20/ERC20.sol\":10441:10473  Approval(owner, spender, amount) */\n      mload(0x40)\n      tag_270\n      swap2\n      swap1\n      tag_39\n      jump\t// in\n    tag_270:\n      mload(0x40)\n      dup1\n      swap2\n      sub\n      swap1\n      log3\n        /* \"@openzeppelin/contracts/token/ERC20/ERC20.sol\":10110:10480  function _approve(... */\n      pop\n      pop\n      pop\n      jump\t// out\n        /* \"@openzeppelin/contracts/token/ERC20/ERC20.sol\":10761:11202  function _spendAllowance(... */\n    tag_134:\n        /* \"@openzeppelin/contracts/token/ERC20/ERC20.sol\":10891:10915  uint256 currentAllowance */\n      0x00\n        /* \"@openzeppelin/contracts/token/ERC20/ERC20.sol\":10918:10943  allowance(owner, spender) */\n      tag_272\n        /* \"@openzeppelin/contracts/token/ERC20/ERC20.sol\":10928:10933  owner */\n      dup5\n        /* \"@openzeppelin/contracts/token/ERC20/ERC20.sol\":10935:10942  spender */\n      dup5\n        /* \"@openzeppelin/contracts/token/ERC20/ERC20.sol\":10918:10927  allowance */\n      tag_105\n        /* \"@openzeppelin/contracts/token/ERC20/ERC20.sol\":10918:10943  allowance(owner, spender) */\n      jump\t// in\n    tag_272:\n        /* \"@openzeppelin/contracts/token/ERC20/ERC20.sol\":10891:10943  uint256 currentAllowance = allowance(owner, spender) */\n      swap1\n      pop\n        /* \"@openzeppelin/contracts/token/ERC20/ERC20.sol\":10977:10994  type(uint256).max */\n      0xffffffffffffffffffffffffffffffffffffffffffffffffffffffffffffffff\n        /* \"@openzeppelin/contracts/token/ERC20/ERC20.sol\":10957:10973  currentAllowance */\n      dup2\n        /* \"@openzeppelin/contracts/token/ERC20/ERC20.sol\":10957:10994  currentAllowance != type(uint256).max */\n      eq\n        /* \"@openzeppelin/contracts/token/ERC20/ERC20.sol\":10953:11196  if (currentAllowance != type(uint256).max) {... */\n      tag_273\n      jumpi\n        /* \"@openzeppelin/contracts/token/ERC20/ERC20.sol\":11038:11044  amount */\n      dup2\n        /* \"@openzeppelin/contracts/token/ERC20/ERC20.sol\":11018:11034  currentAllowance */\n      dup2\n        /* \"@openzeppelin/contracts/token/ERC20/ERC20.sol\":11018:11044  currentAllowance >= amount */\n      lt\n      iszero\n        /* \"@openzeppelin/contracts/token/ERC20/ERC20.sol\":11010:11078  require(currentAllowance >= amount, \"ERC20: insufficient allowance\") */\n      tag_274\n      jumpi\n      mload(0x40)\n      0x08c379a000000000000000000000000000000000000000000000000000000000\n      dup2\n      mstore\n      0x04\n      add\n      tag_275\n      swap1\n      tag_276\n      jump\t// in\n    tag_275:\n      mload(0x40)\n      dup1\n      swap2\n      sub\n      swap1\n      revert\n    tag_274:\n        /* \"@openzeppelin/contracts/token/ERC20/ERC20.sol\":11120:11171  _approve(owner, spender, currentAllowance - amount) */\n      tag_277\n        /* \"@openzeppelin/contracts/token/ERC20/ERC20.sol\":11129:11134  owner */\n      dup5\n        /* \"@openzeppelin/contracts/token/ERC20/ERC20.sol\":11136:11143  spender */\n      dup5\n        /* \"@openzeppelin/contracts/token/ERC20/ERC20.sol\":11164:11170  amount */\n      dup5\n        /* \"@openzeppelin/contracts/token/ERC20/ERC20.sol\":11145:11161  currentAllowance */\n      dup5\n        /* \"@openzeppelin/contracts/token/ERC20/ERC20.sol\":11145:11170  currentAllowance - amount */\n      sub\n        /* \"@openzeppelin/contracts/token/ERC20/ERC20.sol\":11120:11128  _approve */\n      tag_118\n        /* \"@openzeppelin/contracts/token/ERC20/ERC20.sol\":11120:11171  _approve(owner, spender, currentAllowance - amount) */\n      jump\t// in\n    tag_277:\n        /* \"@openzeppelin/contracts/token/ERC20/ERC20.sol\":10953:11196  if (currentAllowance != type(uint256).max) {... */\n    tag_273:\n        /* \"@openzeppelin/contracts/token/ERC20/ERC20.sol\":10881:11202  {... */\n      pop\n        /* \"@openzeppelin/contracts/token/ERC20/ERC20.sol\":10761:11202  function _spendAllowance(... */\n      pop\n      pop\n      pop\n      jump\t// out\n        /* \"@openzeppelin/contracts/token/ERC20/ERC20.sol\":7475:8126  function _transfer(... */\n    tag_136:\n        /* \"@openzeppelin/contracts/token/ERC20/ERC20.sol\":7617:7618  0 */\n      0x00\n        /* \"@openzeppelin/contracts/token/ERC20/ERC20.sol\":7601:7619  from != address(0) */\n      0xffffffffffffffffffffffffffffffffffffffff\n      and\n        /* \"@openzeppelin/contracts/token/ERC20/ERC20.sol\":7601:7605  from */\n      dup4\n        /* \"@openzeppelin/contracts/token/ERC20/ERC20.sol\":7601:7619  from != address(0) */\n      0xffffffffffffffffffffffffffffffffffffffff\n      and\n      eq\n      iszero\n        /* \"@openzeppelin/contracts/token/ERC20/ERC20.sol\":7593:7661  require(from != address(0), \"ERC20: transfer from the zero address\") */\n      tag_279\n      jumpi\n      mload(0x40)\n      0x08c379a000000000000000000000000000000000000000000000000000000000\n      dup2\n      mstore\n      0x04\n      add\n      tag_280\n      swap1\n      tag_281\n      jump\t// in\n    tag_280:\n      mload(0x40)\n      dup1\n      swap2\n      sub\n      swap1\n      revert\n    tag_279:\n        /* \"@openzeppelin/contracts/token/ERC20/ERC20.sol\":7693:7694  0 */\n      0x00\n        /* \"@openzeppelin/contracts/token/ERC20/ERC20.sol\":7679:7695  to != address(0) */\n      0xffffffffffffffffffffffffffffffffffffffff\n      and\n        /* \"@openzeppelin/contracts/token/ERC20/ERC20.sol\":7679:7681  to */\n      dup3\n        /* \"@openzeppelin/contracts/token/ERC20/ERC20.sol\":7679:7695  to != address(0) */\n      0xffffffffffffffffffffffffffffffffffffffff\n      and\n      eq\n      iszero\n        /* \"@openzeppelin/contracts/token/ERC20/ERC20.sol\":7671:7735  require(to != address(0), \"ERC20: transfer to the zero address\") */\n      tag_282\n      jumpi\n      mload(0x40)\n      0x08c379a000000000000000000000000000000000000000000000000000000000\n      dup2\n      mstore\n      0x04\n      add\n      tag_283\n      swap1\n      tag_284\n      jump\t// in\n    tag_283:\n      mload(0x40)\n      dup1\n      swap2\n      sub\n      swap1\n      revert\n    tag_282:\n        /* \"@openzeppelin/contracts/token/ERC20/ERC20.sol\":7746:7784  _beforeTokenTransfer(from, to, amount) */\n      tag_285\n        /* \"@openzeppelin/contracts/token/ERC20/ERC20.sol\":7767:7771  from */\n      dup4\n        /* \"@openzeppelin/contracts/token/ERC20/ERC20.sol\":7773:7775  to */\n      dup4\n        /* \"@openzeppelin/contracts/token/ERC20/ERC20.sol\":7777:7783  amount */\n      dup4\n        /* \"@openzeppelin/contracts/token/ERC20/ERC20.sol\":7746:7766  _beforeTokenTransfer */\n      tag_286\n        /* \"@openzeppelin/contracts/token/ERC20/ERC20.sol\":7746:7784  _beforeTokenTransfer(from, to, amount) */\n      jump\t// in\n    tag_285:\n        /* \"@openzeppelin/contracts/token/ERC20/ERC20.sol\":7795:7814  uint256 fromBalance */\n      0x00\n        /* \"@openzeppelin/contracts/token/ERC20/ERC20.sol\":7817:7826  _balances */\n      dup1\n        /* \"@openzeppelin/contracts/token/ERC20/ERC20.sol\":7817:7832  _balances[from] */\n      0x00\n        /* \"@openzeppelin/contracts/token/ERC20/ERC20.sol\":7827:7831  from */\n      dup6\n        /* \"@openzeppelin/contracts/token/ERC20/ERC20.sol\":7817:7832  _balances[from] */\n      0xffffffffffffffffffffffffffffffffffffffff\n      and\n      0xffffffffffffffffffffffffffffffffffffffff\n      and\n      dup2\n      mstore\n      0x20\n      add\n      swap1\n      dup2\n      mstore\n      0x20\n      add\n      0x00\n      keccak256\n      sload\n        /* \"@openzeppelin/contracts/token/ERC20/ERC20.sol\":7795:7832  uint256 fromBalance = _balances[from] */\n      swap1\n      pop\n        /* \"@openzeppelin/contracts/token/ERC20/ERC20.sol\":7865:7871  amount */\n      dup2\n        /* \"@openzeppelin/contracts/token/ERC20/ERC20.sol\":7850:7861  fromBalance */\n      dup2\n        /* \"@openzeppelin/contracts/token/ERC20/ERC20.sol\":7850:7871  fromBalance >= amount */\n      lt\n      iszero\n        /* \"@openzeppelin/contracts/token/ERC20/ERC20.sol\":7842:7914  require(fromBalance >= amount, \"ERC20: transfer amount exceeds balance\") */\n      tag_287\n      jumpi\n      mload(0x40)\n      0x08c379a000000000000000000000000000000000000000000000000000000000\n      dup2\n      mstore\n      0x04\n      add\n      tag_288\n      swap1\n      tag_289\n      jump\t// in\n    tag_288:\n      mload(0x40)\n      dup1\n      swap2\n      sub\n      swap1\n      revert\n    tag_287:\n        /* \"@openzeppelin/contracts/token/ERC20/ERC20.sol\":7980:7986  amount */\n      dup2\n        /* \"@openzeppelin/contracts/token/ERC20/ERC20.sol\":7966:7977  fromBalance */\n      dup2\n        /* \"@openzeppelin/contracts/token/ERC20/ERC20.sol\":7966:7986  fromBalance - amount */\n      sub\n        /* \"@openzeppelin/contracts/token/ERC20/ERC20.sol\":7948:7957  _balances */\n      0x00\n        /* \"@openzeppelin/contracts/token/ERC20/ERC20.sol\":7948:7963  _balances[from] */\n      dup1\n        /* \"@openzeppelin/contracts/token/ERC20/ERC20.sol\":7958:7962  from */\n      dup7\n        /* \"@openzeppelin/contracts/token/ERC20/ERC20.sol\":7948:7963  _balances[from] */\n      0xffffffffffffffffffffffffffffffffffffffff\n      and\n      0xffffffffffffffffffffffffffffffffffffffff\n      and\n      dup2\n      mstore\n      0x20\n      add\n      swap1\n      dup2\n      mstore\n      0x20\n      add\n      0x00\n      keccak256\n        /* \"@openzeppelin/contracts/token/ERC20/ERC20.sol\":7948:7986  _balances[from] = fromBalance - amount */\n      dup2\n      swap1\n      sstore\n      pop\n        /* \"@openzeppelin/contracts/token/ERC20/ERC20.sol\":8023:8029  amount */\n      dup2\n        /* \"@openzeppelin/contracts/token/ERC20/ERC20.sol\":8006:8015  _balances */\n      0x00\n        /* \"@openzeppelin/contracts/token/ERC20/ERC20.sol\":8006:8019  _balances[to] */\n      dup1\n        /* \"@openzeppelin/contracts/token/ERC20/ERC20.sol\":8016:8018  to */\n      dup6\n        /* \"@openzeppelin/contracts/token/ERC20/ERC20.sol\":8006:8019  _balances[to] */\n      0xffffffffffffffffffffffffffffffffffffffff\n      and\n      0xffffffffffffffffffffffffffffffffffffffff\n      and\n      dup2\n      mstore\n      0x20\n      add\n      swap1\n      dup2\n      mstore\n      0x20\n      add\n      0x00\n      keccak256\n      0x00\n        /* \"@openzeppelin/contracts/token/ERC20/ERC20.sol\":8006:8029  _balances[to] += amount */\n      dup3\n      dup3\n      sload\n      tag_290\n      swap2\n      swap1\n      tag_149\n      jump\t// in\n    tag_290:\n      swap3\n      pop\n      pop\n      dup2\n      swap1\n      sstore\n      pop\n        /* \"@openzeppelin/contracts/token/ERC20/ERC20.sol\":8060:8062  to */\n      dup3\n        /* \"@openzeppelin/contracts/token/ERC20/ERC20.sol\":8045:8071  Transfer(from, to, amount) */\n      0xffffffffffffffffffffffffffffffffffffffff\n      and\n        /* \"@openzeppelin/contracts/token/ERC20/ERC20.sol\":8054:8058  from */\n      dup5\n        /* \"@openzeppelin/contracts/token/ERC20/ERC20.sol\":8045:8071  Transfer(from, to, amount) */\n      0xffffffffffffffffffffffffffffffffffffffff\n      and\n      0xddf252ad1be2c89b69c2b068fc378daa952ba7f163c4a11628f55a4df523b3ef\n        /* \"@openzeppelin/contracts/token/ERC20/ERC20.sol\":8064:8070  amount */\n      dup5\n        /* \"@openzeppelin/contracts/token/ERC20/ERC20.sol\":8045:8071  Transfer(from, to, amount) */\n      mload(0x40)\n      tag_291\n      swap2\n      swap1\n      tag_39\n      jump\t// in\n    tag_291:\n      mload(0x40)\n      dup1\n      swap2\n      sub\n      swap1\n      log3\n        /* \"@openzeppelin/contracts/token/ERC20/ERC20.sol\":8082:8119  _afterTokenTransfer(from, to, amount) */\n      tag_292\n        /* \"@openzeppelin/contracts/token/ERC20/ERC20.sol\":8102:8106  from */\n      dup5\n        /* \"@openzeppelin/contracts/token/ERC20/ERC20.sol\":8108:8110  to */\n      dup5\n        /* \"@openzeppelin/contracts/token/ERC20/ERC20.sol\":8112:8118  amount */\n      dup5\n        /* \"@openzeppelin/contracts/token/ERC20/ERC20.sol\":8082:8101  _afterTokenTransfer */\n      tag_293\n        /* \"@openzeppelin/contracts/token/ERC20/ERC20.sol\":8082:8119  _afterTokenTransfer(from, to, amount) */\n      jump\t// in\n    tag_292:\n        /* \"@openzeppelin/contracts/token/ERC20/ERC20.sol\":7583:8126  {... */\n      pop\n        /* \"@openzeppelin/contracts/token/ERC20/ERC20.sol\":7475:8126  function _transfer(... */\n      pop\n      pop\n      pop\n      jump\t// out\n        /* \"@openzeppelin/contracts/token/ERC20/ERC20.sol\":8402:8791  function _mint(address account, uint256 amount) internal virtual {... */\n    tag_186:\n        /* \"@openzeppelin/contracts/token/ERC20/ERC20.sol\":8504:8505  0 */\n      0x00\n        /* \"@openzeppelin/contracts/token/ERC20/ERC20.sol\":8485:8506  account != address(0) */\n      0xffffffffffffffffffffffffffffffffffffffff\n      and\n        /* \"@openzeppelin/contracts/token/ERC20/ERC20.sol\":8485:8492  account */\n      dup3\n        /* \"@openzeppelin/contracts/token/ERC20/ERC20.sol\":8485:8506  account != address(0) */\n      0xffffffffffffffffffffffffffffffffffffffff\n      and\n      eq\n      iszero\n        /* \"@openzeppelin/contracts/token/ERC20/ERC20.sol\":8477:8542  require(account != address(0), \"ERC20: mint to the zero address\") */\n      tag_295\n      jumpi\n      mload(0x40)\n      0x08c379a000000000000000000000000000000000000000000000000000000000\n      dup2\n      mstore\n      0x04\n      add\n      tag_296\n      swap1\n      tag_297\n      jump\t// in\n    tag_296:\n      mload(0x40)\n      dup1\n      swap2\n      sub\n      swap1\n      revert\n    tag_295:\n        /* \"@openzeppelin/contracts/token/ERC20/ERC20.sol\":8553:8602  _beforeTokenTransfer(address(0), account, amount) */\n      tag_298\n        /* \"@openzeppelin/contracts/token/ERC20/ERC20.sol\":8582:8583  0 */\n      0x00\n        /* \"@openzeppelin/contracts/token/ERC20/ERC20.sol\":8586:8593  account */\n      dup4\n        /* \"@openzeppelin/contracts/token/ERC20/ERC20.sol\":8595:8601  amount */\n      dup4\n        /* \"@openzeppelin/contracts/token/ERC20/ERC20.sol\":8553:8573  _beforeTokenTransfer */\n      tag_286\n        /* \"@openzeppelin/contracts/token/ERC20/ERC20.sol\":8553:8602  _beforeTokenTransfer(address(0), account, amount) */\n      jump\t// in\n    tag_298:\n        /* \"@openzeppelin/contracts/token/ERC20/ERC20.sol\":8629:8635  amount */\n      dup1\n        /* \"@openzeppelin/contracts/token/ERC20/ERC20.sol\":8613:8625  _totalSupply */\n      0x02\n      0x00\n        /* \"@openzeppelin/contracts/token/ERC20/ERC20.sol\":8613:8635  _totalSupply += amount */\n      dup3\n      dup3\n      sload\n      tag_299\n      swap2\n      swap1\n      tag_149\n      jump\t// in\n    tag_299:\n      swap3\n      pop\n      pop\n      dup2\n      swap1\n      sstore\n      pop\n        /* \"@openzeppelin/contracts/token/ERC20/ERC20.sol\":8667:8673  amount */\n      dup1\n        /* \"@openzeppelin/contracts/token/ERC20/ERC20.sol\":8645:8654  _balances */\n      0x00\n        /* \"@openzeppelin/contracts/token/ERC20/ERC20.sol\":8645:8663  _balances[account] */\n      dup1\n        /* \"@openzeppelin/contracts/token/ERC20/ERC20.sol\":8655:8662  account */\n      dup5\n        /* \"@openzeppelin/contracts/token/ERC20/ERC20.sol\":8645:8663  _balances[account] */\n      0xffffffffffffffffffffffffffffffffffffffff\n      and\n      0xffffffffffffffffffffffffffffffffffffffff\n      and\n      dup2\n      mstore\n      0x20\n      add\n      swap1\n      dup2\n      mstore\n      0x20\n      add\n      0x00\n      keccak256\n      0x00\n        /* \"@openzeppelin/contracts/token/ERC20/ERC20.sol\":8645:8673  _balances[account] += amount */\n      dup3\n      dup3\n      sload\n      tag_300\n      swap2\n      swap1\n      tag_149\n      jump\t// in\n    tag_300:\n      swap3\n      pop\n      pop\n      dup2\n      swap1\n      sstore\n      pop\n        /* \"@openzeppelin/contracts/token/ERC20/ERC20.sol\":8709:8716  account */\n      dup2\n        /* \"@openzeppelin/contracts/token/ERC20/ERC20.sol\":8688:8725  Transfer(address(0), account, amount) */\n      0xffffffffffffffffffffffffffffffffffffffff\n      and\n        /* \"@openzeppelin/contracts/token/ERC20/ERC20.sol\":8705:8706  0 */\n      0x00\n        /* \"@openzeppelin/contracts/token/ERC20/ERC20.sol\":8688:8725  Transfer(address(0), account, amount) */\n      0xffffffffffffffffffffffffffffffffffffffff\n      and\n      0xddf252ad1be2c89b69c2b068fc378daa952ba7f163c4a11628f55a4df523b3ef\n        /* \"@openzeppelin/contracts/token/ERC20/ERC20.sol\":8718:8724  amount */\n      dup4\n        /* \"@openzeppelin/contracts/token/ERC20/ERC20.sol\":8688:8725  Transfer(address(0), account, amount) */\n      mload(0x40)\n      tag_301\n      swap2\n      swap1\n      tag_39\n      jump\t// in\n    tag_301:\n      mload(0x40)\n      dup1\n      swap2\n      sub\n      swap1\n      log3\n        /* \"@openzeppelin/contracts/token/ERC20/ERC20.sol\":8736:8784  _afterTokenTransfer(address(0), account, amount) */\n      tag_302\n        /* \"@openzeppelin/contracts/token/ERC20/ERC20.sol\":8764:8765  0 */\n      0x00\n        /* \"@openzeppelin/contracts/token/ERC20/ERC20.sol\":8768:8775  account */\n      dup4\n        /* \"@openzeppelin/contracts/token/ERC20/ERC20.sol\":8777:8783  amount */\n      dup4\n        /* \"@openzeppelin/contracts/token/ERC20/ERC20.sol\":8736:8755  _afterTokenTransfer */\n      tag_293\n        /* \"@openzeppelin/contracts/token/ERC20/ERC20.sol\":8736:8784  _afterTokenTransfer(address(0), account, amount) */\n      jump\t// in\n    tag_302:\n        /* \"@openzeppelin/contracts/token/ERC20/ERC20.sol\":8402:8791  function _mint(address account, uint256 amount) internal virtual {... */\n      pop\n      pop\n      jump\t// out\n        /* \"@openzeppelin/contracts/token/ERC20/ERC20.sol\":11786:11907  function _beforeTokenTransfer(... */\n    tag_286:\n      pop\n      pop\n      pop\n      jump\t// out\n        /* \"@openzeppelin/contracts/token/ERC20/ERC20.sol\":12495:12615  function _afterTokenTransfer(... */\n    tag_293:\n      pop\n      pop\n      pop\n      jump\t// out\n    tag_128:\n      dup3\n      dup1\n      sload\n      tag_305\n      swap1\n      tag_109\n      jump\t// in\n    tag_305:\n      swap1\n      0x00\n      mstore\n      keccak256(0x00, 0x20)\n      swap1\n      0x1f\n      add\n      0x20\n      swap1\n      div\n      dup2\n      add\n      swap3\n      dup3\n      tag_307\n      jumpi\n      0x00\n      dup6\n      sstore\n      jump(tag_306)\n    tag_307:\n      dup3\n      0x1f\n      lt\n      tag_308\n      jumpi\n      dup1\n      mload\n      not(0xff)\n      and\n      dup4\n      dup1\n      add\n      or\n      dup6\n      sstore\n      jump(tag_306)\n    tag_308:\n      dup3\n      dup1\n      add\n      0x01\n      add\n      dup6\n      sstore\n      dup3\n      iszero\n      tag_306\n      jumpi\n      swap2\n      dup3\n      add\n    tag_309:\n      dup3\n      dup2\n      gt\n      iszero\n      tag_310\n      jumpi\n      dup3\n      mload\n      dup3\n      sstore\n      swap2\n      0x20\n      add\n      swap2\n      swap1\n      0x01\n      add\n      swap1\n      jump(tag_309)\n    tag_310:\n    tag_306:\n      pop\n      swap1\n      pop\n      tag_311\n      swap2\n      swap1\n      tag_312\n      jump\t// in\n    tag_311:\n      pop\n      swap1\n      jump\t// out\n    tag_312:\n    tag_313:\n      dup1\n      dup3\n      gt\n      iszero\n      tag_314\n      jumpi\n      0x00\n      dup2\n      0x00\n      swap1\n      sstore\n      pop\n      0x01\n      add\n      jump(tag_313)\n    tag_314:\n      pop\n      swap1\n      jump\t// out\n        /* \"#utility.yul\":7:146   */\n    tag_316:\n        /* \"#utility.yul\":53:58   */\n      0x00\n        /* \"#utility.yul\":91:97   */\n      dup2\n        /* \"#utility.yul\":78:98   */\n      calldataload\n        /* \"#utility.yul\":69:98   */\n      swap1\n      pop\n        /* \"#utility.yul\":107:140   */\n      tag_318\n        /* \"#utility.yul\":134:139   */\n      dup2\n        /* \"#utility.yul\":107:140   */\n      tag_319\n      jump\t// in\n    tag_318:\n        /* \"#utility.yul\":7:146   */\n      swap3\n      swap2\n      pop\n      pop\n      jump\t// out\n        /* \"#utility.yul\":152:291   */\n    tag_320:\n        /* \"#utility.yul\":198:203   */\n      0x00\n        /* \"#utility.yul\":236:242   */\n      dup2\n        /* \"#utility.yul\":223:243   */\n      calldataload\n        /* \"#utility.yul\":214:243   */\n      swap1\n      pop\n        /* \"#utility.yul\":252:285   */\n      tag_322\n        /* \"#utility.yul\":279:284   */\n      dup2\n        /* \"#utility.yul\":252:285   */\n      tag_323\n      jump\t// in\n    tag_322:\n        /* \"#utility.yul\":152:291   */\n      swap3\n      swap2\n      pop\n      pop\n      jump\t// out\n        /* \"#utility.yul\":297:626   */\n    tag_66:\n        /* \"#utility.yul\":356:362   */\n      0x00\n        /* \"#utility.yul\":405:407   */\n      0x20\n        /* \"#utility.yul\":393:402   */\n      dup3\n        /* \"#utility.yul\":384:391   */\n      dup5\n        /* \"#utility.yul\":380:403   */\n      sub\n        /* \"#utility.yul\":376:408   */\n      slt\n        /* \"#utility.yul\":373:492   */\n      iszero\n      tag_325\n      jumpi\n        /* \"#utility.yul\":411:490   */\n      tag_326\n      tag_327\n      jump\t// in\n    tag_326:\n        /* \"#utility.yul\":373:492   */\n    tag_325:\n        /* \"#utility.yul\":531:532   */\n      0x00\n        /* \"#utility.yul\":556:609   */\n      tag_328\n        /* \"#utility.yul\":601:608   */\n      dup5\n        /* \"#utility.yul\":592:598   */\n      dup3\n        /* \"#utility.yul\":581:590   */\n      dup6\n        /* \"#utility.yul\":577:599   */\n      add\n        /* \"#utility.yul\":556:609   */\n      tag_316\n      jump\t// in\n    tag_328:\n        /* \"#utility.yul\":546:609   */\n      swap2\n      pop\n        /* \"#utility.yul\":502:619   */\n      pop\n        /* \"#utility.yul\":297:626   */\n      swap3\n      swap2\n      pop\n      pop\n      jump\t// out\n        /* \"#utility.yul\":632:1106   */\n    tag_104:\n        /* \"#utility.yul\":700:706   */\n      0x00\n        /* \"#utility.yul\":708:714   */\n      dup1\n        /* \"#utility.yul\":757:759   */\n      0x40\n        /* \"#utility.yul\":745:754   */\n      dup4\n        /* \"#utility.yul\":736:743   */\n      dup6\n        /* \"#utility.yul\":732:755   */\n      sub\n        /* \"#utility.yul\":728:760   */\n      slt\n        /* \"#utility.yul\":725:844   */\n      iszero\n      tag_330\n      jumpi\n        /* \"#utility.yul\":763:842   */\n      tag_331\n      tag_327\n      jump\t// in\n    tag_331:\n        /* \"#utility.yul\":725:844   */\n    tag_330:\n        /* \"#utility.yul\":883:884   */\n      0x00\n        /* \"#utility.yul\":908:961   */\n      tag_332\n        /* \"#utility.yul\":953:960   */\n      dup6\n        /* \"#utility.yul\":944:950   */\n      dup3\n        /* \"#utility.yul\":933:942   */\n      dup7\n        /* \"#utility.yul\":929:951   */\n      add\n        /* \"#utility.yul\":908:961   */\n      tag_316\n      jump\t// in\n    tag_332:\n        /* \"#utility.yul\":898:961   */\n      swap3\n      pop\n        /* \"#utility.yul\":854:971   */\n      pop\n        /* \"#utility.yul\":1010:1012   */\n      0x20\n        /* \"#utility.yul\":1036:1089   */\n      tag_333\n        /* \"#utility.yul\":1081:1088   */\n      dup6\n        /* \"#utility.yul\":1072:1078   */\n      dup3\n        /* \"#utility.yul\":1061:1070   */\n      dup7\n        /* \"#utility.yul\":1057:1079   */\n      add\n        /* \"#utility.yul\":1036:1089   */\n      tag_316\n      jump\t// in\n    tag_333:\n        /* \"#utility.yul\":1026:1089   */\n      swap2\n      pop\n        /* \"#utility.yul\":981:1099   */\n      pop\n        /* \"#utility.yul\":632:1106   */\n      swap3\n      pop\n      swap3\n      swap1\n      pop\n      jump\t// out\n        /* \"#utility.yul\":1112:1731   */\n    tag_47:\n        /* \"#utility.yul\":1189:1195   */\n      0x00\n        /* \"#utility.yul\":1197:1203   */\n      dup1\n        /* \"#utility.yul\":1205:1211   */\n      0x00\n        /* \"#utility.yul\":1254:1256   */\n      0x60\n        /* \"#utility.yul\":1242:1251   */\n      dup5\n        /* \"#utility.yul\":1233:1240   */\n      dup7\n        /* \"#utility.yul\":1229:1252   */\n      sub\n        /* \"#utility.yul\":1225:1257   */\n      slt\n        /* \"#utility.yul\":1222:1341   */\n      iszero\n      tag_335\n      jumpi\n        /* \"#utility.yul\":1260:1339   */\n      tag_336\n      tag_327\n      jump\t// in\n    tag_336:\n        /* \"#utility.yul\":1222:1341   */\n    tag_335:\n        /* \"#utility.yul\":1380:1381   */\n      0x00\n        /* \"#utility.yul\":1405:1458   */\n      tag_337\n        /* \"#utility.yul\":1450:1457   */\n      dup7\n        /* \"#utility.yul\":1441:1447   */\n      dup3\n        /* \"#utility.yul\":1430:1439   */\n      dup8\n        /* \"#utility.yul\":1426:1448   */\n      add\n        /* \"#utility.yul\":1405:1458   */\n      tag_316\n      jump\t// in\n    tag_337:\n        /* \"#utility.yul\":1395:1458   */\n      swap4\n      pop\n        /* \"#utility.yul\":1351:1468   */\n      pop\n        /* \"#utility.yul\":1507:1509   */\n      0x20\n        /* \"#utility.yul\":1533:1586   */\n      tag_338\n        /* \"#utility.yul\":1578:1585   */\n      dup7\n        /* \"#utility.yul\":1569:1575   */\n      dup3\n        /* \"#utility.yul\":1558:1567   */\n      dup8\n        /* \"#utility.yul\":1554:1576   */\n      add\n        /* \"#utility.yul\":1533:1586   */\n      tag_316\n      jump\t// in\n    tag_338:\n        /* \"#utility.yul\":1523:1586   */\n      swap3\n      pop\n        /* \"#utility.yul\":1478:1596   */\n      pop\n        /* \"#utility.yul\":1635:1637   */\n      0x40\n        /* \"#utility.yul\":1661:1714   */\n      tag_339\n        /* \"#utility.yul\":1706:1713   */\n      dup7\n        /* \"#utility.yul\":1697:1703   */\n      dup3\n        /* \"#utility.yul\":1686:1695   */\n      dup8\n        /* \"#utility.yul\":1682:1704   */\n      add\n        /* \"#utility.yul\":1661:1714   */\n      tag_320\n      jump\t// in\n    tag_339:\n        /* \"#utility.yul\":1651:1714   */\n      swap2\n      pop\n        /* \"#utility.yul\":1606:1724   */\n      pop\n        /* \"#utility.yul\":1112:1731   */\n      swap3\n      pop\n      swap3\n      pop\n      swap3\n      jump\t// out\n        /* \"#utility.yul\":1737:2211   */\n    tag_32:\n        /* \"#utility.yul\":1805:1811   */\n      0x00\n        /* \"#utility.yul\":1813:1819   */\n      dup1\n        /* \"#utility.yul\":1862:1864   */\n      0x40\n        /* \"#utility.yul\":1850:1859   */\n      dup4\n        /* \"#utility.yul\":1841:1848   */\n      dup6\n        /* \"#utility.yul\":1837:1860   */\n      sub\n        /* \"#utility.yul\":1833:1865   */\n      slt\n        /* \"#utility.yul\":1830:1949   */\n      iszero\n      tag_341\n      jumpi\n        /* \"#utility.yul\":1868:1947   */\n      tag_342\n      tag_327\n      jump\t// in\n    tag_342:\n        /* \"#utility.yul\":1830:1949   */\n    tag_341:\n        /* \"#utility.yul\":1988:1989   */\n      0x00\n        /* \"#utility.yul\":2013:2066   */\n      tag_343\n        /* \"#utility.yul\":2058:2065   */\n      dup6\n        /* \"#utility.yul\":2049:2055   */\n      dup3\n        /* \"#utility.yul\":2038:2047   */\n      dup7\n        /* \"#utility.yul\":2034:2056   */\n      add\n        /* \"#utility.yul\":2013:2066   */\n      tag_316\n      jump\t// in\n    tag_343:\n        /* \"#utility.yul\":2003:2066   */\n      swap3\n      pop\n        /* \"#utility.yul\":1959:2076   */\n      pop\n        /* \"#utility.yul\":2115:2117   */\n      0x20\n        /* \"#utility.yul\":2141:2194   */\n      tag_344\n        /* \"#utility.yul\":2186:2193   */\n      dup6\n        /* \"#utility.yul\":2177:2183   */\n      dup3\n        /* \"#utility.yul\":2166:2175   */\n      dup7\n        /* \"#utility.yul\":2162:2184   */\n      add\n        /* \"#utility.yul\":2141:2194   */\n      tag_320\n      jump\t// in\n    tag_344:\n        /* \"#utility.yul\":2131:2194   */\n      swap2\n      pop\n        /* \"#utility.yul\":2086:2204   */\n      pop\n        /* \"#utility.yul\":1737:2211   */\n      swap3\n      pop\n      swap3\n      swap1\n      pop\n      jump\t// out\n        /* \"#utility.yul\":2217:2546   */\n    tag_42:\n        /* \"#utility.yul\":2276:2282   */\n      0x00\n        /* \"#utility.yul\":2325:2327   */\n      0x20\n        /* \"#utility.yul\":2313:2322   */\n      dup3\n        /* \"#utility.yul\":2304:2311   */\n      dup5\n        /* \"#utility.yul\":2300:2323   */\n      sub\n        /* \"#utility.yul\":2296:2328   */\n      slt\n        /* \"#utility.yul\":2293:2412   */\n      iszero\n      tag_346\n      jumpi\n        /* \"#utility.yul\":2331:2410   */\n      tag_347\n      tag_327\n      jump\t// in\n    tag_347:\n        /* \"#utility.yul\":2293:2412   */\n    tag_346:\n        /* \"#utility.yul\":2451:2452   */\n      0x00\n        /* \"#utility.yul\":2476:2529   */\n      tag_348\n        /* \"#utility.yul\":2521:2528   */\n      dup5\n        /* \"#utility.yul\":2512:2518   */\n      dup3\n        /* \"#utility.yul\":2501:2510   */\n      dup6\n        /* \"#utility.yul\":2497:2519   */\n      add\n        /* \"#utility.yul\":2476:2529   */\n      tag_320\n      jump\t// in\n    tag_348:\n        /* \"#utility.yul\":2466:2529   */\n      swap2\n      pop\n        /* \"#utility.yul\":2422:2539   */\n      pop\n        /* \"#utility.yul\":2217:2546   */\n      swap3\n      swap2\n      pop\n      pop\n      jump\t// out\n        /* \"#utility.yul\":2552:3171   */\n    tag_84:\n        /* \"#utility.yul\":2629:2635   */\n      0x00\n        /* \"#utility.yul\":2637:2643   */\n      dup1\n        /* \"#utility.yul\":2645:2651   */\n      0x00\n        /* \"#utility.yul\":2694:2696   */\n      0x60\n        /* \"#utility.yul\":2682:2691   */\n      dup5\n        /* \"#utility.yul\":2673:2680   */\n      dup7\n        /* \"#utility.yul\":2669:2692   */\n      sub\n        /* \"#utility.yul\":2665:2697   */\n      slt\n        /* \"#utility.yul\":2662:2781   */\n      iszero\n      tag_350\n      jumpi\n        /* \"#utility.yul\":2700:2779   */\n      tag_351\n      tag_327\n      jump\t// in\n    tag_351:\n        /* \"#utility.yul\":2662:2781   */\n    tag_350:\n        /* \"#utility.yul\":2820:2821   */\n      0x00\n        /* \"#utility.yul\":2845:2898   */\n      tag_352\n        /* \"#utility.yul\":2890:2897   */\n      dup7\n        /* \"#utility.yul\":2881:2887   */\n      dup3\n        /* \"#utility.yul\":2870:2879   */\n      dup8\n        /* \"#utility.yul\":2866:2888   */\n      add\n        /* \"#utility.yul\":2845:2898   */\n      tag_320\n      jump\t// in\n    tag_352:\n        /* \"#utility.yul\":2835:2898   */\n      swap4\n      pop\n        /* \"#utility.yul\":2791:2908   */\n      pop\n        /* \"#utility.yul\":2947:2949   */\n      0x20\n        /* \"#utility.yul\":2973:3026   */\n      tag_353\n        /* \"#utility.yul\":3018:3025   */\n      dup7\n        /* \"#utility.yul\":3009:3015   */\n      dup3\n        /* \"#utility.yul\":2998:3007   */\n      dup8\n        /* \"#utility.yul\":2994:3016   */\n      add\n        /* \"#utility.yul\":2973:3026   */\n      tag_320\n      jump\t// in\n    tag_353:\n        /* \"#utility.yul\":2963:3026   */\n      swap3\n      pop\n        /* \"#utility.yul\":2918:3036   */\n      pop\n        /* \"#utility.yul\":3075:3077   */\n      0x40\n        /* \"#utility.yul\":3101:3154   */\n      tag_354\n        /* \"#utility.yul\":3146:3153   */\n      dup7\n        /* \"#utility.yul\":3137:3143   */\n      dup3\n        /* \"#utility.yul\":3126:3135   */\n      dup8\n        /* \"#utility.yul\":3122:3144   */\n      add\n        /* \"#utility.yul\":3101:3154   */\n      tag_320\n      jump\t// in\n    tag_354:\n        /* \"#utility.yul\":3091:3154   */\n      swap2\n      pop\n        /* \"#utility.yul\":3046:3164   */\n      pop\n        /* \"#utility.yul\":2552:3171   */\n      swap3\n      pop\n      swap3\n      pop\n      swap3\n      jump\t// out\n        /* \"#utility.yul\":3177:3295   */\n    tag_355:\n        /* \"#utility.yul\":3264:3288   */\n      tag_357\n        /* \"#utility.yul\":3282:3287   */\n      dup2\n        /* \"#utility.yul\":3264:3288   */\n      tag_358\n      jump\t// in\n    tag_357:\n        /* \"#utility.yul\":3259:3262   */\n      dup3\n        /* \"#utility.yul\":3252:3289   */\n      mstore\n        /* \"#utility.yul\":3177:3295   */\n      pop\n      pop\n      jump\t// out\n        /* \"#utility.yul\":3301:3458   */\n    tag_359:\n        /* \"#utility.yul\":3406:3451   */\n      tag_361\n        /* \"#utility.yul\":3426:3450   */\n      tag_362\n        /* \"#utility.yul\":3444:3449   */\n      dup3\n        /* \"#utility.yul\":3426:3450   */\n      tag_358\n      jump\t// in\n    tag_362:\n        /* \"#utility.yul\":3406:3451   */\n      tag_363\n      jump\t// in\n    tag_361:\n        /* \"#utility.yul\":3401:3404   */\n      dup3\n        /* \"#utility.yul\":3394:3452   */\n      mstore\n        /* \"#utility.yul\":3301:3458   */\n      pop\n      pop\n      jump\t// out\n        /* \"#utility.yul\":3464:3573   */\n    tag_364:\n        /* \"#utility.yul\":3545:3566   */\n      tag_366\n        /* \"#utility.yul\":3560:3565   */\n      dup2\n        /* \"#utility.yul\":3545:3566   */\n      tag_367\n      jump\t// in\n    tag_366:\n        /* \"#utility.yul\":3540:3543   */\n      dup3\n        /* \"#utility.yul\":3533:3567   */\n      mstore\n        /* \"#utility.yul\":3464:3573   */\n      pop\n      pop\n      jump\t// out\n        /* \"#utility.yul\":3579:3943   */\n    tag_368:\n        /* \"#utility.yul\":3667:3670   */\n      0x00\n        /* \"#utility.yul\":3695:3734   */\n      tag_370\n        /* \"#utility.yul\":3728:3733   */\n      dup3\n        /* \"#utility.yul\":3695:3734   */\n      tag_371\n      jump\t// in\n    tag_370:\n        /* \"#utility.yul\":3750:3821   */\n      tag_372\n        /* \"#utility.yul\":3814:3820   */\n      dup2\n        /* \"#utility.yul\":3809:3812   */\n      dup6\n        /* \"#utility.yul\":3750:3821   */\n      tag_373\n      jump\t// in\n    tag_372:\n        /* \"#utility.yul\":3743:3821   */\n      swap4\n      pop\n        /* \"#utility.yul\":3830:3882   */\n      tag_374\n        /* \"#utility.yul\":3875:3881   */\n      dup2\n        /* \"#utility.yul\":3870:3873   */\n      dup6\n        /* \"#utility.yul\":3863:3867   */\n      0x20\n        /* \"#utility.yul\":3856:3861   */\n      dup7\n        /* \"#utility.yul\":3852:3868   */\n      add\n        /* \"#utility.yul\":3830:3882   */\n      tag_375\n      jump\t// in\n    tag_374:\n        /* \"#utility.yul\":3907:3936   */\n      tag_376\n        /* \"#utility.yul\":3929:3935   */\n      dup2\n        /* \"#utility.yul\":3907:3936   */\n      tag_377\n      jump\t// in\n    tag_376:\n        /* \"#utility.yul\":3902:3905   */\n      dup5\n        /* \"#utility.yul\":3898:3937   */\n      add\n        /* \"#utility.yul\":3891:3937   */\n      swap2\n      pop\n        /* \"#utility.yul\":3671:3943   */\n      pop\n        /* \"#utility.yul\":3579:3943   */\n      swap3\n      swap2\n      pop\n      pop\n      jump\t// out\n        /* \"#utility.yul\":3949:4326   */\n    tag_378:\n        /* \"#utility.yul\":4055:4058   */\n      0x00\n        /* \"#utility.yul\":4083:4122   */\n      tag_380\n        /* \"#utility.yul\":4116:4121   */\n      dup3\n        /* \"#utility.yul\":4083:4122   */\n      tag_371\n      jump\t// in\n    tag_380:\n        /* \"#utility.yul\":4138:4227   */\n      tag_381\n        /* \"#utility.yul\":4220:4226   */\n      dup2\n        /* \"#utility.yul\":4215:4218   */\n      dup6\n        /* \"#utility.yul\":4138:4227   */\n      tag_382\n      jump\t// in\n    tag_381:\n        /* \"#utility.yul\":4131:4227   */\n      swap4\n      pop\n        /* \"#utility.yul\":4236:4288   */\n      tag_383\n        /* \"#utility.yul\":4281:4287   */\n      dup2\n        /* \"#utility.yul\":4276:4279   */\n      dup6\n        /* \"#utility.yul\":4269:4273   */\n      0x20\n        /* \"#utility.yul\":4262:4267   */\n      dup7\n        /* \"#utility.yul\":4258:4274   */\n      add\n        /* \"#utility.yul\":4236:4288   */\n      tag_375\n      jump\t// in\n    tag_383:\n        /* \"#utility.yul\":4313:4319   */\n      dup1\n        /* \"#utility.yul\":4308:4311   */\n      dup5\n        /* \"#utility.yul\":4304:4320   */\n      add\n        /* \"#utility.yul\":4297:4320   */\n      swap2\n      pop\n        /* \"#utility.yul\":4059:4326   */\n      pop\n        /* \"#utility.yul\":3949:4326   */\n      swap3\n      swap2\n      pop\n      pop\n      jump\t// out\n        /* \"#utility.yul\":4356:5201   */\n    tag_384:\n        /* \"#utility.yul\":4459:4462   */\n      0x00\n        /* \"#utility.yul\":4496:4501   */\n      dup2\n        /* \"#utility.yul\":4490:4502   */\n      sload\n        /* \"#utility.yul\":4525:4561   */\n      tag_386\n        /* \"#utility.yul\":4551:4560   */\n      dup2\n        /* \"#utility.yul\":4525:4561   */\n      tag_109\n      jump\t// in\n    tag_386:\n        /* \"#utility.yul\":4577:4666   */\n      tag_387\n        /* \"#utility.yul\":4659:4665   */\n      dup2\n        /* \"#utility.yul\":4654:4657   */\n      dup7\n        /* \"#utility.yul\":4577:4666   */\n      tag_382\n      jump\t// in\n    tag_387:\n        /* \"#utility.yul\":4570:4666   */\n      swap5\n      pop\n        /* \"#utility.yul\":4697:4698   */\n      0x01\n        /* \"#utility.yul\":4686:4695   */\n      dup3\n        /* \"#utility.yul\":4682:4699   */\n      and\n        /* \"#utility.yul\":4713:4714   */\n      0x00\n        /* \"#utility.yul\":4708:4845   */\n      dup2\n      eq\n      tag_389\n      jumpi\n        /* \"#utility.yul\":4859:4860   */\n      0x01\n        /* \"#utility.yul\":4854:5195   */\n      dup2\n      eq\n      tag_390\n      jumpi\n        /* \"#utility.yul\":4675:5195   */\n      jump(tag_388)\n        /* \"#utility.yul\":4708:4845   */\n    tag_389:\n        /* \"#utility.yul\":4792:4796   */\n      0xff\n        /* \"#utility.yul\":4788:4797   */\n      not\n        /* \"#utility.yul\":4777:4786   */\n      dup4\n        /* \"#utility.yul\":4773:4798   */\n      and\n        /* \"#utility.yul\":4768:4771   */\n      dup7\n        /* \"#utility.yul\":4761:4799   */\n      mstore\n        /* \"#utility.yul\":4828:4834   */\n      dup2\n        /* \"#utility.yul\":4823:4826   */\n      dup7\n        /* \"#utility.yul\":4819:4835   */\n      add\n        /* \"#utility.yul\":4812:4835   */\n      swap4\n      pop\n        /* \"#utility.yul\":4708:4845   */\n      jump(tag_388)\n        /* \"#utility.yul\":4854:5195   */\n    tag_390:\n        /* \"#utility.yul\":4921:4959   */\n      tag_391\n        /* \"#utility.yul\":4953:4958   */\n      dup6\n        /* \"#utility.yul\":4921:4959   */\n      tag_392\n      jump\t// in\n    tag_391:\n        /* \"#utility.yul\":4981:4982   */\n      0x00\n        /* \"#utility.yul\":4995:5149   */\n    tag_393:\n        /* \"#utility.yul\":5009:5015   */\n      dup4\n        /* \"#utility.yul\":5006:5007   */\n      dup2\n        /* \"#utility.yul\":5003:5016   */\n      lt\n        /* \"#utility.yul\":4995:5149   */\n      iszero\n      tag_395\n      jumpi\n        /* \"#utility.yul\":5083:5090   */\n      dup2\n        /* \"#utility.yul\":5077:5091   */\n      sload\n        /* \"#utility.yul\":5073:5074   */\n      dup2\n        /* \"#utility.yul\":5068:5071   */\n      dup10\n        /* \"#utility.yul\":5064:5075   */\n      add\n        /* \"#utility.yul\":5057:5092   */\n      mstore\n        /* \"#utility.yul\":5133:5134   */\n      0x01\n        /* \"#utility.yul\":5124:5131   */\n      dup3\n        /* \"#utility.yul\":5120:5135   */\n      add\n        /* \"#utility.yul\":5109:5135   */\n      swap2\n      pop\n        /* \"#utility.yul\":5031:5035   */\n      0x20\n        /* \"#utility.yul\":5028:5029   */\n      dup2\n        /* \"#utility.yul\":5024:5036   */\n      add\n        /* \"#utility.yul\":5019:5036   */\n      swap1\n      pop\n        /* \"#utility.yul\":4995:5149   */\n      jump(tag_393)\n    tag_395:\n        /* \"#utility.yul\":5178:5184   */\n      dup4\n        /* \"#utility.yul\":5173:5176   */\n      dup9\n        /* \"#utility.yul\":5169:5185   */\n      add\n        /* \"#utility.yul\":5162:5185   */\n      swap6\n      pop\n        /* \"#utility.yul\":4861:5195   */\n      pop\n      pop\n        /* \"#utility.yul\":4675:5195   */\n    tag_388:\n      pop\n        /* \"#utility.yul\":4463:5201   */\n      pop\n      pop\n        /* \"#utility.yul\":4356:5201   */\n      swap3\n      swap2\n      pop\n      pop\n      jump\t// out\n        /* \"#utility.yul\":5207:5573   */\n    tag_396:\n        /* \"#utility.yul\":5349:5352   */\n      0x00\n        /* \"#utility.yul\":5370:5437   */\n      tag_398\n        /* \"#utility.yul\":5434:5436   */\n      0x23\n        /* \"#utility.yul\":5429:5432   */\n      dup4\n        /* \"#utility.yul\":5370:5437   */\n      tag_373\n      jump\t// in\n    tag_398:\n        /* \"#utility.yul\":5363:5437   */\n      swap2\n      pop\n        /* \"#utility.yul\":5446:5539   */\n      tag_399\n        /* \"#utility.yul\":5535:5538   */\n      dup3\n        /* \"#utility.yul\":5446:5539   */\n      tag_400\n      jump\t// in\n    tag_399:\n        /* \"#utility.yul\":5564:5566   */\n      0x40\n        /* \"#utility.yul\":5559:5562   */\n      dup3\n        /* \"#utility.yul\":5555:5567   */\n      add\n        /* \"#utility.yul\":5548:5567   */\n      swap1\n      pop\n        /* \"#utility.yul\":5207:5573   */\n      swap2\n      swap1\n      pop\n      jump\t// out\n        /* \"#utility.yul\":5579:5945   */\n    tag_401:\n        /* \"#utility.yul\":5721:5724   */\n      0x00\n        /* \"#utility.yul\":5742:5809   */\n      tag_403\n        /* \"#utility.yul\":5806:5808   */\n      0x22\n        /* \"#utility.yul\":5801:5804   */\n      dup4\n        /* \"#utility.yul\":5742:5809   */\n      tag_373\n      jump\t// in\n    tag_403:\n        /* \"#utility.yul\":5735:5809   */\n      swap2\n      pop\n        /* \"#utility.yul\":5818:5911   */\n      tag_404\n        /* \"#utility.yul\":5907:5910   */\n      dup3\n        /* \"#utility.yul\":5818:5911   */\n      tag_405\n      jump\t// in\n    tag_404:\n        /* \"#utility.yul\":5936:5938   */\n      0x40\n        /* \"#utility.yul\":5931:5934   */\n      dup3\n        /* \"#utility.yul\":5927:5939   */\n      add\n        /* \"#utility.yul\":5920:5939   */\n      swap1\n      pop\n        /* \"#utility.yul\":5579:5945   */\n      swap2\n      swap1\n      pop\n      jump\t// out\n        /* \"#utility.yul\":5951:6317   */\n    tag_406:\n        /* \"#utility.yul\":6093:6096   */\n      0x00\n        /* \"#utility.yul\":6114:6181   */\n      tag_408\n        /* \"#utility.yul\":6178:6180   */\n      0x1d\n        /* \"#utility.yul\":6173:6176   */\n      dup4\n        /* \"#utility.yul\":6114:6181   */\n      tag_373\n      jump\t// in\n    tag_408:\n        /* \"#utility.yul\":6107:6181   */\n      swap2\n      pop\n        /* \"#utility.yul\":6190:6283   */\n      tag_409\n        /* \"#utility.yul\":6279:6282   */\n      dup3\n        /* \"#utility.yul\":6190:6283   */\n      tag_410\n      jump\t// in\n    tag_409:\n        /* \"#utility.yul\":6308:6310   */\n      0x20\n        /* \"#utility.yul\":6303:6306   */\n      dup3\n        /* \"#utility.yul\":6299:6311   */\n      add\n        /* \"#utility.yul\":6292:6311   */\n      swap1\n      pop\n        /* \"#utility.yul\":5951:6317   */\n      swap2\n      swap1\n      pop\n      jump\t// out\n        /* \"#utility.yul\":6323:6689   */\n    tag_411:\n        /* \"#utility.yul\":6465:6468   */\n      0x00\n        /* \"#utility.yul\":6486:6553   */\n      tag_413\n        /* \"#utility.yul\":6550:6552   */\n      0x26\n        /* \"#utility.yul\":6545:6548   */\n      dup4\n        /* \"#utility.yul\":6486:6553   */\n      tag_373\n      jump\t// in\n    tag_413:\n        /* \"#utility.yul\":6479:6553   */\n      swap2\n      pop\n        /* \"#utility.yul\":6562:6655   */\n      tag_414\n        /* \"#utility.yul\":6651:6654   */\n      dup3\n        /* \"#utility.yul\":6562:6655   */\n      tag_415\n      jump\t// in\n    tag_414:\n        /* \"#utility.yul\":6680:6682   */\n      0x40\n        /* \"#utility.yul\":6675:6678   */\n      dup3\n        /* \"#utility.yul\":6671:6683   */\n      add\n        /* \"#utility.yul\":6664:6683   */\n      swap1\n      pop\n        /* \"#utility.yul\":6323:6689   */\n      swap2\n      swap1\n      pop\n      jump\t// out\n        /* \"#utility.yul\":6695:7061   */\n    tag_416:\n        /* \"#utility.yul\":6837:6840   */\n      0x00\n        /* \"#utility.yul\":6858:6925   */\n      tag_418\n        /* \"#utility.yul\":6922:6924   */\n      0x25\n        /* \"#utility.yul\":6917:6920   */\n      dup4\n        /* \"#utility.yul\":6858:6925   */\n      tag_373\n      jump\t// in\n    tag_418:\n        /* \"#utility.yul\":6851:6925   */\n      swap2\n      pop\n        /* \"#utility.yul\":6934:7027   */\n      tag_419\n        /* \"#utility.yul\":7023:7026   */\n      dup3\n        /* \"#utility.yul\":6934:7027   */\n      tag_420\n      jump\t// in\n    tag_419:\n        /* \"#utility.yul\":7052:7054   */\n      0x40\n        /* \"#utility.yul\":7047:7050   */\n      dup3\n        /* \"#utility.yul\":7043:7055   */\n      add\n        /* \"#utility.yul\":7036:7055   */\n      swap1\n      pop\n        /* \"#utility.yul\":6695:7061   */\n      swap2\n      swap1\n      pop\n      jump\t// out\n        /* \"#utility.yul\":7067:7433   */\n    tag_421:\n        /* \"#utility.yul\":7209:7212   */\n      0x00\n        /* \"#utility.yul\":7230:7297   */\n      tag_423\n        /* \"#utility.yul\":7294:7296   */\n      0x24\n        /* \"#utility.yul\":7289:7292   */\n      dup4\n        /* \"#utility.yul\":7230:7297   */\n      tag_373\n      jump\t// in\n    tag_423:\n        /* \"#utility.yul\":7223:7297   */\n      swap2\n      pop\n        /* \"#utility.yul\":7306:7399   */\n      tag_424\n        /* \"#utility.yul\":7395:7398   */\n      dup3\n        /* \"#utility.yul\":7306:7399   */\n      tag_425\n      jump\t// in\n    tag_424:\n        /* \"#utility.yul\":7424:7426   */\n      0x40\n        /* \"#utility.yul\":7419:7422   */\n      dup3\n        /* \"#utility.yul\":7415:7427   */\n      add\n        /* \"#utility.yul\":7408:7427   */\n      swap1\n      pop\n        /* \"#utility.yul\":7067:7433   */\n      swap2\n      swap1\n      pop\n      jump\t// out\n        /* \"#utility.yul\":7439:7805   */\n    tag_426:\n        /* \"#utility.yul\":7581:7584   */\n      0x00\n        /* \"#utility.yul\":7602:7669   */\n      tag_428\n        /* \"#utility.yul\":7666:7668   */\n      0x25\n        /* \"#utility.yul\":7661:7664   */\n      dup4\n        /* \"#utility.yul\":7602:7669   */\n      tag_373\n      jump\t// in\n    tag_428:\n        /* \"#utility.yul\":7595:7669   */\n      swap2\n      pop\n        /* \"#utility.yul\":7678:7771   */\n      tag_429\n        /* \"#utility.yul\":7767:7770   */\n      dup3\n        /* \"#utility.yul\":7678:7771   */\n      tag_430\n      jump\t// in\n    tag_429:\n        /* \"#utility.yul\":7796:7798   */\n      0x40\n        /* \"#utility.yul\":7791:7794   */\n      dup3\n        /* \"#utility.yul\":7787:7799   */\n      add\n        /* \"#utility.yul\":7780:7799   */\n      swap1\n      pop\n        /* \"#utility.yul\":7439:7805   */\n      swap2\n      swap1\n      pop\n      jump\t// out\n        /* \"#utility.yul\":7811:8177   */\n    tag_431:\n        /* \"#utility.yul\":7953:7956   */\n      0x00\n        /* \"#utility.yul\":7974:8041   */\n      tag_433\n        /* \"#utility.yul\":8038:8040   */\n      0x1f\n        /* \"#utility.yul\":8033:8036   */\n      dup4\n        /* \"#utility.yul\":7974:8041   */\n      tag_373\n      jump\t// in\n    tag_433:\n        /* \"#utility.yul\":7967:8041   */\n      swap2\n      pop\n        /* \"#utility.yul\":8050:8143   */\n      tag_434\n        /* \"#utility.yul\":8139:8142   */\n      dup3\n        /* \"#utility.yul\":8050:8143   */\n      tag_435\n      jump\t// in\n    tag_434:\n        /* \"#utility.yul\":8168:8170   */\n      0x20\n        /* \"#utility.yul\":8163:8166   */\n      dup3\n        /* \"#utility.yul\":8159:8171   */\n      add\n        /* \"#utility.yul\":8152:8171   */\n      swap1\n      pop\n        /* \"#utility.yul\":7811:8177   */\n      swap2\n      swap1\n      pop\n      jump\t// out\n        /* \"#utility.yul\":8183:8301   */\n    tag_436:\n        /* \"#utility.yul\":8270:8294   */\n      tag_438\n        /* \"#utility.yul\":8288:8293   */\n      dup2\n        /* \"#utility.yul\":8270:8294   */\n      tag_439\n      jump\t// in\n    tag_438:\n        /* \"#utility.yul\":8265:8268   */\n      dup3\n        /* \"#utility.yul\":8258:8295   */\n      mstore\n        /* \"#utility.yul\":8183:8301   */\n      pop\n      pop\n      jump\t// out\n        /* \"#utility.yul\":8307:8464   */\n    tag_440:\n        /* \"#utility.yul\":8412:8457   */\n      tag_442\n        /* \"#utility.yul\":8432:8456   */\n      tag_443\n        /* \"#utility.yul\":8450:8455   */\n      dup3\n        /* \"#utility.yul\":8432:8456   */\n      tag_439\n      jump\t// in\n    tag_443:\n        /* \"#utility.yul\":8412:8457   */\n      tag_444\n      jump\t// in\n    tag_442:\n        /* \"#utility.yul\":8407:8410   */\n      dup3\n        /* \"#utility.yul\":8400:8458   */\n      mstore\n        /* \"#utility.yul\":8307:8464   */\n      pop\n      pop\n      jump\t// out\n        /* \"#utility.yul\":8470:8582   */\n    tag_445:\n        /* \"#utility.yul\":8553:8575   */\n      tag_447\n        /* \"#utility.yul\":8569:8574   */\n      dup2\n        /* \"#utility.yul\":8553:8575   */\n      tag_448\n      jump\t// in\n    tag_447:\n        /* \"#utility.yul\":8548:8551   */\n      dup3\n        /* \"#utility.yul\":8541:8576   */\n      mstore\n        /* \"#utility.yul\":8470:8582   */\n      pop\n      pop\n      jump\t// out\n        /* \"#utility.yul\":8588:9145   */\n    tag_159:\n        /* \"#utility.yul\":8776:8779   */\n      0x00\n        /* \"#utility.yul\":8791:8866   */\n      tag_450\n        /* \"#utility.yul\":8862:8865   */\n      dup3\n        /* \"#utility.yul\":8853:8859   */\n      dup7\n        /* \"#utility.yul\":8791:8866   */\n      tag_440\n      jump\t// in\n    tag_450:\n        /* \"#utility.yul\":8891:8893   */\n      0x20\n        /* \"#utility.yul\":8886:8889   */\n      dup3\n        /* \"#utility.yul\":8882:8894   */\n      add\n        /* \"#utility.yul\":8875:8894   */\n      swap2\n      pop\n        /* \"#utility.yul\":8904:8979   */\n      tag_451\n        /* \"#utility.yul\":8975:8978   */\n      dup3\n        /* \"#utility.yul\":8966:8972   */\n      dup6\n        /* \"#utility.yul\":8904:8979   */\n      tag_359\n      jump\t// in\n    tag_451:\n        /* \"#utility.yul\":9004:9006   */\n      0x14\n        /* \"#utility.yul\":8999:9002   */\n      dup3\n        /* \"#utility.yul\":8995:9007   */\n      add\n        /* \"#utility.yul\":8988:9007   */\n      swap2\n      pop\n        /* \"#utility.yul\":9024:9119   */\n      tag_452\n        /* \"#utility.yul\":9115:9118   */\n      dup3\n        /* \"#utility.yul\":9106:9112   */\n      dup5\n        /* \"#utility.yul\":9024:9119   */\n      tag_378\n      jump\t// in\n    tag_452:\n        /* \"#utility.yul\":9017:9119   */\n      swap2\n      pop\n        /* \"#utility.yul\":9136:9139   */\n      dup2\n        /* \"#utility.yul\":9129:9139   */\n      swap1\n      pop\n        /* \"#utility.yul\":8588:9145   */\n      swap5\n      swap4\n      pop\n      pop\n      pop\n      pop\n      jump\t// out\n        /* \"#utility.yul\":9151:9702   */\n    tag_161:\n        /* \"#utility.yul\":9336:9339   */\n      0x00\n        /* \"#utility.yul\":9351:9426   */\n      tag_454\n        /* \"#utility.yul\":9422:9425   */\n      dup3\n        /* \"#utility.yul\":9413:9419   */\n      dup7\n        /* \"#utility.yul\":9351:9426   */\n      tag_440\n      jump\t// in\n    tag_454:\n        /* \"#utility.yul\":9451:9453   */\n      0x20\n        /* \"#utility.yul\":9446:9449   */\n      dup3\n        /* \"#utility.yul\":9442:9454   */\n      add\n        /* \"#utility.yul\":9435:9454   */\n      swap2\n      pop\n        /* \"#utility.yul\":9464:9539   */\n      tag_455\n        /* \"#utility.yul\":9535:9538   */\n      dup3\n        /* \"#utility.yul\":9526:9532   */\n      dup6\n        /* \"#utility.yul\":9464:9539   */\n      tag_359\n      jump\t// in\n    tag_455:\n        /* \"#utility.yul\":9564:9566   */\n      0x14\n        /* \"#utility.yul\":9559:9562   */\n      dup3\n        /* \"#utility.yul\":9555:9567   */\n      add\n        /* \"#utility.yul\":9548:9567   */\n      swap2\n      pop\n        /* \"#utility.yul\":9584:9676   */\n      tag_456\n        /* \"#utility.yul\":9672:9675   */\n      dup3\n        /* \"#utility.yul\":9663:9669   */\n      dup5\n        /* \"#utility.yul\":9584:9676   */\n      tag_384\n      jump\t// in\n    tag_456:\n        /* \"#utility.yul\":9577:9676   */\n      swap2\n      pop\n        /* \"#utility.yul\":9693:9696   */\n      dup2\n        /* \"#utility.yul\":9686:9696   */\n      swap1\n      pop\n        /* \"#utility.yul\":9151:9702   */\n      swap5\n      swap4\n      pop\n      pop\n      pop\n      pop\n      jump\t// out\n        /* \"#utility.yul\":9708:10246   */\n    tag_122:\n        /* \"#utility.yul\":9876:9879   */\n      0x00\n        /* \"#utility.yul\":9891:9966   */\n      tag_458\n        /* \"#utility.yul\":9962:9965   */\n      dup3\n        /* \"#utility.yul\":9953:9959   */\n      dup7\n        /* \"#utility.yul\":9891:9966   */\n      tag_440\n      jump\t// in\n    tag_458:\n        /* \"#utility.yul\":9991:9993   */\n      0x20\n        /* \"#utility.yul\":9986:9989   */\n      dup3\n        /* \"#utility.yul\":9982:9994   */\n      add\n        /* \"#utility.yul\":9975:9994   */\n      swap2\n      pop\n        /* \"#utility.yul\":10004:10079   */\n      tag_459\n        /* \"#utility.yul\":10075:10078   */\n      dup3\n        /* \"#utility.yul\":10066:10072   */\n      dup6\n        /* \"#utility.yul\":10004:10079   */\n      tag_359\n      jump\t// in\n    tag_459:\n        /* \"#utility.yul\":10104:10106   */\n      0x14\n        /* \"#utility.yul\":10099:10102   */\n      dup3\n        /* \"#utility.yul\":10095:10107   */\n      add\n        /* \"#utility.yul\":10088:10107   */\n      swap2\n      pop\n        /* \"#utility.yul\":10117:10192   */\n      tag_460\n        /* \"#utility.yul\":10188:10191   */\n      dup3\n        /* \"#utility.yul\":10179:10185   */\n      dup5\n        /* \"#utility.yul\":10117:10192   */\n      tag_440\n      jump\t// in\n    tag_460:\n        /* \"#utility.yul\":10217:10219   */\n      0x20\n        /* \"#utility.yul\":10212:10215   */\n      dup3\n        /* \"#utility.yul\":10208:10220   */\n      add\n        /* \"#utility.yul\":10201:10220   */\n      swap2\n      pop\n        /* \"#utility.yul\":10237:10240   */\n      dup2\n        /* \"#utility.yul\":10230:10240   */\n      swap1\n      pop\n        /* \"#utility.yul\":9708:10246   */\n      swap5\n      swap4\n      pop\n      pop\n      pop\n      pop\n      jump\t// out\n        /* \"#utility.yul\":10252:10474   */\n    tag_75:\n        /* \"#utility.yul\":10345:10349   */\n      0x00\n        /* \"#utility.yul\":10383:10385   */\n      0x20\n        /* \"#utility.yul\":10372:10381   */\n      dup3\n        /* \"#utility.yul\":10368:10386   */\n      add\n        /* \"#utility.yul\":10360:10386   */\n      swap1\n      pop\n        /* \"#utility.yul\":10396:10467   */\n      tag_462\n        /* \"#utility.yul\":10464:10465   */\n      0x00\n        /* \"#utility.yul\":10453:10462   */\n      dup4\n        /* \"#utility.yul\":10449:10466   */\n      add\n        /* \"#utility.yul\":10440:10446   */\n      dup5\n        /* \"#utility.yul\":10396:10467   */\n      tag_355\n      jump\t// in\n    tag_462:\n        /* \"#utility.yul\":10252:10474   */\n      swap3\n      swap2\n      pop\n      pop\n      jump\t// out\n        /* \"#utility.yul\":10480:10690   */\n    tag_35:\n        /* \"#utility.yul\":10567:10571   */\n      0x00\n        /* \"#utility.yul\":10605:10607   */\n      0x20\n        /* \"#utility.yul\":10594:10603   */\n      dup3\n        /* \"#utility.yul\":10590:10608   */\n      add\n        /* \"#utility.yul\":10582:10608   */\n      swap1\n      pop\n        /* \"#utility.yul\":10618:10683   */\n      tag_464\n        /* \"#utility.yul\":10680:10681   */\n      0x00\n        /* \"#utility.yul\":10669:10678   */\n      dup4\n        /* \"#utility.yul\":10665:10682   */\n      add\n        /* \"#utility.yul\":10656:10662   */\n      dup5\n        /* \"#utility.yul\":10618:10683   */\n      tag_364\n      jump\t// in\n    tag_464:\n        /* \"#utility.yul\":10480:10690   */\n      swap3\n      swap2\n      pop\n      pop\n      jump\t// out\n        /* \"#utility.yul\":10696:11009   */\n    tag_29:\n        /* \"#utility.yul\":10809:10813   */\n      0x00\n        /* \"#utility.yul\":10847:10849   */\n      0x20\n        /* \"#utility.yul\":10836:10845   */\n      dup3\n        /* \"#utility.yul\":10832:10850   */\n      add\n        /* \"#utility.yul\":10824:10850   */\n      swap1\n      pop\n        /* \"#utility.yul\":10896:10905   */\n      dup2\n        /* \"#utility.yul\":10890:10894   */\n      dup2\n        /* \"#utility.yul\":10886:10906   */\n      sub\n        /* \"#utility.yul\":10882:10883   */\n      0x00\n        /* \"#utility.yul\":10871:10880   */\n      dup4\n        /* \"#utility.yul\":10867:10884   */\n      add\n        /* \"#utility.yul\":10860:10907   */\n      mstore\n        /* \"#utility.yul\":10924:11002   */\n      tag_466\n        /* \"#utility.yul\":10997:11001   */\n      dup2\n        /* \"#utility.yul\":10988:10994   */\n      dup5\n        /* \"#utility.yul\":10924:11002   */\n      tag_368\n      jump\t// in\n    tag_466:\n        /* \"#utility.yul\":10916:11002   */\n      swap1\n      pop\n        /* \"#utility.yul\":10696:11009   */\n      swap3\n      swap2\n      pop\n      pop\n      jump\t// out\n        /* \"#utility.yul\":11015:11434   */\n    tag_284:\n        /* \"#utility.yul\":11181:11185   */\n      0x00\n        /* \"#utility.yul\":11219:11221   */\n      0x20\n        /* \"#utility.yul\":11208:11217   */\n      dup3\n        /* \"#utility.yul\":11204:11222   */\n      add\n        /* \"#utility.yul\":11196:11222   */\n      swap1\n      pop\n        /* \"#utility.yul\":11268:11277   */\n      dup2\n        /* \"#utility.yul\":11262:11266   */\n      dup2\n        /* \"#utility.yul\":11258:11278   */\n      sub\n        /* \"#utility.yul\":11254:11255   */\n      0x00\n        /* \"#utility.yul\":11243:11252   */\n      dup4\n        /* \"#utility.yul\":11239:11256   */\n      add\n        /* \"#utility.yul\":11232:11279   */\n      mstore\n        /* \"#utility.yul\":11296:11427   */\n      tag_468\n        /* \"#utility.yul\":11422:11426   */\n      dup2\n        /* \"#utility.yul\":11296:11427   */\n      tag_396\n      jump\t// in\n    tag_468:\n        /* \"#utility.yul\":11288:11427   */\n      swap1\n      pop\n        /* \"#utility.yul\":11015:11434   */\n      swap2\n      swap1\n      pop\n      jump\t// out\n        /* \"#utility.yul\":11440:11859   */\n    tag_269:\n        /* \"#utility.yul\":11606:11610   */\n      0x00\n        /* \"#utility.yul\":11644:11646   */\n      0x20\n        /* \"#utility.yul\":11633:11642   */\n      dup3\n        /* \"#utility.yul\":11629:11647   */\n      add\n        /* \"#utility.yul\":11621:11647   */\n      swap1\n      pop\n        /* \"#utility.yul\":11693:11702   */\n      dup2\n        /* \"#utility.yul\":11687:11691   */\n      dup2\n        /* \"#utility.yul\":11683:11703   */\n      sub\n        /* \"#utility.yul\":11679:11680   */\n      0x00\n        /* \"#utility.yul\":11668:11677   */\n      dup4\n        /* \"#utility.yul\":11664:11681   */\n      add\n        /* \"#utility.yul\":11657:11704   */\n      mstore\n        /* \"#utility.yul\":11721:11852   */\n      tag_470\n        /* \"#utility.yul\":11847:11851   */\n      dup2\n        /* \"#utility.yul\":11721:11852   */\n      tag_401\n      jump\t// in\n    tag_470:\n        /* \"#utility.yul\":11713:11852   */\n      swap1\n      pop\n        /* \"#utility.yul\":11440:11859   */\n      swap2\n      swap1\n      pop\n      jump\t// out\n        /* \"#utility.yul\":11865:12284   */\n    tag_276:\n        /* \"#utility.yul\":12031:12035   */\n      0x00\n        /* \"#utility.yul\":12069:12071   */\n      0x20\n        /* \"#utility.yul\":12058:12067   */\n      dup3\n        /* \"#utility.yul\":12054:12072   */\n      add\n        /* \"#utility.yul\":12046:12072   */\n      swap1\n      pop\n        /* \"#utility.yul\":12118:12127   */\n      dup2\n        /* \"#utility.yul\":12112:12116   */\n      dup2\n        /* \"#utility.yul\":12108:12128   */\n      sub\n        /* \"#utility.yul\":12104:12105   */\n      0x00\n        /* \"#utility.yul\":12093:12102   */\n      dup4\n        /* \"#utility.yul\":12089:12106   */\n      add\n        /* \"#utility.yul\":12082:12129   */\n      mstore\n        /* \"#utility.yul\":12146:12277   */\n      tag_472\n        /* \"#utility.yul\":12272:12276   */\n      dup2\n        /* \"#utility.yul\":12146:12277   */\n      tag_406\n      jump\t// in\n    tag_472:\n        /* \"#utility.yul\":12138:12277   */\n      swap1\n      pop\n        /* \"#utility.yul\":11865:12284   */\n      swap2\n      swap1\n      pop\n      jump\t// out\n        /* \"#utility.yul\":12290:12709   */\n    tag_289:\n        /* \"#utility.yul\":12456:12460   */\n      0x00\n        /* \"#utility.yul\":12494:12496   */\n      0x20\n        /* \"#utility.yul\":12483:12492   */\n      dup3\n        /* \"#utility.yul\":12479:12497   */\n      add\n        /* \"#utility.yul\":12471:12497   */\n      swap1\n      pop\n        /* \"#utility.yul\":12543:12552   */\n      dup2\n        /* \"#utility.yul\":12537:12541   */\n      dup2\n        /* \"#utility.yul\":12533:12553   */\n      sub\n        /* \"#utility.yul\":12529:12530   */\n      0x00\n        /* \"#utility.yul\":12518:12527   */\n      dup4\n        /* \"#utility.yul\":12514:12531   */\n      add\n        /* \"#utility.yul\":12507:12554   */\n      mstore\n        /* \"#utility.yul\":12571:12702   */\n      tag_474\n        /* \"#utility.yul\":12697:12701   */\n      dup2\n        /* \"#utility.yul\":12571:12702   */\n      tag_411\n      jump\t// in\n    tag_474:\n        /* \"#utility.yul\":12563:12702   */\n      swap1\n      pop\n        /* \"#utility.yul\":12290:12709   */\n      swap2\n      swap1\n      pop\n      jump\t// out\n        /* \"#utility.yul\":12715:13134   */\n    tag_281:\n        /* \"#utility.yul\":12881:12885   */\n      0x00\n        /* \"#utility.yul\":12919:12921   */\n      0x20\n        /* \"#utility.yul\":12908:12917   */\n      dup3\n        /* \"#utility.yul\":12904:12922   */\n      add\n        /* \"#utility.yul\":12896:12922   */\n      swap1\n      pop\n        /* \"#utility.yul\":12968:12977   */\n      dup2\n        /* \"#utility.yul\":12962:12966   */\n      dup2\n        /* \"#utility.yul\":12958:12978   */\n      sub\n        /* \"#utility.yul\":12954:12955   */\n      0x00\n        /* \"#utility.yul\":12943:12952   */\n      dup4\n        /* \"#utility.yul\":12939:12956   */\n      add\n        /* \"#utility.yul\":12932:12979   */\n      mstore\n        /* \"#utility.yul\":12996:13127   */\n      tag_476\n        /* \"#utility.yul\":13122:13126   */\n      dup2\n        /* \"#utility.yul\":12996:13127   */\n      tag_416\n      jump\t// in\n    tag_476:\n        /* \"#utility.yul\":12988:13127   */\n      swap1\n      pop\n        /* \"#utility.yul\":12715:13134   */\n      swap2\n      swap1\n      pop\n      jump\t// out\n        /* \"#utility.yul\":13140:13559   */\n    tag_266:\n        /* \"#utility.yul\":13306:13310   */\n      0x00\n        /* \"#utility.yul\":13344:13346   */\n      0x20\n        /* \"#utility.yul\":13333:13342   */\n      dup3\n        /* \"#utility.yul\":13329:13347   */\n      add\n        /* \"#utility.yul\":13321:13347   */\n      swap1\n      pop\n        /* \"#utility.yul\":13393:13402   */\n      dup2\n        /* \"#utility.yul\":13387:13391   */\n      dup2\n        /* \"#utility.yul\":13383:13403   */\n      sub\n        /* \"#utility.yul\":13379:13380   */\n      0x00\n        /* \"#utility.yul\":13368:13377   */\n      dup4\n        /* \"#utility.yul\":13364:13381   */\n      add\n        /* \"#utility.yul\":13357:13404   */\n      mstore\n        /* \"#utility.yul\":13421:13552   */\n      tag_478\n        /* \"#utility.yul\":13547:13551   */\n      dup2\n        /* \"#utility.yul\":13421:13552   */\n      tag_421\n      jump\t// in\n    tag_478:\n        /* \"#utility.yul\":13413:13552   */\n      swap1\n      pop\n        /* \"#utility.yul\":13140:13559   */\n      swap2\n      swap1\n      pop\n      jump\t// out\n        /* \"#utility.yul\":13565:13984   */\n    tag_243:\n        /* \"#utility.yul\":13731:13735   */\n      0x00\n        /* \"#utility.yul\":13769:13771   */\n      0x20\n        /* \"#utility.yul\":13758:13767   */\n      dup3\n        /* \"#utility.yul\":13754:13772   */\n      add\n        /* \"#utility.yul\":13746:13772   */\n      swap1\n      pop\n        /* \"#utility.yul\":13818:13827   */\n      dup2\n        /* \"#utility.yul\":13812:13816   */\n      dup2\n        /* \"#utility.yul\":13808:13828   */\n      sub\n        /* \"#utility.yul\":13804:13805   */\n      0x00\n        /* \"#utility.yul\":13793:13802   */\n      dup4\n        /* \"#utility.yul\":13789:13806   */\n      add\n        /* \"#utility.yul\":13782:13829   */\n      mstore\n        /* \"#utility.yul\":13846:13977   */\n      tag_480\n        /* \"#utility.yul\":13972:13976   */\n      dup2\n        /* \"#utility.yul\":13846:13977   */\n      tag_426\n      jump\t// in\n    tag_480:\n        /* \"#utility.yul\":13838:13977   */\n      swap1\n      pop\n        /* \"#utility.yul\":13565:13984   */\n      swap2\n      swap1\n      pop\n      jump\t// out\n        /* \"#utility.yul\":13990:14409   */\n    tag_297:\n        /* \"#utility.yul\":14156:14160   */\n      0x00\n        /* \"#utility.yul\":14194:14196   */\n      0x20\n        /* \"#utility.yul\":14183:14192   */\n      dup3\n        /* \"#utility.yul\":14179:14197   */\n      add\n        /* \"#utility.yul\":14171:14197   */\n      swap1\n      pop\n        /* \"#utility.yul\":14243:14252   */\n      dup2\n        /* \"#utility.yul\":14237:14241   */\n      dup2\n        /* \"#utility.yul\":14233:14253   */\n      sub\n        /* \"#utility.yul\":14229:14230   */\n      0x00\n        /* \"#utility.yul\":14218:14227   */\n      dup4\n        /* \"#utility.yul\":14214:14231   */\n      add\n        /* \"#utility.yul\":14207:14254   */\n      mstore\n        /* \"#utility.yul\":14271:14402   */\n      tag_482\n        /* \"#utility.yul\":14397:14401   */\n      dup2\n        /* \"#utility.yul\":14271:14402   */\n      tag_431\n      jump\t// in\n    tag_482:\n        /* \"#utility.yul\":14263:14402   */\n      swap1\n      pop\n        /* \"#utility.yul\":13990:14409   */\n      swap2\n      swap1\n      pop\n      jump\t// out\n        /* \"#utility.yul\":14415:14637   */\n    tag_39:\n        /* \"#utility.yul\":14508:14512   */\n      0x00\n        /* \"#utility.yul\":14546:14548   */\n      0x20\n        /* \"#utility.yul\":14535:14544   */\n      dup3\n        /* \"#utility.yul\":14531:14549   */\n      add\n        /* \"#utility.yul\":14523:14549   */\n      swap1\n      pop\n        /* \"#utility.yul\":14559:14630   */\n      tag_484\n        /* \"#utility.yul\":14627:14628   */\n      0x00\n        /* \"#utility.yul\":14616:14625   */\n      dup4\n        /* \"#utility.yul\":14612:14629   */\n      add\n        /* \"#utility.yul\":14603:14609   */\n      dup5\n        /* \"#utility.yul\":14559:14630   */\n      tag_436\n      jump\t// in\n    tag_484:\n        /* \"#utility.yul\":14415:14637   */\n      swap3\n      swap2\n      pop\n      pop\n      jump\t// out\n        /* \"#utility.yul\":14643:14857   */\n    tag_56:\n        /* \"#utility.yul\":14732:14736   */\n      0x00\n        /* \"#utility.yul\":14770:14772   */\n      0x20\n        /* \"#utility.yul\":14759:14768   */\n      dup3\n        /* \"#utility.yul\":14755:14773   */\n      add\n        /* \"#utility.yul\":14747:14773   */\n      swap1\n      pop\n        /* \"#utility.yul\":14783:14850   */\n      tag_486\n        /* \"#utility.yul\":14847:14848   */\n      0x00\n        /* \"#utility.yul\":14836:14845   */\n      dup4\n        /* \"#utility.yul\":14832:14849   */\n      add\n        /* \"#utility.yul\":14823:14829   */\n      dup5\n        /* \"#utility.yul\":14783:14850   */\n      tag_445\n      jump\t// in\n    tag_486:\n        /* \"#utility.yul\":14643:14857   */\n      swap3\n      swap2\n      pop\n      pop\n      jump\t// out\n        /* \"#utility.yul\":14944:15085   */\n    tag_392:\n        /* \"#utility.yul\":14993:14997   */\n      0x00\n        /* \"#utility.yul\":15016:15019   */\n      dup2\n        /* \"#utility.yul\":15008:15019   */\n      swap1\n      pop\n        /* \"#utility.yul\":15039:15042   */\n      dup2\n        /* \"#utility.yul\":15036:15037   */\n      0x00\n        /* \"#utility.yul\":15029:15043   */\n      mstore\n        /* \"#utility.yul\":15073:15077   */\n      0x20\n        /* \"#utility.yul\":15070:15071   */\n      0x00\n        /* \"#utility.yul\":15060:15078   */\n      keccak256\n        /* \"#utility.yul\":15052:15078   */\n      swap1\n      pop\n        /* \"#utility.yul\":14944:15085   */\n      swap2\n      swap1\n      pop\n      jump\t// out\n        /* \"#utility.yul\":15091:15190   */\n    tag_371:\n        /* \"#utility.yul\":15143:15149   */\n      0x00\n        /* \"#utility.yul\":15177:15182   */\n      dup2\n        /* \"#utility.yul\":15171:15183   */\n      mload\n        /* \"#utility.yul\":15161:15183   */\n      swap1\n      pop\n        /* \"#utility.yul\":15091:15190   */\n      swap2\n      swap1\n      pop\n      jump\t// out\n        /* \"#utility.yul\":15196:15365   */\n    tag_373:\n        /* \"#utility.yul\":15280:15291   */\n      0x00\n        /* \"#utility.yul\":15314:15320   */\n      dup3\n        /* \"#utility.yul\":15309:15312   */\n      dup3\n        /* \"#utility.yul\":15302:15321   */\n      mstore\n        /* \"#utility.yul\":15354:15358   */\n      0x20\n        /* \"#utility.yul\":15349:15352   */\n      dup3\n        /* \"#utility.yul\":15345:15359   */\n      add\n        /* \"#utility.yul\":15330:15359   */\n      swap1\n      pop\n        /* \"#utility.yul\":15196:15365   */\n      swap3\n      swap2\n      pop\n      pop\n      jump\t// out\n        /* \"#utility.yul\":15371:15519   */\n    tag_382:\n        /* \"#utility.yul\":15473:15484   */\n      0x00\n        /* \"#utility.yul\":15510:15513   */\n      dup2\n        /* \"#utility.yul\":15495:15513   */\n      swap1\n      pop\n        /* \"#utility.yul\":15371:15519   */\n      swap3\n      swap2\n      pop\n      pop\n      jump\t// out\n        /* \"#utility.yul\":15525:15830   */\n    tag_149:\n        /* \"#utility.yul\":15565:15568   */\n      0x00\n        /* \"#utility.yul\":15584:15604   */\n      tag_494\n        /* \"#utility.yul\":15602:15603   */\n      dup3\n        /* \"#utility.yul\":15584:15604   */\n      tag_439\n      jump\t// in\n    tag_494:\n        /* \"#utility.yul\":15579:15604   */\n      swap2\n      pop\n        /* \"#utility.yul\":15618:15638   */\n      tag_495\n        /* \"#utility.yul\":15636:15637   */\n      dup4\n        /* \"#utility.yul\":15618:15638   */\n      tag_439\n      jump\t// in\n    tag_495:\n        /* \"#utility.yul\":15613:15638   */\n      swap3\n      pop\n        /* \"#utility.yul\":15772:15773   */\n      dup3\n        /* \"#utility.yul\":15704:15770   */\n      0xffffffffffffffffffffffffffffffffffffffffffffffffffffffffffffffff\n        /* \"#utility.yul\":15700:15774   */\n      sub\n        /* \"#utility.yul\":15697:15698   */\n      dup3\n        /* \"#utility.yul\":15694:15775   */\n      gt\n        /* \"#utility.yul\":15691:15798   */\n      iszero\n      tag_496\n      jumpi\n        /* \"#utility.yul\":15778:15796   */\n      tag_497\n      tag_498\n      jump\t// in\n    tag_497:\n        /* \"#utility.yul\":15691:15798   */\n    tag_496:\n        /* \"#utility.yul\":15822:15823   */\n      dup3\n        /* \"#utility.yul\":15819:15820   */\n      dup3\n        /* \"#utility.yul\":15815:15824   */\n      add\n        /* \"#utility.yul\":15808:15824   */\n      swap1\n      pop\n        /* \"#utility.yul\":15525:15830   */\n      swap3\n      swap2\n      pop\n      pop\n      jump\t// out\n        /* \"#utility.yul\":15836:16684   */\n    tag_499:\n        /* \"#utility.yul\":15897:15902   */\n      0x00\n        /* \"#utility.yul\":15904:15908   */\n      dup1\n        /* \"#utility.yul\":15928:15934   */\n      dup3\n        /* \"#utility.yul\":15919:15934   */\n      swap2\n      pop\n        /* \"#utility.yul\":15952:15957   */\n      dup4\n        /* \"#utility.yul\":15943:15957   */\n      swap1\n      pop\n        /* \"#utility.yul\":15966:16678   */\n    tag_501:\n        /* \"#utility.yul\":15987:15988   */\n      0x01\n        /* \"#utility.yul\":15977:15985   */\n      dup6\n        /* \"#utility.yul\":15974:15989   */\n      gt\n        /* \"#utility.yul\":15966:16678   */\n      iszero\n      tag_503\n      jumpi\n        /* \"#utility.yul\":16082:16086   */\n      dup1\n        /* \"#utility.yul\":16077:16080   */\n      dup7\n        /* \"#utility.yul\":16073:16087   */\n      div\n        /* \"#utility.yul\":16067:16071   */\n      dup2\n        /* \"#utility.yul\":16064:16088   */\n      gt\n        /* \"#utility.yul\":16061:16111   */\n      iszero\n      tag_504\n      jumpi\n        /* \"#utility.yul\":16091:16109   */\n      tag_505\n      tag_498\n      jump\t// in\n    tag_505:\n        /* \"#utility.yul\":16061:16111   */\n    tag_504:\n        /* \"#utility.yul\":16141:16142   */\n      0x01\n        /* \"#utility.yul\":16131:16139   */\n      dup6\n        /* \"#utility.yul\":16127:16143   */\n      and\n        /* \"#utility.yul\":16124:16575   */\n      iszero\n      tag_506\n      jumpi\n        /* \"#utility.yul\":16556:16560   */\n      dup1\n        /* \"#utility.yul\":16549:16554   */\n      dup3\n        /* \"#utility.yul\":16545:16561   */\n      mul\n        /* \"#utility.yul\":16536:16561   */\n      swap2\n      pop\n        /* \"#utility.yul\":16124:16575   */\n    tag_506:\n        /* \"#utility.yul\":16606:16610   */\n      dup1\n        /* \"#utility.yul\":16600:16604   */\n      dup2\n        /* \"#utility.yul\":16596:16611   */\n      mul\n        /* \"#utility.yul\":16588:16611   */\n      swap1\n      pop\n        /* \"#utility.yul\":16636:16668   */\n      tag_507\n        /* \"#utility.yul\":16659:16667   */\n      dup6\n        /* \"#utility.yul\":16636:16668   */\n      tag_508\n      jump\t// in\n    tag_507:\n        /* \"#utility.yul\":16624:16668   */\n      swap5\n      pop\n        /* \"#utility.yul\":15966:16678   */\n      jump(tag_501)\n    tag_503:\n        /* \"#utility.yul\":15836:16684   */\n      swap5\n      pop\n      swap5\n      swap3\n      pop\n      pop\n      pop\n      jump\t// out\n        /* \"#utility.yul\":16690:16971   */\n    tag_183:\n        /* \"#utility.yul\":16748:16753   */\n      0x00\n        /* \"#utility.yul\":16772:16795   */\n      tag_510\n        /* \"#utility.yul\":16790:16794   */\n      dup3\n        /* \"#utility.yul\":16772:16795   */\n      tag_439\n      jump\t// in\n    tag_510:\n        /* \"#utility.yul\":16764:16795   */\n      swap2\n      pop\n        /* \"#utility.yul\":16816:16841   */\n      tag_511\n        /* \"#utility.yul\":16832:16840   */\n      dup4\n        /* \"#utility.yul\":16816:16841   */\n      tag_448\n      jump\t// in\n    tag_511:\n        /* \"#utility.yul\":16804:16841   */\n      swap3\n      pop\n        /* \"#utility.yul\":16860:16964   */\n      tag_512\n        /* \"#utility.yul\":16897:16963   */\n      0xffffffffffffffffffffffffffffffffffffffffffffffffffffffffffffffff\n        /* \"#utility.yul\":16887:16895   */\n      dup5\n        /* \"#utility.yul\":16881:16885   */\n      dup5\n        /* \"#utility.yul\":16860:16964   */\n      tag_513\n      jump\t// in\n    tag_512:\n        /* \"#utility.yul\":16851:16964   */\n      swap1\n      pop\n        /* \"#utility.yul\":16690:16971   */\n      swap3\n      swap2\n      pop\n      pop\n      jump\t// out\n        /* \"#utility.yul\":16977:18050   */\n    tag_513:\n        /* \"#utility.yul\":17031:17036   */\n      0x00\n        /* \"#utility.yul\":17222:17230   */\n      dup3\n        /* \"#utility.yul\":17212:17252   */\n      tag_515\n      jumpi\n        /* \"#utility.yul\":17243:17244   */\n      0x01\n        /* \"#utility.yul\":17234:17244   */\n      swap1\n      pop\n        /* \"#utility.yul\":17245:17250   */\n      jump(tag_514)\n        /* \"#utility.yul\":17212:17252   */\n    tag_515:\n        /* \"#utility.yul\":17271:17275   */\n      dup2\n        /* \"#utility.yul\":17261:17297   */\n      tag_516\n      jumpi\n        /* \"#utility.yul\":17288:17289   */\n      0x00\n        /* \"#utility.yul\":17279:17289   */\n      swap1\n      pop\n        /* \"#utility.yul\":17290:17295   */\n      jump(tag_514)\n        /* \"#utility.yul\":17261:17297   */\n    tag_516:\n        /* \"#utility.yul\":17357:17361   */\n      dup2\n        /* \"#utility.yul\":17405:17406   */\n      0x01\n        /* \"#utility.yul\":17400:17427   */\n      dup2\n      eq\n      tag_518\n      jumpi\n        /* \"#utility.yul\":17441:17442   */\n      0x02\n        /* \"#utility.yul\":17436:17627   */\n      dup2\n      eq\n      tag_519\n      jumpi\n        /* \"#utility.yul\":17350:17627   */\n      jump(tag_517)\n        /* \"#utility.yul\":17400:17427   */\n    tag_518:\n        /* \"#utility.yul\":17418:17419   */\n      0x01\n        /* \"#utility.yul\":17409:17419   */\n      swap2\n      pop\n        /* \"#utility.yul\":17420:17425   */\n      pop\n      jump(tag_514)\n        /* \"#utility.yul\":17436:17627   */\n    tag_519:\n        /* \"#utility.yul\":17481:17484   */\n      0xff\n        /* \"#utility.yul\":17471:17479   */\n      dup5\n        /* \"#utility.yul\":17468:17485   */\n      gt\n        /* \"#utility.yul\":17465:17508   */\n      iszero\n      tag_520\n      jumpi\n        /* \"#utility.yul\":17488:17506   */\n      tag_521\n      tag_498\n      jump\t// in\n    tag_521:\n        /* \"#utility.yul\":17465:17508   */\n    tag_520:\n        /* \"#utility.yul\":17537:17545   */\n      dup4\n        /* \"#utility.yul\":17534:17535   */\n      0x02\n        /* \"#utility.yul\":17530:17546   */\n      exp\n        /* \"#utility.yul\":17521:17546   */\n      swap2\n      pop\n        /* \"#utility.yul\":17572:17575   */\n      dup5\n        /* \"#utility.yul\":17565:17570   */\n      dup3\n        /* \"#utility.yul\":17562:17576   */\n      gt\n        /* \"#utility.yul\":17559:17599   */\n      iszero\n      tag_522\n      jumpi\n        /* \"#utility.yul\":17579:17597   */\n      tag_523\n      tag_498\n      jump\t// in\n    tag_523:\n        /* \"#utility.yul\":17559:17599   */\n    tag_522:\n        /* \"#utility.yul\":17612:17617   */\n      pop\n      jump(tag_514)\n        /* \"#utility.yul\":17350:17627   */\n    tag_517:\n      pop\n        /* \"#utility.yul\":17736:17738   */\n      0x20\n        /* \"#utility.yul\":17726:17734   */\n      dup4\n        /* \"#utility.yul\":17723:17739   */\n      lt\n        /* \"#utility.yul\":17717:17720   */\n      0x0133\n        /* \"#utility.yul\":17711:17715   */\n      dup4\n        /* \"#utility.yul\":17708:17721   */\n      lt\n        /* \"#utility.yul\":17704:17740   */\n      and\n        /* \"#utility.yul\":17686:17688   */\n      0x4e\n        /* \"#utility.yul\":17676:17684   */\n      dup5\n        /* \"#utility.yul\":17673:17689   */\n      lt\n        /* \"#utility.yul\":17668:17670   */\n      0x0b\n        /* \"#utility.yul\":17662:17666   */\n      dup5\n        /* \"#utility.yul\":17659:17671   */\n      lt\n        /* \"#utility.yul\":17655:17690   */\n      and\n        /* \"#utility.yul\":17639:17750   */\n      or\n        /* \"#utility.yul\":17636:17882   */\n      iszero\n      tag_524\n      jumpi\n        /* \"#utility.yul\":17792:17800   */\n      dup3\n        /* \"#utility.yul\":17786:17790   */\n      dup3\n        /* \"#utility.yul\":17782:17801   */\n      exp\n        /* \"#utility.yul\":17773:17801   */\n      swap1\n      pop\n        /* \"#utility.yul\":17827:17830   */\n      dup4\n        /* \"#utility.yul\":17820:17825   */\n      dup2\n        /* \"#utility.yul\":17817:17831   */\n      gt\n        /* \"#utility.yul\":17814:17854   */\n      iszero\n      tag_525\n      jumpi\n        /* \"#utility.yul\":17834:17852   */\n      tag_526\n      tag_498\n      jump\t// in\n    tag_526:\n        /* \"#utility.yul\":17814:17854   */\n    tag_525:\n        /* \"#utility.yul\":17867:17872   */\n      jump(tag_514)\n        /* \"#utility.yul\":17636:17882   */\n    tag_524:\n        /* \"#utility.yul\":17907:17949   */\n      tag_527\n        /* \"#utility.yul\":17945:17948   */\n      dup5\n        /* \"#utility.yul\":17935:17943   */\n      dup5\n        /* \"#utility.yul\":17929:17933   */\n      dup5\n        /* \"#utility.yul\":17926:17927   */\n      0x01\n        /* \"#utility.yul\":17907:17949   */\n      tag_499\n      jump\t// in\n    tag_527:\n        /* \"#utility.yul\":17892:17949   */\n      swap3\n      pop\n      swap1\n      pop\n        /* \"#utility.yul\":17981:17985   */\n      dup2\n        /* \"#utility.yul\":17976:17979   */\n      dup5\n        /* \"#utility.yul\":17972:17986   */\n      div\n        /* \"#utility.yul\":17965:17970   */\n      dup2\n        /* \"#utility.yul\":17962:17987   */\n      gt\n        /* \"#utility.yul\":17959:18010   */\n      iszero\n      tag_528\n      jumpi\n        /* \"#utility.yul\":17990:18008   */\n      tag_529\n      tag_498\n      jump\t// in\n    tag_529:\n        /* \"#utility.yul\":17959:18010   */\n    tag_528:\n        /* \"#utility.yul\":18039:18043   */\n      dup2\n        /* \"#utility.yul\":18032:18037   */\n      dup2\n        /* \"#utility.yul\":18028:18044   */\n      mul\n        /* \"#utility.yul\":18019:18044   */\n      swap1\n      pop\n        /* \"#utility.yul\":16977:18050   */\n    tag_514:\n      swap4\n      swap3\n      pop\n      pop\n      pop\n      jump\t// out\n        /* \"#utility.yul\":18056:18404   */\n    tag_185:\n        /* \"#utility.yul\":18096:18103   */\n      0x00\n        /* \"#utility.yul\":18119:18139   */\n      tag_531\n        /* \"#utility.yul\":18137:18138   */\n      dup3\n        /* \"#utility.yul\":18119:18139   */\n      tag_439\n      jump\t// in\n    tag_531:\n        /* \"#utility.yul\":18114:18139   */\n      swap2\n      pop\n        /* \"#utility.yul\":18153:18173   */\n      tag_532\n        /* \"#utility.yul\":18171:18172   */\n      dup4\n        /* \"#utility.yul\":18153:18173   */\n      tag_439\n      jump\t// in\n    tag_532:\n        /* \"#utility.yul\":18148:18173   */\n      swap3\n      pop\n        /* \"#utility.yul\":18341:18342   */\n      dup2\n        /* \"#utility.yul\":18273:18339   */\n      0xffffffffffffffffffffffffffffffffffffffffffffffffffffffffffffffff\n        /* \"#utility.yul\":18269:18343   */\n      div\n        /* \"#utility.yul\":18266:18267   */\n      dup4\n        /* \"#utility.yul\":18263:18344   */\n      gt\n        /* \"#utility.yul\":18258:18259   */\n      dup3\n        /* \"#utility.yul\":18251:18260   */\n      iszero\n        /* \"#utility.yul\":18244:18261   */\n      iszero\n        /* \"#utility.yul\":18240:18345   */\n      and\n        /* \"#utility.yul\":18237:18368   */\n      iszero\n      tag_533\n      jumpi\n        /* \"#utility.yul\":18348:18366   */\n      tag_534\n      tag_498\n      jump\t// in\n    tag_534:\n        /* \"#utility.yul\":18237:18368   */\n    tag_533:\n        /* \"#utility.yul\":18396:18397   */\n      dup3\n        /* \"#utility.yul\":18393:18394   */\n      dup3\n        /* \"#utility.yul\":18389:18398   */\n      mul\n        /* \"#utility.yul\":18378:18398   */\n      swap1\n      pop\n        /* \"#utility.yul\":18056:18404   */\n      swap3\n      swap2\n      pop\n      pop\n      jump\t// out\n        /* \"#utility.yul\":18410:18506   */\n    tag_358:\n        /* \"#utility.yul\":18447:18454   */\n      0x00\n        /* \"#utility.yul\":18476:18500   */\n      tag_536\n        /* \"#utility.yul\":18494:18499   */\n      dup3\n        /* \"#utility.yul\":18476:18500   */\n      tag_537\n      jump\t// in\n    tag_536:\n        /* \"#utility.yul\":18465:18500   */\n      swap1\n      pop\n        /* \"#utility.yul\":18410:18506   */\n      swap2\n      swap1\n      pop\n      jump\t// out\n        /* \"#utility.yul\":18512:18602   */\n    tag_367:\n        /* \"#utility.yul\":18546:18553   */\n      0x00\n        /* \"#utility.yul\":18589:18594   */\n      dup2\n        /* \"#utility.yul\":18582:18595   */\n      iszero\n        /* \"#utility.yul\":18575:18596   */\n      iszero\n        /* \"#utility.yul\":18564:18596   */\n      swap1\n      pop\n        /* \"#utility.yul\":18512:18602   */\n      swap2\n      swap1\n      pop\n      jump\t// out\n        /* \"#utility.yul\":18608:18684   */\n    tag_539:\n        /* \"#utility.yul\":18644:18651   */\n      0x00\n        /* \"#utility.yul\":18673:18678   */\n      dup2\n        /* \"#utility.yul\":18662:18678   */\n      swap1\n      pop\n        /* \"#utility.yul\":18608:18684   */\n      swap2\n      swap1\n      pop\n      jump\t// out\n        /* \"#utility.yul\":18690:18816   */\n    tag_537:\n        /* \"#utility.yul\":18727:18734   */\n      0x00\n        /* \"#utility.yul\":18767:18809   */\n      0xffffffffffffffffffffffffffffffffffffffff\n        /* \"#utility.yul\":18760:18765   */\n      dup3\n        /* \"#utility.yul\":18756:18810   */\n      and\n        /* \"#utility.yul\":18745:18810   */\n      swap1\n      pop\n        /* \"#utility.yul\":18690:18816   */\n      swap2\n      swap1\n      pop\n      jump\t// out\n        /* \"#utility.yul\":18822:18899   */\n    tag_439:\n        /* \"#utility.yul\":18859:18866   */\n      0x00\n        /* \"#utility.yul\":18888:18893   */\n      dup2\n        /* \"#utility.yul\":18877:18893   */\n      swap1\n      pop\n        /* \"#utility.yul\":18822:18899   */\n      swap2\n      swap1\n      pop\n      jump\t// out\n        /* \"#utility.yul\":18905:18991   */\n    tag_448:\n        /* \"#utility.yul\":18940:18947   */\n      0x00\n        /* \"#utility.yul\":18980:18984   */\n      0xff\n        /* \"#utility.yul\":18973:18978   */\n      dup3\n        /* \"#utility.yul\":18969:18985   */\n      and\n        /* \"#utility.yul\":18958:18985   */\n      swap1\n      pop\n        /* \"#utility.yul\":18905:18991   */\n      swap2\n      swap1\n      pop\n      jump\t// out\n        /* \"#utility.yul\":18997:19304   */\n    tag_375:\n        /* \"#utility.yul\":19065:19066   */\n      0x00\n        /* \"#utility.yul\":19075:19188   */\n    tag_545:\n        /* \"#utility.yul\":19089:19095   */\n      dup4\n        /* \"#utility.yul\":19086:19087   */\n      dup2\n        /* \"#utility.yul\":19083:19096   */\n      lt\n        /* \"#utility.yul\":19075:19188   */\n      iszero\n      tag_547\n      jumpi\n        /* \"#utility.yul\":19174:19175   */\n      dup1\n        /* \"#utility.yul\":19169:19172   */\n      dup3\n        /* \"#utility.yul\":19165:19176   */\n      add\n        /* \"#utility.yul\":19159:19177   */\n      mload\n        /* \"#utility.yul\":19155:19156   */\n      dup2\n        /* \"#utility.yul\":19150:19153   */\n      dup5\n        /* \"#utility.yul\":19146:19157   */\n      add\n        /* \"#utility.yul\":19139:19178   */\n      mstore\n        /* \"#utility.yul\":19111:19113   */\n      0x20\n        /* \"#utility.yul\":19108:19109   */\n      dup2\n        /* \"#utility.yul\":19104:19114   */\n      add\n        /* \"#utility.yul\":19099:19114   */\n      swap1\n      pop\n        /* \"#utility.yul\":19075:19188   */\n      jump(tag_545)\n    tag_547:\n        /* \"#utility.yul\":19206:19212   */\n      dup4\n        /* \"#utility.yul\":19203:19204   */\n      dup2\n        /* \"#utility.yul\":19200:19213   */\n      gt\n        /* \"#utility.yul\":19197:19298   */\n      iszero\n      tag_548\n      jumpi\n        /* \"#utility.yul\":19286:19287   */\n      0x00\n        /* \"#utility.yul\":19277:19283   */\n      dup5\n        /* \"#utility.yul\":19272:19275   */\n      dup5\n        /* \"#utility.yul\":19268:19284   */\n      add\n        /* \"#utility.yul\":19261:19288   */\n      mstore\n        /* \"#utility.yul\":19197:19298   */\n    tag_548:\n        /* \"#utility.yul\":19046:19304   */\n      pop\n        /* \"#utility.yul\":18997:19304   */\n      pop\n      pop\n      pop\n      jump\t// out\n        /* \"#utility.yul\":19310:19630   */\n    tag_109:\n        /* \"#utility.yul\":19354:19360   */\n      0x00\n        /* \"#utility.yul\":19391:19392   */\n      0x02\n        /* \"#utility.yul\":19385:19389   */\n      dup3\n        /* \"#utility.yul\":19381:19393   */\n      div\n        /* \"#utility.yul\":19371:19393   */\n      swap1\n      pop\n        /* \"#utility.yul\":19438:19439   */\n      0x01\n        /* \"#utility.yul\":19432:19436   */\n      dup3\n        /* \"#utility.yul\":19428:19440   */\n      and\n        /* \"#utility.yul\":19459:19477   */\n      dup1\n        /* \"#utility.yul\":19449:19530   */\n      tag_550\n      jumpi\n        /* \"#utility.yul\":19515:19519   */\n      0x7f\n        /* \"#utility.yul\":19507:19513   */\n      dup3\n        /* \"#utility.yul\":19503:19520   */\n      and\n        /* \"#utility.yul\":19493:19520   */\n      swap2\n      pop\n        /* \"#utility.yul\":19449:19530   */\n    tag_550:\n        /* \"#utility.yul\":19577:19579   */\n      0x20\n        /* \"#utility.yul\":19569:19575   */\n      dup3\n        /* \"#utility.yul\":19566:19580   */\n      lt\n        /* \"#utility.yul\":19546:19564   */\n      dup2\n        /* \"#utility.yul\":19543:19581   */\n      eq\n        /* \"#utility.yul\":19540:19624   */\n      iszero\n      tag_551\n      jumpi\n        /* \"#utility.yul\":19596:19614   */\n      tag_552\n      tag_553\n      jump\t// in\n    tag_552:\n        /* \"#utility.yul\":19540:19624   */\n    tag_551:\n        /* \"#utility.yul\":19361:19630   */\n      pop\n        /* \"#utility.yul\":19310:19630   */\n      swap2\n      swap1\n      pop\n      jump\t// out\n        /* \"#utility.yul\":19636:19867   */\n    tag_164:\n        /* \"#utility.yul\":19674:19677   */\n      0x00\n        /* \"#utility.yul\":19697:19720   */\n      tag_555\n        /* \"#utility.yul\":19714:19719   */\n      dup3\n        /* \"#utility.yul\":19697:19720   */\n      tag_539\n      jump\t// in\n    tag_555:\n        /* \"#utility.yul\":19688:19720   */\n      swap2\n      pop\n        /* \"#utility.yul\":19742:19808   */\n      0x7fffffffffffffffffffffffffffffffffffffffffffffffffffffffffffffff\n        /* \"#utility.yul\":19735:19740   */\n      dup3\n        /* \"#utility.yul\":19732:19809   */\n      eq\n        /* \"#utility.yul\":19729:19832   */\n      iszero\n      tag_556\n      jumpi\n        /* \"#utility.yul\":19812:19830   */\n      tag_557\n      tag_498\n      jump\t// in\n    tag_557:\n        /* \"#utility.yul\":19729:19832   */\n    tag_556:\n        /* \"#utility.yul\":19859:19860   */\n      0x01\n        /* \"#utility.yul\":19852:19857   */\n      dup3\n        /* \"#utility.yul\":19848:19861   */\n      add\n        /* \"#utility.yul\":19841:19861   */\n      swap1\n      pop\n        /* \"#utility.yul\":19636:19867   */\n      swap2\n      swap1\n      pop\n      jump\t// out\n        /* \"#utility.yul\":19873:20106   */\n    tag_196:\n        /* \"#utility.yul\":19912:19915   */\n      0x00\n        /* \"#utility.yul\":19935:19959   */\n      tag_559\n        /* \"#utility.yul\":19953:19958   */\n      dup3\n        /* \"#utility.yul\":19935:19959   */\n      tag_439\n      jump\t// in\n    tag_559:\n        /* \"#utility.yul\":19926:19959   */\n      swap2\n      pop\n        /* \"#utility.yul\":19981:20047   */\n      0xffffffffffffffffffffffffffffffffffffffffffffffffffffffffffffffff\n        /* \"#utility.yul\":19974:19979   */\n      dup3\n        /* \"#utility.yul\":19971:20048   */\n      eq\n        /* \"#utility.yul\":19968:20071   */\n      iszero\n      tag_560\n      jumpi\n        /* \"#utility.yul\":20051:20069   */\n      tag_561\n      tag_498\n      jump\t// in\n    tag_561:\n        /* \"#utility.yul\":19968:20071   */\n    tag_560:\n        /* \"#utility.yul\":20098:20099   */\n      0x01\n        /* \"#utility.yul\":20091:20096   */\n      dup3\n        /* \"#utility.yul\":20087:20100   */\n      add\n        /* \"#utility.yul\":20080:20100   */\n      swap1\n      pop\n        /* \"#utility.yul\":19873:20106   */\n      swap2\n      swap1\n      pop\n      jump\t// out\n        /* \"#utility.yul\":20112:20212   */\n    tag_363:\n        /* \"#utility.yul\":20151:20158   */\n      0x00\n        /* \"#utility.yul\":20180:20206   */\n      tag_563\n        /* \"#utility.yul\":20200:20205   */\n      dup3\n        /* \"#utility.yul\":20180:20206   */\n      tag_564\n      jump\t// in\n    tag_563:\n        /* \"#utility.yul\":20169:20206   */\n      swap1\n      pop\n        /* \"#utility.yul\":20112:20212   */\n      swap2\n      swap1\n      pop\n      jump\t// out\n        /* \"#utility.yul\":20218:20312   */\n    tag_564:\n        /* \"#utility.yul\":20257:20264   */\n      0x00\n        /* \"#utility.yul\":20286:20306   */\n      tag_566\n        /* \"#utility.yul\":20300:20305   */\n      dup3\n        /* \"#utility.yul\":20286:20306   */\n      tag_567\n      jump\t// in\n    tag_566:\n        /* \"#utility.yul\":20275:20306   */\n      swap1\n      pop\n        /* \"#utility.yul\":20218:20312   */\n      swap2\n      swap1\n      pop\n      jump\t// out\n        /* \"#utility.yul\":20318:20397   */\n    tag_444:\n        /* \"#utility.yul\":20357:20364   */\n      0x00\n        /* \"#utility.yul\":20386:20391   */\n      dup2\n        /* \"#utility.yul\":20375:20391   */\n      swap1\n      pop\n        /* \"#utility.yul\":20318:20397   */\n      swap2\n      swap1\n      pop\n      jump\t// out\n        /* \"#utility.yul\":20403:20579   */\n    tag_124:\n        /* \"#utility.yul\":20435:20436   */\n      0x00\n        /* \"#utility.yul\":20452:20472   */\n      tag_570\n        /* \"#utility.yul\":20470:20471   */\n      dup3\n        /* \"#utility.yul\":20452:20472   */\n      tag_439\n      jump\t// in\n    tag_570:\n        /* \"#utility.yul\":20447:20472   */\n      swap2\n      pop\n        /* \"#utility.yul\":20486:20506   */\n      tag_571\n        /* \"#utility.yul\":20504:20505   */\n      dup4\n        /* \"#utility.yul\":20486:20506   */\n      tag_439\n      jump\t// in\n    tag_571:\n        /* \"#utility.yul\":20481:20506   */\n      swap3\n      pop\n        /* \"#utility.yul\":20525:20526   */\n      dup3\n        /* \"#utility.yul\":20515:20550   */\n      tag_572\n      jumpi\n        /* \"#utility.yul\":20530:20548   */\n      tag_573\n      tag_574\n      jump\t// in\n    tag_573:\n        /* \"#utility.yul\":20515:20550   */\n    tag_572:\n        /* \"#utility.yul\":20571:20572   */\n      dup3\n        /* \"#utility.yul\":20568:20569   */\n      dup3\n        /* \"#utility.yul\":20564:20573   */\n      mod\n        /* \"#utility.yul\":20559:20573   */\n      swap1\n      pop\n        /* \"#utility.yul\":20403:20579   */\n      swap3\n      swap2\n      pop\n      pop\n      jump\t// out\n        /* \"#utility.yul\":20585:20765   */\n    tag_498:\n        /* \"#utility.yul\":20633:20710   */\n      0x4e487b7100000000000000000000000000000000000000000000000000000000\n        /* \"#utility.yul\":20630:20631   */\n      0x00\n        /* \"#utility.yul\":20623:20711   */\n      mstore\n        /* \"#utility.yul\":20730:20734   */\n      0x11\n        /* \"#utility.yul\":20727:20728   */\n      0x04\n        /* \"#utility.yul\":20720:20735   */\n      mstore\n        /* \"#utility.yul\":20754:20758   */\n      0x24\n        /* \"#utility.yul\":20751:20752   */\n      0x00\n        /* \"#utility.yul\":20744:20759   */\n      revert\n        /* \"#utility.yul\":20771:20951   */\n    tag_574:\n        /* \"#utility.yul\":20819:20896   */\n      0x4e487b7100000000000000000000000000000000000000000000000000000000\n        /* \"#utility.yul\":20816:20817   */\n      0x00\n        /* \"#utility.yul\":20809:20897   */\n      mstore\n        /* \"#utility.yul\":20916:20920   */\n      0x12\n        /* \"#utility.yul\":20913:20914   */\n      0x04\n        /* \"#utility.yul\":20906:20921   */\n      mstore\n        /* \"#utility.yul\":20940:20944   */\n      0x24\n        /* \"#utility.yul\":20937:20938   */\n      0x00\n        /* \"#utility.yul\":20930:20945   */\n      revert\n        /* \"#utility.yul\":20957:21137   */\n    tag_553:\n        /* \"#utility.yul\":21005:21082   */\n      0x4e487b7100000000000000000000000000000000000000000000000000000000\n        /* \"#utility.yul\":21002:21003   */\n      0x00\n        /* \"#utility.yul\":20995:21083   */\n      mstore\n        /* \"#utility.yul\":21102:21106   */\n      0x22\n        /* \"#utility.yul\":21099:21100   */\n      0x04\n        /* \"#utility.yul\":21092:21107   */\n      mstore\n        /* \"#utility.yul\":21126:21130   */\n      0x24\n        /* \"#utility.yul\":21123:21124   */\n      0x00\n        /* \"#utility.yul\":21116:21131   */\n      revert\n        /* \"#utility.yul\":21266:21383   */\n    tag_327:\n        /* \"#utility.yul\":21375:21376   */\n      0x00\n        /* \"#utility.yul\":21372:21373   */\n      dup1\n        /* \"#utility.yul\":21365:21377   */\n      revert\n        /* \"#utility.yul\":21389:21491   */\n    tag_377:\n        /* \"#utility.yul\":21430:21436   */\n      0x00\n        /* \"#utility.yul\":21481:21483   */\n      0x1f\n        /* \"#utility.yul\":21477:21484   */\n      not\n        /* \"#utility.yul\":21472:21474   */\n      0x1f\n        /* \"#utility.yul\":21465:21470   */\n      dup4\n        /* \"#utility.yul\":21461:21475   */\n      add\n        /* \"#utility.yul\":21457:21485   */\n      and\n        /* \"#utility.yul\":21447:21485   */\n      swap1\n      pop\n        /* \"#utility.yul\":21389:21491   */\n      swap2\n      swap1\n      pop\n      jump\t// out\n        /* \"#utility.yul\":21497:21591   */\n    tag_567:\n        /* \"#utility.yul\":21530:21538   */\n      0x00\n        /* \"#utility.yul\":21578:21583   */\n      dup2\n        /* \"#utility.yul\":21574:21576   */\n      0x60\n        /* \"#utility.yul\":21570:21584   */\n      shl\n        /* \"#utility.yul\":21549:21584   */\n      swap1\n      pop\n        /* \"#utility.yul\":21497:21591   */\n      swap2\n      swap1\n      pop\n      jump\t// out\n        /* \"#utility.yul\":21597:21699   */\n    tag_508:\n        /* \"#utility.yul\":21639:21647   */\n      0x00\n        /* \"#utility.yul\":21686:21691   */\n      dup2\n        /* \"#utility.yul\":21683:21684   */\n      0x01\n        /* \"#utility.yul\":21679:21692   */\n      shr\n        /* \"#utility.yul\":21658:21692   */\n      swap1\n      pop\n        /* \"#utility.yul\":21597:21699   */\n      swap2\n      swap1\n      pop\n      jump\t// out\n        /* \"#utility.yul\":21705:21927   */\n    tag_400:\n        /* \"#utility.yul\":21845:21879   */\n      0x45524332303a207472616e7366657220746f20746865207a65726f2061646472\n        /* \"#utility.yul\":21841:21842   */\n      0x00\n        /* \"#utility.yul\":21833:21839   */\n      dup3\n        /* \"#utility.yul\":21829:21843   */\n      add\n        /* \"#utility.yul\":21822:21880   */\n      mstore\n        /* \"#utility.yul\":21914:21919   */\n      0x6573730000000000000000000000000000000000000000000000000000000000\n        /* \"#utility.yul\":21909:21911   */\n      0x20\n        /* \"#utility.yul\":21901:21907   */\n      dup3\n        /* \"#utility.yul\":21897:21912   */\n      add\n        /* \"#utility.yul\":21890:21920   */\n      mstore\n        /* \"#utility.yul\":21705:21927   */\n      pop\n      jump\t// out\n        /* \"#utility.yul\":21933:22154   */\n    tag_405:\n        /* \"#utility.yul\":22073:22107   */\n      0x45524332303a20617070726f766520746f20746865207a65726f206164647265\n        /* \"#utility.yul\":22069:22070   */\n      0x00\n        /* \"#utility.yul\":22061:22067   */\n      dup3\n        /* \"#utility.yul\":22057:22071   */\n      add\n        /* \"#utility.yul\":22050:22108   */\n      mstore\n        /* \"#utility.yul\":22142:22146   */\n      0x7373000000000000000000000000000000000000000000000000000000000000\n        /* \"#utility.yul\":22137:22139   */\n      0x20\n        /* \"#utility.yul\":22129:22135   */\n      dup3\n        /* \"#utility.yul\":22125:22140   */\n      add\n        /* \"#utility.yul\":22118:22147   */\n      mstore\n        /* \"#utility.yul\":21933:22154   */\n      pop\n      jump\t// out\n        /* \"#utility.yul\":22160:22339   */\n    tag_410:\n        /* \"#utility.yul\":22300:22331   */\n      0x45524332303a20696e73756666696369656e7420616c6c6f77616e6365000000\n        /* \"#utility.yul\":22296:22297   */\n      0x00\n        /* \"#utility.yul\":22288:22294   */\n      dup3\n        /* \"#utility.yul\":22284:22298   */\n      add\n        /* \"#utility.yul\":22277:22332   */\n      mstore\n        /* \"#utility.yul\":22160:22339   */\n      pop\n      jump\t// out\n        /* \"#utility.yul\":22345:22570   */\n    tag_415:\n        /* \"#utility.yul\":22485:22519   */\n      0x45524332303a207472616e7366657220616d6f756e7420657863656564732062\n        /* \"#utility.yul\":22481:22482   */\n      0x00\n        /* \"#utility.yul\":22473:22479   */\n      dup3\n        /* \"#utility.yul\":22469:22483   */\n      add\n        /* \"#utility.yul\":22462:22520   */\n      mstore\n        /* \"#utility.yul\":22554:22562   */\n      0x616c616e63650000000000000000000000000000000000000000000000000000\n        /* \"#utility.yul\":22549:22551   */\n      0x20\n        /* \"#utility.yul\":22541:22547   */\n      dup3\n        /* \"#utility.yul\":22537:22552   */\n      add\n        /* \"#utility.yul\":22530:22563   */\n      mstore\n        /* \"#utility.yul\":22345:22570   */\n      pop\n      jump\t// out\n        /* \"#utility.yul\":22576:22800   */\n    tag_420:\n        /* \"#utility.yul\":22716:22750   */\n      0x45524332303a207472616e736665722066726f6d20746865207a65726f206164\n        /* \"#utility.yul\":22712:22713   */\n      0x00\n        /* \"#utility.yul\":22704:22710   */\n      dup3\n        /* \"#utility.yul\":22700:22714   */\n      add\n        /* \"#utility.yul\":22693:22751   */\n      mstore\n        /* \"#utility.yul\":22785:22792   */\n      0x6472657373000000000000000000000000000000000000000000000000000000\n        /* \"#utility.yul\":22780:22782   */\n      0x20\n        /* \"#utility.yul\":22772:22778   */\n      dup3\n        /* \"#utility.yul\":22768:22783   */\n      add\n        /* \"#utility.yul\":22761:22793   */\n      mstore\n        /* \"#utility.yul\":22576:22800   */\n      pop\n      jump\t// out\n        /* \"#utility.yul\":22806:23029   */\n    tag_425:\n        /* \"#utility.yul\":22946:22980   */\n      0x45524332303a20617070726f76652066726f6d20746865207a65726f20616464\n        /* \"#utility.yul\":22942:22943   */\n      0x00\n        /* \"#utility.yul\":22934:22940   */\n      dup3\n        /* \"#utility.yul\":22930:22944   */\n      add\n        /* \"#utility.yul\":22923:22981   */\n      mstore\n        /* \"#utility.yul\":23015:23021   */\n      0x7265737300000000000000000000000000000000000000000000000000000000\n        /* \"#utility.yul\":23010:23012   */\n      0x20\n        /* \"#utility.yul\":23002:23008   */\n      dup3\n        /* \"#utility.yul\":22998:23013   */\n      add\n        /* \"#utility.yul\":22991:23022   */\n      mstore\n        /* \"#utility.yul\":22806:23029   */\n      pop\n      jump\t// out\n        /* \"#utility.yul\":23035:23259   */\n    tag_430:\n        /* \"#utility.yul\":23175:23209   */\n      0x45524332303a2064656372656173656420616c6c6f77616e63652062656c6f77\n        /* \"#utility.yul\":23171:23172   */\n      0x00\n        /* \"#utility.yul\":23163:23169   */\n      dup3\n        /* \"#utility.yul\":23159:23173   */\n      add\n        /* \"#utility.yul\":23152:23210   */\n      mstore\n        /* \"#utility.yul\":23244:23251   */\n      0x207a65726f000000000000000000000000000000000000000000000000000000\n        /* \"#utility.yul\":23239:23241   */\n      0x20\n        /* \"#utility.yul\":23231:23237   */\n      dup3\n        /* \"#utility.yul\":23227:23242   */\n      add\n        /* \"#utility.yul\":23220:23252   */\n      mstore\n        /* \"#utility.yul\":23035:23259   */\n      pop\n      jump\t// out\n        /* \"#utility.yul\":23265:23446   */\n    tag_435:\n        /* \"#utility.yul\":23405:23438   */\n      0x45524332303a206d696e7420746f20746865207a65726f206164647265737300\n        /* \"#utility.yul\":23401:23402   */\n      0x00\n        /* \"#utility.yul\":23393:23399   */\n      dup3\n        /* \"#utility.yul\":23389:23403   */\n      add\n        /* \"#utility.yul\":23382:23439   */\n      mstore\n        /* \"#utility.yul\":23265:23446   */\n      pop\n      jump\t// out\n        /* \"#utility.yul\":23452:23574   */\n    tag_319:\n        /* \"#utility.yul\":23525:23549   */\n      tag_593\n        /* \"#utility.yul\":23543:23548   */\n      dup2\n        /* \"#utility.yul\":23525:23549   */\n      tag_358\n      jump\t// in\n    tag_593:\n        /* \"#utility.yul\":23518:23523   */\n      dup2\n        /* \"#utility.yul\":23515:23550   */\n      eq\n        /* \"#utility.yul\":23505:23568   */\n      tag_594\n      jumpi\n        /* \"#utility.yul\":23564:23565   */\n      0x00\n        /* \"#utility.yul\":23561:23562   */\n      dup1\n        /* \"#utility.yul\":23554:23566   */\n      revert\n        /* \"#utility.yul\":23505:23568   */\n    tag_594:\n        /* \"#utility.yul\":23452:23574   */\n      pop\n      jump\t// out\n        /* \"#utility.yul\":23580:23702   */\n    tag_323:\n        /* \"#utility.yul\":23653:23677   */\n      tag_596\n        /* \"#utility.yul\":23671:23676   */\n      dup2\n        /* \"#utility.yul\":23653:23677   */\n      tag_439\n      jump\t// in\n    tag_596:\n        /* \"#utility.yul\":23646:23651   */\n      dup2\n        /* \"#utility.yul\":23643:23678   */\n      eq\n        /* \"#utility.yul\":23633:23696   */\n      tag_597\n      jumpi\n        /* \"#utility.yul\":23692:23693   */\n      0x00\n        /* \"#utility.yul\":23689:23690   */\n      dup1\n        /* \"#utility.yul\":23682:23694   */\n      revert\n        /* \"#utility.yul\":23633:23696   */\n    tag_597:\n        /* \"#utility.yul\":23580:23702   */\n      pop\n      jump\t// out\n\n    auxdata: 0xa26469706673582212203cc2dea6749525feb88c0303ce8e2859b5120f32ba86f3bea9aa6009d43f7b6064736f6c63430008070033\n}\n",
				"bytecode": {
					"linkReferences": {},
					"object": "608060405260006009553480156200001657600080fd5b506040518060400160405280600881526020017f47616d65436f696e0000000000000000000000000000000000000000000000008152506040518060400160405280600581526020017f416c69636500000000000000000000000000000000000000000000000000000081525081600390805190602001906200009b929190620000fe565b508060049080519060200190620000b4929190620000fe565b50505033600560006101000a81548173ffffffffffffffffffffffffffffffffffffffff021916908373ffffffffffffffffffffffffffffffffffffffff16021790555062000213565b8280546200010c90620001ae565b90600052602060002090601f0160209004810192826200013057600085556200017c565b82601f106200014b57805160ff19168380011785556200017c565b828001600101855582156200017c579182015b828111156200017b5782518255916020019190600101906200015e565b5b5090506200018b91906200018f565b5090565b5b80821115620001aa57600081600090555060010162000190565b5090565b60006002820490506001821680620001c757607f821691505b60208210811415620001de57620001dd620001e4565b5b50919050565b7f4e487b7100000000000000000000000000000000000000000000000000000000600052602260045260246000fd5b61253980620002236000396000f3fe608060405234801561001057600080fd5b506004361061012c5760003560e01c80638ae7fbe2116100ad578063a457c2d711610071578063a457c2d71461035d578063a9059cbb1461038d578063b76d9cc1146103bd578063b7dda85e146103db578063dd62ed3e1461040b5761012c565b80638ae7fbe2146102b75780638da5cb5b146102d557806395d89b41146102f3578063a0712d6814610311578063a3b1f6cc1461032d5761012c565b80632a344f8e116100f45780632a344f8e146101fd578063313ce5671461021b57806339509351146102395780634802d3781461026957806370a08231146102875761012c565b806306fdde0314610131578063095ea7b31461014f57806318160ddd1461017f57806319c6b7081461019d57806323b872dd146101cd575b600080fd5b61013961043b565b6040516101469190611c82565b60405180910390f35b61016960048036038101906101649190611872565b6104cd565b6040516101769190611c67565b60405180910390f35b6101876104f0565b6040516101949190611da4565b60405180910390f35b6101b760048036038101906101b291906118b2565b6104fa565b6040516101c49190611c67565b60405180910390f35b6101e760048036038101906101e2919061181f565b610608565b6040516101f49190611c67565b60405180910390f35b610205610637565b6040516102129190611c82565b60405180910390f35b6102236106c9565b6040516102309190611dbf565b60405180910390f35b610253600480360381019061024e9190611872565b6106d2565b6040516102609190611c67565b60405180910390f35b610271610709565b60405161027e9190611c82565b60405180910390f35b6102a1600480360381019061029c91906117b2565b61079b565b6040516102ae9190611da4565b60405180910390f35b6102bf6107e3565b6040516102cc9190611c67565b60405180910390f35b6102dd610969565b6040516102ea9190611c4c565b60405180910390f35b6102fb61098f565b6040516103089190611c82565b60405180910390f35b61032b600480360381019061032691906118b2565b610a21565b005b610347600480360381019061034291906118df565b610a6e565b6040516103549190611c82565b60405180910390f35b61037760048036038101906103729190611872565b610dc4565b6040516103849190611c67565b60405180910390f35b6103a760048036038101906103a29190611872565b610e3b565b6040516103b49190611c67565b60405180910390f35b6103c5610e74565b6040516103d29190611c82565b60405180910390f35b6103f560048036038101906103f091906118b2565b610f06565b6040516104029190611c67565b60405180910390f35b610425600480360381019061042091906117df565b611014565b6040516104329190611da4565b60405180910390f35b60606003805461044a906120c9565b80601f0160208091040260200160405190810160405280929190818152602001828054610476906120c9565b80156104c35780601f10610498576101008083540402835291602001916104c3565b820191906000526020600020905b8154815290600101906020018083116104a657829003601f168201915b5050505050905090565b6000806104d861109b565b90506104e58185856110a3565b600191505092915050565b6000600254905090565b6000806040518060400160405280600981526020017f796f752077696e21210000000000000000000000000000000000000000000000815250905060006040518060400160405280600881526020017f796f75206c6f7365000000000000000000000000000000000000000000000000815250905060006064423360095460405160200161058a93929190611c0f565b6040516020818303038152906040528051906020012060001c6105ad91906121bb565b905060006064866105be91906121bb565b90508082106105e35782600790805190602001906105dd9291906116e5565b506105fb565b83600790805190602001906105f99291906116e5565b505b6001945050505050919050565b60008061061361109b565b905061062085828561126e565b61062b8585856112fa565b60019150509392505050565b606060078054610646906120c9565b80601f0160208091040260200160405190810160405280929190818152602001828054610672906120c9565b80156106bf5780601f10610694576101008083540402835291602001916106bf565b820191906000526020600020905b8154815290600101906020018083116106a257829003601f168201915b5050505050905090565b60006012905090565b6000806106dd61109b565b90506106fe8185856106ef8589611014565b6106f99190611e16565b6110a3565b600191505092915050565b606060068054610718906120c9565b80601f0160208091040260200160405190810160405280929190818152602001828054610744906120c9565b80156107915780601f1061076657610100808354040283529160200191610791565b820191906000526020600020905b81548152906001019060200180831161077457829003601f168201915b5050505050905090565b60008060008373ffffffffffffffffffffffffffffffffffffffff1673ffffffffffffffffffffffffffffffffffffffff168152602001908152602001600020549050919050565b6000806040518060400160405280600981526020017f796f752077696e212100000000000000000000000000000000000000000000008152509050600042338360405160200161083593929190611b9d565b604051602081830303815290604052805190602001204233600660405160200161086193929190611bd6565b60405160208183030381529060405280519060200120141561088c578080610888906120fb565b9150505b4233836040516020016108a193929190611b9d565b60405160208183030381529060405280519060200120423360076040516020016108cd93929190611bd6565b6040516020818303038152906040528051906020012014156108f85780806108f4906120fb565b9150505b42338360405160200161090d93929190611b9d565b604051602081830303815290604052805190602001204233600860405160200161093993929190611bd6565b604051602081830303815290604052805190602001201415610964578080610960906120fb565b9150505b505090565b600560009054906101000a900473ffffffffffffffffffffffffffffffffffffffff1681565b60606004805461099e906120c9565b80601f01602080910402602001604051908101604052809291908181526020018280546109ca906120c9565b8015610a175780601f106109ec57610100808354040283529160200191610a17565b820191906000526020600020905b8154815290600101906020018083116109fa57829003601f168201915b5050505050905090565b610a6b600560009054906101000a900473ffffffffffffffffffffffffffffffffffffffff16610a4f6106c9565b600a610a5b9190611ebf565b83610a669190611fdd565b61157b565b50565b606060006040518060400160405280600981526020017f796f752077696e21210000000000000000000000000000000000000000000000815250905060006040518060400160405280600881526020017f796f75206c6f73650000000000000000000000000000000000000000000000008152509050600080600388610af491906121bb565b90506000600388610b0591906121bb565b90506000600388610b1691906121bb565b9050600060034233600954604051602001610b3393929190611c0f565b6040516020818303038152906040528051906020012060001c610b5691906121bb565b90506000841415610b7a576001811415610b79578480610b7590612144565b9550505b5b6001841415610b9c576002811415610b9b578480610b9790612144565b9550505b5b6002841415610bbe576000811415610bbd578480610bb990612144565b9550505b5b6000841415610be0576001811415610bdf578480610bdb90612144565b9550505b5b6001841415610c02576002811415610c01578480610bfd90612144565b9550505b5b6002841415610c24576000811415610c23578480610c1f90612144565b9550505b5b60034233600954604051602001610c3d93929190611c0f565b6040516020818303038152906040528051906020012060001c610c6091906121bb565b90506000831415610c84576001811415610c83578480610c7f90612144565b9550505b5b6001831415610ca6576002811415610ca5578480610ca190612144565b9550505b5b6002831415610cc8576000811415610cc7578480610cc390612144565b9550505b5b60034233600954604051602001610ce193929190611c0f565b6040516020818303038152906040528051906020012060001c610d0491906121bb565b90506000821415610d28576001811415610d27578480610d2390612144565b9550505b5b6001821415610d4a576002811415610d49578480610d4590612144565b9550505b5b6002821415610d6c576000811415610d6b578480610d6790612144565b9550505b5b6001851115610d9b578660069080519060200190610d8b9291906116e5565b5086975050505050505050610dbd565b8560069080519060200190610db19291906116e5565b50859750505050505050505b9392505050565b600080610dcf61109b565b90506000610ddd8286611014565b905083811015610e22576040517f08c379a0000000000000000000000000000000000000000000000000000000008152600401610e1990611d64565b60405180910390fd5b610e2f82868684036110a3565b60019250505092915050565b6000610e6a600560009054906101000a900473ffffffffffffffffffffffffffffffffffffffff1684846112fa565b6001905092915050565b606060088054610e83906120c9565b80601f0160208091040260200160405190810160405280929190818152602001828054610eaf906120c9565b8015610efc5780601f10610ed157610100808354040283529160200191610efc565b820191906000526020600020905b815481529060010190602001808311610edf57829003601f168201915b5050505050905090565b6000806040518060400160405280600981526020017f796f752077696e21210000000000000000000000000000000000000000000000815250905060006040518060400160405280600881526020017f796f75206c6f73650000000000000000000000000000000000000000000000008152509050600060644233600954604051602001610f9693929190611c0f565b6040516020818303038152906040528051906020012060001c610fb991906121bb565b90506000606486610fca91906121bb565b9050808210610fef578260089080519060200190610fe99291906116e5565b50611007565b83600890805190602001906110059291906116e5565b505b6001945050505050919050565b6000600160008473ffffffffffffffffffffffffffffffffffffffff1673ffffffffffffffffffffffffffffffffffffffff16815260200190815260200160002060008373ffffffffffffffffffffffffffffffffffffffff1673ffffffffffffffffffffffffffffffffffffffff16815260200190815260200160002054905092915050565b600033905090565b600073ffffffffffffffffffffffffffffffffffffffff168373ffffffffffffffffffffffffffffffffffffffff161415611113576040517f08c379a000000000000000000000000000000000000000000000000000000000815260040161110a90611d44565b60405180910390fd5b600073ffffffffffffffffffffffffffffffffffffffff168273ffffffffffffffffffffffffffffffffffffffff161415611183576040517f08c379a000000000000000000000000000000000000000000000000000000000815260040161117a90611cc4565b60405180910390fd5b80600160008573ffffffffffffffffffffffffffffffffffffffff1673ffffffffffffffffffffffffffffffffffffffff16815260200190815260200160002060008473ffffffffffffffffffffffffffffffffffffffff1673ffffffffffffffffffffffffffffffffffffffff168152602001908152602001600020819055508173ffffffffffffffffffffffffffffffffffffffff168373ffffffffffffffffffffffffffffffffffffffff167f8c5be1e5ebec7d5bd14f71427d1e84f3dd0314c0f7b2291e5b200ac8c7c3b925836040516112619190611da4565b60405180910390a3505050565b600061127a8484611014565b90507fffffffffffffffffffffffffffffffffffffffffffffffffffffffffffffffff81146112f457818110156112e6576040517f08c379a00000000000000000000000000000000000000000000000000000000081526004016112dd90611ce4565b60405180910390fd5b6112f384848484036110a3565b5b50505050565b600073ffffffffffffffffffffffffffffffffffffffff168373ffffffffffffffffffffffffffffffffffffffff16141561136a576040517f08c379a000000000000000000000000000000000000000000000000000000000815260040161136190611d24565b60405180910390fd5b600073ffffffffffffffffffffffffffffffffffffffff168273ffffffffffffffffffffffffffffffffffffffff1614156113da576040517f08c379a00000000000000000000000000000000000000000000000000000000081526004016113d190611ca4565b60405180910390fd5b6113e58383836116db565b60008060008573ffffffffffffffffffffffffffffffffffffffff1673ffffffffffffffffffffffffffffffffffffffff1681526020019081526020016000205490508181101561146b576040517f08c379a000000000000000000000000000000000000000000000000000000000815260040161146290611d04565b60405180910390fd5b8181036000808673ffffffffffffffffffffffffffffffffffffffff1673ffffffffffffffffffffffffffffffffffffffff16815260200190815260200160002081905550816000808573ffffffffffffffffffffffffffffffffffffffff1673ffffffffffffffffffffffffffffffffffffffff16815260200190815260200160002060008282546114fe9190611e16565b925050819055508273ffffffffffffffffffffffffffffffffffffffff168473ffffffffffffffffffffffffffffffffffffffff167fddf252ad1be2c89b69c2b068fc378daa952ba7f163c4a11628f55a4df523b3ef846040516115629190611da4565b60405180910390a36115758484846116e0565b50505050565b600073ffffffffffffffffffffffffffffffffffffffff168273ffffffffffffffffffffffffffffffffffffffff1614156115eb576040517f08c379a00000000000000000000000000000000000000000000000000000000081526004016115e290611d84565b60405180910390fd5b6115f7600083836116db565b80600260008282546116099190611e16565b92505081905550806000808473ffffffffffffffffffffffffffffffffffffffff1673ffffffffffffffffffffffffffffffffffffffff168152602001908152602001600020600082825461165e9190611e16565b925050819055508173ffffffffffffffffffffffffffffffffffffffff16600073ffffffffffffffffffffffffffffffffffffffff167fddf252ad1be2c89b69c2b068fc378daa952ba7f163c4a11628f55a4df523b3ef836040516116c39190611da4565b60405180910390a36116d7600083836116e0565b5050565b505050565b505050565b8280546116f1906120c9565b90600052602060002090601f016020900481019282611713576000855561175a565b82601f1061172c57805160ff191683800117855561175a565b8280016001018555821561175a579182015b8281111561175957825182559160200191906001019061173e565b5b509050611767919061176b565b5090565b5b8082111561178457600081600090555060010161176c565b5090565b600081359050611797816124d5565b92915050565b6000813590506117ac816124ec565b92915050565b6000602082840312156117c8576117c7612279565b5b60006117d684828501611788565b91505092915050565b600080604083850312156117f6576117f5612279565b5b600061180485828601611788565b925050602061181585828601611788565b9150509250929050565b60008060006060848603121561183857611837612279565b5b600061184686828701611788565b935050602061185786828701611788565b92505060406118688682870161179d565b9150509250925092565b6000806040838503121561188957611888612279565b5b600061189785828601611788565b92505060206118a88582860161179d565b9150509250929050565b6000602082840312156118c8576118c7612279565b5b60006118d68482850161179d565b91505092915050565b6000806000606084860312156118f8576118f7612279565b5b60006119068682870161179d565b93505060206119178682870161179d565b92505060406119288682870161179d565b9150509250925092565b61193b81612037565b82525050565b61195261194d82612037565b61218d565b82525050565b61196181612049565b82525050565b600061197282611def565b61197c8185611dfa565b935061198c818560208601612096565b6119958161227e565b840191505092915050565b60006119ab82611def565b6119b58185611e0b565b93506119c5818560208601612096565b80840191505092915050565b600081546119de816120c9565b6119e88186611e0b565b94506001821660008114611a035760018114611a1457611a47565b60ff19831686528186019350611a47565b611a1d85611dda565b60005b83811015611a3f57815481890152600182019150602081019050611a20565b838801955050505b50505092915050565b6000611a5d602383611dfa565b9150611a68826122a9565b604082019050919050565b6000611a80602283611dfa565b9150611a8b826122f8565b604082019050919050565b6000611aa3601d83611dfa565b9150611aae82612347565b602082019050919050565b6000611ac6602683611dfa565b9150611ad182612370565b604082019050919050565b6000611ae9602583611dfa565b9150611af4826123bf565b604082019050919050565b6000611b0c602483611dfa565b9150611b178261240e565b604082019050919050565b6000611b2f602583611dfa565b9150611b3a8261245d565b604082019050919050565b6000611b52601f83611dfa565b9150611b5d826124ac565b602082019050919050565b611b718161207f565b82525050565b611b88611b838261207f565b6121b1565b82525050565b611b9781612089565b82525050565b6000611ba98286611b77565b602082019150611bb98285611941565b601482019150611bc982846119a0565b9150819050949350505050565b6000611be28286611b77565b602082019150611bf28285611941565b601482019150611c0282846119d1565b9150819050949350505050565b6000611c1b8286611b77565b602082019150611c2b8285611941565b601482019150611c3b8284611b77565b602082019150819050949350505050565b6000602082019050611c616000830184611932565b92915050565b6000602082019050611c7c6000830184611958565b92915050565b60006020820190508181036000830152611c9c8184611967565b905092915050565b60006020820190508181036000830152611cbd81611a50565b9050919050565b60006020820190508181036000830152611cdd81611a73565b9050919050565b60006020820190508181036000830152611cfd81611a96565b9050919050565b60006020820190508181036000830152611d1d81611ab9565b9050919050565b60006020820190508181036000830152611d3d81611adc565b9050919050565b60006020820190508181036000830152611d5d81611aff565b9050919050565b60006020820190508181036000830152611d7d81611b22565b9050919050565b60006020820190508181036000830152611d9d81611b45565b9050919050565b6000602082019050611db96000830184611b68565b92915050565b6000602082019050611dd46000830184611b8e565b92915050565b60008190508160005260206000209050919050565b600081519050919050565b600082825260208201905092915050565b600081905092915050565b6000611e218261207f565b9150611e2c8361207f565b9250827fffffffffffffffffffffffffffffffffffffffffffffffffffffffffffffffff03821115611e6157611e606121ec565b5b828201905092915050565b6000808291508390505b6001851115611eb657808604811115611e9257611e916121ec565b5b6001851615611ea15780820291505b8081029050611eaf8561229c565b9450611e76565b94509492505050565b6000611eca8261207f565b9150611ed583612089565b9250611f027fffffffffffffffffffffffffffffffffffffffffffffffffffffffffffffffff8484611f0a565b905092915050565b600082611f1a5760019050611fd6565b81611f285760009050611fd6565b8160018114611f3e5760028114611f4857611f77565b6001915050611fd6565b60ff841115611f5a57611f596121ec565b5b8360020a915084821115611f7157611f706121ec565b5b50611fd6565b5060208310610133831016604e8410600b8410161715611fac5782820a905083811115611fa757611fa66121ec565b5b611fd6565b611fb98484846001611e6c565b92509050818404811115611fd057611fcf6121ec565b5b81810290505b9392505050565b6000611fe88261207f565b9150611ff38361207f565b9250817fffffffffffffffffffffffffffffffffffffffffffffffffffffffffffffffff048311821515161561202c5761202b6121ec565b5b828202905092915050565b60006120428261205f565b9050919050565b60008115159050919050565b6000819050919050565b600073ffffffffffffffffffffffffffffffffffffffff82169050919050565b6000819050919050565b600060ff82169050919050565b60005b838110156120b4578082015181840152602081019050612099565b838111156120c3576000848401525b50505050565b600060028204905060018216806120e157607f821691505b602082108114156120f5576120f461224a565b5b50919050565b600061210682612055565b91507f7fffffffffffffffffffffffffffffffffffffffffffffffffffffffffffffff821415612139576121386121ec565b5b600182019050919050565b600061214f8261207f565b91507fffffffffffffffffffffffffffffffffffffffffffffffffffffffffffffffff821415612182576121816121ec565b5b600182019050919050565b60006121988261219f565b9050919050565b60006121aa8261228f565b9050919050565b6000819050919050565b60006121c68261207f565b91506121d18361207f565b9250826121e1576121e061221b565b5b828206905092915050565b7f4e487b7100000000000000000000000000000000000000000000000000000000600052601160045260246000fd5b7f4e487b7100000000000000000000000000000000000000000000000000000000600052601260045260246000fd5b7f4e487b7100000000000000000000000000000000000000000000000000000000600052602260045260246000fd5b600080fd5b6000601f19601f8301169050919050565b60008160601b9050919050565b60008160011c9050919050565b7f45524332303a207472616e7366657220746f20746865207a65726f206164647260008201527f6573730000000000000000000000000000000000000000000000000000000000602082015250565b7f45524332303a20617070726f766520746f20746865207a65726f20616464726560008201527f7373000000000000000000000000000000000000000000000000000000000000602082015250565b7f45524332303a20696e73756666696369656e7420616c6c6f77616e6365000000600082015250565b7f45524332303a207472616e7366657220616d6f756e742065786365656473206260008201527f616c616e63650000000000000000000000000000000000000000000000000000602082015250565b7f45524332303a207472616e736665722066726f6d20746865207a65726f20616460008201527f6472657373000000000000000000000000000000000000000000000000000000602082015250565b7f45524332303a20617070726f76652066726f6d20746865207a65726f2061646460008201527f7265737300000000000000000000000000000000000000000000000000000000602082015250565b7f45524332303a2064656372656173656420616c6c6f77616e63652062656c6f7760008201527f207a65726f000000000000000000000000000000000000000000000000000000602082015250565b7f45524332303a206d696e7420746f20746865207a65726f206164647265737300600082015250565b6124de81612037565b81146124e957600080fd5b50565b6124f58161207f565b811461250057600080fd5b5056fea26469706673582212203cc2dea6749525feb88c0303ce8e2859b5120f32ba86f3bea9aa6009d43f7b6064736f6c63430008070033",
					"opcodes": "PUSH1 0x80 PUSH1 0x40 MSTORE PUSH1 0x0 PUSH1 0x9 SSTORE CALLVALUE DUP1 ISZERO PUSH3 0x16 JUMPI PUSH1 0x0 DUP1 REVERT JUMPDEST POP PUSH1 0x40 MLOAD DUP1 PUSH1 0x40 ADD PUSH1 0x40 MSTORE DUP1 PUSH1 0x8 DUP2 MSTORE PUSH1 0x20 ADD PUSH32 0x47616D65436F696E000000000000000000000000000000000000000000000000 DUP2 MSTORE POP PUSH1 0x40 MLOAD DUP1 PUSH1 0x40 ADD PUSH1 0x40 MSTORE DUP1 PUSH1 0x5 DUP2 MSTORE PUSH1 0x20 ADD PUSH32 0x416C696365000000000000000000000000000000000000000000000000000000 DUP2 MSTORE POP DUP2 PUSH1 0x3 SWAP1 DUP1 MLOAD SWAP1 PUSH1 0x20 ADD SWAP1 PUSH3 0x9B SWAP3 SWAP2 SWAP1 PUSH3 0xFE JUMP JUMPDEST POP DUP1 PUSH1 0x4 SWAP1 DUP1 MLOAD SWAP1 PUSH1 0x20 ADD SWAP1 PUSH3 0xB4 SWAP3 SWAP2 SWAP1 PUSH3 0xFE JUMP JUMPDEST POP POP POP CALLER PUSH1 0x5 PUSH1 0x0 PUSH2 0x100 EXP DUP2 SLOAD DUP2 PUSH20 0xFFFFFFFFFFFFFFFFFFFFFFFFFFFFFFFFFFFFFFFF MUL NOT AND SWAP1 DUP4 PUSH20 0xFFFFFFFFFFFFFFFFFFFFFFFFFFFFFFFFFFFFFFFF AND MUL OR SWAP1 SSTORE POP PUSH3 0x213 JUMP JUMPDEST DUP3 DUP1 SLOAD PUSH3 0x10C SWAP1 PUSH3 0x1AE JUMP JUMPDEST SWAP1 PUSH1 0x0 MSTORE PUSH1 0x20 PUSH1 0x0 KECCAK256 SWAP1 PUSH1 0x1F ADD PUSH1 0x20 SWAP1 DIV DUP2 ADD SWAP3 DUP3 PUSH3 0x130 JUMPI PUSH1 0x0 DUP6 SSTORE PUSH3 0x17C JUMP JUMPDEST DUP3 PUSH1 0x1F LT PUSH3 0x14B JUMPI DUP1 MLOAD PUSH1 0xFF NOT AND DUP4 DUP1 ADD OR DUP6 SSTORE PUSH3 0x17C JUMP JUMPDEST DUP3 DUP1 ADD PUSH1 0x1 ADD DUP6 SSTORE DUP3 ISZERO PUSH3 0x17C JUMPI SWAP2 DUP3 ADD JUMPDEST DUP3 DUP2 GT ISZERO PUSH3 0x17B JUMPI DUP3 MLOAD DUP3 SSTORE SWAP2 PUSH1 0x20 ADD SWAP2 SWAP1 PUSH1 0x1 ADD SWAP1 PUSH3 0x15E JUMP JUMPDEST JUMPDEST POP SWAP1 POP PUSH3 0x18B SWAP2 SWAP1 PUSH3 0x18F JUMP JUMPDEST POP SWAP1 JUMP JUMPDEST JUMPDEST DUP1 DUP3 GT ISZERO PUSH3 0x1AA JUMPI PUSH1 0x0 DUP2 PUSH1 0x0 SWAP1 SSTORE POP PUSH1 0x1 ADD PUSH3 0x190 JUMP JUMPDEST POP SWAP1 JUMP JUMPDEST PUSH1 0x0 PUSH1 0x2 DUP3 DIV SWAP1 POP PUSH1 0x1 DUP3 AND DUP1 PUSH3 0x1C7 JUMPI PUSH1 0x7F DUP3 AND SWAP2 POP JUMPDEST PUSH1 0x20 DUP3 LT DUP2 EQ ISZERO PUSH3 0x1DE JUMPI PUSH3 0x1DD PUSH3 0x1E4 JUMP JUMPDEST JUMPDEST POP SWAP2 SWAP1 POP JUMP JUMPDEST PUSH32 0x4E487B7100000000000000000000000000000000000000000000000000000000 PUSH1 0x0 MSTORE PUSH1 0x22 PUSH1 0x4 MSTORE PUSH1 0x24 PUSH1 0x0 REVERT JUMPDEST PUSH2 0x2539 DUP1 PUSH3 0x223 PUSH1 0x0 CODECOPY PUSH1 0x0 RETURN INVALID PUSH1 0x80 PUSH1 0x40 MSTORE CALLVALUE DUP1 ISZERO PUSH2 0x10 JUMPI PUSH1 0x0 DUP1 REVERT JUMPDEST POP PUSH1 0x4 CALLDATASIZE LT PUSH2 0x12C JUMPI PUSH1 0x0 CALLDATALOAD PUSH1 0xE0 SHR DUP1 PUSH4 0x8AE7FBE2 GT PUSH2 0xAD JUMPI DUP1 PUSH4 0xA457C2D7 GT PUSH2 0x71 JUMPI DUP1 PUSH4 0xA457C2D7 EQ PUSH2 0x35D JUMPI DUP1 PUSH4 0xA9059CBB EQ PUSH2 0x38D JUMPI DUP1 PUSH4 0xB76D9CC1 EQ PUSH2 0x3BD JUMPI DUP1 PUSH4 0xB7DDA85E EQ PUSH2 0x3DB JUMPI DUP1 PUSH4 0xDD62ED3E EQ PUSH2 0x40B JUMPI PUSH2 0x12C JUMP JUMPDEST DUP1 PUSH4 0x8AE7FBE2 EQ PUSH2 0x2B7 JUMPI DUP1 PUSH4 0x8DA5CB5B EQ PUSH2 0x2D5 JUMPI DUP1 PUSH4 0x95D89B41 EQ PUSH2 0x2F3 JUMPI DUP1 PUSH4 0xA0712D68 EQ PUSH2 0x311 JUMPI DUP1 PUSH4 0xA3B1F6CC EQ PUSH2 0x32D JUMPI PUSH2 0x12C JUMP JUMPDEST DUP1 PUSH4 0x2A344F8E GT PUSH2 0xF4 JUMPI DUP1 PUSH4 0x2A344F8E EQ PUSH2 0x1FD JUMPI DUP1 PUSH4 0x313CE567 EQ PUSH2 0x21B JUMPI DUP1 PUSH4 0x39509351 EQ PUSH2 0x239 JUMPI DUP1 PUSH4 0x4802D378 EQ PUSH2 0x269 JUMPI DUP1 PUSH4 0x70A08231 EQ PUSH2 0x287 JUMPI PUSH2 0x12C JUMP JUMPDEST DUP1 PUSH4 0x6FDDE03 EQ PUSH2 0x131 JUMPI DUP1 PUSH4 0x95EA7B3 EQ PUSH2 0x14F JUMPI DUP1 PUSH4 0x18160DDD EQ PUSH2 0x17F JUMPI DUP1 PUSH4 0x19C6B708 EQ PUSH2 0x19D JUMPI DUP1 PUSH4 0x23B872DD EQ PUSH2 0x1CD JUMPI JUMPDEST PUSH1 0x0 DUP1 REVERT JUMPDEST PUSH2 0x139 PUSH2 0x43B JUMP JUMPDEST PUSH1 0x40 MLOAD PUSH2 0x146 SWAP2 SWAP1 PUSH2 0x1C82 JUMP JUMPDEST PUSH1 0x40 MLOAD DUP1 SWAP2 SUB SWAP1 RETURN JUMPDEST PUSH2 0x169 PUSH1 0x4 DUP1 CALLDATASIZE SUB DUP2 ADD SWAP1 PUSH2 0x164 SWAP2 SWAP1 PUSH2 0x1872 JUMP JUMPDEST PUSH2 0x4CD JUMP JUMPDEST PUSH1 0x40 MLOAD PUSH2 0x176 SWAP2 SWAP1 PUSH2 0x1C67 JUMP JUMPDEST PUSH1 0x40 MLOAD DUP1 SWAP2 SUB SWAP1 RETURN JUMPDEST PUSH2 0x187 PUSH2 0x4F0 JUMP JUMPDEST PUSH1 0x40 MLOAD PUSH2 0x194 SWAP2 SWAP1 PUSH2 0x1DA4 JUMP JUMPDEST PUSH1 0x40 MLOAD DUP1 SWAP2 SUB SWAP1 RETURN JUMPDEST PUSH2 0x1B7 PUSH1 0x4 DUP1 CALLDATASIZE SUB DUP2 ADD SWAP1 PUSH2 0x1B2 SWAP2 SWAP1 PUSH2 0x18B2 JUMP JUMPDEST PUSH2 0x4FA JUMP JUMPDEST PUSH1 0x40 MLOAD PUSH2 0x1C4 SWAP2 SWAP1 PUSH2 0x1C67 JUMP JUMPDEST PUSH1 0x40 MLOAD DUP1 SWAP2 SUB SWAP1 RETURN JUMPDEST PUSH2 0x1E7 PUSH1 0x4 DUP1 CALLDATASIZE SUB DUP2 ADD SWAP1 PUSH2 0x1E2 SWAP2 SWAP1 PUSH2 0x181F JUMP JUMPDEST PUSH2 0x608 JUMP JUMPDEST PUSH1 0x40 MLOAD PUSH2 0x1F4 SWAP2 SWAP1 PUSH2 0x1C67 JUMP JUMPDEST PUSH1 0x40 MLOAD DUP1 SWAP2 SUB SWAP1 RETURN JUMPDEST PUSH2 0x205 PUSH2 0x637 JUMP JUMPDEST PUSH1 0x40 MLOAD PUSH2 0x212 SWAP2 SWAP1 PUSH2 0x1C82 JUMP JUMPDEST PUSH1 0x40 MLOAD DUP1 SWAP2 SUB SWAP1 RETURN JUMPDEST PUSH2 0x223 PUSH2 0x6C9 JUMP JUMPDEST PUSH1 0x40 MLOAD PUSH2 0x230 SWAP2 SWAP1 PUSH2 0x1DBF JUMP JUMPDEST PUSH1 0x40 MLOAD DUP1 SWAP2 SUB SWAP1 RETURN JUMPDEST PUSH2 0x253 PUSH1 0x4 DUP1 CALLDATASIZE SUB DUP2 ADD SWAP1 PUSH2 0x24E SWAP2 SWAP1 PUSH2 0x1872 JUMP JUMPDEST PUSH2 0x6D2 JUMP JUMPDEST PUSH1 0x40 MLOAD PUSH2 0x260 SWAP2 SWAP1 PUSH2 0x1C67 JUMP JUMPDEST PUSH1 0x40 MLOAD DUP1 SWAP2 SUB SWAP1 RETURN JUMPDEST PUSH2 0x271 PUSH2 0x709 JUMP JUMPDEST PUSH1 0x40 MLOAD PUSH2 0x27E SWAP2 SWAP1 PUSH2 0x1C82 JUMP JUMPDEST PUSH1 0x40 MLOAD DUP1 SWAP2 SUB SWAP1 RETURN JUMPDEST PUSH2 0x2A1 PUSH1 0x4 DUP1 CALLDATASIZE SUB DUP2 ADD SWAP1 PUSH2 0x29C SWAP2 SWAP1 PUSH2 0x17B2 JUMP JUMPDEST PUSH2 0x79B JUMP JUMPDEST PUSH1 0x40 MLOAD PUSH2 0x2AE SWAP2 SWAP1 PUSH2 0x1DA4 JUMP JUMPDEST PUSH1 0x40 MLOAD DUP1 SWAP2 SUB SWAP1 RETURN JUMPDEST PUSH2 0x2BF PUSH2 0x7E3 JUMP JUMPDEST PUSH1 0x40 MLOAD PUSH2 0x2CC SWAP2 SWAP1 PUSH2 0x1C67 JUMP JUMPDEST PUSH1 0x40 MLOAD DUP1 SWAP2 SUB SWAP1 RETURN JUMPDEST PUSH2 0x2DD PUSH2 0x969 JUMP JUMPDEST PUSH1 0x40 MLOAD PUSH2 0x2EA SWAP2 SWAP1 PUSH2 0x1C4C JUMP JUMPDEST PUSH1 0x40 MLOAD DUP1 SWAP2 SUB SWAP1 RETURN JUMPDEST PUSH2 0x2FB PUSH2 0x98F JUMP JUMPDEST PUSH1 0x40 MLOAD PUSH2 0x308 SWAP2 SWAP1 PUSH2 0x1C82 JUMP JUMPDEST PUSH1 0x40 MLOAD DUP1 SWAP2 SUB SWAP1 RETURN JUMPDEST PUSH2 0x32B PUSH1 0x4 DUP1 CALLDATASIZE SUB DUP2 ADD SWAP1 PUSH2 0x326 SWAP2 SWAP1 PUSH2 0x18B2 JUMP JUMPDEST PUSH2 0xA21 JUMP JUMPDEST STOP JUMPDEST PUSH2 0x347 PUSH1 0x4 DUP1 CALLDATASIZE SUB DUP2 ADD SWAP1 PUSH2 0x342 SWAP2 SWAP1 PUSH2 0x18DF JUMP JUMPDEST PUSH2 0xA6E JUMP JUMPDEST PUSH1 0x40 MLOAD PUSH2 0x354 SWAP2 SWAP1 PUSH2 0x1C82 JUMP JUMPDEST PUSH1 0x40 MLOAD DUP1 SWAP2 SUB SWAP1 RETURN JUMPDEST PUSH2 0x377 PUSH1 0x4 DUP1 CALLDATASIZE SUB DUP2 ADD SWAP1 PUSH2 0x372 SWAP2 SWAP1 PUSH2 0x1872 JUMP JUMPDEST PUSH2 0xDC4 JUMP JUMPDEST PUSH1 0x40 MLOAD PUSH2 0x384 SWAP2 SWAP1 PUSH2 0x1C67 JUMP JUMPDEST PUSH1 0x40 MLOAD DUP1 SWAP2 SUB SWAP1 RETURN JUMPDEST PUSH2 0x3A7 PUSH1 0x4 DUP1 CALLDATASIZE SUB DUP2 ADD SWAP1 PUSH2 0x3A2 SWAP2 SWAP1 PUSH2 0x1872 JUMP JUMPDEST PUSH2 0xE3B JUMP JUMPDEST PUSH1 0x40 MLOAD PUSH2 0x3B4 SWAP2 SWAP1 PUSH2 0x1C67 JUMP JUMPDEST PUSH1 0x40 MLOAD DUP1 SWAP2 SUB SWAP1 RETURN JUMPDEST PUSH2 0x3C5 PUSH2 0xE74 JUMP JUMPDEST PUSH1 0x40 MLOAD PUSH2 0x3D2 SWAP2 SWAP1 PUSH2 0x1C82 JUMP JUMPDEST PUSH1 0x40 MLOAD DUP1 SWAP2 SUB SWAP1 RETURN JUMPDEST PUSH2 0x3F5 PUSH1 0x4 DUP1 CALLDATASIZE SUB DUP2 ADD SWAP1 PUSH2 0x3F0 SWAP2 SWAP1 PUSH2 0x18B2 JUMP JUMPDEST PUSH2 0xF06 JUMP JUMPDEST PUSH1 0x40 MLOAD PUSH2 0x402 SWAP2 SWAP1 PUSH2 0x1C67 JUMP JUMPDEST PUSH1 0x40 MLOAD DUP1 SWAP2 SUB SWAP1 RETURN JUMPDEST PUSH2 0x425 PUSH1 0x4 DUP1 CALLDATASIZE SUB DUP2 ADD SWAP1 PUSH2 0x420 SWAP2 SWAP1 PUSH2 0x17DF JUMP JUMPDEST PUSH2 0x1014 JUMP JUMPDEST PUSH1 0x40 MLOAD PUSH2 0x432 SWAP2 SWAP1 PUSH2 0x1DA4 JUMP JUMPDEST PUSH1 0x40 MLOAD DUP1 SWAP2 SUB SWAP1 RETURN JUMPDEST PUSH1 0x60 PUSH1 0x3 DUP1 SLOAD PUSH2 0x44A SWAP1 PUSH2 0x20C9 JUMP JUMPDEST DUP1 PUSH1 0x1F ADD PUSH1 0x20 DUP1 SWAP2 DIV MUL PUSH1 0x20 ADD PUSH1 0x40 MLOAD SWAP1 DUP2 ADD PUSH1 0x40 MSTORE DUP1 SWAP3 SWAP2 SWAP1 DUP2 DUP2 MSTORE PUSH1 0x20 ADD DUP3 DUP1 SLOAD PUSH2 0x476 SWAP1 PUSH2 0x20C9 JUMP JUMPDEST DUP1 ISZERO PUSH2 0x4C3 JUMPI DUP1 PUSH1 0x1F LT PUSH2 0x498 JUMPI PUSH2 0x100 DUP1 DUP4 SLOAD DIV MUL DUP4 MSTORE SWAP2 PUSH1 0x20 ADD SWAP2 PUSH2 0x4C3 JUMP JUMPDEST DUP3 ADD SWAP2 SWAP1 PUSH1 0x0 MSTORE PUSH1 0x20 PUSH1 0x0 KECCAK256 SWAP1 JUMPDEST DUP2 SLOAD DUP2 MSTORE SWAP1 PUSH1 0x1 ADD SWAP1 PUSH1 0x20 ADD DUP1 DUP4 GT PUSH2 0x4A6 JUMPI DUP3 SWAP1 SUB PUSH1 0x1F AND DUP3 ADD SWAP2 JUMPDEST POP POP POP POP POP SWAP1 POP SWAP1 JUMP JUMPDEST PUSH1 0x0 DUP1 PUSH2 0x4D8 PUSH2 0x109B JUMP JUMPDEST SWAP1 POP PUSH2 0x4E5 DUP2 DUP6 DUP6 PUSH2 0x10A3 JUMP JUMPDEST PUSH1 0x1 SWAP2 POP POP SWAP3 SWAP2 POP POP JUMP JUMPDEST PUSH1 0x0 PUSH1 0x2 SLOAD SWAP1 POP SWAP1 JUMP JUMPDEST PUSH1 0x0 DUP1 PUSH1 0x40 MLOAD DUP1 PUSH1 0x40 ADD PUSH1 0x40 MSTORE DUP1 PUSH1 0x9 DUP2 MSTORE PUSH1 0x20 ADD PUSH32 0x796F752077696E21210000000000000000000000000000000000000000000000 DUP2 MSTORE POP SWAP1 POP PUSH1 0x0 PUSH1 0x40 MLOAD DUP1 PUSH1 0x40 ADD PUSH1 0x40 MSTORE DUP1 PUSH1 0x8 DUP2 MSTORE PUSH1 0x20 ADD PUSH32 0x796F75206C6F7365000000000000000000000000000000000000000000000000 DUP2 MSTORE POP SWAP1 POP PUSH1 0x0 PUSH1 0x64 TIMESTAMP CALLER PUSH1 0x9 SLOAD PUSH1 0x40 MLOAD PUSH1 0x20 ADD PUSH2 0x58A SWAP4 SWAP3 SWAP2 SWAP1 PUSH2 0x1C0F JUMP JUMPDEST PUSH1 0x40 MLOAD PUSH1 0x20 DUP2 DUP4 SUB SUB DUP2 MSTORE SWAP1 PUSH1 0x40 MSTORE DUP1 MLOAD SWAP1 PUSH1 0x20 ADD KECCAK256 PUSH1 0x0 SHR PUSH2 0x5AD SWAP2 SWAP1 PUSH2 0x21BB JUMP JUMPDEST SWAP1 POP PUSH1 0x0 PUSH1 0x64 DUP7 PUSH2 0x5BE SWAP2 SWAP1 PUSH2 0x21BB JUMP JUMPDEST SWAP1 POP DUP1 DUP3 LT PUSH2 0x5E3 JUMPI DUP3 PUSH1 0x7 SWAP1 DUP1 MLOAD SWAP1 PUSH1 0x20 ADD SWAP1 PUSH2 0x5DD SWAP3 SWAP2 SWAP1 PUSH2 0x16E5 JUMP JUMPDEST POP PUSH2 0x5FB JUMP JUMPDEST DUP4 PUSH1 0x7 SWAP1 DUP1 MLOAD SWAP1 PUSH1 0x20 ADD SWAP1 PUSH2 0x5F9 SWAP3 SWAP2 SWAP1 PUSH2 0x16E5 JUMP JUMPDEST POP JUMPDEST PUSH1 0x1 SWAP5 POP POP POP POP POP SWAP2 SWAP1 POP JUMP JUMPDEST PUSH1 0x0 DUP1 PUSH2 0x613 PUSH2 0x109B JUMP JUMPDEST SWAP1 POP PUSH2 0x620 DUP6 DUP3 DUP6 PUSH2 0x126E JUMP JUMPDEST PUSH2 0x62B DUP6 DUP6 DUP6 PUSH2 0x12FA JUMP JUMPDEST PUSH1 0x1 SWAP2 POP POP SWAP4 SWAP3 POP POP POP JUMP JUMPDEST PUSH1 0x60 PUSH1 0x7 DUP1 SLOAD PUSH2 0x646 SWAP1 PUSH2 0x20C9 JUMP JUMPDEST DUP1 PUSH1 0x1F ADD PUSH1 0x20 DUP1 SWAP2 DIV MUL PUSH1 0x20 ADD PUSH1 0x40 MLOAD SWAP1 DUP2 ADD PUSH1 0x40 MSTORE DUP1 SWAP3 SWAP2 SWAP1 DUP2 DUP2 MSTORE PUSH1 0x20 ADD DUP3 DUP1 SLOAD PUSH2 0x672 SWAP1 PUSH2 0x20C9 JUMP JUMPDEST DUP1 ISZERO PUSH2 0x6BF JUMPI DUP1 PUSH1 0x1F LT PUSH2 0x694 JUMPI PUSH2 0x100 DUP1 DUP4 SLOAD DIV MUL DUP4 MSTORE SWAP2 PUSH1 0x20 ADD SWAP2 PUSH2 0x6BF JUMP JUMPDEST DUP3 ADD SWAP2 SWAP1 PUSH1 0x0 MSTORE PUSH1 0x20 PUSH1 0x0 KECCAK256 SWAP1 JUMPDEST DUP2 SLOAD DUP2 MSTORE SWAP1 PUSH1 0x1 ADD SWAP1 PUSH1 0x20 ADD DUP1 DUP4 GT PUSH2 0x6A2 JUMPI DUP3 SWAP1 SUB PUSH1 0x1F AND DUP3 ADD SWAP2 JUMPDEST POP POP POP POP POP SWAP1 POP SWAP1 JUMP JUMPDEST PUSH1 0x0 PUSH1 0x12 SWAP1 POP SWAP1 JUMP JUMPDEST PUSH1 0x0 DUP1 PUSH2 0x6DD PUSH2 0x109B JUMP JUMPDEST SWAP1 POP PUSH2 0x6FE DUP2 DUP6 DUP6 PUSH2 0x6EF DUP6 DUP10 PUSH2 0x1014 JUMP JUMPDEST PUSH2 0x6F9 SWAP2 SWAP1 PUSH2 0x1E16 JUMP JUMPDEST PUSH2 0x10A3 JUMP JUMPDEST PUSH1 0x1 SWAP2 POP POP SWAP3 SWAP2 POP POP JUMP JUMPDEST PUSH1 0x60 PUSH1 0x6 DUP1 SLOAD PUSH2 0x718 SWAP1 PUSH2 0x20C9 JUMP JUMPDEST DUP1 PUSH1 0x1F ADD PUSH1 0x20 DUP1 SWAP2 DIV MUL PUSH1 0x20 ADD PUSH1 0x40 MLOAD SWAP1 DUP2 ADD PUSH1 0x40 MSTORE DUP1 SWAP3 SWAP2 SWAP1 DUP2 DUP2 MSTORE PUSH1 0x20 ADD DUP3 DUP1 SLOAD PUSH2 0x744 SWAP1 PUSH2 0x20C9 JUMP JUMPDEST DUP1 ISZERO PUSH2 0x791 JUMPI DUP1 PUSH1 0x1F LT PUSH2 0x766 JUMPI PUSH2 0x100 DUP1 DUP4 SLOAD DIV MUL DUP4 MSTORE SWAP2 PUSH1 0x20 ADD SWAP2 PUSH2 0x791 JUMP JUMPDEST DUP3 ADD SWAP2 SWAP1 PUSH1 0x0 MSTORE PUSH1 0x20 PUSH1 0x0 KECCAK256 SWAP1 JUMPDEST DUP2 SLOAD DUP2 MSTORE SWAP1 PUSH1 0x1 ADD SWAP1 PUSH1 0x20 ADD DUP1 DUP4 GT PUSH2 0x774 JUMPI DUP3 SWAP1 SUB PUSH1 0x1F AND DUP3 ADD SWAP2 JUMPDEST POP POP POP POP POP SWAP1 POP SWAP1 JUMP JUMPDEST PUSH1 0x0 DUP1 PUSH1 0x0 DUP4 PUSH20 0xFFFFFFFFFFFFFFFFFFFFFFFFFFFFFFFFFFFFFFFF AND PUSH20 0xFFFFFFFFFFFFFFFFFFFFFFFFFFFFFFFFFFFFFFFF AND DUP2 MSTORE PUSH1 0x20 ADD SWAP1 DUP2 MSTORE PUSH1 0x20 ADD PUSH1 0x0 KECCAK256 SLOAD SWAP1 POP SWAP2 SWAP1 POP JUMP JUMPDEST PUSH1 0x0 DUP1 PUSH1 0x40 MLOAD DUP1 PUSH1 0x40 ADD PUSH1 0x40 MSTORE DUP1 PUSH1 0x9 DUP2 MSTORE PUSH1 0x20 ADD PUSH32 0x796F752077696E21210000000000000000000000000000000000000000000000 DUP2 MSTORE POP SWAP1 POP PUSH1 0x0 TIMESTAMP CALLER DUP4 PUSH1 0x40 MLOAD PUSH1 0x20 ADD PUSH2 0x835 SWAP4 SWAP3 SWAP2 SWAP1 PUSH2 0x1B9D JUMP JUMPDEST PUSH1 0x40 MLOAD PUSH1 0x20 DUP2 DUP4 SUB SUB DUP2 MSTORE SWAP1 PUSH1 0x40 MSTORE DUP1 MLOAD SWAP1 PUSH1 0x20 ADD KECCAK256 TIMESTAMP CALLER PUSH1 0x6 PUSH1 0x40 MLOAD PUSH1 0x20 ADD PUSH2 0x861 SWAP4 SWAP3 SWAP2 SWAP1 PUSH2 0x1BD6 JUMP JUMPDEST PUSH1 0x40 MLOAD PUSH1 0x20 DUP2 DUP4 SUB SUB DUP2 MSTORE SWAP1 PUSH1 0x40 MSTORE DUP1 MLOAD SWAP1 PUSH1 0x20 ADD KECCAK256 EQ ISZERO PUSH2 0x88C JUMPI DUP1 DUP1 PUSH2 0x888 SWAP1 PUSH2 0x20FB JUMP JUMPDEST SWAP2 POP POP JUMPDEST TIMESTAMP CALLER DUP4 PUSH1 0x40 MLOAD PUSH1 0x20 ADD PUSH2 0x8A1 SWAP4 SWAP3 SWAP2 SWAP1 PUSH2 0x1B9D JUMP JUMPDEST PUSH1 0x40 MLOAD PUSH1 0x20 DUP2 DUP4 SUB SUB DUP2 MSTORE SWAP1 PUSH1 0x40 MSTORE DUP1 MLOAD SWAP1 PUSH1 0x20 ADD KECCAK256 TIMESTAMP CALLER PUSH1 0x7 PUSH1 0x40 MLOAD PUSH1 0x20 ADD PUSH2 0x8CD SWAP4 SWAP3 SWAP2 SWAP1 PUSH2 0x1BD6 JUMP JUMPDEST PUSH1 0x40 MLOAD PUSH1 0x20 DUP2 DUP4 SUB SUB DUP2 MSTORE SWAP1 PUSH1 0x40 MSTORE DUP1 MLOAD SWAP1 PUSH1 0x20 ADD KECCAK256 EQ ISZERO PUSH2 0x8F8 JUMPI DUP1 DUP1 PUSH2 0x8F4 SWAP1 PUSH2 0x20FB JUMP JUMPDEST SWAP2 POP POP JUMPDEST TIMESTAMP CALLER DUP4 PUSH1 0x40 MLOAD PUSH1 0x20 ADD PUSH2 0x90D SWAP4 SWAP3 SWAP2 SWAP1 PUSH2 0x1B9D JUMP JUMPDEST PUSH1 0x40 MLOAD PUSH1 0x20 DUP2 DUP4 SUB SUB DUP2 MSTORE SWAP1 PUSH1 0x40 MSTORE DUP1 MLOAD SWAP1 PUSH1 0x20 ADD KECCAK256 TIMESTAMP CALLER PUSH1 0x8 PUSH1 0x40 MLOAD PUSH1 0x20 ADD PUSH2 0x939 SWAP4 SWAP3 SWAP2 SWAP1 PUSH2 0x1BD6 JUMP JUMPDEST PUSH1 0x40 MLOAD PUSH1 0x20 DUP2 DUP4 SUB SUB DUP2 MSTORE SWAP1 PUSH1 0x40 MSTORE DUP1 MLOAD SWAP1 PUSH1 0x20 ADD KECCAK256 EQ ISZERO PUSH2 0x964 JUMPI DUP1 DUP1 PUSH2 0x960 SWAP1 PUSH2 0x20FB JUMP JUMPDEST SWAP2 POP POP JUMPDEST POP POP SWAP1 JUMP JUMPDEST PUSH1 0x5 PUSH1 0x0 SWAP1 SLOAD SWAP1 PUSH2 0x100 EXP SWAP1 DIV PUSH20 0xFFFFFFFFFFFFFFFFFFFFFFFFFFFFFFFFFFFFFFFF AND DUP2 JUMP JUMPDEST PUSH1 0x60 PUSH1 0x4 DUP1 SLOAD PUSH2 0x99E SWAP1 PUSH2 0x20C9 JUMP JUMPDEST DUP1 PUSH1 0x1F ADD PUSH1 0x20 DUP1 SWAP2 DIV MUL PUSH1 0x20 ADD PUSH1 0x40 MLOAD SWAP1 DUP2 ADD PUSH1 0x40 MSTORE DUP1 SWAP3 SWAP2 SWAP1 DUP2 DUP2 MSTORE PUSH1 0x20 ADD DUP3 DUP1 SLOAD PUSH2 0x9CA SWAP1 PUSH2 0x20C9 JUMP JUMPDEST DUP1 ISZERO PUSH2 0xA17 JUMPI DUP1 PUSH1 0x1F LT PUSH2 0x9EC JUMPI PUSH2 0x100 DUP1 DUP4 SLOAD DIV MUL DUP4 MSTORE SWAP2 PUSH1 0x20 ADD SWAP2 PUSH2 0xA17 JUMP JUMPDEST DUP3 ADD SWAP2 SWAP1 PUSH1 0x0 MSTORE PUSH1 0x20 PUSH1 0x0 KECCAK256 SWAP1 JUMPDEST DUP2 SLOAD DUP2 MSTORE SWAP1 PUSH1 0x1 ADD SWAP1 PUSH1 0x20 ADD DUP1 DUP4 GT PUSH2 0x9FA JUMPI DUP3 SWAP1 SUB PUSH1 0x1F AND DUP3 ADD SWAP2 JUMPDEST POP POP POP POP POP SWAP1 POP SWAP1 JUMP JUMPDEST PUSH2 0xA6B PUSH1 0x5 PUSH1 0x0 SWAP1 SLOAD SWAP1 PUSH2 0x100 EXP SWAP1 DIV PUSH20 0xFFFFFFFFFFFFFFFFFFFFFFFFFFFFFFFFFFFFFFFF AND PUSH2 0xA4F PUSH2 0x6C9 JUMP JUMPDEST PUSH1 0xA PUSH2 0xA5B SWAP2 SWAP1 PUSH2 0x1EBF JUMP JUMPDEST DUP4 PUSH2 0xA66 SWAP2 SWAP1 PUSH2 0x1FDD JUMP JUMPDEST PUSH2 0x157B JUMP JUMPDEST POP JUMP JUMPDEST PUSH1 0x60 PUSH1 0x0 PUSH1 0x40 MLOAD DUP1 PUSH1 0x40 ADD PUSH1 0x40 MSTORE DUP1 PUSH1 0x9 DUP2 MSTORE PUSH1 0x20 ADD PUSH32 0x796F752077696E21210000000000000000000000000000000000000000000000 DUP2 MSTORE POP SWAP1 POP PUSH1 0x0 PUSH1 0x40 MLOAD DUP1 PUSH1 0x40 ADD PUSH1 0x40 MSTORE DUP1 PUSH1 0x8 DUP2 MSTORE PUSH1 0x20 ADD PUSH32 0x796F75206C6F7365000000000000000000000000000000000000000000000000 DUP2 MSTORE POP SWAP1 POP PUSH1 0x0 DUP1 PUSH1 0x3 DUP9 PUSH2 0xAF4 SWAP2 SWAP1 PUSH2 0x21BB JUMP JUMPDEST SWAP1 POP PUSH1 0x0 PUSH1 0x3 DUP9 PUSH2 0xB05 SWAP2 SWAP1 PUSH2 0x21BB JUMP JUMPDEST SWAP1 POP PUSH1 0x0 PUSH1 0x3 DUP9 PUSH2 0xB16 SWAP2 SWAP1 PUSH2 0x21BB JUMP JUMPDEST SWAP1 POP PUSH1 0x0 PUSH1 0x3 TIMESTAMP CALLER PUSH1 0x9 SLOAD PUSH1 0x40 MLOAD PUSH1 0x20 ADD PUSH2 0xB33 SWAP4 SWAP3 SWAP2 SWAP1 PUSH2 0x1C0F JUMP JUMPDEST PUSH1 0x40 MLOAD PUSH1 0x20 DUP2 DUP4 SUB SUB DUP2 MSTORE SWAP1 PUSH1 0x40 MSTORE DUP1 MLOAD SWAP1 PUSH1 0x20 ADD KECCAK256 PUSH1 0x0 SHR PUSH2 0xB56 SWAP2 SWAP1 PUSH2 0x21BB JUMP JUMPDEST SWAP1 POP PUSH1 0x0 DUP5 EQ ISZERO PUSH2 0xB7A JUMPI PUSH1 0x1 DUP2 EQ ISZERO PUSH2 0xB79 JUMPI DUP5 DUP1 PUSH2 0xB75 SWAP1 PUSH2 0x2144 JUMP JUMPDEST SWAP6 POP POP JUMPDEST JUMPDEST PUSH1 0x1 DUP5 EQ ISZERO PUSH2 0xB9C JUMPI PUSH1 0x2 DUP2 EQ ISZERO PUSH2 0xB9B JUMPI DUP5 DUP1 PUSH2 0xB97 SWAP1 PUSH2 0x2144 JUMP JUMPDEST SWAP6 POP POP JUMPDEST JUMPDEST PUSH1 0x2 DUP5 EQ ISZERO PUSH2 0xBBE JUMPI PUSH1 0x0 DUP2 EQ ISZERO PUSH2 0xBBD JUMPI DUP5 DUP1 PUSH2 0xBB9 SWAP1 PUSH2 0x2144 JUMP JUMPDEST SWAP6 POP POP JUMPDEST JUMPDEST PUSH1 0x0 DUP5 EQ ISZERO PUSH2 0xBE0 JUMPI PUSH1 0x1 DUP2 EQ ISZERO PUSH2 0xBDF JUMPI DUP5 DUP1 PUSH2 0xBDB SWAP1 PUSH2 0x2144 JUMP JUMPDEST SWAP6 POP POP JUMPDEST JUMPDEST PUSH1 0x1 DUP5 EQ ISZERO PUSH2 0xC02 JUMPI PUSH1 0x2 DUP2 EQ ISZERO PUSH2 0xC01 JUMPI DUP5 DUP1 PUSH2 0xBFD SWAP1 PUSH2 0x2144 JUMP JUMPDEST SWAP6 POP POP JUMPDEST JUMPDEST PUSH1 0x2 DUP5 EQ ISZERO PUSH2 0xC24 JUMPI PUSH1 0x0 DUP2 EQ ISZERO PUSH2 0xC23 JUMPI DUP5 DUP1 PUSH2 0xC1F SWAP1 PUSH2 0x2144 JUMP JUMPDEST SWAP6 POP POP JUMPDEST JUMPDEST PUSH1 0x3 TIMESTAMP CALLER PUSH1 0x9 SLOAD PUSH1 0x40 MLOAD PUSH1 0x20 ADD PUSH2 0xC3D SWAP4 SWAP3 SWAP2 SWAP1 PUSH2 0x1C0F JUMP JUMPDEST PUSH1 0x40 MLOAD PUSH1 0x20 DUP2 DUP4 SUB SUB DUP2 MSTORE SWAP1 PUSH1 0x40 MSTORE DUP1 MLOAD SWAP1 PUSH1 0x20 ADD KECCAK256 PUSH1 0x0 SHR PUSH2 0xC60 SWAP2 SWAP1 PUSH2 0x21BB JUMP JUMPDEST SWAP1 POP PUSH1 0x0 DUP4 EQ ISZERO PUSH2 0xC84 JUMPI PUSH1 0x1 DUP2 EQ ISZERO PUSH2 0xC83 JUMPI DUP5 DUP1 PUSH2 0xC7F SWAP1 PUSH2 0x2144 JUMP JUMPDEST SWAP6 POP POP JUMPDEST JUMPDEST PUSH1 0x1 DUP4 EQ ISZERO PUSH2 0xCA6 JUMPI PUSH1 0x2 DUP2 EQ ISZERO PUSH2 0xCA5 JUMPI DUP5 DUP1 PUSH2 0xCA1 SWAP1 PUSH2 0x2144 JUMP JUMPDEST SWAP6 POP POP JUMPDEST JUMPDEST PUSH1 0x2 DUP4 EQ ISZERO PUSH2 0xCC8 JUMPI PUSH1 0x0 DUP2 EQ ISZERO PUSH2 0xCC7 JUMPI DUP5 DUP1 PUSH2 0xCC3 SWAP1 PUSH2 0x2144 JUMP JUMPDEST SWAP6 POP POP JUMPDEST JUMPDEST PUSH1 0x3 TIMESTAMP CALLER PUSH1 0x9 SLOAD PUSH1 0x40 MLOAD PUSH1 0x20 ADD PUSH2 0xCE1 SWAP4 SWAP3 SWAP2 SWAP1 PUSH2 0x1C0F JUMP JUMPDEST PUSH1 0x40 MLOAD PUSH1 0x20 DUP2 DUP4 SUB SUB DUP2 MSTORE SWAP1 PUSH1 0x40 MSTORE DUP1 MLOAD SWAP1 PUSH1 0x20 ADD KECCAK256 PUSH1 0x0 SHR PUSH2 0xD04 SWAP2 SWAP1 PUSH2 0x21BB JUMP JUMPDEST SWAP1 POP PUSH1 0x0 DUP3 EQ ISZERO PUSH2 0xD28 JUMPI PUSH1 0x1 DUP2 EQ ISZERO PUSH2 0xD27 JUMPI DUP5 DUP1 PUSH2 0xD23 SWAP1 PUSH2 0x2144 JUMP JUMPDEST SWAP6 POP POP JUMPDEST JUMPDEST PUSH1 0x1 DUP3 EQ ISZERO PUSH2 0xD4A JUMPI PUSH1 0x2 DUP2 EQ ISZERO PUSH2 0xD49 JUMPI DUP5 DUP1 PUSH2 0xD45 SWAP1 PUSH2 0x2144 JUMP JUMPDEST SWAP6 POP POP JUMPDEST JUMPDEST PUSH1 0x2 DUP3 EQ ISZERO PUSH2 0xD6C JUMPI PUSH1 0x0 DUP2 EQ ISZERO PUSH2 0xD6B JUMPI DUP5 DUP1 PUSH2 0xD67 SWAP1 PUSH2 0x2144 JUMP JUMPDEST SWAP6 POP POP JUMPDEST JUMPDEST PUSH1 0x1 DUP6 GT ISZERO PUSH2 0xD9B JUMPI DUP7 PUSH1 0x6 SWAP1 DUP1 MLOAD SWAP1 PUSH1 0x20 ADD SWAP1 PUSH2 0xD8B SWAP3 SWAP2 SWAP1 PUSH2 0x16E5 JUMP JUMPDEST POP DUP7 SWAP8 POP POP POP POP POP POP POP POP PUSH2 0xDBD JUMP JUMPDEST DUP6 PUSH1 0x6 SWAP1 DUP1 MLOAD SWAP1 PUSH1 0x20 ADD SWAP1 PUSH2 0xDB1 SWAP3 SWAP2 SWAP1 PUSH2 0x16E5 JUMP JUMPDEST POP DUP6 SWAP8 POP POP POP POP POP POP POP POP JUMPDEST SWAP4 SWAP3 POP POP POP JUMP JUMPDEST PUSH1 0x0 DUP1 PUSH2 0xDCF PUSH2 0x109B JUMP JUMPDEST SWAP1 POP PUSH1 0x0 PUSH2 0xDDD DUP3 DUP7 PUSH2 0x1014 JUMP JUMPDEST SWAP1 POP DUP4 DUP2 LT ISZERO PUSH2 0xE22 JUMPI PUSH1 0x40 MLOAD PUSH32 0x8C379A000000000000000000000000000000000000000000000000000000000 DUP2 MSTORE PUSH1 0x4 ADD PUSH2 0xE19 SWAP1 PUSH2 0x1D64 JUMP JUMPDEST PUSH1 0x40 MLOAD DUP1 SWAP2 SUB SWAP1 REVERT JUMPDEST PUSH2 0xE2F DUP3 DUP7 DUP7 DUP5 SUB PUSH2 0x10A3 JUMP JUMPDEST PUSH1 0x1 SWAP3 POP POP POP SWAP3 SWAP2 POP POP JUMP JUMPDEST PUSH1 0x0 PUSH2 0xE6A PUSH1 0x5 PUSH1 0x0 SWAP1 SLOAD SWAP1 PUSH2 0x100 EXP SWAP1 DIV PUSH20 0xFFFFFFFFFFFFFFFFFFFFFFFFFFFFFFFFFFFFFFFF AND DUP5 DUP5 PUSH2 0x12FA JUMP JUMPDEST PUSH1 0x1 SWAP1 POP SWAP3 SWAP2 POP POP JUMP JUMPDEST PUSH1 0x60 PUSH1 0x8 DUP1 SLOAD PUSH2 0xE83 SWAP1 PUSH2 0x20C9 JUMP JUMPDEST DUP1 PUSH1 0x1F ADD PUSH1 0x20 DUP1 SWAP2 DIV MUL PUSH1 0x20 ADD PUSH1 0x40 MLOAD SWAP1 DUP2 ADD PUSH1 0x40 MSTORE DUP1 SWAP3 SWAP2 SWAP1 DUP2 DUP2 MSTORE PUSH1 0x20 ADD DUP3 DUP1 SLOAD PUSH2 0xEAF SWAP1 PUSH2 0x20C9 JUMP JUMPDEST DUP1 ISZERO PUSH2 0xEFC JUMPI DUP1 PUSH1 0x1F LT PUSH2 0xED1 JUMPI PUSH2 0x100 DUP1 DUP4 SLOAD DIV MUL DUP4 MSTORE SWAP2 PUSH1 0x20 ADD SWAP2 PUSH2 0xEFC JUMP JUMPDEST DUP3 ADD SWAP2 SWAP1 PUSH1 0x0 MSTORE PUSH1 0x20 PUSH1 0x0 KECCAK256 SWAP1 JUMPDEST DUP2 SLOAD DUP2 MSTORE SWAP1 PUSH1 0x1 ADD SWAP1 PUSH1 0x20 ADD DUP1 DUP4 GT PUSH2 0xEDF JUMPI DUP3 SWAP1 SUB PUSH1 0x1F AND DUP3 ADD SWAP2 JUMPDEST POP POP POP POP POP SWAP1 POP SWAP1 JUMP JUMPDEST PUSH1 0x0 DUP1 PUSH1 0x40 MLOAD DUP1 PUSH1 0x40 ADD PUSH1 0x40 MSTORE DUP1 PUSH1 0x9 DUP2 MSTORE PUSH1 0x20 ADD PUSH32 0x796F752077696E21210000000000000000000000000000000000000000000000 DUP2 MSTORE POP SWAP1 POP PUSH1 0x0 PUSH1 0x40 MLOAD DUP1 PUSH1 0x40 ADD PUSH1 0x40 MSTORE DUP1 PUSH1 0x8 DUP2 MSTORE PUSH1 0x20 ADD PUSH32 0x796F75206C6F7365000000000000000000000000000000000000000000000000 DUP2 MSTORE POP SWAP1 POP PUSH1 0x0 PUSH1 0x64 TIMESTAMP CALLER PUSH1 0x9 SLOAD PUSH1 0x40 MLOAD PUSH1 0x20 ADD PUSH2 0xF96 SWAP4 SWAP3 SWAP2 SWAP1 PUSH2 0x1C0F JUMP JUMPDEST PUSH1 0x40 MLOAD PUSH1 0x20 DUP2 DUP4 SUB SUB DUP2 MSTORE SWAP1 PUSH1 0x40 MSTORE DUP1 MLOAD SWAP1 PUSH1 0x20 ADD KECCAK256 PUSH1 0x0 SHR PUSH2 0xFB9 SWAP2 SWAP1 PUSH2 0x21BB JUMP JUMPDEST SWAP1 POP PUSH1 0x0 PUSH1 0x64 DUP7 PUSH2 0xFCA SWAP2 SWAP1 PUSH2 0x21BB JUMP JUMPDEST SWAP1 POP DUP1 DUP3 LT PUSH2 0xFEF JUMPI DUP3 PUSH1 0x8 SWAP1 DUP1 MLOAD SWAP1 PUSH1 0x20 ADD SWAP1 PUSH2 0xFE9 SWAP3 SWAP2 SWAP1 PUSH2 0x16E5 JUMP JUMPDEST POP PUSH2 0x1007 JUMP JUMPDEST DUP4 PUSH1 0x8 SWAP1 DUP1 MLOAD SWAP1 PUSH1 0x20 ADD SWAP1 PUSH2 0x1005 SWAP3 SWAP2 SWAP1 PUSH2 0x16E5 JUMP JUMPDEST POP JUMPDEST PUSH1 0x1 SWAP5 POP POP POP POP POP SWAP2 SWAP1 POP JUMP JUMPDEST PUSH1 0x0 PUSH1 0x1 PUSH1 0x0 DUP5 PUSH20 0xFFFFFFFFFFFFFFFFFFFFFFFFFFFFFFFFFFFFFFFF AND PUSH20 0xFFFFFFFFFFFFFFFFFFFFFFFFFFFFFFFFFFFFFFFF AND DUP2 MSTORE PUSH1 0x20 ADD SWAP1 DUP2 MSTORE PUSH1 0x20 ADD PUSH1 0x0 KECCAK256 PUSH1 0x0 DUP4 PUSH20 0xFFFFFFFFFFFFFFFFFFFFFFFFFFFFFFFFFFFFFFFF AND PUSH20 0xFFFFFFFFFFFFFFFFFFFFFFFFFFFFFFFFFFFFFFFF AND DUP2 MSTORE PUSH1 0x20 ADD SWAP1 DUP2 MSTORE PUSH1 0x20 ADD PUSH1 0x0 KECCAK256 SLOAD SWAP1 POP SWAP3 SWAP2 POP POP JUMP JUMPDEST PUSH1 0x0 CALLER SWAP1 POP SWAP1 JUMP JUMPDEST PUSH1 0x0 PUSH20 0xFFFFFFFFFFFFFFFFFFFFFFFFFFFFFFFFFFFFFFFF AND DUP4 PUSH20 0xFFFFFFFFFFFFFFFFFFFFFFFFFFFFFFFFFFFFFFFF AND EQ ISZERO PUSH2 0x1113 JUMPI PUSH1 0x40 MLOAD PUSH32 0x8C379A000000000000000000000000000000000000000000000000000000000 DUP2 MSTORE PUSH1 0x4 ADD PUSH2 0x110A SWAP1 PUSH2 0x1D44 JUMP JUMPDEST PUSH1 0x40 MLOAD DUP1 SWAP2 SUB SWAP1 REVERT JUMPDEST PUSH1 0x0 PUSH20 0xFFFFFFFFFFFFFFFFFFFFFFFFFFFFFFFFFFFFFFFF AND DUP3 PUSH20 0xFFFFFFFFFFFFFFFFFFFFFFFFFFFFFFFFFFFFFFFF AND EQ ISZERO PUSH2 0x1183 JUMPI PUSH1 0x40 MLOAD PUSH32 0x8C379A000000000000000000000000000000000000000000000000000000000 DUP2 MSTORE PUSH1 0x4 ADD PUSH2 0x117A SWAP1 PUSH2 0x1CC4 JUMP JUMPDEST PUSH1 0x40 MLOAD DUP1 SWAP2 SUB SWAP1 REVERT JUMPDEST DUP1 PUSH1 0x1 PUSH1 0x0 DUP6 PUSH20 0xFFFFFFFFFFFFFFFFFFFFFFFFFFFFFFFFFFFFFFFF AND PUSH20 0xFFFFFFFFFFFFFFFFFFFFFFFFFFFFFFFFFFFFFFFF AND DUP2 MSTORE PUSH1 0x20 ADD SWAP1 DUP2 MSTORE PUSH1 0x20 ADD PUSH1 0x0 KECCAK256 PUSH1 0x0 DUP5 PUSH20 0xFFFFFFFFFFFFFFFFFFFFFFFFFFFFFFFFFFFFFFFF AND PUSH20 0xFFFFFFFFFFFFFFFFFFFFFFFFFFFFFFFFFFFFFFFF AND DUP2 MSTORE PUSH1 0x20 ADD SWAP1 DUP2 MSTORE PUSH1 0x20 ADD PUSH1 0x0 KECCAK256 DUP2 SWAP1 SSTORE POP DUP2 PUSH20 0xFFFFFFFFFFFFFFFFFFFFFFFFFFFFFFFFFFFFFFFF AND DUP4 PUSH20 0xFFFFFFFFFFFFFFFFFFFFFFFFFFFFFFFFFFFFFFFF AND PUSH32 0x8C5BE1E5EBEC7D5BD14F71427D1E84F3DD0314C0F7B2291E5B200AC8C7C3B925 DUP4 PUSH1 0x40 MLOAD PUSH2 0x1261 SWAP2 SWAP1 PUSH2 0x1DA4 JUMP JUMPDEST PUSH1 0x40 MLOAD DUP1 SWAP2 SUB SWAP1 LOG3 POP POP POP JUMP JUMPDEST PUSH1 0x0 PUSH2 0x127A DUP5 DUP5 PUSH2 0x1014 JUMP JUMPDEST SWAP1 POP PUSH32 0xFFFFFFFFFFFFFFFFFFFFFFFFFFFFFFFFFFFFFFFFFFFFFFFFFFFFFFFFFFFFFFFF DUP2 EQ PUSH2 0x12F4 JUMPI DUP2 DUP2 LT ISZERO PUSH2 0x12E6 JUMPI PUSH1 0x40 MLOAD PUSH32 0x8C379A000000000000000000000000000000000000000000000000000000000 DUP2 MSTORE PUSH1 0x4 ADD PUSH2 0x12DD SWAP1 PUSH2 0x1CE4 JUMP JUMPDEST PUSH1 0x40 MLOAD DUP1 SWAP2 SUB SWAP1 REVERT JUMPDEST PUSH2 0x12F3 DUP5 DUP5 DUP5 DUP5 SUB PUSH2 0x10A3 JUMP JUMPDEST JUMPDEST POP POP POP POP JUMP JUMPDEST PUSH1 0x0 PUSH20 0xFFFFFFFFFFFFFFFFFFFFFFFFFFFFFFFFFFFFFFFF AND DUP4 PUSH20 0xFFFFFFFFFFFFFFFFFFFFFFFFFFFFFFFFFFFFFFFF AND EQ ISZERO PUSH2 0x136A JUMPI PUSH1 0x40 MLOAD PUSH32 0x8C379A000000000000000000000000000000000000000000000000000000000 DUP2 MSTORE PUSH1 0x4 ADD PUSH2 0x1361 SWAP1 PUSH2 0x1D24 JUMP JUMPDEST PUSH1 0x40 MLOAD DUP1 SWAP2 SUB SWAP1 REVERT JUMPDEST PUSH1 0x0 PUSH20 0xFFFFFFFFFFFFFFFFFFFFFFFFFFFFFFFFFFFFFFFF AND DUP3 PUSH20 0xFFFFFFFFFFFFFFFFFFFFFFFFFFFFFFFFFFFFFFFF AND EQ ISZERO PUSH2 0x13DA JUMPI PUSH1 0x40 MLOAD PUSH32 0x8C379A000000000000000000000000000000000000000000000000000000000 DUP2 MSTORE PUSH1 0x4 ADD PUSH2 0x13D1 SWAP1 PUSH2 0x1CA4 JUMP JUMPDEST PUSH1 0x40 MLOAD DUP1 SWAP2 SUB SWAP1 REVERT JUMPDEST PUSH2 0x13E5 DUP4 DUP4 DUP4 PUSH2 0x16DB JUMP JUMPDEST PUSH1 0x0 DUP1 PUSH1 0x0 DUP6 PUSH20 0xFFFFFFFFFFFFFFFFFFFFFFFFFFFFFFFFFFFFFFFF AND PUSH20 0xFFFFFFFFFFFFFFFFFFFFFFFFFFFFFFFFFFFFFFFF AND DUP2 MSTORE PUSH1 0x20 ADD SWAP1 DUP2 MSTORE PUSH1 0x20 ADD PUSH1 0x0 KECCAK256 SLOAD SWAP1 POP DUP2 DUP2 LT ISZERO PUSH2 0x146B JUMPI PUSH1 0x40 MLOAD PUSH32 0x8C379A000000000000000000000000000000000000000000000000000000000 DUP2 MSTORE PUSH1 0x4 ADD PUSH2 0x1462 SWAP1 PUSH2 0x1D04 JUMP JUMPDEST PUSH1 0x40 MLOAD DUP1 SWAP2 SUB SWAP1 REVERT JUMPDEST DUP2 DUP2 SUB PUSH1 0x0 DUP1 DUP7 PUSH20 0xFFFFFFFFFFFFFFFFFFFFFFFFFFFFFFFFFFFFFFFF AND PUSH20 0xFFFFFFFFFFFFFFFFFFFFFFFFFFFFFFFFFFFFFFFF AND DUP2 MSTORE PUSH1 0x20 ADD SWAP1 DUP2 MSTORE PUSH1 0x20 ADD PUSH1 0x0 KECCAK256 DUP2 SWAP1 SSTORE POP DUP2 PUSH1 0x0 DUP1 DUP6 PUSH20 0xFFFFFFFFFFFFFFFFFFFFFFFFFFFFFFFFFFFFFFFF AND PUSH20 0xFFFFFFFFFFFFFFFFFFFFFFFFFFFFFFFFFFFFFFFF AND DUP2 MSTORE PUSH1 0x20 ADD SWAP1 DUP2 MSTORE PUSH1 0x20 ADD PUSH1 0x0 KECCAK256 PUSH1 0x0 DUP3 DUP3 SLOAD PUSH2 0x14FE SWAP2 SWAP1 PUSH2 0x1E16 JUMP JUMPDEST SWAP3 POP POP DUP2 SWAP1 SSTORE POP DUP3 PUSH20 0xFFFFFFFFFFFFFFFFFFFFFFFFFFFFFFFFFFFFFFFF AND DUP5 PUSH20 0xFFFFFFFFFFFFFFFFFFFFFFFFFFFFFFFFFFFFFFFF AND PUSH32 0xDDF252AD1BE2C89B69C2B068FC378DAA952BA7F163C4A11628F55A4DF523B3EF DUP5 PUSH1 0x40 MLOAD PUSH2 0x1562 SWAP2 SWAP1 PUSH2 0x1DA4 JUMP JUMPDEST PUSH1 0x40 MLOAD DUP1 SWAP2 SUB SWAP1 LOG3 PUSH2 0x1575 DUP5 DUP5 DUP5 PUSH2 0x16E0 JUMP JUMPDEST POP POP POP POP JUMP JUMPDEST PUSH1 0x0 PUSH20 0xFFFFFFFFFFFFFFFFFFFFFFFFFFFFFFFFFFFFFFFF AND DUP3 PUSH20 0xFFFFFFFFFFFFFFFFFFFFFFFFFFFFFFFFFFFFFFFF AND EQ ISZERO PUSH2 0x15EB JUMPI PUSH1 0x40 MLOAD PUSH32 0x8C379A000000000000000000000000000000000000000000000000000000000 DUP2 MSTORE PUSH1 0x4 ADD PUSH2 0x15E2 SWAP1 PUSH2 0x1D84 JUMP JUMPDEST PUSH1 0x40 MLOAD DUP1 SWAP2 SUB SWAP1 REVERT JUMPDEST PUSH2 0x15F7 PUSH1 0x0 DUP4 DUP4 PUSH2 0x16DB JUMP JUMPDEST DUP1 PUSH1 0x2 PUSH1 0x0 DUP3 DUP3 SLOAD PUSH2 0x1609 SWAP2 SWAP1 PUSH2 0x1E16 JUMP JUMPDEST SWAP3 POP POP DUP2 SWAP1 SSTORE POP DUP1 PUSH1 0x0 DUP1 DUP5 PUSH20 0xFFFFFFFFFFFFFFFFFFFFFFFFFFFFFFFFFFFFFFFF AND PUSH20 0xFFFFFFFFFFFFFFFFFFFFFFFFFFFFFFFFFFFFFFFF AND DUP2 MSTORE PUSH1 0x20 ADD SWAP1 DUP2 MSTORE PUSH1 0x20 ADD PUSH1 0x0 KECCAK256 PUSH1 0x0 DUP3 DUP3 SLOAD PUSH2 0x165E SWAP2 SWAP1 PUSH2 0x1E16 JUMP JUMPDEST SWAP3 POP POP DUP2 SWAP1 SSTORE POP DUP2 PUSH20 0xFFFFFFFFFFFFFFFFFFFFFFFFFFFFFFFFFFFFFFFF AND PUSH1 0x0 PUSH20 0xFFFFFFFFFFFFFFFFFFFFFFFFFFFFFFFFFFFFFFFF AND PUSH32 0xDDF252AD1BE2C89B69C2B068FC378DAA952BA7F163C4A11628F55A4DF523B3EF DUP4 PUSH1 0x40 MLOAD PUSH2 0x16C3 SWAP2 SWAP1 PUSH2 0x1DA4 JUMP JUMPDEST PUSH1 0x40 MLOAD DUP1 SWAP2 SUB SWAP1 LOG3 PUSH2 0x16D7 PUSH1 0x0 DUP4 DUP4 PUSH2 0x16E0 JUMP JUMPDEST POP POP JUMP JUMPDEST POP POP POP JUMP JUMPDEST POP POP POP JUMP JUMPDEST DUP3 DUP1 SLOAD PUSH2 0x16F1 SWAP1 PUSH2 0x20C9 JUMP JUMPDEST SWAP1 PUSH1 0x0 MSTORE PUSH1 0x20 PUSH1 0x0 KECCAK256 SWAP1 PUSH1 0x1F ADD PUSH1 0x20 SWAP1 DIV DUP2 ADD SWAP3 DUP3 PUSH2 0x1713 JUMPI PUSH1 0x0 DUP6 SSTORE PUSH2 0x175A JUMP JUMPDEST DUP3 PUSH1 0x1F LT PUSH2 0x172C JUMPI DUP1 MLOAD PUSH1 0xFF NOT AND DUP4 DUP1 ADD OR DUP6 SSTORE PUSH2 0x175A JUMP JUMPDEST DUP3 DUP1 ADD PUSH1 0x1 ADD DUP6 SSTORE DUP3 ISZERO PUSH2 0x175A JUMPI SWAP2 DUP3 ADD JUMPDEST DUP3 DUP2 GT ISZERO PUSH2 0x1759 JUMPI DUP3 MLOAD DUP3 SSTORE SWAP2 PUSH1 0x20 ADD SWAP2 SWAP1 PUSH1 0x1 ADD SWAP1 PUSH2 0x173E JUMP JUMPDEST JUMPDEST POP SWAP1 POP PUSH2 0x1767 SWAP2 SWAP1 PUSH2 0x176B JUMP JUMPDEST POP SWAP1 JUMP JUMPDEST JUMPDEST DUP1 DUP3 GT ISZERO PUSH2 0x1784 JUMPI PUSH1 0x0 DUP2 PUSH1 0x0 SWAP1 SSTORE POP PUSH1 0x1 ADD PUSH2 0x176C JUMP JUMPDEST POP SWAP1 JUMP JUMPDEST PUSH1 0x0 DUP2 CALLDATALOAD SWAP1 POP PUSH2 0x1797 DUP2 PUSH2 0x24D5 JUMP JUMPDEST SWAP3 SWAP2 POP POP JUMP JUMPDEST PUSH1 0x0 DUP2 CALLDATALOAD SWAP1 POP PUSH2 0x17AC DUP2 PUSH2 0x24EC JUMP JUMPDEST SWAP3 SWAP2 POP POP JUMP JUMPDEST PUSH1 0x0 PUSH1 0x20 DUP3 DUP5 SUB SLT ISZERO PUSH2 0x17C8 JUMPI PUSH2 0x17C7 PUSH2 0x2279 JUMP JUMPDEST JUMPDEST PUSH1 0x0 PUSH2 0x17D6 DUP5 DUP3 DUP6 ADD PUSH2 0x1788 JUMP JUMPDEST SWAP2 POP POP SWAP3 SWAP2 POP POP JUMP JUMPDEST PUSH1 0x0 DUP1 PUSH1 0x40 DUP4 DUP6 SUB SLT ISZERO PUSH2 0x17F6 JUMPI PUSH2 0x17F5 PUSH2 0x2279 JUMP JUMPDEST JUMPDEST PUSH1 0x0 PUSH2 0x1804 DUP6 DUP3 DUP7 ADD PUSH2 0x1788 JUMP JUMPDEST SWAP3 POP POP PUSH1 0x20 PUSH2 0x1815 DUP6 DUP3 DUP7 ADD PUSH2 0x1788 JUMP JUMPDEST SWAP2 POP POP SWAP3 POP SWAP3 SWAP1 POP JUMP JUMPDEST PUSH1 0x0 DUP1 PUSH1 0x0 PUSH1 0x60 DUP5 DUP7 SUB SLT ISZERO PUSH2 0x1838 JUMPI PUSH2 0x1837 PUSH2 0x2279 JUMP JUMPDEST JUMPDEST PUSH1 0x0 PUSH2 0x1846 DUP7 DUP3 DUP8 ADD PUSH2 0x1788 JUMP JUMPDEST SWAP4 POP POP PUSH1 0x20 PUSH2 0x1857 DUP7 DUP3 DUP8 ADD PUSH2 0x1788 JUMP JUMPDEST SWAP3 POP POP PUSH1 0x40 PUSH2 0x1868 DUP7 DUP3 DUP8 ADD PUSH2 0x179D JUMP JUMPDEST SWAP2 POP POP SWAP3 POP SWAP3 POP SWAP3 JUMP JUMPDEST PUSH1 0x0 DUP1 PUSH1 0x40 DUP4 DUP6 SUB SLT ISZERO PUSH2 0x1889 JUMPI PUSH2 0x1888 PUSH2 0x2279 JUMP JUMPDEST JUMPDEST PUSH1 0x0 PUSH2 0x1897 DUP6 DUP3 DUP7 ADD PUSH2 0x1788 JUMP JUMPDEST SWAP3 POP POP PUSH1 0x20 PUSH2 0x18A8 DUP6 DUP3 DUP7 ADD PUSH2 0x179D JUMP JUMPDEST SWAP2 POP POP SWAP3 POP SWAP3 SWAP1 POP JUMP JUMPDEST PUSH1 0x0 PUSH1 0x20 DUP3 DUP5 SUB SLT ISZERO PUSH2 0x18C8 JUMPI PUSH2 0x18C7 PUSH2 0x2279 JUMP JUMPDEST JUMPDEST PUSH1 0x0 PUSH2 0x18D6 DUP5 DUP3 DUP6 ADD PUSH2 0x179D JUMP JUMPDEST SWAP2 POP POP SWAP3 SWAP2 POP POP JUMP JUMPDEST PUSH1 0x0 DUP1 PUSH1 0x0 PUSH1 0x60 DUP5 DUP7 SUB SLT ISZERO PUSH2 0x18F8 JUMPI PUSH2 0x18F7 PUSH2 0x2279 JUMP JUMPDEST JUMPDEST PUSH1 0x0 PUSH2 0x1906 DUP7 DUP3 DUP8 ADD PUSH2 0x179D JUMP JUMPDEST SWAP4 POP POP PUSH1 0x20 PUSH2 0x1917 DUP7 DUP3 DUP8 ADD PUSH2 0x179D JUMP JUMPDEST SWAP3 POP POP PUSH1 0x40 PUSH2 0x1928 DUP7 DUP3 DUP8 ADD PUSH2 0x179D JUMP JUMPDEST SWAP2 POP POP SWAP3 POP SWAP3 POP SWAP3 JUMP JUMPDEST PUSH2 0x193B DUP2 PUSH2 0x2037 JUMP JUMPDEST DUP3 MSTORE POP POP JUMP JUMPDEST PUSH2 0x1952 PUSH2 0x194D DUP3 PUSH2 0x2037 JUMP JUMPDEST PUSH2 0x218D JUMP JUMPDEST DUP3 MSTORE POP POP JUMP JUMPDEST PUSH2 0x1961 DUP2 PUSH2 0x2049 JUMP JUMPDEST DUP3 MSTORE POP POP JUMP JUMPDEST PUSH1 0x0 PUSH2 0x1972 DUP3 PUSH2 0x1DEF JUMP JUMPDEST PUSH2 0x197C DUP2 DUP6 PUSH2 0x1DFA JUMP JUMPDEST SWAP4 POP PUSH2 0x198C DUP2 DUP6 PUSH1 0x20 DUP7 ADD PUSH2 0x2096 JUMP JUMPDEST PUSH2 0x1995 DUP2 PUSH2 0x227E JUMP JUMPDEST DUP5 ADD SWAP2 POP POP SWAP3 SWAP2 POP POP JUMP JUMPDEST PUSH1 0x0 PUSH2 0x19AB DUP3 PUSH2 0x1DEF JUMP JUMPDEST PUSH2 0x19B5 DUP2 DUP6 PUSH2 0x1E0B JUMP JUMPDEST SWAP4 POP PUSH2 0x19C5 DUP2 DUP6 PUSH1 0x20 DUP7 ADD PUSH2 0x2096 JUMP JUMPDEST DUP1 DUP5 ADD SWAP2 POP POP SWAP3 SWAP2 POP POP JUMP JUMPDEST PUSH1 0x0 DUP2 SLOAD PUSH2 0x19DE DUP2 PUSH2 0x20C9 JUMP JUMPDEST PUSH2 0x19E8 DUP2 DUP7 PUSH2 0x1E0B JUMP JUMPDEST SWAP5 POP PUSH1 0x1 DUP3 AND PUSH1 0x0 DUP2 EQ PUSH2 0x1A03 JUMPI PUSH1 0x1 DUP2 EQ PUSH2 0x1A14 JUMPI PUSH2 0x1A47 JUMP JUMPDEST PUSH1 0xFF NOT DUP4 AND DUP7 MSTORE DUP2 DUP7 ADD SWAP4 POP PUSH2 0x1A47 JUMP JUMPDEST PUSH2 0x1A1D DUP6 PUSH2 0x1DDA JUMP JUMPDEST PUSH1 0x0 JUMPDEST DUP4 DUP2 LT ISZERO PUSH2 0x1A3F JUMPI DUP2 SLOAD DUP2 DUP10 ADD MSTORE PUSH1 0x1 DUP3 ADD SWAP2 POP PUSH1 0x20 DUP2 ADD SWAP1 POP PUSH2 0x1A20 JUMP JUMPDEST DUP4 DUP9 ADD SWAP6 POP POP POP JUMPDEST POP POP POP SWAP3 SWAP2 POP POP JUMP JUMPDEST PUSH1 0x0 PUSH2 0x1A5D PUSH1 0x23 DUP4 PUSH2 0x1DFA JUMP JUMPDEST SWAP2 POP PUSH2 0x1A68 DUP3 PUSH2 0x22A9 JUMP JUMPDEST PUSH1 0x40 DUP3 ADD SWAP1 POP SWAP2 SWAP1 POP JUMP JUMPDEST PUSH1 0x0 PUSH2 0x1A80 PUSH1 0x22 DUP4 PUSH2 0x1DFA JUMP JUMPDEST SWAP2 POP PUSH2 0x1A8B DUP3 PUSH2 0x22F8 JUMP JUMPDEST PUSH1 0x40 DUP3 ADD SWAP1 POP SWAP2 SWAP1 POP JUMP JUMPDEST PUSH1 0x0 PUSH2 0x1AA3 PUSH1 0x1D DUP4 PUSH2 0x1DFA JUMP JUMPDEST SWAP2 POP PUSH2 0x1AAE DUP3 PUSH2 0x2347 JUMP JUMPDEST PUSH1 0x20 DUP3 ADD SWAP1 POP SWAP2 SWAP1 POP JUMP JUMPDEST PUSH1 0x0 PUSH2 0x1AC6 PUSH1 0x26 DUP4 PUSH2 0x1DFA JUMP JUMPDEST SWAP2 POP PUSH2 0x1AD1 DUP3 PUSH2 0x2370 JUMP JUMPDEST PUSH1 0x40 DUP3 ADD SWAP1 POP SWAP2 SWAP1 POP JUMP JUMPDEST PUSH1 0x0 PUSH2 0x1AE9 PUSH1 0x25 DUP4 PUSH2 0x1DFA JUMP JUMPDEST SWAP2 POP PUSH2 0x1AF4 DUP3 PUSH2 0x23BF JUMP JUMPDEST PUSH1 0x40 DUP3 ADD SWAP1 POP SWAP2 SWAP1 POP JUMP JUMPDEST PUSH1 0x0 PUSH2 0x1B0C PUSH1 0x24 DUP4 PUSH2 0x1DFA JUMP JUMPDEST SWAP2 POP PUSH2 0x1B17 DUP3 PUSH2 0x240E JUMP JUMPDEST PUSH1 0x40 DUP3 ADD SWAP1 POP SWAP2 SWAP1 POP JUMP JUMPDEST PUSH1 0x0 PUSH2 0x1B2F PUSH1 0x25 DUP4 PUSH2 0x1DFA JUMP JUMPDEST SWAP2 POP PUSH2 0x1B3A DUP3 PUSH2 0x245D JUMP JUMPDEST PUSH1 0x40 DUP3 ADD SWAP1 POP SWAP2 SWAP1 POP JUMP JUMPDEST PUSH1 0x0 PUSH2 0x1B52 PUSH1 0x1F DUP4 PUSH2 0x1DFA JUMP JUMPDEST SWAP2 POP PUSH2 0x1B5D DUP3 PUSH2 0x24AC JUMP JUMPDEST PUSH1 0x20 DUP3 ADD SWAP1 POP SWAP2 SWAP1 POP JUMP JUMPDEST PUSH2 0x1B71 DUP2 PUSH2 0x207F JUMP JUMPDEST DUP3 MSTORE POP POP JUMP JUMPDEST PUSH2 0x1B88 PUSH2 0x1B83 DUP3 PUSH2 0x207F JUMP JUMPDEST PUSH2 0x21B1 JUMP JUMPDEST DUP3 MSTORE POP POP JUMP JUMPDEST PUSH2 0x1B97 DUP2 PUSH2 0x2089 JUMP JUMPDEST DUP3 MSTORE POP POP JUMP JUMPDEST PUSH1 0x0 PUSH2 0x1BA9 DUP3 DUP7 PUSH2 0x1B77 JUMP JUMPDEST PUSH1 0x20 DUP3 ADD SWAP2 POP PUSH2 0x1BB9 DUP3 DUP6 PUSH2 0x1941 JUMP JUMPDEST PUSH1 0x14 DUP3 ADD SWAP2 POP PUSH2 0x1BC9 DUP3 DUP5 PUSH2 0x19A0 JUMP JUMPDEST SWAP2 POP DUP2 SWAP1 POP SWAP5 SWAP4 POP POP POP POP JUMP JUMPDEST PUSH1 0x0 PUSH2 0x1BE2 DUP3 DUP7 PUSH2 0x1B77 JUMP JUMPDEST PUSH1 0x20 DUP3 ADD SWAP2 POP PUSH2 0x1BF2 DUP3 DUP6 PUSH2 0x1941 JUMP JUMPDEST PUSH1 0x14 DUP3 ADD SWAP2 POP PUSH2 0x1C02 DUP3 DUP5 PUSH2 0x19D1 JUMP JUMPDEST SWAP2 POP DUP2 SWAP1 POP SWAP5 SWAP4 POP POP POP POP JUMP JUMPDEST PUSH1 0x0 PUSH2 0x1C1B DUP3 DUP7 PUSH2 0x1B77 JUMP JUMPDEST PUSH1 0x20 DUP3 ADD SWAP2 POP PUSH2 0x1C2B DUP3 DUP6 PUSH2 0x1941 JUMP JUMPDEST PUSH1 0x14 DUP3 ADD SWAP2 POP PUSH2 0x1C3B DUP3 DUP5 PUSH2 0x1B77 JUMP JUMPDEST PUSH1 0x20 DUP3 ADD SWAP2 POP DUP2 SWAP1 POP SWAP5 SWAP4 POP POP POP POP JUMP JUMPDEST PUSH1 0x0 PUSH1 0x20 DUP3 ADD SWAP1 POP PUSH2 0x1C61 PUSH1 0x0 DUP4 ADD DUP5 PUSH2 0x1932 JUMP JUMPDEST SWAP3 SWAP2 POP POP JUMP JUMPDEST PUSH1 0x0 PUSH1 0x20 DUP3 ADD SWAP1 POP PUSH2 0x1C7C PUSH1 0x0 DUP4 ADD DUP5 PUSH2 0x1958 JUMP JUMPDEST SWAP3 SWAP2 POP POP JUMP JUMPDEST PUSH1 0x0 PUSH1 0x20 DUP3 ADD SWAP1 POP DUP2 DUP2 SUB PUSH1 0x0 DUP4 ADD MSTORE PUSH2 0x1C9C DUP2 DUP5 PUSH2 0x1967 JUMP JUMPDEST SWAP1 POP SWAP3 SWAP2 POP POP JUMP JUMPDEST PUSH1 0x0 PUSH1 0x20 DUP3 ADD SWAP1 POP DUP2 DUP2 SUB PUSH1 0x0 DUP4 ADD MSTORE PUSH2 0x1CBD DUP2 PUSH2 0x1A50 JUMP JUMPDEST SWAP1 POP SWAP2 SWAP1 POP JUMP JUMPDEST PUSH1 0x0 PUSH1 0x20 DUP3 ADD SWAP1 POP DUP2 DUP2 SUB PUSH1 0x0 DUP4 ADD MSTORE PUSH2 0x1CDD DUP2 PUSH2 0x1A73 JUMP JUMPDEST SWAP1 POP SWAP2 SWAP1 POP JUMP JUMPDEST PUSH1 0x0 PUSH1 0x20 DUP3 ADD SWAP1 POP DUP2 DUP2 SUB PUSH1 0x0 DUP4 ADD MSTORE PUSH2 0x1CFD DUP2 PUSH2 0x1A96 JUMP JUMPDEST SWAP1 POP SWAP2 SWAP1 POP JUMP JUMPDEST PUSH1 0x0 PUSH1 0x20 DUP3 ADD SWAP1 POP DUP2 DUP2 SUB PUSH1 0x0 DUP4 ADD MSTORE PUSH2 0x1D1D DUP2 PUSH2 0x1AB9 JUMP JUMPDEST SWAP1 POP SWAP2 SWAP1 POP JUMP JUMPDEST PUSH1 0x0 PUSH1 0x20 DUP3 ADD SWAP1 POP DUP2 DUP2 SUB PUSH1 0x0 DUP4 ADD MSTORE PUSH2 0x1D3D DUP2 PUSH2 0x1ADC JUMP JUMPDEST SWAP1 POP SWAP2 SWAP1 POP JUMP JUMPDEST PUSH1 0x0 PUSH1 0x20 DUP3 ADD SWAP1 POP DUP2 DUP2 SUB PUSH1 0x0 DUP4 ADD MSTORE PUSH2 0x1D5D DUP2 PUSH2 0x1AFF JUMP JUMPDEST SWAP1 POP SWAP2 SWAP1 POP JUMP JUMPDEST PUSH1 0x0 PUSH1 0x20 DUP3 ADD SWAP1 POP DUP2 DUP2 SUB PUSH1 0x0 DUP4 ADD MSTORE PUSH2 0x1D7D DUP2 PUSH2 0x1B22 JUMP JUMPDEST SWAP1 POP SWAP2 SWAP1 POP JUMP JUMPDEST PUSH1 0x0 PUSH1 0x20 DUP3 ADD SWAP1 POP DUP2 DUP2 SUB PUSH1 0x0 DUP4 ADD MSTORE PUSH2 0x1D9D DUP2 PUSH2 0x1B45 JUMP JUMPDEST SWAP1 POP SWAP2 SWAP1 POP JUMP JUMPDEST PUSH1 0x0 PUSH1 0x20 DUP3 ADD SWAP1 POP PUSH2 0x1DB9 PUSH1 0x0 DUP4 ADD DUP5 PUSH2 0x1B68 JUMP JUMPDEST SWAP3 SWAP2 POP POP JUMP JUMPDEST PUSH1 0x0 PUSH1 0x20 DUP3 ADD SWAP1 POP PUSH2 0x1DD4 PUSH1 0x0 DUP4 ADD DUP5 PUSH2 0x1B8E JUMP JUMPDEST SWAP3 SWAP2 POP POP JUMP JUMPDEST PUSH1 0x0 DUP2 SWAP1 POP DUP2 PUSH1 0x0 MSTORE PUSH1 0x20 PUSH1 0x0 KECCAK256 SWAP1 POP SWAP2 SWAP1 POP JUMP JUMPDEST PUSH1 0x0 DUP2 MLOAD SWAP1 POP SWAP2 SWAP1 POP JUMP JUMPDEST PUSH1 0x0 DUP3 DUP3 MSTORE PUSH1 0x20 DUP3 ADD SWAP1 POP SWAP3 SWAP2 POP POP JUMP JUMPDEST PUSH1 0x0 DUP2 SWAP1 POP SWAP3 SWAP2 POP POP JUMP JUMPDEST PUSH1 0x0 PUSH2 0x1E21 DUP3 PUSH2 0x207F JUMP JUMPDEST SWAP2 POP PUSH2 0x1E2C DUP4 PUSH2 0x207F JUMP JUMPDEST SWAP3 POP DUP3 PUSH32 0xFFFFFFFFFFFFFFFFFFFFFFFFFFFFFFFFFFFFFFFFFFFFFFFFFFFFFFFFFFFFFFFF SUB DUP3 GT ISZERO PUSH2 0x1E61 JUMPI PUSH2 0x1E60 PUSH2 0x21EC JUMP JUMPDEST JUMPDEST DUP3 DUP3 ADD SWAP1 POP SWAP3 SWAP2 POP POP JUMP JUMPDEST PUSH1 0x0 DUP1 DUP3 SWAP2 POP DUP4 SWAP1 POP JUMPDEST PUSH1 0x1 DUP6 GT ISZERO PUSH2 0x1EB6 JUMPI DUP1 DUP7 DIV DUP2 GT ISZERO PUSH2 0x1E92 JUMPI PUSH2 0x1E91 PUSH2 0x21EC JUMP JUMPDEST JUMPDEST PUSH1 0x1 DUP6 AND ISZERO PUSH2 0x1EA1 JUMPI DUP1 DUP3 MUL SWAP2 POP JUMPDEST DUP1 DUP2 MUL SWAP1 POP PUSH2 0x1EAF DUP6 PUSH2 0x229C JUMP JUMPDEST SWAP5 POP PUSH2 0x1E76 JUMP JUMPDEST SWAP5 POP SWAP5 SWAP3 POP POP POP JUMP JUMPDEST PUSH1 0x0 PUSH2 0x1ECA DUP3 PUSH2 0x207F JUMP JUMPDEST SWAP2 POP PUSH2 0x1ED5 DUP4 PUSH2 0x2089 JUMP JUMPDEST SWAP3 POP PUSH2 0x1F02 PUSH32 0xFFFFFFFFFFFFFFFFFFFFFFFFFFFFFFFFFFFFFFFFFFFFFFFFFFFFFFFFFFFFFFFF DUP5 DUP5 PUSH2 0x1F0A JUMP JUMPDEST SWAP1 POP SWAP3 SWAP2 POP POP JUMP JUMPDEST PUSH1 0x0 DUP3 PUSH2 0x1F1A JUMPI PUSH1 0x1 SWAP1 POP PUSH2 0x1FD6 JUMP JUMPDEST DUP2 PUSH2 0x1F28 JUMPI PUSH1 0x0 SWAP1 POP PUSH2 0x1FD6 JUMP JUMPDEST DUP2 PUSH1 0x1 DUP2 EQ PUSH2 0x1F3E JUMPI PUSH1 0x2 DUP2 EQ PUSH2 0x1F48 JUMPI PUSH2 0x1F77 JUMP JUMPDEST PUSH1 0x1 SWAP2 POP POP PUSH2 0x1FD6 JUMP JUMPDEST PUSH1 0xFF DUP5 GT ISZERO PUSH2 0x1F5A JUMPI PUSH2 0x1F59 PUSH2 0x21EC JUMP JUMPDEST JUMPDEST DUP4 PUSH1 0x2 EXP SWAP2 POP DUP5 DUP3 GT ISZERO PUSH2 0x1F71 JUMPI PUSH2 0x1F70 PUSH2 0x21EC JUMP JUMPDEST JUMPDEST POP PUSH2 0x1FD6 JUMP JUMPDEST POP PUSH1 0x20 DUP4 LT PUSH2 0x133 DUP4 LT AND PUSH1 0x4E DUP5 LT PUSH1 0xB DUP5 LT AND OR ISZERO PUSH2 0x1FAC JUMPI DUP3 DUP3 EXP SWAP1 POP DUP4 DUP2 GT ISZERO PUSH2 0x1FA7 JUMPI PUSH2 0x1FA6 PUSH2 0x21EC JUMP JUMPDEST JUMPDEST PUSH2 0x1FD6 JUMP JUMPDEST PUSH2 0x1FB9 DUP5 DUP5 DUP5 PUSH1 0x1 PUSH2 0x1E6C JUMP JUMPDEST SWAP3 POP SWAP1 POP DUP2 DUP5 DIV DUP2 GT ISZERO PUSH2 0x1FD0 JUMPI PUSH2 0x1FCF PUSH2 0x21EC JUMP JUMPDEST JUMPDEST DUP2 DUP2 MUL SWAP1 POP JUMPDEST SWAP4 SWAP3 POP POP POP JUMP JUMPDEST PUSH1 0x0 PUSH2 0x1FE8 DUP3 PUSH2 0x207F JUMP JUMPDEST SWAP2 POP PUSH2 0x1FF3 DUP4 PUSH2 0x207F JUMP JUMPDEST SWAP3 POP DUP2 PUSH32 0xFFFFFFFFFFFFFFFFFFFFFFFFFFFFFFFFFFFFFFFFFFFFFFFFFFFFFFFFFFFFFFFF DIV DUP4 GT DUP3 ISZERO ISZERO AND ISZERO PUSH2 0x202C JUMPI PUSH2 0x202B PUSH2 0x21EC JUMP JUMPDEST JUMPDEST DUP3 DUP3 MUL SWAP1 POP SWAP3 SWAP2 POP POP JUMP JUMPDEST PUSH1 0x0 PUSH2 0x2042 DUP3 PUSH2 0x205F JUMP JUMPDEST SWAP1 POP SWAP2 SWAP1 POP JUMP JUMPDEST PUSH1 0x0 DUP2 ISZERO ISZERO SWAP1 POP SWAP2 SWAP1 POP JUMP JUMPDEST PUSH1 0x0 DUP2 SWAP1 POP SWAP2 SWAP1 POP JUMP JUMPDEST PUSH1 0x0 PUSH20 0xFFFFFFFFFFFFFFFFFFFFFFFFFFFFFFFFFFFFFFFF DUP3 AND SWAP1 POP SWAP2 SWAP1 POP JUMP JUMPDEST PUSH1 0x0 DUP2 SWAP1 POP SWAP2 SWAP1 POP JUMP JUMPDEST PUSH1 0x0 PUSH1 0xFF DUP3 AND SWAP1 POP SWAP2 SWAP1 POP JUMP JUMPDEST PUSH1 0x0 JUMPDEST DUP4 DUP2 LT ISZERO PUSH2 0x20B4 JUMPI DUP1 DUP3 ADD MLOAD DUP2 DUP5 ADD MSTORE PUSH1 0x20 DUP2 ADD SWAP1 POP PUSH2 0x2099 JUMP JUMPDEST DUP4 DUP2 GT ISZERO PUSH2 0x20C3 JUMPI PUSH1 0x0 DUP5 DUP5 ADD MSTORE JUMPDEST POP POP POP POP JUMP JUMPDEST PUSH1 0x0 PUSH1 0x2 DUP3 DIV SWAP1 POP PUSH1 0x1 DUP3 AND DUP1 PUSH2 0x20E1 JUMPI PUSH1 0x7F DUP3 AND SWAP2 POP JUMPDEST PUSH1 0x20 DUP3 LT DUP2 EQ ISZERO PUSH2 0x20F5 JUMPI PUSH2 0x20F4 PUSH2 0x224A JUMP JUMPDEST JUMPDEST POP SWAP2 SWAP1 POP JUMP JUMPDEST PUSH1 0x0 PUSH2 0x2106 DUP3 PUSH2 0x2055 JUMP JUMPDEST SWAP2 POP PUSH32 0x7FFFFFFFFFFFFFFFFFFFFFFFFFFFFFFFFFFFFFFFFFFFFFFFFFFFFFFFFFFFFFFF DUP3 EQ ISZERO PUSH2 0x2139 JUMPI PUSH2 0x2138 PUSH2 0x21EC JUMP JUMPDEST JUMPDEST PUSH1 0x1 DUP3 ADD SWAP1 POP SWAP2 SWAP1 POP JUMP JUMPDEST PUSH1 0x0 PUSH2 0x214F DUP3 PUSH2 0x207F JUMP JUMPDEST SWAP2 POP PUSH32 0xFFFFFFFFFFFFFFFFFFFFFFFFFFFFFFFFFFFFFFFFFFFFFFFFFFFFFFFFFFFFFFFF DUP3 EQ ISZERO PUSH2 0x2182 JUMPI PUSH2 0x2181 PUSH2 0x21EC JUMP JUMPDEST JUMPDEST PUSH1 0x1 DUP3 ADD SWAP1 POP SWAP2 SWAP1 POP JUMP JUMPDEST PUSH1 0x0 PUSH2 0x2198 DUP3 PUSH2 0x219F JUMP JUMPDEST SWAP1 POP SWAP2 SWAP1 POP JUMP JUMPDEST PUSH1 0x0 PUSH2 0x21AA DUP3 PUSH2 0x228F JUMP JUMPDEST SWAP1 POP SWAP2 SWAP1 POP JUMP JUMPDEST PUSH1 0x0 DUP2 SWAP1 POP SWAP2 SWAP1 POP JUMP JUMPDEST PUSH1 0x0 PUSH2 0x21C6 DUP3 PUSH2 0x207F JUMP JUMPDEST SWAP2 POP PUSH2 0x21D1 DUP4 PUSH2 0x207F JUMP JUMPDEST SWAP3 POP DUP3 PUSH2 0x21E1 JUMPI PUSH2 0x21E0 PUSH2 0x221B JUMP JUMPDEST JUMPDEST DUP3 DUP3 MOD SWAP1 POP SWAP3 SWAP2 POP POP JUMP JUMPDEST PUSH32 0x4E487B7100000000000000000000000000000000000000000000000000000000 PUSH1 0x0 MSTORE PUSH1 0x11 PUSH1 0x4 MSTORE PUSH1 0x24 PUSH1 0x0 REVERT JUMPDEST PUSH32 0x4E487B7100000000000000000000000000000000000000000000000000000000 PUSH1 0x0 MSTORE PUSH1 0x12 PUSH1 0x4 MSTORE PUSH1 0x24 PUSH1 0x0 REVERT JUMPDEST PUSH32 0x4E487B7100000000000000000000000000000000000000000000000000000000 PUSH1 0x0 MSTORE PUSH1 0x22 PUSH1 0x4 MSTORE PUSH1 0x24 PUSH1 0x0 REVERT JUMPDEST PUSH1 0x0 DUP1 REVERT JUMPDEST PUSH1 0x0 PUSH1 0x1F NOT PUSH1 0x1F DUP4 ADD AND SWAP1 POP SWAP2 SWAP1 POP JUMP JUMPDEST PUSH1 0x0 DUP2 PUSH1 0x60 SHL SWAP1 POP SWAP2 SWAP1 POP JUMP JUMPDEST PUSH1 0x0 DUP2 PUSH1 0x1 SHR SWAP1 POP SWAP2 SWAP1 POP JUMP JUMPDEST PUSH32 0x45524332303A207472616E7366657220746F20746865207A65726F2061646472 PUSH1 0x0 DUP3 ADD MSTORE PUSH32 0x6573730000000000000000000000000000000000000000000000000000000000 PUSH1 0x20 DUP3 ADD MSTORE POP JUMP JUMPDEST PUSH32 0x45524332303A20617070726F766520746F20746865207A65726F206164647265 PUSH1 0x0 DUP3 ADD MSTORE PUSH32 0x7373000000000000000000000000000000000000000000000000000000000000 PUSH1 0x20 DUP3 ADD MSTORE POP JUMP JUMPDEST PUSH32 0x45524332303A20696E73756666696369656E7420616C6C6F77616E6365000000 PUSH1 0x0 DUP3 ADD MSTORE POP JUMP JUMPDEST PUSH32 0x45524332303A207472616E7366657220616D6F756E7420657863656564732062 PUSH1 0x0 DUP3 ADD MSTORE PUSH32 0x616C616E63650000000000000000000000000000000000000000000000000000 PUSH1 0x20 DUP3 ADD MSTORE POP JUMP JUMPDEST PUSH32 0x45524332303A207472616E736665722066726F6D20746865207A65726F206164 PUSH1 0x0 DUP3 ADD MSTORE PUSH32 0x6472657373000000000000000000000000000000000000000000000000000000 PUSH1 0x20 DUP3 ADD MSTORE POP JUMP JUMPDEST PUSH32 0x45524332303A20617070726F76652066726F6D20746865207A65726F20616464 PUSH1 0x0 DUP3 ADD MSTORE PUSH32 0x7265737300000000000000000000000000000000000000000000000000000000 PUSH1 0x20 DUP3 ADD MSTORE POP JUMP JUMPDEST PUSH32 0x45524332303A2064656372656173656420616C6C6F77616E63652062656C6F77 PUSH1 0x0 DUP3 ADD MSTORE PUSH32 0x207A65726F000000000000000000000000000000000000000000000000000000 PUSH1 0x20 DUP3 ADD MSTORE POP JUMP JUMPDEST PUSH32 0x45524332303A206D696E7420746F20746865207A65726F206164647265737300 PUSH1 0x0 DUP3 ADD MSTORE POP JUMP JUMPDEST PUSH2 0x24DE DUP2 PUSH2 0x2037 JUMP JUMPDEST DUP2 EQ PUSH2 0x24E9 JUMPI PUSH1 0x0 DUP1 REVERT JUMPDEST POP JUMP JUMPDEST PUSH2 0x24F5 DUP2 PUSH2 0x207F JUMP JUMPDEST DUP2 EQ PUSH2 0x2500 JUMPI PUSH1 0x0 DUP1 REVERT JUMPDEST POP JUMP INVALID LOG2 PUSH5 0x6970667358 0x22 SLT KECCAK256 EXTCODECOPY 0xC2 0xDE 0xA6 PUSH21 0x9525FEB88C0303CE8E2859B5120F32BA86F3BEA9AA PUSH1 0x9 0xD4 EXTCODEHASH PUSH28 0x6064736F6C6343000807003300000000000000000000000000000000 "
				},
				"gasEstimates": {
					"creation": {
						"codeDepositCost": "1905800",
						"executionCost": "infinite",
						"totalCost": "infinite"
					},
					"external": {
						"NumBaseBall(uint256)": "infinite",
						"RockPaperScissors(uint256,uint256,uint256)": "infinite",
						"allowance(address,address)": "infinite",
						"approve(address,uint256)": "infinite",
						"balanceOf(address)": "2952",
						"decimals()": "388",
						"decreaseAllowance(address,uint256)": "infinite",
						"gameEND()": "infinite",
						"getNumBaseBallSore()": "infinite",
						"getRaceScore()": "infinite",
						"getRockScissorsPaper()": "infinite",
						"increaseAllowance(address,uint256)": "infinite",
						"mint(uint256)": "infinite",
						"name()": "infinite",
						"owner()": "2559",
						"race(uint256)": "infinite",
						"symbol()": "infinite",
						"totalSupply()": "2505",
						"transfer(address,uint256)": "infinite",
						"transferFrom(address,address,uint256)": "infinite"
					},
					"internal": {
						"randMod()": "infinite"
					}
				},
				"methodIdentifiers": {
					"NumBaseBall(uint256)": "19c6b708",
					"RockPaperScissors(uint256,uint256,uint256)": "a3b1f6cc",
					"allowance(address,address)": "dd62ed3e",
					"approve(address,uint256)": "095ea7b3",
					"balanceOf(address)": "70a08231",
					"decimals()": "313ce567",
					"decreaseAllowance(address,uint256)": "a457c2d7",
					"gameEND()": "8ae7fbe2",
					"getNumBaseBallSore()": "2a344f8e",
					"getRaceScore()": "b76d9cc1",
					"getRockScissorsPaper()": "4802d378",
					"increaseAllowance(address,uint256)": "39509351",
					"mint(uint256)": "a0712d68",
					"name()": "06fdde03",
					"owner()": "8da5cb5b",
					"race(uint256)": "b7dda85e",
					"symbol()": "95d89b41",
					"totalSupply()": "18160ddd",
					"transfer(address,uint256)": "a9059cbb",
					"transferFrom(address,address,uint256)": "23b872dd"
				}
			},
			"storageLayout": {
				"storage": [
					{
						"astId": 15,
						"contract": "contract/KimhoGames.sol:Game",
						"label": "_balances",
						"offset": 0,
						"slot": "0",
						"type": "t_mapping(t_address,t_uint256)"
					},
					{
						"astId": 21,
						"contract": "contract/KimhoGames.sol:Game",
						"label": "_allowances",
						"offset": 0,
						"slot": "1",
						"type": "t_mapping(t_address,t_mapping(t_address,t_uint256))"
					},
					{
						"astId": 23,
						"contract": "contract/KimhoGames.sol:Game",
						"label": "_totalSupply",
						"offset": 0,
						"slot": "2",
						"type": "t_uint256"
					},
					{
						"astId": 25,
						"contract": "contract/KimhoGames.sol:Game",
						"label": "_name",
						"offset": 0,
						"slot": "3",
						"type": "t_string_storage"
					},
					{
						"astId": 27,
						"contract": "contract/KimhoGames.sol:Game",
						"label": "_symbol",
						"offset": 0,
						"slot": "4",
						"type": "t_string_storage"
					},
					{
						"astId": 717,
						"contract": "contract/KimhoGames.sol:Game",
						"label": "owner",
						"offset": 0,
						"slot": "5",
						"type": "t_address"
					},
					{
						"astId": 719,
						"contract": "contract/KimhoGames.sol:Game",
						"label": "RockScissorsPaperScore",
						"offset": 0,
						"slot": "6",
						"type": "t_string_storage"
					},
					{
						"astId": 721,
						"contract": "contract/KimhoGames.sol:Game",
						"label": "BaseBallScore",
						"offset": 0,
						"slot": "7",
						"type": "t_string_storage"
					},
					{
						"astId": 723,
						"contract": "contract/KimhoGames.sol:Game",
						"label": "racingScore",
						"offset": 0,
						"slot": "8",
						"type": "t_string_storage"
					},
					{
						"astId": 865,
						"contract": "contract/KimhoGames.sol:Game",
						"label": "randNonce",
						"offset": 0,
						"slot": "9",
						"type": "t_uint256"
					}
				],
				"types": {
					"t_address": {
						"encoding": "inplace",
						"label": "address",
						"numberOfBytes": "20"
					},
					"t_mapping(t_address,t_mapping(t_address,t_uint256))": {
						"encoding": "mapping",
						"key": "t_address",
						"label": "mapping(address => mapping(address => uint256))",
						"numberOfBytes": "32",
						"value": "t_mapping(t_address,t_uint256)"
					},
					"t_mapping(t_address,t_uint256)": {
						"encoding": "mapping",
						"key": "t_address",
						"label": "mapping(address => uint256)",
						"numberOfBytes": "32",
						"value": "t_uint256"
					},
					"t_string_storage": {
						"encoding": "bytes",
						"label": "string",
						"numberOfBytes": "32"
					},
					"t_uint256": {
						"encoding": "inplace",
						"label": "uint256",
						"numberOfBytes": "32"
					}
				}
			},
			"userdoc": {
				"kind": "user",
				"methods": {},
				"version": 1
			}
		}
	}
}