{
	"contract/KimhoGames.sol": {
		"Game": {
			"abi": [
				{
					"inputs": [],
					"stateMutability": "nonpayable",
					"type": "constructor"
				},
				{
					"anonymous": false,
					"inputs": [
						{
							"indexed": true,
							"internalType": "address",
							"name": "owner",
							"type": "address"
						},
						{
							"indexed": true,
							"internalType": "address",
							"name": "spender",
							"type": "address"
						},
						{
							"indexed": false,
							"internalType": "uint256",
							"name": "value",
							"type": "uint256"
						}
					],
					"name": "Approval",
					"type": "event"
				},
				{
					"anonymous": false,
					"inputs": [
						{
							"indexed": true,
							"internalType": "address",
							"name": "from",
							"type": "address"
						},
						{
							"indexed": true,
							"internalType": "address",
							"name": "to",
							"type": "address"
						},
						{
							"indexed": false,
							"internalType": "uint256",
							"name": "value",
							"type": "uint256"
						}
					],
					"name": "Transfer",
					"type": "event"
				},
				{
					"inputs": [
						{
							"internalType": "uint256",
							"name": "input1",
							"type": "uint256"
						},
						{
							"internalType": "uint256",
							"name": "input2",
							"type": "uint256"
						},
						{
							"internalType": "uint256",
							"name": "input3",
							"type": "uint256"
						}
					],
					"name": "RSP",
					"outputs": [
						{
							"internalType": "string",
							"name": "",
							"type": "string"
						}
					],
					"stateMutability": "nonpayable",
					"type": "function"
				},
				{
					"inputs": [
						{
							"internalType": "address",
							"name": "owner",
							"type": "address"
						},
						{
							"internalType": "address",
							"name": "spender",
							"type": "address"
						}
					],
					"name": "allowance",
					"outputs": [
						{
							"internalType": "uint256",
							"name": "",
							"type": "uint256"
						}
					],
					"stateMutability": "view",
					"type": "function"
				},
				{
					"inputs": [
						{
							"internalType": "address",
							"name": "spender",
							"type": "address"
						},
						{
							"internalType": "uint256",
							"name": "amount",
							"type": "uint256"
						}
					],
					"name": "approve",
					"outputs": [
						{
							"internalType": "bool",
							"name": "",
							"type": "bool"
						}
					],
					"stateMutability": "nonpayable",
					"type": "function"
				},
				{
					"inputs": [
						{
							"internalType": "address",
							"name": "account",
							"type": "address"
						}
					],
					"name": "balanceOf",
					"outputs": [
						{
							"internalType": "uint256",
							"name": "",
							"type": "uint256"
						}
					],
					"stateMutability": "view",
					"type": "function"
				},
				{
					"inputs": [],
					"name": "decimals",
					"outputs": [
						{
							"internalType": "uint8",
							"name": "",
							"type": "uint8"
						}
					],
					"stateMutability": "view",
					"type": "function"
				},
				{
					"inputs": [
						{
							"internalType": "address",
							"name": "spender",
							"type": "address"
						},
						{
							"internalType": "uint256",
							"name": "subtractedValue",
							"type": "uint256"
						}
					],
					"name": "decreaseAllowance",
					"outputs": [
						{
							"internalType": "bool",
							"name": "",
							"type": "bool"
						}
					],
					"stateMutability": "nonpayable",
					"type": "function"
				},
				{
					"inputs": [],
					"name": "getRockScissorsPaper",
					"outputs": [
						{
							"internalType": "string",
							"name": "",
							"type": "string"
						}
					],
					"stateMutability": "view",
					"type": "function"
				},
				{
					"inputs": [
						{
							"internalType": "address",
							"name": "spender",
							"type": "address"
						},
						{
							"internalType": "uint256",
							"name": "addedValue",
							"type": "uint256"
						}
					],
					"name": "increaseAllowance",
					"outputs": [
						{
							"internalType": "bool",
							"name": "",
							"type": "bool"
						}
					],
					"stateMutability": "nonpayable",
					"type": "function"
				},
				{
					"inputs": [
						{
							"internalType": "uint256",
							"name": "amount",
							"type": "uint256"
						}
					],
					"name": "mint",
					"outputs": [],
					"stateMutability": "nonpayable",
					"type": "function"
				},
				{
					"inputs": [],
					"name": "name",
					"outputs": [
						{
							"internalType": "string",
							"name": "",
							"type": "string"
						}
					],
					"stateMutability": "view",
					"type": "function"
				},
				{
					"inputs": [],
					"name": "owner",
					"outputs": [
						{
							"internalType": "address",
							"name": "",
							"type": "address"
						}
					],
					"stateMutability": "view",
					"type": "function"
				},
				{
					"inputs": [],
					"name": "symbol",
					"outputs": [
						{
							"internalType": "string",
							"name": "",
							"type": "string"
						}
					],
					"stateMutability": "view",
					"type": "function"
				},
				{
					"inputs": [],
					"name": "totalSupply",
					"outputs": [
						{
							"internalType": "uint256",
							"name": "",
							"type": "uint256"
						}
					],
					"stateMutability": "view",
					"type": "function"
				},
				{
					"inputs": [
						{
							"internalType": "address",
							"name": "to",
							"type": "address"
						},
						{
							"internalType": "uint256",
							"name": "amount",
							"type": "uint256"
						}
					],
					"name": "transfer",
					"outputs": [
						{
							"internalType": "bool",
							"name": "",
							"type": "bool"
						}
					],
					"stateMutability": "nonpayable",
					"type": "function"
				},
				{
					"inputs": [
						{
							"internalType": "address",
							"name": "from",
							"type": "address"
						},
						{
							"internalType": "address",
							"name": "to",
							"type": "address"
						},
						{
							"internalType": "uint256",
							"name": "amount",
							"type": "uint256"
						}
					],
					"name": "transferFrom",
					"outputs": [
						{
							"internalType": "bool",
							"name": "",
							"type": "bool"
						}
					],
					"stateMutability": "nonpayable",
					"type": "function"
				}
			],
			"devdoc": {
				"kind": "dev",
				"methods": {
					"allowance(address,address)": {
						"details": "See {IERC20-allowance}."
					},
					"approve(address,uint256)": {
						"details": "See {IERC20-approve}. NOTE: If `amount` is the maximum `uint256`, the allowance is not updated on `transferFrom`. This is semantically equivalent to an infinite approval. Requirements: - `spender` cannot be the zero address."
					},
					"balanceOf(address)": {
						"details": "See {IERC20-balanceOf}."
					},
					"decimals()": {
						"details": "Returns the number of decimals used to get its user representation. For example, if `decimals` equals `2`, a balance of `505` tokens should be displayed to a user as `5.05` (`505 / 10 ** 2`). Tokens usually opt for a value of 18, imitating the relationship between Ether and Wei. This is the value {ERC20} uses, unless this function is overridden; NOTE: This information is only used for _display_ purposes: it in no way affects any of the arithmetic of the contract, including {IERC20-balanceOf} and {IERC20-transfer}."
					},
					"decreaseAllowance(address,uint256)": {
						"details": "Atomically decreases the allowance granted to `spender` by the caller. This is an alternative to {approve} that can be used as a mitigation for problems described in {IERC20-approve}. Emits an {Approval} event indicating the updated allowance. Requirements: - `spender` cannot be the zero address. - `spender` must have allowance for the caller of at least `subtractedValue`."
					},
					"increaseAllowance(address,uint256)": {
						"details": "Atomically increases the allowance granted to `spender` by the caller. This is an alternative to {approve} that can be used as a mitigation for problems described in {IERC20-approve}. Emits an {Approval} event indicating the updated allowance. Requirements: - `spender` cannot be the zero address."
					},
					"name()": {
						"details": "Returns the name of the token."
					},
					"symbol()": {
						"details": "Returns the symbol of the token, usually a shorter version of the name."
					},
					"totalSupply()": {
						"details": "See {IERC20-totalSupply}."
					},
					"transfer(address,uint256)": {
						"details": "See {IERC20-transfer}. Requirements: - `to` cannot be the zero address. - the caller must have a balance of at least `amount`."
					},
					"transferFrom(address,address,uint256)": {
						"details": "See {IERC20-transferFrom}. Emits an {Approval} event indicating the updated allowance. This is not required by the EIP. See the note at the beginning of {ERC20}. NOTE: Does not update the allowance if the current allowance is the maximum `uint256`. Requirements: - `from` and `to` cannot be the zero address. - `from` must have a balance of at least `amount`. - the caller must have allowance for ``from``'s tokens of at least `amount`."
					}
				},
				"version": 1
			},
			"evm": {
				"assembly": "    /* \"contract/KimhoGames.sol\":132:5080  contract Game is ERC20{\r... */\n  mstore(0x40, 0x80)\n    /* \"contract/KimhoGames.sol\":711:712  0 */\n  0x00\n    /* \"contract/KimhoGames.sol\":696:712  uint randNonce=0 */\n  0x09\n  sstore\n    /* \"contract/KimhoGames.sol\":290:420  constructor() ERC20(\"GameCoin\", \"Alice\"){ //생성자\r... */\n  callvalue\n  dup1\n  iszero\n  tag_1\n  jumpi\n  0x00\n  dup1\n  revert\ntag_1:\n  pop\n    /* \"@openzeppelin/contracts/token/ERC20/ERC20.sol\":1978:2091  constructor(string memory name_, string memory symbol_) {... */\n  mload(0x40)\n  dup1\n  0x40\n  add\n  0x40\n  mstore\n  dup1\n  0x08\n  dup2\n  mstore\n  0x20\n  add\n  0x47616d65436f696e000000000000000000000000000000000000000000000000\n  dup2\n  mstore\n  pop\n  mload(0x40)\n  dup1\n  0x40\n  add\n  0x40\n  mstore\n  dup1\n  0x05\n  dup2\n  mstore\n  0x20\n  add\n  0x416c696365000000000000000000000000000000000000000000000000000000\n  dup2\n  mstore\n  pop\n    /* \"@openzeppelin/contracts/token/ERC20/ERC20.sol\":2052:2057  name_ */\n  dup2\n    /* \"@openzeppelin/contracts/token/ERC20/ERC20.sol\":2044:2049  _name */\n  0x03\n    /* \"@openzeppelin/contracts/token/ERC20/ERC20.sol\":2044:2057  _name = name_ */\n  swap1\n  dup1\n  mload\n  swap1\n  0x20\n  add\n  swap1\n  tag_5\n  swap3\n  swap2\n  swap1\n  tag_6\n  jump\t// in\ntag_5:\n  pop\n    /* \"@openzeppelin/contracts/token/ERC20/ERC20.sol\":2077:2084  symbol_ */\n  dup1\n    /* \"@openzeppelin/contracts/token/ERC20/ERC20.sol\":2067:2074  _symbol */\n  0x04\n    /* \"@openzeppelin/contracts/token/ERC20/ERC20.sol\":2067:2084  _symbol = symbol_ */\n  swap1\n  dup1\n  mload\n  swap1\n  0x20\n  add\n  swap1\n  tag_7\n  swap3\n  swap2\n  swap1\n  tag_6\n  jump\t// in\ntag_7:\n  pop\n    /* \"@openzeppelin/contracts/token/ERC20/ERC20.sol\":1978:2091  constructor(string memory name_, string memory symbol_) {... */\n  pop\n  pop\n    /* \"contract/KimhoGames.sol\":361:371  msg.sender */\n  caller\n    /* \"contract/KimhoGames.sol\":353:358  owner */\n  0x05\n  0x00\n    /* \"contract/KimhoGames.sol\":353:371  owner = msg.sender */\n  0x0100\n  exp\n  dup2\n  sload\n  dup2\n  0xffffffffffffffffffffffffffffffffffffffff\n  mul\n  not\n  and\n  swap1\n  dup4\n  0xffffffffffffffffffffffffffffffffffffffff\n  and\n  mul\n  or\n  swap1\n  sstore\n  pop\n    /* \"contract/KimhoGames.sol\":132:5080  contract Game is ERC20{\r... */\n  jump(tag_9)\ntag_6:\n  dup3\n  dup1\n  sload\n  tag_10\n  swap1\n  tag_11\n  jump\t// in\ntag_10:\n  swap1\n  0x00\n  mstore\n  keccak256(0x00, 0x20)\n  swap1\n  0x1f\n  add\n  0x20\n  swap1\n  div\n  dup2\n  add\n  swap3\n  dup3\n  tag_13\n  jumpi\n  0x00\n  dup6\n  sstore\n  jump(tag_12)\ntag_13:\n  dup3\n  0x1f\n  lt\n  tag_14\n  jumpi\n  dup1\n  mload\n  not(0xff)\n  and\n  dup4\n  dup1\n  add\n  or\n  dup6\n  sstore\n  jump(tag_12)\ntag_14:\n  dup3\n  dup1\n  add\n  0x01\n  add\n  dup6\n  sstore\n  dup3\n  iszero\n  tag_12\n  jumpi\n  swap2\n  dup3\n  add\ntag_15:\n  dup3\n  dup2\n  gt\n  iszero\n  tag_16\n  jumpi\n  dup3\n  mload\n  dup3\n  sstore\n  swap2\n  0x20\n  add\n  swap2\n  swap1\n  0x01\n  add\n  swap1\n  jump(tag_15)\ntag_16:\ntag_12:\n  pop\n  swap1\n  pop\n  tag_17\n  swap2\n  swap1\n  tag_18\n  jump\t// in\ntag_17:\n  pop\n  swap1\n  jump\t// out\ntag_18:\ntag_19:\n  dup1\n  dup3\n  gt\n  iszero\n  tag_20\n  jumpi\n  0x00\n  dup2\n  0x00\n  swap1\n  sstore\n  pop\n  0x01\n  add\n  jump(tag_19)\ntag_20:\n  pop\n  swap1\n  jump\t// out\n    /* \"#utility.yul\":7:327   */\ntag_11:\n    /* \"#utility.yul\":51:57   */\n  0x00\n    /* \"#utility.yul\":88:89   */\n  0x02\n    /* \"#utility.yul\":82:86   */\n  dup3\n    /* \"#utility.yul\":78:90   */\n  div\n    /* \"#utility.yul\":68:90   */\n  swap1\n  pop\n    /* \"#utility.yul\":135:136   */\n  0x01\n    /* \"#utility.yul\":129:133   */\n  dup3\n    /* \"#utility.yul\":125:137   */\n  and\n    /* \"#utility.yul\":156:174   */\n  dup1\n    /* \"#utility.yul\":146:227   */\n  tag_23\n  jumpi\n    /* \"#utility.yul\":212:216   */\n  0x7f\n    /* \"#utility.yul\":204:210   */\n  dup3\n    /* \"#utility.yul\":200:217   */\n  and\n    /* \"#utility.yul\":190:217   */\n  swap2\n  pop\n    /* \"#utility.yul\":146:227   */\ntag_23:\n    /* \"#utility.yul\":274:276   */\n  0x20\n    /* \"#utility.yul\":266:272   */\n  dup3\n    /* \"#utility.yul\":263:277   */\n  lt\n    /* \"#utility.yul\":243:261   */\n  dup2\n    /* \"#utility.yul\":240:278   */\n  eq\n    /* \"#utility.yul\":237:321   */\n  iszero\n  tag_24\n  jumpi\n    /* \"#utility.yul\":293:311   */\n  tag_25\n  tag_26\n  jump\t// in\ntag_25:\n    /* \"#utility.yul\":237:321   */\ntag_24:\n    /* \"#utility.yul\":58:327   */\n  pop\n    /* \"#utility.yul\":7:327   */\n  swap2\n  swap1\n  pop\n  jump\t// out\n    /* \"#utility.yul\":333:513   */\ntag_26:\n    /* \"#utility.yul\":381:458   */\n  0x4e487b7100000000000000000000000000000000000000000000000000000000\n    /* \"#utility.yul\":378:379   */\n  0x00\n    /* \"#utility.yul\":371:459   */\n  mstore\n    /* \"#utility.yul\":478:482   */\n  0x22\n    /* \"#utility.yul\":475:476   */\n  0x04\n    /* \"#utility.yul\":468:483   */\n  mstore\n    /* \"#utility.yul\":502:506   */\n  0x24\n    /* \"#utility.yul\":499:500   */\n  0x00\n    /* \"#utility.yul\":492:507   */\n  revert\n    /* \"contract/KimhoGames.sol\":132:5080  contract Game is ERC20{\r... */\ntag_9:\n  dataSize(sub_0)\n  dup1\n  dataOffset(sub_0)\n  0x00\n  codecopy\n  0x00\n  return\nstop\n\nsub_0: assembly {\n        /* \"contract/KimhoGames.sol\":132:5080  contract Game is ERC20{\r... */\n      mstore(0x40, 0x80)\n      callvalue\n      dup1\n      iszero\n      tag_1\n      jumpi\n      0x00\n      dup1\n      revert\n    tag_1:\n      pop\n      jumpi(tag_2, lt(calldatasize, 0x04))\n      shr(0xe0, calldataload(0x00))\n      dup1\n      0x70a08231\n      gt\n      tag_18\n      jumpi\n      dup1\n      0xa457c2d7\n      gt\n      tag_19\n      jumpi\n      dup1\n      0xa457c2d7\n      eq\n      tag_14\n      jumpi\n      dup1\n      0xa9059cbb\n      eq\n      tag_15\n      jumpi\n      dup1\n      0xc64d3161\n      eq\n      tag_16\n      jumpi\n      dup1\n      0xdd62ed3e\n      eq\n      tag_17\n      jumpi\n      jump(tag_2)\n    tag_19:\n      dup1\n      0x70a08231\n      eq\n      tag_10\n      jumpi\n      dup1\n      0x8da5cb5b\n      eq\n      tag_11\n      jumpi\n      dup1\n      0x95d89b41\n      eq\n      tag_12\n      jumpi\n      dup1\n      0xa0712d68\n      eq\n      tag_13\n      jumpi\n      jump(tag_2)\n    tag_18:\n      dup1\n      0x23b872dd\n      gt\n      tag_20\n      jumpi\n      dup1\n      0x23b872dd\n      eq\n      tag_6\n      jumpi\n      dup1\n      0x313ce567\n      eq\n      tag_7\n      jumpi\n      dup1\n      0x39509351\n      eq\n      tag_8\n      jumpi\n      dup1\n      0x4802d378\n      eq\n      tag_9\n      jumpi\n      jump(tag_2)\n    tag_20:\n      dup1\n      0x06fdde03\n      eq\n      tag_3\n      jumpi\n      dup1\n      0x095ea7b3\n      eq\n      tag_4\n      jumpi\n      dup1\n      0x18160ddd\n      eq\n      tag_5\n      jumpi\n    tag_2:\n      0x00\n      dup1\n      revert\n        /* \"@openzeppelin/contracts/token/ERC20/ERC20.sol\":2156:2254  function name() public view virtual override returns (string memory) {... */\n    tag_3:\n      tag_21\n      tag_22\n      jump\t// in\n    tag_21:\n      mload(0x40)\n      tag_23\n      swap2\n      swap1\n      tag_24\n      jump\t// in\n    tag_23:\n      mload(0x40)\n      dup1\n      swap2\n      sub\n      swap1\n      return\n        /* \"@openzeppelin/contracts/token/ERC20/ERC20.sol\":4433:4630  function approve(address spender, uint256 amount) public virtual override returns (bool) {... */\n    tag_4:\n      tag_25\n      0x04\n      dup1\n      calldatasize\n      sub\n      dup2\n      add\n      swap1\n      tag_26\n      swap2\n      swap1\n      tag_27\n      jump\t// in\n    tag_26:\n      tag_28\n      jump\t// in\n    tag_25:\n      mload(0x40)\n      tag_29\n      swap2\n      swap1\n      tag_30\n      jump\t// in\n    tag_29:\n      mload(0x40)\n      dup1\n      swap2\n      sub\n      swap1\n      return\n        /* \"@openzeppelin/contracts/token/ERC20/ERC20.sol\":3244:3350  function totalSupply() public view virtual override returns (uint256) {... */\n    tag_5:\n      tag_31\n      tag_32\n      jump\t// in\n    tag_31:\n      mload(0x40)\n      tag_33\n      swap2\n      swap1\n      tag_34\n      jump\t// in\n    tag_33:\n      mload(0x40)\n      dup1\n      swap2\n      sub\n      swap1\n      return\n        /* \"@openzeppelin/contracts/token/ERC20/ERC20.sol\":5192:5478  function transferFrom(... */\n    tag_6:\n      tag_35\n      0x04\n      dup1\n      calldatasize\n      sub\n      dup2\n      add\n      swap1\n      tag_36\n      swap2\n      swap1\n      tag_37\n      jump\t// in\n    tag_36:\n      tag_38\n      jump\t// in\n    tag_35:\n      mload(0x40)\n      tag_39\n      swap2\n      swap1\n      tag_30\n      jump\t// in\n    tag_39:\n      mload(0x40)\n      dup1\n      swap2\n      sub\n      swap1\n      return\n        /* \"@openzeppelin/contracts/token/ERC20/ERC20.sol\":3093:3184  function decimals() public view virtual override returns (uint8) {... */\n    tag_7:\n      tag_40\n      tag_41\n      jump\t// in\n    tag_40:\n      mload(0x40)\n      tag_42\n      swap2\n      swap1\n      tag_43\n      jump\t// in\n    tag_42:\n      mload(0x40)\n      dup1\n      swap2\n      sub\n      swap1\n      return\n        /* \"@openzeppelin/contracts/token/ERC20/ERC20.sol\":5873:6107  function increaseAllowance(address spender, uint256 addedValue) public virtual returns (bool) {... */\n    tag_8:\n      tag_44\n      0x04\n      dup1\n      calldatasize\n      sub\n      dup2\n      add\n      swap1\n      tag_45\n      swap2\n      swap1\n      tag_27\n      jump\t// in\n    tag_45:\n      tag_46\n      jump\t// in\n    tag_44:\n      mload(0x40)\n      tag_47\n      swap2\n      swap1\n      tag_30\n      jump\t// in\n    tag_47:\n      mload(0x40)\n      dup1\n      swap2\n      sub\n      swap1\n      return\n        /* \"contract/KimhoGames.sol\":4962:5077  function getRockScissorsPaper() public view returns (string memory){\r... */\n    tag_9:\n      tag_48\n      tag_49\n      jump\t// in\n    tag_48:\n      mload(0x40)\n      tag_50\n      swap2\n      swap1\n      tag_24\n      jump\t// in\n    tag_50:\n      mload(0x40)\n      dup1\n      swap2\n      sub\n      swap1\n      return\n        /* \"@openzeppelin/contracts/token/ERC20/ERC20.sol\":3408:3533  function balanceOf(address account) public view virtual override returns (uint256) {... */\n    tag_10:\n      tag_51\n      0x04\n      dup1\n      calldatasize\n      sub\n      dup2\n      add\n      swap1\n      tag_52\n      swap2\n      swap1\n      tag_53\n      jump\t// in\n    tag_52:\n      tag_54\n      jump\t// in\n    tag_51:\n      mload(0x40)\n      tag_55\n      swap2\n      swap1\n      tag_34\n      jump\t// in\n    tag_55:\n      mload(0x40)\n      dup1\n      swap2\n      sub\n      swap1\n      return\n        /* \"contract/KimhoGames.sol\":161:181  address public owner */\n    tag_11:\n      tag_56\n      tag_57\n      jump\t// in\n    tag_56:\n      mload(0x40)\n      tag_58\n      swap2\n      swap1\n      tag_59\n      jump\t// in\n    tag_58:\n      mload(0x40)\n      dup1\n      swap2\n      sub\n      swap1\n      return\n        /* \"@openzeppelin/contracts/token/ERC20/ERC20.sol\":2367:2469  function symbol() public view virtual override returns (string memory) {... */\n    tag_12:\n      tag_60\n      tag_61\n      jump\t// in\n    tag_60:\n      mload(0x40)\n      tag_62\n      swap2\n      swap1\n      tag_24\n      jump\t// in\n    tag_62:\n      mload(0x40)\n      dup1\n      swap2\n      sub\n      swap1\n      return\n        /* \"contract/KimhoGames.sol\":589:684  function mint(uint256 amount) public {\r... */\n    tag_13:\n      tag_63\n      0x04\n      dup1\n      calldatasize\n      sub\n      dup2\n      add\n      swap1\n      tag_64\n      swap2\n      swap1\n      tag_65\n      jump\t// in\n    tag_64:\n      tag_66\n      jump\t// in\n    tag_63:\n      stop\n        /* \"@openzeppelin/contracts/token/ERC20/ERC20.sol\":6594:7021  function decreaseAllowance(address spender, uint256 subtractedValue) public virtual returns (bool) {... */\n    tag_14:\n      tag_67\n      0x04\n      dup1\n      calldatasize\n      sub\n      dup2\n      add\n      swap1\n      tag_68\n      swap2\n      swap1\n      tag_27\n      jump\t// in\n    tag_68:\n      tag_69\n      jump\t// in\n    tag_67:\n      mload(0x40)\n      tag_70\n      swap2\n      swap1\n      tag_30\n      jump\t// in\n    tag_70:\n      mload(0x40)\n      dup1\n      swap2\n      sub\n      swap1\n      return\n        /* \"contract/KimhoGames.sol\":432:577  function transfer(address to, uint256 amount) public override returns (bool){\r... */\n    tag_15:\n      tag_71\n      0x04\n      dup1\n      calldatasize\n      sub\n      dup2\n      add\n      swap1\n      tag_72\n      swap2\n      swap1\n      tag_27\n      jump\t// in\n    tag_72:\n      tag_73\n      jump\t// in\n    tag_71:\n      mload(0x40)\n      tag_74\n      swap2\n      swap1\n      tag_30\n      jump\t// in\n    tag_74:\n      mload(0x40)\n      dup1\n      swap2\n      sub\n      swap1\n      return\n        /* \"contract/KimhoGames.sol\":918:4954  function RSP(uint input1, uint input2, uint input3) public returns (string memory){\r... */\n    tag_16:\n      tag_75\n      0x04\n      dup1\n      calldatasize\n      sub\n      dup2\n      add\n      swap1\n      tag_76\n      swap2\n      swap1\n      tag_77\n      jump\t// in\n    tag_76:\n      tag_78\n      jump\t// in\n    tag_75:\n      mload(0x40)\n      tag_79\n      swap2\n      swap1\n      tag_24\n      jump\t// in\n    tag_79:\n      mload(0x40)\n      dup1\n      swap2\n      sub\n      swap1\n      return\n        /* \"@openzeppelin/contracts/token/ERC20/ERC20.sol\":3976:4125  function allowance(address owner, address spender) public view virtual override returns (uint256) {... */\n    tag_17:\n      tag_80\n      0x04\n      dup1\n      calldatasize\n      sub\n      dup2\n      add\n      swap1\n      tag_81\n      swap2\n      swap1\n      tag_82\n      jump\t// in\n    tag_81:\n      tag_83\n      jump\t// in\n    tag_80:\n      mload(0x40)\n      tag_84\n      swap2\n      swap1\n      tag_34\n      jump\t// in\n    tag_84:\n      mload(0x40)\n      dup1\n      swap2\n      sub\n      swap1\n      return\n        /* \"@openzeppelin/contracts/token/ERC20/ERC20.sol\":2156:2254  function name() public view virtual override returns (string memory) {... */\n    tag_22:\n        /* \"@openzeppelin/contracts/token/ERC20/ERC20.sol\":2210:2223  string memory */\n      0x60\n        /* \"@openzeppelin/contracts/token/ERC20/ERC20.sol\":2242:2247  _name */\n      0x03\n        /* \"@openzeppelin/contracts/token/ERC20/ERC20.sol\":2235:2247  return _name */\n      dup1\n      sload\n      tag_86\n      swap1\n      tag_87\n      jump\t// in\n    tag_86:\n      dup1\n      0x1f\n      add\n      0x20\n      dup1\n      swap2\n      div\n      mul\n      0x20\n      add\n      mload(0x40)\n      swap1\n      dup2\n      add\n      0x40\n      mstore\n      dup1\n      swap3\n      swap2\n      swap1\n      dup2\n      dup2\n      mstore\n      0x20\n      add\n      dup3\n      dup1\n      sload\n      tag_88\n      swap1\n      tag_87\n      jump\t// in\n    tag_88:\n      dup1\n      iszero\n      tag_89\n      jumpi\n      dup1\n      0x1f\n      lt\n      tag_90\n      jumpi\n      0x0100\n      dup1\n      dup4\n      sload\n      div\n      mul\n      dup4\n      mstore\n      swap2\n      0x20\n      add\n      swap2\n      jump(tag_89)\n    tag_90:\n      dup3\n      add\n      swap2\n      swap1\n      0x00\n      mstore\n      keccak256(0x00, 0x20)\n      swap1\n    tag_91:\n      dup2\n      sload\n      dup2\n      mstore\n      swap1\n      0x01\n      add\n      swap1\n      0x20\n      add\n      dup1\n      dup4\n      gt\n      tag_91\n      jumpi\n      dup3\n      swap1\n      sub\n      0x1f\n      and\n      dup3\n      add\n      swap2\n    tag_89:\n      pop\n      pop\n      pop\n      pop\n      pop\n      swap1\n      pop\n        /* \"@openzeppelin/contracts/token/ERC20/ERC20.sol\":2156:2254  function name() public view virtual override returns (string memory) {... */\n      swap1\n      jump\t// out\n        /* \"@openzeppelin/contracts/token/ERC20/ERC20.sol\":4433:4630  function approve(address spender, uint256 amount) public virtual override returns (bool) {... */\n    tag_28:\n        /* \"@openzeppelin/contracts/token/ERC20/ERC20.sol\":4516:4520  bool */\n      0x00\n        /* \"@openzeppelin/contracts/token/ERC20/ERC20.sol\":4532:4545  address owner */\n      dup1\n        /* \"@openzeppelin/contracts/token/ERC20/ERC20.sol\":4548:4560  _msgSender() */\n      tag_93\n        /* \"@openzeppelin/contracts/token/ERC20/ERC20.sol\":4548:4558  _msgSender */\n      tag_94\n        /* \"@openzeppelin/contracts/token/ERC20/ERC20.sol\":4548:4560  _msgSender() */\n      jump\t// in\n    tag_93:\n        /* \"@openzeppelin/contracts/token/ERC20/ERC20.sol\":4532:4560  address owner = _msgSender() */\n      swap1\n      pop\n        /* \"@openzeppelin/contracts/token/ERC20/ERC20.sol\":4570:4602  _approve(owner, spender, amount) */\n      tag_95\n        /* \"@openzeppelin/contracts/token/ERC20/ERC20.sol\":4579:4584  owner */\n      dup2\n        /* \"@openzeppelin/contracts/token/ERC20/ERC20.sol\":4586:4593  spender */\n      dup6\n        /* \"@openzeppelin/contracts/token/ERC20/ERC20.sol\":4595:4601  amount */\n      dup6\n        /* \"@openzeppelin/contracts/token/ERC20/ERC20.sol\":4570:4578  _approve */\n      tag_96\n        /* \"@openzeppelin/contracts/token/ERC20/ERC20.sol\":4570:4602  _approve(owner, spender, amount) */\n      jump\t// in\n    tag_95:\n        /* \"@openzeppelin/contracts/token/ERC20/ERC20.sol\":4619:4623  true */\n      0x01\n        /* \"@openzeppelin/contracts/token/ERC20/ERC20.sol\":4612:4623  return true */\n      swap2\n      pop\n      pop\n        /* \"@openzeppelin/contracts/token/ERC20/ERC20.sol\":4433:4630  function approve(address spender, uint256 amount) public virtual override returns (bool) {... */\n      swap3\n      swap2\n      pop\n      pop\n      jump\t// out\n        /* \"@openzeppelin/contracts/token/ERC20/ERC20.sol\":3244:3350  function totalSupply() public view virtual override returns (uint256) {... */\n    tag_32:\n        /* \"@openzeppelin/contracts/token/ERC20/ERC20.sol\":3305:3312  uint256 */\n      0x00\n        /* \"@openzeppelin/contracts/token/ERC20/ERC20.sol\":3331:3343  _totalSupply */\n      sload(0x02)\n        /* \"@openzeppelin/contracts/token/ERC20/ERC20.sol\":3324:3343  return _totalSupply */\n      swap1\n      pop\n        /* \"@openzeppelin/contracts/token/ERC20/ERC20.sol\":3244:3350  function totalSupply() public view virtual override returns (uint256) {... */\n      swap1\n      jump\t// out\n        /* \"@openzeppelin/contracts/token/ERC20/ERC20.sol\":5192:5478  function transferFrom(... */\n    tag_38:\n        /* \"@openzeppelin/contracts/token/ERC20/ERC20.sol\":5319:5323  bool */\n      0x00\n        /* \"@openzeppelin/contracts/token/ERC20/ERC20.sol\":5335:5350  address spender */\n      dup1\n        /* \"@openzeppelin/contracts/token/ERC20/ERC20.sol\":5353:5365  _msgSender() */\n      tag_99\n        /* \"@openzeppelin/contracts/token/ERC20/ERC20.sol\":5353:5363  _msgSender */\n      tag_94\n        /* \"@openzeppelin/contracts/token/ERC20/ERC20.sol\":5353:5365  _msgSender() */\n      jump\t// in\n    tag_99:\n        /* \"@openzeppelin/contracts/token/ERC20/ERC20.sol\":5335:5365  address spender = _msgSender() */\n      swap1\n      pop\n        /* \"@openzeppelin/contracts/token/ERC20/ERC20.sol\":5375:5413  _spendAllowance(from, spender, amount) */\n      tag_100\n        /* \"@openzeppelin/contracts/token/ERC20/ERC20.sol\":5391:5395  from */\n      dup6\n        /* \"@openzeppelin/contracts/token/ERC20/ERC20.sol\":5397:5404  spender */\n      dup3\n        /* \"@openzeppelin/contracts/token/ERC20/ERC20.sol\":5406:5412  amount */\n      dup6\n        /* \"@openzeppelin/contracts/token/ERC20/ERC20.sol\":5375:5390  _spendAllowance */\n      tag_101\n        /* \"@openzeppelin/contracts/token/ERC20/ERC20.sol\":5375:5413  _spendAllowance(from, spender, amount) */\n      jump\t// in\n    tag_100:\n        /* \"@openzeppelin/contracts/token/ERC20/ERC20.sol\":5423:5450  _transfer(from, to, amount) */\n      tag_102\n        /* \"@openzeppelin/contracts/token/ERC20/ERC20.sol\":5433:5437  from */\n      dup6\n        /* \"@openzeppelin/contracts/token/ERC20/ERC20.sol\":5439:5441  to */\n      dup6\n        /* \"@openzeppelin/contracts/token/ERC20/ERC20.sol\":5443:5449  amount */\n      dup6\n        /* \"@openzeppelin/contracts/token/ERC20/ERC20.sol\":5423:5432  _transfer */\n      tag_103\n        /* \"@openzeppelin/contracts/token/ERC20/ERC20.sol\":5423:5450  _transfer(from, to, amount) */\n      jump\t// in\n    tag_102:\n        /* \"@openzeppelin/contracts/token/ERC20/ERC20.sol\":5467:5471  true */\n      0x01\n        /* \"@openzeppelin/contracts/token/ERC20/ERC20.sol\":5460:5471  return true */\n      swap2\n      pop\n      pop\n        /* \"@openzeppelin/contracts/token/ERC20/ERC20.sol\":5192:5478  function transferFrom(... */\n      swap4\n      swap3\n      pop\n      pop\n      pop\n      jump\t// out\n        /* \"@openzeppelin/contracts/token/ERC20/ERC20.sol\":3093:3184  function decimals() public view virtual override returns (uint8) {... */\n    tag_41:\n        /* \"@openzeppelin/contracts/token/ERC20/ERC20.sol\":3151:3156  uint8 */\n      0x00\n        /* \"@openzeppelin/contracts/token/ERC20/ERC20.sol\":3175:3177  18 */\n      0x12\n        /* \"@openzeppelin/contracts/token/ERC20/ERC20.sol\":3168:3177  return 18 */\n      swap1\n      pop\n        /* \"@openzeppelin/contracts/token/ERC20/ERC20.sol\":3093:3184  function decimals() public view virtual override returns (uint8) {... */\n      swap1\n      jump\t// out\n        /* \"@openzeppelin/contracts/token/ERC20/ERC20.sol\":5873:6107  function increaseAllowance(address spender, uint256 addedValue) public virtual returns (bool) {... */\n    tag_46:\n        /* \"@openzeppelin/contracts/token/ERC20/ERC20.sol\":5961:5965  bool */\n      0x00\n        /* \"@openzeppelin/contracts/token/ERC20/ERC20.sol\":5977:5990  address owner */\n      dup1\n        /* \"@openzeppelin/contracts/token/ERC20/ERC20.sol\":5993:6005  _msgSender() */\n      tag_106\n        /* \"@openzeppelin/contracts/token/ERC20/ERC20.sol\":5993:6003  _msgSender */\n      tag_94\n        /* \"@openzeppelin/contracts/token/ERC20/ERC20.sol\":5993:6005  _msgSender() */\n      jump\t// in\n    tag_106:\n        /* \"@openzeppelin/contracts/token/ERC20/ERC20.sol\":5977:6005  address owner = _msgSender() */\n      swap1\n      pop\n        /* \"@openzeppelin/contracts/token/ERC20/ERC20.sol\":6015:6079  _approve(owner, spender, allowance(owner, spender) + addedValue) */\n      tag_107\n        /* \"@openzeppelin/contracts/token/ERC20/ERC20.sol\":6024:6029  owner */\n      dup2\n        /* \"@openzeppelin/contracts/token/ERC20/ERC20.sol\":6031:6038  spender */\n      dup6\n        /* \"@openzeppelin/contracts/token/ERC20/ERC20.sol\":6068:6078  addedValue */\n      dup6\n        /* \"@openzeppelin/contracts/token/ERC20/ERC20.sol\":6040:6065  allowance(owner, spender) */\n      tag_108\n        /* \"@openzeppelin/contracts/token/ERC20/ERC20.sol\":6050:6055  owner */\n      dup6\n        /* \"@openzeppelin/contracts/token/ERC20/ERC20.sol\":6057:6064  spender */\n      dup10\n        /* \"@openzeppelin/contracts/token/ERC20/ERC20.sol\":6040:6049  allowance */\n      tag_83\n        /* \"@openzeppelin/contracts/token/ERC20/ERC20.sol\":6040:6065  allowance(owner, spender) */\n      jump\t// in\n    tag_108:\n        /* \"@openzeppelin/contracts/token/ERC20/ERC20.sol\":6040:6078  allowance(owner, spender) + addedValue */\n      tag_109\n      swap2\n      swap1\n      tag_110\n      jump\t// in\n    tag_109:\n        /* \"@openzeppelin/contracts/token/ERC20/ERC20.sol\":6015:6023  _approve */\n      tag_96\n        /* \"@openzeppelin/contracts/token/ERC20/ERC20.sol\":6015:6079  _approve(owner, spender, allowance(owner, spender) + addedValue) */\n      jump\t// in\n    tag_107:\n        /* \"@openzeppelin/contracts/token/ERC20/ERC20.sol\":6096:6100  true */\n      0x01\n        /* \"@openzeppelin/contracts/token/ERC20/ERC20.sol\":6089:6100  return true */\n      swap2\n      pop\n      pop\n        /* \"@openzeppelin/contracts/token/ERC20/ERC20.sol\":5873:6107  function increaseAllowance(address spender, uint256 addedValue) public virtual returns (bool) {... */\n      swap3\n      swap2\n      pop\n      pop\n      jump\t// out\n        /* \"contract/KimhoGames.sol\":4962:5077  function getRockScissorsPaper() public view returns (string memory){\r... */\n    tag_49:\n        /* \"contract/KimhoGames.sol\":5015:5028  string memory */\n      0x60\n        /* \"contract/KimhoGames.sol\":5047:5069  RockScissorsPaperScore */\n      0x06\n        /* \"contract/KimhoGames.sol\":5040:5069  return RockScissorsPaperScore */\n      dup1\n      sload\n      tag_112\n      swap1\n      tag_87\n      jump\t// in\n    tag_112:\n      dup1\n      0x1f\n      add\n      0x20\n      dup1\n      swap2\n      div\n      mul\n      0x20\n      add\n      mload(0x40)\n      swap1\n      dup2\n      add\n      0x40\n      mstore\n      dup1\n      swap3\n      swap2\n      swap1\n      dup2\n      dup2\n      mstore\n      0x20\n      add\n      dup3\n      dup1\n      sload\n      tag_113\n      swap1\n      tag_87\n      jump\t// in\n    tag_113:\n      dup1\n      iszero\n      tag_114\n      jumpi\n      dup1\n      0x1f\n      lt\n      tag_115\n      jumpi\n      0x0100\n      dup1\n      dup4\n      sload\n      div\n      mul\n      dup4\n      mstore\n      swap2\n      0x20\n      add\n      swap2\n      jump(tag_114)\n    tag_115:\n      dup3\n      add\n      swap2\n      swap1\n      0x00\n      mstore\n      keccak256(0x00, 0x20)\n      swap1\n    tag_116:\n      dup2\n      sload\n      dup2\n      mstore\n      swap1\n      0x01\n      add\n      swap1\n      0x20\n      add\n      dup1\n      dup4\n      gt\n      tag_116\n      jumpi\n      dup3\n      swap1\n      sub\n      0x1f\n      and\n      dup3\n      add\n      swap2\n    tag_114:\n      pop\n      pop\n      pop\n      pop\n      pop\n      swap1\n      pop\n        /* \"contract/KimhoGames.sol\":4962:5077  function getRockScissorsPaper() public view returns (string memory){\r... */\n      swap1\n      jump\t// out\n        /* \"@openzeppelin/contracts/token/ERC20/ERC20.sol\":3408:3533  function balanceOf(address account) public view virtual override returns (uint256) {... */\n    tag_54:\n        /* \"@openzeppelin/contracts/token/ERC20/ERC20.sol\":3482:3489  uint256 */\n      0x00\n        /* \"@openzeppelin/contracts/token/ERC20/ERC20.sol\":3508:3517  _balances */\n      dup1\n        /* \"@openzeppelin/contracts/token/ERC20/ERC20.sol\":3508:3526  _balances[account] */\n      0x00\n        /* \"@openzeppelin/contracts/token/ERC20/ERC20.sol\":3518:3525  account */\n      dup4\n        /* \"@openzeppelin/contracts/token/ERC20/ERC20.sol\":3508:3526  _balances[account] */\n      0xffffffffffffffffffffffffffffffffffffffff\n      and\n      0xffffffffffffffffffffffffffffffffffffffff\n      and\n      dup2\n      mstore\n      0x20\n      add\n      swap1\n      dup2\n      mstore\n      0x20\n      add\n      0x00\n      keccak256\n      sload\n        /* \"@openzeppelin/contracts/token/ERC20/ERC20.sol\":3501:3526  return _balances[account] */\n      swap1\n      pop\n        /* \"@openzeppelin/contracts/token/ERC20/ERC20.sol\":3408:3533  function balanceOf(address account) public view virtual override returns (uint256) {... */\n      swap2\n      swap1\n      pop\n      jump\t// out\n        /* \"contract/KimhoGames.sol\":161:181  address public owner */\n    tag_57:\n      0x05\n      0x00\n      swap1\n      sload\n      swap1\n      0x0100\n      exp\n      swap1\n      div\n      0xffffffffffffffffffffffffffffffffffffffff\n      and\n      dup2\n      jump\t// out\n        /* \"@openzeppelin/contracts/token/ERC20/ERC20.sol\":2367:2469  function symbol() public view virtual override returns (string memory) {... */\n    tag_61:\n        /* \"@openzeppelin/contracts/token/ERC20/ERC20.sol\":2423:2436  string memory */\n      0x60\n        /* \"@openzeppelin/contracts/token/ERC20/ERC20.sol\":2455:2462  _symbol */\n      0x04\n        /* \"@openzeppelin/contracts/token/ERC20/ERC20.sol\":2448:2462  return _symbol */\n      dup1\n      sload\n      tag_119\n      swap1\n      tag_87\n      jump\t// in\n    tag_119:\n      dup1\n      0x1f\n      add\n      0x20\n      dup1\n      swap2\n      div\n      mul\n      0x20\n      add\n      mload(0x40)\n      swap1\n      dup2\n      add\n      0x40\n      mstore\n      dup1\n      swap3\n      swap2\n      swap1\n      dup2\n      dup2\n      mstore\n      0x20\n      add\n      dup3\n      dup1\n      sload\n      tag_120\n      swap1\n      tag_87\n      jump\t// in\n    tag_120:\n      dup1\n      iszero\n      tag_121\n      jumpi\n      dup1\n      0x1f\n      lt\n      tag_122\n      jumpi\n      0x0100\n      dup1\n      dup4\n      sload\n      div\n      mul\n      dup4\n      mstore\n      swap2\n      0x20\n      add\n      swap2\n      jump(tag_121)\n    tag_122:\n      dup3\n      add\n      swap2\n      swap1\n      0x00\n      mstore\n      keccak256(0x00, 0x20)\n      swap1\n    tag_123:\n      dup2\n      sload\n      dup2\n      mstore\n      swap1\n      0x01\n      add\n      swap1\n      0x20\n      add\n      dup1\n      dup4\n      gt\n      tag_123\n      jumpi\n      dup3\n      swap1\n      sub\n      0x1f\n      and\n      dup3\n      add\n      swap2\n    tag_121:\n      pop\n      pop\n      pop\n      pop\n      pop\n      swap1\n      pop\n        /* \"@openzeppelin/contracts/token/ERC20/ERC20.sol\":2367:2469  function symbol() public view virtual override returns (string memory) {... */\n      swap1\n      jump\t// out\n        /* \"contract/KimhoGames.sol\":589:684  function mint(uint256 amount) public {\r... */\n    tag_66:\n        /* \"contract/KimhoGames.sol\":637:676  _mint(owner, amount * 10 ** decimals()) */\n      tag_125\n        /* \"contract/KimhoGames.sol\":643:648  owner */\n      0x05\n      0x00\n      swap1\n      sload\n      swap1\n      0x0100\n      exp\n      swap1\n      div\n      0xffffffffffffffffffffffffffffffffffffffff\n      and\n        /* \"contract/KimhoGames.sol\":665:675  decimals() */\n      tag_126\n        /* \"contract/KimhoGames.sol\":665:673  decimals */\n      tag_41\n        /* \"contract/KimhoGames.sol\":665:675  decimals() */\n      jump\t// in\n    tag_126:\n        /* \"contract/KimhoGames.sol\":659:661  10 */\n      0x0a\n        /* \"contract/KimhoGames.sol\":659:675  10 ** decimals() */\n      tag_127\n      swap2\n      swap1\n      tag_128\n      jump\t// in\n    tag_127:\n        /* \"contract/KimhoGames.sol\":650:656  amount */\n      dup4\n        /* \"contract/KimhoGames.sol\":650:675  amount * 10 ** decimals() */\n      tag_129\n      swap2\n      swap1\n      tag_130\n      jump\t// in\n    tag_129:\n        /* \"contract/KimhoGames.sol\":637:642  _mint */\n      tag_131\n        /* \"contract/KimhoGames.sol\":637:676  _mint(owner, amount * 10 ** decimals()) */\n      jump\t// in\n    tag_125:\n        /* \"contract/KimhoGames.sol\":589:684  function mint(uint256 amount) public {\r... */\n      pop\n      jump\t// out\n        /* \"@openzeppelin/contracts/token/ERC20/ERC20.sol\":6594:7021  function decreaseAllowance(address spender, uint256 subtractedValue) public virtual returns (bool) {... */\n    tag_69:\n        /* \"@openzeppelin/contracts/token/ERC20/ERC20.sol\":6687:6691  bool */\n      0x00\n        /* \"@openzeppelin/contracts/token/ERC20/ERC20.sol\":6703:6716  address owner */\n      dup1\n        /* \"@openzeppelin/contracts/token/ERC20/ERC20.sol\":6719:6731  _msgSender() */\n      tag_133\n        /* \"@openzeppelin/contracts/token/ERC20/ERC20.sol\":6719:6729  _msgSender */\n      tag_94\n        /* \"@openzeppelin/contracts/token/ERC20/ERC20.sol\":6719:6731  _msgSender() */\n      jump\t// in\n    tag_133:\n        /* \"@openzeppelin/contracts/token/ERC20/ERC20.sol\":6703:6731  address owner = _msgSender() */\n      swap1\n      pop\n        /* \"@openzeppelin/contracts/token/ERC20/ERC20.sol\":6741:6765  uint256 currentAllowance */\n      0x00\n        /* \"@openzeppelin/contracts/token/ERC20/ERC20.sol\":6768:6793  allowance(owner, spender) */\n      tag_134\n        /* \"@openzeppelin/contracts/token/ERC20/ERC20.sol\":6778:6783  owner */\n      dup3\n        /* \"@openzeppelin/contracts/token/ERC20/ERC20.sol\":6785:6792  spender */\n      dup7\n        /* \"@openzeppelin/contracts/token/ERC20/ERC20.sol\":6768:6777  allowance */\n      tag_83\n        /* \"@openzeppelin/contracts/token/ERC20/ERC20.sol\":6768:6793  allowance(owner, spender) */\n      jump\t// in\n    tag_134:\n        /* \"@openzeppelin/contracts/token/ERC20/ERC20.sol\":6741:6793  uint256 currentAllowance = allowance(owner, spender) */\n      swap1\n      pop\n        /* \"@openzeppelin/contracts/token/ERC20/ERC20.sol\":6831:6846  subtractedValue */\n      dup4\n        /* \"@openzeppelin/contracts/token/ERC20/ERC20.sol\":6811:6827  currentAllowance */\n      dup2\n        /* \"@openzeppelin/contracts/token/ERC20/ERC20.sol\":6811:6846  currentAllowance >= subtractedValue */\n      lt\n      iszero\n        /* \"@openzeppelin/contracts/token/ERC20/ERC20.sol\":6803:6888  require(currentAllowance >= subtractedValue, \"ERC20: decreased allowance below zero\") */\n      tag_135\n      jumpi\n      mload(0x40)\n      0x08c379a000000000000000000000000000000000000000000000000000000000\n      dup2\n      mstore\n      0x04\n      add\n      tag_136\n      swap1\n      tag_137\n      jump\t// in\n    tag_136:\n      mload(0x40)\n      dup1\n      swap2\n      sub\n      swap1\n      revert\n    tag_135:\n        /* \"@openzeppelin/contracts/token/ERC20/ERC20.sol\":6922:6982  _approve(owner, spender, currentAllowance - subtractedValue) */\n      tag_138\n        /* \"@openzeppelin/contracts/token/ERC20/ERC20.sol\":6931:6936  owner */\n      dup3\n        /* \"@openzeppelin/contracts/token/ERC20/ERC20.sol\":6938:6945  spender */\n      dup7\n        /* \"@openzeppelin/contracts/token/ERC20/ERC20.sol\":6966:6981  subtractedValue */\n      dup7\n        /* \"@openzeppelin/contracts/token/ERC20/ERC20.sol\":6947:6963  currentAllowance */\n      dup5\n        /* \"@openzeppelin/contracts/token/ERC20/ERC20.sol\":6947:6981  currentAllowance - subtractedValue */\n      sub\n        /* \"@openzeppelin/contracts/token/ERC20/ERC20.sol\":6922:6930  _approve */\n      tag_96\n        /* \"@openzeppelin/contracts/token/ERC20/ERC20.sol\":6922:6982  _approve(owner, spender, currentAllowance - subtractedValue) */\n      jump\t// in\n    tag_138:\n        /* \"@openzeppelin/contracts/token/ERC20/ERC20.sol\":7010:7014  true */\n      0x01\n        /* \"@openzeppelin/contracts/token/ERC20/ERC20.sol\":7003:7014  return true */\n      swap3\n      pop\n      pop\n      pop\n        /* \"@openzeppelin/contracts/token/ERC20/ERC20.sol\":6594:7021  function decreaseAllowance(address spender, uint256 subtractedValue) public virtual returns (bool) {... */\n      swap3\n      swap2\n      pop\n      pop\n      jump\t// out\n        /* \"contract/KimhoGames.sol\":432:577  function transfer(address to, uint256 amount) public override returns (bool){\r... */\n    tag_73:\n        /* \"contract/KimhoGames.sol\":503:507  bool */\n      0x00\n        /* \"contract/KimhoGames.sol\":519:547  _transfer(owner, to, amount) */\n      tag_140\n        /* \"contract/KimhoGames.sol\":529:534  owner */\n      0x05\n      0x00\n      swap1\n      sload\n      swap1\n      0x0100\n      exp\n      swap1\n      div\n      0xffffffffffffffffffffffffffffffffffffffff\n      and\n        /* \"contract/KimhoGames.sol\":536:538  to */\n      dup5\n        /* \"contract/KimhoGames.sol\":540:546  amount */\n      dup5\n        /* \"contract/KimhoGames.sol\":519:528  _transfer */\n      tag_103\n        /* \"contract/KimhoGames.sol\":519:547  _transfer(owner, to, amount) */\n      jump\t// in\n    tag_140:\n        /* \"contract/KimhoGames.sol\":565:569  true */\n      0x01\n        /* \"contract/KimhoGames.sol\":558:569  return true */\n      swap1\n      pop\n        /* \"contract/KimhoGames.sol\":432:577  function transfer(address to, uint256 amount) public override returns (bool){\r... */\n      swap3\n      swap2\n      pop\n      pop\n      jump\t// out\n        /* \"contract/KimhoGames.sol\":918:4954  function RSP(uint input1, uint input2, uint input3) public returns (string memory){\r... */\n    tag_78:\n        /* \"contract/KimhoGames.sol\":986:999  string memory */\n      0x60\n        /* \"contract/KimhoGames.sol\":1011:1035  string memory Winmessage */\n      0x00\n        /* \"contract/KimhoGames.sol\":1011:1049  string memory Winmessage = \"you win!!\" */\n      mload(0x40)\n      dup1\n      0x40\n      add\n      0x40\n      mstore\n      dup1\n      0x09\n      dup2\n      mstore\n      0x20\n      add\n      0x796f752077696e21210000000000000000000000000000000000000000000000\n      dup2\n      mstore\n      pop\n      swap1\n      pop\n        /* \"contract/KimhoGames.sol\":1060:1087  string memory Defeatmessage */\n      0x00\n        /* \"contract/KimhoGames.sol\":1060:1100  string memory Defeatmessage = \"you lose\" */\n      mload(0x40)\n      dup1\n      0x40\n      add\n      0x40\n      mstore\n      dup1\n      0x08\n      dup2\n      mstore\n      0x20\n      add\n      0x796f75206c6f7365000000000000000000000000000000000000000000000000\n      dup2\n      mstore\n      pop\n      swap1\n      pop\n        /* \"contract/KimhoGames.sol\":1154:1164  uint count */\n      0x00\n        /* \"contract/KimhoGames.sol\":1193:1200  uint u1 */\n      dup1\n        /* \"contract/KimhoGames.sol\":1208:1209  3 */\n      0x03\n        /* \"contract/KimhoGames.sol\":1201:1207  input1 */\n      dup9\n        /* \"contract/KimhoGames.sol\":1201:1209  input1%3 */\n      tag_142\n      swap2\n      swap1\n      tag_143\n      jump\t// in\n    tag_142:\n        /* \"contract/KimhoGames.sol\":1193:1209  uint u1=input1%3 */\n      swap1\n      pop\n        /* \"contract/KimhoGames.sol\":1220:1227  uint u2 */\n      0x00\n        /* \"contract/KimhoGames.sol\":1235:1236  3 */\n      0x03\n        /* \"contract/KimhoGames.sol\":1228:1234  input2 */\n      dup9\n        /* \"contract/KimhoGames.sol\":1228:1236  input2%3 */\n      tag_144\n      swap2\n      swap1\n      tag_143\n      jump\t// in\n    tag_144:\n        /* \"contract/KimhoGames.sol\":1220:1236  uint u2=input2%3 */\n      swap1\n      pop\n        /* \"contract/KimhoGames.sol\":1247:1254  uint u3 */\n      0x00\n        /* \"contract/KimhoGames.sol\":1262:1263  3 */\n      0x03\n        /* \"contract/KimhoGames.sol\":1255:1261  input3 */\n      dup9\n        /* \"contract/KimhoGames.sol\":1255:1263  input3%3 */\n      tag_145\n      swap2\n      swap1\n      tag_143\n      jump\t// in\n    tag_145:\n        /* \"contract/KimhoGames.sol\":1247:1263  uint u3=input3%3 */\n      swap1\n      pop\n        /* \"contract/KimhoGames.sol\":1274:1283  uint rand */\n      0x00\n        /* \"contract/KimhoGames.sol\":1356:1357  3 */\n      0x03\n        /* \"contract/KimhoGames.sol\":1316:1331  block.timestamp */\n      timestamp\n        /* \"contract/KimhoGames.sol\":1332:1342  msg.sender */\n      caller\n        /* \"contract/KimhoGames.sol\":1343:1352  randNonce */\n      sload(0x09)\n        /* \"contract/KimhoGames.sol\":1299:1353  abi.encodePacked(block.timestamp,msg.sender,randNonce) */\n      add(0x20, mload(0x40))\n      tag_146\n      swap4\n      swap3\n      swap2\n      swap1\n      tag_147\n      jump\t// in\n    tag_146:\n      mload(0x40)\n      0x20\n      dup2\n      dup4\n      sub\n      sub\n      dup2\n      mstore\n      swap1\n      0x40\n      mstore\n        /* \"contract/KimhoGames.sol\":1289:1354  keccak256(abi.encodePacked(block.timestamp,msg.sender,randNonce)) */\n      dup1\n      mload\n      swap1\n      0x20\n      add\n      keccak256\n        /* \"contract/KimhoGames.sol\":1284:1355  uint(keccak256(abi.encodePacked(block.timestamp,msg.sender,randNonce))) */\n      0x00\n      shr\n        /* \"contract/KimhoGames.sol\":1284:1357  uint(keccak256(abi.encodePacked(block.timestamp,msg.sender,randNonce)))%3 */\n      tag_148\n      swap2\n      swap1\n      tag_143\n      jump\t// in\n    tag_148:\n        /* \"contract/KimhoGames.sol\":1274:1357  uint rand=uint(keccak256(abi.encodePacked(block.timestamp,msg.sender,randNonce)))%3 */\n      swap1\n      pop\n        /* \"contract/KimhoGames.sol\":1379:1380  0 */\n      0x00\n        /* \"contract/KimhoGames.sol\":1375:1377  u1 */\n      dup5\n        /* \"contract/KimhoGames.sol\":1375:1380  u1==0 */\n      eq\n        /* \"contract/KimhoGames.sol\":1372:1624  if(u1==0){\r... */\n      iszero\n      tag_149\n      jumpi\n        /* \"contract/KimhoGames.sol\":1409:1410  1 */\n      0x01\n        /* \"contract/KimhoGames.sol\":1403:1407  rand */\n      dup2\n        /* \"contract/KimhoGames.sol\":1403:1410  rand==1 */\n      eq\n        /* \"contract/KimhoGames.sol\":1400:1609  if(rand==1){ // 비겨도 진거임\r... */\n      iszero\n      tag_150\n      jumpi\n        /* \"contract/KimhoGames.sol\":1457:1464  count++ */\n      dup5\n      dup1\n      tag_151\n      swap1\n      tag_152\n      jump\t// in\n    tag_151:\n      swap6\n      pop\n      pop\n        /* \"contract/KimhoGames.sol\":1494:1504  Winmessage */\n      dup7\n        /* \"contract/KimhoGames.sol\":1487:1504  return Winmessage */\n      swap8\n      pop\n      pop\n      pop\n      pop\n      pop\n      pop\n      pop\n      pop\n      jump(tag_141)\n        /* \"contract/KimhoGames.sol\":1400:1609  if(rand==1){ // 비겨도 진거임\r... */\n    tag_150:\n        /* \"contract/KimhoGames.sol\":1576:1589  Defeatmessage */\n      dup6\n        /* \"contract/KimhoGames.sol\":1569:1589  return Defeatmessage */\n      swap8\n      pop\n      pop\n      pop\n      pop\n      pop\n      pop\n      pop\n      pop\n      jump(tag_141)\n        /* \"contract/KimhoGames.sol\":1372:1624  if(u1==0){\r... */\n    tag_149:\n        /* \"contract/KimhoGames.sol\":1645:1646  1 */\n      0x01\n        /* \"contract/KimhoGames.sol\":1641:1643  u1 */\n      dup5\n        /* \"contract/KimhoGames.sol\":1641:1646  u1==1 */\n      eq\n        /* \"contract/KimhoGames.sol\":1638:1867  if(u1==1){\r... */\n      iszero\n      tag_154\n      jumpi\n        /* \"contract/KimhoGames.sol\":1675:1676  2 */\n      0x02\n        /* \"contract/KimhoGames.sol\":1669:1673  rand */\n      dup2\n        /* \"contract/KimhoGames.sol\":1669:1676  rand==2 */\n      eq\n        /* \"contract/KimhoGames.sol\":1666:1852  if(rand==2){\r... */\n      iszero\n      tag_155\n      jumpi\n        /* \"contract/KimhoGames.sol\":1700:1707  count++ */\n      dup5\n      dup1\n      tag_156\n      swap1\n      tag_152\n      jump\t// in\n    tag_156:\n      swap6\n      pop\n      pop\n        /* \"contract/KimhoGames.sol\":1737:1747  Winmessage */\n      dup7\n        /* \"contract/KimhoGames.sol\":1730:1747  return Winmessage */\n      swap8\n      pop\n      pop\n      pop\n      pop\n      pop\n      pop\n      pop\n      pop\n      jump(tag_141)\n        /* \"contract/KimhoGames.sol\":1666:1852  if(rand==2){\r... */\n    tag_155:\n        /* \"contract/KimhoGames.sol\":1819:1832  Defeatmessage */\n      dup6\n        /* \"contract/KimhoGames.sol\":1812:1832  return Defeatmessage */\n      swap8\n      pop\n      pop\n      pop\n      pop\n      pop\n      pop\n      pop\n      pop\n      jump(tag_141)\n        /* \"contract/KimhoGames.sol\":1638:1867  if(u1==1){\r... */\n    tag_154:\n        /* \"contract/KimhoGames.sol\":1888:1889  2 */\n      0x02\n        /* \"contract/KimhoGames.sol\":1884:1886  u1 */\n      dup5\n        /* \"contract/KimhoGames.sol\":1884:1889  u1==2 */\n      eq\n        /* \"contract/KimhoGames.sol\":1881:2110  if(u1==2){\r... */\n      iszero\n      tag_158\n      jumpi\n        /* \"contract/KimhoGames.sol\":1918:1919  0 */\n      0x00\n        /* \"contract/KimhoGames.sol\":1912:1916  rand */\n      dup2\n        /* \"contract/KimhoGames.sol\":1912:1919  rand==0 */\n      eq\n        /* \"contract/KimhoGames.sol\":1909:2095  if(rand==0){\r... */\n      iszero\n      tag_159\n      jumpi\n        /* \"contract/KimhoGames.sol\":1943:1950  count++ */\n      dup5\n      dup1\n      tag_160\n      swap1\n      tag_152\n      jump\t// in\n    tag_160:\n      swap6\n      pop\n      pop\n        /* \"contract/KimhoGames.sol\":1980:1990  Winmessage */\n      dup7\n        /* \"contract/KimhoGames.sol\":1973:1990  return Winmessage */\n      swap8\n      pop\n      pop\n      pop\n      pop\n      pop\n      pop\n      pop\n      pop\n      jump(tag_141)\n        /* \"contract/KimhoGames.sol\":1909:2095  if(rand==0){\r... */\n    tag_159:\n        /* \"contract/KimhoGames.sol\":2062:2075  Defeatmessage */\n      dup6\n        /* \"contract/KimhoGames.sol\":2055:2075  return Defeatmessage */\n      swap8\n      pop\n      pop\n      pop\n      pop\n      pop\n      pop\n      pop\n      pop\n      jump(tag_141)\n        /* \"contract/KimhoGames.sol\":1881:2110  if(u1==2){\r... */\n    tag_158:\n        /* \"contract/KimhoGames.sol\":2131:2132  0 */\n      0x00\n        /* \"contract/KimhoGames.sol\":2127:2129  u1 */\n      dup5\n        /* \"contract/KimhoGames.sol\":2127:2132  u1==0 */\n      eq\n        /* \"contract/KimhoGames.sol\":2124:2376  if(u1==0){\r... */\n      iszero\n      tag_162\n      jumpi\n        /* \"contract/KimhoGames.sol\":2161:2162  1 */\n      0x01\n        /* \"contract/KimhoGames.sol\":2155:2159  rand */\n      dup2\n        /* \"contract/KimhoGames.sol\":2155:2162  rand==1 */\n      eq\n        /* \"contract/KimhoGames.sol\":2152:2361  if(rand==1){ // 비겨도 진거임\r... */\n      iszero\n      tag_163\n      jumpi\n        /* \"contract/KimhoGames.sol\":2209:2216  count++ */\n      dup5\n      dup1\n      tag_164\n      swap1\n      tag_152\n      jump\t// in\n    tag_164:\n      swap6\n      pop\n      pop\n        /* \"contract/KimhoGames.sol\":2246:2256  Winmessage */\n      dup7\n        /* \"contract/KimhoGames.sol\":2239:2256  return Winmessage */\n      swap8\n      pop\n      pop\n      pop\n      pop\n      pop\n      pop\n      pop\n      pop\n      jump(tag_141)\n        /* \"contract/KimhoGames.sol\":2152:2361  if(rand==1){ // 비겨도 진거임\r... */\n    tag_163:\n        /* \"contract/KimhoGames.sol\":2328:2341  Defeatmessage */\n      dup6\n        /* \"contract/KimhoGames.sol\":2321:2341  return Defeatmessage */\n      swap8\n      pop\n      pop\n      pop\n      pop\n      pop\n      pop\n      pop\n      pop\n      jump(tag_141)\n        /* \"contract/KimhoGames.sol\":2124:2376  if(u1==0){\r... */\n    tag_162:\n        /* \"contract/KimhoGames.sol\":2397:2398  1 */\n      0x01\n        /* \"contract/KimhoGames.sol\":2393:2395  u1 */\n      dup5\n        /* \"contract/KimhoGames.sol\":2393:2398  u1==1 */\n      eq\n        /* \"contract/KimhoGames.sol\":2390:2619  if(u1==1){\r... */\n      iszero\n      tag_166\n      jumpi\n        /* \"contract/KimhoGames.sol\":2427:2428  2 */\n      0x02\n        /* \"contract/KimhoGames.sol\":2421:2425  rand */\n      dup2\n        /* \"contract/KimhoGames.sol\":2421:2428  rand==2 */\n      eq\n        /* \"contract/KimhoGames.sol\":2418:2604  if(rand==2){\r... */\n      iszero\n      tag_167\n      jumpi\n        /* \"contract/KimhoGames.sol\":2452:2459  count++ */\n      dup5\n      dup1\n      tag_168\n      swap1\n      tag_152\n      jump\t// in\n    tag_168:\n      swap6\n      pop\n      pop\n        /* \"contract/KimhoGames.sol\":2489:2499  Winmessage */\n      dup7\n        /* \"contract/KimhoGames.sol\":2482:2499  return Winmessage */\n      swap8\n      pop\n      pop\n      pop\n      pop\n      pop\n      pop\n      pop\n      pop\n      jump(tag_141)\n        /* \"contract/KimhoGames.sol\":2418:2604  if(rand==2){\r... */\n    tag_167:\n        /* \"contract/KimhoGames.sol\":2571:2584  Defeatmessage */\n      dup6\n        /* \"contract/KimhoGames.sol\":2564:2584  return Defeatmessage */\n      swap8\n      pop\n      pop\n      pop\n      pop\n      pop\n      pop\n      pop\n      pop\n      jump(tag_141)\n        /* \"contract/KimhoGames.sol\":2390:2619  if(u1==1){\r... */\n    tag_166:\n        /* \"contract/KimhoGames.sol\":2640:2641  2 */\n      0x02\n        /* \"contract/KimhoGames.sol\":2636:2638  u1 */\n      dup5\n        /* \"contract/KimhoGames.sol\":2636:2641  u1==2 */\n      eq\n        /* \"contract/KimhoGames.sol\":2633:2862  if(u1==2){\r... */\n      iszero\n      tag_170\n      jumpi\n        /* \"contract/KimhoGames.sol\":2670:2671  0 */\n      0x00\n        /* \"contract/KimhoGames.sol\":2664:2668  rand */\n      dup2\n        /* \"contract/KimhoGames.sol\":2664:2671  rand==0 */\n      eq\n        /* \"contract/KimhoGames.sol\":2661:2847  if(rand==0){\r... */\n      iszero\n      tag_171\n      jumpi\n        /* \"contract/KimhoGames.sol\":2695:2702  count++ */\n      dup5\n      dup1\n      tag_172\n      swap1\n      tag_152\n      jump\t// in\n    tag_172:\n      swap6\n      pop\n      pop\n        /* \"contract/KimhoGames.sol\":2732:2742  Winmessage */\n      dup7\n        /* \"contract/KimhoGames.sol\":2725:2742  return Winmessage */\n      swap8\n      pop\n      pop\n      pop\n      pop\n      pop\n      pop\n      pop\n      pop\n      jump(tag_141)\n        /* \"contract/KimhoGames.sol\":2661:2847  if(rand==0){\r... */\n    tag_171:\n        /* \"contract/KimhoGames.sol\":2814:2827  Defeatmessage */\n      dup6\n        /* \"contract/KimhoGames.sol\":2807:2827  return Defeatmessage */\n      swap8\n      pop\n      pop\n      pop\n      pop\n      pop\n      pop\n      pop\n      pop\n      jump(tag_141)\n        /* \"contract/KimhoGames.sol\":2633:2862  if(u1==2){\r... */\n    tag_170:\n        /* \"contract/KimhoGames.sol\":3010:3011  3 */\n      0x03\n        /* \"contract/KimhoGames.sol\":2970:2985  block.timestamp */\n      timestamp\n        /* \"contract/KimhoGames.sol\":2986:2996  msg.sender */\n      caller\n        /* \"contract/KimhoGames.sol\":2997:3006  randNonce */\n      sload(0x09)\n        /* \"contract/KimhoGames.sol\":2953:3007  abi.encodePacked(block.timestamp,msg.sender,randNonce) */\n      add(0x20, mload(0x40))\n      tag_174\n      swap4\n      swap3\n      swap2\n      swap1\n      tag_147\n      jump\t// in\n    tag_174:\n      mload(0x40)\n      0x20\n      dup2\n      dup4\n      sub\n      sub\n      dup2\n      mstore\n      swap1\n      0x40\n      mstore\n        /* \"contract/KimhoGames.sol\":2943:3008  keccak256(abi.encodePacked(block.timestamp,msg.sender,randNonce)) */\n      dup1\n      mload\n      swap1\n      0x20\n      add\n      keccak256\n        /* \"contract/KimhoGames.sol\":2938:3009  uint(keccak256(abi.encodePacked(block.timestamp,msg.sender,randNonce))) */\n      0x00\n      shr\n        /* \"contract/KimhoGames.sol\":2938:3011  uint(keccak256(abi.encodePacked(block.timestamp,msg.sender,randNonce)))%3 */\n      tag_175\n      swap2\n      swap1\n      tag_143\n      jump\t// in\n    tag_175:\n        /* \"contract/KimhoGames.sol\":2933:3011  rand=uint(keccak256(abi.encodePacked(block.timestamp,msg.sender,randNonce)))%3 */\n      swap1\n      pop\n        /* \"contract/KimhoGames.sol\":3033:3034  0 */\n      0x00\n        /* \"contract/KimhoGames.sol\":3029:3031  u2 */\n      dup4\n        /* \"contract/KimhoGames.sol\":3029:3034  u2==0 */\n      eq\n        /* \"contract/KimhoGames.sol\":3026:3278  if(u2==0){\r... */\n      iszero\n      tag_176\n      jumpi\n        /* \"contract/KimhoGames.sol\":3063:3064  1 */\n      0x01\n        /* \"contract/KimhoGames.sol\":3057:3061  rand */\n      dup2\n        /* \"contract/KimhoGames.sol\":3057:3064  rand==1 */\n      eq\n        /* \"contract/KimhoGames.sol\":3054:3263  if(rand==1){ // 비겨도 진거임\r... */\n      iszero\n      tag_177\n      jumpi\n        /* \"contract/KimhoGames.sol\":3111:3118  count++ */\n      dup5\n      dup1\n      tag_178\n      swap1\n      tag_152\n      jump\t// in\n    tag_178:\n      swap6\n      pop\n      pop\n        /* \"contract/KimhoGames.sol\":3148:3158  Winmessage */\n      dup7\n        /* \"contract/KimhoGames.sol\":3141:3158  return Winmessage */\n      swap8\n      pop\n      pop\n      pop\n      pop\n      pop\n      pop\n      pop\n      pop\n      jump(tag_141)\n        /* \"contract/KimhoGames.sol\":3054:3263  if(rand==1){ // 비겨도 진거임\r... */\n    tag_177:\n        /* \"contract/KimhoGames.sol\":3230:3243  Defeatmessage */\n      dup6\n        /* \"contract/KimhoGames.sol\":3223:3243  return Defeatmessage */\n      swap8\n      pop\n      pop\n      pop\n      pop\n      pop\n      pop\n      pop\n      pop\n      jump(tag_141)\n        /* \"contract/KimhoGames.sol\":3026:3278  if(u2==0){\r... */\n    tag_176:\n        /* \"contract/KimhoGames.sol\":3299:3300  1 */\n      0x01\n        /* \"contract/KimhoGames.sol\":3295:3297  u2 */\n      dup4\n        /* \"contract/KimhoGames.sol\":3295:3300  u2==1 */\n      eq\n        /* \"contract/KimhoGames.sol\":3292:3521  if(u2==1){\r... */\n      iszero\n      tag_180\n      jumpi\n        /* \"contract/KimhoGames.sol\":3329:3330  2 */\n      0x02\n        /* \"contract/KimhoGames.sol\":3323:3327  rand */\n      dup2\n        /* \"contract/KimhoGames.sol\":3323:3330  rand==2 */\n      eq\n        /* \"contract/KimhoGames.sol\":3320:3506  if(rand==2){\r... */\n      iszero\n      tag_181\n      jumpi\n        /* \"contract/KimhoGames.sol\":3354:3361  count++ */\n      dup5\n      dup1\n      tag_182\n      swap1\n      tag_152\n      jump\t// in\n    tag_182:\n      swap6\n      pop\n      pop\n        /* \"contract/KimhoGames.sol\":3391:3401  Winmessage */\n      dup7\n        /* \"contract/KimhoGames.sol\":3384:3401  return Winmessage */\n      swap8\n      pop\n      pop\n      pop\n      pop\n      pop\n      pop\n      pop\n      pop\n      jump(tag_141)\n        /* \"contract/KimhoGames.sol\":3320:3506  if(rand==2){\r... */\n    tag_181:\n        /* \"contract/KimhoGames.sol\":3473:3486  Defeatmessage */\n      dup6\n        /* \"contract/KimhoGames.sol\":3466:3486  return Defeatmessage */\n      swap8\n      pop\n      pop\n      pop\n      pop\n      pop\n      pop\n      pop\n      pop\n      jump(tag_141)\n        /* \"contract/KimhoGames.sol\":3292:3521  if(u2==1){\r... */\n    tag_180:\n        /* \"contract/KimhoGames.sol\":3542:3543  2 */\n      0x02\n        /* \"contract/KimhoGames.sol\":3538:3540  u2 */\n      dup4\n        /* \"contract/KimhoGames.sol\":3538:3543  u2==2 */\n      eq\n        /* \"contract/KimhoGames.sol\":3535:3764  if(u2==2){\r... */\n      iszero\n      tag_184\n      jumpi\n        /* \"contract/KimhoGames.sol\":3572:3573  0 */\n      0x00\n        /* \"contract/KimhoGames.sol\":3566:3570  rand */\n      dup2\n        /* \"contract/KimhoGames.sol\":3566:3573  rand==0 */\n      eq\n        /* \"contract/KimhoGames.sol\":3563:3749  if(rand==0){\r... */\n      iszero\n      tag_185\n      jumpi\n        /* \"contract/KimhoGames.sol\":3597:3604  count++ */\n      dup5\n      dup1\n      tag_186\n      swap1\n      tag_152\n      jump\t// in\n    tag_186:\n      swap6\n      pop\n      pop\n        /* \"contract/KimhoGames.sol\":3634:3644  Winmessage */\n      dup7\n        /* \"contract/KimhoGames.sol\":3627:3644  return Winmessage */\n      swap8\n      pop\n      pop\n      pop\n      pop\n      pop\n      pop\n      pop\n      pop\n      jump(tag_141)\n        /* \"contract/KimhoGames.sol\":3563:3749  if(rand==0){\r... */\n    tag_185:\n        /* \"contract/KimhoGames.sol\":3716:3729  Defeatmessage */\n      dup6\n        /* \"contract/KimhoGames.sol\":3709:3729  return Defeatmessage */\n      swap8\n      pop\n      pop\n      pop\n      pop\n      pop\n      pop\n      pop\n      pop\n      jump(tag_141)\n        /* \"contract/KimhoGames.sol\":3535:3764  if(u2==2){\r... */\n    tag_184:\n        /* \"contract/KimhoGames.sol\":3912:3913  3 */\n      0x03\n        /* \"contract/KimhoGames.sol\":3872:3887  block.timestamp */\n      timestamp\n        /* \"contract/KimhoGames.sol\":3888:3898  msg.sender */\n      caller\n        /* \"contract/KimhoGames.sol\":3899:3908  randNonce */\n      sload(0x09)\n        /* \"contract/KimhoGames.sol\":3855:3909  abi.encodePacked(block.timestamp,msg.sender,randNonce) */\n      add(0x20, mload(0x40))\n      tag_188\n      swap4\n      swap3\n      swap2\n      swap1\n      tag_147\n      jump\t// in\n    tag_188:\n      mload(0x40)\n      0x20\n      dup2\n      dup4\n      sub\n      sub\n      dup2\n      mstore\n      swap1\n      0x40\n      mstore\n        /* \"contract/KimhoGames.sol\":3845:3910  keccak256(abi.encodePacked(block.timestamp,msg.sender,randNonce)) */\n      dup1\n      mload\n      swap1\n      0x20\n      add\n      keccak256\n        /* \"contract/KimhoGames.sol\":3840:3911  uint(keccak256(abi.encodePacked(block.timestamp,msg.sender,randNonce))) */\n      0x00\n      shr\n        /* \"contract/KimhoGames.sol\":3840:3913  uint(keccak256(abi.encodePacked(block.timestamp,msg.sender,randNonce)))%3 */\n      tag_189\n      swap2\n      swap1\n      tag_143\n      jump\t// in\n    tag_189:\n        /* \"contract/KimhoGames.sol\":3835:3913  rand=uint(keccak256(abi.encodePacked(block.timestamp,msg.sender,randNonce)))%3 */\n      swap1\n      pop\n        /* \"contract/KimhoGames.sol\":3935:3936  0 */\n      0x00\n        /* \"contract/KimhoGames.sol\":3931:3933  u3 */\n      dup3\n        /* \"contract/KimhoGames.sol\":3931:3936  u3==0 */\n      eq\n        /* \"contract/KimhoGames.sol\":3928:4180  if(u3==0){\r... */\n      iszero\n      tag_190\n      jumpi\n        /* \"contract/KimhoGames.sol\":3965:3966  1 */\n      0x01\n        /* \"contract/KimhoGames.sol\":3959:3963  rand */\n      dup2\n        /* \"contract/KimhoGames.sol\":3959:3966  rand==1 */\n      eq\n        /* \"contract/KimhoGames.sol\":3956:4165  if(rand==1){ // 비겨도 진거임\r... */\n      iszero\n      tag_191\n      jumpi\n        /* \"contract/KimhoGames.sol\":4013:4020  count++ */\n      dup5\n      dup1\n      tag_192\n      swap1\n      tag_152\n      jump\t// in\n    tag_192:\n      swap6\n      pop\n      pop\n        /* \"contract/KimhoGames.sol\":4050:4060  Winmessage */\n      dup7\n        /* \"contract/KimhoGames.sol\":4043:4060  return Winmessage */\n      swap8\n      pop\n      pop\n      pop\n      pop\n      pop\n      pop\n      pop\n      pop\n      jump(tag_141)\n        /* \"contract/KimhoGames.sol\":3956:4165  if(rand==1){ // 비겨도 진거임\r... */\n    tag_191:\n        /* \"contract/KimhoGames.sol\":4132:4145  Defeatmessage */\n      dup6\n        /* \"contract/KimhoGames.sol\":4125:4145  return Defeatmessage */\n      swap8\n      pop\n      pop\n      pop\n      pop\n      pop\n      pop\n      pop\n      pop\n      jump(tag_141)\n        /* \"contract/KimhoGames.sol\":3928:4180  if(u3==0){\r... */\n    tag_190:\n        /* \"contract/KimhoGames.sol\":4201:4202  1 */\n      0x01\n        /* \"contract/KimhoGames.sol\":4197:4199  u3 */\n      dup3\n        /* \"contract/KimhoGames.sol\":4197:4202  u3==1 */\n      eq\n        /* \"contract/KimhoGames.sol\":4194:4423  if(u3==1){\r... */\n      iszero\n      tag_194\n      jumpi\n        /* \"contract/KimhoGames.sol\":4231:4232  2 */\n      0x02\n        /* \"contract/KimhoGames.sol\":4225:4229  rand */\n      dup2\n        /* \"contract/KimhoGames.sol\":4225:4232  rand==2 */\n      eq\n        /* \"contract/KimhoGames.sol\":4222:4408  if(rand==2){\r... */\n      iszero\n      tag_195\n      jumpi\n        /* \"contract/KimhoGames.sol\":4256:4263  count++ */\n      dup5\n      dup1\n      tag_196\n      swap1\n      tag_152\n      jump\t// in\n    tag_196:\n      swap6\n      pop\n      pop\n        /* \"contract/KimhoGames.sol\":4293:4303  Winmessage */\n      dup7\n        /* \"contract/KimhoGames.sol\":4286:4303  return Winmessage */\n      swap8\n      pop\n      pop\n      pop\n      pop\n      pop\n      pop\n      pop\n      pop\n      jump(tag_141)\n        /* \"contract/KimhoGames.sol\":4222:4408  if(rand==2){\r... */\n    tag_195:\n        /* \"contract/KimhoGames.sol\":4375:4388  Defeatmessage */\n      dup6\n        /* \"contract/KimhoGames.sol\":4368:4388  return Defeatmessage */\n      swap8\n      pop\n      pop\n      pop\n      pop\n      pop\n      pop\n      pop\n      pop\n      jump(tag_141)\n        /* \"contract/KimhoGames.sol\":4194:4423  if(u3==1){\r... */\n    tag_194:\n        /* \"contract/KimhoGames.sol\":4444:4445  2 */\n      0x02\n        /* \"contract/KimhoGames.sol\":4440:4442  u3 */\n      dup3\n        /* \"contract/KimhoGames.sol\":4440:4445  u3==2 */\n      eq\n        /* \"contract/KimhoGames.sol\":4437:4722  if(u3==2){\r... */\n      iszero\n      tag_198\n      jumpi\n        /* \"contract/KimhoGames.sol\":4474:4475  0 */\n      0x00\n        /* \"contract/KimhoGames.sol\":4468:4472  rand */\n      dup2\n        /* \"contract/KimhoGames.sol\":4468:4475  rand==0 */\n      eq\n        /* \"contract/KimhoGames.sol\":4465:4707  if(rand==0){\r... */\n      iszero\n      tag_199\n      jumpi\n        /* \"contract/KimhoGames.sol\":4499:4506  count++ */\n      dup5\n      dup1\n      tag_200\n      swap1\n      tag_152\n      jump\t// in\n    tag_200:\n      swap6\n      pop\n      pop\n        /* \"contract/KimhoGames.sol\":4552:4562  Winmessage */\n      dup7\n        /* \"contract/KimhoGames.sol\":4529:4551  RockScissorsPaperScore */\n      0x06\n        /* \"contract/KimhoGames.sol\":4529:4562  RockScissorsPaperScore=Winmessage */\n      swap1\n      dup1\n      mload\n      swap1\n      0x20\n      add\n      swap1\n      tag_201\n      swap3\n      swap2\n      swap1\n      tag_202\n      jump\t// in\n    tag_201:\n      pop\n        /* \"contract/KimhoGames.sol\":4592:4602  Winmessage */\n      dup7\n        /* \"contract/KimhoGames.sol\":4585:4602  return Winmessage */\n      swap8\n      pop\n      pop\n      pop\n      pop\n      pop\n      pop\n      pop\n      pop\n      jump(tag_141)\n        /* \"contract/KimhoGames.sol\":4465:4707  if(rand==0){\r... */\n    tag_199:\n        /* \"contract/KimhoGames.sol\":4674:4687  Defeatmessage */\n      dup6\n        /* \"contract/KimhoGames.sol\":4667:4687  return Defeatmessage */\n      swap8\n      pop\n      pop\n      pop\n      pop\n      pop\n      pop\n      pop\n      pop\n      jump(tag_141)\n        /* \"contract/KimhoGames.sol\":4437:4722  if(u3==2){\r... */\n    tag_198:\n        /* \"contract/KimhoGames.sol\":4741:4742  1 */\n      0x01\n        /* \"contract/KimhoGames.sol\":4735:4740  count */\n      dup6\n        /* \"contract/KimhoGames.sol\":4735:4742  count>1 */\n      gt\n        /* \"contract/KimhoGames.sol\":4732:4947  if(count>1){\r... */\n      iszero\n      tag_204\n      jumpi\n        /* \"contract/KimhoGames.sol\":4781:4791  Winmessage */\n      dup7\n        /* \"contract/KimhoGames.sol\":4758:4780  RockScissorsPaperScore */\n      0x06\n        /* \"contract/KimhoGames.sol\":4758:4791  RockScissorsPaperScore=Winmessage */\n      swap1\n      dup1\n      mload\n      swap1\n      0x20\n      add\n      swap1\n      tag_205\n      swap3\n      swap2\n      swap1\n      tag_202\n      jump\t// in\n    tag_205:\n      pop\n        /* \"contract/KimhoGames.sol\":4813:4823  Winmessage */\n      dup7\n        /* \"contract/KimhoGames.sol\":4806:4823  return Winmessage */\n      swap8\n      pop\n      pop\n      pop\n      pop\n      pop\n      pop\n      pop\n      pop\n      jump(tag_141)\n        /* \"contract/KimhoGames.sol\":4732:4947  if(count>1){\r... */\n    tag_204:\n        /* \"contract/KimhoGames.sol\":4887:4900  Defeatmessage */\n      dup6\n        /* \"contract/KimhoGames.sol\":4864:4886  RockScissorsPaperScore */\n      0x06\n        /* \"contract/KimhoGames.sol\":4864:4900  RockScissorsPaperScore=Defeatmessage */\n      swap1\n      dup1\n      mload\n      swap1\n      0x20\n      add\n      swap1\n      tag_207\n      swap3\n      swap2\n      swap1\n      tag_202\n      jump\t// in\n    tag_207:\n      pop\n        /* \"contract/KimhoGames.sol\":4922:4935  Defeatmessage */\n      dup6\n        /* \"contract/KimhoGames.sol\":4915:4935  return Defeatmessage */\n      swap8\n      pop\n      pop\n      pop\n      pop\n      pop\n      pop\n      pop\n      pop\n        /* \"contract/KimhoGames.sol\":918:4954  function RSP(uint input1, uint input2, uint input3) public returns (string memory){\r... */\n    tag_141:\n      swap4\n      swap3\n      pop\n      pop\n      pop\n      jump\t// out\n        /* \"@openzeppelin/contracts/token/ERC20/ERC20.sol\":3976:4125  function allowance(address owner, address spender) public view virtual override returns (uint256) {... */\n    tag_83:\n        /* \"@openzeppelin/contracts/token/ERC20/ERC20.sol\":4065:4072  uint256 */\n      0x00\n        /* \"@openzeppelin/contracts/token/ERC20/ERC20.sol\":4091:4102  _allowances */\n      0x01\n        /* \"@openzeppelin/contracts/token/ERC20/ERC20.sol\":4091:4109  _allowances[owner] */\n      0x00\n        /* \"@openzeppelin/contracts/token/ERC20/ERC20.sol\":4103:4108  owner */\n      dup5\n        /* \"@openzeppelin/contracts/token/ERC20/ERC20.sol\":4091:4109  _allowances[owner] */\n      0xffffffffffffffffffffffffffffffffffffffff\n      and\n      0xffffffffffffffffffffffffffffffffffffffff\n      and\n      dup2\n      mstore\n      0x20\n      add\n      swap1\n      dup2\n      mstore\n      0x20\n      add\n      0x00\n      keccak256\n        /* \"@openzeppelin/contracts/token/ERC20/ERC20.sol\":4091:4118  _allowances[owner][spender] */\n      0x00\n        /* \"@openzeppelin/contracts/token/ERC20/ERC20.sol\":4110:4117  spender */\n      dup4\n        /* \"@openzeppelin/contracts/token/ERC20/ERC20.sol\":4091:4118  _allowances[owner][spender] */\n      0xffffffffffffffffffffffffffffffffffffffff\n      and\n      0xffffffffffffffffffffffffffffffffffffffff\n      and\n      dup2\n      mstore\n      0x20\n      add\n      swap1\n      dup2\n      mstore\n      0x20\n      add\n      0x00\n      keccak256\n      sload\n        /* \"@openzeppelin/contracts/token/ERC20/ERC20.sol\":4084:4118  return _allowances[owner][spender] */\n      swap1\n      pop\n        /* \"@openzeppelin/contracts/token/ERC20/ERC20.sol\":3976:4125  function allowance(address owner, address spender) public view virtual override returns (uint256) {... */\n      swap3\n      swap2\n      pop\n      pop\n      jump\t// out\n        /* \"@openzeppelin/contracts/utils/Context.sol\":640:736  function _msgSender() internal view virtual returns (address) {... */\n    tag_94:\n        /* \"@openzeppelin/contracts/utils/Context.sol\":693:700  address */\n      0x00\n        /* \"@openzeppelin/contracts/utils/Context.sol\":719:729  msg.sender */\n      caller\n        /* \"@openzeppelin/contracts/utils/Context.sol\":712:729  return msg.sender */\n      swap1\n      pop\n        /* \"@openzeppelin/contracts/utils/Context.sol\":640:736  function _msgSender() internal view virtual returns (address) {... */\n      swap1\n      jump\t// out\n        /* \"@openzeppelin/contracts/token/ERC20/ERC20.sol\":10110:10480  function _approve(... */\n    tag_96:\n        /* \"@openzeppelin/contracts/token/ERC20/ERC20.sol\":10258:10259  0 */\n      0x00\n        /* \"@openzeppelin/contracts/token/ERC20/ERC20.sol\":10241:10260  owner != address(0) */\n      0xffffffffffffffffffffffffffffffffffffffff\n      and\n        /* \"@openzeppelin/contracts/token/ERC20/ERC20.sol\":10241:10246  owner */\n      dup4\n        /* \"@openzeppelin/contracts/token/ERC20/ERC20.sol\":10241:10260  owner != address(0) */\n      0xffffffffffffffffffffffffffffffffffffffff\n      and\n      eq\n      iszero\n        /* \"@openzeppelin/contracts/token/ERC20/ERC20.sol\":10233:10301  require(owner != address(0), \"ERC20: approve from the zero address\") */\n      tag_211\n      jumpi\n      mload(0x40)\n      0x08c379a000000000000000000000000000000000000000000000000000000000\n      dup2\n      mstore\n      0x04\n      add\n      tag_212\n      swap1\n      tag_213\n      jump\t// in\n    tag_212:\n      mload(0x40)\n      dup1\n      swap2\n      sub\n      swap1\n      revert\n    tag_211:\n        /* \"@openzeppelin/contracts/token/ERC20/ERC20.sol\":10338:10339  0 */\n      0x00\n        /* \"@openzeppelin/contracts/token/ERC20/ERC20.sol\":10319:10340  spender != address(0) */\n      0xffffffffffffffffffffffffffffffffffffffff\n      and\n        /* \"@openzeppelin/contracts/token/ERC20/ERC20.sol\":10319:10326  spender */\n      dup3\n        /* \"@openzeppelin/contracts/token/ERC20/ERC20.sol\":10319:10340  spender != address(0) */\n      0xffffffffffffffffffffffffffffffffffffffff\n      and\n      eq\n      iszero\n        /* \"@openzeppelin/contracts/token/ERC20/ERC20.sol\":10311:10379  require(spender != address(0), \"ERC20: approve to the zero address\") */\n      tag_214\n      jumpi\n      mload(0x40)\n      0x08c379a000000000000000000000000000000000000000000000000000000000\n      dup2\n      mstore\n      0x04\n      add\n      tag_215\n      swap1\n      tag_216\n      jump\t// in\n    tag_215:\n      mload(0x40)\n      dup1\n      swap2\n      sub\n      swap1\n      revert\n    tag_214:\n        /* \"@openzeppelin/contracts/token/ERC20/ERC20.sol\":10420:10426  amount */\n      dup1\n        /* \"@openzeppelin/contracts/token/ERC20/ERC20.sol\":10390:10401  _allowances */\n      0x01\n        /* \"@openzeppelin/contracts/token/ERC20/ERC20.sol\":10390:10408  _allowances[owner] */\n      0x00\n        /* \"@openzeppelin/contracts/token/ERC20/ERC20.sol\":10402:10407  owner */\n      dup6\n        /* \"@openzeppelin/contracts/token/ERC20/ERC20.sol\":10390:10408  _allowances[owner] */\n      0xffffffffffffffffffffffffffffffffffffffff\n      and\n      0xffffffffffffffffffffffffffffffffffffffff\n      and\n      dup2\n      mstore\n      0x20\n      add\n      swap1\n      dup2\n      mstore\n      0x20\n      add\n      0x00\n      keccak256\n        /* \"@openzeppelin/contracts/token/ERC20/ERC20.sol\":10390:10417  _allowances[owner][spender] */\n      0x00\n        /* \"@openzeppelin/contracts/token/ERC20/ERC20.sol\":10409:10416  spender */\n      dup5\n        /* \"@openzeppelin/contracts/token/ERC20/ERC20.sol\":10390:10417  _allowances[owner][spender] */\n      0xffffffffffffffffffffffffffffffffffffffff\n      and\n      0xffffffffffffffffffffffffffffffffffffffff\n      and\n      dup2\n      mstore\n      0x20\n      add\n      swap1\n      dup2\n      mstore\n      0x20\n      add\n      0x00\n      keccak256\n        /* \"@openzeppelin/contracts/token/ERC20/ERC20.sol\":10390:10426  _allowances[owner][spender] = amount */\n      dup2\n      swap1\n      sstore\n      pop\n        /* \"@openzeppelin/contracts/token/ERC20/ERC20.sol\":10457:10464  spender */\n      dup2\n        /* \"@openzeppelin/contracts/token/ERC20/ERC20.sol\":10441:10473  Approval(owner, spender, amount) */\n      0xffffffffffffffffffffffffffffffffffffffff\n      and\n        /* \"@openzeppelin/contracts/token/ERC20/ERC20.sol\":10450:10455  owner */\n      dup4\n        /* \"@openzeppelin/contracts/token/ERC20/ERC20.sol\":10441:10473  Approval(owner, spender, amount) */\n      0xffffffffffffffffffffffffffffffffffffffff\n      and\n      0x8c5be1e5ebec7d5bd14f71427d1e84f3dd0314c0f7b2291e5b200ac8c7c3b925\n        /* \"@openzeppelin/contracts/token/ERC20/ERC20.sol\":10466:10472  amount */\n      dup4\n        /* \"@openzeppelin/contracts/token/ERC20/ERC20.sol\":10441:10473  Approval(owner, spender, amount) */\n      mload(0x40)\n      tag_217\n      swap2\n      swap1\n      tag_34\n      jump\t// in\n    tag_217:\n      mload(0x40)\n      dup1\n      swap2\n      sub\n      swap1\n      log3\n        /* \"@openzeppelin/contracts/token/ERC20/ERC20.sol\":10110:10480  function _approve(... */\n      pop\n      pop\n      pop\n      jump\t// out\n        /* \"@openzeppelin/contracts/token/ERC20/ERC20.sol\":10761:11202  function _spendAllowance(... */\n    tag_101:\n        /* \"@openzeppelin/contracts/token/ERC20/ERC20.sol\":10891:10915  uint256 currentAllowance */\n      0x00\n        /* \"@openzeppelin/contracts/token/ERC20/ERC20.sol\":10918:10943  allowance(owner, spender) */\n      tag_219\n        /* \"@openzeppelin/contracts/token/ERC20/ERC20.sol\":10928:10933  owner */\n      dup5\n        /* \"@openzeppelin/contracts/token/ERC20/ERC20.sol\":10935:10942  spender */\n      dup5\n        /* \"@openzeppelin/contracts/token/ERC20/ERC20.sol\":10918:10927  allowance */\n      tag_83\n        /* \"@openzeppelin/contracts/token/ERC20/ERC20.sol\":10918:10943  allowance(owner, spender) */\n      jump\t// in\n    tag_219:\n        /* \"@openzeppelin/contracts/token/ERC20/ERC20.sol\":10891:10943  uint256 currentAllowance = allowance(owner, spender) */\n      swap1\n      pop\n        /* \"@openzeppelin/contracts/token/ERC20/ERC20.sol\":10977:10994  type(uint256).max */\n      0xffffffffffffffffffffffffffffffffffffffffffffffffffffffffffffffff\n        /* \"@openzeppelin/contracts/token/ERC20/ERC20.sol\":10957:10973  currentAllowance */\n      dup2\n        /* \"@openzeppelin/contracts/token/ERC20/ERC20.sol\":10957:10994  currentAllowance != type(uint256).max */\n      eq\n        /* \"@openzeppelin/contracts/token/ERC20/ERC20.sol\":10953:11196  if (currentAllowance != type(uint256).max) {... */\n      tag_220\n      jumpi\n        /* \"@openzeppelin/contracts/token/ERC20/ERC20.sol\":11038:11044  amount */\n      dup2\n        /* \"@openzeppelin/contracts/token/ERC20/ERC20.sol\":11018:11034  currentAllowance */\n      dup2\n        /* \"@openzeppelin/contracts/token/ERC20/ERC20.sol\":11018:11044  currentAllowance >= amount */\n      lt\n      iszero\n        /* \"@openzeppelin/contracts/token/ERC20/ERC20.sol\":11010:11078  require(currentAllowance >= amount, \"ERC20: insufficient allowance\") */\n      tag_221\n      jumpi\n      mload(0x40)\n      0x08c379a000000000000000000000000000000000000000000000000000000000\n      dup2\n      mstore\n      0x04\n      add\n      tag_222\n      swap1\n      tag_223\n      jump\t// in\n    tag_222:\n      mload(0x40)\n      dup1\n      swap2\n      sub\n      swap1\n      revert\n    tag_221:\n        /* \"@openzeppelin/contracts/token/ERC20/ERC20.sol\":11120:11171  _approve(owner, spender, currentAllowance - amount) */\n      tag_224\n        /* \"@openzeppelin/contracts/token/ERC20/ERC20.sol\":11129:11134  owner */\n      dup5\n        /* \"@openzeppelin/contracts/token/ERC20/ERC20.sol\":11136:11143  spender */\n      dup5\n        /* \"@openzeppelin/contracts/token/ERC20/ERC20.sol\":11164:11170  amount */\n      dup5\n        /* \"@openzeppelin/contracts/token/ERC20/ERC20.sol\":11145:11161  currentAllowance */\n      dup5\n        /* \"@openzeppelin/contracts/token/ERC20/ERC20.sol\":11145:11170  currentAllowance - amount */\n      sub\n        /* \"@openzeppelin/contracts/token/ERC20/ERC20.sol\":11120:11128  _approve */\n      tag_96\n        /* \"@openzeppelin/contracts/token/ERC20/ERC20.sol\":11120:11171  _approve(owner, spender, currentAllowance - amount) */\n      jump\t// in\n    tag_224:\n        /* \"@openzeppelin/contracts/token/ERC20/ERC20.sol\":10953:11196  if (currentAllowance != type(uint256).max) {... */\n    tag_220:\n        /* \"@openzeppelin/contracts/token/ERC20/ERC20.sol\":10881:11202  {... */\n      pop\n        /* \"@openzeppelin/contracts/token/ERC20/ERC20.sol\":10761:11202  function _spendAllowance(... */\n      pop\n      pop\n      pop\n      jump\t// out\n        /* \"@openzeppelin/contracts/token/ERC20/ERC20.sol\":7475:8126  function _transfer(... */\n    tag_103:\n        /* \"@openzeppelin/contracts/token/ERC20/ERC20.sol\":7617:7618  0 */\n      0x00\n        /* \"@openzeppelin/contracts/token/ERC20/ERC20.sol\":7601:7619  from != address(0) */\n      0xffffffffffffffffffffffffffffffffffffffff\n      and\n        /* \"@openzeppelin/contracts/token/ERC20/ERC20.sol\":7601:7605  from */\n      dup4\n        /* \"@openzeppelin/contracts/token/ERC20/ERC20.sol\":7601:7619  from != address(0) */\n      0xffffffffffffffffffffffffffffffffffffffff\n      and\n      eq\n      iszero\n        /* \"@openzeppelin/contracts/token/ERC20/ERC20.sol\":7593:7661  require(from != address(0), \"ERC20: transfer from the zero address\") */\n      tag_226\n      jumpi\n      mload(0x40)\n      0x08c379a000000000000000000000000000000000000000000000000000000000\n      dup2\n      mstore\n      0x04\n      add\n      tag_227\n      swap1\n      tag_228\n      jump\t// in\n    tag_227:\n      mload(0x40)\n      dup1\n      swap2\n      sub\n      swap1\n      revert\n    tag_226:\n        /* \"@openzeppelin/contracts/token/ERC20/ERC20.sol\":7693:7694  0 */\n      0x00\n        /* \"@openzeppelin/contracts/token/ERC20/ERC20.sol\":7679:7695  to != address(0) */\n      0xffffffffffffffffffffffffffffffffffffffff\n      and\n        /* \"@openzeppelin/contracts/token/ERC20/ERC20.sol\":7679:7681  to */\n      dup3\n        /* \"@openzeppelin/contracts/token/ERC20/ERC20.sol\":7679:7695  to != address(0) */\n      0xffffffffffffffffffffffffffffffffffffffff\n      and\n      eq\n      iszero\n        /* \"@openzeppelin/contracts/token/ERC20/ERC20.sol\":7671:7735  require(to != address(0), \"ERC20: transfer to the zero address\") */\n      tag_229\n      jumpi\n      mload(0x40)\n      0x08c379a000000000000000000000000000000000000000000000000000000000\n      dup2\n      mstore\n      0x04\n      add\n      tag_230\n      swap1\n      tag_231\n      jump\t// in\n    tag_230:\n      mload(0x40)\n      dup1\n      swap2\n      sub\n      swap1\n      revert\n    tag_229:\n        /* \"@openzeppelin/contracts/token/ERC20/ERC20.sol\":7746:7784  _beforeTokenTransfer(from, to, amount) */\n      tag_232\n        /* \"@openzeppelin/contracts/token/ERC20/ERC20.sol\":7767:7771  from */\n      dup4\n        /* \"@openzeppelin/contracts/token/ERC20/ERC20.sol\":7773:7775  to */\n      dup4\n        /* \"@openzeppelin/contracts/token/ERC20/ERC20.sol\":7777:7783  amount */\n      dup4\n        /* \"@openzeppelin/contracts/token/ERC20/ERC20.sol\":7746:7766  _beforeTokenTransfer */\n      tag_233\n        /* \"@openzeppelin/contracts/token/ERC20/ERC20.sol\":7746:7784  _beforeTokenTransfer(from, to, amount) */\n      jump\t// in\n    tag_232:\n        /* \"@openzeppelin/contracts/token/ERC20/ERC20.sol\":7795:7814  uint256 fromBalance */\n      0x00\n        /* \"@openzeppelin/contracts/token/ERC20/ERC20.sol\":7817:7826  _balances */\n      dup1\n        /* \"@openzeppelin/contracts/token/ERC20/ERC20.sol\":7817:7832  _balances[from] */\n      0x00\n        /* \"@openzeppelin/contracts/token/ERC20/ERC20.sol\":7827:7831  from */\n      dup6\n        /* \"@openzeppelin/contracts/token/ERC20/ERC20.sol\":7817:7832  _balances[from] */\n      0xffffffffffffffffffffffffffffffffffffffff\n      and\n      0xffffffffffffffffffffffffffffffffffffffff\n      and\n      dup2\n      mstore\n      0x20\n      add\n      swap1\n      dup2\n      mstore\n      0x20\n      add\n      0x00\n      keccak256\n      sload\n        /* \"@openzeppelin/contracts/token/ERC20/ERC20.sol\":7795:7832  uint256 fromBalance = _balances[from] */\n      swap1\n      pop\n        /* \"@openzeppelin/contracts/token/ERC20/ERC20.sol\":7865:7871  amount */\n      dup2\n        /* \"@openzeppelin/contracts/token/ERC20/ERC20.sol\":7850:7861  fromBalance */\n      dup2\n        /* \"@openzeppelin/contracts/token/ERC20/ERC20.sol\":7850:7871  fromBalance >= amount */\n      lt\n      iszero\n        /* \"@openzeppelin/contracts/token/ERC20/ERC20.sol\":7842:7914  require(fromBalance >= amount, \"ERC20: transfer amount exceeds balance\") */\n      tag_234\n      jumpi\n      mload(0x40)\n      0x08c379a000000000000000000000000000000000000000000000000000000000\n      dup2\n      mstore\n      0x04\n      add\n      tag_235\n      swap1\n      tag_236\n      jump\t// in\n    tag_235:\n      mload(0x40)\n      dup1\n      swap2\n      sub\n      swap1\n      revert\n    tag_234:\n        /* \"@openzeppelin/contracts/token/ERC20/ERC20.sol\":7980:7986  amount */\n      dup2\n        /* \"@openzeppelin/contracts/token/ERC20/ERC20.sol\":7966:7977  fromBalance */\n      dup2\n        /* \"@openzeppelin/contracts/token/ERC20/ERC20.sol\":7966:7986  fromBalance - amount */\n      sub\n        /* \"@openzeppelin/contracts/token/ERC20/ERC20.sol\":7948:7957  _balances */\n      0x00\n        /* \"@openzeppelin/contracts/token/ERC20/ERC20.sol\":7948:7963  _balances[from] */\n      dup1\n        /* \"@openzeppelin/contracts/token/ERC20/ERC20.sol\":7958:7962  from */\n      dup7\n        /* \"@openzeppelin/contracts/token/ERC20/ERC20.sol\":7948:7963  _balances[from] */\n      0xffffffffffffffffffffffffffffffffffffffff\n      and\n      0xffffffffffffffffffffffffffffffffffffffff\n      and\n      dup2\n      mstore\n      0x20\n      add\n      swap1\n      dup2\n      mstore\n      0x20\n      add\n      0x00\n      keccak256\n        /* \"@openzeppelin/contracts/token/ERC20/ERC20.sol\":7948:7986  _balances[from] = fromBalance - amount */\n      dup2\n      swap1\n      sstore\n      pop\n        /* \"@openzeppelin/contracts/token/ERC20/ERC20.sol\":8023:8029  amount */\n      dup2\n        /* \"@openzeppelin/contracts/token/ERC20/ERC20.sol\":8006:8015  _balances */\n      0x00\n        /* \"@openzeppelin/contracts/token/ERC20/ERC20.sol\":8006:8019  _balances[to] */\n      dup1\n        /* \"@openzeppelin/contracts/token/ERC20/ERC20.sol\":8016:8018  to */\n      dup6\n        /* \"@openzeppelin/contracts/token/ERC20/ERC20.sol\":8006:8019  _balances[to] */\n      0xffffffffffffffffffffffffffffffffffffffff\n      and\n      0xffffffffffffffffffffffffffffffffffffffff\n      and\n      dup2\n      mstore\n      0x20\n      add\n      swap1\n      dup2\n      mstore\n      0x20\n      add\n      0x00\n      keccak256\n      0x00\n        /* \"@openzeppelin/contracts/token/ERC20/ERC20.sol\":8006:8029  _balances[to] += amount */\n      dup3\n      dup3\n      sload\n      tag_237\n      swap2\n      swap1\n      tag_110\n      jump\t// in\n    tag_237:\n      swap3\n      pop\n      pop\n      dup2\n      swap1\n      sstore\n      pop\n        /* \"@openzeppelin/contracts/token/ERC20/ERC20.sol\":8060:8062  to */\n      dup3\n        /* \"@openzeppelin/contracts/token/ERC20/ERC20.sol\":8045:8071  Transfer(from, to, amount) */\n      0xffffffffffffffffffffffffffffffffffffffff\n      and\n        /* \"@openzeppelin/contracts/token/ERC20/ERC20.sol\":8054:8058  from */\n      dup5\n        /* \"@openzeppelin/contracts/token/ERC20/ERC20.sol\":8045:8071  Transfer(from, to, amount) */\n      0xffffffffffffffffffffffffffffffffffffffff\n      and\n      0xddf252ad1be2c89b69c2b068fc378daa952ba7f163c4a11628f55a4df523b3ef\n        /* \"@openzeppelin/contracts/token/ERC20/ERC20.sol\":8064:8070  amount */\n      dup5\n        /* \"@openzeppelin/contracts/token/ERC20/ERC20.sol\":8045:8071  Transfer(from, to, amount) */\n      mload(0x40)\n      tag_238\n      swap2\n      swap1\n      tag_34\n      jump\t// in\n    tag_238:\n      mload(0x40)\n      dup1\n      swap2\n      sub\n      swap1\n      log3\n        /* \"@openzeppelin/contracts/token/ERC20/ERC20.sol\":8082:8119  _afterTokenTransfer(from, to, amount) */\n      tag_239\n        /* \"@openzeppelin/contracts/token/ERC20/ERC20.sol\":8102:8106  from */\n      dup5\n        /* \"@openzeppelin/contracts/token/ERC20/ERC20.sol\":8108:8110  to */\n      dup5\n        /* \"@openzeppelin/contracts/token/ERC20/ERC20.sol\":8112:8118  amount */\n      dup5\n        /* \"@openzeppelin/contracts/token/ERC20/ERC20.sol\":8082:8101  _afterTokenTransfer */\n      tag_240\n        /* \"@openzeppelin/contracts/token/ERC20/ERC20.sol\":8082:8119  _afterTokenTransfer(from, to, amount) */\n      jump\t// in\n    tag_239:\n        /* \"@openzeppelin/contracts/token/ERC20/ERC20.sol\":7583:8126  {... */\n      pop\n        /* \"@openzeppelin/contracts/token/ERC20/ERC20.sol\":7475:8126  function _transfer(... */\n      pop\n      pop\n      pop\n      jump\t// out\n        /* \"@openzeppelin/contracts/token/ERC20/ERC20.sol\":8402:8791  function _mint(address account, uint256 amount) internal virtual {... */\n    tag_131:\n        /* \"@openzeppelin/contracts/token/ERC20/ERC20.sol\":8504:8505  0 */\n      0x00\n        /* \"@openzeppelin/contracts/token/ERC20/ERC20.sol\":8485:8506  account != address(0) */\n      0xffffffffffffffffffffffffffffffffffffffff\n      and\n        /* \"@openzeppelin/contracts/token/ERC20/ERC20.sol\":8485:8492  account */\n      dup3\n        /* \"@openzeppelin/contracts/token/ERC20/ERC20.sol\":8485:8506  account != address(0) */\n      0xffffffffffffffffffffffffffffffffffffffff\n      and\n      eq\n      iszero\n        /* \"@openzeppelin/contracts/token/ERC20/ERC20.sol\":8477:8542  require(account != address(0), \"ERC20: mint to the zero address\") */\n      tag_242\n      jumpi\n      mload(0x40)\n      0x08c379a000000000000000000000000000000000000000000000000000000000\n      dup2\n      mstore\n      0x04\n      add\n      tag_243\n      swap1\n      tag_244\n      jump\t// in\n    tag_243:\n      mload(0x40)\n      dup1\n      swap2\n      sub\n      swap1\n      revert\n    tag_242:\n        /* \"@openzeppelin/contracts/token/ERC20/ERC20.sol\":8553:8602  _beforeTokenTransfer(address(0), account, amount) */\n      tag_245\n        /* \"@openzeppelin/contracts/token/ERC20/ERC20.sol\":8582:8583  0 */\n      0x00\n        /* \"@openzeppelin/contracts/token/ERC20/ERC20.sol\":8586:8593  account */\n      dup4\n        /* \"@openzeppelin/contracts/token/ERC20/ERC20.sol\":8595:8601  amount */\n      dup4\n        /* \"@openzeppelin/contracts/token/ERC20/ERC20.sol\":8553:8573  _beforeTokenTransfer */\n      tag_233\n        /* \"@openzeppelin/contracts/token/ERC20/ERC20.sol\":8553:8602  _beforeTokenTransfer(address(0), account, amount) */\n      jump\t// in\n    tag_245:\n        /* \"@openzeppelin/contracts/token/ERC20/ERC20.sol\":8629:8635  amount */\n      dup1\n        /* \"@openzeppelin/contracts/token/ERC20/ERC20.sol\":8613:8625  _totalSupply */\n      0x02\n      0x00\n        /* \"@openzeppelin/contracts/token/ERC20/ERC20.sol\":8613:8635  _totalSupply += amount */\n      dup3\n      dup3\n      sload\n      tag_246\n      swap2\n      swap1\n      tag_110\n      jump\t// in\n    tag_246:\n      swap3\n      pop\n      pop\n      dup2\n      swap1\n      sstore\n      pop\n        /* \"@openzeppelin/contracts/token/ERC20/ERC20.sol\":8667:8673  amount */\n      dup1\n        /* \"@openzeppelin/contracts/token/ERC20/ERC20.sol\":8645:8654  _balances */\n      0x00\n        /* \"@openzeppelin/contracts/token/ERC20/ERC20.sol\":8645:8663  _balances[account] */\n      dup1\n        /* \"@openzeppelin/contracts/token/ERC20/ERC20.sol\":8655:8662  account */\n      dup5\n        /* \"@openzeppelin/contracts/token/ERC20/ERC20.sol\":8645:8663  _balances[account] */\n      0xffffffffffffffffffffffffffffffffffffffff\n      and\n      0xffffffffffffffffffffffffffffffffffffffff\n      and\n      dup2\n      mstore\n      0x20\n      add\n      swap1\n      dup2\n      mstore\n      0x20\n      add\n      0x00\n      keccak256\n      0x00\n        /* \"@openzeppelin/contracts/token/ERC20/ERC20.sol\":8645:8673  _balances[account] += amount */\n      dup3\n      dup3\n      sload\n      tag_247\n      swap2\n      swap1\n      tag_110\n      jump\t// in\n    tag_247:\n      swap3\n      pop\n      pop\n      dup2\n      swap1\n      sstore\n      pop\n        /* \"@openzeppelin/contracts/token/ERC20/ERC20.sol\":8709:8716  account */\n      dup2\n        /* \"@openzeppelin/contracts/token/ERC20/ERC20.sol\":8688:8725  Transfer(address(0), account, amount) */\n      0xffffffffffffffffffffffffffffffffffffffff\n      and\n        /* \"@openzeppelin/contracts/token/ERC20/ERC20.sol\":8705:8706  0 */\n      0x00\n        /* \"@openzeppelin/contracts/token/ERC20/ERC20.sol\":8688:8725  Transfer(address(0), account, amount) */\n      0xffffffffffffffffffffffffffffffffffffffff\n      and\n      0xddf252ad1be2c89b69c2b068fc378daa952ba7f163c4a11628f55a4df523b3ef\n        /* \"@openzeppelin/contracts/token/ERC20/ERC20.sol\":8718:8724  amount */\n      dup4\n        /* \"@openzeppelin/contracts/token/ERC20/ERC20.sol\":8688:8725  Transfer(address(0), account, amount) */\n      mload(0x40)\n      tag_248\n      swap2\n      swap1\n      tag_34\n      jump\t// in\n    tag_248:\n      mload(0x40)\n      dup1\n      swap2\n      sub\n      swap1\n      log3\n        /* \"@openzeppelin/contracts/token/ERC20/ERC20.sol\":8736:8784  _afterTokenTransfer(address(0), account, amount) */\n      tag_249\n        /* \"@openzeppelin/contracts/token/ERC20/ERC20.sol\":8764:8765  0 */\n      0x00\n        /* \"@openzeppelin/contracts/token/ERC20/ERC20.sol\":8768:8775  account */\n      dup4\n        /* \"@openzeppelin/contracts/token/ERC20/ERC20.sol\":8777:8783  amount */\n      dup4\n        /* \"@openzeppelin/contracts/token/ERC20/ERC20.sol\":8736:8755  _afterTokenTransfer */\n      tag_240\n        /* \"@openzeppelin/contracts/token/ERC20/ERC20.sol\":8736:8784  _afterTokenTransfer(address(0), account, amount) */\n      jump\t// in\n    tag_249:\n        /* \"@openzeppelin/contracts/token/ERC20/ERC20.sol\":8402:8791  function _mint(address account, uint256 amount) internal virtual {... */\n      pop\n      pop\n      jump\t// out\n        /* \"@openzeppelin/contracts/token/ERC20/ERC20.sol\":11786:11907  function _beforeTokenTransfer(... */\n    tag_233:\n      pop\n      pop\n      pop\n      jump\t// out\n        /* \"@openzeppelin/contracts/token/ERC20/ERC20.sol\":12495:12615  function _afterTokenTransfer(... */\n    tag_240:\n      pop\n      pop\n      pop\n      jump\t// out\n    tag_202:\n      dup3\n      dup1\n      sload\n      tag_252\n      swap1\n      tag_87\n      jump\t// in\n    tag_252:\n      swap1\n      0x00\n      mstore\n      keccak256(0x00, 0x20)\n      swap1\n      0x1f\n      add\n      0x20\n      swap1\n      div\n      dup2\n      add\n      swap3\n      dup3\n      tag_254\n      jumpi\n      0x00\n      dup6\n      sstore\n      jump(tag_253)\n    tag_254:\n      dup3\n      0x1f\n      lt\n      tag_255\n      jumpi\n      dup1\n      mload\n      not(0xff)\n      and\n      dup4\n      dup1\n      add\n      or\n      dup6\n      sstore\n      jump(tag_253)\n    tag_255:\n      dup3\n      dup1\n      add\n      0x01\n      add\n      dup6\n      sstore\n      dup3\n      iszero\n      tag_253\n      jumpi\n      swap2\n      dup3\n      add\n    tag_256:\n      dup3\n      dup2\n      gt\n      iszero\n      tag_257\n      jumpi\n      dup3\n      mload\n      dup3\n      sstore\n      swap2\n      0x20\n      add\n      swap2\n      swap1\n      0x01\n      add\n      swap1\n      jump(tag_256)\n    tag_257:\n    tag_253:\n      pop\n      swap1\n      pop\n      tag_258\n      swap2\n      swap1\n      tag_259\n      jump\t// in\n    tag_258:\n      pop\n      swap1\n      jump\t// out\n    tag_259:\n    tag_260:\n      dup1\n      dup3\n      gt\n      iszero\n      tag_261\n      jumpi\n      0x00\n      dup2\n      0x00\n      swap1\n      sstore\n      pop\n      0x01\n      add\n      jump(tag_260)\n    tag_261:\n      pop\n      swap1\n      jump\t// out\n        /* \"#utility.yul\":7:146   */\n    tag_263:\n        /* \"#utility.yul\":53:58   */\n      0x00\n        /* \"#utility.yul\":91:97   */\n      dup2\n        /* \"#utility.yul\":78:98   */\n      calldataload\n        /* \"#utility.yul\":69:98   */\n      swap1\n      pop\n        /* \"#utility.yul\":107:140   */\n      tag_265\n        /* \"#utility.yul\":134:139   */\n      dup2\n        /* \"#utility.yul\":107:140   */\n      tag_266\n      jump\t// in\n    tag_265:\n        /* \"#utility.yul\":7:146   */\n      swap3\n      swap2\n      pop\n      pop\n      jump\t// out\n        /* \"#utility.yul\":152:291   */\n    tag_267:\n        /* \"#utility.yul\":198:203   */\n      0x00\n        /* \"#utility.yul\":236:242   */\n      dup2\n        /* \"#utility.yul\":223:243   */\n      calldataload\n        /* \"#utility.yul\":214:243   */\n      swap1\n      pop\n        /* \"#utility.yul\":252:285   */\n      tag_269\n        /* \"#utility.yul\":279:284   */\n      dup2\n        /* \"#utility.yul\":252:285   */\n      tag_270\n      jump\t// in\n    tag_269:\n        /* \"#utility.yul\":152:291   */\n      swap3\n      swap2\n      pop\n      pop\n      jump\t// out\n        /* \"#utility.yul\":297:626   */\n    tag_53:\n        /* \"#utility.yul\":356:362   */\n      0x00\n        /* \"#utility.yul\":405:407   */\n      0x20\n        /* \"#utility.yul\":393:402   */\n      dup3\n        /* \"#utility.yul\":384:391   */\n      dup5\n        /* \"#utility.yul\":380:403   */\n      sub\n        /* \"#utility.yul\":376:408   */\n      slt\n        /* \"#utility.yul\":373:492   */\n      iszero\n      tag_272\n      jumpi\n        /* \"#utility.yul\":411:490   */\n      tag_273\n      tag_274\n      jump\t// in\n    tag_273:\n        /* \"#utility.yul\":373:492   */\n    tag_272:\n        /* \"#utility.yul\":531:532   */\n      0x00\n        /* \"#utility.yul\":556:609   */\n      tag_275\n        /* \"#utility.yul\":601:608   */\n      dup5\n        /* \"#utility.yul\":592:598   */\n      dup3\n        /* \"#utility.yul\":581:590   */\n      dup6\n        /* \"#utility.yul\":577:599   */\n      add\n        /* \"#utility.yul\":556:609   */\n      tag_263\n      jump\t// in\n    tag_275:\n        /* \"#utility.yul\":546:609   */\n      swap2\n      pop\n        /* \"#utility.yul\":502:619   */\n      pop\n        /* \"#utility.yul\":297:626   */\n      swap3\n      swap2\n      pop\n      pop\n      jump\t// out\n        /* \"#utility.yul\":632:1106   */\n    tag_82:\n        /* \"#utility.yul\":700:706   */\n      0x00\n        /* \"#utility.yul\":708:714   */\n      dup1\n        /* \"#utility.yul\":757:759   */\n      0x40\n        /* \"#utility.yul\":745:754   */\n      dup4\n        /* \"#utility.yul\":736:743   */\n      dup6\n        /* \"#utility.yul\":732:755   */\n      sub\n        /* \"#utility.yul\":728:760   */\n      slt\n        /* \"#utility.yul\":725:844   */\n      iszero\n      tag_277\n      jumpi\n        /* \"#utility.yul\":763:842   */\n      tag_278\n      tag_274\n      jump\t// in\n    tag_278:\n        /* \"#utility.yul\":725:844   */\n    tag_277:\n        /* \"#utility.yul\":883:884   */\n      0x00\n        /* \"#utility.yul\":908:961   */\n      tag_279\n        /* \"#utility.yul\":953:960   */\n      dup6\n        /* \"#utility.yul\":944:950   */\n      dup3\n        /* \"#utility.yul\":933:942   */\n      dup7\n        /* \"#utility.yul\":929:951   */\n      add\n        /* \"#utility.yul\":908:961   */\n      tag_263\n      jump\t// in\n    tag_279:\n        /* \"#utility.yul\":898:961   */\n      swap3\n      pop\n        /* \"#utility.yul\":854:971   */\n      pop\n        /* \"#utility.yul\":1010:1012   */\n      0x20\n        /* \"#utility.yul\":1036:1089   */\n      tag_280\n        /* \"#utility.yul\":1081:1088   */\n      dup6\n        /* \"#utility.yul\":1072:1078   */\n      dup3\n        /* \"#utility.yul\":1061:1070   */\n      dup7\n        /* \"#utility.yul\":1057:1079   */\n      add\n        /* \"#utility.yul\":1036:1089   */\n      tag_263\n      jump\t// in\n    tag_280:\n        /* \"#utility.yul\":1026:1089   */\n      swap2\n      pop\n        /* \"#utility.yul\":981:1099   */\n      pop\n        /* \"#utility.yul\":632:1106   */\n      swap3\n      pop\n      swap3\n      swap1\n      pop\n      jump\t// out\n        /* \"#utility.yul\":1112:1731   */\n    tag_37:\n        /* \"#utility.yul\":1189:1195   */\n      0x00\n        /* \"#utility.yul\":1197:1203   */\n      dup1\n        /* \"#utility.yul\":1205:1211   */\n      0x00\n        /* \"#utility.yul\":1254:1256   */\n      0x60\n        /* \"#utility.yul\":1242:1251   */\n      dup5\n        /* \"#utility.yul\":1233:1240   */\n      dup7\n        /* \"#utility.yul\":1229:1252   */\n      sub\n        /* \"#utility.yul\":1225:1257   */\n      slt\n        /* \"#utility.yul\":1222:1341   */\n      iszero\n      tag_282\n      jumpi\n        /* \"#utility.yul\":1260:1339   */\n      tag_283\n      tag_274\n      jump\t// in\n    tag_283:\n        /* \"#utility.yul\":1222:1341   */\n    tag_282:\n        /* \"#utility.yul\":1380:1381   */\n      0x00\n        /* \"#utility.yul\":1405:1458   */\n      tag_284\n        /* \"#utility.yul\":1450:1457   */\n      dup7\n        /* \"#utility.yul\":1441:1447   */\n      dup3\n        /* \"#utility.yul\":1430:1439   */\n      dup8\n        /* \"#utility.yul\":1426:1448   */\n      add\n        /* \"#utility.yul\":1405:1458   */\n      tag_263\n      jump\t// in\n    tag_284:\n        /* \"#utility.yul\":1395:1458   */\n      swap4\n      pop\n        /* \"#utility.yul\":1351:1468   */\n      pop\n        /* \"#utility.yul\":1507:1509   */\n      0x20\n        /* \"#utility.yul\":1533:1586   */\n      tag_285\n        /* \"#utility.yul\":1578:1585   */\n      dup7\n        /* \"#utility.yul\":1569:1575   */\n      dup3\n        /* \"#utility.yul\":1558:1567   */\n      dup8\n        /* \"#utility.yul\":1554:1576   */\n      add\n        /* \"#utility.yul\":1533:1586   */\n      tag_263\n      jump\t// in\n    tag_285:\n        /* \"#utility.yul\":1523:1586   */\n      swap3\n      pop\n        /* \"#utility.yul\":1478:1596   */\n      pop\n        /* \"#utility.yul\":1635:1637   */\n      0x40\n        /* \"#utility.yul\":1661:1714   */\n      tag_286\n        /* \"#utility.yul\":1706:1713   */\n      dup7\n        /* \"#utility.yul\":1697:1703   */\n      dup3\n        /* \"#utility.yul\":1686:1695   */\n      dup8\n        /* \"#utility.yul\":1682:1704   */\n      add\n        /* \"#utility.yul\":1661:1714   */\n      tag_267\n      jump\t// in\n    tag_286:\n        /* \"#utility.yul\":1651:1714   */\n      swap2\n      pop\n        /* \"#utility.yul\":1606:1724   */\n      pop\n        /* \"#utility.yul\":1112:1731   */\n      swap3\n      pop\n      swap3\n      pop\n      swap3\n      jump\t// out\n        /* \"#utility.yul\":1737:2211   */\n    tag_27:\n        /* \"#utility.yul\":1805:1811   */\n      0x00\n        /* \"#utility.yul\":1813:1819   */\n      dup1\n        /* \"#utility.yul\":1862:1864   */\n      0x40\n        /* \"#utility.yul\":1850:1859   */\n      dup4\n        /* \"#utility.yul\":1841:1848   */\n      dup6\n        /* \"#utility.yul\":1837:1860   */\n      sub\n        /* \"#utility.yul\":1833:1865   */\n      slt\n        /* \"#utility.yul\":1830:1949   */\n      iszero\n      tag_288\n      jumpi\n        /* \"#utility.yul\":1868:1947   */\n      tag_289\n      tag_274\n      jump\t// in\n    tag_289:\n        /* \"#utility.yul\":1830:1949   */\n    tag_288:\n        /* \"#utility.yul\":1988:1989   */\n      0x00\n        /* \"#utility.yul\":2013:2066   */\n      tag_290\n        /* \"#utility.yul\":2058:2065   */\n      dup6\n        /* \"#utility.yul\":2049:2055   */\n      dup3\n        /* \"#utility.yul\":2038:2047   */\n      dup7\n        /* \"#utility.yul\":2034:2056   */\n      add\n        /* \"#utility.yul\":2013:2066   */\n      tag_263\n      jump\t// in\n    tag_290:\n        /* \"#utility.yul\":2003:2066   */\n      swap3\n      pop\n        /* \"#utility.yul\":1959:2076   */\n      pop\n        /* \"#utility.yul\":2115:2117   */\n      0x20\n        /* \"#utility.yul\":2141:2194   */\n      tag_291\n        /* \"#utility.yul\":2186:2193   */\n      dup6\n        /* \"#utility.yul\":2177:2183   */\n      dup3\n        /* \"#utility.yul\":2166:2175   */\n      dup7\n        /* \"#utility.yul\":2162:2184   */\n      add\n        /* \"#utility.yul\":2141:2194   */\n      tag_267\n      jump\t// in\n    tag_291:\n        /* \"#utility.yul\":2131:2194   */\n      swap2\n      pop\n        /* \"#utility.yul\":2086:2204   */\n      pop\n        /* \"#utility.yul\":1737:2211   */\n      swap3\n      pop\n      swap3\n      swap1\n      pop\n      jump\t// out\n        /* \"#utility.yul\":2217:2546   */\n    tag_65:\n        /* \"#utility.yul\":2276:2282   */\n      0x00\n        /* \"#utility.yul\":2325:2327   */\n      0x20\n        /* \"#utility.yul\":2313:2322   */\n      dup3\n        /* \"#utility.yul\":2304:2311   */\n      dup5\n        /* \"#utility.yul\":2300:2323   */\n      sub\n        /* \"#utility.yul\":2296:2328   */\n      slt\n        /* \"#utility.yul\":2293:2412   */\n      iszero\n      tag_293\n      jumpi\n        /* \"#utility.yul\":2331:2410   */\n      tag_294\n      tag_274\n      jump\t// in\n    tag_294:\n        /* \"#utility.yul\":2293:2412   */\n    tag_293:\n        /* \"#utility.yul\":2451:2452   */\n      0x00\n        /* \"#utility.yul\":2476:2529   */\n      tag_295\n        /* \"#utility.yul\":2521:2528   */\n      dup5\n        /* \"#utility.yul\":2512:2518   */\n      dup3\n        /* \"#utility.yul\":2501:2510   */\n      dup6\n        /* \"#utility.yul\":2497:2519   */\n      add\n        /* \"#utility.yul\":2476:2529   */\n      tag_267\n      jump\t// in\n    tag_295:\n        /* \"#utility.yul\":2466:2529   */\n      swap2\n      pop\n        /* \"#utility.yul\":2422:2539   */\n      pop\n        /* \"#utility.yul\":2217:2546   */\n      swap3\n      swap2\n      pop\n      pop\n      jump\t// out\n        /* \"#utility.yul\":2552:3171   */\n    tag_77:\n        /* \"#utility.yul\":2629:2635   */\n      0x00\n        /* \"#utility.yul\":2637:2643   */\n      dup1\n        /* \"#utility.yul\":2645:2651   */\n      0x00\n        /* \"#utility.yul\":2694:2696   */\n      0x60\n        /* \"#utility.yul\":2682:2691   */\n      dup5\n        /* \"#utility.yul\":2673:2680   */\n      dup7\n        /* \"#utility.yul\":2669:2692   */\n      sub\n        /* \"#utility.yul\":2665:2697   */\n      slt\n        /* \"#utility.yul\":2662:2781   */\n      iszero\n      tag_297\n      jumpi\n        /* \"#utility.yul\":2700:2779   */\n      tag_298\n      tag_274\n      jump\t// in\n    tag_298:\n        /* \"#utility.yul\":2662:2781   */\n    tag_297:\n        /* \"#utility.yul\":2820:2821   */\n      0x00\n        /* \"#utility.yul\":2845:2898   */\n      tag_299\n        /* \"#utility.yul\":2890:2897   */\n      dup7\n        /* \"#utility.yul\":2881:2887   */\n      dup3\n        /* \"#utility.yul\":2870:2879   */\n      dup8\n        /* \"#utility.yul\":2866:2888   */\n      add\n        /* \"#utility.yul\":2845:2898   */\n      tag_267\n      jump\t// in\n    tag_299:\n        /* \"#utility.yul\":2835:2898   */\n      swap4\n      pop\n        /* \"#utility.yul\":2791:2908   */\n      pop\n        /* \"#utility.yul\":2947:2949   */\n      0x20\n        /* \"#utility.yul\":2973:3026   */\n      tag_300\n        /* \"#utility.yul\":3018:3025   */\n      dup7\n        /* \"#utility.yul\":3009:3015   */\n      dup3\n        /* \"#utility.yul\":2998:3007   */\n      dup8\n        /* \"#utility.yul\":2994:3016   */\n      add\n        /* \"#utility.yul\":2973:3026   */\n      tag_267\n      jump\t// in\n    tag_300:\n        /* \"#utility.yul\":2963:3026   */\n      swap3\n      pop\n        /* \"#utility.yul\":2918:3036   */\n      pop\n        /* \"#utility.yul\":3075:3077   */\n      0x40\n        /* \"#utility.yul\":3101:3154   */\n      tag_301\n        /* \"#utility.yul\":3146:3153   */\n      dup7\n        /* \"#utility.yul\":3137:3143   */\n      dup3\n        /* \"#utility.yul\":3126:3135   */\n      dup8\n        /* \"#utility.yul\":3122:3144   */\n      add\n        /* \"#utility.yul\":3101:3154   */\n      tag_267\n      jump\t// in\n    tag_301:\n        /* \"#utility.yul\":3091:3154   */\n      swap2\n      pop\n        /* \"#utility.yul\":3046:3164   */\n      pop\n        /* \"#utility.yul\":2552:3171   */\n      swap3\n      pop\n      swap3\n      pop\n      swap3\n      jump\t// out\n        /* \"#utility.yul\":3177:3295   */\n    tag_302:\n        /* \"#utility.yul\":3264:3288   */\n      tag_304\n        /* \"#utility.yul\":3282:3287   */\n      dup2\n        /* \"#utility.yul\":3264:3288   */\n      tag_305\n      jump\t// in\n    tag_304:\n        /* \"#utility.yul\":3259:3262   */\n      dup3\n        /* \"#utility.yul\":3252:3289   */\n      mstore\n        /* \"#utility.yul\":3177:3295   */\n      pop\n      pop\n      jump\t// out\n        /* \"#utility.yul\":3301:3458   */\n    tag_306:\n        /* \"#utility.yul\":3406:3451   */\n      tag_308\n        /* \"#utility.yul\":3426:3450   */\n      tag_309\n        /* \"#utility.yul\":3444:3449   */\n      dup3\n        /* \"#utility.yul\":3426:3450   */\n      tag_305\n      jump\t// in\n    tag_309:\n        /* \"#utility.yul\":3406:3451   */\n      tag_310\n      jump\t// in\n    tag_308:\n        /* \"#utility.yul\":3401:3404   */\n      dup3\n        /* \"#utility.yul\":3394:3452   */\n      mstore\n        /* \"#utility.yul\":3301:3458   */\n      pop\n      pop\n      jump\t// out\n        /* \"#utility.yul\":3464:3573   */\n    tag_311:\n        /* \"#utility.yul\":3545:3566   */\n      tag_313\n        /* \"#utility.yul\":3560:3565   */\n      dup2\n        /* \"#utility.yul\":3545:3566   */\n      tag_314\n      jump\t// in\n    tag_313:\n        /* \"#utility.yul\":3540:3543   */\n      dup3\n        /* \"#utility.yul\":3533:3567   */\n      mstore\n        /* \"#utility.yul\":3464:3573   */\n      pop\n      pop\n      jump\t// out\n        /* \"#utility.yul\":3579:3943   */\n    tag_315:\n        /* \"#utility.yul\":3667:3670   */\n      0x00\n        /* \"#utility.yul\":3695:3734   */\n      tag_317\n        /* \"#utility.yul\":3728:3733   */\n      dup3\n        /* \"#utility.yul\":3695:3734   */\n      tag_318\n      jump\t// in\n    tag_317:\n        /* \"#utility.yul\":3750:3821   */\n      tag_319\n        /* \"#utility.yul\":3814:3820   */\n      dup2\n        /* \"#utility.yul\":3809:3812   */\n      dup6\n        /* \"#utility.yul\":3750:3821   */\n      tag_320\n      jump\t// in\n    tag_319:\n        /* \"#utility.yul\":3743:3821   */\n      swap4\n      pop\n        /* \"#utility.yul\":3830:3882   */\n      tag_321\n        /* \"#utility.yul\":3875:3881   */\n      dup2\n        /* \"#utility.yul\":3870:3873   */\n      dup6\n        /* \"#utility.yul\":3863:3867   */\n      0x20\n        /* \"#utility.yul\":3856:3861   */\n      dup7\n        /* \"#utility.yul\":3852:3868   */\n      add\n        /* \"#utility.yul\":3830:3882   */\n      tag_322\n      jump\t// in\n    tag_321:\n        /* \"#utility.yul\":3907:3936   */\n      tag_323\n        /* \"#utility.yul\":3929:3935   */\n      dup2\n        /* \"#utility.yul\":3907:3936   */\n      tag_324\n      jump\t// in\n    tag_323:\n        /* \"#utility.yul\":3902:3905   */\n      dup5\n        /* \"#utility.yul\":3898:3937   */\n      add\n        /* \"#utility.yul\":3891:3937   */\n      swap2\n      pop\n        /* \"#utility.yul\":3671:3943   */\n      pop\n        /* \"#utility.yul\":3579:3943   */\n      swap3\n      swap2\n      pop\n      pop\n      jump\t// out\n        /* \"#utility.yul\":3949:4315   */\n    tag_325:\n        /* \"#utility.yul\":4091:4094   */\n      0x00\n        /* \"#utility.yul\":4112:4179   */\n      tag_327\n        /* \"#utility.yul\":4176:4178   */\n      0x23\n        /* \"#utility.yul\":4171:4174   */\n      dup4\n        /* \"#utility.yul\":4112:4179   */\n      tag_320\n      jump\t// in\n    tag_327:\n        /* \"#utility.yul\":4105:4179   */\n      swap2\n      pop\n        /* \"#utility.yul\":4188:4281   */\n      tag_328\n        /* \"#utility.yul\":4277:4280   */\n      dup3\n        /* \"#utility.yul\":4188:4281   */\n      tag_329\n      jump\t// in\n    tag_328:\n        /* \"#utility.yul\":4306:4308   */\n      0x40\n        /* \"#utility.yul\":4301:4304   */\n      dup3\n        /* \"#utility.yul\":4297:4309   */\n      add\n        /* \"#utility.yul\":4290:4309   */\n      swap1\n      pop\n        /* \"#utility.yul\":3949:4315   */\n      swap2\n      swap1\n      pop\n      jump\t// out\n        /* \"#utility.yul\":4321:4687   */\n    tag_330:\n        /* \"#utility.yul\":4463:4466   */\n      0x00\n        /* \"#utility.yul\":4484:4551   */\n      tag_332\n        /* \"#utility.yul\":4548:4550   */\n      0x22\n        /* \"#utility.yul\":4543:4546   */\n      dup4\n        /* \"#utility.yul\":4484:4551   */\n      tag_320\n      jump\t// in\n    tag_332:\n        /* \"#utility.yul\":4477:4551   */\n      swap2\n      pop\n        /* \"#utility.yul\":4560:4653   */\n      tag_333\n        /* \"#utility.yul\":4649:4652   */\n      dup3\n        /* \"#utility.yul\":4560:4653   */\n      tag_334\n      jump\t// in\n    tag_333:\n        /* \"#utility.yul\":4678:4680   */\n      0x40\n        /* \"#utility.yul\":4673:4676   */\n      dup3\n        /* \"#utility.yul\":4669:4681   */\n      add\n        /* \"#utility.yul\":4662:4681   */\n      swap1\n      pop\n        /* \"#utility.yul\":4321:4687   */\n      swap2\n      swap1\n      pop\n      jump\t// out\n        /* \"#utility.yul\":4693:5059   */\n    tag_335:\n        /* \"#utility.yul\":4835:4838   */\n      0x00\n        /* \"#utility.yul\":4856:4923   */\n      tag_337\n        /* \"#utility.yul\":4920:4922   */\n      0x1d\n        /* \"#utility.yul\":4915:4918   */\n      dup4\n        /* \"#utility.yul\":4856:4923   */\n      tag_320\n      jump\t// in\n    tag_337:\n        /* \"#utility.yul\":4849:4923   */\n      swap2\n      pop\n        /* \"#utility.yul\":4932:5025   */\n      tag_338\n        /* \"#utility.yul\":5021:5024   */\n      dup3\n        /* \"#utility.yul\":4932:5025   */\n      tag_339\n      jump\t// in\n    tag_338:\n        /* \"#utility.yul\":5050:5052   */\n      0x20\n        /* \"#utility.yul\":5045:5048   */\n      dup3\n        /* \"#utility.yul\":5041:5053   */\n      add\n        /* \"#utility.yul\":5034:5053   */\n      swap1\n      pop\n        /* \"#utility.yul\":4693:5059   */\n      swap2\n      swap1\n      pop\n      jump\t// out\n        /* \"#utility.yul\":5065:5431   */\n    tag_340:\n        /* \"#utility.yul\":5207:5210   */\n      0x00\n        /* \"#utility.yul\":5228:5295   */\n      tag_342\n        /* \"#utility.yul\":5292:5294   */\n      0x26\n        /* \"#utility.yul\":5287:5290   */\n      dup4\n        /* \"#utility.yul\":5228:5295   */\n      tag_320\n      jump\t// in\n    tag_342:\n        /* \"#utility.yul\":5221:5295   */\n      swap2\n      pop\n        /* \"#utility.yul\":5304:5397   */\n      tag_343\n        /* \"#utility.yul\":5393:5396   */\n      dup3\n        /* \"#utility.yul\":5304:5397   */\n      tag_344\n      jump\t// in\n    tag_343:\n        /* \"#utility.yul\":5422:5424   */\n      0x40\n        /* \"#utility.yul\":5417:5420   */\n      dup3\n        /* \"#utility.yul\":5413:5425   */\n      add\n        /* \"#utility.yul\":5406:5425   */\n      swap1\n      pop\n        /* \"#utility.yul\":5065:5431   */\n      swap2\n      swap1\n      pop\n      jump\t// out\n        /* \"#utility.yul\":5437:5803   */\n    tag_345:\n        /* \"#utility.yul\":5579:5582   */\n      0x00\n        /* \"#utility.yul\":5600:5667   */\n      tag_347\n        /* \"#utility.yul\":5664:5666   */\n      0x25\n        /* \"#utility.yul\":5659:5662   */\n      dup4\n        /* \"#utility.yul\":5600:5667   */\n      tag_320\n      jump\t// in\n    tag_347:\n        /* \"#utility.yul\":5593:5667   */\n      swap2\n      pop\n        /* \"#utility.yul\":5676:5769   */\n      tag_348\n        /* \"#utility.yul\":5765:5768   */\n      dup3\n        /* \"#utility.yul\":5676:5769   */\n      tag_349\n      jump\t// in\n    tag_348:\n        /* \"#utility.yul\":5794:5796   */\n      0x40\n        /* \"#utility.yul\":5789:5792   */\n      dup3\n        /* \"#utility.yul\":5785:5797   */\n      add\n        /* \"#utility.yul\":5778:5797   */\n      swap1\n      pop\n        /* \"#utility.yul\":5437:5803   */\n      swap2\n      swap1\n      pop\n      jump\t// out\n        /* \"#utility.yul\":5809:6175   */\n    tag_350:\n        /* \"#utility.yul\":5951:5954   */\n      0x00\n        /* \"#utility.yul\":5972:6039   */\n      tag_352\n        /* \"#utility.yul\":6036:6038   */\n      0x24\n        /* \"#utility.yul\":6031:6034   */\n      dup4\n        /* \"#utility.yul\":5972:6039   */\n      tag_320\n      jump\t// in\n    tag_352:\n        /* \"#utility.yul\":5965:6039   */\n      swap2\n      pop\n        /* \"#utility.yul\":6048:6141   */\n      tag_353\n        /* \"#utility.yul\":6137:6140   */\n      dup3\n        /* \"#utility.yul\":6048:6141   */\n      tag_354\n      jump\t// in\n    tag_353:\n        /* \"#utility.yul\":6166:6168   */\n      0x40\n        /* \"#utility.yul\":6161:6164   */\n      dup3\n        /* \"#utility.yul\":6157:6169   */\n      add\n        /* \"#utility.yul\":6150:6169   */\n      swap1\n      pop\n        /* \"#utility.yul\":5809:6175   */\n      swap2\n      swap1\n      pop\n      jump\t// out\n        /* \"#utility.yul\":6181:6547   */\n    tag_355:\n        /* \"#utility.yul\":6323:6326   */\n      0x00\n        /* \"#utility.yul\":6344:6411   */\n      tag_357\n        /* \"#utility.yul\":6408:6410   */\n      0x25\n        /* \"#utility.yul\":6403:6406   */\n      dup4\n        /* \"#utility.yul\":6344:6411   */\n      tag_320\n      jump\t// in\n    tag_357:\n        /* \"#utility.yul\":6337:6411   */\n      swap2\n      pop\n        /* \"#utility.yul\":6420:6513   */\n      tag_358\n        /* \"#utility.yul\":6509:6512   */\n      dup3\n        /* \"#utility.yul\":6420:6513   */\n      tag_359\n      jump\t// in\n    tag_358:\n        /* \"#utility.yul\":6538:6540   */\n      0x40\n        /* \"#utility.yul\":6533:6536   */\n      dup3\n        /* \"#utility.yul\":6529:6541   */\n      add\n        /* \"#utility.yul\":6522:6541   */\n      swap1\n      pop\n        /* \"#utility.yul\":6181:6547   */\n      swap2\n      swap1\n      pop\n      jump\t// out\n        /* \"#utility.yul\":6553:6919   */\n    tag_360:\n        /* \"#utility.yul\":6695:6698   */\n      0x00\n        /* \"#utility.yul\":6716:6783   */\n      tag_362\n        /* \"#utility.yul\":6780:6782   */\n      0x1f\n        /* \"#utility.yul\":6775:6778   */\n      dup4\n        /* \"#utility.yul\":6716:6783   */\n      tag_320\n      jump\t// in\n    tag_362:\n        /* \"#utility.yul\":6709:6783   */\n      swap2\n      pop\n        /* \"#utility.yul\":6792:6885   */\n      tag_363\n        /* \"#utility.yul\":6881:6884   */\n      dup3\n        /* \"#utility.yul\":6792:6885   */\n      tag_364\n      jump\t// in\n    tag_363:\n        /* \"#utility.yul\":6910:6912   */\n      0x20\n        /* \"#utility.yul\":6905:6908   */\n      dup3\n        /* \"#utility.yul\":6901:6913   */\n      add\n        /* \"#utility.yul\":6894:6913   */\n      swap1\n      pop\n        /* \"#utility.yul\":6553:6919   */\n      swap2\n      swap1\n      pop\n      jump\t// out\n        /* \"#utility.yul\":6925:7043   */\n    tag_365:\n        /* \"#utility.yul\":7012:7036   */\n      tag_367\n        /* \"#utility.yul\":7030:7035   */\n      dup2\n        /* \"#utility.yul\":7012:7036   */\n      tag_368\n      jump\t// in\n    tag_367:\n        /* \"#utility.yul\":7007:7010   */\n      dup3\n        /* \"#utility.yul\":7000:7037   */\n      mstore\n        /* \"#utility.yul\":6925:7043   */\n      pop\n      pop\n      jump\t// out\n        /* \"#utility.yul\":7049:7206   */\n    tag_369:\n        /* \"#utility.yul\":7154:7199   */\n      tag_371\n        /* \"#utility.yul\":7174:7198   */\n      tag_372\n        /* \"#utility.yul\":7192:7197   */\n      dup3\n        /* \"#utility.yul\":7174:7198   */\n      tag_368\n      jump\t// in\n    tag_372:\n        /* \"#utility.yul\":7154:7199   */\n      tag_373\n      jump\t// in\n    tag_371:\n        /* \"#utility.yul\":7149:7152   */\n      dup3\n        /* \"#utility.yul\":7142:7200   */\n      mstore\n        /* \"#utility.yul\":7049:7206   */\n      pop\n      pop\n      jump\t// out\n        /* \"#utility.yul\":7212:7324   */\n    tag_374:\n        /* \"#utility.yul\":7295:7317   */\n      tag_376\n        /* \"#utility.yul\":7311:7316   */\n      dup2\n        /* \"#utility.yul\":7295:7317   */\n      tag_377\n      jump\t// in\n    tag_376:\n        /* \"#utility.yul\":7290:7293   */\n      dup3\n        /* \"#utility.yul\":7283:7318   */\n      mstore\n        /* \"#utility.yul\":7212:7324   */\n      pop\n      pop\n      jump\t// out\n        /* \"#utility.yul\":7330:7868   */\n    tag_147:\n        /* \"#utility.yul\":7498:7501   */\n      0x00\n        /* \"#utility.yul\":7513:7588   */\n      tag_379\n        /* \"#utility.yul\":7584:7587   */\n      dup3\n        /* \"#utility.yul\":7575:7581   */\n      dup7\n        /* \"#utility.yul\":7513:7588   */\n      tag_369\n      jump\t// in\n    tag_379:\n        /* \"#utility.yul\":7613:7615   */\n      0x20\n        /* \"#utility.yul\":7608:7611   */\n      dup3\n        /* \"#utility.yul\":7604:7616   */\n      add\n        /* \"#utility.yul\":7597:7616   */\n      swap2\n      pop\n        /* \"#utility.yul\":7626:7701   */\n      tag_380\n        /* \"#utility.yul\":7697:7700   */\n      dup3\n        /* \"#utility.yul\":7688:7694   */\n      dup6\n        /* \"#utility.yul\":7626:7701   */\n      tag_306\n      jump\t// in\n    tag_380:\n        /* \"#utility.yul\":7726:7728   */\n      0x14\n        /* \"#utility.yul\":7721:7724   */\n      dup3\n        /* \"#utility.yul\":7717:7729   */\n      add\n        /* \"#utility.yul\":7710:7729   */\n      swap2\n      pop\n        /* \"#utility.yul\":7739:7814   */\n      tag_381\n        /* \"#utility.yul\":7810:7813   */\n      dup3\n        /* \"#utility.yul\":7801:7807   */\n      dup5\n        /* \"#utility.yul\":7739:7814   */\n      tag_369\n      jump\t// in\n    tag_381:\n        /* \"#utility.yul\":7839:7841   */\n      0x20\n        /* \"#utility.yul\":7834:7837   */\n      dup3\n        /* \"#utility.yul\":7830:7842   */\n      add\n        /* \"#utility.yul\":7823:7842   */\n      swap2\n      pop\n        /* \"#utility.yul\":7859:7862   */\n      dup2\n        /* \"#utility.yul\":7852:7862   */\n      swap1\n      pop\n        /* \"#utility.yul\":7330:7868   */\n      swap5\n      swap4\n      pop\n      pop\n      pop\n      pop\n      jump\t// out\n        /* \"#utility.yul\":7874:8096   */\n    tag_59:\n        /* \"#utility.yul\":7967:7971   */\n      0x00\n        /* \"#utility.yul\":8005:8007   */\n      0x20\n        /* \"#utility.yul\":7994:8003   */\n      dup3\n        /* \"#utility.yul\":7990:8008   */\n      add\n        /* \"#utility.yul\":7982:8008   */\n      swap1\n      pop\n        /* \"#utility.yul\":8018:8089   */\n      tag_383\n        /* \"#utility.yul\":8086:8087   */\n      0x00\n        /* \"#utility.yul\":8075:8084   */\n      dup4\n        /* \"#utility.yul\":8071:8088   */\n      add\n        /* \"#utility.yul\":8062:8068   */\n      dup5\n        /* \"#utility.yul\":8018:8089   */\n      tag_302\n      jump\t// in\n    tag_383:\n        /* \"#utility.yul\":7874:8096   */\n      swap3\n      swap2\n      pop\n      pop\n      jump\t// out\n        /* \"#utility.yul\":8102:8312   */\n    tag_30:\n        /* \"#utility.yul\":8189:8193   */\n      0x00\n        /* \"#utility.yul\":8227:8229   */\n      0x20\n        /* \"#utility.yul\":8216:8225   */\n      dup3\n        /* \"#utility.yul\":8212:8230   */\n      add\n        /* \"#utility.yul\":8204:8230   */\n      swap1\n      pop\n        /* \"#utility.yul\":8240:8305   */\n      tag_385\n        /* \"#utility.yul\":8302:8303   */\n      0x00\n        /* \"#utility.yul\":8291:8300   */\n      dup4\n        /* \"#utility.yul\":8287:8304   */\n      add\n        /* \"#utility.yul\":8278:8284   */\n      dup5\n        /* \"#utility.yul\":8240:8305   */\n      tag_311\n      jump\t// in\n    tag_385:\n        /* \"#utility.yul\":8102:8312   */\n      swap3\n      swap2\n      pop\n      pop\n      jump\t// out\n        /* \"#utility.yul\":8318:8631   */\n    tag_24:\n        /* \"#utility.yul\":8431:8435   */\n      0x00\n        /* \"#utility.yul\":8469:8471   */\n      0x20\n        /* \"#utility.yul\":8458:8467   */\n      dup3\n        /* \"#utility.yul\":8454:8472   */\n      add\n        /* \"#utility.yul\":8446:8472   */\n      swap1\n      pop\n        /* \"#utility.yul\":8518:8527   */\n      dup2\n        /* \"#utility.yul\":8512:8516   */\n      dup2\n        /* \"#utility.yul\":8508:8528   */\n      sub\n        /* \"#utility.yul\":8504:8505   */\n      0x00\n        /* \"#utility.yul\":8493:8502   */\n      dup4\n        /* \"#utility.yul\":8489:8506   */\n      add\n        /* \"#utility.yul\":8482:8529   */\n      mstore\n        /* \"#utility.yul\":8546:8624   */\n      tag_387\n        /* \"#utility.yul\":8619:8623   */\n      dup2\n        /* \"#utility.yul\":8610:8616   */\n      dup5\n        /* \"#utility.yul\":8546:8624   */\n      tag_315\n      jump\t// in\n    tag_387:\n        /* \"#utility.yul\":8538:8624   */\n      swap1\n      pop\n        /* \"#utility.yul\":8318:8631   */\n      swap3\n      swap2\n      pop\n      pop\n      jump\t// out\n        /* \"#utility.yul\":8637:9056   */\n    tag_231:\n        /* \"#utility.yul\":8803:8807   */\n      0x00\n        /* \"#utility.yul\":8841:8843   */\n      0x20\n        /* \"#utility.yul\":8830:8839   */\n      dup3\n        /* \"#utility.yul\":8826:8844   */\n      add\n        /* \"#utility.yul\":8818:8844   */\n      swap1\n      pop\n        /* \"#utility.yul\":8890:8899   */\n      dup2\n        /* \"#utility.yul\":8884:8888   */\n      dup2\n        /* \"#utility.yul\":8880:8900   */\n      sub\n        /* \"#utility.yul\":8876:8877   */\n      0x00\n        /* \"#utility.yul\":8865:8874   */\n      dup4\n        /* \"#utility.yul\":8861:8878   */\n      add\n        /* \"#utility.yul\":8854:8901   */\n      mstore\n        /* \"#utility.yul\":8918:9049   */\n      tag_389\n        /* \"#utility.yul\":9044:9048   */\n      dup2\n        /* \"#utility.yul\":8918:9049   */\n      tag_325\n      jump\t// in\n    tag_389:\n        /* \"#utility.yul\":8910:9049   */\n      swap1\n      pop\n        /* \"#utility.yul\":8637:9056   */\n      swap2\n      swap1\n      pop\n      jump\t// out\n        /* \"#utility.yul\":9062:9481   */\n    tag_216:\n        /* \"#utility.yul\":9228:9232   */\n      0x00\n        /* \"#utility.yul\":9266:9268   */\n      0x20\n        /* \"#utility.yul\":9255:9264   */\n      dup3\n        /* \"#utility.yul\":9251:9269   */\n      add\n        /* \"#utility.yul\":9243:9269   */\n      swap1\n      pop\n        /* \"#utility.yul\":9315:9324   */\n      dup2\n        /* \"#utility.yul\":9309:9313   */\n      dup2\n        /* \"#utility.yul\":9305:9325   */\n      sub\n        /* \"#utility.yul\":9301:9302   */\n      0x00\n        /* \"#utility.yul\":9290:9299   */\n      dup4\n        /* \"#utility.yul\":9286:9303   */\n      add\n        /* \"#utility.yul\":9279:9326   */\n      mstore\n        /* \"#utility.yul\":9343:9474   */\n      tag_391\n        /* \"#utility.yul\":9469:9473   */\n      dup2\n        /* \"#utility.yul\":9343:9474   */\n      tag_330\n      jump\t// in\n    tag_391:\n        /* \"#utility.yul\":9335:9474   */\n      swap1\n      pop\n        /* \"#utility.yul\":9062:9481   */\n      swap2\n      swap1\n      pop\n      jump\t// out\n        /* \"#utility.yul\":9487:9906   */\n    tag_223:\n        /* \"#utility.yul\":9653:9657   */\n      0x00\n        /* \"#utility.yul\":9691:9693   */\n      0x20\n        /* \"#utility.yul\":9680:9689   */\n      dup3\n        /* \"#utility.yul\":9676:9694   */\n      add\n        /* \"#utility.yul\":9668:9694   */\n      swap1\n      pop\n        /* \"#utility.yul\":9740:9749   */\n      dup2\n        /* \"#utility.yul\":9734:9738   */\n      dup2\n        /* \"#utility.yul\":9730:9750   */\n      sub\n        /* \"#utility.yul\":9726:9727   */\n      0x00\n        /* \"#utility.yul\":9715:9724   */\n      dup4\n        /* \"#utility.yul\":9711:9728   */\n      add\n        /* \"#utility.yul\":9704:9751   */\n      mstore\n        /* \"#utility.yul\":9768:9899   */\n      tag_393\n        /* \"#utility.yul\":9894:9898   */\n      dup2\n        /* \"#utility.yul\":9768:9899   */\n      tag_335\n      jump\t// in\n    tag_393:\n        /* \"#utility.yul\":9760:9899   */\n      swap1\n      pop\n        /* \"#utility.yul\":9487:9906   */\n      swap2\n      swap1\n      pop\n      jump\t// out\n        /* \"#utility.yul\":9912:10331   */\n    tag_236:\n        /* \"#utility.yul\":10078:10082   */\n      0x00\n        /* \"#utility.yul\":10116:10118   */\n      0x20\n        /* \"#utility.yul\":10105:10114   */\n      dup3\n        /* \"#utility.yul\":10101:10119   */\n      add\n        /* \"#utility.yul\":10093:10119   */\n      swap1\n      pop\n        /* \"#utility.yul\":10165:10174   */\n      dup2\n        /* \"#utility.yul\":10159:10163   */\n      dup2\n        /* \"#utility.yul\":10155:10175   */\n      sub\n        /* \"#utility.yul\":10151:10152   */\n      0x00\n        /* \"#utility.yul\":10140:10149   */\n      dup4\n        /* \"#utility.yul\":10136:10153   */\n      add\n        /* \"#utility.yul\":10129:10176   */\n      mstore\n        /* \"#utility.yul\":10193:10324   */\n      tag_395\n        /* \"#utility.yul\":10319:10323   */\n      dup2\n        /* \"#utility.yul\":10193:10324   */\n      tag_340\n      jump\t// in\n    tag_395:\n        /* \"#utility.yul\":10185:10324   */\n      swap1\n      pop\n        /* \"#utility.yul\":9912:10331   */\n      swap2\n      swap1\n      pop\n      jump\t// out\n        /* \"#utility.yul\":10337:10756   */\n    tag_228:\n        /* \"#utility.yul\":10503:10507   */\n      0x00\n        /* \"#utility.yul\":10541:10543   */\n      0x20\n        /* \"#utility.yul\":10530:10539   */\n      dup3\n        /* \"#utility.yul\":10526:10544   */\n      add\n        /* \"#utility.yul\":10518:10544   */\n      swap1\n      pop\n        /* \"#utility.yul\":10590:10599   */\n      dup2\n        /* \"#utility.yul\":10584:10588   */\n      dup2\n        /* \"#utility.yul\":10580:10600   */\n      sub\n        /* \"#utility.yul\":10576:10577   */\n      0x00\n        /* \"#utility.yul\":10565:10574   */\n      dup4\n        /* \"#utility.yul\":10561:10578   */\n      add\n        /* \"#utility.yul\":10554:10601   */\n      mstore\n        /* \"#utility.yul\":10618:10749   */\n      tag_397\n        /* \"#utility.yul\":10744:10748   */\n      dup2\n        /* \"#utility.yul\":10618:10749   */\n      tag_345\n      jump\t// in\n    tag_397:\n        /* \"#utility.yul\":10610:10749   */\n      swap1\n      pop\n        /* \"#utility.yul\":10337:10756   */\n      swap2\n      swap1\n      pop\n      jump\t// out\n        /* \"#utility.yul\":10762:11181   */\n    tag_213:\n        /* \"#utility.yul\":10928:10932   */\n      0x00\n        /* \"#utility.yul\":10966:10968   */\n      0x20\n        /* \"#utility.yul\":10955:10964   */\n      dup3\n        /* \"#utility.yul\":10951:10969   */\n      add\n        /* \"#utility.yul\":10943:10969   */\n      swap1\n      pop\n        /* \"#utility.yul\":11015:11024   */\n      dup2\n        /* \"#utility.yul\":11009:11013   */\n      dup2\n        /* \"#utility.yul\":11005:11025   */\n      sub\n        /* \"#utility.yul\":11001:11002   */\n      0x00\n        /* \"#utility.yul\":10990:10999   */\n      dup4\n        /* \"#utility.yul\":10986:11003   */\n      add\n        /* \"#utility.yul\":10979:11026   */\n      mstore\n        /* \"#utility.yul\":11043:11174   */\n      tag_399\n        /* \"#utility.yul\":11169:11173   */\n      dup2\n        /* \"#utility.yul\":11043:11174   */\n      tag_350\n      jump\t// in\n    tag_399:\n        /* \"#utility.yul\":11035:11174   */\n      swap1\n      pop\n        /* \"#utility.yul\":10762:11181   */\n      swap2\n      swap1\n      pop\n      jump\t// out\n        /* \"#utility.yul\":11187:11606   */\n    tag_137:\n        /* \"#utility.yul\":11353:11357   */\n      0x00\n        /* \"#utility.yul\":11391:11393   */\n      0x20\n        /* \"#utility.yul\":11380:11389   */\n      dup3\n        /* \"#utility.yul\":11376:11394   */\n      add\n        /* \"#utility.yul\":11368:11394   */\n      swap1\n      pop\n        /* \"#utility.yul\":11440:11449   */\n      dup2\n        /* \"#utility.yul\":11434:11438   */\n      dup2\n        /* \"#utility.yul\":11430:11450   */\n      sub\n        /* \"#utility.yul\":11426:11427   */\n      0x00\n        /* \"#utility.yul\":11415:11424   */\n      dup4\n        /* \"#utility.yul\":11411:11428   */\n      add\n        /* \"#utility.yul\":11404:11451   */\n      mstore\n        /* \"#utility.yul\":11468:11599   */\n      tag_401\n        /* \"#utility.yul\":11594:11598   */\n      dup2\n        /* \"#utility.yul\":11468:11599   */\n      tag_355\n      jump\t// in\n    tag_401:\n        /* \"#utility.yul\":11460:11599   */\n      swap1\n      pop\n        /* \"#utility.yul\":11187:11606   */\n      swap2\n      swap1\n      pop\n      jump\t// out\n        /* \"#utility.yul\":11612:12031   */\n    tag_244:\n        /* \"#utility.yul\":11778:11782   */\n      0x00\n        /* \"#utility.yul\":11816:11818   */\n      0x20\n        /* \"#utility.yul\":11805:11814   */\n      dup3\n        /* \"#utility.yul\":11801:11819   */\n      add\n        /* \"#utility.yul\":11793:11819   */\n      swap1\n      pop\n        /* \"#utility.yul\":11865:11874   */\n      dup2\n        /* \"#utility.yul\":11859:11863   */\n      dup2\n        /* \"#utility.yul\":11855:11875   */\n      sub\n        /* \"#utility.yul\":11851:11852   */\n      0x00\n        /* \"#utility.yul\":11840:11849   */\n      dup4\n        /* \"#utility.yul\":11836:11853   */\n      add\n        /* \"#utility.yul\":11829:11876   */\n      mstore\n        /* \"#utility.yul\":11893:12024   */\n      tag_403\n        /* \"#utility.yul\":12019:12023   */\n      dup2\n        /* \"#utility.yul\":11893:12024   */\n      tag_360\n      jump\t// in\n    tag_403:\n        /* \"#utility.yul\":11885:12024   */\n      swap1\n      pop\n        /* \"#utility.yul\":11612:12031   */\n      swap2\n      swap1\n      pop\n      jump\t// out\n        /* \"#utility.yul\":12037:12259   */\n    tag_34:\n        /* \"#utility.yul\":12130:12134   */\n      0x00\n        /* \"#utility.yul\":12168:12170   */\n      0x20\n        /* \"#utility.yul\":12157:12166   */\n      dup3\n        /* \"#utility.yul\":12153:12171   */\n      add\n        /* \"#utility.yul\":12145:12171   */\n      swap1\n      pop\n        /* \"#utility.yul\":12181:12252   */\n      tag_405\n        /* \"#utility.yul\":12249:12250   */\n      0x00\n        /* \"#utility.yul\":12238:12247   */\n      dup4\n        /* \"#utility.yul\":12234:12251   */\n      add\n        /* \"#utility.yul\":12225:12231   */\n      dup5\n        /* \"#utility.yul\":12181:12252   */\n      tag_365\n      jump\t// in\n    tag_405:\n        /* \"#utility.yul\":12037:12259   */\n      swap3\n      swap2\n      pop\n      pop\n      jump\t// out\n        /* \"#utility.yul\":12265:12479   */\n    tag_43:\n        /* \"#utility.yul\":12354:12358   */\n      0x00\n        /* \"#utility.yul\":12392:12394   */\n      0x20\n        /* \"#utility.yul\":12381:12390   */\n      dup3\n        /* \"#utility.yul\":12377:12395   */\n      add\n        /* \"#utility.yul\":12369:12395   */\n      swap1\n      pop\n        /* \"#utility.yul\":12405:12472   */\n      tag_407\n        /* \"#utility.yul\":12469:12470   */\n      0x00\n        /* \"#utility.yul\":12458:12467   */\n      dup4\n        /* \"#utility.yul\":12454:12471   */\n      add\n        /* \"#utility.yul\":12445:12451   */\n      dup5\n        /* \"#utility.yul\":12405:12472   */\n      tag_374\n      jump\t// in\n    tag_407:\n        /* \"#utility.yul\":12265:12479   */\n      swap3\n      swap2\n      pop\n      pop\n      jump\t// out\n        /* \"#utility.yul\":12566:12665   */\n    tag_318:\n        /* \"#utility.yul\":12618:12624   */\n      0x00\n        /* \"#utility.yul\":12652:12657   */\n      dup2\n        /* \"#utility.yul\":12646:12658   */\n      mload\n        /* \"#utility.yul\":12636:12658   */\n      swap1\n      pop\n        /* \"#utility.yul\":12566:12665   */\n      swap2\n      swap1\n      pop\n      jump\t// out\n        /* \"#utility.yul\":12671:12840   */\n    tag_320:\n        /* \"#utility.yul\":12755:12766   */\n      0x00\n        /* \"#utility.yul\":12789:12795   */\n      dup3\n        /* \"#utility.yul\":12784:12787   */\n      dup3\n        /* \"#utility.yul\":12777:12796   */\n      mstore\n        /* \"#utility.yul\":12829:12833   */\n      0x20\n        /* \"#utility.yul\":12824:12827   */\n      dup3\n        /* \"#utility.yul\":12820:12834   */\n      add\n        /* \"#utility.yul\":12805:12834   */\n      swap1\n      pop\n        /* \"#utility.yul\":12671:12840   */\n      swap3\n      swap2\n      pop\n      pop\n      jump\t// out\n        /* \"#utility.yul\":12846:13151   */\n    tag_110:\n        /* \"#utility.yul\":12886:12889   */\n      0x00\n        /* \"#utility.yul\":12905:12925   */\n      tag_413\n        /* \"#utility.yul\":12923:12924   */\n      dup3\n        /* \"#utility.yul\":12905:12925   */\n      tag_368\n      jump\t// in\n    tag_413:\n        /* \"#utility.yul\":12900:12925   */\n      swap2\n      pop\n        /* \"#utility.yul\":12939:12959   */\n      tag_414\n        /* \"#utility.yul\":12957:12958   */\n      dup4\n        /* \"#utility.yul\":12939:12959   */\n      tag_368\n      jump\t// in\n    tag_414:\n        /* \"#utility.yul\":12934:12959   */\n      swap3\n      pop\n        /* \"#utility.yul\":13093:13094   */\n      dup3\n        /* \"#utility.yul\":13025:13091   */\n      0xffffffffffffffffffffffffffffffffffffffffffffffffffffffffffffffff\n        /* \"#utility.yul\":13021:13095   */\n      sub\n        /* \"#utility.yul\":13018:13019   */\n      dup3\n        /* \"#utility.yul\":13015:13096   */\n      gt\n        /* \"#utility.yul\":13012:13119   */\n      iszero\n      tag_415\n      jumpi\n        /* \"#utility.yul\":13099:13117   */\n      tag_416\n      tag_417\n      jump\t// in\n    tag_416:\n        /* \"#utility.yul\":13012:13119   */\n    tag_415:\n        /* \"#utility.yul\":13143:13144   */\n      dup3\n        /* \"#utility.yul\":13140:13141   */\n      dup3\n        /* \"#utility.yul\":13136:13145   */\n      add\n        /* \"#utility.yul\":13129:13145   */\n      swap1\n      pop\n        /* \"#utility.yul\":12846:13151   */\n      swap3\n      swap2\n      pop\n      pop\n      jump\t// out\n        /* \"#utility.yul\":13157:14005   */\n    tag_418:\n        /* \"#utility.yul\":13218:13223   */\n      0x00\n        /* \"#utility.yul\":13225:13229   */\n      dup1\n        /* \"#utility.yul\":13249:13255   */\n      dup3\n        /* \"#utility.yul\":13240:13255   */\n      swap2\n      pop\n        /* \"#utility.yul\":13273:13278   */\n      dup4\n        /* \"#utility.yul\":13264:13278   */\n      swap1\n      pop\n        /* \"#utility.yul\":13287:13999   */\n    tag_420:\n        /* \"#utility.yul\":13308:13309   */\n      0x01\n        /* \"#utility.yul\":13298:13306   */\n      dup6\n        /* \"#utility.yul\":13295:13310   */\n      gt\n        /* \"#utility.yul\":13287:13999   */\n      iszero\n      tag_422\n      jumpi\n        /* \"#utility.yul\":13403:13407   */\n      dup1\n        /* \"#utility.yul\":13398:13401   */\n      dup7\n        /* \"#utility.yul\":13394:13408   */\n      div\n        /* \"#utility.yul\":13388:13392   */\n      dup2\n        /* \"#utility.yul\":13385:13409   */\n      gt\n        /* \"#utility.yul\":13382:13432   */\n      iszero\n      tag_423\n      jumpi\n        /* \"#utility.yul\":13412:13430   */\n      tag_424\n      tag_417\n      jump\t// in\n    tag_424:\n        /* \"#utility.yul\":13382:13432   */\n    tag_423:\n        /* \"#utility.yul\":13462:13463   */\n      0x01\n        /* \"#utility.yul\":13452:13460   */\n      dup6\n        /* \"#utility.yul\":13448:13464   */\n      and\n        /* \"#utility.yul\":13445:13896   */\n      iszero\n      tag_425\n      jumpi\n        /* \"#utility.yul\":13877:13881   */\n      dup1\n        /* \"#utility.yul\":13870:13875   */\n      dup3\n        /* \"#utility.yul\":13866:13882   */\n      mul\n        /* \"#utility.yul\":13857:13882   */\n      swap2\n      pop\n        /* \"#utility.yul\":13445:13896   */\n    tag_425:\n        /* \"#utility.yul\":13927:13931   */\n      dup1\n        /* \"#utility.yul\":13921:13925   */\n      dup2\n        /* \"#utility.yul\":13917:13932   */\n      mul\n        /* \"#utility.yul\":13909:13932   */\n      swap1\n      pop\n        /* \"#utility.yul\":13957:13989   */\n      tag_426\n        /* \"#utility.yul\":13980:13988   */\n      dup6\n        /* \"#utility.yul\":13957:13989   */\n      tag_427\n      jump\t// in\n    tag_426:\n        /* \"#utility.yul\":13945:13989   */\n      swap5\n      pop\n        /* \"#utility.yul\":13287:13999   */\n      jump(tag_420)\n    tag_422:\n        /* \"#utility.yul\":13157:14005   */\n      swap5\n      pop\n      swap5\n      swap3\n      pop\n      pop\n      pop\n      jump\t// out\n        /* \"#utility.yul\":14011:14292   */\n    tag_128:\n        /* \"#utility.yul\":14069:14074   */\n      0x00\n        /* \"#utility.yul\":14093:14116   */\n      tag_429\n        /* \"#utility.yul\":14111:14115   */\n      dup3\n        /* \"#utility.yul\":14093:14116   */\n      tag_368\n      jump\t// in\n    tag_429:\n        /* \"#utility.yul\":14085:14116   */\n      swap2\n      pop\n        /* \"#utility.yul\":14137:14162   */\n      tag_430\n        /* \"#utility.yul\":14153:14161   */\n      dup4\n        /* \"#utility.yul\":14137:14162   */\n      tag_377\n      jump\t// in\n    tag_430:\n        /* \"#utility.yul\":14125:14162   */\n      swap3\n      pop\n        /* \"#utility.yul\":14181:14285   */\n      tag_431\n        /* \"#utility.yul\":14218:14284   */\n      0xffffffffffffffffffffffffffffffffffffffffffffffffffffffffffffffff\n        /* \"#utility.yul\":14208:14216   */\n      dup5\n        /* \"#utility.yul\":14202:14206   */\n      dup5\n        /* \"#utility.yul\":14181:14285   */\n      tag_432\n      jump\t// in\n    tag_431:\n        /* \"#utility.yul\":14172:14285   */\n      swap1\n      pop\n        /* \"#utility.yul\":14011:14292   */\n      swap3\n      swap2\n      pop\n      pop\n      jump\t// out\n        /* \"#utility.yul\":14298:15371   */\n    tag_432:\n        /* \"#utility.yul\":14352:14357   */\n      0x00\n        /* \"#utility.yul\":14543:14551   */\n      dup3\n        /* \"#utility.yul\":14533:14573   */\n      tag_434\n      jumpi\n        /* \"#utility.yul\":14564:14565   */\n      0x01\n        /* \"#utility.yul\":14555:14565   */\n      swap1\n      pop\n        /* \"#utility.yul\":14566:14571   */\n      jump(tag_433)\n        /* \"#utility.yul\":14533:14573   */\n    tag_434:\n        /* \"#utility.yul\":14592:14596   */\n      dup2\n        /* \"#utility.yul\":14582:14618   */\n      tag_435\n      jumpi\n        /* \"#utility.yul\":14609:14610   */\n      0x00\n        /* \"#utility.yul\":14600:14610   */\n      swap1\n      pop\n        /* \"#utility.yul\":14611:14616   */\n      jump(tag_433)\n        /* \"#utility.yul\":14582:14618   */\n    tag_435:\n        /* \"#utility.yul\":14678:14682   */\n      dup2\n        /* \"#utility.yul\":14726:14727   */\n      0x01\n        /* \"#utility.yul\":14721:14748   */\n      dup2\n      eq\n      tag_437\n      jumpi\n        /* \"#utility.yul\":14762:14763   */\n      0x02\n        /* \"#utility.yul\":14757:14948   */\n      dup2\n      eq\n      tag_438\n      jumpi\n        /* \"#utility.yul\":14671:14948   */\n      jump(tag_436)\n        /* \"#utility.yul\":14721:14748   */\n    tag_437:\n        /* \"#utility.yul\":14739:14740   */\n      0x01\n        /* \"#utility.yul\":14730:14740   */\n      swap2\n      pop\n        /* \"#utility.yul\":14741:14746   */\n      pop\n      jump(tag_433)\n        /* \"#utility.yul\":14757:14948   */\n    tag_438:\n        /* \"#utility.yul\":14802:14805   */\n      0xff\n        /* \"#utility.yul\":14792:14800   */\n      dup5\n        /* \"#utility.yul\":14789:14806   */\n      gt\n        /* \"#utility.yul\":14786:14829   */\n      iszero\n      tag_439\n      jumpi\n        /* \"#utility.yul\":14809:14827   */\n      tag_440\n      tag_417\n      jump\t// in\n    tag_440:\n        /* \"#utility.yul\":14786:14829   */\n    tag_439:\n        /* \"#utility.yul\":14858:14866   */\n      dup4\n        /* \"#utility.yul\":14855:14856   */\n      0x02\n        /* \"#utility.yul\":14851:14867   */\n      exp\n        /* \"#utility.yul\":14842:14867   */\n      swap2\n      pop\n        /* \"#utility.yul\":14893:14896   */\n      dup5\n        /* \"#utility.yul\":14886:14891   */\n      dup3\n        /* \"#utility.yul\":14883:14897   */\n      gt\n        /* \"#utility.yul\":14880:14920   */\n      iszero\n      tag_441\n      jumpi\n        /* \"#utility.yul\":14900:14918   */\n      tag_442\n      tag_417\n      jump\t// in\n    tag_442:\n        /* \"#utility.yul\":14880:14920   */\n    tag_441:\n        /* \"#utility.yul\":14933:14938   */\n      pop\n      jump(tag_433)\n        /* \"#utility.yul\":14671:14948   */\n    tag_436:\n      pop\n        /* \"#utility.yul\":15057:15059   */\n      0x20\n        /* \"#utility.yul\":15047:15055   */\n      dup4\n        /* \"#utility.yul\":15044:15060   */\n      lt\n        /* \"#utility.yul\":15038:15041   */\n      0x0133\n        /* \"#utility.yul\":15032:15036   */\n      dup4\n        /* \"#utility.yul\":15029:15042   */\n      lt\n        /* \"#utility.yul\":15025:15061   */\n      and\n        /* \"#utility.yul\":15007:15009   */\n      0x4e\n        /* \"#utility.yul\":14997:15005   */\n      dup5\n        /* \"#utility.yul\":14994:15010   */\n      lt\n        /* \"#utility.yul\":14989:14991   */\n      0x0b\n        /* \"#utility.yul\":14983:14987   */\n      dup5\n        /* \"#utility.yul\":14980:14992   */\n      lt\n        /* \"#utility.yul\":14976:15011   */\n      and\n        /* \"#utility.yul\":14960:15071   */\n      or\n        /* \"#utility.yul\":14957:15203   */\n      iszero\n      tag_443\n      jumpi\n        /* \"#utility.yul\":15113:15121   */\n      dup3\n        /* \"#utility.yul\":15107:15111   */\n      dup3\n        /* \"#utility.yul\":15103:15122   */\n      exp\n        /* \"#utility.yul\":15094:15122   */\n      swap1\n      pop\n        /* \"#utility.yul\":15148:15151   */\n      dup4\n        /* \"#utility.yul\":15141:15146   */\n      dup2\n        /* \"#utility.yul\":15138:15152   */\n      gt\n        /* \"#utility.yul\":15135:15175   */\n      iszero\n      tag_444\n      jumpi\n        /* \"#utility.yul\":15155:15173   */\n      tag_445\n      tag_417\n      jump\t// in\n    tag_445:\n        /* \"#utility.yul\":15135:15175   */\n    tag_444:\n        /* \"#utility.yul\":15188:15193   */\n      jump(tag_433)\n        /* \"#utility.yul\":14957:15203   */\n    tag_443:\n        /* \"#utility.yul\":15228:15270   */\n      tag_446\n        /* \"#utility.yul\":15266:15269   */\n      dup5\n        /* \"#utility.yul\":15256:15264   */\n      dup5\n        /* \"#utility.yul\":15250:15254   */\n      dup5\n        /* \"#utility.yul\":15247:15248   */\n      0x01\n        /* \"#utility.yul\":15228:15270   */\n      tag_418\n      jump\t// in\n    tag_446:\n        /* \"#utility.yul\":15213:15270   */\n      swap3\n      pop\n      swap1\n      pop\n        /* \"#utility.yul\":15302:15306   */\n      dup2\n        /* \"#utility.yul\":15297:15300   */\n      dup5\n        /* \"#utility.yul\":15293:15307   */\n      div\n        /* \"#utility.yul\":15286:15291   */\n      dup2\n        /* \"#utility.yul\":15283:15308   */\n      gt\n        /* \"#utility.yul\":15280:15331   */\n      iszero\n      tag_447\n      jumpi\n        /* \"#utility.yul\":15311:15329   */\n      tag_448\n      tag_417\n      jump\t// in\n    tag_448:\n        /* \"#utility.yul\":15280:15331   */\n    tag_447:\n        /* \"#utility.yul\":15360:15364   */\n      dup2\n        /* \"#utility.yul\":15353:15358   */\n      dup2\n        /* \"#utility.yul\":15349:15365   */\n      mul\n        /* \"#utility.yul\":15340:15365   */\n      swap1\n      pop\n        /* \"#utility.yul\":14298:15371   */\n    tag_433:\n      swap4\n      swap3\n      pop\n      pop\n      pop\n      jump\t// out\n        /* \"#utility.yul\":15377:15725   */\n    tag_130:\n        /* \"#utility.yul\":15417:15424   */\n      0x00\n        /* \"#utility.yul\":15440:15460   */\n      tag_450\n        /* \"#utility.yul\":15458:15459   */\n      dup3\n        /* \"#utility.yul\":15440:15460   */\n      tag_368\n      jump\t// in\n    tag_450:\n        /* \"#utility.yul\":15435:15460   */\n      swap2\n      pop\n        /* \"#utility.yul\":15474:15494   */\n      tag_451\n        /* \"#utility.yul\":15492:15493   */\n      dup4\n        /* \"#utility.yul\":15474:15494   */\n      tag_368\n      jump\t// in\n    tag_451:\n        /* \"#utility.yul\":15469:15494   */\n      swap3\n      pop\n        /* \"#utility.yul\":15662:15663   */\n      dup2\n        /* \"#utility.yul\":15594:15660   */\n      0xffffffffffffffffffffffffffffffffffffffffffffffffffffffffffffffff\n        /* \"#utility.yul\":15590:15664   */\n      div\n        /* \"#utility.yul\":15587:15588   */\n      dup4\n        /* \"#utility.yul\":15584:15665   */\n      gt\n        /* \"#utility.yul\":15579:15580   */\n      dup3\n        /* \"#utility.yul\":15572:15581   */\n      iszero\n        /* \"#utility.yul\":15565:15582   */\n      iszero\n        /* \"#utility.yul\":15561:15666   */\n      and\n        /* \"#utility.yul\":15558:15689   */\n      iszero\n      tag_452\n      jumpi\n        /* \"#utility.yul\":15669:15687   */\n      tag_453\n      tag_417\n      jump\t// in\n    tag_453:\n        /* \"#utility.yul\":15558:15689   */\n    tag_452:\n        /* \"#utility.yul\":15717:15718   */\n      dup3\n        /* \"#utility.yul\":15714:15715   */\n      dup3\n        /* \"#utility.yul\":15710:15719   */\n      mul\n        /* \"#utility.yul\":15699:15719   */\n      swap1\n      pop\n        /* \"#utility.yul\":15377:15725   */\n      swap3\n      swap2\n      pop\n      pop\n      jump\t// out\n        /* \"#utility.yul\":15731:15827   */\n    tag_305:\n        /* \"#utility.yul\":15768:15775   */\n      0x00\n        /* \"#utility.yul\":15797:15821   */\n      tag_455\n        /* \"#utility.yul\":15815:15820   */\n      dup3\n        /* \"#utility.yul\":15797:15821   */\n      tag_456\n      jump\t// in\n    tag_455:\n        /* \"#utility.yul\":15786:15821   */\n      swap1\n      pop\n        /* \"#utility.yul\":15731:15827   */\n      swap2\n      swap1\n      pop\n      jump\t// out\n        /* \"#utility.yul\":15833:15923   */\n    tag_314:\n        /* \"#utility.yul\":15867:15874   */\n      0x00\n        /* \"#utility.yul\":15910:15915   */\n      dup2\n        /* \"#utility.yul\":15903:15916   */\n      iszero\n        /* \"#utility.yul\":15896:15917   */\n      iszero\n        /* \"#utility.yul\":15885:15917   */\n      swap1\n      pop\n        /* \"#utility.yul\":15833:15923   */\n      swap2\n      swap1\n      pop\n      jump\t// out\n        /* \"#utility.yul\":15929:16055   */\n    tag_456:\n        /* \"#utility.yul\":15966:15973   */\n      0x00\n        /* \"#utility.yul\":16006:16048   */\n      0xffffffffffffffffffffffffffffffffffffffff\n        /* \"#utility.yul\":15999:16004   */\n      dup3\n        /* \"#utility.yul\":15995:16049   */\n      and\n        /* \"#utility.yul\":15984:16049   */\n      swap1\n      pop\n        /* \"#utility.yul\":15929:16055   */\n      swap2\n      swap1\n      pop\n      jump\t// out\n        /* \"#utility.yul\":16061:16138   */\n    tag_368:\n        /* \"#utility.yul\":16098:16105   */\n      0x00\n        /* \"#utility.yul\":16127:16132   */\n      dup2\n        /* \"#utility.yul\":16116:16132   */\n      swap1\n      pop\n        /* \"#utility.yul\":16061:16138   */\n      swap2\n      swap1\n      pop\n      jump\t// out\n        /* \"#utility.yul\":16144:16230   */\n    tag_377:\n        /* \"#utility.yul\":16179:16186   */\n      0x00\n        /* \"#utility.yul\":16219:16223   */\n      0xff\n        /* \"#utility.yul\":16212:16217   */\n      dup3\n        /* \"#utility.yul\":16208:16224   */\n      and\n        /* \"#utility.yul\":16197:16224   */\n      swap1\n      pop\n        /* \"#utility.yul\":16144:16230   */\n      swap2\n      swap1\n      pop\n      jump\t// out\n        /* \"#utility.yul\":16236:16543   */\n    tag_322:\n        /* \"#utility.yul\":16304:16305   */\n      0x00\n        /* \"#utility.yul\":16314:16427   */\n    tag_462:\n        /* \"#utility.yul\":16328:16334   */\n      dup4\n        /* \"#utility.yul\":16325:16326   */\n      dup2\n        /* \"#utility.yul\":16322:16335   */\n      lt\n        /* \"#utility.yul\":16314:16427   */\n      iszero\n      tag_464\n      jumpi\n        /* \"#utility.yul\":16413:16414   */\n      dup1\n        /* \"#utility.yul\":16408:16411   */\n      dup3\n        /* \"#utility.yul\":16404:16415   */\n      add\n        /* \"#utility.yul\":16398:16416   */\n      mload\n        /* \"#utility.yul\":16394:16395   */\n      dup2\n        /* \"#utility.yul\":16389:16392   */\n      dup5\n        /* \"#utility.yul\":16385:16396   */\n      add\n        /* \"#utility.yul\":16378:16417   */\n      mstore\n        /* \"#utility.yul\":16350:16352   */\n      0x20\n        /* \"#utility.yul\":16347:16348   */\n      dup2\n        /* \"#utility.yul\":16343:16353   */\n      add\n        /* \"#utility.yul\":16338:16353   */\n      swap1\n      pop\n        /* \"#utility.yul\":16314:16427   */\n      jump(tag_462)\n    tag_464:\n        /* \"#utility.yul\":16445:16451   */\n      dup4\n        /* \"#utility.yul\":16442:16443   */\n      dup2\n        /* \"#utility.yul\":16439:16452   */\n      gt\n        /* \"#utility.yul\":16436:16537   */\n      iszero\n      tag_465\n      jumpi\n        /* \"#utility.yul\":16525:16526   */\n      0x00\n        /* \"#utility.yul\":16516:16522   */\n      dup5\n        /* \"#utility.yul\":16511:16514   */\n      dup5\n        /* \"#utility.yul\":16507:16523   */\n      add\n        /* \"#utility.yul\":16500:16527   */\n      mstore\n        /* \"#utility.yul\":16436:16537   */\n    tag_465:\n        /* \"#utility.yul\":16285:16543   */\n      pop\n        /* \"#utility.yul\":16236:16543   */\n      pop\n      pop\n      pop\n      jump\t// out\n        /* \"#utility.yul\":16549:16869   */\n    tag_87:\n        /* \"#utility.yul\":16593:16599   */\n      0x00\n        /* \"#utility.yul\":16630:16631   */\n      0x02\n        /* \"#utility.yul\":16624:16628   */\n      dup3\n        /* \"#utility.yul\":16620:16632   */\n      div\n        /* \"#utility.yul\":16610:16632   */\n      swap1\n      pop\n        /* \"#utility.yul\":16677:16678   */\n      0x01\n        /* \"#utility.yul\":16671:16675   */\n      dup3\n        /* \"#utility.yul\":16667:16679   */\n      and\n        /* \"#utility.yul\":16698:16716   */\n      dup1\n        /* \"#utility.yul\":16688:16769   */\n      tag_467\n      jumpi\n        /* \"#utility.yul\":16754:16758   */\n      0x7f\n        /* \"#utility.yul\":16746:16752   */\n      dup3\n        /* \"#utility.yul\":16742:16759   */\n      and\n        /* \"#utility.yul\":16732:16759   */\n      swap2\n      pop\n        /* \"#utility.yul\":16688:16769   */\n    tag_467:\n        /* \"#utility.yul\":16816:16818   */\n      0x20\n        /* \"#utility.yul\":16808:16814   */\n      dup3\n        /* \"#utility.yul\":16805:16819   */\n      lt\n        /* \"#utility.yul\":16785:16803   */\n      dup2\n        /* \"#utility.yul\":16782:16820   */\n      eq\n        /* \"#utility.yul\":16779:16863   */\n      iszero\n      tag_468\n      jumpi\n        /* \"#utility.yul\":16835:16853   */\n      tag_469\n      tag_470\n      jump\t// in\n    tag_469:\n        /* \"#utility.yul\":16779:16863   */\n    tag_468:\n        /* \"#utility.yul\":16600:16869   */\n      pop\n        /* \"#utility.yul\":16549:16869   */\n      swap2\n      swap1\n      pop\n      jump\t// out\n        /* \"#utility.yul\":16875:17108   */\n    tag_152:\n        /* \"#utility.yul\":16914:16917   */\n      0x00\n        /* \"#utility.yul\":16937:16961   */\n      tag_472\n        /* \"#utility.yul\":16955:16960   */\n      dup3\n        /* \"#utility.yul\":16937:16961   */\n      tag_368\n      jump\t// in\n    tag_472:\n        /* \"#utility.yul\":16928:16961   */\n      swap2\n      pop\n        /* \"#utility.yul\":16983:17049   */\n      0xffffffffffffffffffffffffffffffffffffffffffffffffffffffffffffffff\n        /* \"#utility.yul\":16976:16981   */\n      dup3\n        /* \"#utility.yul\":16973:17050   */\n      eq\n        /* \"#utility.yul\":16970:17073   */\n      iszero\n      tag_473\n      jumpi\n        /* \"#utility.yul\":17053:17071   */\n      tag_474\n      tag_417\n      jump\t// in\n    tag_474:\n        /* \"#utility.yul\":16970:17073   */\n    tag_473:\n        /* \"#utility.yul\":17100:17101   */\n      0x01\n        /* \"#utility.yul\":17093:17098   */\n      dup3\n        /* \"#utility.yul\":17089:17102   */\n      add\n        /* \"#utility.yul\":17082:17102   */\n      swap1\n      pop\n        /* \"#utility.yul\":16875:17108   */\n      swap2\n      swap1\n      pop\n      jump\t// out\n        /* \"#utility.yul\":17114:17214   */\n    tag_310:\n        /* \"#utility.yul\":17153:17160   */\n      0x00\n        /* \"#utility.yul\":17182:17208   */\n      tag_476\n        /* \"#utility.yul\":17202:17207   */\n      dup3\n        /* \"#utility.yul\":17182:17208   */\n      tag_477\n      jump\t// in\n    tag_476:\n        /* \"#utility.yul\":17171:17208   */\n      swap1\n      pop\n        /* \"#utility.yul\":17114:17214   */\n      swap2\n      swap1\n      pop\n      jump\t// out\n        /* \"#utility.yul\":17220:17314   */\n    tag_477:\n        /* \"#utility.yul\":17259:17266   */\n      0x00\n        /* \"#utility.yul\":17288:17308   */\n      tag_479\n        /* \"#utility.yul\":17302:17307   */\n      dup3\n        /* \"#utility.yul\":17288:17308   */\n      tag_480\n      jump\t// in\n    tag_479:\n        /* \"#utility.yul\":17277:17308   */\n      swap1\n      pop\n        /* \"#utility.yul\":17220:17314   */\n      swap2\n      swap1\n      pop\n      jump\t// out\n        /* \"#utility.yul\":17320:17399   */\n    tag_373:\n        /* \"#utility.yul\":17359:17366   */\n      0x00\n        /* \"#utility.yul\":17388:17393   */\n      dup2\n        /* \"#utility.yul\":17377:17393   */\n      swap1\n      pop\n        /* \"#utility.yul\":17320:17399   */\n      swap2\n      swap1\n      pop\n      jump\t// out\n        /* \"#utility.yul\":17405:17581   */\n    tag_143:\n        /* \"#utility.yul\":17437:17438   */\n      0x00\n        /* \"#utility.yul\":17454:17474   */\n      tag_483\n        /* \"#utility.yul\":17472:17473   */\n      dup3\n        /* \"#utility.yul\":17454:17474   */\n      tag_368\n      jump\t// in\n    tag_483:\n        /* \"#utility.yul\":17449:17474   */\n      swap2\n      pop\n        /* \"#utility.yul\":17488:17508   */\n      tag_484\n        /* \"#utility.yul\":17506:17507   */\n      dup4\n        /* \"#utility.yul\":17488:17508   */\n      tag_368\n      jump\t// in\n    tag_484:\n        /* \"#utility.yul\":17483:17508   */\n      swap3\n      pop\n        /* \"#utility.yul\":17527:17528   */\n      dup3\n        /* \"#utility.yul\":17517:17552   */\n      tag_485\n      jumpi\n        /* \"#utility.yul\":17532:17550   */\n      tag_486\n      tag_487\n      jump\t// in\n    tag_486:\n        /* \"#utility.yul\":17517:17552   */\n    tag_485:\n        /* \"#utility.yul\":17573:17574   */\n      dup3\n        /* \"#utility.yul\":17570:17571   */\n      dup3\n        /* \"#utility.yul\":17566:17575   */\n      mod\n        /* \"#utility.yul\":17561:17575   */\n      swap1\n      pop\n        /* \"#utility.yul\":17405:17581   */\n      swap3\n      swap2\n      pop\n      pop\n      jump\t// out\n        /* \"#utility.yul\":17587:17767   */\n    tag_417:\n        /* \"#utility.yul\":17635:17712   */\n      0x4e487b7100000000000000000000000000000000000000000000000000000000\n        /* \"#utility.yul\":17632:17633   */\n      0x00\n        /* \"#utility.yul\":17625:17713   */\n      mstore\n        /* \"#utility.yul\":17732:17736   */\n      0x11\n        /* \"#utility.yul\":17729:17730   */\n      0x04\n        /* \"#utility.yul\":17722:17737   */\n      mstore\n        /* \"#utility.yul\":17756:17760   */\n      0x24\n        /* \"#utility.yul\":17753:17754   */\n      0x00\n        /* \"#utility.yul\":17746:17761   */\n      revert\n        /* \"#utility.yul\":17773:17953   */\n    tag_487:\n        /* \"#utility.yul\":17821:17898   */\n      0x4e487b7100000000000000000000000000000000000000000000000000000000\n        /* \"#utility.yul\":17818:17819   */\n      0x00\n        /* \"#utility.yul\":17811:17899   */\n      mstore\n        /* \"#utility.yul\":17918:17922   */\n      0x12\n        /* \"#utility.yul\":17915:17916   */\n      0x04\n        /* \"#utility.yul\":17908:17923   */\n      mstore\n        /* \"#utility.yul\":17942:17946   */\n      0x24\n        /* \"#utility.yul\":17939:17940   */\n      0x00\n        /* \"#utility.yul\":17932:17947   */\n      revert\n        /* \"#utility.yul\":17959:18139   */\n    tag_470:\n        /* \"#utility.yul\":18007:18084   */\n      0x4e487b7100000000000000000000000000000000000000000000000000000000\n        /* \"#utility.yul\":18004:18005   */\n      0x00\n        /* \"#utility.yul\":17997:18085   */\n      mstore\n        /* \"#utility.yul\":18104:18108   */\n      0x22\n        /* \"#utility.yul\":18101:18102   */\n      0x04\n        /* \"#utility.yul\":18094:18109   */\n      mstore\n        /* \"#utility.yul\":18128:18132   */\n      0x24\n        /* \"#utility.yul\":18125:18126   */\n      0x00\n        /* \"#utility.yul\":18118:18133   */\n      revert\n        /* \"#utility.yul\":18268:18385   */\n    tag_274:\n        /* \"#utility.yul\":18377:18378   */\n      0x00\n        /* \"#utility.yul\":18374:18375   */\n      dup1\n        /* \"#utility.yul\":18367:18379   */\n      revert\n        /* \"#utility.yul\":18391:18493   */\n    tag_324:\n        /* \"#utility.yul\":18432:18438   */\n      0x00\n        /* \"#utility.yul\":18483:18485   */\n      0x1f\n        /* \"#utility.yul\":18479:18486   */\n      not\n        /* \"#utility.yul\":18474:18476   */\n      0x1f\n        /* \"#utility.yul\":18467:18472   */\n      dup4\n        /* \"#utility.yul\":18463:18477   */\n      add\n        /* \"#utility.yul\":18459:18487   */\n      and\n        /* \"#utility.yul\":18449:18487   */\n      swap1\n      pop\n        /* \"#utility.yul\":18391:18493   */\n      swap2\n      swap1\n      pop\n      jump\t// out\n        /* \"#utility.yul\":18499:18593   */\n    tag_480:\n        /* \"#utility.yul\":18532:18540   */\n      0x00\n        /* \"#utility.yul\":18580:18585   */\n      dup2\n        /* \"#utility.yul\":18576:18578   */\n      0x60\n        /* \"#utility.yul\":18572:18586   */\n      shl\n        /* \"#utility.yul\":18551:18586   */\n      swap1\n      pop\n        /* \"#utility.yul\":18499:18593   */\n      swap2\n      swap1\n      pop\n      jump\t// out\n        /* \"#utility.yul\":18599:18701   */\n    tag_427:\n        /* \"#utility.yul\":18641:18649   */\n      0x00\n        /* \"#utility.yul\":18688:18693   */\n      dup2\n        /* \"#utility.yul\":18685:18686   */\n      0x01\n        /* \"#utility.yul\":18681:18694   */\n      shr\n        /* \"#utility.yul\":18660:18694   */\n      swap1\n      pop\n        /* \"#utility.yul\":18599:18701   */\n      swap2\n      swap1\n      pop\n      jump\t// out\n        /* \"#utility.yul\":18707:18929   */\n    tag_329:\n        /* \"#utility.yul\":18847:18881   */\n      0x45524332303a207472616e7366657220746f20746865207a65726f2061646472\n        /* \"#utility.yul\":18843:18844   */\n      0x00\n        /* \"#utility.yul\":18835:18841   */\n      dup3\n        /* \"#utility.yul\":18831:18845   */\n      add\n        /* \"#utility.yul\":18824:18882   */\n      mstore\n        /* \"#utility.yul\":18916:18921   */\n      0x6573730000000000000000000000000000000000000000000000000000000000\n        /* \"#utility.yul\":18911:18913   */\n      0x20\n        /* \"#utility.yul\":18903:18909   */\n      dup3\n        /* \"#utility.yul\":18899:18914   */\n      add\n        /* \"#utility.yul\":18892:18922   */\n      mstore\n        /* \"#utility.yul\":18707:18929   */\n      pop\n      jump\t// out\n        /* \"#utility.yul\":18935:19156   */\n    tag_334:\n        /* \"#utility.yul\":19075:19109   */\n      0x45524332303a20617070726f766520746f20746865207a65726f206164647265\n        /* \"#utility.yul\":19071:19072   */\n      0x00\n        /* \"#utility.yul\":19063:19069   */\n      dup3\n        /* \"#utility.yul\":19059:19073   */\n      add\n        /* \"#utility.yul\":19052:19110   */\n      mstore\n        /* \"#utility.yul\":19144:19148   */\n      0x7373000000000000000000000000000000000000000000000000000000000000\n        /* \"#utility.yul\":19139:19141   */\n      0x20\n        /* \"#utility.yul\":19131:19137   */\n      dup3\n        /* \"#utility.yul\":19127:19142   */\n      add\n        /* \"#utility.yul\":19120:19149   */\n      mstore\n        /* \"#utility.yul\":18935:19156   */\n      pop\n      jump\t// out\n        /* \"#utility.yul\":19162:19341   */\n    tag_339:\n        /* \"#utility.yul\":19302:19333   */\n      0x45524332303a20696e73756666696369656e7420616c6c6f77616e6365000000\n        /* \"#utility.yul\":19298:19299   */\n      0x00\n        /* \"#utility.yul\":19290:19296   */\n      dup3\n        /* \"#utility.yul\":19286:19300   */\n      add\n        /* \"#utility.yul\":19279:19334   */\n      mstore\n        /* \"#utility.yul\":19162:19341   */\n      pop\n      jump\t// out\n        /* \"#utility.yul\":19347:19572   */\n    tag_344:\n        /* \"#utility.yul\":19487:19521   */\n      0x45524332303a207472616e7366657220616d6f756e7420657863656564732062\n        /* \"#utility.yul\":19483:19484   */\n      0x00\n        /* \"#utility.yul\":19475:19481   */\n      dup3\n        /* \"#utility.yul\":19471:19485   */\n      add\n        /* \"#utility.yul\":19464:19522   */\n      mstore\n        /* \"#utility.yul\":19556:19564   */\n      0x616c616e63650000000000000000000000000000000000000000000000000000\n        /* \"#utility.yul\":19551:19553   */\n      0x20\n        /* \"#utility.yul\":19543:19549   */\n      dup3\n        /* \"#utility.yul\":19539:19554   */\n      add\n        /* \"#utility.yul\":19532:19565   */\n      mstore\n        /* \"#utility.yul\":19347:19572   */\n      pop\n      jump\t// out\n        /* \"#utility.yul\":19578:19802   */\n    tag_349:\n        /* \"#utility.yul\":19718:19752   */\n      0x45524332303a207472616e736665722066726f6d20746865207a65726f206164\n        /* \"#utility.yul\":19714:19715   */\n      0x00\n        /* \"#utility.yul\":19706:19712   */\n      dup3\n        /* \"#utility.yul\":19702:19716   */\n      add\n        /* \"#utility.yul\":19695:19753   */\n      mstore\n        /* \"#utility.yul\":19787:19794   */\n      0x6472657373000000000000000000000000000000000000000000000000000000\n        /* \"#utility.yul\":19782:19784   */\n      0x20\n        /* \"#utility.yul\":19774:19780   */\n      dup3\n        /* \"#utility.yul\":19770:19785   */\n      add\n        /* \"#utility.yul\":19763:19795   */\n      mstore\n        /* \"#utility.yul\":19578:19802   */\n      pop\n      jump\t// out\n        /* \"#utility.yul\":19808:20031   */\n    tag_354:\n        /* \"#utility.yul\":19948:19982   */\n      0x45524332303a20617070726f76652066726f6d20746865207a65726f20616464\n        /* \"#utility.yul\":19944:19945   */\n      0x00\n        /* \"#utility.yul\":19936:19942   */\n      dup3\n        /* \"#utility.yul\":19932:19946   */\n      add\n        /* \"#utility.yul\":19925:19983   */\n      mstore\n        /* \"#utility.yul\":20017:20023   */\n      0x7265737300000000000000000000000000000000000000000000000000000000\n        /* \"#utility.yul\":20012:20014   */\n      0x20\n        /* \"#utility.yul\":20004:20010   */\n      dup3\n        /* \"#utility.yul\":20000:20015   */\n      add\n        /* \"#utility.yul\":19993:20024   */\n      mstore\n        /* \"#utility.yul\":19808:20031   */\n      pop\n      jump\t// out\n        /* \"#utility.yul\":20037:20261   */\n    tag_359:\n        /* \"#utility.yul\":20177:20211   */\n      0x45524332303a2064656372656173656420616c6c6f77616e63652062656c6f77\n        /* \"#utility.yul\":20173:20174   */\n      0x00\n        /* \"#utility.yul\":20165:20171   */\n      dup3\n        /* \"#utility.yul\":20161:20175   */\n      add\n        /* \"#utility.yul\":20154:20212   */\n      mstore\n        /* \"#utility.yul\":20246:20253   */\n      0x207a65726f000000000000000000000000000000000000000000000000000000\n        /* \"#utility.yul\":20241:20243   */\n      0x20\n        /* \"#utility.yul\":20233:20239   */\n      dup3\n        /* \"#utility.yul\":20229:20244   */\n      add\n        /* \"#utility.yul\":20222:20254   */\n      mstore\n        /* \"#utility.yul\":20037:20261   */\n      pop\n      jump\t// out\n        /* \"#utility.yul\":20267:20448   */\n    tag_364:\n        /* \"#utility.yul\":20407:20440   */\n      0x45524332303a206d696e7420746f20746865207a65726f206164647265737300\n        /* \"#utility.yul\":20403:20404   */\n      0x00\n        /* \"#utility.yul\":20395:20401   */\n      dup3\n        /* \"#utility.yul\":20391:20405   */\n      add\n        /* \"#utility.yul\":20384:20441   */\n      mstore\n        /* \"#utility.yul\":20267:20448   */\n      pop\n      jump\t// out\n        /* \"#utility.yul\":20454:20576   */\n    tag_266:\n        /* \"#utility.yul\":20527:20551   */\n      tag_506\n        /* \"#utility.yul\":20545:20550   */\n      dup2\n        /* \"#utility.yul\":20527:20551   */\n      tag_305\n      jump\t// in\n    tag_506:\n        /* \"#utility.yul\":20520:20525   */\n      dup2\n        /* \"#utility.yul\":20517:20552   */\n      eq\n        /* \"#utility.yul\":20507:20570   */\n      tag_507\n      jumpi\n        /* \"#utility.yul\":20566:20567   */\n      0x00\n        /* \"#utility.yul\":20563:20564   */\n      dup1\n        /* \"#utility.yul\":20556:20568   */\n      revert\n        /* \"#utility.yul\":20507:20570   */\n    tag_507:\n        /* \"#utility.yul\":20454:20576   */\n      pop\n      jump\t// out\n        /* \"#utility.yul\":20582:20704   */\n    tag_270:\n        /* \"#utility.yul\":20655:20679   */\n      tag_509\n        /* \"#utility.yul\":20673:20678   */\n      dup2\n        /* \"#utility.yul\":20655:20679   */\n      tag_368\n      jump\t// in\n    tag_509:\n        /* \"#utility.yul\":20648:20653   */\n      dup2\n        /* \"#utility.yul\":20645:20680   */\n      eq\n        /* \"#utility.yul\":20635:20698   */\n      tag_510\n      jumpi\n        /* \"#utility.yul\":20694:20695   */\n      0x00\n        /* \"#utility.yul\":20691:20692   */\n      dup1\n        /* \"#utility.yul\":20684:20696   */\n      revert\n        /* \"#utility.yul\":20635:20698   */\n    tag_510:\n        /* \"#utility.yul\":20582:20704   */\n      pop\n      jump\t// out\n\n    auxdata: 0xa26469706673582212200c394563a0c4e339ea74c3a5b60c5c9bfbcee05a68d7c72864c0f386caf9407464736f6c63430008070033\n}\n",
				"bytecode": {
					"linkReferences": {},
					"object": "608060405260006009553480156200001657600080fd5b506040518060400160405280600881526020017f47616d65436f696e0000000000000000000000000000000000000000000000008152506040518060400160405280600581526020017f416c69636500000000000000000000000000000000000000000000000000000081525081600390805190602001906200009b929190620000fe565b508060049080519060200190620000b4929190620000fe565b50505033600560006101000a81548173ffffffffffffffffffffffffffffffffffffffff021916908373ffffffffffffffffffffffffffffffffffffffff16021790555062000213565b8280546200010c90620001ae565b90600052602060002090601f0160209004810192826200013057600085556200017c565b82601f106200014b57805160ff19168380011785556200017c565b828001600101855582156200017c579182015b828111156200017b5782518255916020019190600101906200015e565b5b5090506200018b91906200018f565b5090565b5b80821115620001aa57600081600090555060010162000190565b5090565b60006002820490506001821680620001c757607f821691505b60208210811415620001de57620001dd620001e4565b5b50919050565b7f4e487b7100000000000000000000000000000000000000000000000000000000600052602260045260246000fd5b611f5480620002236000396000f3fe608060405234801561001057600080fd5b50600436106100f55760003560e01c806370a0823111610097578063a457c2d711610066578063a457c2d71461028a578063a9059cbb146102ba578063c64d3161146102ea578063dd62ed3e1461031a576100f5565b806370a08231146102025780638da5cb5b1461023257806395d89b4114610250578063a0712d681461026e576100f5565b806323b872dd116100d357806323b872dd14610166578063313ce5671461019657806339509351146101b45780634802d378146101e4576100f5565b806306fdde03146100fa578063095ea7b31461011857806318160ddd14610148575b600080fd5b61010261034a565b60405161010f9190611710565b60405180910390f35b610132600480360381019061012d9190611422565b6103dc565b60405161013f91906116f5565b60405180910390f35b6101506103ff565b60405161015d9190611832565b60405180910390f35b610180600480360381019061017b91906113cf565b610409565b60405161018d91906116f5565b60405180910390f35b61019e610438565b6040516101ab919061184d565b60405180910390f35b6101ce60048036038101906101c99190611422565b610441565b6040516101db91906116f5565b60405180910390f35b6101ec610478565b6040516101f99190611710565b60405180910390f35b61021c60048036038101906102179190611362565b61050a565b6040516102299190611832565b60405180910390f35b61023a610552565b60405161024791906116da565b60405180910390f35b610258610578565b6040516102659190611710565b60405180910390f35b61028860048036038101906102839190611462565b61060a565b005b6102a4600480360381019061029f9190611422565b610657565b6040516102b191906116f5565b60405180910390f35b6102d460048036038101906102cf9190611422565b6106ce565b6040516102e191906116f5565b60405180910390f35b61030460048036038101906102ff919061148f565b610707565b6040516103119190611710565b60405180910390f35b610334600480360381019061032f919061138f565b610bc4565b6040516103419190611832565b60405180910390f35b60606003805461035990611b2d565b80601f016020809104026020016040519081016040528092919081815260200182805461038590611b2d565b80156103d25780601f106103a7576101008083540402835291602001916103d2565b820191906000526020600020905b8154815290600101906020018083116103b557829003601f168201915b5050505050905090565b6000806103e7610c4b565b90506103f4818585610c53565b600191505092915050565b6000600254905090565b600080610414610c4b565b9050610421858285610e1e565b61042c858585610eaa565b60019150509392505050565b60006012905090565b60008061044c610c4b565b905061046d81858561045e8589610bc4565b6104689190611884565b610c53565b600191505092915050565b60606006805461048790611b2d565b80601f01602080910402602001604051908101604052809291908181526020018280546104b390611b2d565b80156105005780601f106104d557610100808354040283529160200191610500565b820191906000526020600020905b8154815290600101906020018083116104e357829003601f168201915b5050505050905090565b60008060008373ffffffffffffffffffffffffffffffffffffffff1673ffffffffffffffffffffffffffffffffffffffff168152602001908152602001600020549050919050565b600560009054906101000a900473ffffffffffffffffffffffffffffffffffffffff1681565b60606004805461058790611b2d565b80601f01602080910402602001604051908101604052809291908181526020018280546105b390611b2d565b80156106005780601f106105d557610100808354040283529160200191610600565b820191906000526020600020905b8154815290600101906020018083116105e357829003601f168201915b5050505050905090565b610654600560009054906101000a900473ffffffffffffffffffffffffffffffffffffffff16610638610438565b600a610644919061192d565b8361064f9190611a4b565b61112b565b50565b600080610662610c4b565b905060006106708286610bc4565b9050838110156106b5576040517f08c379a00000000000000000000000000000000000000000000000000000000081526004016106ac906117f2565b60405180910390fd5b6106c28286868403610c53565b60019250505092915050565b60006106fd600560009054906101000a900473ffffffffffffffffffffffffffffffffffffffff168484610eaa565b6001905092915050565b606060006040518060400160405280600981526020017f796f752077696e21210000000000000000000000000000000000000000000000815250905060006040518060400160405280600881526020017f796f75206c6f7365000000000000000000000000000000000000000000000000815250905060008060038861078d9190611bd6565b9050600060038861079e9190611bd6565b905060006003886107af9190611bd6565b90506000600342336009546040516020016107cc9392919061169d565b6040516020818303038152906040528051906020012060001c6107ef9190611bd6565b9050600084141561082f57600181141561082057848061080e90611b5f565b95505086975050505050505050610bbd565b85975050505050505050610bbd565b600184141561086d57600281141561085e57848061084c90611b5f565b95505086975050505050505050610bbd565b85975050505050505050610bbd565b60028414156108ab57600081141561089c57848061088a90611b5f565b95505086975050505050505050610bbd565b85975050505050505050610bbd565b60008414156108e95760018114156108da5784806108c890611b5f565b95505086975050505050505050610bbd565b85975050505050505050610bbd565b600184141561092757600281141561091857848061090690611b5f565b95505086975050505050505050610bbd565b85975050505050505050610bbd565b600284141561096557600081141561095657848061094490611b5f565b95505086975050505050505050610bbd565b85975050505050505050610bbd565b6003423360095460405160200161097e9392919061169d565b6040516020818303038152906040528051906020012060001c6109a19190611bd6565b905060008314156109e15760018114156109d25784806109c090611b5f565b95505086975050505050505050610bbd565b85975050505050505050610bbd565b6001831415610a1f576002811415610a105784806109fe90611b5f565b95505086975050505050505050610bbd565b85975050505050505050610bbd565b6002831415610a5d576000811415610a4e578480610a3c90611b5f565b95505086975050505050505050610bbd565b85975050505050505050610bbd565b60034233600954604051602001610a769392919061169d565b6040516020818303038152906040528051906020012060001c610a999190611bd6565b90506000821415610ad9576001811415610aca578480610ab890611b5f565b95505086975050505050505050610bbd565b85975050505050505050610bbd565b6001821415610b17576002811415610b08578480610af690611b5f565b95505086975050505050505050610bbd565b85975050505050505050610bbd565b6002821415610b6c576000811415610b5d578480610b3490611b5f565b9550508660069080519060200190610b4d929190611295565b5086975050505050505050610bbd565b85975050505050505050610bbd565b6001851115610b9b578660069080519060200190610b8b929190611295565b5086975050505050505050610bbd565b8560069080519060200190610bb1929190611295565b50859750505050505050505b9392505050565b6000600160008473ffffffffffffffffffffffffffffffffffffffff1673ffffffffffffffffffffffffffffffffffffffff16815260200190815260200160002060008373ffffffffffffffffffffffffffffffffffffffff1673ffffffffffffffffffffffffffffffffffffffff16815260200190815260200160002054905092915050565b600033905090565b600073ffffffffffffffffffffffffffffffffffffffff168373ffffffffffffffffffffffffffffffffffffffff161415610cc3576040517f08c379a0000000000000000000000000000000000000000000000000000000008152600401610cba906117d2565b60405180910390fd5b600073ffffffffffffffffffffffffffffffffffffffff168273ffffffffffffffffffffffffffffffffffffffff161415610d33576040517f08c379a0000000000000000000000000000000000000000000000000000000008152600401610d2a90611752565b60405180910390fd5b80600160008573ffffffffffffffffffffffffffffffffffffffff1673ffffffffffffffffffffffffffffffffffffffff16815260200190815260200160002060008473ffffffffffffffffffffffffffffffffffffffff1673ffffffffffffffffffffffffffffffffffffffff168152602001908152602001600020819055508173ffffffffffffffffffffffffffffffffffffffff168373ffffffffffffffffffffffffffffffffffffffff167f8c5be1e5ebec7d5bd14f71427d1e84f3dd0314c0f7b2291e5b200ac8c7c3b92583604051610e119190611832565b60405180910390a3505050565b6000610e2a8484610bc4565b90507fffffffffffffffffffffffffffffffffffffffffffffffffffffffffffffffff8114610ea45781811015610e96576040517f08c379a0000000000000000000000000000000000000000000000000000000008152600401610e8d90611772565b60405180910390fd5b610ea38484848403610c53565b5b50505050565b600073ffffffffffffffffffffffffffffffffffffffff168373ffffffffffffffffffffffffffffffffffffffff161415610f1a576040517f08c379a0000000000000000000000000000000000000000000000000000000008152600401610f11906117b2565b60405180910390fd5b600073ffffffffffffffffffffffffffffffffffffffff168273ffffffffffffffffffffffffffffffffffffffff161415610f8a576040517f08c379a0000000000000000000000000000000000000000000000000000000008152600401610f8190611732565b60405180910390fd5b610f9583838361128b565b60008060008573ffffffffffffffffffffffffffffffffffffffff1673ffffffffffffffffffffffffffffffffffffffff1681526020019081526020016000205490508181101561101b576040517f08c379a000000000000000000000000000000000000000000000000000000000815260040161101290611792565b60405180910390fd5b8181036000808673ffffffffffffffffffffffffffffffffffffffff1673ffffffffffffffffffffffffffffffffffffffff16815260200190815260200160002081905550816000808573ffffffffffffffffffffffffffffffffffffffff1673ffffffffffffffffffffffffffffffffffffffff16815260200190815260200160002060008282546110ae9190611884565b925050819055508273ffffffffffffffffffffffffffffffffffffffff168473ffffffffffffffffffffffffffffffffffffffff167fddf252ad1be2c89b69c2b068fc378daa952ba7f163c4a11628f55a4df523b3ef846040516111129190611832565b60405180910390a3611125848484611290565b50505050565b600073ffffffffffffffffffffffffffffffffffffffff168273ffffffffffffffffffffffffffffffffffffffff16141561119b576040517f08c379a000000000000000000000000000000000000000000000000000000000815260040161119290611812565b60405180910390fd5b6111a76000838361128b565b80600260008282546111b99190611884565b92505081905550806000808473ffffffffffffffffffffffffffffffffffffffff1673ffffffffffffffffffffffffffffffffffffffff168152602001908152602001600020600082825461120e9190611884565b925050819055508173ffffffffffffffffffffffffffffffffffffffff16600073ffffffffffffffffffffffffffffffffffffffff167fddf252ad1be2c89b69c2b068fc378daa952ba7f163c4a11628f55a4df523b3ef836040516112739190611832565b60405180910390a361128760008383611290565b5050565b505050565b505050565b8280546112a190611b2d565b90600052602060002090601f0160209004810192826112c3576000855561130a565b82601f106112dc57805160ff191683800117855561130a565b8280016001018555821561130a579182015b828111156113095782518255916020019190600101906112ee565b5b509050611317919061131b565b5090565b5b8082111561133457600081600090555060010161131c565b5090565b60008135905061134781611ef0565b92915050565b60008135905061135c81611f07565b92915050565b60006020828403121561137857611377611c94565b5b600061138684828501611338565b91505092915050565b600080604083850312156113a6576113a5611c94565b5b60006113b485828601611338565b92505060206113c585828601611338565b9150509250929050565b6000806000606084860312156113e8576113e7611c94565b5b60006113f686828701611338565b935050602061140786828701611338565b92505060406114188682870161134d565b9150509250925092565b6000806040838503121561143957611438611c94565b5b600061144785828601611338565b92505060206114588582860161134d565b9150509250929050565b60006020828403121561147857611477611c94565b5b60006114868482850161134d565b91505092915050565b6000806000606084860312156114a8576114a7611c94565b5b60006114b68682870161134d565b93505060206114c78682870161134d565b92505060406114d88682870161134d565b9150509250925092565b6114eb81611aa5565b82525050565b6115026114fd82611aa5565b611ba8565b82525050565b61151181611ab7565b82525050565b600061152282611868565b61152c8185611873565b935061153c818560208601611afa565b61154581611c99565b840191505092915050565b600061155d602383611873565b915061156882611cc4565b604082019050919050565b6000611580602283611873565b915061158b82611d13565b604082019050919050565b60006115a3601d83611873565b91506115ae82611d62565b602082019050919050565b60006115c6602683611873565b91506115d182611d8b565b604082019050919050565b60006115e9602583611873565b91506115f482611dda565b604082019050919050565b600061160c602483611873565b915061161782611e29565b604082019050919050565b600061162f602583611873565b915061163a82611e78565b604082019050919050565b6000611652601f83611873565b915061165d82611ec7565b602082019050919050565b61167181611ae3565b82525050565b61168861168382611ae3565b611bcc565b82525050565b61169781611aed565b82525050565b60006116a98286611677565b6020820191506116b982856114f1565b6014820191506116c98284611677565b602082019150819050949350505050565b60006020820190506116ef60008301846114e2565b92915050565b600060208201905061170a6000830184611508565b92915050565b6000602082019050818103600083015261172a8184611517565b905092915050565b6000602082019050818103600083015261174b81611550565b9050919050565b6000602082019050818103600083015261176b81611573565b9050919050565b6000602082019050818103600083015261178b81611596565b9050919050565b600060208201905081810360008301526117ab816115b9565b9050919050565b600060208201905081810360008301526117cb816115dc565b9050919050565b600060208201905081810360008301526117eb816115ff565b9050919050565b6000602082019050818103600083015261180b81611622565b9050919050565b6000602082019050818103600083015261182b81611645565b9050919050565b60006020820190506118476000830184611668565b92915050565b6000602082019050611862600083018461168e565b92915050565b600081519050919050565b600082825260208201905092915050565b600061188f82611ae3565b915061189a83611ae3565b9250827fffffffffffffffffffffffffffffffffffffffffffffffffffffffffffffffff038211156118cf576118ce611c07565b5b828201905092915050565b6000808291508390505b600185111561192457808604811115611900576118ff611c07565b5b600185161561190f5780820291505b808102905061191d85611cb7565b94506118e4565b94509492505050565b600061193882611ae3565b915061194383611aed565b92506119707fffffffffffffffffffffffffffffffffffffffffffffffffffffffffffffffff8484611978565b905092915050565b6000826119885760019050611a44565b816119965760009050611a44565b81600181146119ac57600281146119b6576119e5565b6001915050611a44565b60ff8411156119c8576119c7611c07565b5b8360020a9150848211156119df576119de611c07565b5b50611a44565b5060208310610133831016604e8410600b8410161715611a1a5782820a905083811115611a1557611a14611c07565b5b611a44565b611a2784848460016118da565b92509050818404811115611a3e57611a3d611c07565b5b81810290505b9392505050565b6000611a5682611ae3565b9150611a6183611ae3565b9250817fffffffffffffffffffffffffffffffffffffffffffffffffffffffffffffffff0483118215151615611a9a57611a99611c07565b5b828202905092915050565b6000611ab082611ac3565b9050919050565b60008115159050919050565b600073ffffffffffffffffffffffffffffffffffffffff82169050919050565b6000819050919050565b600060ff82169050919050565b60005b83811015611b18578082015181840152602081019050611afd565b83811115611b27576000848401525b50505050565b60006002820490506001821680611b4557607f821691505b60208210811415611b5957611b58611c65565b5b50919050565b6000611b6a82611ae3565b91507fffffffffffffffffffffffffffffffffffffffffffffffffffffffffffffffff821415611b9d57611b9c611c07565b5b600182019050919050565b6000611bb382611bba565b9050919050565b6000611bc582611caa565b9050919050565b6000819050919050565b6000611be182611ae3565b9150611bec83611ae3565b925082611bfc57611bfb611c36565b5b828206905092915050565b7f4e487b7100000000000000000000000000000000000000000000000000000000600052601160045260246000fd5b7f4e487b7100000000000000000000000000000000000000000000000000000000600052601260045260246000fd5b7f4e487b7100000000000000000000000000000000000000000000000000000000600052602260045260246000fd5b600080fd5b6000601f19601f8301169050919050565b60008160601b9050919050565b60008160011c9050919050565b7f45524332303a207472616e7366657220746f20746865207a65726f206164647260008201527f6573730000000000000000000000000000000000000000000000000000000000602082015250565b7f45524332303a20617070726f766520746f20746865207a65726f20616464726560008201527f7373000000000000000000000000000000000000000000000000000000000000602082015250565b7f45524332303a20696e73756666696369656e7420616c6c6f77616e6365000000600082015250565b7f45524332303a207472616e7366657220616d6f756e742065786365656473206260008201527f616c616e63650000000000000000000000000000000000000000000000000000602082015250565b7f45524332303a207472616e736665722066726f6d20746865207a65726f20616460008201527f6472657373000000000000000000000000000000000000000000000000000000602082015250565b7f45524332303a20617070726f76652066726f6d20746865207a65726f2061646460008201527f7265737300000000000000000000000000000000000000000000000000000000602082015250565b7f45524332303a2064656372656173656420616c6c6f77616e63652062656c6f7760008201527f207a65726f000000000000000000000000000000000000000000000000000000602082015250565b7f45524332303a206d696e7420746f20746865207a65726f206164647265737300600082015250565b611ef981611aa5565b8114611f0457600080fd5b50565b611f1081611ae3565b8114611f1b57600080fd5b5056fea26469706673582212200c394563a0c4e339ea74c3a5b60c5c9bfbcee05a68d7c72864c0f386caf9407464736f6c63430008070033",
					"opcodes": "PUSH1 0x80 PUSH1 0x40 MSTORE PUSH1 0x0 PUSH1 0x9 SSTORE CALLVALUE DUP1 ISZERO PUSH3 0x16 JUMPI PUSH1 0x0 DUP1 REVERT JUMPDEST POP PUSH1 0x40 MLOAD DUP1 PUSH1 0x40 ADD PUSH1 0x40 MSTORE DUP1 PUSH1 0x8 DUP2 MSTORE PUSH1 0x20 ADD PUSH32 0x47616D65436F696E000000000000000000000000000000000000000000000000 DUP2 MSTORE POP PUSH1 0x40 MLOAD DUP1 PUSH1 0x40 ADD PUSH1 0x40 MSTORE DUP1 PUSH1 0x5 DUP2 MSTORE PUSH1 0x20 ADD PUSH32 0x416C696365000000000000000000000000000000000000000000000000000000 DUP2 MSTORE POP DUP2 PUSH1 0x3 SWAP1 DUP1 MLOAD SWAP1 PUSH1 0x20 ADD SWAP1 PUSH3 0x9B SWAP3 SWAP2 SWAP1 PUSH3 0xFE JUMP JUMPDEST POP DUP1 PUSH1 0x4 SWAP1 DUP1 MLOAD SWAP1 PUSH1 0x20 ADD SWAP1 PUSH3 0xB4 SWAP3 SWAP2 SWAP1 PUSH3 0xFE JUMP JUMPDEST POP POP POP CALLER PUSH1 0x5 PUSH1 0x0 PUSH2 0x100 EXP DUP2 SLOAD DUP2 PUSH20 0xFFFFFFFFFFFFFFFFFFFFFFFFFFFFFFFFFFFFFFFF MUL NOT AND SWAP1 DUP4 PUSH20 0xFFFFFFFFFFFFFFFFFFFFFFFFFFFFFFFFFFFFFFFF AND MUL OR SWAP1 SSTORE POP PUSH3 0x213 JUMP JUMPDEST DUP3 DUP1 SLOAD PUSH3 0x10C SWAP1 PUSH3 0x1AE JUMP JUMPDEST SWAP1 PUSH1 0x0 MSTORE PUSH1 0x20 PUSH1 0x0 KECCAK256 SWAP1 PUSH1 0x1F ADD PUSH1 0x20 SWAP1 DIV DUP2 ADD SWAP3 DUP3 PUSH3 0x130 JUMPI PUSH1 0x0 DUP6 SSTORE PUSH3 0x17C JUMP JUMPDEST DUP3 PUSH1 0x1F LT PUSH3 0x14B JUMPI DUP1 MLOAD PUSH1 0xFF NOT AND DUP4 DUP1 ADD OR DUP6 SSTORE PUSH3 0x17C JUMP JUMPDEST DUP3 DUP1 ADD PUSH1 0x1 ADD DUP6 SSTORE DUP3 ISZERO PUSH3 0x17C JUMPI SWAP2 DUP3 ADD JUMPDEST DUP3 DUP2 GT ISZERO PUSH3 0x17B JUMPI DUP3 MLOAD DUP3 SSTORE SWAP2 PUSH1 0x20 ADD SWAP2 SWAP1 PUSH1 0x1 ADD SWAP1 PUSH3 0x15E JUMP JUMPDEST JUMPDEST POP SWAP1 POP PUSH3 0x18B SWAP2 SWAP1 PUSH3 0x18F JUMP JUMPDEST POP SWAP1 JUMP JUMPDEST JUMPDEST DUP1 DUP3 GT ISZERO PUSH3 0x1AA JUMPI PUSH1 0x0 DUP2 PUSH1 0x0 SWAP1 SSTORE POP PUSH1 0x1 ADD PUSH3 0x190 JUMP JUMPDEST POP SWAP1 JUMP JUMPDEST PUSH1 0x0 PUSH1 0x2 DUP3 DIV SWAP1 POP PUSH1 0x1 DUP3 AND DUP1 PUSH3 0x1C7 JUMPI PUSH1 0x7F DUP3 AND SWAP2 POP JUMPDEST PUSH1 0x20 DUP3 LT DUP2 EQ ISZERO PUSH3 0x1DE JUMPI PUSH3 0x1DD PUSH3 0x1E4 JUMP JUMPDEST JUMPDEST POP SWAP2 SWAP1 POP JUMP JUMPDEST PUSH32 0x4E487B7100000000000000000000000000000000000000000000000000000000 PUSH1 0x0 MSTORE PUSH1 0x22 PUSH1 0x4 MSTORE PUSH1 0x24 PUSH1 0x0 REVERT JUMPDEST PUSH2 0x1F54 DUP1 PUSH3 0x223 PUSH1 0x0 CODECOPY PUSH1 0x0 RETURN INVALID PUSH1 0x80 PUSH1 0x40 MSTORE CALLVALUE DUP1 ISZERO PUSH2 0x10 JUMPI PUSH1 0x0 DUP1 REVERT JUMPDEST POP PUSH1 0x4 CALLDATASIZE LT PUSH2 0xF5 JUMPI PUSH1 0x0 CALLDATALOAD PUSH1 0xE0 SHR DUP1 PUSH4 0x70A08231 GT PUSH2 0x97 JUMPI DUP1 PUSH4 0xA457C2D7 GT PUSH2 0x66 JUMPI DUP1 PUSH4 0xA457C2D7 EQ PUSH2 0x28A JUMPI DUP1 PUSH4 0xA9059CBB EQ PUSH2 0x2BA JUMPI DUP1 PUSH4 0xC64D3161 EQ PUSH2 0x2EA JUMPI DUP1 PUSH4 0xDD62ED3E EQ PUSH2 0x31A JUMPI PUSH2 0xF5 JUMP JUMPDEST DUP1 PUSH4 0x70A08231 EQ PUSH2 0x202 JUMPI DUP1 PUSH4 0x8DA5CB5B EQ PUSH2 0x232 JUMPI DUP1 PUSH4 0x95D89B41 EQ PUSH2 0x250 JUMPI DUP1 PUSH4 0xA0712D68 EQ PUSH2 0x26E JUMPI PUSH2 0xF5 JUMP JUMPDEST DUP1 PUSH4 0x23B872DD GT PUSH2 0xD3 JUMPI DUP1 PUSH4 0x23B872DD EQ PUSH2 0x166 JUMPI DUP1 PUSH4 0x313CE567 EQ PUSH2 0x196 JUMPI DUP1 PUSH4 0x39509351 EQ PUSH2 0x1B4 JUMPI DUP1 PUSH4 0x4802D378 EQ PUSH2 0x1E4 JUMPI PUSH2 0xF5 JUMP JUMPDEST DUP1 PUSH4 0x6FDDE03 EQ PUSH2 0xFA JUMPI DUP1 PUSH4 0x95EA7B3 EQ PUSH2 0x118 JUMPI DUP1 PUSH4 0x18160DDD EQ PUSH2 0x148 JUMPI JUMPDEST PUSH1 0x0 DUP1 REVERT JUMPDEST PUSH2 0x102 PUSH2 0x34A JUMP JUMPDEST PUSH1 0x40 MLOAD PUSH2 0x10F SWAP2 SWAP1 PUSH2 0x1710 JUMP JUMPDEST PUSH1 0x40 MLOAD DUP1 SWAP2 SUB SWAP1 RETURN JUMPDEST PUSH2 0x132 PUSH1 0x4 DUP1 CALLDATASIZE SUB DUP2 ADD SWAP1 PUSH2 0x12D SWAP2 SWAP1 PUSH2 0x1422 JUMP JUMPDEST PUSH2 0x3DC JUMP JUMPDEST PUSH1 0x40 MLOAD PUSH2 0x13F SWAP2 SWAP1 PUSH2 0x16F5 JUMP JUMPDEST PUSH1 0x40 MLOAD DUP1 SWAP2 SUB SWAP1 RETURN JUMPDEST PUSH2 0x150 PUSH2 0x3FF JUMP JUMPDEST PUSH1 0x40 MLOAD PUSH2 0x15D SWAP2 SWAP1 PUSH2 0x1832 JUMP JUMPDEST PUSH1 0x40 MLOAD DUP1 SWAP2 SUB SWAP1 RETURN JUMPDEST PUSH2 0x180 PUSH1 0x4 DUP1 CALLDATASIZE SUB DUP2 ADD SWAP1 PUSH2 0x17B SWAP2 SWAP1 PUSH2 0x13CF JUMP JUMPDEST PUSH2 0x409 JUMP JUMPDEST PUSH1 0x40 MLOAD PUSH2 0x18D SWAP2 SWAP1 PUSH2 0x16F5 JUMP JUMPDEST PUSH1 0x40 MLOAD DUP1 SWAP2 SUB SWAP1 RETURN JUMPDEST PUSH2 0x19E PUSH2 0x438 JUMP JUMPDEST PUSH1 0x40 MLOAD PUSH2 0x1AB SWAP2 SWAP1 PUSH2 0x184D JUMP JUMPDEST PUSH1 0x40 MLOAD DUP1 SWAP2 SUB SWAP1 RETURN JUMPDEST PUSH2 0x1CE PUSH1 0x4 DUP1 CALLDATASIZE SUB DUP2 ADD SWAP1 PUSH2 0x1C9 SWAP2 SWAP1 PUSH2 0x1422 JUMP JUMPDEST PUSH2 0x441 JUMP JUMPDEST PUSH1 0x40 MLOAD PUSH2 0x1DB SWAP2 SWAP1 PUSH2 0x16F5 JUMP JUMPDEST PUSH1 0x40 MLOAD DUP1 SWAP2 SUB SWAP1 RETURN JUMPDEST PUSH2 0x1EC PUSH2 0x478 JUMP JUMPDEST PUSH1 0x40 MLOAD PUSH2 0x1F9 SWAP2 SWAP1 PUSH2 0x1710 JUMP JUMPDEST PUSH1 0x40 MLOAD DUP1 SWAP2 SUB SWAP1 RETURN JUMPDEST PUSH2 0x21C PUSH1 0x4 DUP1 CALLDATASIZE SUB DUP2 ADD SWAP1 PUSH2 0x217 SWAP2 SWAP1 PUSH2 0x1362 JUMP JUMPDEST PUSH2 0x50A JUMP JUMPDEST PUSH1 0x40 MLOAD PUSH2 0x229 SWAP2 SWAP1 PUSH2 0x1832 JUMP JUMPDEST PUSH1 0x40 MLOAD DUP1 SWAP2 SUB SWAP1 RETURN JUMPDEST PUSH2 0x23A PUSH2 0x552 JUMP JUMPDEST PUSH1 0x40 MLOAD PUSH2 0x247 SWAP2 SWAP1 PUSH2 0x16DA JUMP JUMPDEST PUSH1 0x40 MLOAD DUP1 SWAP2 SUB SWAP1 RETURN JUMPDEST PUSH2 0x258 PUSH2 0x578 JUMP JUMPDEST PUSH1 0x40 MLOAD PUSH2 0x265 SWAP2 SWAP1 PUSH2 0x1710 JUMP JUMPDEST PUSH1 0x40 MLOAD DUP1 SWAP2 SUB SWAP1 RETURN JUMPDEST PUSH2 0x288 PUSH1 0x4 DUP1 CALLDATASIZE SUB DUP2 ADD SWAP1 PUSH2 0x283 SWAP2 SWAP1 PUSH2 0x1462 JUMP JUMPDEST PUSH2 0x60A JUMP JUMPDEST STOP JUMPDEST PUSH2 0x2A4 PUSH1 0x4 DUP1 CALLDATASIZE SUB DUP2 ADD SWAP1 PUSH2 0x29F SWAP2 SWAP1 PUSH2 0x1422 JUMP JUMPDEST PUSH2 0x657 JUMP JUMPDEST PUSH1 0x40 MLOAD PUSH2 0x2B1 SWAP2 SWAP1 PUSH2 0x16F5 JUMP JUMPDEST PUSH1 0x40 MLOAD DUP1 SWAP2 SUB SWAP1 RETURN JUMPDEST PUSH2 0x2D4 PUSH1 0x4 DUP1 CALLDATASIZE SUB DUP2 ADD SWAP1 PUSH2 0x2CF SWAP2 SWAP1 PUSH2 0x1422 JUMP JUMPDEST PUSH2 0x6CE JUMP JUMPDEST PUSH1 0x40 MLOAD PUSH2 0x2E1 SWAP2 SWAP1 PUSH2 0x16F5 JUMP JUMPDEST PUSH1 0x40 MLOAD DUP1 SWAP2 SUB SWAP1 RETURN JUMPDEST PUSH2 0x304 PUSH1 0x4 DUP1 CALLDATASIZE SUB DUP2 ADD SWAP1 PUSH2 0x2FF SWAP2 SWAP1 PUSH2 0x148F JUMP JUMPDEST PUSH2 0x707 JUMP JUMPDEST PUSH1 0x40 MLOAD PUSH2 0x311 SWAP2 SWAP1 PUSH2 0x1710 JUMP JUMPDEST PUSH1 0x40 MLOAD DUP1 SWAP2 SUB SWAP1 RETURN JUMPDEST PUSH2 0x334 PUSH1 0x4 DUP1 CALLDATASIZE SUB DUP2 ADD SWAP1 PUSH2 0x32F SWAP2 SWAP1 PUSH2 0x138F JUMP JUMPDEST PUSH2 0xBC4 JUMP JUMPDEST PUSH1 0x40 MLOAD PUSH2 0x341 SWAP2 SWAP1 PUSH2 0x1832 JUMP JUMPDEST PUSH1 0x40 MLOAD DUP1 SWAP2 SUB SWAP1 RETURN JUMPDEST PUSH1 0x60 PUSH1 0x3 DUP1 SLOAD PUSH2 0x359 SWAP1 PUSH2 0x1B2D JUMP JUMPDEST DUP1 PUSH1 0x1F ADD PUSH1 0x20 DUP1 SWAP2 DIV MUL PUSH1 0x20 ADD PUSH1 0x40 MLOAD SWAP1 DUP2 ADD PUSH1 0x40 MSTORE DUP1 SWAP3 SWAP2 SWAP1 DUP2 DUP2 MSTORE PUSH1 0x20 ADD DUP3 DUP1 SLOAD PUSH2 0x385 SWAP1 PUSH2 0x1B2D JUMP JUMPDEST DUP1 ISZERO PUSH2 0x3D2 JUMPI DUP1 PUSH1 0x1F LT PUSH2 0x3A7 JUMPI PUSH2 0x100 DUP1 DUP4 SLOAD DIV MUL DUP4 MSTORE SWAP2 PUSH1 0x20 ADD SWAP2 PUSH2 0x3D2 JUMP JUMPDEST DUP3 ADD SWAP2 SWAP1 PUSH1 0x0 MSTORE PUSH1 0x20 PUSH1 0x0 KECCAK256 SWAP1 JUMPDEST DUP2 SLOAD DUP2 MSTORE SWAP1 PUSH1 0x1 ADD SWAP1 PUSH1 0x20 ADD DUP1 DUP4 GT PUSH2 0x3B5 JUMPI DUP3 SWAP1 SUB PUSH1 0x1F AND DUP3 ADD SWAP2 JUMPDEST POP POP POP POP POP SWAP1 POP SWAP1 JUMP JUMPDEST PUSH1 0x0 DUP1 PUSH2 0x3E7 PUSH2 0xC4B JUMP JUMPDEST SWAP1 POP PUSH2 0x3F4 DUP2 DUP6 DUP6 PUSH2 0xC53 JUMP JUMPDEST PUSH1 0x1 SWAP2 POP POP SWAP3 SWAP2 POP POP JUMP JUMPDEST PUSH1 0x0 PUSH1 0x2 SLOAD SWAP1 POP SWAP1 JUMP JUMPDEST PUSH1 0x0 DUP1 PUSH2 0x414 PUSH2 0xC4B JUMP JUMPDEST SWAP1 POP PUSH2 0x421 DUP6 DUP3 DUP6 PUSH2 0xE1E JUMP JUMPDEST PUSH2 0x42C DUP6 DUP6 DUP6 PUSH2 0xEAA JUMP JUMPDEST PUSH1 0x1 SWAP2 POP POP SWAP4 SWAP3 POP POP POP JUMP JUMPDEST PUSH1 0x0 PUSH1 0x12 SWAP1 POP SWAP1 JUMP JUMPDEST PUSH1 0x0 DUP1 PUSH2 0x44C PUSH2 0xC4B JUMP JUMPDEST SWAP1 POP PUSH2 0x46D DUP2 DUP6 DUP6 PUSH2 0x45E DUP6 DUP10 PUSH2 0xBC4 JUMP JUMPDEST PUSH2 0x468 SWAP2 SWAP1 PUSH2 0x1884 JUMP JUMPDEST PUSH2 0xC53 JUMP JUMPDEST PUSH1 0x1 SWAP2 POP POP SWAP3 SWAP2 POP POP JUMP JUMPDEST PUSH1 0x60 PUSH1 0x6 DUP1 SLOAD PUSH2 0x487 SWAP1 PUSH2 0x1B2D JUMP JUMPDEST DUP1 PUSH1 0x1F ADD PUSH1 0x20 DUP1 SWAP2 DIV MUL PUSH1 0x20 ADD PUSH1 0x40 MLOAD SWAP1 DUP2 ADD PUSH1 0x40 MSTORE DUP1 SWAP3 SWAP2 SWAP1 DUP2 DUP2 MSTORE PUSH1 0x20 ADD DUP3 DUP1 SLOAD PUSH2 0x4B3 SWAP1 PUSH2 0x1B2D JUMP JUMPDEST DUP1 ISZERO PUSH2 0x500 JUMPI DUP1 PUSH1 0x1F LT PUSH2 0x4D5 JUMPI PUSH2 0x100 DUP1 DUP4 SLOAD DIV MUL DUP4 MSTORE SWAP2 PUSH1 0x20 ADD SWAP2 PUSH2 0x500 JUMP JUMPDEST DUP3 ADD SWAP2 SWAP1 PUSH1 0x0 MSTORE PUSH1 0x20 PUSH1 0x0 KECCAK256 SWAP1 JUMPDEST DUP2 SLOAD DUP2 MSTORE SWAP1 PUSH1 0x1 ADD SWAP1 PUSH1 0x20 ADD DUP1 DUP4 GT PUSH2 0x4E3 JUMPI DUP3 SWAP1 SUB PUSH1 0x1F AND DUP3 ADD SWAP2 JUMPDEST POP POP POP POP POP SWAP1 POP SWAP1 JUMP JUMPDEST PUSH1 0x0 DUP1 PUSH1 0x0 DUP4 PUSH20 0xFFFFFFFFFFFFFFFFFFFFFFFFFFFFFFFFFFFFFFFF AND PUSH20 0xFFFFFFFFFFFFFFFFFFFFFFFFFFFFFFFFFFFFFFFF AND DUP2 MSTORE PUSH1 0x20 ADD SWAP1 DUP2 MSTORE PUSH1 0x20 ADD PUSH1 0x0 KECCAK256 SLOAD SWAP1 POP SWAP2 SWAP1 POP JUMP JUMPDEST PUSH1 0x5 PUSH1 0x0 SWAP1 SLOAD SWAP1 PUSH2 0x100 EXP SWAP1 DIV PUSH20 0xFFFFFFFFFFFFFFFFFFFFFFFFFFFFFFFFFFFFFFFF AND DUP2 JUMP JUMPDEST PUSH1 0x60 PUSH1 0x4 DUP1 SLOAD PUSH2 0x587 SWAP1 PUSH2 0x1B2D JUMP JUMPDEST DUP1 PUSH1 0x1F ADD PUSH1 0x20 DUP1 SWAP2 DIV MUL PUSH1 0x20 ADD PUSH1 0x40 MLOAD SWAP1 DUP2 ADD PUSH1 0x40 MSTORE DUP1 SWAP3 SWAP2 SWAP1 DUP2 DUP2 MSTORE PUSH1 0x20 ADD DUP3 DUP1 SLOAD PUSH2 0x5B3 SWAP1 PUSH2 0x1B2D JUMP JUMPDEST DUP1 ISZERO PUSH2 0x600 JUMPI DUP1 PUSH1 0x1F LT PUSH2 0x5D5 JUMPI PUSH2 0x100 DUP1 DUP4 SLOAD DIV MUL DUP4 MSTORE SWAP2 PUSH1 0x20 ADD SWAP2 PUSH2 0x600 JUMP JUMPDEST DUP3 ADD SWAP2 SWAP1 PUSH1 0x0 MSTORE PUSH1 0x20 PUSH1 0x0 KECCAK256 SWAP1 JUMPDEST DUP2 SLOAD DUP2 MSTORE SWAP1 PUSH1 0x1 ADD SWAP1 PUSH1 0x20 ADD DUP1 DUP4 GT PUSH2 0x5E3 JUMPI DUP3 SWAP1 SUB PUSH1 0x1F AND DUP3 ADD SWAP2 JUMPDEST POP POP POP POP POP SWAP1 POP SWAP1 JUMP JUMPDEST PUSH2 0x654 PUSH1 0x5 PUSH1 0x0 SWAP1 SLOAD SWAP1 PUSH2 0x100 EXP SWAP1 DIV PUSH20 0xFFFFFFFFFFFFFFFFFFFFFFFFFFFFFFFFFFFFFFFF AND PUSH2 0x638 PUSH2 0x438 JUMP JUMPDEST PUSH1 0xA PUSH2 0x644 SWAP2 SWAP1 PUSH2 0x192D JUMP JUMPDEST DUP4 PUSH2 0x64F SWAP2 SWAP1 PUSH2 0x1A4B JUMP JUMPDEST PUSH2 0x112B JUMP JUMPDEST POP JUMP JUMPDEST PUSH1 0x0 DUP1 PUSH2 0x662 PUSH2 0xC4B JUMP JUMPDEST SWAP1 POP PUSH1 0x0 PUSH2 0x670 DUP3 DUP7 PUSH2 0xBC4 JUMP JUMPDEST SWAP1 POP DUP4 DUP2 LT ISZERO PUSH2 0x6B5 JUMPI PUSH1 0x40 MLOAD PUSH32 0x8C379A000000000000000000000000000000000000000000000000000000000 DUP2 MSTORE PUSH1 0x4 ADD PUSH2 0x6AC SWAP1 PUSH2 0x17F2 JUMP JUMPDEST PUSH1 0x40 MLOAD DUP1 SWAP2 SUB SWAP1 REVERT JUMPDEST PUSH2 0x6C2 DUP3 DUP7 DUP7 DUP5 SUB PUSH2 0xC53 JUMP JUMPDEST PUSH1 0x1 SWAP3 POP POP POP SWAP3 SWAP2 POP POP JUMP JUMPDEST PUSH1 0x0 PUSH2 0x6FD PUSH1 0x5 PUSH1 0x0 SWAP1 SLOAD SWAP1 PUSH2 0x100 EXP SWAP1 DIV PUSH20 0xFFFFFFFFFFFFFFFFFFFFFFFFFFFFFFFFFFFFFFFF AND DUP5 DUP5 PUSH2 0xEAA JUMP JUMPDEST PUSH1 0x1 SWAP1 POP SWAP3 SWAP2 POP POP JUMP JUMPDEST PUSH1 0x60 PUSH1 0x0 PUSH1 0x40 MLOAD DUP1 PUSH1 0x40 ADD PUSH1 0x40 MSTORE DUP1 PUSH1 0x9 DUP2 MSTORE PUSH1 0x20 ADD PUSH32 0x796F752077696E21210000000000000000000000000000000000000000000000 DUP2 MSTORE POP SWAP1 POP PUSH1 0x0 PUSH1 0x40 MLOAD DUP1 PUSH1 0x40 ADD PUSH1 0x40 MSTORE DUP1 PUSH1 0x8 DUP2 MSTORE PUSH1 0x20 ADD PUSH32 0x796F75206C6F7365000000000000000000000000000000000000000000000000 DUP2 MSTORE POP SWAP1 POP PUSH1 0x0 DUP1 PUSH1 0x3 DUP9 PUSH2 0x78D SWAP2 SWAP1 PUSH2 0x1BD6 JUMP JUMPDEST SWAP1 POP PUSH1 0x0 PUSH1 0x3 DUP9 PUSH2 0x79E SWAP2 SWAP1 PUSH2 0x1BD6 JUMP JUMPDEST SWAP1 POP PUSH1 0x0 PUSH1 0x3 DUP9 PUSH2 0x7AF SWAP2 SWAP1 PUSH2 0x1BD6 JUMP JUMPDEST SWAP1 POP PUSH1 0x0 PUSH1 0x3 TIMESTAMP CALLER PUSH1 0x9 SLOAD PUSH1 0x40 MLOAD PUSH1 0x20 ADD PUSH2 0x7CC SWAP4 SWAP3 SWAP2 SWAP1 PUSH2 0x169D JUMP JUMPDEST PUSH1 0x40 MLOAD PUSH1 0x20 DUP2 DUP4 SUB SUB DUP2 MSTORE SWAP1 PUSH1 0x40 MSTORE DUP1 MLOAD SWAP1 PUSH1 0x20 ADD KECCAK256 PUSH1 0x0 SHR PUSH2 0x7EF SWAP2 SWAP1 PUSH2 0x1BD6 JUMP JUMPDEST SWAP1 POP PUSH1 0x0 DUP5 EQ ISZERO PUSH2 0x82F JUMPI PUSH1 0x1 DUP2 EQ ISZERO PUSH2 0x820 JUMPI DUP5 DUP1 PUSH2 0x80E SWAP1 PUSH2 0x1B5F JUMP JUMPDEST SWAP6 POP POP DUP7 SWAP8 POP POP POP POP POP POP POP POP PUSH2 0xBBD JUMP JUMPDEST DUP6 SWAP8 POP POP POP POP POP POP POP POP PUSH2 0xBBD JUMP JUMPDEST PUSH1 0x1 DUP5 EQ ISZERO PUSH2 0x86D JUMPI PUSH1 0x2 DUP2 EQ ISZERO PUSH2 0x85E JUMPI DUP5 DUP1 PUSH2 0x84C SWAP1 PUSH2 0x1B5F JUMP JUMPDEST SWAP6 POP POP DUP7 SWAP8 POP POP POP POP POP POP POP POP PUSH2 0xBBD JUMP JUMPDEST DUP6 SWAP8 POP POP POP POP POP POP POP POP PUSH2 0xBBD JUMP JUMPDEST PUSH1 0x2 DUP5 EQ ISZERO PUSH2 0x8AB JUMPI PUSH1 0x0 DUP2 EQ ISZERO PUSH2 0x89C JUMPI DUP5 DUP1 PUSH2 0x88A SWAP1 PUSH2 0x1B5F JUMP JUMPDEST SWAP6 POP POP DUP7 SWAP8 POP POP POP POP POP POP POP POP PUSH2 0xBBD JUMP JUMPDEST DUP6 SWAP8 POP POP POP POP POP POP POP POP PUSH2 0xBBD JUMP JUMPDEST PUSH1 0x0 DUP5 EQ ISZERO PUSH2 0x8E9 JUMPI PUSH1 0x1 DUP2 EQ ISZERO PUSH2 0x8DA JUMPI DUP5 DUP1 PUSH2 0x8C8 SWAP1 PUSH2 0x1B5F JUMP JUMPDEST SWAP6 POP POP DUP7 SWAP8 POP POP POP POP POP POP POP POP PUSH2 0xBBD JUMP JUMPDEST DUP6 SWAP8 POP POP POP POP POP POP POP POP PUSH2 0xBBD JUMP JUMPDEST PUSH1 0x1 DUP5 EQ ISZERO PUSH2 0x927 JUMPI PUSH1 0x2 DUP2 EQ ISZERO PUSH2 0x918 JUMPI DUP5 DUP1 PUSH2 0x906 SWAP1 PUSH2 0x1B5F JUMP JUMPDEST SWAP6 POP POP DUP7 SWAP8 POP POP POP POP POP POP POP POP PUSH2 0xBBD JUMP JUMPDEST DUP6 SWAP8 POP POP POP POP POP POP POP POP PUSH2 0xBBD JUMP JUMPDEST PUSH1 0x2 DUP5 EQ ISZERO PUSH2 0x965 JUMPI PUSH1 0x0 DUP2 EQ ISZERO PUSH2 0x956 JUMPI DUP5 DUP1 PUSH2 0x944 SWAP1 PUSH2 0x1B5F JUMP JUMPDEST SWAP6 POP POP DUP7 SWAP8 POP POP POP POP POP POP POP POP PUSH2 0xBBD JUMP JUMPDEST DUP6 SWAP8 POP POP POP POP POP POP POP POP PUSH2 0xBBD JUMP JUMPDEST PUSH1 0x3 TIMESTAMP CALLER PUSH1 0x9 SLOAD PUSH1 0x40 MLOAD PUSH1 0x20 ADD PUSH2 0x97E SWAP4 SWAP3 SWAP2 SWAP1 PUSH2 0x169D JUMP JUMPDEST PUSH1 0x40 MLOAD PUSH1 0x20 DUP2 DUP4 SUB SUB DUP2 MSTORE SWAP1 PUSH1 0x40 MSTORE DUP1 MLOAD SWAP1 PUSH1 0x20 ADD KECCAK256 PUSH1 0x0 SHR PUSH2 0x9A1 SWAP2 SWAP1 PUSH2 0x1BD6 JUMP JUMPDEST SWAP1 POP PUSH1 0x0 DUP4 EQ ISZERO PUSH2 0x9E1 JUMPI PUSH1 0x1 DUP2 EQ ISZERO PUSH2 0x9D2 JUMPI DUP5 DUP1 PUSH2 0x9C0 SWAP1 PUSH2 0x1B5F JUMP JUMPDEST SWAP6 POP POP DUP7 SWAP8 POP POP POP POP POP POP POP POP PUSH2 0xBBD JUMP JUMPDEST DUP6 SWAP8 POP POP POP POP POP POP POP POP PUSH2 0xBBD JUMP JUMPDEST PUSH1 0x1 DUP4 EQ ISZERO PUSH2 0xA1F JUMPI PUSH1 0x2 DUP2 EQ ISZERO PUSH2 0xA10 JUMPI DUP5 DUP1 PUSH2 0x9FE SWAP1 PUSH2 0x1B5F JUMP JUMPDEST SWAP6 POP POP DUP7 SWAP8 POP POP POP POP POP POP POP POP PUSH2 0xBBD JUMP JUMPDEST DUP6 SWAP8 POP POP POP POP POP POP POP POP PUSH2 0xBBD JUMP JUMPDEST PUSH1 0x2 DUP4 EQ ISZERO PUSH2 0xA5D JUMPI PUSH1 0x0 DUP2 EQ ISZERO PUSH2 0xA4E JUMPI DUP5 DUP1 PUSH2 0xA3C SWAP1 PUSH2 0x1B5F JUMP JUMPDEST SWAP6 POP POP DUP7 SWAP8 POP POP POP POP POP POP POP POP PUSH2 0xBBD JUMP JUMPDEST DUP6 SWAP8 POP POP POP POP POP POP POP POP PUSH2 0xBBD JUMP JUMPDEST PUSH1 0x3 TIMESTAMP CALLER PUSH1 0x9 SLOAD PUSH1 0x40 MLOAD PUSH1 0x20 ADD PUSH2 0xA76 SWAP4 SWAP3 SWAP2 SWAP1 PUSH2 0x169D JUMP JUMPDEST PUSH1 0x40 MLOAD PUSH1 0x20 DUP2 DUP4 SUB SUB DUP2 MSTORE SWAP1 PUSH1 0x40 MSTORE DUP1 MLOAD SWAP1 PUSH1 0x20 ADD KECCAK256 PUSH1 0x0 SHR PUSH2 0xA99 SWAP2 SWAP1 PUSH2 0x1BD6 JUMP JUMPDEST SWAP1 POP PUSH1 0x0 DUP3 EQ ISZERO PUSH2 0xAD9 JUMPI PUSH1 0x1 DUP2 EQ ISZERO PUSH2 0xACA JUMPI DUP5 DUP1 PUSH2 0xAB8 SWAP1 PUSH2 0x1B5F JUMP JUMPDEST SWAP6 POP POP DUP7 SWAP8 POP POP POP POP POP POP POP POP PUSH2 0xBBD JUMP JUMPDEST DUP6 SWAP8 POP POP POP POP POP POP POP POP PUSH2 0xBBD JUMP JUMPDEST PUSH1 0x1 DUP3 EQ ISZERO PUSH2 0xB17 JUMPI PUSH1 0x2 DUP2 EQ ISZERO PUSH2 0xB08 JUMPI DUP5 DUP1 PUSH2 0xAF6 SWAP1 PUSH2 0x1B5F JUMP JUMPDEST SWAP6 POP POP DUP7 SWAP8 POP POP POP POP POP POP POP POP PUSH2 0xBBD JUMP JUMPDEST DUP6 SWAP8 POP POP POP POP POP POP POP POP PUSH2 0xBBD JUMP JUMPDEST PUSH1 0x2 DUP3 EQ ISZERO PUSH2 0xB6C JUMPI PUSH1 0x0 DUP2 EQ ISZERO PUSH2 0xB5D JUMPI DUP5 DUP1 PUSH2 0xB34 SWAP1 PUSH2 0x1B5F JUMP JUMPDEST SWAP6 POP POP DUP7 PUSH1 0x6 SWAP1 DUP1 MLOAD SWAP1 PUSH1 0x20 ADD SWAP1 PUSH2 0xB4D SWAP3 SWAP2 SWAP1 PUSH2 0x1295 JUMP JUMPDEST POP DUP7 SWAP8 POP POP POP POP POP POP POP POP PUSH2 0xBBD JUMP JUMPDEST DUP6 SWAP8 POP POP POP POP POP POP POP POP PUSH2 0xBBD JUMP JUMPDEST PUSH1 0x1 DUP6 GT ISZERO PUSH2 0xB9B JUMPI DUP7 PUSH1 0x6 SWAP1 DUP1 MLOAD SWAP1 PUSH1 0x20 ADD SWAP1 PUSH2 0xB8B SWAP3 SWAP2 SWAP1 PUSH2 0x1295 JUMP JUMPDEST POP DUP7 SWAP8 POP POP POP POP POP POP POP POP PUSH2 0xBBD JUMP JUMPDEST DUP6 PUSH1 0x6 SWAP1 DUP1 MLOAD SWAP1 PUSH1 0x20 ADD SWAP1 PUSH2 0xBB1 SWAP3 SWAP2 SWAP1 PUSH2 0x1295 JUMP JUMPDEST POP DUP6 SWAP8 POP POP POP POP POP POP POP POP JUMPDEST SWAP4 SWAP3 POP POP POP JUMP JUMPDEST PUSH1 0x0 PUSH1 0x1 PUSH1 0x0 DUP5 PUSH20 0xFFFFFFFFFFFFFFFFFFFFFFFFFFFFFFFFFFFFFFFF AND PUSH20 0xFFFFFFFFFFFFFFFFFFFFFFFFFFFFFFFFFFFFFFFF AND DUP2 MSTORE PUSH1 0x20 ADD SWAP1 DUP2 MSTORE PUSH1 0x20 ADD PUSH1 0x0 KECCAK256 PUSH1 0x0 DUP4 PUSH20 0xFFFFFFFFFFFFFFFFFFFFFFFFFFFFFFFFFFFFFFFF AND PUSH20 0xFFFFFFFFFFFFFFFFFFFFFFFFFFFFFFFFFFFFFFFF AND DUP2 MSTORE PUSH1 0x20 ADD SWAP1 DUP2 MSTORE PUSH1 0x20 ADD PUSH1 0x0 KECCAK256 SLOAD SWAP1 POP SWAP3 SWAP2 POP POP JUMP JUMPDEST PUSH1 0x0 CALLER SWAP1 POP SWAP1 JUMP JUMPDEST PUSH1 0x0 PUSH20 0xFFFFFFFFFFFFFFFFFFFFFFFFFFFFFFFFFFFFFFFF AND DUP4 PUSH20 0xFFFFFFFFFFFFFFFFFFFFFFFFFFFFFFFFFFFFFFFF AND EQ ISZERO PUSH2 0xCC3 JUMPI PUSH1 0x40 MLOAD PUSH32 0x8C379A000000000000000000000000000000000000000000000000000000000 DUP2 MSTORE PUSH1 0x4 ADD PUSH2 0xCBA SWAP1 PUSH2 0x17D2 JUMP JUMPDEST PUSH1 0x40 MLOAD DUP1 SWAP2 SUB SWAP1 REVERT JUMPDEST PUSH1 0x0 PUSH20 0xFFFFFFFFFFFFFFFFFFFFFFFFFFFFFFFFFFFFFFFF AND DUP3 PUSH20 0xFFFFFFFFFFFFFFFFFFFFFFFFFFFFFFFFFFFFFFFF AND EQ ISZERO PUSH2 0xD33 JUMPI PUSH1 0x40 MLOAD PUSH32 0x8C379A000000000000000000000000000000000000000000000000000000000 DUP2 MSTORE PUSH1 0x4 ADD PUSH2 0xD2A SWAP1 PUSH2 0x1752 JUMP JUMPDEST PUSH1 0x40 MLOAD DUP1 SWAP2 SUB SWAP1 REVERT JUMPDEST DUP1 PUSH1 0x1 PUSH1 0x0 DUP6 PUSH20 0xFFFFFFFFFFFFFFFFFFFFFFFFFFFFFFFFFFFFFFFF AND PUSH20 0xFFFFFFFFFFFFFFFFFFFFFFFFFFFFFFFFFFFFFFFF AND DUP2 MSTORE PUSH1 0x20 ADD SWAP1 DUP2 MSTORE PUSH1 0x20 ADD PUSH1 0x0 KECCAK256 PUSH1 0x0 DUP5 PUSH20 0xFFFFFFFFFFFFFFFFFFFFFFFFFFFFFFFFFFFFFFFF AND PUSH20 0xFFFFFFFFFFFFFFFFFFFFFFFFFFFFFFFFFFFFFFFF AND DUP2 MSTORE PUSH1 0x20 ADD SWAP1 DUP2 MSTORE PUSH1 0x20 ADD PUSH1 0x0 KECCAK256 DUP2 SWAP1 SSTORE POP DUP2 PUSH20 0xFFFFFFFFFFFFFFFFFFFFFFFFFFFFFFFFFFFFFFFF AND DUP4 PUSH20 0xFFFFFFFFFFFFFFFFFFFFFFFFFFFFFFFFFFFFFFFF AND PUSH32 0x8C5BE1E5EBEC7D5BD14F71427D1E84F3DD0314C0F7B2291E5B200AC8C7C3B925 DUP4 PUSH1 0x40 MLOAD PUSH2 0xE11 SWAP2 SWAP1 PUSH2 0x1832 JUMP JUMPDEST PUSH1 0x40 MLOAD DUP1 SWAP2 SUB SWAP1 LOG3 POP POP POP JUMP JUMPDEST PUSH1 0x0 PUSH2 0xE2A DUP5 DUP5 PUSH2 0xBC4 JUMP JUMPDEST SWAP1 POP PUSH32 0xFFFFFFFFFFFFFFFFFFFFFFFFFFFFFFFFFFFFFFFFFFFFFFFFFFFFFFFFFFFFFFFF DUP2 EQ PUSH2 0xEA4 JUMPI DUP2 DUP2 LT ISZERO PUSH2 0xE96 JUMPI PUSH1 0x40 MLOAD PUSH32 0x8C379A000000000000000000000000000000000000000000000000000000000 DUP2 MSTORE PUSH1 0x4 ADD PUSH2 0xE8D SWAP1 PUSH2 0x1772 JUMP JUMPDEST PUSH1 0x40 MLOAD DUP1 SWAP2 SUB SWAP1 REVERT JUMPDEST PUSH2 0xEA3 DUP5 DUP5 DUP5 DUP5 SUB PUSH2 0xC53 JUMP JUMPDEST JUMPDEST POP POP POP POP JUMP JUMPDEST PUSH1 0x0 PUSH20 0xFFFFFFFFFFFFFFFFFFFFFFFFFFFFFFFFFFFFFFFF AND DUP4 PUSH20 0xFFFFFFFFFFFFFFFFFFFFFFFFFFFFFFFFFFFFFFFF AND EQ ISZERO PUSH2 0xF1A JUMPI PUSH1 0x40 MLOAD PUSH32 0x8C379A000000000000000000000000000000000000000000000000000000000 DUP2 MSTORE PUSH1 0x4 ADD PUSH2 0xF11 SWAP1 PUSH2 0x17B2 JUMP JUMPDEST PUSH1 0x40 MLOAD DUP1 SWAP2 SUB SWAP1 REVERT JUMPDEST PUSH1 0x0 PUSH20 0xFFFFFFFFFFFFFFFFFFFFFFFFFFFFFFFFFFFFFFFF AND DUP3 PUSH20 0xFFFFFFFFFFFFFFFFFFFFFFFFFFFFFFFFFFFFFFFF AND EQ ISZERO PUSH2 0xF8A JUMPI PUSH1 0x40 MLOAD PUSH32 0x8C379A000000000000000000000000000000000000000000000000000000000 DUP2 MSTORE PUSH1 0x4 ADD PUSH2 0xF81 SWAP1 PUSH2 0x1732 JUMP JUMPDEST PUSH1 0x40 MLOAD DUP1 SWAP2 SUB SWAP1 REVERT JUMPDEST PUSH2 0xF95 DUP4 DUP4 DUP4 PUSH2 0x128B JUMP JUMPDEST PUSH1 0x0 DUP1 PUSH1 0x0 DUP6 PUSH20 0xFFFFFFFFFFFFFFFFFFFFFFFFFFFFFFFFFFFFFFFF AND PUSH20 0xFFFFFFFFFFFFFFFFFFFFFFFFFFFFFFFFFFFFFFFF AND DUP2 MSTORE PUSH1 0x20 ADD SWAP1 DUP2 MSTORE PUSH1 0x20 ADD PUSH1 0x0 KECCAK256 SLOAD SWAP1 POP DUP2 DUP2 LT ISZERO PUSH2 0x101B JUMPI PUSH1 0x40 MLOAD PUSH32 0x8C379A000000000000000000000000000000000000000000000000000000000 DUP2 MSTORE PUSH1 0x4 ADD PUSH2 0x1012 SWAP1 PUSH2 0x1792 JUMP JUMPDEST PUSH1 0x40 MLOAD DUP1 SWAP2 SUB SWAP1 REVERT JUMPDEST DUP2 DUP2 SUB PUSH1 0x0 DUP1 DUP7 PUSH20 0xFFFFFFFFFFFFFFFFFFFFFFFFFFFFFFFFFFFFFFFF AND PUSH20 0xFFFFFFFFFFFFFFFFFFFFFFFFFFFFFFFFFFFFFFFF AND DUP2 MSTORE PUSH1 0x20 ADD SWAP1 DUP2 MSTORE PUSH1 0x20 ADD PUSH1 0x0 KECCAK256 DUP2 SWAP1 SSTORE POP DUP2 PUSH1 0x0 DUP1 DUP6 PUSH20 0xFFFFFFFFFFFFFFFFFFFFFFFFFFFFFFFFFFFFFFFF AND PUSH20 0xFFFFFFFFFFFFFFFFFFFFFFFFFFFFFFFFFFFFFFFF AND DUP2 MSTORE PUSH1 0x20 ADD SWAP1 DUP2 MSTORE PUSH1 0x20 ADD PUSH1 0x0 KECCAK256 PUSH1 0x0 DUP3 DUP3 SLOAD PUSH2 0x10AE SWAP2 SWAP1 PUSH2 0x1884 JUMP JUMPDEST SWAP3 POP POP DUP2 SWAP1 SSTORE POP DUP3 PUSH20 0xFFFFFFFFFFFFFFFFFFFFFFFFFFFFFFFFFFFFFFFF AND DUP5 PUSH20 0xFFFFFFFFFFFFFFFFFFFFFFFFFFFFFFFFFFFFFFFF AND PUSH32 0xDDF252AD1BE2C89B69C2B068FC378DAA952BA7F163C4A11628F55A4DF523B3EF DUP5 PUSH1 0x40 MLOAD PUSH2 0x1112 SWAP2 SWAP1 PUSH2 0x1832 JUMP JUMPDEST PUSH1 0x40 MLOAD DUP1 SWAP2 SUB SWAP1 LOG3 PUSH2 0x1125 DUP5 DUP5 DUP5 PUSH2 0x1290 JUMP JUMPDEST POP POP POP POP JUMP JUMPDEST PUSH1 0x0 PUSH20 0xFFFFFFFFFFFFFFFFFFFFFFFFFFFFFFFFFFFFFFFF AND DUP3 PUSH20 0xFFFFFFFFFFFFFFFFFFFFFFFFFFFFFFFFFFFFFFFF AND EQ ISZERO PUSH2 0x119B JUMPI PUSH1 0x40 MLOAD PUSH32 0x8C379A000000000000000000000000000000000000000000000000000000000 DUP2 MSTORE PUSH1 0x4 ADD PUSH2 0x1192 SWAP1 PUSH2 0x1812 JUMP JUMPDEST PUSH1 0x40 MLOAD DUP1 SWAP2 SUB SWAP1 REVERT JUMPDEST PUSH2 0x11A7 PUSH1 0x0 DUP4 DUP4 PUSH2 0x128B JUMP JUMPDEST DUP1 PUSH1 0x2 PUSH1 0x0 DUP3 DUP3 SLOAD PUSH2 0x11B9 SWAP2 SWAP1 PUSH2 0x1884 JUMP JUMPDEST SWAP3 POP POP DUP2 SWAP1 SSTORE POP DUP1 PUSH1 0x0 DUP1 DUP5 PUSH20 0xFFFFFFFFFFFFFFFFFFFFFFFFFFFFFFFFFFFFFFFF AND PUSH20 0xFFFFFFFFFFFFFFFFFFFFFFFFFFFFFFFFFFFFFFFF AND DUP2 MSTORE PUSH1 0x20 ADD SWAP1 DUP2 MSTORE PUSH1 0x20 ADD PUSH1 0x0 KECCAK256 PUSH1 0x0 DUP3 DUP3 SLOAD PUSH2 0x120E SWAP2 SWAP1 PUSH2 0x1884 JUMP JUMPDEST SWAP3 POP POP DUP2 SWAP1 SSTORE POP DUP2 PUSH20 0xFFFFFFFFFFFFFFFFFFFFFFFFFFFFFFFFFFFFFFFF AND PUSH1 0x0 PUSH20 0xFFFFFFFFFFFFFFFFFFFFFFFFFFFFFFFFFFFFFFFF AND PUSH32 0xDDF252AD1BE2C89B69C2B068FC378DAA952BA7F163C4A11628F55A4DF523B3EF DUP4 PUSH1 0x40 MLOAD PUSH2 0x1273 SWAP2 SWAP1 PUSH2 0x1832 JUMP JUMPDEST PUSH1 0x40 MLOAD DUP1 SWAP2 SUB SWAP1 LOG3 PUSH2 0x1287 PUSH1 0x0 DUP4 DUP4 PUSH2 0x1290 JUMP JUMPDEST POP POP JUMP JUMPDEST POP POP POP JUMP JUMPDEST POP POP POP JUMP JUMPDEST DUP3 DUP1 SLOAD PUSH2 0x12A1 SWAP1 PUSH2 0x1B2D JUMP JUMPDEST SWAP1 PUSH1 0x0 MSTORE PUSH1 0x20 PUSH1 0x0 KECCAK256 SWAP1 PUSH1 0x1F ADD PUSH1 0x20 SWAP1 DIV DUP2 ADD SWAP3 DUP3 PUSH2 0x12C3 JUMPI PUSH1 0x0 DUP6 SSTORE PUSH2 0x130A JUMP JUMPDEST DUP3 PUSH1 0x1F LT PUSH2 0x12DC JUMPI DUP1 MLOAD PUSH1 0xFF NOT AND DUP4 DUP1 ADD OR DUP6 SSTORE PUSH2 0x130A JUMP JUMPDEST DUP3 DUP1 ADD PUSH1 0x1 ADD DUP6 SSTORE DUP3 ISZERO PUSH2 0x130A JUMPI SWAP2 DUP3 ADD JUMPDEST DUP3 DUP2 GT ISZERO PUSH2 0x1309 JUMPI DUP3 MLOAD DUP3 SSTORE SWAP2 PUSH1 0x20 ADD SWAP2 SWAP1 PUSH1 0x1 ADD SWAP1 PUSH2 0x12EE JUMP JUMPDEST JUMPDEST POP SWAP1 POP PUSH2 0x1317 SWAP2 SWAP1 PUSH2 0x131B JUMP JUMPDEST POP SWAP1 JUMP JUMPDEST JUMPDEST DUP1 DUP3 GT ISZERO PUSH2 0x1334 JUMPI PUSH1 0x0 DUP2 PUSH1 0x0 SWAP1 SSTORE POP PUSH1 0x1 ADD PUSH2 0x131C JUMP JUMPDEST POP SWAP1 JUMP JUMPDEST PUSH1 0x0 DUP2 CALLDATALOAD SWAP1 POP PUSH2 0x1347 DUP2 PUSH2 0x1EF0 JUMP JUMPDEST SWAP3 SWAP2 POP POP JUMP JUMPDEST PUSH1 0x0 DUP2 CALLDATALOAD SWAP1 POP PUSH2 0x135C DUP2 PUSH2 0x1F07 JUMP JUMPDEST SWAP3 SWAP2 POP POP JUMP JUMPDEST PUSH1 0x0 PUSH1 0x20 DUP3 DUP5 SUB SLT ISZERO PUSH2 0x1378 JUMPI PUSH2 0x1377 PUSH2 0x1C94 JUMP JUMPDEST JUMPDEST PUSH1 0x0 PUSH2 0x1386 DUP5 DUP3 DUP6 ADD PUSH2 0x1338 JUMP JUMPDEST SWAP2 POP POP SWAP3 SWAP2 POP POP JUMP JUMPDEST PUSH1 0x0 DUP1 PUSH1 0x40 DUP4 DUP6 SUB SLT ISZERO PUSH2 0x13A6 JUMPI PUSH2 0x13A5 PUSH2 0x1C94 JUMP JUMPDEST JUMPDEST PUSH1 0x0 PUSH2 0x13B4 DUP6 DUP3 DUP7 ADD PUSH2 0x1338 JUMP JUMPDEST SWAP3 POP POP PUSH1 0x20 PUSH2 0x13C5 DUP6 DUP3 DUP7 ADD PUSH2 0x1338 JUMP JUMPDEST SWAP2 POP POP SWAP3 POP SWAP3 SWAP1 POP JUMP JUMPDEST PUSH1 0x0 DUP1 PUSH1 0x0 PUSH1 0x60 DUP5 DUP7 SUB SLT ISZERO PUSH2 0x13E8 JUMPI PUSH2 0x13E7 PUSH2 0x1C94 JUMP JUMPDEST JUMPDEST PUSH1 0x0 PUSH2 0x13F6 DUP7 DUP3 DUP8 ADD PUSH2 0x1338 JUMP JUMPDEST SWAP4 POP POP PUSH1 0x20 PUSH2 0x1407 DUP7 DUP3 DUP8 ADD PUSH2 0x1338 JUMP JUMPDEST SWAP3 POP POP PUSH1 0x40 PUSH2 0x1418 DUP7 DUP3 DUP8 ADD PUSH2 0x134D JUMP JUMPDEST SWAP2 POP POP SWAP3 POP SWAP3 POP SWAP3 JUMP JUMPDEST PUSH1 0x0 DUP1 PUSH1 0x40 DUP4 DUP6 SUB SLT ISZERO PUSH2 0x1439 JUMPI PUSH2 0x1438 PUSH2 0x1C94 JUMP JUMPDEST JUMPDEST PUSH1 0x0 PUSH2 0x1447 DUP6 DUP3 DUP7 ADD PUSH2 0x1338 JUMP JUMPDEST SWAP3 POP POP PUSH1 0x20 PUSH2 0x1458 DUP6 DUP3 DUP7 ADD PUSH2 0x134D JUMP JUMPDEST SWAP2 POP POP SWAP3 POP SWAP3 SWAP1 POP JUMP JUMPDEST PUSH1 0x0 PUSH1 0x20 DUP3 DUP5 SUB SLT ISZERO PUSH2 0x1478 JUMPI PUSH2 0x1477 PUSH2 0x1C94 JUMP JUMPDEST JUMPDEST PUSH1 0x0 PUSH2 0x1486 DUP5 DUP3 DUP6 ADD PUSH2 0x134D JUMP JUMPDEST SWAP2 POP POP SWAP3 SWAP2 POP POP JUMP JUMPDEST PUSH1 0x0 DUP1 PUSH1 0x0 PUSH1 0x60 DUP5 DUP7 SUB SLT ISZERO PUSH2 0x14A8 JUMPI PUSH2 0x14A7 PUSH2 0x1C94 JUMP JUMPDEST JUMPDEST PUSH1 0x0 PUSH2 0x14B6 DUP7 DUP3 DUP8 ADD PUSH2 0x134D JUMP JUMPDEST SWAP4 POP POP PUSH1 0x20 PUSH2 0x14C7 DUP7 DUP3 DUP8 ADD PUSH2 0x134D JUMP JUMPDEST SWAP3 POP POP PUSH1 0x40 PUSH2 0x14D8 DUP7 DUP3 DUP8 ADD PUSH2 0x134D JUMP JUMPDEST SWAP2 POP POP SWAP3 POP SWAP3 POP SWAP3 JUMP JUMPDEST PUSH2 0x14EB DUP2 PUSH2 0x1AA5 JUMP JUMPDEST DUP3 MSTORE POP POP JUMP JUMPDEST PUSH2 0x1502 PUSH2 0x14FD DUP3 PUSH2 0x1AA5 JUMP JUMPDEST PUSH2 0x1BA8 JUMP JUMPDEST DUP3 MSTORE POP POP JUMP JUMPDEST PUSH2 0x1511 DUP2 PUSH2 0x1AB7 JUMP JUMPDEST DUP3 MSTORE POP POP JUMP JUMPDEST PUSH1 0x0 PUSH2 0x1522 DUP3 PUSH2 0x1868 JUMP JUMPDEST PUSH2 0x152C DUP2 DUP6 PUSH2 0x1873 JUMP JUMPDEST SWAP4 POP PUSH2 0x153C DUP2 DUP6 PUSH1 0x20 DUP7 ADD PUSH2 0x1AFA JUMP JUMPDEST PUSH2 0x1545 DUP2 PUSH2 0x1C99 JUMP JUMPDEST DUP5 ADD SWAP2 POP POP SWAP3 SWAP2 POP POP JUMP JUMPDEST PUSH1 0x0 PUSH2 0x155D PUSH1 0x23 DUP4 PUSH2 0x1873 JUMP JUMPDEST SWAP2 POP PUSH2 0x1568 DUP3 PUSH2 0x1CC4 JUMP JUMPDEST PUSH1 0x40 DUP3 ADD SWAP1 POP SWAP2 SWAP1 POP JUMP JUMPDEST PUSH1 0x0 PUSH2 0x1580 PUSH1 0x22 DUP4 PUSH2 0x1873 JUMP JUMPDEST SWAP2 POP PUSH2 0x158B DUP3 PUSH2 0x1D13 JUMP JUMPDEST PUSH1 0x40 DUP3 ADD SWAP1 POP SWAP2 SWAP1 POP JUMP JUMPDEST PUSH1 0x0 PUSH2 0x15A3 PUSH1 0x1D DUP4 PUSH2 0x1873 JUMP JUMPDEST SWAP2 POP PUSH2 0x15AE DUP3 PUSH2 0x1D62 JUMP JUMPDEST PUSH1 0x20 DUP3 ADD SWAP1 POP SWAP2 SWAP1 POP JUMP JUMPDEST PUSH1 0x0 PUSH2 0x15C6 PUSH1 0x26 DUP4 PUSH2 0x1873 JUMP JUMPDEST SWAP2 POP PUSH2 0x15D1 DUP3 PUSH2 0x1D8B JUMP JUMPDEST PUSH1 0x40 DUP3 ADD SWAP1 POP SWAP2 SWAP1 POP JUMP JUMPDEST PUSH1 0x0 PUSH2 0x15E9 PUSH1 0x25 DUP4 PUSH2 0x1873 JUMP JUMPDEST SWAP2 POP PUSH2 0x15F4 DUP3 PUSH2 0x1DDA JUMP JUMPDEST PUSH1 0x40 DUP3 ADD SWAP1 POP SWAP2 SWAP1 POP JUMP JUMPDEST PUSH1 0x0 PUSH2 0x160C PUSH1 0x24 DUP4 PUSH2 0x1873 JUMP JUMPDEST SWAP2 POP PUSH2 0x1617 DUP3 PUSH2 0x1E29 JUMP JUMPDEST PUSH1 0x40 DUP3 ADD SWAP1 POP SWAP2 SWAP1 POP JUMP JUMPDEST PUSH1 0x0 PUSH2 0x162F PUSH1 0x25 DUP4 PUSH2 0x1873 JUMP JUMPDEST SWAP2 POP PUSH2 0x163A DUP3 PUSH2 0x1E78 JUMP JUMPDEST PUSH1 0x40 DUP3 ADD SWAP1 POP SWAP2 SWAP1 POP JUMP JUMPDEST PUSH1 0x0 PUSH2 0x1652 PUSH1 0x1F DUP4 PUSH2 0x1873 JUMP JUMPDEST SWAP2 POP PUSH2 0x165D DUP3 PUSH2 0x1EC7 JUMP JUMPDEST PUSH1 0x20 DUP3 ADD SWAP1 POP SWAP2 SWAP1 POP JUMP JUMPDEST PUSH2 0x1671 DUP2 PUSH2 0x1AE3 JUMP JUMPDEST DUP3 MSTORE POP POP JUMP JUMPDEST PUSH2 0x1688 PUSH2 0x1683 DUP3 PUSH2 0x1AE3 JUMP JUMPDEST PUSH2 0x1BCC JUMP JUMPDEST DUP3 MSTORE POP POP JUMP JUMPDEST PUSH2 0x1697 DUP2 PUSH2 0x1AED JUMP JUMPDEST DUP3 MSTORE POP POP JUMP JUMPDEST PUSH1 0x0 PUSH2 0x16A9 DUP3 DUP7 PUSH2 0x1677 JUMP JUMPDEST PUSH1 0x20 DUP3 ADD SWAP2 POP PUSH2 0x16B9 DUP3 DUP6 PUSH2 0x14F1 JUMP JUMPDEST PUSH1 0x14 DUP3 ADD SWAP2 POP PUSH2 0x16C9 DUP3 DUP5 PUSH2 0x1677 JUMP JUMPDEST PUSH1 0x20 DUP3 ADD SWAP2 POP DUP2 SWAP1 POP SWAP5 SWAP4 POP POP POP POP JUMP JUMPDEST PUSH1 0x0 PUSH1 0x20 DUP3 ADD SWAP1 POP PUSH2 0x16EF PUSH1 0x0 DUP4 ADD DUP5 PUSH2 0x14E2 JUMP JUMPDEST SWAP3 SWAP2 POP POP JUMP JUMPDEST PUSH1 0x0 PUSH1 0x20 DUP3 ADD SWAP1 POP PUSH2 0x170A PUSH1 0x0 DUP4 ADD DUP5 PUSH2 0x1508 JUMP JUMPDEST SWAP3 SWAP2 POP POP JUMP JUMPDEST PUSH1 0x0 PUSH1 0x20 DUP3 ADD SWAP1 POP DUP2 DUP2 SUB PUSH1 0x0 DUP4 ADD MSTORE PUSH2 0x172A DUP2 DUP5 PUSH2 0x1517 JUMP JUMPDEST SWAP1 POP SWAP3 SWAP2 POP POP JUMP JUMPDEST PUSH1 0x0 PUSH1 0x20 DUP3 ADD SWAP1 POP DUP2 DUP2 SUB PUSH1 0x0 DUP4 ADD MSTORE PUSH2 0x174B DUP2 PUSH2 0x1550 JUMP JUMPDEST SWAP1 POP SWAP2 SWAP1 POP JUMP JUMPDEST PUSH1 0x0 PUSH1 0x20 DUP3 ADD SWAP1 POP DUP2 DUP2 SUB PUSH1 0x0 DUP4 ADD MSTORE PUSH2 0x176B DUP2 PUSH2 0x1573 JUMP JUMPDEST SWAP1 POP SWAP2 SWAP1 POP JUMP JUMPDEST PUSH1 0x0 PUSH1 0x20 DUP3 ADD SWAP1 POP DUP2 DUP2 SUB PUSH1 0x0 DUP4 ADD MSTORE PUSH2 0x178B DUP2 PUSH2 0x1596 JUMP JUMPDEST SWAP1 POP SWAP2 SWAP1 POP JUMP JUMPDEST PUSH1 0x0 PUSH1 0x20 DUP3 ADD SWAP1 POP DUP2 DUP2 SUB PUSH1 0x0 DUP4 ADD MSTORE PUSH2 0x17AB DUP2 PUSH2 0x15B9 JUMP JUMPDEST SWAP1 POP SWAP2 SWAP1 POP JUMP JUMPDEST PUSH1 0x0 PUSH1 0x20 DUP3 ADD SWAP1 POP DUP2 DUP2 SUB PUSH1 0x0 DUP4 ADD MSTORE PUSH2 0x17CB DUP2 PUSH2 0x15DC JUMP JUMPDEST SWAP1 POP SWAP2 SWAP1 POP JUMP JUMPDEST PUSH1 0x0 PUSH1 0x20 DUP3 ADD SWAP1 POP DUP2 DUP2 SUB PUSH1 0x0 DUP4 ADD MSTORE PUSH2 0x17EB DUP2 PUSH2 0x15FF JUMP JUMPDEST SWAP1 POP SWAP2 SWAP1 POP JUMP JUMPDEST PUSH1 0x0 PUSH1 0x20 DUP3 ADD SWAP1 POP DUP2 DUP2 SUB PUSH1 0x0 DUP4 ADD MSTORE PUSH2 0x180B DUP2 PUSH2 0x1622 JUMP JUMPDEST SWAP1 POP SWAP2 SWAP1 POP JUMP JUMPDEST PUSH1 0x0 PUSH1 0x20 DUP3 ADD SWAP1 POP DUP2 DUP2 SUB PUSH1 0x0 DUP4 ADD MSTORE PUSH2 0x182B DUP2 PUSH2 0x1645 JUMP JUMPDEST SWAP1 POP SWAP2 SWAP1 POP JUMP JUMPDEST PUSH1 0x0 PUSH1 0x20 DUP3 ADD SWAP1 POP PUSH2 0x1847 PUSH1 0x0 DUP4 ADD DUP5 PUSH2 0x1668 JUMP JUMPDEST SWAP3 SWAP2 POP POP JUMP JUMPDEST PUSH1 0x0 PUSH1 0x20 DUP3 ADD SWAP1 POP PUSH2 0x1862 PUSH1 0x0 DUP4 ADD DUP5 PUSH2 0x168E JUMP JUMPDEST SWAP3 SWAP2 POP POP JUMP JUMPDEST PUSH1 0x0 DUP2 MLOAD SWAP1 POP SWAP2 SWAP1 POP JUMP JUMPDEST PUSH1 0x0 DUP3 DUP3 MSTORE PUSH1 0x20 DUP3 ADD SWAP1 POP SWAP3 SWAP2 POP POP JUMP JUMPDEST PUSH1 0x0 PUSH2 0x188F DUP3 PUSH2 0x1AE3 JUMP JUMPDEST SWAP2 POP PUSH2 0x189A DUP4 PUSH2 0x1AE3 JUMP JUMPDEST SWAP3 POP DUP3 PUSH32 0xFFFFFFFFFFFFFFFFFFFFFFFFFFFFFFFFFFFFFFFFFFFFFFFFFFFFFFFFFFFFFFFF SUB DUP3 GT ISZERO PUSH2 0x18CF JUMPI PUSH2 0x18CE PUSH2 0x1C07 JUMP JUMPDEST JUMPDEST DUP3 DUP3 ADD SWAP1 POP SWAP3 SWAP2 POP POP JUMP JUMPDEST PUSH1 0x0 DUP1 DUP3 SWAP2 POP DUP4 SWAP1 POP JUMPDEST PUSH1 0x1 DUP6 GT ISZERO PUSH2 0x1924 JUMPI DUP1 DUP7 DIV DUP2 GT ISZERO PUSH2 0x1900 JUMPI PUSH2 0x18FF PUSH2 0x1C07 JUMP JUMPDEST JUMPDEST PUSH1 0x1 DUP6 AND ISZERO PUSH2 0x190F JUMPI DUP1 DUP3 MUL SWAP2 POP JUMPDEST DUP1 DUP2 MUL SWAP1 POP PUSH2 0x191D DUP6 PUSH2 0x1CB7 JUMP JUMPDEST SWAP5 POP PUSH2 0x18E4 JUMP JUMPDEST SWAP5 POP SWAP5 SWAP3 POP POP POP JUMP JUMPDEST PUSH1 0x0 PUSH2 0x1938 DUP3 PUSH2 0x1AE3 JUMP JUMPDEST SWAP2 POP PUSH2 0x1943 DUP4 PUSH2 0x1AED JUMP JUMPDEST SWAP3 POP PUSH2 0x1970 PUSH32 0xFFFFFFFFFFFFFFFFFFFFFFFFFFFFFFFFFFFFFFFFFFFFFFFFFFFFFFFFFFFFFFFF DUP5 DUP5 PUSH2 0x1978 JUMP JUMPDEST SWAP1 POP SWAP3 SWAP2 POP POP JUMP JUMPDEST PUSH1 0x0 DUP3 PUSH2 0x1988 JUMPI PUSH1 0x1 SWAP1 POP PUSH2 0x1A44 JUMP JUMPDEST DUP2 PUSH2 0x1996 JUMPI PUSH1 0x0 SWAP1 POP PUSH2 0x1A44 JUMP JUMPDEST DUP2 PUSH1 0x1 DUP2 EQ PUSH2 0x19AC JUMPI PUSH1 0x2 DUP2 EQ PUSH2 0x19B6 JUMPI PUSH2 0x19E5 JUMP JUMPDEST PUSH1 0x1 SWAP2 POP POP PUSH2 0x1A44 JUMP JUMPDEST PUSH1 0xFF DUP5 GT ISZERO PUSH2 0x19C8 JUMPI PUSH2 0x19C7 PUSH2 0x1C07 JUMP JUMPDEST JUMPDEST DUP4 PUSH1 0x2 EXP SWAP2 POP DUP5 DUP3 GT ISZERO PUSH2 0x19DF JUMPI PUSH2 0x19DE PUSH2 0x1C07 JUMP JUMPDEST JUMPDEST POP PUSH2 0x1A44 JUMP JUMPDEST POP PUSH1 0x20 DUP4 LT PUSH2 0x133 DUP4 LT AND PUSH1 0x4E DUP5 LT PUSH1 0xB DUP5 LT AND OR ISZERO PUSH2 0x1A1A JUMPI DUP3 DUP3 EXP SWAP1 POP DUP4 DUP2 GT ISZERO PUSH2 0x1A15 JUMPI PUSH2 0x1A14 PUSH2 0x1C07 JUMP JUMPDEST JUMPDEST PUSH2 0x1A44 JUMP JUMPDEST PUSH2 0x1A27 DUP5 DUP5 DUP5 PUSH1 0x1 PUSH2 0x18DA JUMP JUMPDEST SWAP3 POP SWAP1 POP DUP2 DUP5 DIV DUP2 GT ISZERO PUSH2 0x1A3E JUMPI PUSH2 0x1A3D PUSH2 0x1C07 JUMP JUMPDEST JUMPDEST DUP2 DUP2 MUL SWAP1 POP JUMPDEST SWAP4 SWAP3 POP POP POP JUMP JUMPDEST PUSH1 0x0 PUSH2 0x1A56 DUP3 PUSH2 0x1AE3 JUMP JUMPDEST SWAP2 POP PUSH2 0x1A61 DUP4 PUSH2 0x1AE3 JUMP JUMPDEST SWAP3 POP DUP2 PUSH32 0xFFFFFFFFFFFFFFFFFFFFFFFFFFFFFFFFFFFFFFFFFFFFFFFFFFFFFFFFFFFFFFFF DIV DUP4 GT DUP3 ISZERO ISZERO AND ISZERO PUSH2 0x1A9A JUMPI PUSH2 0x1A99 PUSH2 0x1C07 JUMP JUMPDEST JUMPDEST DUP3 DUP3 MUL SWAP1 POP SWAP3 SWAP2 POP POP JUMP JUMPDEST PUSH1 0x0 PUSH2 0x1AB0 DUP3 PUSH2 0x1AC3 JUMP JUMPDEST SWAP1 POP SWAP2 SWAP1 POP JUMP JUMPDEST PUSH1 0x0 DUP2 ISZERO ISZERO SWAP1 POP SWAP2 SWAP1 POP JUMP JUMPDEST PUSH1 0x0 PUSH20 0xFFFFFFFFFFFFFFFFFFFFFFFFFFFFFFFFFFFFFFFF DUP3 AND SWAP1 POP SWAP2 SWAP1 POP JUMP JUMPDEST PUSH1 0x0 DUP2 SWAP1 POP SWAP2 SWAP1 POP JUMP JUMPDEST PUSH1 0x0 PUSH1 0xFF DUP3 AND SWAP1 POP SWAP2 SWAP1 POP JUMP JUMPDEST PUSH1 0x0 JUMPDEST DUP4 DUP2 LT ISZERO PUSH2 0x1B18 JUMPI DUP1 DUP3 ADD MLOAD DUP2 DUP5 ADD MSTORE PUSH1 0x20 DUP2 ADD SWAP1 POP PUSH2 0x1AFD JUMP JUMPDEST DUP4 DUP2 GT ISZERO PUSH2 0x1B27 JUMPI PUSH1 0x0 DUP5 DUP5 ADD MSTORE JUMPDEST POP POP POP POP JUMP JUMPDEST PUSH1 0x0 PUSH1 0x2 DUP3 DIV SWAP1 POP PUSH1 0x1 DUP3 AND DUP1 PUSH2 0x1B45 JUMPI PUSH1 0x7F DUP3 AND SWAP2 POP JUMPDEST PUSH1 0x20 DUP3 LT DUP2 EQ ISZERO PUSH2 0x1B59 JUMPI PUSH2 0x1B58 PUSH2 0x1C65 JUMP JUMPDEST JUMPDEST POP SWAP2 SWAP1 POP JUMP JUMPDEST PUSH1 0x0 PUSH2 0x1B6A DUP3 PUSH2 0x1AE3 JUMP JUMPDEST SWAP2 POP PUSH32 0xFFFFFFFFFFFFFFFFFFFFFFFFFFFFFFFFFFFFFFFFFFFFFFFFFFFFFFFFFFFFFFFF DUP3 EQ ISZERO PUSH2 0x1B9D JUMPI PUSH2 0x1B9C PUSH2 0x1C07 JUMP JUMPDEST JUMPDEST PUSH1 0x1 DUP3 ADD SWAP1 POP SWAP2 SWAP1 POP JUMP JUMPDEST PUSH1 0x0 PUSH2 0x1BB3 DUP3 PUSH2 0x1BBA JUMP JUMPDEST SWAP1 POP SWAP2 SWAP1 POP JUMP JUMPDEST PUSH1 0x0 PUSH2 0x1BC5 DUP3 PUSH2 0x1CAA JUMP JUMPDEST SWAP1 POP SWAP2 SWAP1 POP JUMP JUMPDEST PUSH1 0x0 DUP2 SWAP1 POP SWAP2 SWAP1 POP JUMP JUMPDEST PUSH1 0x0 PUSH2 0x1BE1 DUP3 PUSH2 0x1AE3 JUMP JUMPDEST SWAP2 POP PUSH2 0x1BEC DUP4 PUSH2 0x1AE3 JUMP JUMPDEST SWAP3 POP DUP3 PUSH2 0x1BFC JUMPI PUSH2 0x1BFB PUSH2 0x1C36 JUMP JUMPDEST JUMPDEST DUP3 DUP3 MOD SWAP1 POP SWAP3 SWAP2 POP POP JUMP JUMPDEST PUSH32 0x4E487B7100000000000000000000000000000000000000000000000000000000 PUSH1 0x0 MSTORE PUSH1 0x11 PUSH1 0x4 MSTORE PUSH1 0x24 PUSH1 0x0 REVERT JUMPDEST PUSH32 0x4E487B7100000000000000000000000000000000000000000000000000000000 PUSH1 0x0 MSTORE PUSH1 0x12 PUSH1 0x4 MSTORE PUSH1 0x24 PUSH1 0x0 REVERT JUMPDEST PUSH32 0x4E487B7100000000000000000000000000000000000000000000000000000000 PUSH1 0x0 MSTORE PUSH1 0x22 PUSH1 0x4 MSTORE PUSH1 0x24 PUSH1 0x0 REVERT JUMPDEST PUSH1 0x0 DUP1 REVERT JUMPDEST PUSH1 0x0 PUSH1 0x1F NOT PUSH1 0x1F DUP4 ADD AND SWAP1 POP SWAP2 SWAP1 POP JUMP JUMPDEST PUSH1 0x0 DUP2 PUSH1 0x60 SHL SWAP1 POP SWAP2 SWAP1 POP JUMP JUMPDEST PUSH1 0x0 DUP2 PUSH1 0x1 SHR SWAP1 POP SWAP2 SWAP1 POP JUMP JUMPDEST PUSH32 0x45524332303A207472616E7366657220746F20746865207A65726F2061646472 PUSH1 0x0 DUP3 ADD MSTORE PUSH32 0x6573730000000000000000000000000000000000000000000000000000000000 PUSH1 0x20 DUP3 ADD MSTORE POP JUMP JUMPDEST PUSH32 0x45524332303A20617070726F766520746F20746865207A65726F206164647265 PUSH1 0x0 DUP3 ADD MSTORE PUSH32 0x7373000000000000000000000000000000000000000000000000000000000000 PUSH1 0x20 DUP3 ADD MSTORE POP JUMP JUMPDEST PUSH32 0x45524332303A20696E73756666696369656E7420616C6C6F77616E6365000000 PUSH1 0x0 DUP3 ADD MSTORE POP JUMP JUMPDEST PUSH32 0x45524332303A207472616E7366657220616D6F756E7420657863656564732062 PUSH1 0x0 DUP3 ADD MSTORE PUSH32 0x616C616E63650000000000000000000000000000000000000000000000000000 PUSH1 0x20 DUP3 ADD MSTORE POP JUMP JUMPDEST PUSH32 0x45524332303A207472616E736665722066726F6D20746865207A65726F206164 PUSH1 0x0 DUP3 ADD MSTORE PUSH32 0x6472657373000000000000000000000000000000000000000000000000000000 PUSH1 0x20 DUP3 ADD MSTORE POP JUMP JUMPDEST PUSH32 0x45524332303A20617070726F76652066726F6D20746865207A65726F20616464 PUSH1 0x0 DUP3 ADD MSTORE PUSH32 0x7265737300000000000000000000000000000000000000000000000000000000 PUSH1 0x20 DUP3 ADD MSTORE POP JUMP JUMPDEST PUSH32 0x45524332303A2064656372656173656420616C6C6F77616E63652062656C6F77 PUSH1 0x0 DUP3 ADD MSTORE PUSH32 0x207A65726F000000000000000000000000000000000000000000000000000000 PUSH1 0x20 DUP3 ADD MSTORE POP JUMP JUMPDEST PUSH32 0x45524332303A206D696E7420746F20746865207A65726F206164647265737300 PUSH1 0x0 DUP3 ADD MSTORE POP JUMP JUMPDEST PUSH2 0x1EF9 DUP2 PUSH2 0x1AA5 JUMP JUMPDEST DUP2 EQ PUSH2 0x1F04 JUMPI PUSH1 0x0 DUP1 REVERT JUMPDEST POP JUMP JUMPDEST PUSH2 0x1F10 DUP2 PUSH2 0x1AE3 JUMP JUMPDEST DUP2 EQ PUSH2 0x1F1B JUMPI PUSH1 0x0 DUP1 REVERT JUMPDEST POP JUMP INVALID LOG2 PUSH5 0x6970667358 0x22 SLT KECCAK256 0xC CODECOPY GASLIMIT PUSH4 0xA0C4E339 0xEA PUSH21 0xC3A5B60C5C9BFBCEE05A68D7C72864C0F386CAF940 PUSH21 0x64736F6C6343000807003300000000000000000000 "
				},
				"gasEstimates": {
					"creation": {
						"codeDepositCost": "1604000",
						"executionCost": "infinite",
						"totalCost": "infinite"
					},
					"external": {
						"RSP(uint256,uint256,uint256)": "infinite",
						"allowance(address,address)": "infinite",
						"approve(address,uint256)": "infinite",
						"balanceOf(address)": "2864",
						"decimals()": "388",
						"decreaseAllowance(address,uint256)": "infinite",
						"getRockScissorsPaper()": "infinite",
						"increaseAllowance(address,uint256)": "infinite",
						"mint(uint256)": "infinite",
						"name()": "infinite",
						"owner()": "2559",
						"symbol()": "infinite",
						"totalSupply()": "2505",
						"transfer(address,uint256)": "infinite",
						"transferFrom(address,address,uint256)": "infinite"
					},
					"internal": {
						"randMod()": "infinite"
					}
				},
				"methodIdentifiers": {
					"RSP(uint256,uint256,uint256)": "c64d3161",
					"allowance(address,address)": "dd62ed3e",
					"approve(address,uint256)": "095ea7b3",
					"balanceOf(address)": "70a08231",
					"decimals()": "313ce567",
					"decreaseAllowance(address,uint256)": "a457c2d7",
					"getRockScissorsPaper()": "4802d378",
					"increaseAllowance(address,uint256)": "39509351",
					"mint(uint256)": "a0712d68",
					"name()": "06fdde03",
					"owner()": "8da5cb5b",
					"symbol()": "95d89b41",
					"totalSupply()": "18160ddd",
					"transfer(address,uint256)": "a9059cbb",
					"transferFrom(address,address,uint256)": "23b872dd"
				}
			},
			"storageLayout": {
				"storage": [
					{
						"astId": 15,
						"contract": "contract/KimhoGames.sol:Game",
						"label": "_balances",
						"offset": 0,
						"slot": "0",
						"type": "t_mapping(t_address,t_uint256)"
					},
					{
						"astId": 21,
						"contract": "contract/KimhoGames.sol:Game",
						"label": "_allowances",
						"offset": 0,
						"slot": "1",
						"type": "t_mapping(t_address,t_mapping(t_address,t_uint256))"
					},
					{
						"astId": 23,
						"contract": "contract/KimhoGames.sol:Game",
						"label": "_totalSupply",
						"offset": 0,
						"slot": "2",
						"type": "t_uint256"
					},
					{
						"astId": 25,
						"contract": "contract/KimhoGames.sol:Game",
						"label": "_name",
						"offset": 0,
						"slot": "3",
						"type": "t_string_storage"
					},
					{
						"astId": 27,
						"contract": "contract/KimhoGames.sol:Game",
						"label": "_symbol",
						"offset": 0,
						"slot": "4",
						"type": "t_string_storage"
					},
					{
						"astId": 717,
						"contract": "contract/KimhoGames.sol:Game",
						"label": "owner",
						"offset": 0,
						"slot": "5",
						"type": "t_address"
					},
					{
						"astId": 719,
						"contract": "contract/KimhoGames.sol:Game",
						"label": "RockScissorsPaperScore",
						"offset": 0,
						"slot": "6",
						"type": "t_string_storage"
					},
					{
						"astId": 721,
						"contract": "contract/KimhoGames.sol:Game",
						"label": "BaseBallScore",
						"offset": 0,
						"slot": "7",
						"type": "t_string_storage"
					},
					{
						"astId": 723,
						"contract": "contract/KimhoGames.sol:Game",
						"label": "racingScore",
						"offset": 0,
						"slot": "8",
						"type": "t_string_storage"
					},
					{
						"astId": 774,
						"contract": "contract/KimhoGames.sol:Game",
						"label": "randNonce",
						"offset": 0,
						"slot": "9",
						"type": "t_uint256"
					}
				],
				"types": {
					"t_address": {
						"encoding": "inplace",
						"label": "address",
						"numberOfBytes": "20"
					},
					"t_mapping(t_address,t_mapping(t_address,t_uint256))": {
						"encoding": "mapping",
						"key": "t_address",
						"label": "mapping(address => mapping(address => uint256))",
						"numberOfBytes": "32",
						"value": "t_mapping(t_address,t_uint256)"
					},
					"t_mapping(t_address,t_uint256)": {
						"encoding": "mapping",
						"key": "t_address",
						"label": "mapping(address => uint256)",
						"numberOfBytes": "32",
						"value": "t_uint256"
					},
					"t_string_storage": {
						"encoding": "bytes",
						"label": "string",
						"numberOfBytes": "32"
					},
					"t_uint256": {
						"encoding": "inplace",
						"label": "uint256",
						"numberOfBytes": "32"
					}
				}
			},
			"userdoc": {
				"kind": "user",
				"methods": {},
				"version": 1
			}
		}
	}
}